{"abi":[{"type":"function","name":"UPGRADE_INTERFACE_VERSION","inputs":[],"outputs":[{"name":"","type":"string","internalType":"string"}],"stateMutability":"view"},{"type":"function","name":"acceptOwnership","inputs":[],"outputs":[],"stateMutability":"nonpayable"},{"type":"function","name":"accruedPremia","inputs":[{"name":"","type":"uint256","internalType":"uint256"}],"outputs":[{"name":"","type":"uint256","internalType":"uint256"}],"stateMutability":"view"},{"type":"function","name":"burnOption","inputs":[{"name":"positionId","type":"uint256","internalType":"uint256"}],"outputs":[],"stateMutability":"nonpayable"},{"type":"function","name":"getPosition","inputs":[{"name":"positionId","type":"uint256","internalType":"uint256"}],"outputs":[{"name":"position","type":"tuple","internalType":"struct IOptaiko.OptionPosition","components":[{"name":"owner","type":"address","internalType":"address"},{"name":"poolId","type":"bytes32","internalType":"bytes32"},{"name":"legs","type":"tuple[]","internalType":"struct IOptaiko.Leg[]","components":[{"name":"isLong","type":"bool","internalType":"bool"},{"name":"tickLower","type":"int24","internalType":"int24"},{"name":"tickUpper","type":"int24","internalType":"int24"},{"name":"liquidity","type":"uint128","internalType":"uint128"}]},{"name":"openedAt","type":"uint256","internalType":"uint256"}]}],"stateMutability":"view"},{"type":"function","name":"initialize","inputs":[{"name":"_poolManager","type":"address","internalType":"address"},{"name":"_owner","type":"address","internalType":"address"}],"outputs":[],"stateMutability":"nonpayable"},{"type":"function","name":"lastUpdateTimestamp","inputs":[{"name":"","type":"uint256","internalType":"uint256"}],"outputs":[{"name":"","type":"uint256","internalType":"uint256"}],"stateMutability":"view"},{"type":"function","name":"mintOption","inputs":[{"name":"poolId","type":"bytes32","internalType":"bytes32"},{"name":"legs","type":"tuple[]","internalType":"struct IOptaiko.Leg[]","components":[{"name":"isLong","type":"bool","internalType":"bool"},{"name":"tickLower","type":"int24","internalType":"int24"},{"name":"tickUpper","type":"int24","internalType":"int24"},{"name":"liquidity","type":"uint128","internalType":"uint128"}]}],"outputs":[{"name":"positionId","type":"uint256","internalType":"uint256"}],"stateMutability":"nonpayable"},{"type":"function","name":"owner","inputs":[],"outputs":[{"name":"","type":"address","internalType":"address"}],"stateMutability":"view"},{"type":"function","name":"pendingOwner","inputs":[],"outputs":[{"name":"","type":"address","internalType":"address"}],"stateMutability":"view"},{"type":"function","name":"poolManager","inputs":[],"outputs":[{"name":"","type":"address","internalType":"contract IPoolManager"}],"stateMutability":"view"},{"type":"function","name":"proxiableUUID","inputs":[],"outputs":[{"name":"","type":"bytes32","internalType":"bytes32"}],"stateMutability":"view"},{"type":"function","name":"renounceOwnership","inputs":[],"outputs":[],"stateMutability":"nonpayable"},{"type":"function","name":"transferOwnership","inputs":[{"name":"newOwner","type":"address","internalType":"address"}],"outputs":[],"stateMutability":"nonpayable"},{"type":"function","name":"updatePoolManager","inputs":[{"name":"_newPoolManager","type":"address","internalType":"address"}],"outputs":[],"stateMutability":"nonpayable"},{"type":"function","name":"upgradeToAndCall","inputs":[{"name":"newImplementation","type":"address","internalType":"address"},{"name":"data","type":"bytes","internalType":"bytes"}],"outputs":[],"stateMutability":"payable"},{"type":"event","name":"Initialized","inputs":[{"name":"version","type":"uint64","indexed":false,"internalType":"uint64"}],"anonymous":false},{"type":"event","name":"OptionBurned","inputs":[{"name":"positionId","type":"uint256","indexed":true,"internalType":"uint256"},{"name":"owner","type":"address","indexed":true,"internalType":"address"},{"name":"settledPremium","type":"uint256","indexed":false,"internalType":"uint256"}],"anonymous":false},{"type":"event","name":"OptionMinted","inputs":[{"name":"positionId","type":"uint256","indexed":true,"internalType":"uint256"},{"name":"owner","type":"address","indexed":true,"internalType":"address"},{"name":"poolId","type":"bytes32","indexed":false,"internalType":"bytes32"}],"anonymous":false},{"type":"event","name":"OwnershipTransferStarted","inputs":[{"name":"previousOwner","type":"address","indexed":true,"internalType":"address"},{"name":"newOwner","type":"address","indexed":true,"internalType":"address"}],"anonymous":false},{"type":"event","name":"OwnershipTransferred","inputs":[{"name":"previousOwner","type":"address","indexed":true,"internalType":"address"},{"name":"newOwner","type":"address","indexed":true,"internalType":"address"}],"anonymous":false},{"type":"event","name":"PoolManagerUpdated","inputs":[{"name":"oldManager","type":"address","indexed":true,"internalType":"address"},{"name":"newManager","type":"address","indexed":true,"internalType":"address"}],"anonymous":false},{"type":"event","name":"Upgraded","inputs":[{"name":"implementation","type":"address","indexed":true,"internalType":"address"}],"anonymous":false},{"type":"error","name":"AddressEmptyCode","inputs":[{"name":"target","type":"address","internalType":"address"}]},{"type":"error","name":"ERC1967InvalidImplementation","inputs":[{"name":"implementation","type":"address","internalType":"address"}]},{"type":"error","name":"ERC1967NonPayable","inputs":[]},{"type":"error","name":"FailedInnerCall","inputs":[]},{"type":"error","name":"InsufficientPremium","inputs":[]},{"type":"error","name":"InvalidInitialization","inputs":[]},{"type":"error","name":"InvalidPoolManager","inputs":[]},{"type":"error","name":"InvalidTickRange","inputs":[]},{"type":"error","name":"NotInitializing","inputs":[]},{"type":"error","name":"OptionAlreadyClosed","inputs":[]},{"type":"error","name":"OwnableInvalidOwner","inputs":[{"name":"owner","type":"address","internalType":"address"}]},{"type":"error","name":"OwnableUnauthorizedAccount","inputs":[{"name":"account","type":"address","internalType":"address"}]},{"type":"error","name":"PositionDoesNotExist","inputs":[]},{"type":"error","name":"ReentrancyGuardReentrantCall","inputs":[]},{"type":"error","name":"UUPSUnauthorizedCallContext","inputs":[]},{"type":"error","name":"UUPSUnsupportedProxiableUUID","inputs":[{"name":"slot","type":"bytes32","internalType":"bytes32"}]},{"type":"error","name":"Unauthorized","inputs":[]},{"type":"error","name":"ZeroLiquidity","inputs":[]}],"bytecode":{"object":"0x60a08060405234602957306080526110e6908161002e82396080518181816106b201526107810152f35b5f80fdfe60806040526004361015610011575f80fd5b5f3560e01c806306d0742314610b295780632ffe186c14610aff578063485cc955146109365780634f1ef2861461070657806352d1902d146106a0578063575247511461061f578063715018a6146105a257806379ba50971461055457806381ae634d14610445578063882ea4e11461041b5780638da5cb5b146103e7578063ad3cb1cc14610389578063dc4c90d314610362578063e30c39781461032e578063eb02c301146101515763f2fde38b146100c9575f80fd5b3461014d57602036600319011261014d576100e2610e2b565b6100ea610efc565b5f8051602061109183398151915280546001600160a01b0319166001600160a01b039283169081179091555f80516020611011833981519152549091167f38d16b8cac22d99fc7c124b9cd0de2d3fa1faef420bfe791d8c362d765e227005f80a3005b5f80fd5b3461014d57602036600319011261014d575f606060405161017181610e41565b82815282602082015281604082015201526004355f52600160205260405f206040519061019d82610e41565b80546001600160a01b03168252600181015460208301908152600282018054919290916001600160401b03811161031a57604051926101e260208360051b0185610e5c565b81845260208401905f5260205f205f915b8383106102c9575050505060408401918252600301546060840190815283519091906001600160a01b0316156102ba5760408051602080825295516001600160a01b0316868201529351908401525160806060840152805160a084018190525f9460c08501939201905b8086106102735750508293505160808301520390f35b9092602060806001926001600160801b03606088518051151584528581015160020b86850152604081015160020b604085015201511660608201520194019501949061025d565b63f7b3b39160e01b5f5260045ffd5b6001602081926040516102db81610e41565b6001600160801b03865460ff8116151583528060081c60020b8584015280851c60020b604084015260381c1660608201528152019201920191906101f3565b634e487b7160e01b5f52604160045260245ffd5b3461014d575f36600319011261014d575f80516020611091833981519152546040516001600160a01b039091168152602090f35b3461014d575f36600319011261014d575f546040516001600160a01b039091168152602090f35b3461014d575f36600319011261014d5760408051906103a88183610e5c565b600582526020820191640352e302e360dc1b83528151928391602083525180918160208501528484015e5f828201840152601f01601f19168101030190f35b3461014d575f36600319011261014d575f80516020611011833981519152546040516001600160a01b039091168152602090f35b3461014d57602036600319011261014d576004355f526002602052602060405f2054604051908152f35b3461014d57602036600319011261014d57600435610461610ec4565b5f818152600160205260409020546001600160a01b031633810361054657156102ba57805f52600260205260405f205490805f5260036020524260405f2055805f52600160205260405f205f81555f6001820155600281018054905f815581610528575b505060035f910155805f5260026020525f6040812055805f5260036020525f60408120556040519182527fde89f72b3e4f11843af04010c0e5b3110cf75cda1cacbd7466699eb9c27a422360203393a360015f8051602061105183398151915255005b5f5260205f20908101905b818110156104c5575f8155600101610533565b6282b42960e81b5f5260045ffd5b3461014d575f36600319011261014d575f8051602061109183398151915254336001600160a01b039091160361058f5761058d33610f1c565b005b63118cdaa760e01b5f523360045260245ffd5b3461014d575f36600319011261014d576105ba610efc565b5f8051602061109183398151915280546001600160a01b03199081169091555f80516020611011833981519152805491821690555f906001600160a01b03167f8be0079c531659141344cd1fd0a4f28419497f9722a3daafe3b4186f6b6457e08280a3005b3461014d57602036600319011261014d57610638610e2b565b610640610efc565b6001600160a01b03168015610691575f80546001600160a01b03198116831782556001600160a01b0316907f98ea7e41f981415a7f25f05c01f54351c0524b978d01a0446d0ff3bb92840fb79080a3005b63bc12814760e01b5f5260045ffd5b3461014d575f36600319011261014d577f00000000000000000000000000000000000000000000000000000000000000006001600160a01b031630036106f75760206040515f805160206110318339815191528152f35b63703e46dd60e11b5f5260045ffd5b604036600319011261014d5761071a610e2b565b602435906001600160401b03821161014d573660238301121561014d5781600401359061074682610e7d565b916107546040519384610e5c565b8083526020830193366024838301011161014d57815f926024602093018737840101526001600160a01b037f000000000000000000000000000000000000000000000000000000000000000016308114908115610914575b506106f7576107b9610efc565b6040516352d1902d60e01b81526001600160a01b0382169390602081600481885afa5f91816108e0575b506107fb5784634c9c8ce360e01b5f5260045260245ffd5b805f805160206110318339815191528692036108ce5750823b156108bc575f8051602061103183398151915280546001600160a01b031916821790557fbc7cd75a20ee27fd9adebab32041f755214dbc6bffa90cc0225b39da2e5c2d3b5f80a28251156108a3575f809161058d945190845af43d1561089b573d9161087f83610e7d565b9261088d6040519485610e5c565b83523d5f602085013e610fb2565b606091610fb2565b505050346108ad57005b63b398979f60e01b5f5260045ffd5b634c9c8ce360e01b5f5260045260245ffd5b632a87526960e21b5f5260045260245ffd5b9091506020813d60201161090c575b816108fc60209383610e5c565b8101031261014d575190866107e3565b3d91506108ef565b5f80516020611031833981519152546001600160a01b031614159050846107ac565b3461014d57604036600319011261014d5761094f610e2b565b6024356001600160a01b0381169081810361014d575f80516020611071833981519152549260ff8460401c1615936001600160401b03811680159081610af7575b6001149081610aed575b159081610ae4575b50610ad55767ffffffffffffffff1981166001175f805160206110718339815191525584610aa9575b506001600160a01b0316918215610691576109e4610f87565b6109ec610f87565b6109f4610f87565b15610a9657610a0290610f1c565b610a0a610f87565b610a12610f87565b60015f80516020611051833981519152556bffffffffffffffffffffffff60a01b5f5416175f55610a3f57005b68ff0000000000000000195f8051602061107183398151915254165f80516020611071833981519152557fc7f505b2f371ae2175ee4913f4499e1f2633a7b5936321eed1cdaeb6115181d2602060405160018152a1005b631e4fbdf760e01b5f525f60045260245ffd5b68ffffffffffffffffff191668010000000000000001175f8051602061107183398151915255846109cb565b63f92ee8a960e01b5f5260045ffd5b905015866109a2565b303b15915061099a565b869150610990565b3461014d57602036600319011261014d576004355f526003602052602060405f2054604051908152f35b3461014d57604036600319011261014d576024356004356001600160401b03821161014d573660238301121561014d578160040135906001600160401b03821161014d576024830192602436918460071b01011161014d57610b89610ec4565b8115610dfa575f54916001600160401b038360a01c166001600160401b038114610e175760019094919401926001600160401b038416936001600160401b0360a01b9060a01b16906001600160401b0360a01b1916175f55825f52600160205260405f2093336bffffffffffffffffffffffff60a01b86541617855582600186015542600386015560025f9501945b818110610c755760208585815f52600383524260405f2055604051908152817fde12855a0c6484a94119c0040bafb90aa1955c1d51e8c3cb9dab95e3e5b67cc5843393a360015f8051602061105183398151915255604051908152f35b610c80818385610e98565b60808136031261014d5760405190610c9782610e41565b8035801515810361014d578252610cb060208201610ea8565b6020830190808252610cc460408401610ea8565b606060408601948286520135946001600160801b038616860361014d5760600194855260020b9060020b1215610e0957603c905160020b0760020b610e0957603c905160020b0760020b610e0957516001600160801b031615610dfa57610d2c818385610e98565b9086546801000000000000000081101561031a5760018101808955811015610de657875f5260205f200182359283151580940361014d57815490610d7260208201610eb6565b60081b6060610d8360408401610eb6565b60201b9201356001600160801b038116810361014d57600196600160381b600160b81b0363ffffff009260381b169460ff600160381b600160b81b031992169066ffffffffffffff191617169116179066ffffff00000000161717905501610c18565b634e487b7160e01b5f52603260045260245ffd5b630200e8a960e31b5f5260045ffd5b6264847d60e41b5f5260045ffd5b634e487b7160e01b5f52601160045260245ffd5b600435906001600160a01b038216820361014d57565b608081019081106001600160401b0382111761031a57604052565b90601f801991011681019081106001600160401b0382111761031a57604052565b6001600160401b03811161031a57601f01601f191660200190565b9190811015610de65760071b0190565b35908160020b820361014d57565b358060020b810361014d5790565b60025f805160206110518339815191525414610eed5760025f8051602061105183398151915255565b633ee5aeb560e01b5f5260045ffd5b5f80516020611011833981519152546001600160a01b0316330361058f57565b5f8051602061109183398151915280546001600160a01b03199081169091555f8051602061101183398151915280549182166001600160a01b0393841690811790915591167f8be0079c531659141344cd1fd0a4f28419497f9722a3daafe3b4186f6b6457e05f80a3565b60ff5f805160206110718339815191525460401c1615610fa357565b631afcd79f60e31b5f5260045ffd5b90610fd65750805115610fc757805190602001fd5b630a12f52160e11b5f5260045ffd5b81511580611007575b610fe7575090565b639996b31560e01b5f9081526001600160a01b0391909116600452602490fd5b50803b15610fdf56fe9016d09d72d40fdae2fd8ceac6b6234c7706214fd39c1cd1e609a0528c199300360894a13ba1a3210667c828492db98dca3e2076cc3735a920a3ca505d382bbc9b779b17422d0df92223018b32b4d1fa46e071723d6817e2486d003becc55f00f0c57e16840df040f15088dc2f81fe391c3923bec73e23a9662efc9c229c6a00237e158222e3e6968b72b9db0d8043aacf074ad9f650f0d1606b4d82ee432c00a2646970667358221220c75135b7e3a49d0000e51e01e0b565939fd9035edcc1c97b7329cf6370c8a05764736f6c634300081a0033","linkReferences":{}},"methodIdentifiers":{"UPGRADE_INTERFACE_VERSION()":"ad3cb1cc","acceptOwnership()":"79ba5097","accruedPremia(uint256)":"882ea4e1","burnOption(uint256)":"81ae634d","getPosition(uint256)":"eb02c301","initialize(address,address)":"485cc955","lastUpdateTimestamp(uint256)":"2ffe186c","mintOption(bytes32,(bool,int24,int24,uint128)[])":"06d07423","owner()":"8da5cb5b","pendingOwner()":"e30c3978","poolManager()":"dc4c90d3","proxiableUUID()":"52d1902d","renounceOwnership()":"715018a6","transferOwnership(address)":"f2fde38b","updatePoolManager(address)":"57524751","upgradeToAndCall(address,bytes)":"4f1ef286"},"storageLayout":{"storage":[{"astId":104,"contract":"contracts/Optaiko.sol:Optaiko","label":"poolManager","offset":0,"slot":"0","type":"t_contract(IPoolManager)2752"},{"astId":107,"contract":"contracts/Optaiko.sol:Optaiko","label":"_positionIdCounter","offset":20,"slot":"0","type":"t_uint64"},{"astId":113,"contract":"contracts/Optaiko.sol:Optaiko","label":"_positions","offset":0,"slot":"1","type":"t_mapping(t_uint256,t_struct(OptionPosition)24_storage)"},{"astId":118,"contract":"contracts/Optaiko.sol:Optaiko","label":"accruedPremia","offset":0,"slot":"2","type":"t_mapping(t_uint256,t_uint256)"},{"astId":123,"contract":"contracts/Optaiko.sol:Optaiko","label":"lastUpdateTimestamp","offset":0,"slot":"3","type":"t_mapping(t_uint256,t_uint256)"},{"astId":127,"contract":"contracts/Optaiko.sol:Optaiko","label":"__gap","offset":0,"slot":"4","type":"t_array(t_uint256)46_storage"}],"types":{"t_address":{"encoding":"inplace","label":"address","numberOfBytes":"20"},"t_array(t_struct(Leg)12_storage)dyn_storage":{"encoding":"dynamic_array","label":"struct IOptaiko.Leg[]","numberOfBytes":"32","base":"t_struct(Leg)12_storage"},"t_array(t_uint256)46_storage":{"encoding":"inplace","label":"uint256[46]","numberOfBytes":"1472","base":"t_uint256"},"t_bool":{"encoding":"inplace","label":"bool","numberOfBytes":"1"},"t_bytes32":{"encoding":"inplace","label":"bytes32","numberOfBytes":"32"},"t_contract(IPoolManager)2752":{"encoding":"inplace","label":"contract IPoolManager","numberOfBytes":"20"},"t_int24":{"encoding":"inplace","label":"int24","numberOfBytes":"3"},"t_mapping(t_uint256,t_struct(OptionPosition)24_storage)":{"encoding":"mapping","key":"t_uint256","label":"mapping(uint256 => struct IOptaiko.OptionPosition)","numberOfBytes":"32","value":"t_struct(OptionPosition)24_storage"},"t_mapping(t_uint256,t_uint256)":{"encoding":"mapping","key":"t_uint256","label":"mapping(uint256 => uint256)","numberOfBytes":"32","value":"t_uint256"},"t_struct(Leg)12_storage":{"encoding":"inplace","label":"struct IOptaiko.Leg","numberOfBytes":"32","members":[{"astId":5,"contract":"contracts/Optaiko.sol:Optaiko","label":"isLong","offset":0,"slot":"0","type":"t_bool"},{"astId":7,"contract":"contracts/Optaiko.sol:Optaiko","label":"tickLower","offset":1,"slot":"0","type":"t_int24"},{"astId":9,"contract":"contracts/Optaiko.sol:Optaiko","label":"tickUpper","offset":4,"slot":"0","type":"t_int24"},{"astId":11,"contract":"contracts/Optaiko.sol:Optaiko","label":"liquidity","offset":7,"slot":"0","type":"t_uint128"}]},"t_struct(OptionPosition)24_storage":{"encoding":"inplace","label":"struct IOptaiko.OptionPosition","numberOfBytes":"128","members":[{"astId":15,"contract":"contracts/Optaiko.sol:Optaiko","label":"owner","offset":0,"slot":"0","type":"t_address"},{"astId":17,"contract":"contracts/Optaiko.sol:Optaiko","label":"poolId","offset":0,"slot":"1","type":"t_bytes32"},{"astId":21,"contract":"contracts/Optaiko.sol:Optaiko","label":"legs","offset":0,"slot":"2","type":"t_array(t_struct(Leg)12_storage)dyn_storage"},{"astId":23,"contract":"contracts/Optaiko.sol:Optaiko","label":"openedAt","offset":0,"slot":"3","type":"t_uint256"}]},"t_uint128":{"encoding":"inplace","label":"uint128","numberOfBytes":"16"},"t_uint256":{"encoding":"inplace","label":"uint256","numberOfBytes":"32"},"t_uint64":{"encoding":"inplace","label":"uint64","numberOfBytes":"8"}}},"id":1}