{"abi":[{"type":"function","name":"DEFAULT_ADMIN_ROLE","inputs":[],"outputs":[{"name":"","type":"bytes32","internalType":"bytes32"}],"stateMutability":"view"},{"type":"function","name":"UPGRADE_INTERFACE_VERSION","inputs":[],"outputs":[{"name":"","type":"string","internalType":"string"}],"stateMutability":"view"},{"type":"function","name":"acceptOwnership","inputs":[],"outputs":[],"stateMutability":"nonpayable"},{"type":"function","name":"approve","inputs":[{"name":"to","type":"address","internalType":"address"},{"name":"tokenId","type":"uint256","internalType":"uint256"}],"outputs":[],"stateMutability":"nonpayable"},{"type":"function","name":"areWinnersSet","inputs":[],"outputs":[{"name":"","type":"bool","internalType":"bool"}],"stateMutability":"view"},{"type":"function","name":"balanceOf","inputs":[{"name":"owner","type":"address","internalType":"address"}],"outputs":[{"name":"","type":"uint256","internalType":"uint256"}],"stateMutability":"view"},{"type":"function","name":"baseURI","inputs":[],"outputs":[{"name":"","type":"string","internalType":"string"}],"stateMutability":"view"},{"type":"function","name":"blacklist","inputs":[],"outputs":[{"name":"","type":"address","internalType":"contract IMinimalBlacklist"}],"stateMutability":"view"},{"type":"function","name":"getApproved","inputs":[{"name":"tokenId","type":"uint256","internalType":"uint256"}],"outputs":[{"name":"","type":"address","internalType":"address"}],"stateMutability":"view"},{"type":"function","name":"getRoleAdmin","inputs":[{"name":"role","type":"bytes32","internalType":"bytes32"}],"outputs":[{"name":"","type":"bytes32","internalType":"bytes32"}],"stateMutability":"view"},{"type":"function","name":"getWinnerTokenIds","inputs":[],"outputs":[{"name":"","type":"uint256[]","internalType":"uint256[]"}],"stateMutability":"view"},{"type":"function","name":"getWinners","inputs":[],"outputs":[{"name":"_winners","type":"address[]","internalType":"address[]"}],"stateMutability":"view"},{"type":"function","name":"grantRole","inputs":[{"name":"role","type":"bytes32","internalType":"bytes32"},{"name":"account","type":"address","internalType":"address"}],"outputs":[],"stateMutability":"nonpayable"},{"type":"function","name":"hasRole","inputs":[{"name":"role","type":"bytes32","internalType":"bytes32"},{"name":"account","type":"address","internalType":"address"}],"outputs":[{"name":"","type":"bool","internalType":"bool"}],"stateMutability":"view"},{"type":"function","name":"initialize","inputs":[{"name":"_payoutAddress","type":"address","internalType":"address"},{"name":"_mintFee","type":"uint256","internalType":"uint256"},{"name":"_baseURI","type":"string","internalType":"string"},{"name":"_blacklistAddress","type":"address","internalType":"contract IMinimalBlacklist"}],"outputs":[],"stateMutability":"nonpayable"},{"type":"function","name":"isApprovedForAll","inputs":[{"name":"owner","type":"address","internalType":"address"},{"name":"operator","type":"address","internalType":"address"}],"outputs":[{"name":"","type":"bool","internalType":"bool"}],"stateMutability":"view"},{"type":"function","name":"isGoldenWinner","inputs":[{"name":"tokenId","type":"uint256","internalType":"uint256"}],"outputs":[{"name":"","type":"bool","internalType":"bool"}],"stateMutability":"view"},{"type":"function","name":"isGoldenWinner","inputs":[{"name":"account","type":"address","internalType":"address"}],"outputs":[{"name":"","type":"bool","internalType":"bool"}],"stateMutability":"view"},{"type":"function","name":"isWinner","inputs":[{"name":"tokenId","type":"uint256","internalType":"uint256"}],"outputs":[{"name":"","type":"bool","internalType":"bool"}],"stateMutability":"view"},{"type":"function","name":"isWinner","inputs":[{"name":"minter","type":"address","internalType":"address"}],"outputs":[{"name":"","type":"bool","internalType":"bool"}],"stateMutability":"view"},{"type":"function","name":"mint","inputs":[],"outputs":[],"stateMutability":"payable"},{"type":"function","name":"mint","inputs":[{"name":"to","type":"address","internalType":"address"}],"outputs":[],"stateMutability":"nonpayable"},{"type":"function","name":"mint","inputs":[{"name":"amount","type":"uint256","internalType":"uint256"}],"outputs":[],"stateMutability":"payable"},{"type":"function","name":"mintActive","inputs":[],"outputs":[{"name":"","type":"bool","internalType":"bool"}],"stateMutability":"view"},{"type":"function","name":"mintFee","inputs":[],"outputs":[{"name":"","type":"uint256","internalType":"uint256"}],"stateMutability":"view"},{"type":"function","name":"mintWinner","inputs":[{"name":"to","type":"address","internalType":"address"}],"outputs":[],"stateMutability":"nonpayable"},{"type":"function","name":"name","inputs":[],"outputs":[{"name":"","type":"string","internalType":"string"}],"stateMutability":"view"},{"type":"function","name":"owner","inputs":[],"outputs":[{"name":"","type":"address","internalType":"address"}],"stateMutability":"view"},{"type":"function","name":"ownerOf","inputs":[{"name":"tokenId","type":"uint256","internalType":"uint256"}],"outputs":[{"name":"","type":"address","internalType":"address"}],"stateMutability":"view"},{"type":"function","name":"pause","inputs":[],"outputs":[],"stateMutability":"nonpayable"},{"type":"function","name":"paused","inputs":[],"outputs":[{"name":"","type":"bool","internalType":"bool"}],"stateMutability":"view"},{"type":"function","name":"payout","inputs":[],"outputs":[],"stateMutability":"nonpayable"},{"type":"function","name":"payoutAddress","inputs":[],"outputs":[{"name":"","type":"address","internalType":"address"}],"stateMutability":"view"},{"type":"function","name":"pendingOwner","inputs":[],"outputs":[{"name":"","type":"address","internalType":"address"}],"stateMutability":"view"},{"type":"function","name":"proxiableUUID","inputs":[],"outputs":[{"name":"","type":"bytes32","internalType":"bytes32"}],"stateMutability":"view"},{"type":"function","name":"renounceOwnership","inputs":[],"outputs":[],"stateMutability":"nonpayable"},{"type":"function","name":"renounceRole","inputs":[{"name":"role","type":"bytes32","internalType":"bytes32"},{"name":"callerConfirmation","type":"address","internalType":"address"}],"outputs":[],"stateMutability":"nonpayable"},{"type":"function","name":"revokeAndReplaceWinner","inputs":[{"name":"revokeId","type":"uint256","internalType":"uint256"},{"name":"newWinnerId","type":"uint256","internalType":"uint256"}],"outputs":[],"stateMutability":"nonpayable"},{"type":"function","name":"revokeRole","inputs":[{"name":"role","type":"bytes32","internalType":"bytes32"},{"name":"account","type":"address","internalType":"address"}],"outputs":[],"stateMutability":"nonpayable"},{"type":"function","name":"revokeWinner","inputs":[{"name":"tokenId","type":"uint256","internalType":"uint256"}],"outputs":[],"stateMutability":"nonpayable"},{"type":"function","name":"revokeWinners","inputs":[{"name":"tokenIds","type":"uint256[]","internalType":"uint256[]"}],"outputs":[],"stateMutability":"nonpayable"},{"type":"function","name":"safeTransferFrom","inputs":[{"name":"from","type":"address","internalType":"address"},{"name":"to","type":"address","internalType":"address"},{"name":"tokenId","type":"uint256","internalType":"uint256"}],"outputs":[],"stateMutability":"nonpayable"},{"type":"function","name":"safeTransferFrom","inputs":[{"name":"from","type":"address","internalType":"address"},{"name":"to","type":"address","internalType":"address"},{"name":"tokenId","type":"uint256","internalType":"uint256"},{"name":"data","type":"bytes","internalType":"bytes"}],"outputs":[],"stateMutability":"nonpayable"},{"type":"function","name":"setApprovalForAll","inputs":[{"name":"operator","type":"address","internalType":"address"},{"name":"approved","type":"bool","internalType":"bool"}],"outputs":[],"stateMutability":"nonpayable"},{"type":"function","name":"setBaseURI","inputs":[{"name":"_baseURI","type":"string","internalType":"string"}],"outputs":[],"stateMutability":"nonpayable"},{"type":"function","name":"setWinnerURI","inputs":[{"name":"_winnerBaseURI","type":"string","internalType":"string"}],"outputs":[],"stateMutability":"nonpayable"},{"type":"function","name":"setWinners","inputs":[{"name":"_winners","type":"uint256[]","internalType":"uint256[]"}],"outputs":[],"stateMutability":"nonpayable"},{"type":"function","name":"supportsInterface","inputs":[{"name":"interfaceId","type":"bytes4","internalType":"bytes4"}],"outputs":[{"name":"","type":"bool","internalType":"bool"}],"stateMutability":"view"},{"type":"function","name":"symbol","inputs":[],"outputs":[{"name":"","type":"string","internalType":"string"}],"stateMutability":"view"},{"type":"function","name":"tokenByIndex","inputs":[{"name":"index","type":"uint256","internalType":"uint256"}],"outputs":[{"name":"","type":"uint256","internalType":"uint256"}],"stateMutability":"view"},{"type":"function","name":"tokenOfOwnerByIndex","inputs":[{"name":"owner","type":"address","internalType":"address"},{"name":"index","type":"uint256","internalType":"uint256"}],"outputs":[{"name":"","type":"uint256","internalType":"uint256"}],"stateMutability":"view"},{"type":"function","name":"tokenURI","inputs":[{"name":"tokenId","type":"uint256","internalType":"uint256"}],"outputs":[{"name":"","type":"string","internalType":"string"}],"stateMutability":"view"},{"type":"function","name":"totalSupply","inputs":[],"outputs":[{"name":"","type":"uint256","internalType":"uint256"}],"stateMutability":"view"},{"type":"function","name":"transferFrom","inputs":[{"name":"from","type":"address","internalType":"address"},{"name":"to","type":"address","internalType":"address"},{"name":"tokenId","type":"uint256","internalType":"uint256"}],"outputs":[],"stateMutability":"nonpayable"},{"type":"function","name":"transferOwnership","inputs":[{"name":"newOwner","type":"address","internalType":"address"}],"outputs":[],"stateMutability":"nonpayable"},{"type":"function","name":"unpause","inputs":[],"outputs":[],"stateMutability":"nonpayable"},{"type":"function","name":"updateBlacklist","inputs":[{"name":"_blacklist","type":"address","internalType":"contract IMinimalBlacklist"}],"outputs":[],"stateMutability":"nonpayable"},{"type":"function","name":"updatePayoutAddress","inputs":[{"name":"_payoutAddress","type":"address","internalType":"address"}],"outputs":[],"stateMutability":"nonpayable"},{"type":"function","name":"upgradeToAndCall","inputs":[{"name":"newImplementation","type":"address","internalType":"address"},{"name":"data","type":"bytes","internalType":"bytes"}],"outputs":[],"stateMutability":"payable"},{"type":"function","name":"version","inputs":[],"outputs":[{"name":"","type":"string","internalType":"string"}],"stateMutability":"pure"},{"type":"function","name":"winnerBaseURI","inputs":[],"outputs":[{"name":"","type":"string","internalType":"string"}],"stateMutability":"view"},{"type":"function","name":"winnerIds","inputs":[{"name":"","type":"uint256","internalType":"uint256"}],"outputs":[{"name":"","type":"uint256","internalType":"uint256"}],"stateMutability":"view"},{"type":"function","name":"winners","inputs":[{"name":"tokenId","type":"uint256","internalType":"uint256"}],"outputs":[{"name":"isWinner","type":"bool","internalType":"bool"}],"stateMutability":"view"},{"type":"event","name":"Approval","inputs":[{"name":"owner","type":"address","indexed":true,"internalType":"address"},{"name":"approved","type":"address","indexed":true,"internalType":"address"},{"name":"tokenId","type":"uint256","indexed":true,"internalType":"uint256"}],"anonymous":false},{"type":"event","name":"ApprovalForAll","inputs":[{"name":"owner","type":"address","indexed":true,"internalType":"address"},{"name":"operator","type":"address","indexed":true,"internalType":"address"},{"name":"approved","type":"bool","indexed":false,"internalType":"bool"}],"anonymous":false},{"type":"event","name":"BlacklistUpdated","inputs":[{"name":"_blacklist","type":"address","indexed":false,"internalType":"address"}],"anonymous":false},{"type":"event","name":"Initialized","inputs":[{"name":"version","type":"uint64","indexed":false,"internalType":"uint64"}],"anonymous":false},{"type":"event","name":"OwnershipTransferStarted","inputs":[{"name":"previousOwner","type":"address","indexed":true,"internalType":"address"},{"name":"newOwner","type":"address","indexed":true,"internalType":"address"}],"anonymous":false},{"type":"event","name":"OwnershipTransferred","inputs":[{"name":"previousOwner","type":"address","indexed":true,"internalType":"address"},{"name":"newOwner","type":"address","indexed":true,"internalType":"address"}],"anonymous":false},{"type":"event","name":"Paused","inputs":[{"name":"account","type":"address","indexed":false,"internalType":"address"}],"anonymous":false},{"type":"event","name":"RoleAdminChanged","inputs":[{"name":"role","type":"bytes32","indexed":true,"internalType":"bytes32"},{"name":"previousAdminRole","type":"bytes32","indexed":true,"internalType":"bytes32"},{"name":"newAdminRole","type":"bytes32","indexed":true,"internalType":"bytes32"}],"anonymous":false},{"type":"event","name":"RoleGranted","inputs":[{"name":"role","type":"bytes32","indexed":true,"internalType":"bytes32"},{"name":"account","type":"address","indexed":true,"internalType":"address"},{"name":"sender","type":"address","indexed":true,"internalType":"address"}],"anonymous":false},{"type":"event","name":"RoleRevoked","inputs":[{"name":"role","type":"bytes32","indexed":true,"internalType":"bytes32"},{"name":"account","type":"address","indexed":true,"internalType":"address"},{"name":"sender","type":"address","indexed":true,"internalType":"address"}],"anonymous":false},{"type":"event","name":"Transfer","inputs":[{"name":"from","type":"address","indexed":true,"internalType":"address"},{"name":"to","type":"address","indexed":true,"internalType":"address"},{"name":"tokenId","type":"uint256","indexed":true,"internalType":"uint256"}],"anonymous":false},{"type":"event","name":"Unpaused","inputs":[{"name":"account","type":"address","indexed":false,"internalType":"address"}],"anonymous":false},{"type":"event","name":"Upgraded","inputs":[{"name":"implementation","type":"address","indexed":true,"internalType":"address"}],"anonymous":false},{"type":"error","name":"ADDRESS_BLACKLISTED","inputs":[]},{"type":"error","name":"AccessControlBadConfirmation","inputs":[]},{"type":"error","name":"AccessControlUnauthorizedAccount","inputs":[{"name":"account","type":"address","internalType":"address"},{"name":"neededRole","type":"bytes32","internalType":"bytes32"}]},{"type":"error","name":"AddressEmptyCode","inputs":[{"name":"target","type":"address","internalType":"address"}]},{"type":"error","name":"CANNOT_REVOKE_NON_WINNER","inputs":[]},{"type":"error","name":"ERC1967InvalidImplementation","inputs":[{"name":"implementation","type":"address","internalType":"address"}]},{"type":"error","name":"ERC1967NonPayable","inputs":[]},{"type":"error","name":"ERC721EnumerableForbiddenBatchMint","inputs":[]},{"type":"error","name":"ERC721IncorrectOwner","inputs":[{"name":"sender","type":"address","internalType":"address"},{"name":"tokenId","type":"uint256","internalType":"uint256"},{"name":"owner","type":"address","internalType":"address"}]},{"type":"error","name":"ERC721InsufficientApproval","inputs":[{"name":"operator","type":"address","internalType":"address"},{"name":"tokenId","type":"uint256","internalType":"uint256"}]},{"type":"error","name":"ERC721InvalidApprover","inputs":[{"name":"approver","type":"address","internalType":"address"}]},{"type":"error","name":"ERC721InvalidOperator","inputs":[{"name":"operator","type":"address","internalType":"address"}]},{"type":"error","name":"ERC721InvalidOwner","inputs":[{"name":"owner","type":"address","internalType":"address"}]},{"type":"error","name":"ERC721InvalidReceiver","inputs":[{"name":"receiver","type":"address","internalType":"address"}]},{"type":"error","name":"ERC721InvalidSender","inputs":[{"name":"sender","type":"address","internalType":"address"}]},{"type":"error","name":"ERC721NonexistentToken","inputs":[{"name":"tokenId","type":"uint256","internalType":"uint256"}]},{"type":"error","name":"ERC721OutOfBoundsIndex","inputs":[{"name":"owner","type":"address","internalType":"address"},{"name":"index","type":"uint256","internalType":"uint256"}]},{"type":"error","name":"EnforcedPause","inputs":[]},{"type":"error","name":"ExpectedPause","inputs":[]},{"type":"error","name":"FailedInnerCall","inputs":[]},{"type":"error","name":"INSUFFICIENT_MINT_FEE","inputs":[]},{"type":"error","name":"InvalidInitialization","inputs":[]},{"type":"error","name":"NotInitializing","inputs":[]},{"type":"error","name":"OwnableInvalidOwner","inputs":[{"name":"owner","type":"address","internalType":"address"}]},{"type":"error","name":"OwnableUnauthorizedAccount","inputs":[{"name":"account","type":"address","internalType":"address"}]},{"type":"error","name":"UUPSUnauthorizedCallContext","inputs":[]},{"type":"error","name":"UUPSUnsupportedProxiableUUID","inputs":[{"name":"slot","type":"bytes32","internalType":"bytes32"}]}],"bytecode":{"object":"0x60a060405230608052348015610013575f80fd5b5060805161362561003a5f395f8181611fc001528181611fe9015261212801526136255ff3fe6080604052600436106103a8575f3560e01c80636c0360eb116101e9578063a22cb46511610108578063d547741f1161009d578063e985e9c51161006d578063e985e9c514610a90578063ea61e5b114610aaf578063f2fde38b14610ac3578063f39eb22a14610ae2575f80fd5b8063d547741f14610a1d578063dba2fafe14610a3c578063df15c37e14610a5b578063e30c397814610a7c575f80fd5b8063ad3cb1cc116100d8578063ad3cb1cc14610990578063b88d4fde146109c0578063c87b56dd146109df578063cb44cdff146109fe575f80fd5b8063a22cb46514610905578063a2fb117514610924578063a4b5fa5614610952578063a50c621c14610971575f80fd5b80638da5cb5b1161017e5780639d9ca28d1161014e5780639d9ca28d146108a15780639eadb391146108c0578063a0712d68146108df578063a217fddf146108f2575f80fd5b80638da5cb5b146108395780638ed8498a1461084d57806391d148541461086e57806395d89b411461088d575f80fd5b8063781fab76116101b9578063781fab76146107d357806379ba5097146107f25780638456cb59146108065780638c7103291461081a575f80fd5b80636c0360eb1461076d57806370a0823114610781578063715018a6146107a057806376c52b09146107b4575f80fd5b80633f4ba83a116102d557806355f804b31161026a5780635c975abb1161023a5780635c975abb146106f85780636352211e1461071b57806363bd1d4a1461073a5780636a6278421461074e575f80fd5b806355f804b31461068557806356200819146106a457806356e549b8146106c35780635b8d02d7146106d9575f80fd5b80634f1ef286116102a55780634f1ef286146106155780634f6ccce71461062857806352d1902d1461064757806354fd4d501461065b575f80fd5b80633f4ba83a146105a4578063403d1312146105b857806342842e0e146105d75780634894d393146105f6575f80fd5b806318160ddd1161034b5780632f2ff15d1161031b5780632f2ff15d146105285780632f745c591461054757806336568abe14610566578063378b570414610585575f80fd5b806318160ddd146104b157806323b872dd146104d1578063248a9ca3146104f057806325fd90f31461050f575f80fd5b8063095ea7b311610386578063095ea7b3146104385780630e392288146104595780631249c58b1461048757806313966db51461048f575f80fd5b806301ffc9a7146103ac57806306fdde03146103e0578063081812fc14610401575b5f80fd5b3480156103b7575f80fd5b506103cb6103c6366004612cff565b610b01565b60405190151581526020015b60405180910390f35b3480156103eb575f80fd5b506103f4610b11565b6040516103d79190612d67565b34801561040c575f80fd5b5061042061041b366004612d79565b610bb2565b6040516001600160a01b0390911681526020016103d7565b348015610443575f80fd5b50610457610452366004612da4565b610bc6565b005b348015610464575f80fd5b506103cb610473366004612d79565b5f9081526002602052604090205460ff1690565b610457610bd5565b34801561049a575f80fd5b506104a35f5481565b6040519081526020016103d7565b3480156104bc575f80fd5b505f80516020613590833981519152546104a3565b3480156104dc575f80fd5b506104576104eb366004612dce565b610caa565b3480156104fb575f80fd5b506104a361050a366004612d79565b610d38565b34801561051a575f80fd5b506001546103cb9060ff1681565b348015610533575f80fd5b50610457610542366004612e0c565b610d58565b348015610552575f80fd5b506104a3610561366004612da4565b610d74565b348015610571575f80fd5b50610457610580366004612e0c565b610de5565b348015610590575f80fd5b5061045761059f366004612e3a565b610e1d565b3480156105af575f80fd5b50610457610e7c565b3480156105c3575f80fd5b506104a36105d2366004612d79565b610e91565b3480156105e2575f80fd5b506104576105f1366004612dce565b610eb0565b348015610601575f80fd5b50610457610610366004612e3a565b610eca565b610457610623366004612ef2565b610f96565b348015610633575f80fd5b506104a3610642366004612d79565b610fb1565b348015610652575f80fd5b506104a3611023565b348015610666575f80fd5b506040805180820190915260028152613b1960f11b60208201526103f4565b348015610690575f80fd5b5061045761069f366004612f3f565b61103e565b3480156106af575f80fd5b506104576106be366004612e3a565b611054565b3480156106ce575f80fd5b5060085415156103cb565b3480156106e4575f80fd5b50600554610420906001600160a01b031681565b348015610703575f80fd5b505f805160206135d08339815191525460ff166103cb565b348015610726575f80fd5b50610420610735366004612d79565b611081565b348015610745575f80fd5b5061045761108b565b348015610759575f80fd5b50610457610768366004612e3a565b6110d3565b348015610778575f80fd5b506103f461118f565b34801561078c575f80fd5b506104a361079b366004612e3a565b61121b565b3480156107ab575f80fd5b50610457611273565b3480156107bf575f80fd5b506104576107ce366004612f3f565b611286565b3480156107de575f80fd5b506104576107ed366004612d79565b61129c565b3480156107fd575f80fd5b50610457611360565b348015610811575f80fd5b506104576113a5565b348015610825575f80fd5b506103cb610834366004612d79565b6113b7565b348015610844575f80fd5b506104206113f3565b348015610858575f80fd5b50610861611427565b6040516103d79190612f79565b348015610879575f80fd5b506103cb610888366004612e0c565b611485565b348015610898575f80fd5b506103f46114bb565b3480156108ac575f80fd5b506103cb6108bb366004612e3a565b6114f9565b3480156108cb575f80fd5b506104576108da366004612fbc565b61154a565b6104576108ed366004612d79565b6115d9565b3480156108fd575f80fd5b506104a35f81565b348015610910575f80fd5b5061045761091f366004612fe9565b6116cc565b34801561092f575f80fd5b506103cb61093e366004612d79565b60026020525f908152604090205460ff1681565b34801561095d575f80fd5b50600754610420906001600160a01b031681565b34801561097c575f80fd5b5061045761098b366004613015565b6116d7565b34801561099b575f80fd5b506103f4604051806040016040528060058152602001640352e302e360dc1b81525081565b3480156109cb575f80fd5b506104576109da366004613084565b611714565b3480156109ea575f80fd5b506103f46109f9366004612d79565b61172b565b348015610a09575f80fd5b50610457610a18366004613015565b6117e7565b348015610a28575f80fd5b50610457610a37366004612e0c565b611881565b348015610a47575f80fd5b50610457610a563660046130ec565b61189d565b348015610a66575f80fd5b50610a6f611a55565b6040516103d79190613154565b348015610a87575f80fd5b50610420611b0c565b348015610a9b575f80fd5b506103cb610aaa366004613194565b611b34565b348015610aba575f80fd5b506103f4611b80565b348015610ace575f80fd5b50610457610add366004612e3a565b611b8d565b348015610aed575f80fd5b506103cb610afc366004612e3a565b611c12565b5f610b0b82611c48565b92915050565b5f805160206135508339815191528054606091908190610b30906131c0565b80601f0160208091040260200160405190810160405280929190818152602001828054610b5c906131c0565b8015610ba75780601f10610b7e57610100808354040283529160200191610ba7565b820191905f5260205f20905b815481529060010190602001808311610b8a57829003601f168201915b505050505091505090565b5f610bbc82611c6c565b50610b0b82611ca3565b610bd1828233611cdc565b5050565b610bdd611ce9565b3360075460405163fe575a8760e01b81526001600160a01b0383811660048301529091169063fe575a8790602401602060405180830381865afa158015610c26573d5f803e3d5ffd5b505050506040513d601f19601f82011682018060405250810190610c4a91906131f8565b15610c6857604051637874e36360e01b815260040160405180910390fd5b5f54341015610c8a57604051633422732160e01b815260040160405180910390fd5b600680545f9182610c9a83613227565b919050559050610bd13382611d19565b6001600160a01b038216610cd857604051633250574960e11b81525f60048201526024015b60405180910390fd5b5f610ce4838333611d32565b9050836001600160a01b0316816001600160a01b031614610d32576040516364283d7b60e01b81526001600160a01b0380861660048301526024820184905282166044820152606401610ccf565b50505050565b5f9081525f805160206135b0833981519152602052604090206001015490565b610d6182610d38565b610d6a81611e32565b610d328383611e3c565b5f5f80516020613530833981519152610d8c8461121b565b8310610dbd5760405163295f44f760e21b81526001600160a01b038516600482015260248101849052604401610ccf565b6001600160a01b0384165f908152602091825260408082208583529092522054905092915050565b6001600160a01b0381163314610e0e5760405163334bd91960e11b815260040160405180910390fd5b610e188282611edd565b505050565b5f610e2781611e32565b600780546001600160a01b0319166001600160a01b0384169081179091556040519081527f75cdf6842d867a09260947ac775619527788d913a79fc3b41da1815fa377af659060200160405180910390a15050565b5f610e8681611e32565b610e8e611f56565b50565b60088181548110610ea0575f80fd5b5f91825260209091200154905081565b610e1883838360405180602001604052805f815250611714565b5f610ed481611e32565b60075460405163fe575a8760e01b81526001600160a01b0380851660048301528492169063fe575a8790602401602060405180830381865afa158015610f1c573d5f803e3d5ffd5b505050506040513d601f19601f82011682018060405250810190610f4091906131f8565b15610f5e57604051637874e36360e01b815260040160405180910390fd5b600680545f9182610f6e83613227565b909155505f818152600260205260409020805460ff191660011790559050610d328482611d19565b610f9e611fb5565b610fa782612059565b610bd18282612061565b5f5f80516020613530833981519152610fd55f805160206135908339815191525490565b8310610ffd5760405163295f44f760e21b81525f600482015260248101849052604401610ccf565b8060020183815481106110125761101261323f565b905f5260205f200154915050919050565b5f61102c61211d565b505f8051602061357083398151915290565b5f61104881611e32565b6003610e188382613297565b5f61105e81611e32565b50600580546001600160a01b0319166001600160a01b0392909216919091179055565b5f610b0b82611c6c565b611093612166565b5f61109d81611e32565b6005546040516001600160a01b03909116904780156108fc02915f818181858888f19350505050158015610bd1573d5f803e3d5ffd5b6110db611ce9565b5f6110e581611e32565b60075460405163fe575a8760e01b81526001600160a01b0380851660048301528492169063fe575a8790602401602060405180830381865afa15801561112d573d5f803e3d5ffd5b505050506040513d601f19601f8201168201806040525081019061115191906131f8565b1561116f57604051637874e36360e01b815260040160405180910390fd5b600680545f918261117f83613227565b919050559050610d328482611d19565b6003805461119c906131c0565b80601f01602080910402602001604051908101604052809291908181526020018280546111c8906131c0565b80156112135780601f106111ea57610100808354040283529160200191611213565b820191905f5260205f20905b8154815290600101906020018083116111f657829003601f168201915b505050505081565b5f5f805160206135508339815191526001600160a01b038316611253576040516322718ad960e21b81525f6004820152602401610ccf565b6001600160a01b039092165f908152600390920160205250604090205490565b61127b612195565b6112845f6121c7565b565b5f61129081611e32565b6004610e188382613297565b5f6112a681611e32565b5f828152600260205260408120805460ff191690555b600854811015610e185782600882815481106112da576112da61323f565b905f5260205f2001540361135857600880546112f890600190613357565b815481106113085761130861323f565b905f5260205f200154600882815481106113245761132461323f565b5f9182526020909120015560088054806113405761134061336a565b600190038181905f5260205f20015f90559055505050565b6001016112bc565b338061136a611b0c565b6001600160a01b03161461139c5760405163118cdaa760e01b81526001600160a01b0382166004820152602401610ccf565b610e8e816121c7565b5f6113af81611e32565b610e8e6121ff565b5f8181526002602052604081205460ff168015610b0b57508160085f815481106113e3576113e361323f565b905f5260205f2001541492915050565b5f807f9016d09d72d40fdae2fd8ceac6b6234c7706214fd39c1cd1e609a0528c1993005b546001600160a01b031692915050565b6060611431612166565b600880548060200260200160405190810160405280929190818152602001828054801561147b57602002820191905f5260205f20905b815481526020019060010190808311611467575b5050505050905090565b5f9182525f805160206135b0833981519152602090815260408084206001600160a01b0393909316845291905290205460ff1690565b7f80bb2b638cc20bc4d0a60d66940f3ab4a00c1d7b313497ca82fb0b4ab007930180546060915f8051602061355083398151915291610b30906131c0565b5f805b6115058361121b565b8110156115425760025f6115198584610d74565b815260208101919091526040015f205460ff161561153a5750600192915050565b6001016114fc565b505f92915050565b5f61155481611e32565b5f8381526002602052604090205460ff16611582576040516332b2122560e21b815260040160405180910390fd5b61158b8361129c565b505f818152600260205260408120805460ff191660019081179091556008805491820181559091527ff3f7a9fe364faab93b216da50a3214154f22a0a2b415b23a84c8169e8b636ee3015550565b6115e1611ce9565b3360075460405163fe575a8760e01b81526001600160a01b0383811660048301529091169063fe575a8790602401602060405180830381865afa15801561162a573d5f803e3d5ffd5b505050506040513d601f19601f8201168201806040525081019061164e91906131f8565b1561166c57604051637874e36360e01b815260040160405180910390fd5b815f54611679919061337e565b34101561169957604051633422732160e01b815260040160405180910390fd5b5f5b82811015610e1857600680545f91826116b383613227565b9190505590506116c33382611d19565b5060010161169b565b610bd1338383612247565b5f6116e181611e32565b5f5b82811015610d325761170c8484838181106117005761170061323f565b9050602002013561129c565b6001016116e3565b61171f848484610caa565b610d32848484846122f6565b6008546060905f0361175f5760036040516020016117499190613404565b6040516020818303038152906040529050919050565b5f8281526002602052604090205460ff16801561179657508160085f8154811061178b5761178b61323f565b905f5260205f200154145b156117ad576003604051602001611749919061342b565b5f8281526002602052604090205460ff16156117d55760036040516020016117499190613459565b60036040516020016117499190613480565b6117ef612166565b5f6117f981611e32565b5f5b82811015610d3257600160025f86868581811061181a5761181a61323f565b9050602002013581526020019081526020015f205f6101000a81548160ff02191690831515021790555060088484838181106118585761185861323f565b8354600180820186555f95865260209586902092909502939093013592019190915550016117fb565b61188a82610d38565b61189381611e32565b610d328383611edd565b7ff0c57e16840df040f15088dc2f81fe391c3923bec73e23a9662efc9c229c6a008054600160401b810460ff16159067ffffffffffffffff165f811580156118e25750825b90505f8267ffffffffffffffff1660011480156118fe5750303b155b90508115801561190c575080155b1561192a5760405163f92ee8a960e01b815260040160405180910390fd5b845467ffffffffffffffff19166001178555831561195457845460ff60401b1916600160401b1785555b6119a16040518060400160405280601081526020016f15185a5adbd4185c9d1e551a58dad95d60821b8152506040518060400160405280600381526020016215141560ea1b81525061241c565b6119a961242e565b5f88905560036119b98882613297565b50600580546001600160a01b03808c166001600160a01b03199283161790925560078054928916929091169190911790556119fa5f6119f53390565b611e3c565b50611a04336121c7565b8315611a4a57845460ff60401b19168555604051600181527fc7f505b2f371ae2175ee4913f4499e1f2633a7b5936321eed1cdaeb6115181d29060200160405180910390a15b505050505050505050565b6060611a5f612166565b60085467ffffffffffffffff811115611a7a57611a7a612e55565b604051908082528060200260200182016040528015611aa3578160200160208202803683370190505b5090505f5b600854811015611b0857611ad660088281548110611ac857611ac861323f565b905f5260205f200154611081565b828281518110611ae857611ae861323f565b6001600160a01b0390921660209283029190910190910152600101611aa8565b5090565b5f807f237e158222e3e6968b72b9db0d8043aacf074ad9f650f0d1606b4d82ee432c00611417565b6001600160a01b039182165f9081527f80bb2b638cc20bc4d0a60d66940f3ab4a00c1d7b313497ca82fb0b4ab00793056020908152604080832093909416825291909152205460ff1690565b6004805461119c906131c0565b611b95612195565b7f237e158222e3e6968b72b9db0d8043aacf074ad9f650f0d1606b4d82ee432c0080546001600160a01b0319166001600160a01b0383169081178255611bd96113f3565b6001600160a01b03167f38d16b8cac22d99fc7c124b9cd0de2d3fa1faef420bfe791d8c362d765e2270060405160405180910390a35050565b5f805b611c1e8361121b565b81101561154257611c326108348483610d74565b15611c405750600192915050565b600101611c15565b5f6001600160e01b03198216637965db0b60e01b1480610b0b5750610b0b82612436565b5f80611c778361245a565b90506001600160a01b038116610b0b57604051637e27328960e01b815260048101849052602401610ccf565b5f9081527f80bb2b638cc20bc4d0a60d66940f3ab4a00c1d7b313497ca82fb0b4ab007930460205260409020546001600160a01b031690565b610e188383836001612493565b5f805160206135d08339815191525460ff16156112845760405163d93c066560e01b815260040160405180910390fd5b610bd1828260405180602001604052805f8152506125a6565b5f80611d3f8585856125bc565b90506001600160a01b038116611dc657611dc1845f8051602061359083398151915280545f8381527f645e039705490088daad89bae25049a34f4a9072d398537b1ab2425f24cbed0360205260408120829055600182018355919091527fa42f15e5d656f8155fd7419d740a6073999f19cd6e061449ce4a257150545bf20155565b611de9565b846001600160a01b0316816001600160a01b031614611de957611de981856126be565b6001600160a01b038516611e0557611e008461275d565b611e28565b846001600160a01b0316816001600160a01b031614611e2857611e28858561282a565b90505b9392505050565b610e8e8133612882565b5f5f805160206135b0833981519152611e558484611485565b611ed4575f848152602082815260408083206001600160a01b03871684529091529020805460ff19166001179055611e8a3390565b6001600160a01b0316836001600160a01b0316857f2f8788117e7eff1d82e926ec794901d17c78024a50270940304540a733656f0d60405160405180910390a46001915050610b0b565b5f915050610b0b565b5f5f805160206135b0833981519152611ef68484611485565b15611ed4575f848152602082815260408083206001600160a01b0387168085529252808320805460ff1916905551339287917ff6391f5c32d9c69d2a47ea670b442974b53935d1edc7fd64eb21e047a839171b9190a46001915050610b0b565b611f5e612166565b5f805160206135d0833981519152805460ff191681557f5db9ee0a495bf2e6ff9c91a7834c1ba4fdd244a5e8aa4e537bd38aeae4b073aa335b6040516001600160a01b03909116815260200160405180910390a150565b306001600160a01b037f000000000000000000000000000000000000000000000000000000000000000016148061203b57507f00000000000000000000000000000000000000000000000000000000000000006001600160a01b031661202f5f80516020613570833981519152546001600160a01b031690565b6001600160a01b031614155b156112845760405163703e46dd60e11b815260040160405180910390fd5b610e8e612195565b816001600160a01b03166352d1902d6040518163ffffffff1660e01b8152600401602060405180830381865afa9250505080156120bb575060408051601f3d908101601f191682019092526120b8918101906134a6565b60015b6120e357604051634c9c8ce360e01b81526001600160a01b0383166004820152602401610ccf565b5f80516020613570833981519152811461211357604051632a87526960e21b815260048101829052602401610ccf565b610e1883836128bb565b306001600160a01b037f000000000000000000000000000000000000000000000000000000000000000016146112845760405163703e46dd60e11b815260040160405180910390fd5b5f805160206135d08339815191525460ff1661128457604051638dfc202b60e01b815260040160405180910390fd5b3361219e6113f3565b6001600160a01b0316146112845760405163118cdaa760e01b8152336004820152602401610ccf565b7f237e158222e3e6968b72b9db0d8043aacf074ad9f650f0d1606b4d82ee432c0080546001600160a01b0319168155610bd182612910565b612207611ce9565b5f805160206135d0833981519152805460ff191660011781557f62e78cea01bee320cd4e420270b5ea74000d11b0c9f74754ebdbfc544b05a25833611f97565b5f805160206135508339815191526001600160a01b03831661228757604051630b61174360e31b81526001600160a01b0384166004820152602401610ccf565b6001600160a01b038481165f818152600584016020908152604080832094881680845294825291829020805460ff191687151590811790915591519182527f17307eab39ab6107e8899845ad3d59bd9653f200f220920489ca2b5937696c31910160405180910390a350505050565b6001600160a01b0383163b15610d3257604051630a85bd0160e11b81526001600160a01b0384169063150b7a02906123389033908890879087906004016134bd565b6020604051808303815f875af1925050508015612372575060408051601f3d908101601f1916820190925261236f918101906134f9565b60015b6123d9573d80801561239f576040519150601f19603f3d011682016040523d82523d5f602084013e6123a4565b606091505b5080515f036123d157604051633250574960e11b81526001600160a01b0385166004820152602401610ccf565b805181602001fd5b6001600160e01b03198116630a85bd0160e11b1461241557604051633250574960e11b81526001600160a01b0385166004820152602401610ccf565b5050505050565b612424612980565b610bd182826129c9565b611284612980565b5f6001600160e01b0319821663780e9d6360e01b1480610b0b5750610b0b826129f9565b5f9081527f80bb2b638cc20bc4d0a60d66940f3ab4a00c1d7b313497ca82fb0b4ab007930260205260409020546001600160a01b031690565b5f8051602061355083398151915281806124b557506001600160a01b03831615155b15612576575f6124c485611c6c565b90506001600160a01b038416158015906124f05750836001600160a01b0316816001600160a01b031614155b801561250357506125018185611b34565b155b1561252c5760405163a9fbf51f60e01b81526001600160a01b0385166004820152602401610ccf565b82156125745784866001600160a01b0316826001600160a01b03167f8c5be1e5ebec7d5bd14f71427d1e84f3dd0314c0f7b2291e5b200ac8c7c3b92560405160405180910390a45b505b5f93845260040160205250506040902080546001600160a01b0319166001600160a01b0392909216919091179055565b6125b08383612a48565b610e185f8484846122f6565b5f5f80516020613550833981519152816125d58561245a565b90506001600160a01b038416156125f1576125f1818587612aa9565b6001600160a01b0381161561262d5761260c5f865f80612493565b6001600160a01b0381165f908152600383016020526040902080545f190190555b6001600160a01b0386161561265d576001600160a01b0386165f9081526003830160205260409020805460010190555b5f85815260028301602052604080822080546001600160a01b0319166001600160a01b038a811691821790925591518893918516917fddf252ad1be2c89b69c2b068fc378daa952ba7f163c4a11628f55a4df523b3ef91a495945050505050565b5f805160206135308339815191525f6126d68461121b565b5f848152600184016020526040902054909150808214612729576001600160a01b0385165f9081526020848152604080832085845282528083205484845281842081905583526001860190915290208190555b505f92835260018201602090815260408085208590556001600160a01b039095168452918252838320908352905290812055565b5f80516020613590833981519152545f80516020613530833981519152905f9061278990600190613357565b5f8481526003840160205260408120546002850180549394509092849081106127b4576127b461323f565b905f5260205f2001549050808460020183815481106127d5576127d561323f565b5f918252602080832090910192909255828152600386019091526040808220849055868252812055600284018054806128105761281061336a565b600190038181905f5260205f20015f905590555050505050565b5f805160206135308339815191525f60016128448561121b565b61284e9190613357565b6001600160a01b039094165f9081526020838152604080832087845282528083208690559482526001909301909252502055565b61288c8282611485565b610bd15760405163e2517d3f60e01b81526001600160a01b038216600482015260248101839052604401610ccf565b6128c482612b0d565b6040516001600160a01b038316907fbc7cd75a20ee27fd9adebab32041f755214dbc6bffa90cc0225b39da2e5c2d3b905f90a280511561290857610e188282612b70565b610bd1612be2565b7f9016d09d72d40fdae2fd8ceac6b6234c7706214fd39c1cd1e609a0528c19930080546001600160a01b031981166001600160a01b03848116918217845560405192169182907f8be0079c531659141344cd1fd0a4f28419497f9722a3daafe3b4186f6b6457e0905f90a3505050565b7ff0c57e16840df040f15088dc2f81fe391c3923bec73e23a9662efc9c229c6a0054600160401b900460ff1661128457604051631afcd79f60e31b815260040160405180910390fd5b6129d1612980565b5f80516020613550833981519152806129ea8482613297565b5060018101610d328382613297565b5f6001600160e01b031982166380ac58cd60e01b1480612a2957506001600160e01b03198216635b5e139f60e01b145b80610b0b57506301ffc9a760e01b6001600160e01b0319831614610b0b565b6001600160a01b038216612a7157604051633250574960e11b81525f6004820152602401610ccf565b5f612a7d83835f611d32565b90506001600160a01b03811615610e18576040516339e3563760e11b81525f6004820152602401610ccf565b612ab4838383612c01565b610e18576001600160a01b038316612ae257604051637e27328960e01b815260048101829052602401610ccf565b60405163177e802f60e01b81526001600160a01b038316600482015260248101829052604401610ccf565b806001600160a01b03163b5f03612b4257604051634c9c8ce360e01b81526001600160a01b0382166004820152602401610ccf565b5f8051602061357083398151915280546001600160a01b0319166001600160a01b0392909216919091179055565b60605f80846001600160a01b031684604051612b8c9190613514565b5f60405180830381855af49150503d805f8114612bc4576040519150601f19603f3d011682016040523d82523d5f602084013e612bc9565b606091505b5091509150612bd9858383612c65565b95945050505050565b34156112845760405163b398979f60e01b815260040160405180910390fd5b5f6001600160a01b03831615801590611e285750826001600160a01b0316846001600160a01b03161480612c3a5750612c3a8484611b34565b80611e285750826001600160a01b0316612c5383611ca3565b6001600160a01b031614949350505050565b606082612c7a57612c7582612cc1565b611e2b565b8151158015612c9157506001600160a01b0384163b155b15612cba57604051639996b31560e01b81526001600160a01b0385166004820152602401610ccf565b5080611e2b565b805115612cd15780518082602001fd5b604051630a12f52160e11b815260040160405180910390fd5b6001600160e01b031981168114610e8e575f80fd5b5f60208284031215612d0f575f80fd5b8135611e2b81612cea565b5f5b83811015612d34578181015183820152602001612d1c565b50505f910152565b5f8151808452612d53816020860160208601612d1a565b601f01601f19169290920160200192915050565b602081525f611e2b6020830184612d3c565b5f60208284031215612d89575f80fd5b5035919050565b6001600160a01b0381168114610e8e575f80fd5b5f8060408385031215612db5575f80fd5b8235612dc081612d90565b946020939093013593505050565b5f805f60608486031215612de0575f80fd5b8335612deb81612d90565b92506020840135612dfb81612d90565b929592945050506040919091013590565b5f8060408385031215612e1d575f80fd5b823591506020830135612e2f81612d90565b809150509250929050565b5f60208284031215612e4a575f80fd5b8135611e2b81612d90565b634e487b7160e01b5f52604160045260245ffd5b5f82601f830112612e78575f80fd5b813567ffffffffffffffff80821115612e9357612e93612e55565b604051601f8301601f19908116603f01168101908282118183101715612ebb57612ebb612e55565b81604052838152866020858801011115612ed3575f80fd5b836020870160208301375f602085830101528094505050505092915050565b5f8060408385031215612f03575f80fd5b8235612f0e81612d90565b9150602083013567ffffffffffffffff811115612f29575f80fd5b612f3585828601612e69565b9150509250929050565b5f60208284031215612f4f575f80fd5b813567ffffffffffffffff811115612f65575f80fd5b612f7184828501612e69565b949350505050565b602080825282518282018190525f9190848201906040850190845b81811015612fb057835183529284019291840191600101612f94565b50909695505050505050565b5f8060408385031215612fcd575f80fd5b50508035926020909101359150565b8015158114610e8e575f80fd5b5f8060408385031215612ffa575f80fd5b823561300581612d90565b91506020830135612e2f81612fdc565b5f8060208385031215613026575f80fd5b823567ffffffffffffffff8082111561303d575f80fd5b818501915085601f830112613050575f80fd5b81358181111561305e575f80fd5b8660208260051b8501011115613072575f80fd5b60209290920196919550909350505050565b5f805f8060808587031215613097575f80fd5b84356130a281612d90565b935060208501356130b281612d90565b925060408501359150606085013567ffffffffffffffff8111156130d4575f80fd5b6130e087828801612e69565b91505092959194509250565b5f805f80608085870312156130ff575f80fd5b843561310a81612d90565b935060208501359250604085013567ffffffffffffffff81111561312c575f80fd5b61313887828801612e69565b925050606085013561314981612d90565b939692955090935050565b602080825282518282018190525f9190848201906040850190845b81811015612fb05783516001600160a01b03168352928401929184019160010161316f565b5f80604083850312156131a5575f80fd5b82356131b081612d90565b91506020830135612e2f81612d90565b600181811c908216806131d457607f821691505b6020821081036131f257634e487b7160e01b5f52602260045260245ffd5b50919050565b5f60208284031215613208575f80fd5b8151611e2b81612fdc565b634e487b7160e01b5f52601160045260245ffd5b5f6001820161323857613238613213565b5060010190565b634e487b7160e01b5f52603260045260245ffd5b601f821115610e1857805f5260205f20601f840160051c810160208510156132785750805b601f840160051c820191505b81811015612415575f8155600101613284565b815167ffffffffffffffff8111156132b1576132b1612e55565b6132c5816132bf84546131c0565b84613253565b602080601f8311600181146132f8575f84156132e15750858301515b5f19600386901b1c1916600185901b17855561334f565b5f85815260208120601f198616915b8281101561332657888601518255948401946001909101908401613307565b508582101561334357878501515f19600388901b60f8161c191681555b505060018460011b0185555b505050505050565b81810381811115610b0b57610b0b613213565b634e487b7160e01b5f52603160045260245ffd5b8082028115828204841417610b0b57610b0b613213565b5f81546133a1816131c0565b600182811680156133b957600181146133ce576133fa565b60ff19841687528215158302870194506133fa565b855f526020805f205f5b858110156133f15781548a8201529084019082016133d8565b50505082870194505b5050505092915050565b5f61340f8284613395565b6b17b930b3333632973539b7b760a11b8152600c019392505050565b5f6134368284613395565b7217b3b7b63232b716bbb4b73732b9173539b7b760691b81526013019392505050565b5f6134648284613395565b6b17bbb4b73732b9173539b7b760a11b8152600c019392505050565b5f61348b8284613395565b6a17b637b9b2b9173539b7b760a91b8152600b019392505050565b5f602082840312156134b6575f80fd5b5051919050565b6001600160a01b03858116825284166020820152604081018390526080606082018190525f906134ef90830184612d3c565b9695505050505050565b5f60208284031215613509575f80fd5b8151611e2b81612cea565b5f8251613525818460208701612d1a565b919091019291505056fe645e039705490088daad89bae25049a34f4a9072d398537b1ab2425f24cbed0080bb2b638cc20bc4d0a60d66940f3ab4a00c1d7b313497ca82fb0b4ab0079300360894a13ba1a3210667c828492db98dca3e2076cc3735a920a3ca505d382bbc645e039705490088daad89bae25049a34f4a9072d398537b1ab2425f24cbed0202dd7bc7dec4dceedda775e58dd541e08a116c6c53815c0bd028192f7b626800cd5ed15c6e187e77e9aee88184c21f4f2182ab5827cb3b7e07fbedcd63f03300a26469706673582212203cf20cd80d7e42bc9a6e84841ab369acd7f69e250d8f44437942ca0f5994c72564736f6c63430008180033","linkReferences":{}},"methodIdentifiers":{"DEFAULT_ADMIN_ROLE()":"a217fddf","UPGRADE_INTERFACE_VERSION()":"ad3cb1cc","acceptOwnership()":"79ba5097","approve(address,uint256)":"095ea7b3","areWinnersSet()":"56e549b8","balanceOf(address)":"70a08231","baseURI()":"6c0360eb","blacklist()":"a4b5fa56","getApproved(uint256)":"081812fc","getRoleAdmin(bytes32)":"248a9ca3","getWinnerTokenIds()":"8ed8498a","getWinners()":"df15c37e","grantRole(bytes32,address)":"2f2ff15d","hasRole(bytes32,address)":"91d14854","initialize(address,uint256,string,address)":"dba2fafe","isApprovedForAll(address,address)":"e985e9c5","isGoldenWinner(address)":"f39eb22a","isGoldenWinner(uint256)":"8c710329","isWinner(address)":"9d9ca28d","isWinner(uint256)":"0e392288","mint()":"1249c58b","mint(address)":"6a627842","mint(uint256)":"a0712d68","mintActive()":"25fd90f3","mintFee()":"13966db5","mintWinner(address)":"4894d393","name()":"06fdde03","owner()":"8da5cb5b","ownerOf(uint256)":"6352211e","pause()":"8456cb59","paused()":"5c975abb","payout()":"63bd1d4a","payoutAddress()":"5b8d02d7","pendingOwner()":"e30c3978","proxiableUUID()":"52d1902d","renounceOwnership()":"715018a6","renounceRole(bytes32,address)":"36568abe","revokeAndReplaceWinner(uint256,uint256)":"9eadb391","revokeRole(bytes32,address)":"d547741f","revokeWinner(uint256)":"781fab76","revokeWinners(uint256[])":"a50c621c","safeTransferFrom(address,address,uint256)":"42842e0e","safeTransferFrom(address,address,uint256,bytes)":"b88d4fde","setApprovalForAll(address,bool)":"a22cb465","setBaseURI(string)":"55f804b3","setWinnerURI(string)":"76c52b09","setWinners(uint256[])":"cb44cdff","supportsInterface(bytes4)":"01ffc9a7","symbol()":"95d89b41","tokenByIndex(uint256)":"4f6ccce7","tokenOfOwnerByIndex(address,uint256)":"2f745c59","tokenURI(uint256)":"c87b56dd","totalSupply()":"18160ddd","transferFrom(address,address,uint256)":"23b872dd","transferOwnership(address)":"f2fde38b","unpause()":"3f4ba83a","updateBlacklist(address)":"378b5704","updatePayoutAddress(address)":"56200819","upgradeToAndCall(address,bytes)":"4f1ef286","version()":"54fd4d50","winnerBaseURI()":"ea61e5b1","winnerIds(uint256)":"403d1312","winners(uint256)":"a2fb1175"},"storageLayout":{"storage":[{"astId":551,"contract":"contracts/party-ticket/TaikoPartyTicketV2.sol:TaikoPartyTicketV2","label":"mintFee","offset":0,"slot":"0","type":"t_uint256"},{"astId":554,"contract":"contracts/party-ticket/TaikoPartyTicketV2.sol:TaikoPartyTicketV2","label":"mintActive","offset":0,"slot":"1","type":"t_bool"},{"astId":559,"contract":"contracts/party-ticket/TaikoPartyTicketV2.sol:TaikoPartyTicketV2","label":"winners","offset":0,"slot":"2","type":"t_mapping(t_uint256,t_bool)"},{"astId":562,"contract":"contracts/party-ticket/TaikoPartyTicketV2.sol:TaikoPartyTicketV2","label":"baseURI","offset":0,"slot":"3","type":"t_string_storage"},{"astId":565,"contract":"contracts/party-ticket/TaikoPartyTicketV2.sol:TaikoPartyTicketV2","label":"winnerBaseURI","offset":0,"slot":"4","type":"t_string_storage"},{"astId":568,"contract":"contracts/party-ticket/TaikoPartyTicketV2.sol:TaikoPartyTicketV2","label":"payoutAddress","offset":0,"slot":"5","type":"t_address"},{"astId":571,"contract":"contracts/party-ticket/TaikoPartyTicketV2.sol:TaikoPartyTicketV2","label":"_nextTokenId","offset":0,"slot":"6","type":"t_uint256"},{"astId":575,"contract":"contracts/party-ticket/TaikoPartyTicketV2.sol:TaikoPartyTicketV2","label":"blacklist","offset":0,"slot":"7","type":"t_contract(IMinimalBlacklist)19316"},{"astId":579,"contract":"contracts/party-ticket/TaikoPartyTicketV2.sol:TaikoPartyTicketV2","label":"winnerIds","offset":0,"slot":"8","type":"t_array(t_uint256)dyn_storage"},{"astId":584,"contract":"contracts/party-ticket/TaikoPartyTicketV2.sol:TaikoPartyTicketV2","label":"__gap","offset":0,"slot":"9","type":"t_array(t_uint256)42_storage"}],"types":{"t_address":{"encoding":"inplace","label":"address","numberOfBytes":"20"},"t_array(t_uint256)42_storage":{"encoding":"inplace","label":"uint256[42]","numberOfBytes":"1344","base":"t_uint256"},"t_array(t_uint256)dyn_storage":{"encoding":"dynamic_array","label":"uint256[]","numberOfBytes":"32","base":"t_uint256"},"t_bool":{"encoding":"inplace","label":"bool","numberOfBytes":"1"},"t_contract(IMinimalBlacklist)19316":{"encoding":"inplace","label":"contract IMinimalBlacklist","numberOfBytes":"20"},"t_mapping(t_uint256,t_bool)":{"encoding":"mapping","key":"t_uint256","label":"mapping(uint256 => bool)","numberOfBytes":"32","value":"t_bool"},"t_string_storage":{"encoding":"bytes","label":"string","numberOfBytes":"32"},"t_uint256":{"encoding":"inplace","label":"uint256","numberOfBytes":"32"}}},"id":3}