{"abi":[{"type":"function","name":"UPGRADE_INTERFACE_VERSION","inputs":[],"outputs":[{"name":"","type":"string","internalType":"string"}],"stateMutability":"view"},{"type":"function","name":"acceptOwnership","inputs":[],"outputs":[],"stateMutability":"nonpayable"},{"type":"function","name":"getProfilePicture","inputs":[{"name":"user","type":"address","internalType":"address"}],"outputs":[{"name":"","type":"string","internalType":"string"}],"stateMutability":"view"},{"type":"function","name":"initialize","inputs":[],"outputs":[],"stateMutability":"nonpayable"},{"type":"function","name":"owner","inputs":[],"outputs":[{"name":"","type":"address","internalType":"address"}],"stateMutability":"view"},{"type":"function","name":"pendingOwner","inputs":[],"outputs":[{"name":"","type":"address","internalType":"address"}],"stateMutability":"view"},{"type":"function","name":"profilePicture","inputs":[{"name":"user","type":"address","internalType":"address"}],"outputs":[{"name":"nftContract","type":"address","internalType":"address"},{"name":"tokenId","type":"uint256","internalType":"uint256"}],"stateMutability":"view"},{"type":"function","name":"proxiableUUID","inputs":[],"outputs":[{"name":"","type":"bytes32","internalType":"bytes32"}],"stateMutability":"view"},{"type":"function","name":"renounceOwnership","inputs":[],"outputs":[],"stateMutability":"nonpayable"},{"type":"function","name":"setPFP","inputs":[{"name":"nftContract","type":"address","internalType":"address"},{"name":"tokenId","type":"uint256","internalType":"uint256"}],"outputs":[],"stateMutability":"nonpayable"},{"type":"function","name":"transferOwnership","inputs":[{"name":"newOwner","type":"address","internalType":"address"}],"outputs":[],"stateMutability":"nonpayable"},{"type":"function","name":"upgradeToAndCall","inputs":[{"name":"newImplementation","type":"address","internalType":"address"},{"name":"data","type":"bytes","internalType":"bytes"}],"outputs":[],"stateMutability":"payable"},{"type":"event","name":"Initialized","inputs":[{"name":"version","type":"uint64","indexed":false,"internalType":"uint64"}],"anonymous":false},{"type":"event","name":"OwnershipTransferStarted","inputs":[{"name":"previousOwner","type":"address","indexed":true,"internalType":"address"},{"name":"newOwner","type":"address","indexed":true,"internalType":"address"}],"anonymous":false},{"type":"event","name":"OwnershipTransferred","inputs":[{"name":"previousOwner","type":"address","indexed":true,"internalType":"address"},{"name":"newOwner","type":"address","indexed":true,"internalType":"address"}],"anonymous":false},{"type":"event","name":"ProfilePictureSet","inputs":[{"name":"user","type":"address","indexed":true,"internalType":"address"},{"name":"nftContract","type":"address","indexed":true,"internalType":"address"},{"name":"tokenId","type":"uint256","indexed":true,"internalType":"uint256"}],"anonymous":false},{"type":"event","name":"Upgraded","inputs":[{"name":"implementation","type":"address","indexed":true,"internalType":"address"}],"anonymous":false},{"type":"error","name":"AddressEmptyCode","inputs":[{"name":"target","type":"address","internalType":"address"}]},{"type":"error","name":"ERC1967InvalidImplementation","inputs":[{"name":"implementation","type":"address","internalType":"address"}]},{"type":"error","name":"ERC1967NonPayable","inputs":[]},{"type":"error","name":"FailedInnerCall","inputs":[]},{"type":"error","name":"InvalidInitialization","inputs":[]},{"type":"error","name":"InvalidNFTContract","inputs":[{"name":"nftContract","type":"address","internalType":"address"}]},{"type":"error","name":"NotInitializing","inputs":[]},{"type":"error","name":"NotTokenOwner","inputs":[{"name":"nftContract","type":"address","internalType":"address"},{"name":"tokenId","type":"uint256","internalType":"uint256"},{"name":"caller","type":"address","internalType":"address"}]},{"type":"error","name":"OwnableInvalidOwner","inputs":[{"name":"owner","type":"address","internalType":"address"}]},{"type":"error","name":"OwnableUnauthorizedAccount","inputs":[{"name":"account","type":"address","internalType":"address"}]},{"type":"error","name":"UUPSUnauthorizedCallContext","inputs":[]},{"type":"error","name":"UUPSUnsupportedProxiableUUID","inputs":[{"name":"slot","type":"bytes32","internalType":"bytes32"}]}],"bytecode":{"object":"0x60a060405230608052348015610013575f80fd5b5060805161125561003a5f395f8181610b3101528181610b5a0152610c9e01526112555ff3fe6080604052600436106100a5575f3560e01c80638129fc1c116100625780638129fc1c146101585780638da5cb5b1461016c578063ad3cb1cc14610198578063e30c3978146101c8578063e7430e91146101dc578063f2fde38b14610239575f80fd5b80631a477974146100a95780634f1ef286146100ca57806352d1902d146100dd5780636f51d8cf14610104578063715018a61461013057806379ba509714610144575b5f80fd5b3480156100b4575f80fd5b506100c86100c3366004610f98565b610258565b005b6100c86100d836600461102e565b61053f565b3480156100e8575f80fd5b506100f161055e565b6040519081526020015b60405180910390f35b34801561010f575f80fd5b5061012361011e3660046110bb565b610579565b6040516100fb91906110f8565b34801561013b575f80fd5b506100c86108dd565b34801561014f575f80fd5b506100c86108f0565b348015610163575f80fd5b506100c8610938565b348015610177575f80fd5b50610180610a45565b6040516001600160a01b0390911681526020016100fb565b3480156101a3575f80fd5b50610123604051806040016040528060058152602001640352e302e360dc1b81525081565b3480156101d3575f80fd5b50610180610a79565b3480156101e7575f80fd5b5061021a6101f63660046110bb565b5f60208190529081526040902080546001909101546001600160a01b039091169082565b604080516001600160a01b0390931683526020830191909152016100fb565b348015610244575f80fd5b506100c86102533660046110bb565b610aa1565b6040516301ffc9a760e01b81526380ac58cd60e01b60048201526001600160a01b038316906301ffc9a790602401602060405180830381865afa1580156102a1573d5f803e3d5ffd5b505050506040513d601f19601f820116820180604052508101906102c5919061112a565b1561038757336040516331a9108f60e11b8152600481018390526001600160a01b0391821691841690636352211e90602401602060405180830381865afa158015610312573d5f803e3d5ffd5b505050506040513d601f19601f820116820180604052508101906103369190611149565b6001600160a01b031614610382578181335b60405163619b293360e01b81526001600160a01b039384166004820152602481019290925290911660448201526064015b60405180910390fd5b6104a7565b6040516301ffc9a760e01b8152636cdb3d1360e11b60048201526001600160a01b038316906301ffc9a790602401602060405180830381865afa1580156103d0573d5f803e3d5ffd5b505050506040513d601f19601f820116820180604052508101906103f4919061112a565b15610483576001600160a01b03821662fdd58e336040516001600160e01b031960e084901b1681526001600160a01b03909116600482015260248101849052604401602060405180830381865afa158015610451573d5f803e3d5ffd5b505050506040513d601f19601f820116820180604052508101906104759190611164565b5f0361038257818133610348565b60405163071463f960e01b81526001600160a01b0383166004820152602401610379565b6040518060400160405280836001600160a01b03168152602001828152505f806104ce3390565b6001600160a01b03908116825260208083019390935260409182015f908120855181546001600160a01b031916908416178155949093015160019094019390935551839285169133917f69cad6da4174faa68461906571bf7b6151f1b2958fe0c1e1b0ca11ad228d270b9190a45050565b610547610b26565b61055082610bca565b61055a8282610bd2565b5050565b5f610567610c93565b505f8051602061120083398151915290565b6001600160a01b038181165f90815260208181526040918290208251808401845281549094168085526001909101549184019190915290516301ffc9a760e01b81526380ac58cd60e01b600482015260609291906301ffc9a790602401602060405180830381865afa1580156105f1573d5f803e3d5ffd5b505050506040513d601f19601f82011682018060405250810190610615919061112a565b1561075457805160208201516040516331a9108f60e11b815260048101919091526001600160a01b03858116921690636352211e90602401602060405180830381865afa158015610668573d5f803e3d5ffd5b505050506040513d601f19601f8201168201806040525081019061068c9190611149565b6001600160a01b0316146106d6578051602082015160405163619b293360e01b81526001600160a01b03928316600482015260248101919091529084166044820152606401610379565b8051602082015160405163c87b56dd60e01b81526001600160a01b039092169163c87b56dd9161070c9160040190815260200190565b5f60405180830381865afa158015610726573d5f803e3d5ffd5b505050506040513d5f823e601f3d908101601f1916820160405261074d919081019061117b565b9392505050565b80516040516301ffc9a760e01b8152636cdb3d1360e11b60048201526001600160a01b03909116906301ffc9a790602401602060405180830381865afa1580156107a0573d5f803e3d5ffd5b505050506040513d601f19601f820116820180604052508101906107c4919061112a565b156108b65780516020820151604051627eeac760e11b81526001600160a01b038681166004830152602482019290925291169062fdd58e90604401602060405180830381865afa15801561081a573d5f803e3d5ffd5b505050506040513d601f19601f8201168201806040525081019061083e9190611164565b5f03610880578051602082015160405163619b293360e01b81526001600160a01b03928316600482015260248101919091529084166044820152606401610379565b805160208201516040516303a24d0760e21b81526001600160a01b0390921691630e89341c9161070c9160040190815260200190565b805160405163071463f960e01b81526001600160a01b039091166004820152602401610379565b6108e5610cdc565b6108ee5f610d0e565b565b33806108fa610a79565b6001600160a01b03161461092c5760405163118cdaa760e01b81526001600160a01b0382166004820152602401610379565b61093581610d0e565b50565b7ff0c57e16840df040f15088dc2f81fe391c3923bec73e23a9662efc9c229c6a008054600160401b810460ff16159067ffffffffffffffff165f8115801561097d5750825b90505f8267ffffffffffffffff1660011480156109995750303b155b9050811580156109a7575080155b156109c55760405163f92ee8a960e01b815260040160405180910390fd5b845467ffffffffffffffff1916600117855583156109ef57845460ff60401b1916600160401b1785555b6109f833610d0e565b8315610a3e57845460ff60401b19168555604051600181527fc7f505b2f371ae2175ee4913f4499e1f2633a7b5936321eed1cdaeb6115181d29060200160405180910390a15b5050505050565b5f807f9016d09d72d40fdae2fd8ceac6b6234c7706214fd39c1cd1e609a0528c1993005b546001600160a01b031692915050565b5f807f237e158222e3e6968b72b9db0d8043aacf074ad9f650f0d1606b4d82ee432c00610a69565b610aa9610cdc565b7f237e158222e3e6968b72b9db0d8043aacf074ad9f650f0d1606b4d82ee432c0080546001600160a01b0319166001600160a01b0383169081178255610aed610a45565b6001600160a01b03167f38d16b8cac22d99fc7c124b9cd0de2d3fa1faef420bfe791d8c362d765e2270060405160405180910390a35050565b306001600160a01b037f0000000000000000000000000000000000000000000000000000000000000000161480610bac57507f00000000000000000000000000000000000000000000000000000000000000006001600160a01b0316610ba05f80516020611200833981519152546001600160a01b031690565b6001600160a01b031614155b156108ee5760405163703e46dd60e11b815260040160405180910390fd5b610935610cdc565b816001600160a01b03166352d1902d6040518163ffffffff1660e01b8152600401602060405180830381865afa925050508015610c2c575060408051601f3d908101601f19168201909252610c2991810190611164565b60015b610c5457604051634c9c8ce360e01b81526001600160a01b0383166004820152602401610379565b5f805160206112008339815191528114610c8457604051632a87526960e21b815260048101829052602401610379565b610c8e8383610d46565b505050565b306001600160a01b037f000000000000000000000000000000000000000000000000000000000000000016146108ee5760405163703e46dd60e11b815260040160405180910390fd5b33610ce5610a45565b6001600160a01b0316146108ee5760405163118cdaa760e01b8152336004820152602401610379565b7f237e158222e3e6968b72b9db0d8043aacf074ad9f650f0d1606b4d82ee432c0080546001600160a01b031916815561055a82610d9b565b610d4f82610e0b565b6040516001600160a01b038316907fbc7cd75a20ee27fd9adebab32041f755214dbc6bffa90cc0225b39da2e5c2d3b905f90a2805115610d9357610c8e8282610e6e565b61055a610ee0565b7f9016d09d72d40fdae2fd8ceac6b6234c7706214fd39c1cd1e609a0528c19930080546001600160a01b031981166001600160a01b03848116918217845560405192169182907f8be0079c531659141344cd1fd0a4f28419497f9722a3daafe3b4186f6b6457e0905f90a3505050565b806001600160a01b03163b5f03610e4057604051634c9c8ce360e01b81526001600160a01b0382166004820152602401610379565b5f8051602061120083398151915280546001600160a01b0319166001600160a01b0392909216919091179055565b60605f80846001600160a01b031684604051610e8a91906111e4565b5f60405180830381855af49150503d805f8114610ec2576040519150601f19603f3d011682016040523d82523d5f602084013e610ec7565b606091505b5091509150610ed7858383610eff565b95945050505050565b34156108ee5760405163b398979f60e01b815260040160405180910390fd5b606082610f1457610f0f82610f5b565b61074d565b8151158015610f2b57506001600160a01b0384163b155b15610f5457604051639996b31560e01b81526001600160a01b0385166004820152602401610379565b5092915050565b805115610f6b5780518082602001fd5b604051630a12f52160e11b815260040160405180910390fd5b6001600160a01b0381168114610935575f80fd5b5f8060408385031215610fa9575f80fd5b8235610fb481610f84565b946020939093013593505050565b634e487b7160e01b5f52604160045260245ffd5b604051601f8201601f1916810167ffffffffffffffff81118282101715610fff57610fff610fc2565b604052919050565b5f67ffffffffffffffff82111561102057611020610fc2565b50601f01601f191660200190565b5f806040838503121561103f575f80fd5b823561104a81610f84565b9150602083013567ffffffffffffffff811115611065575f80fd5b8301601f81018513611075575f80fd5b803561108861108382611007565b610fd6565b81815286602083850101111561109c575f80fd5b816020840160208301375f602083830101528093505050509250929050565b5f602082840312156110cb575f80fd5b813561074d81610f84565b5f5b838110156110f05781810151838201526020016110d8565b50505f910152565b602081525f82518060208401526111168160408501602087016110d6565b601f01601f19169190910160400192915050565b5f6020828403121561113a575f80fd5b8151801515811461074d575f80fd5b5f60208284031215611159575f80fd5b815161074d81610f84565b5f60208284031215611174575f80fd5b5051919050565b5f6020828403121561118b575f80fd5b815167ffffffffffffffff8111156111a1575f80fd5b8201601f810184136111b1575f80fd5b80516111bf61108382611007565b8181528560208385010111156111d3575f80fd5b610ed78260208301602086016110d6565b5f82516111f58184602087016110d6565b919091019291505056fe360894a13ba1a3210667c828492db98dca3e2076cc3735a920a3ca505d382bbca26469706673582212207a15f5d353cb05ae4808b1b1dd4a9b2acf5f88e4a54707a2ac1c4499bf3ceff664736f6c63430008180033","linkReferences":{}},"methodIdentifiers":{"UPGRADE_INTERFACE_VERSION()":"ad3cb1cc","acceptOwnership()":"79ba5097","getProfilePicture(address)":"6f51d8cf","initialize()":"8129fc1c","owner()":"8da5cb5b","pendingOwner()":"e30c3978","profilePicture(address)":"e7430e91","proxiableUUID()":"52d1902d","renounceOwnership()":"715018a6","setPFP(address,uint256)":"1a477974","transferOwnership(address)":"f2fde38b","upgradeToAndCall(address,bytes)":"4f1ef286"},"storageLayout":{"storage":[{"astId":1428,"contract":"contracts/profile/RegisterProfilePicture.sol:RegisterProfilePicture","label":"profilePicture","offset":0,"slot":"0","type":"t_mapping(t_address,t_struct(ProfilePicture)1422_storage)"}],"types":{"t_address":{"encoding":"inplace","label":"address","numberOfBytes":"20"},"t_mapping(t_address,t_struct(ProfilePicture)1422_storage)":{"encoding":"mapping","key":"t_address","label":"mapping(address => struct RegisterProfilePicture.ProfilePicture)","numberOfBytes":"32","value":"t_struct(ProfilePicture)1422_storage"},"t_struct(ProfilePicture)1422_storage":{"encoding":"inplace","label":"struct RegisterProfilePicture.ProfilePicture","numberOfBytes":"64","members":[{"astId":1419,"contract":"contracts/profile/RegisterProfilePicture.sol:RegisterProfilePicture","label":"nftContract","offset":0,"slot":"0","type":"t_address"},{"astId":1421,"contract":"contracts/profile/RegisterProfilePicture.sol:RegisterProfilePicture","label":"tokenId","offset":0,"slot":"1","type":"t_uint256"}]},"t_uint256":{"encoding":"inplace","label":"uint256","numberOfBytes":"32"}}},"id":4}