{"abi":[{"type":"constructor","inputs":[],"stateMutability":"nonpayable"},{"type":"function","name":"UPGRADE_INTERFACE_VERSION","inputs":[],"outputs":[{"name":"","type":"string","internalType":"string"}],"stateMutability":"view"},{"type":"function","name":"acceptOwnership","inputs":[],"outputs":[],"stateMutability":"nonpayable"},{"type":"function","name":"canMint","inputs":[{"name":"_minter","type":"address","internalType":"address"},{"name":"_maxMints","type":"uint256","internalType":"uint256"}],"outputs":[{"name":"","type":"bool","internalType":"bool"}],"stateMutability":"view"},{"type":"function","name":"initialize","inputs":[{"name":"_owner","type":"address","internalType":"address"},{"name":"_root","type":"bytes32","internalType":"bytes32"}],"outputs":[],"stateMutability":"nonpayable"},{"type":"function","name":"leaf","inputs":[{"name":"_minter","type":"address","internalType":"address"},{"name":"_maxMints","type":"uint256","internalType":"uint256"}],"outputs":[{"name":"","type":"bytes32","internalType":"bytes32"}],"stateMutability":"pure"},{"type":"function","name":"minted","inputs":[{"name":"leaf","type":"bytes32","internalType":"bytes32"}],"outputs":[{"name":"hasMinted","type":"bool","internalType":"bool"}],"stateMutability":"view"},{"type":"function","name":"owner","inputs":[],"outputs":[{"name":"","type":"address","internalType":"address"}],"stateMutability":"view"},{"type":"function","name":"pendingOwner","inputs":[],"outputs":[{"name":"","type":"address","internalType":"address"}],"stateMutability":"view"},{"type":"function","name":"proxiableUUID","inputs":[],"outputs":[{"name":"","type":"bytes32","internalType":"bytes32"}],"stateMutability":"view"},{"type":"function","name":"renounceOwnership","inputs":[],"outputs":[],"stateMutability":"nonpayable"},{"type":"function","name":"root","inputs":[],"outputs":[{"name":"","type":"bytes32","internalType":"bytes32"}],"stateMutability":"view"},{"type":"function","name":"transferOwnership","inputs":[{"name":"newOwner","type":"address","internalType":"address"}],"outputs":[],"stateMutability":"nonpayable"},{"type":"function","name":"upgradeToAndCall","inputs":[{"name":"newImplementation","type":"address","internalType":"address"},{"name":"data","type":"bytes","internalType":"bytes"}],"outputs":[],"stateMutability":"payable"},{"type":"event","name":"Initialized","inputs":[{"name":"version","type":"uint64","indexed":false,"internalType":"uint64"}],"anonymous":false},{"type":"event","name":"MintConsumed","inputs":[{"name":"_minter","type":"address","indexed":false,"internalType":"address"},{"name":"_mintAmount","type":"uint256","indexed":false,"internalType":"uint256"}],"anonymous":false},{"type":"event","name":"OwnershipTransferStarted","inputs":[{"name":"previousOwner","type":"address","indexed":true,"internalType":"address"},{"name":"newOwner","type":"address","indexed":true,"internalType":"address"}],"anonymous":false},{"type":"event","name":"OwnershipTransferred","inputs":[{"name":"previousOwner","type":"address","indexed":true,"internalType":"address"},{"name":"newOwner","type":"address","indexed":true,"internalType":"address"}],"anonymous":false},{"type":"event","name":"RootUpdated","inputs":[{"name":"_root","type":"bytes32","indexed":false,"internalType":"bytes32"}],"anonymous":false},{"type":"event","name":"Upgraded","inputs":[{"name":"implementation","type":"address","indexed":true,"internalType":"address"}],"anonymous":false},{"type":"error","name":"AddressEmptyCode","inputs":[{"name":"target","type":"address","internalType":"address"}]},{"type":"error","name":"ERC1967InvalidImplementation","inputs":[{"name":"implementation","type":"address","internalType":"address"}]},{"type":"error","name":"ERC1967NonPayable","inputs":[]},{"type":"error","name":"FailedInnerCall","inputs":[]},{"type":"error","name":"INVALID_PROOF","inputs":[]},{"type":"error","name":"INVALID_TOKEN_AMOUNT","inputs":[]},{"type":"error","name":"InvalidInitialization","inputs":[]},{"type":"error","name":"MINTS_EXCEEDED","inputs":[]},{"type":"error","name":"NotInitializing","inputs":[]},{"type":"error","name":"OwnableInvalidOwner","inputs":[{"name":"owner","type":"address","internalType":"address"}]},{"type":"error","name":"OwnableUnauthorizedAccount","inputs":[{"name":"account","type":"address","internalType":"address"}]},{"type":"error","name":"UUPSUnauthorizedCallContext","inputs":[]},{"type":"error","name":"UUPSUnsupportedProxiableUUID","inputs":[{"name":"slot","type":"bytes32","internalType":"bytes32"}]}],"bytecode":{"object":"0x60a060405230608052348015610013575f80fd5b5061001c610021565b6100d3565b7ff0c57e16840df040f15088dc2f81fe391c3923bec73e23a9662efc9c229c6a00805468010000000000000000900460ff16156100715760405163f92ee8a960e01b815260040160405180910390fd5b80546001600160401b03908116146100d05780546001600160401b0319166001600160401b0390811782556040519081527fc7f505b2f371ae2175ee4913f4499e1f2633a7b5936321eed1cdaeb6115181d29060200160405180910390a15b50565b608051610d716100f95f395f8181610588015281816105b101526106f50152610d715ff3fe6080604052600436106100bf575f3560e01c80638da5cb5b1161007c578063d83b2bf811610057578063d83b2bf81461020c578063e30c39781461022b578063ebf0c7171461023f578063f2fde38b14610253575f80fd5b80638da5cb5b14610184578063ad3cb1cc146101b0578063be13f47c146101ed575f80fd5b80630d5e34a4146100c35780634f1ef286146100f757806352d1902d1461010c578063715018a61461012e57806379ba5097146101425780638ccc5f8014610156575b5f80fd5b3480156100ce575f80fd5b506100e26100dd366004610b6d565b610272565b60405190151581526020015b60405180910390f35b61010a610105366004610ba9565b610298565b005b348015610117575f80fd5b506101206102b7565b6040519081526020016100ee565b348015610139575f80fd5b5061010a6102d2565b34801561014d575f80fd5b5061010a6102e5565b348015610161575f80fd5b506100e2610170366004610c65565b60016020525f908152604090205460ff1681565b34801561018f575f80fd5b50610198610332565b6040516001600160a01b0390911681526020016100ee565b3480156101bb575f80fd5b506101e0604051806040016040528060058152602001640352e302e360dc1b81525081565b6040516100ee9190610c9e565b3480156101f8575f80fd5b5061010a610207366004610b6d565b610366565b348015610217575f80fd5b50610120610226366004610b6d565b610477565b348015610236575f80fd5b506101986104d0565b34801561024a575f80fd5b506101205f5481565b34801561025e575f80fd5b5061010a61026d366004610cd0565b6104f8565b5f8061027e8484610477565b5f9081526001602052604090205460ff1615949350505050565b6102a061057d565b6102a982610621565b6102b38282610629565b5050565b5f6102c06106ea565b505f80516020610d1c83398151915290565b6102da610733565b6102e35f610765565b565b33806102ef6104d0565b6001600160a01b0316146103265760405163118cdaa760e01b81526001600160a01b03821660048201526024015b60405180910390fd5b61032f81610765565b50565b5f807f9016d09d72d40fdae2fd8ceac6b6234c7706214fd39c1cd1e609a0528c1993005b546001600160a01b031692915050565b7ff0c57e16840df040f15088dc2f81fe391c3923bec73e23a9662efc9c229c6a008054600160401b810460ff16159067ffffffffffffffff165f811580156103ab5750825b90505f8267ffffffffffffffff1660011480156103c75750303b155b9050811580156103d5575080155b156103f35760405163f92ee8a960e01b815260040160405180910390fd5b845467ffffffffffffffff19166001178555831561041d57845460ff60401b1916600160401b1785555b610427878761079d565b831561046e57845460ff60401b19168555604051600181527fc7f505b2f371ae2175ee4913f4499e1f2633a7b5936321eed1cdaeb6115181d2906020015b60405180910390a15b50505050505050565b604080516001600160a01b03841660208201529081018290525f9060600160408051601f198184030181528282528051602091820120908301520160405160208183030381529060405280519060200120905092915050565b5f807f237e158222e3e6968b72b9db0d8043aacf074ad9f650f0d1606b4d82ee432c00610356565b610500610733565b7f237e158222e3e6968b72b9db0d8043aacf074ad9f650f0d1606b4d82ee432c0080546001600160a01b0319166001600160a01b0383169081178255610544610332565b6001600160a01b03167f38d16b8cac22d99fc7c124b9cd0de2d3fa1faef420bfe791d8c362d765e2270060405160405180910390a35050565b306001600160a01b037f000000000000000000000000000000000000000000000000000000000000000016148061060357507f00000000000000000000000000000000000000000000000000000000000000006001600160a01b03166105f75f80516020610d1c833981519152546001600160a01b031690565b6001600160a01b031614155b156102e35760405163703e46dd60e11b815260040160405180910390fd5b61032f610733565b816001600160a01b03166352d1902d6040518163ffffffff1660e01b8152600401602060405180830381865afa925050508015610683575060408051601f3d908101601f1916820190925261068091810190610ce9565b60015b6106ab57604051634c9c8ce360e01b81526001600160a01b038316600482015260240161031d565b5f80516020610d1c83398151915281146106db57604051632a87526960e21b81526004810182905260240161031d565b6106e583836108c0565b505050565b306001600160a01b037f000000000000000000000000000000000000000000000000000000000000000016146102e35760405163703e46dd60e11b815260040160405180910390fd5b3361073c610332565b6001600160a01b0316146102e35760405163118cdaa760e01b815233600482015260240161031d565b7f237e158222e3e6968b72b9db0d8043aacf074ad9f650f0d1606b4d82ee432c0080546001600160a01b03191681556102b382610915565b7ff0c57e16840df040f15088dc2f81fe391c3923bec73e23a9662efc9c229c6a008054600160401b810460ff16159067ffffffffffffffff165f811580156107e25750825b90505f8267ffffffffffffffff1660011480156107fe5750303b155b90508115801561080c575080155b1561082a5760405163f92ee8a960e01b815260040160405180910390fd5b845467ffffffffffffffff19166001178555831561085457845460ff60401b1916600160401b1785555b6108726001600160a01b0388161561086c5787610765565b33610765565b61087a610985565b5f869055831561046e57845460ff60401b19168555604051600181527fc7f505b2f371ae2175ee4913f4499e1f2633a7b5936321eed1cdaeb6115181d290602001610465565b6108c98261098d565b6040516001600160a01b038316907fbc7cd75a20ee27fd9adebab32041f755214dbc6bffa90cc0225b39da2e5c2d3b905f90a280511561090d576106e582826109f0565b6102b3610a62565b7f9016d09d72d40fdae2fd8ceac6b6234c7706214fd39c1cd1e609a0528c19930080546001600160a01b031981166001600160a01b03848116918217845560405192169182907f8be0079c531659141344cd1fd0a4f28419497f9722a3daafe3b4186f6b6457e0905f90a3505050565b6102e3610a81565b806001600160a01b03163b5f036109c257604051634c9c8ce360e01b81526001600160a01b038216600482015260240161031d565b5f80516020610d1c83398151915280546001600160a01b0319166001600160a01b0392909216919091179055565b60605f80846001600160a01b031684604051610a0c9190610d00565b5f60405180830381855af49150503d805f8114610a44576040519150601f19603f3d011682016040523d82523d5f602084013e610a49565b606091505b5091509150610a59858383610aca565b95945050505050565b34156102e35760405163b398979f60e01b815260040160405180910390fd5b7ff0c57e16840df040f15088dc2f81fe391c3923bec73e23a9662efc9c229c6a0054600160401b900460ff166102e357604051631afcd79f60e31b815260040160405180910390fd5b606082610adf57610ada82610b29565b610b22565b8151158015610af657506001600160a01b0384163b155b15610b1f57604051639996b31560e01b81526001600160a01b038516600482015260240161031d565b50805b9392505050565b805115610b395780518082602001fd5b604051630a12f52160e11b815260040160405180910390fd5b80356001600160a01b0381168114610b68575f80fd5b919050565b5f8060408385031215610b7e575f80fd5b610b8783610b52565b946020939093013593505050565b634e487b7160e01b5f52604160045260245ffd5b5f8060408385031215610bba575f80fd5b610bc383610b52565b9150602083013567ffffffffffffffff80821115610bdf575f80fd5b818501915085601f830112610bf2575f80fd5b813581811115610c0457610c04610b95565b604051601f8201601f19908116603f01168101908382118183101715610c2c57610c2c610b95565b81604052828152886020848701011115610c44575f80fd5b826020860160208301375f6020848301015280955050505050509250929050565b5f60208284031215610c75575f80fd5b5035919050565b5f5b83811015610c96578181015183820152602001610c7e565b50505f910152565b602081525f8251806020840152610cbc816040850160208701610c7c565b601f01601f19169190910160400192915050565b5f60208284031215610ce0575f80fd5b610b2282610b52565b5f60208284031215610cf9575f80fd5b5051919050565b5f8251610d11818460208701610c7c565b919091019291505056fe360894a13ba1a3210667c828492db98dca3e2076cc3735a920a3ca505d382bbca2646970667358221220abb1238e4489cd6ba39355ef456478721963e48458d1679dfda1902a4b93d90964736f6c63430008180033","linkReferences":{}},"methodIdentifiers":{"UPGRADE_INTERFACE_VERSION()":"ad3cb1cc","acceptOwnership()":"79ba5097","canMint(address,uint256)":"0d5e34a4","initialize(address,bytes32)":"be13f47c","leaf(address,uint256)":"d83b2bf8","minted(bytes32)":"8ccc5f80","owner()":"8da5cb5b","pendingOwner()":"e30c3978","proxiableUUID()":"52d1902d","renounceOwnership()":"715018a6","root()":"ebf0c717","transferOwnership(address)":"f2fde38b","upgradeToAndCall(address,bytes)":"4f1ef286"},"id":1}