{"abi":[{"type":"function","name":"approve","inputs":[{"name":"to","type":"address","internalType":"address"},{"name":"tokenId","type":"uint256","internalType":"uint256"}],"outputs":[],"stateMutability":"nonpayable"},{"type":"function","name":"balanceOf","inputs":[{"name":"owner","type":"address","internalType":"address"}],"outputs":[{"name":"","type":"uint256","internalType":"uint256"}],"stateMutability":"view"},{"type":"function","name":"burn","inputs":[{"name":"tokenId","type":"uint256","internalType":"uint256"}],"outputs":[],"stateMutability":"nonpayable"},{"type":"function","name":"getApproved","inputs":[{"name":"tokenId","type":"uint256","internalType":"uint256"}],"outputs":[{"name":"","type":"address","internalType":"address"}],"stateMutability":"view"},{"type":"function","name":"initialize","inputs":[{"name":"name","type":"string","internalType":"string"},{"name":"symbol","type":"string","internalType":"string"}],"outputs":[],"stateMutability":"nonpayable"},{"type":"function","name":"isApprovedForAll","inputs":[{"name":"owner","type":"address","internalType":"address"},{"name":"operator","type":"address","internalType":"address"}],"outputs":[{"name":"","type":"bool","internalType":"bool"}],"stateMutability":"view"},{"type":"function","name":"mint","inputs":[{"name":"to","type":"address","internalType":"address"},{"name":"tokenId","type":"uint256","internalType":"uint256"}],"outputs":[],"stateMutability":"nonpayable"},{"type":"function","name":"name","inputs":[],"outputs":[{"name":"","type":"string","internalType":"string"}],"stateMutability":"view"},{"type":"function","name":"ownerOf","inputs":[{"name":"tokenId","type":"uint256","internalType":"uint256"}],"outputs":[{"name":"","type":"address","internalType":"address"}],"stateMutability":"view"},{"type":"function","name":"safeTransferFrom","inputs":[{"name":"from","type":"address","internalType":"address"},{"name":"to","type":"address","internalType":"address"},{"name":"tokenId","type":"uint256","internalType":"uint256"}],"outputs":[],"stateMutability":"nonpayable"},{"type":"function","name":"safeTransferFrom","inputs":[{"name":"from","type":"address","internalType":"address"},{"name":"to","type":"address","internalType":"address"},{"name":"tokenId","type":"uint256","internalType":"uint256"},{"name":"data","type":"bytes","internalType":"bytes"}],"outputs":[],"stateMutability":"nonpayable"},{"type":"function","name":"setApprovalForAll","inputs":[{"name":"operator","type":"address","internalType":"address"},{"name":"approved","type":"bool","internalType":"bool"}],"outputs":[],"stateMutability":"nonpayable"},{"type":"function","name":"supportsInterface","inputs":[{"name":"interfaceId","type":"bytes4","internalType":"bytes4"}],"outputs":[{"name":"","type":"bool","internalType":"bool"}],"stateMutability":"view"},{"type":"function","name":"symbol","inputs":[],"outputs":[{"name":"","type":"string","internalType":"string"}],"stateMutability":"view"},{"type":"function","name":"tokenURI","inputs":[{"name":"tokenId","type":"uint256","internalType":"uint256"}],"outputs":[{"name":"","type":"string","internalType":"string"}],"stateMutability":"view"},{"type":"function","name":"transferFrom","inputs":[{"name":"from","type":"address","internalType":"address"},{"name":"to","type":"address","internalType":"address"},{"name":"tokenId","type":"uint256","internalType":"uint256"}],"outputs":[],"stateMutability":"nonpayable"},{"type":"event","name":"Approval","inputs":[{"name":"owner","type":"address","indexed":true,"internalType":"address"},{"name":"approved","type":"address","indexed":true,"internalType":"address"},{"name":"tokenId","type":"uint256","indexed":true,"internalType":"uint256"}],"anonymous":false},{"type":"event","name":"ApprovalForAll","inputs":[{"name":"owner","type":"address","indexed":true,"internalType":"address"},{"name":"operator","type":"address","indexed":true,"internalType":"address"},{"name":"approved","type":"bool","indexed":false,"internalType":"bool"}],"anonymous":false},{"type":"event","name":"Initialized","inputs":[{"name":"version","type":"uint64","indexed":false,"internalType":"uint64"}],"anonymous":false},{"type":"event","name":"Transfer","inputs":[{"name":"from","type":"address","indexed":true,"internalType":"address"},{"name":"to","type":"address","indexed":true,"internalType":"address"},{"name":"tokenId","type":"uint256","indexed":true,"internalType":"uint256"}],"anonymous":false},{"type":"error","name":"ERC721IncorrectOwner","inputs":[{"name":"sender","type":"address","internalType":"address"},{"name":"tokenId","type":"uint256","internalType":"uint256"},{"name":"owner","type":"address","internalType":"address"}]},{"type":"error","name":"ERC721InsufficientApproval","inputs":[{"name":"operator","type":"address","internalType":"address"},{"name":"tokenId","type":"uint256","internalType":"uint256"}]},{"type":"error","name":"ERC721InvalidApprover","inputs":[{"name":"approver","type":"address","internalType":"address"}]},{"type":"error","name":"ERC721InvalidOperator","inputs":[{"name":"operator","type":"address","internalType":"address"}]},{"type":"error","name":"ERC721InvalidOwner","inputs":[{"name":"owner","type":"address","internalType":"address"}]},{"type":"error","name":"ERC721InvalidReceiver","inputs":[{"name":"receiver","type":"address","internalType":"address"}]},{"type":"error","name":"ERC721InvalidSender","inputs":[{"name":"sender","type":"address","internalType":"address"}]},{"type":"error","name":"ERC721NonexistentToken","inputs":[{"name":"tokenId","type":"uint256","internalType":"uint256"}]},{"type":"error","name":"InvalidInitialization","inputs":[]},{"type":"error","name":"NotInitializing","inputs":[]}],"bytecode":{"object":"0x608060405234801561000f575f80fd5b506113f88061001d5f395ff3fe608060405234801561000f575f80fd5b50600436106100fb575f3560e01c80634cd88b7611610093578063a22cb46511610063578063a22cb46514610217578063b88d4fde1461022a578063c87b56dd1461023d578063e985e9c514610250575f80fd5b80634cd88b76146101c85780636352211e146101db57806370a08231146101ee57806395d89b411461020f575f80fd5b806323b872dd116100ce57806323b872dd1461017c57806340c10f191461018f57806342842e0e146101a257806342966c68146101b5575f80fd5b806301ffc9a7146100ff57806306fdde0314610127578063081812fc1461013c578063095ea7b314610167575b5f80fd5b61011261010d366004610ed5565b610263565b60405190151581526020015b60405180910390f35b61012f6102b4565b60405161011e9190610f3d565b61014f61014a366004610f4f565b610355565b6040516001600160a01b03909116815260200161011e565b61017a610175366004610f81565b610369565b005b61017a61018a366004610fa9565b610378565b61017a61019d366004610f81565b610406565b61017a6101b0366004610fa9565b610410565b61017a6101c3366004610f4f565b61042f565b61017a6101d6366004611087565b61043b565b61014f6101e9366004610f4f565b61054b565b6102016101fc3660046110e7565b610555565b60405190815260200161011e565b61012f6105ad565b61017a610225366004611100565b6105eb565b61017a610238366004611139565b6105f6565b61012f61024b366004610f4f565b61060d565b61011261025e3660046111b0565b61067e565b5f6001600160e01b031982166380ac58cd60e01b148061029357506001600160e01b03198216635b5e139f60e01b145b806102ae57506301ffc9a760e01b6001600160e01b03198316145b92915050565b5f805160206113a383398151915280546060919081906102d3906111e1565b80601f01602080910402602001604051908101604052809291908181526020018280546102ff906111e1565b801561034a5780601f106103215761010080835404028352916020019161034a565b820191905f5260205f20905b81548152906001019060200180831161032d57829003601f168201915b505050505091505090565b5f61035f826106ca565b506102ae82610701565b61037482823361073a565b5050565b6001600160a01b0382166103a657604051633250574960e11b81525f60048201526024015b60405180910390fd5b5f6103b2838333610747565b9050836001600160a01b0316816001600160a01b031614610400576040516364283d7b60e01b81526001600160a01b038086166004830152602482018490528216604482015260640161039d565b50505050565b6103748282610849565b61042a83838360405180602001604052805f8152506105f6565b505050565b610438816108aa565b50565b7ff0c57e16840df040f15088dc2f81fe391c3923bec73e23a9662efc9c229c6a008054600160401b810460ff16159067ffffffffffffffff165f811580156104805750825b90505f8267ffffffffffffffff16600114801561049c5750303b155b9050811580156104aa575080155b156104c85760405163f92ee8a960e01b815260040160405180910390fd5b845467ffffffffffffffff1916600117855583156104f257845460ff60401b1916600160401b1785555b6104fc87876108e2565b831561054257845460ff60401b19168555604051600181527fc7f505b2f371ae2175ee4913f4499e1f2633a7b5936321eed1cdaeb6115181d29060200160405180910390a15b50505050505050565b5f6102ae826106ca565b5f5f805160206113a38339815191526001600160a01b03831661058d576040516322718ad960e21b81525f600482015260240161039d565b6001600160a01b039092165f908152600390920160205250604090205490565b7f80bb2b638cc20bc4d0a60d66940f3ab4a00c1d7b313497ca82fb0b4ab007930180546060915f805160206113a3833981519152916102d3906111e1565b6103743383836108f4565b610601848484610378565b610400848484846109a3565b6060610618826106ca565b505f61062e60408051602081019091525f815290565b90505f81511161064c5760405180602001604052805f815250610677565b8061065684610ac9565b604051602001610667929190611219565b6040516020818303038152906040525b9392505050565b6001600160a01b039182165f9081527f80bb2b638cc20bc4d0a60d66940f3ab4a00c1d7b313497ca82fb0b4ab00793056020908152604080832093909416825291909152205460ff1690565b5f806106d583610b59565b90506001600160a01b0381166102ae57604051637e27328960e01b81526004810184905260240161039d565b5f9081527f80bb2b638cc20bc4d0a60d66940f3ab4a00c1d7b313497ca82fb0b4ab007930460205260409020546001600160a01b031690565b61042a8383836001610b92565b5f5f805160206113a38339815191528161076085610b59565b90506001600160a01b0384161561077c5761077c818587610ca5565b6001600160a01b038116156107b8576107975f865f80610b92565b6001600160a01b0381165f908152600383016020526040902080545f190190555b6001600160a01b038616156107e8576001600160a01b0386165f9081526003830160205260409020805460010190555b5f85815260028301602052604080822080546001600160a01b0319166001600160a01b038a811691821790925591518893918516917fddf252ad1be2c89b69c2b068fc378daa952ba7f163c4a11628f55a4df523b3ef91a495945050505050565b6001600160a01b03821661087257604051633250574960e11b81525f600482015260240161039d565b5f61087e83835f610747565b90506001600160a01b0381161561042a576040516339e3563760e11b81525f600482015260240161039d565b5f6108b65f835f610747565b90506001600160a01b03811661037457604051637e27328960e01b81526004810183905260240161039d565b6108ea610d09565b6103748282610d54565b5f805160206113a38339815191526001600160a01b03831661093457604051630b61174360e31b81526001600160a01b038416600482015260240161039d565b6001600160a01b038481165f818152600584016020908152604080832094881680845294825291829020805460ff191687151590811790915591519182527f17307eab39ab6107e8899845ad3d59bd9653f200f220920489ca2b5937696c31910160405180910390a350505050565b6001600160a01b0383163b1561040057604051630a85bd0160e11b81526001600160a01b0384169063150b7a02906109e5903390889087908790600401611247565b6020604051808303815f875af1925050508015610a1f575060408051601f3d908101601f19168201909252610a1c91810190611283565b60015b610a86573d808015610a4c576040519150601f19603f3d011682016040523d82523d5f602084013e610a51565b606091505b5080515f03610a7e57604051633250574960e11b81526001600160a01b038516600482015260240161039d565b805181602001fd5b6001600160e01b03198116630a85bd0160e11b14610ac257604051633250574960e11b81526001600160a01b038516600482015260240161039d565b5050505050565b60605f610ad583610d84565b60010190505f8167ffffffffffffffff811115610af457610af4610fe2565b6040519080825280601f01601f191660200182016040528015610b1e576020820181803683370190505b5090508181016020015b5f19016f181899199a1a9b1b9c1cb0b131b232b360811b600a86061a8153600a8504945084610b2857509392505050565b5f9081527f80bb2b638cc20bc4d0a60d66940f3ab4a00c1d7b313497ca82fb0b4ab007930260205260409020546001600160a01b031690565b5f805160206113a38339815191528180610bb457506001600160a01b03831615155b15610c75575f610bc3856106ca565b90506001600160a01b03841615801590610bef5750836001600160a01b0316816001600160a01b031614155b8015610c025750610c00818561067e565b155b15610c2b5760405163a9fbf51f60e01b81526001600160a01b038516600482015260240161039d565b8215610c735784866001600160a01b0316826001600160a01b03167f8c5be1e5ebec7d5bd14f71427d1e84f3dd0314c0f7b2291e5b200ac8c7c3b92560405160405180910390a45b505b5f93845260040160205250506040902080546001600160a01b0319166001600160a01b0392909216919091179055565b610cb0838383610e5b565b61042a576001600160a01b038316610cde57604051637e27328960e01b81526004810182905260240161039d565b60405163177e802f60e01b81526001600160a01b03831660048201526024810182905260440161039d565b7ff0c57e16840df040f15088dc2f81fe391c3923bec73e23a9662efc9c229c6a0054600160401b900460ff16610d5257604051631afcd79f60e31b815260040160405180910390fd5b565b610d5c610d09565b5f805160206113a383398151915280610d7584826112e2565b506001810161040083826112e2565b5f8072184f03e93ff9f4daa797ed6e38ed64bf6a1f0160401b8310610dc25772184f03e93ff9f4daa797ed6e38ed64bf6a1f0160401b830492506040015b6d04ee2d6d415b85acef81000000008310610dee576d04ee2d6d415b85acef8100000000830492506020015b662386f26fc100008310610e0c57662386f26fc10000830492506010015b6305f5e1008310610e24576305f5e100830492506008015b6127108310610e3857612710830492506004015b60648310610e4a576064830492506002015b600a83106102ae5760010192915050565b5f6001600160a01b03831615801590610eb85750826001600160a01b0316846001600160a01b03161480610e945750610e94848461067e565b80610eb85750826001600160a01b0316610ead83610701565b6001600160a01b0316145b949350505050565b6001600160e01b031981168114610438575f80fd5b5f60208284031215610ee5575f80fd5b813561067781610ec0565b5f5b83811015610f0a578181015183820152602001610ef2565b50505f910152565b5f8151808452610f29816020860160208601610ef0565b601f01601f19169290920160200192915050565b602081525f6106776020830184610f12565b5f60208284031215610f5f575f80fd5b5035919050565b80356001600160a01b0381168114610f7c575f80fd5b919050565b5f8060408385031215610f92575f80fd5b610f9b83610f66565b946020939093013593505050565b5f805f60608486031215610fbb575f80fd5b610fc484610f66565b9250610fd260208501610f66565b9150604084013590509250925092565b634e487b7160e01b5f52604160045260245ffd5b5f67ffffffffffffffff8084111561101057611010610fe2565b604051601f8501601f19908116603f0116810190828211818310171561103857611038610fe2565b81604052809350858152868686011115611050575f80fd5b858560208301375f602087830101525050509392505050565b5f82601f830112611078575f80fd5b61067783833560208501610ff6565b5f8060408385031215611098575f80fd5b823567ffffffffffffffff808211156110af575f80fd5b6110bb86838701611069565b935060208501359150808211156110d0575f80fd5b506110dd85828601611069565b9150509250929050565b5f602082840312156110f7575f80fd5b61067782610f66565b5f8060408385031215611111575f80fd5b61111a83610f66565b91506020830135801515811461112e575f80fd5b809150509250929050565b5f805f806080858703121561114c575f80fd5b61115585610f66565b935061116360208601610f66565b925060408501359150606085013567ffffffffffffffff811115611185575f80fd5b8501601f81018713611195575f80fd5b6111a487823560208401610ff6565b91505092959194509250565b5f80604083850312156111c1575f80fd5b6111ca83610f66565b91506111d860208401610f66565b90509250929050565b600181811c908216806111f557607f821691505b60208210810361121357634e487b7160e01b5f52602260045260245ffd5b50919050565b5f835161122a818460208801610ef0565b83519083019061123e818360208801610ef0565b01949350505050565b6001600160a01b03858116825284166020820152604081018390526080606082018190525f9061127990830184610f12565b9695505050505050565b5f60208284031215611293575f80fd5b815161067781610ec0565b601f82111561042a57805f5260205f20601f840160051c810160208510156112c35750805b601f840160051c820191505b81811015610ac2575f81556001016112cf565b815167ffffffffffffffff8111156112fc576112fc610fe2565b6113108161130a84546111e1565b8461129e565b602080601f831160018114611343575f841561132c5750858301515b5f19600386901b1c1916600185901b17855561139a565b5f85815260208120601f198616915b8281101561137157888601518255948401946001909101908401611352565b508582101561138e57878501515f19600388901b60f8161c191681555b505060018460011b0185555b50505050505056fe80bb2b638cc20bc4d0a60d66940f3ab4a00c1d7b313497ca82fb0b4ab0079300a2646970667358221220650ca63ca299ea34321b542faba102f7e82f78ebf98e11feba3e3db2dd46f49064736f6c63430008180033","linkReferences":{}},"methodIdentifiers":{"approve(address,uint256)":"095ea7b3","balanceOf(address)":"70a08231","burn(uint256)":"42966c68","getApproved(uint256)":"081812fc","initialize(string,string)":"4cd88b76","isApprovedForAll(address,address)":"e985e9c5","mint(address,uint256)":"40c10f19","name()":"06fdde03","ownerOf(uint256)":"6352211e","safeTransferFrom(address,address,uint256)":"42842e0e","safeTransferFrom(address,address,uint256,bytes)":"b88d4fde","setApprovalForAll(address,bool)":"a22cb465","supportsInterface(bytes4)":"01ffc9a7","symbol()":"95d89b41","tokenURI(uint256)":"c87b56dd","transferFrom(address,address,uint256)":"23b872dd"},"storageLayout":{"storage":[],"types":{}},"id":148}