{"abi":[{"type":"constructor","inputs":[],"stateMutability":"nonpayable"},{"type":"function","name":"UPGRADE_INTERFACE_VERSION","inputs":[],"outputs":[{"name":"","type":"string","internalType":"string"}],"stateMutability":"view"},{"type":"function","name":"acceptOwnership","inputs":[],"outputs":[],"stateMutability":"nonpayable"},{"type":"function","name":"blacklist","inputs":[],"outputs":[{"name":"","type":"address","internalType":"contract IMinimalBlacklist"}],"stateMutability":"view"},{"type":"function","name":"canMint","inputs":[{"name":"_signature","type":"bytes","internalType":"bytes"},{"name":"_minter","type":"address","internalType":"address"},{"name":"_tokenId","type":"uint256","internalType":"uint256"}],"outputs":[{"name":"","type":"bool","internalType":"bool"}],"stateMutability":"view"},{"type":"function","name":"getHash","inputs":[{"name":"_minter","type":"address","internalType":"address"},{"name":"_tokenId","type":"uint256","internalType":"uint256"}],"outputs":[{"name":"","type":"bytes32","internalType":"bytes32"}],"stateMutability":"pure"},{"type":"function","name":"initialize","inputs":[{"name":"_owner","type":"address","internalType":"address"},{"name":"_mintSigner","type":"address","internalType":"address"},{"name":"_blacklist","type":"address","internalType":"contract IMinimalBlacklist"}],"outputs":[],"stateMutability":"nonpayable"},{"type":"function","name":"mintSigner","inputs":[],"outputs":[{"name":"","type":"address","internalType":"address"}],"stateMutability":"view"},{"type":"function","name":"minted","inputs":[{"name":"signatureHash","type":"bytes32","internalType":"bytes32"}],"outputs":[{"name":"hasMinted","type":"bool","internalType":"bool"}],"stateMutability":"view"},{"type":"function","name":"owner","inputs":[],"outputs":[{"name":"","type":"address","internalType":"address"}],"stateMutability":"view"},{"type":"function","name":"pendingOwner","inputs":[],"outputs":[{"name":"","type":"address","internalType":"address"}],"stateMutability":"view"},{"type":"function","name":"proxiableUUID","inputs":[],"outputs":[{"name":"","type":"bytes32","internalType":"bytes32"}],"stateMutability":"view"},{"type":"function","name":"renounceOwnership","inputs":[],"outputs":[],"stateMutability":"nonpayable"},{"type":"function","name":"transferOwnership","inputs":[{"name":"newOwner","type":"address","internalType":"address"}],"outputs":[],"stateMutability":"nonpayable"},{"type":"function","name":"updateBlacklist","inputs":[{"name":"_blacklist","type":"address","internalType":"contract IMinimalBlacklist"}],"outputs":[],"stateMutability":"nonpayable"},{"type":"function","name":"updateMintSigner","inputs":[{"name":"_mintSigner","type":"address","internalType":"address"}],"outputs":[],"stateMutability":"nonpayable"},{"type":"function","name":"upgradeToAndCall","inputs":[{"name":"newImplementation","type":"address","internalType":"address"},{"name":"data","type":"bytes","internalType":"bytes"}],"outputs":[],"stateMutability":"payable"},{"type":"event","name":"BlacklistUpdated","inputs":[{"name":"_blacklist","type":"address","indexed":false,"internalType":"address"}],"anonymous":false},{"type":"event","name":"Initialized","inputs":[{"name":"version","type":"uint64","indexed":false,"internalType":"uint64"}],"anonymous":false},{"type":"event","name":"MintConsumed","inputs":[{"name":"_minter","type":"address","indexed":false,"internalType":"address"},{"name":"_tokenId","type":"uint256","indexed":false,"internalType":"uint256"}],"anonymous":false},{"type":"event","name":"MintSignerUpdated","inputs":[{"name":"_mintSigner","type":"address","indexed":false,"internalType":"address"}],"anonymous":false},{"type":"event","name":"OwnershipTransferStarted","inputs":[{"name":"previousOwner","type":"address","indexed":true,"internalType":"address"},{"name":"newOwner","type":"address","indexed":true,"internalType":"address"}],"anonymous":false},{"type":"event","name":"OwnershipTransferred","inputs":[{"name":"previousOwner","type":"address","indexed":true,"internalType":"address"},{"name":"newOwner","type":"address","indexed":true,"internalType":"address"}],"anonymous":false},{"type":"event","name":"Upgraded","inputs":[{"name":"implementation","type":"address","indexed":true,"internalType":"address"}],"anonymous":false},{"type":"error","name":"ADDRESS_BLACKLISTED","inputs":[]},{"type":"error","name":"AddressEmptyCode","inputs":[{"name":"target","type":"address","internalType":"address"}]},{"type":"error","name":"ERC1967InvalidImplementation","inputs":[{"name":"implementation","type":"address","internalType":"address"}]},{"type":"error","name":"ERC1967NonPayable","inputs":[]},{"type":"error","name":"FailedInnerCall","inputs":[]},{"type":"error","name":"InvalidInitialization","inputs":[]},{"type":"error","name":"MINTS_EXCEEDED","inputs":[]},{"type":"error","name":"NotInitializing","inputs":[]},{"type":"error","name":"ONLY_MINT_SIGNER","inputs":[]},{"type":"error","name":"OwnableInvalidOwner","inputs":[{"name":"owner","type":"address","internalType":"address"}]},{"type":"error","name":"OwnableUnauthorizedAccount","inputs":[{"name":"account","type":"address","internalType":"address"}]},{"type":"error","name":"UUPSUnauthorizedCallContext","inputs":[]},{"type":"error","name":"UUPSUnsupportedProxiableUUID","inputs":[{"name":"slot","type":"bytes32","internalType":"bytes32"}]}],"bytecode":{"object":"0x60a060405230608052348015610013575f80fd5b5061001c610021565b6100d3565b7ff0c57e16840df040f15088dc2f81fe391c3923bec73e23a9662efc9c229c6a00805468010000000000000000900460ff16156100715760405163f92ee8a960e01b815260040160405180910390fd5b80546001600160401b03908116146100d05780546001600160401b0319166001600160401b0390811782556040519081527fc7f505b2f371ae2175ee4913f4499e1f2633a7b5936321eed1cdaeb6115181d29060200160405180910390a15b50565b6080516110a46100f95f395f81816107a5015281816107ce015261091201526110a45ff3fe6080604052600436106100ef575f3560e01c8063ad3cb1cc11610087578063ed05582b11610057578063ed05582b1461028e578063f17af48d146102ad578063f2fde38b146102cb578063f571049b146102ea575f80fd5b8063ad3cb1cc146101ff578063b58c439e1461023c578063c0c53b8b1461025b578063e30c39781461027a575f80fd5b806379ba5097116100c257806379ba5097146101625780638ccc5f80146101765780638da5cb5b146101b4578063a4b5fa56146101e0575f80fd5b8063378b5704146100f35780634f1ef2861461011457806352d1902d14610127578063715018a61461014e575b5f80fd5b3480156100fe575f80fd5b5061011261010d366004610dc5565b610309565b005b610112610122366004610e7d565b610366565b348015610132575f80fd5b5061013b610385565b6040519081526020015b60405180910390f35b348015610159575f80fd5b506101126103a0565b34801561016d575f80fd5b506101126103b3565b348015610181575f80fd5b506101a4610190366004610eca565b60016020525f908152604090205460ff1681565b6040519015158152602001610145565b3480156101bf575f80fd5b506101c8610400565b6040516001600160a01b039091168152602001610145565b3480156101eb575f80fd5b506002546101c8906001600160a01b031681565b34801561020a575f80fd5b5061022f604051806040016040528060058152602001640352e302e360dc1b81525081565b6040516101459190610f03565b348015610247575f80fd5b506101a4610256366004610f35565b610434565b348015610266575f80fd5b50610112610275366004610f8b565b6104fb565b348015610285575f80fd5b506101c861060d565b348015610299575f80fd5b5061013b6102a8366004610fd3565b610635565b3480156102b8575f80fd5b505f546101c8906001600160a01b031681565b3480156102d6575f80fd5b506101126102e5366004610dc5565b61068e565b3480156102f5575f80fd5b50610112610304366004610dc5565b610713565b610311610768565b600280546001600160a01b0319166001600160a01b0383169081179091556040519081527f75cdf6842d867a09260947ac775619527788d913a79fc3b41da1815fa377af65906020015b60405180910390a150565b61036e61079a565b6103778261083e565b6103818282610846565b5050565b5f61038e610907565b505f8051602061104f83398151915290565b6103a8610768565b6103b15f610950565b565b33806103bd61060d565b6001600160a01b0316146103f45760405163118cdaa760e01b81526001600160a01b03821660048201526024015b60405180910390fd5b6103fd81610950565b50565b5f807f9016d09d72d40fdae2fd8ceac6b6234c7706214fd39c1cd1e609a0528c1993005b546001600160a01b031692915050565b60025460405163fe575a8760e01b81526001600160a01b0384811660048301525f92169063fe575a8790602401602060405180830381865afa15801561047c573d5f803e3d5ffd5b505050506040513d601f19601f820116820180604052508101906104a09190610ffd565b156104be57604051637874e36360e01b815260040160405180910390fd5b83516020808601919091205f9081526001909152604090205460ff16156104e657505f6104f4565b6104f1848484610988565b90505b9392505050565b7ff0c57e16840df040f15088dc2f81fe391c3923bec73e23a9662efc9c229c6a008054600160401b810460ff16159067ffffffffffffffff165f811580156105405750825b90505f8267ffffffffffffffff16600114801561055c5750303b155b90508115801561056a575080155b156105885760405163f92ee8a960e01b815260040160405180910390fd5b845467ffffffffffffffff1916600117855583156105b257845460ff60401b1916600160401b1785555b6105bd8888886109bd565b831561060357845460ff60401b19168555604051600181527fc7f505b2f371ae2175ee4913f4499e1f2633a7b5936321eed1cdaeb6115181d29060200160405180910390a15b5050505050505050565b5f807f237e158222e3e6968b72b9db0d8043aacf074ad9f650f0d1606b4d82ee432c00610424565b604080516001600160a01b03841660208201529081018290525f9060600160408051601f198184030181528282528051602091820120908301520160405160208183030381529060405280519060200120905092915050565b610696610768565b7f237e158222e3e6968b72b9db0d8043aacf074ad9f650f0d1606b4d82ee432c0080546001600160a01b0319166001600160a01b03831690811782556106da610400565b6001600160a01b03167f38d16b8cac22d99fc7c124b9cd0de2d3fa1faef420bfe791d8c362d765e2270060405160405180910390a35050565b61071b610768565b5f80546001600160a01b0319166001600160a01b0383169081179091556040519081527f81c142d9a4b33dfaba82444370b6b077fc2cb507c30c41a7c967f695ed72651f9060200161035b565b33610771610400565b6001600160a01b0316146103b15760405163118cdaa760e01b81523360048201526024016103eb565b306001600160a01b037f000000000000000000000000000000000000000000000000000000000000000016148061082057507f00000000000000000000000000000000000000000000000000000000000000006001600160a01b03166108145f8051602061104f833981519152546001600160a01b031690565b6001600160a01b031614155b156103b15760405163703e46dd60e11b815260040160405180910390fd5b6103fd610768565b816001600160a01b03166352d1902d6040518163ffffffff1660e01b8152600401602060405180830381865afa9250505080156108a0575060408051601f3d908101601f1916820190925261089d9181019061101c565b60015b6108c857604051634c9c8ce360e01b81526001600160a01b03831660048201526024016103eb565b5f8051602061104f83398151915281146108f857604051632a87526960e21b8152600481018290526024016103eb565b6109028383610a11565b505050565b306001600160a01b037f000000000000000000000000000000000000000000000000000000000000000016146103b15760405163703e46dd60e11b815260040160405180910390fd5b7f237e158222e3e6968b72b9db0d8043aacf074ad9f650f0d1606b4d82ee432c0080546001600160a01b031916815561038182610a66565b5f806109948484610635565b90505f6109a18287610ad6565b50505f546001600160a01b039081169116149695505050505050565b6109db6001600160a01b038416156109d55783610950565b33610950565b6109e3610b1f565b5f80546001600160a01b039384166001600160a01b0319918216179091556002805492909316911617905550565b610a1a82610b27565b6040516001600160a01b038316907fbc7cd75a20ee27fd9adebab32041f755214dbc6bffa90cc0225b39da2e5c2d3b905f90a2805115610a5e576109028282610b8a565b610381610bfc565b7f9016d09d72d40fdae2fd8ceac6b6234c7706214fd39c1cd1e609a0528c19930080546001600160a01b031981166001600160a01b03848116918217845560405192169182907f8be0079c531659141344cd1fd0a4f28419497f9722a3daafe3b4186f6b6457e0905f90a3505050565b5f805f8351604103610b0d576020840151604085015160608601515f1a610aff88828585610c1b565b955095509550505050610b18565b505081515f91506002905b9250925092565b6103b1610ce3565b806001600160a01b03163b5f03610b5c57604051634c9c8ce360e01b81526001600160a01b03821660048201526024016103eb565b5f8051602061104f83398151915280546001600160a01b0319166001600160a01b0392909216919091179055565b60605f80846001600160a01b031684604051610ba69190611033565b5f60405180830381855af49150503d805f8114610bde576040519150601f19603f3d011682016040523d82523d5f602084013e610be3565b606091505b5091509150610bf3858383610d2c565b95945050505050565b34156103b15760405163b398979f60e01b815260040160405180910390fd5b5f80807f7fffffffffffffffffffffffffffffff5d576e7357a4501ddfe92f46681b20a0841115610c5457505f91506003905082610cd9565b604080515f808252602082018084528a905260ff891692820192909252606081018790526080810186905260019060a0016020604051602081039080840390855afa158015610ca5573d5f803e3d5ffd5b5050604051601f1901519150506001600160a01b038116610cd057505f925060019150829050610cd9565b92505f91508190505b9450945094915050565b7ff0c57e16840df040f15088dc2f81fe391c3923bec73e23a9662efc9c229c6a0054600160401b900460ff166103b157604051631afcd79f60e31b815260040160405180910390fd5b606082610d4157610d3c82610d88565b6104f4565b8151158015610d5857506001600160a01b0384163b155b15610d8157604051639996b31560e01b81526001600160a01b03851660048201526024016103eb565b50806104f4565b805115610d985780518082602001fd5b604051630a12f52160e11b815260040160405180910390fd5b6001600160a01b03811681146103fd575f80fd5b5f60208284031215610dd5575f80fd5b81356104f481610db1565b634e487b7160e01b5f52604160045260245ffd5b5f82601f830112610e03575f80fd5b813567ffffffffffffffff80821115610e1e57610e1e610de0565b604051601f8301601f19908116603f01168101908282118183101715610e4657610e46610de0565b81604052838152866020858801011115610e5e575f80fd5b836020870160208301375f602085830101528094505050505092915050565b5f8060408385031215610e8e575f80fd5b8235610e9981610db1565b9150602083013567ffffffffffffffff811115610eb4575f80fd5b610ec085828601610df4565b9150509250929050565b5f60208284031215610eda575f80fd5b5035919050565b5f5b83811015610efb578181015183820152602001610ee3565b50505f910152565b602081525f8251806020840152610f21816040850160208701610ee1565b601f01601f19169190910160400192915050565b5f805f60608486031215610f47575f80fd5b833567ffffffffffffffff811115610f5d575f80fd5b610f6986828701610df4565b9350506020840135610f7a81610db1565b929592945050506040919091013590565b5f805f60608486031215610f9d575f80fd5b8335610fa881610db1565b92506020840135610fb881610db1565b91506040840135610fc881610db1565b809150509250925092565b5f8060408385031215610fe4575f80fd5b8235610fef81610db1565b946020939093013593505050565b5f6020828403121561100d575f80fd5b815180151581146104f4575f80fd5b5f6020828403121561102c575f80fd5b5051919050565b5f8251611044818460208701610ee1565b919091019291505056fe360894a13ba1a3210667c828492db98dca3e2076cc3735a920a3ca505d382bbca26469706673582212204ec6ea966988806a75d01f0356ba158e8982e9dde3d8a561283ba9e862b902fc64736f6c63430008180033","linkReferences":{}},"methodIdentifiers":{"UPGRADE_INTERFACE_VERSION()":"ad3cb1cc","acceptOwnership()":"79ba5097","blacklist()":"a4b5fa56","canMint(bytes,address,uint256)":"b58c439e","getHash(address,uint256)":"ed05582b","initialize(address,address,address)":"c0c53b8b","mintSigner()":"f17af48d","minted(bytes32)":"8ccc5f80","owner()":"8da5cb5b","pendingOwner()":"e30c3978","proxiableUUID()":"52d1902d","renounceOwnership()":"715018a6","transferOwnership(address)":"f2fde38b","updateBlacklist(address)":"378b5704","updateMintSigner(address)":"f571049b","upgradeToAndCall(address,bytes)":"4f1ef286"},"storageLayout":{"storage":[{"astId":3275,"contract":"contracts/trailblazers-badges/ECDSAWhitelist.sol:ECDSAWhitelist","label":"mintSigner","offset":0,"slot":"0","type":"t_address"},{"astId":3280,"contract":"contracts/trailblazers-badges/ECDSAWhitelist.sol:ECDSAWhitelist","label":"minted","offset":0,"slot":"1","type":"t_mapping(t_bytes32,t_bool)"},{"astId":3284,"contract":"contracts/trailblazers-badges/ECDSAWhitelist.sol:ECDSAWhitelist","label":"blacklist","offset":0,"slot":"2","type":"t_contract(IMinimalBlacklist)19316"},{"astId":3289,"contract":"contracts/trailblazers-badges/ECDSAWhitelist.sol:ECDSAWhitelist","label":"__gap","offset":0,"slot":"3","type":"t_array(t_uint256)47_storage"}],"types":{"t_address":{"encoding":"inplace","label":"address","numberOfBytes":"20"},"t_array(t_uint256)47_storage":{"encoding":"inplace","label":"uint256[47]","numberOfBytes":"1504","base":"t_uint256"},"t_bool":{"encoding":"inplace","label":"bool","numberOfBytes":"1"},"t_bytes32":{"encoding":"inplace","label":"bytes32","numberOfBytes":"32"},"t_contract(IMinimalBlacklist)19316":{"encoding":"inplace","label":"contract IMinimalBlacklist","numberOfBytes":"20"},"t_mapping(t_bytes32,t_bool)":{"encoding":"mapping","key":"t_bytes32","label":"mapping(bytes32 => bool)","numberOfBytes":"32","value":"t_bool"},"t_uint256":{"encoding":"inplace","label":"uint256","numberOfBytes":"32"}}},"id":11}