{"abi":[{"type":"function","name":"BADGE_ANDROIDS","inputs":[],"outputs":[{"name":"","type":"uint256","internalType":"uint256"}],"stateMutability":"view"},{"type":"function","name":"BADGE_BOUNCERS","inputs":[],"outputs":[{"name":"","type":"uint256","internalType":"uint256"}],"stateMutability":"view"},{"type":"function","name":"BADGE_DRUMMERS","inputs":[],"outputs":[{"name":"","type":"uint256","internalType":"uint256"}],"stateMutability":"view"},{"type":"function","name":"BADGE_MASTERS","inputs":[],"outputs":[{"name":"","type":"uint256","internalType":"uint256"}],"stateMutability":"view"},{"type":"function","name":"BADGE_MONKS","inputs":[],"outputs":[{"name":"","type":"uint256","internalType":"uint256"}],"stateMutability":"view"},{"type":"function","name":"BADGE_RAVERS","inputs":[],"outputs":[{"name":"","type":"uint256","internalType":"uint256"}],"stateMutability":"view"},{"type":"function","name":"BADGE_ROBOTS","inputs":[],"outputs":[{"name":"","type":"uint256","internalType":"uint256"}],"stateMutability":"view"},{"type":"function","name":"BADGE_SHINTO","inputs":[],"outputs":[{"name":"","type":"uint256","internalType":"uint256"}],"stateMutability":"view"},{"type":"function","name":"MOVEMENT_BASED","inputs":[],"outputs":[{"name":"","type":"uint256","internalType":"uint256"}],"stateMutability":"view"},{"type":"function","name":"MOVEMENT_BOOSTED","inputs":[],"outputs":[{"name":"","type":"uint256","internalType":"uint256"}],"stateMutability":"view"},{"type":"function","name":"MOVEMENT_NEUTRAL","inputs":[],"outputs":[{"name":"","type":"uint256","internalType":"uint256"}],"stateMutability":"view"},{"type":"function","name":"UPGRADE_INTERFACE_VERSION","inputs":[],"outputs":[{"name":"","type":"string","internalType":"string"}],"stateMutability":"view"},{"type":"function","name":"acceptOwnership","inputs":[],"outputs":[],"stateMutability":"nonpayable"},{"type":"function","name":"approve","inputs":[{"name":"to","type":"address","internalType":"address"},{"name":"tokenId","type":"uint256","internalType":"uint256"}],"outputs":[],"stateMutability":"nonpayable"},{"type":"function","name":"badgeBalances","inputs":[{"name":"_owner","type":"address","internalType":"address"}],"outputs":[{"name":"","type":"bool[]","internalType":"bool[]"}],"stateMutability":"view"},{"type":"function","name":"badgeBalancesV2","inputs":[{"name":"_owner","type":"address","internalType":"address"}],"outputs":[{"name":"balances","type":"bool[]","internalType":"bool[]"}],"stateMutability":"view"},{"type":"function","name":"badges","inputs":[{"name":"_tokenId","type":"uint256","internalType":"uint256"}],"outputs":[{"name":"_badgeId","type":"uint256","internalType":"uint256"}],"stateMutability":"view"},{"type":"function","name":"balanceOf","inputs":[{"name":"owner","type":"address","internalType":"address"}],"outputs":[{"name":"","type":"uint256","internalType":"uint256"}],"stateMutability":"view"},{"type":"function","name":"baseURI","inputs":[],"outputs":[{"name":"","type":"string","internalType":"string"}],"stateMutability":"view"},{"type":"function","name":"blacklist","inputs":[],"outputs":[{"name":"","type":"address","internalType":"contract IMinimalBlacklist"}],"stateMutability":"view"},{"type":"function","name":"canMint","inputs":[{"name":"_signature","type":"bytes","internalType":"bytes"},{"name":"_minter","type":"address","internalType":"address"},{"name":"_tokenId","type":"uint256","internalType":"uint256"}],"outputs":[{"name":"","type":"bool","internalType":"bool"}],"stateMutability":"view"},{"type":"function","name":"getApproved","inputs":[{"name":"tokenId","type":"uint256","internalType":"uint256"}],"outputs":[{"name":"","type":"address","internalType":"address"}],"stateMutability":"view"},{"type":"function","name":"getHash","inputs":[{"name":"_minter","type":"address","internalType":"address"},{"name":"_tokenId","type":"uint256","internalType":"uint256"}],"outputs":[{"name":"","type":"bytes32","internalType":"bytes32"}],"stateMutability":"pure"},{"type":"function","name":"getTokenId","inputs":[{"name":"_user","type":"address","internalType":"address"},{"name":"_badgeId","type":"uint256","internalType":"uint256"}],"outputs":[{"name":"","type":"uint256","internalType":"uint256"}],"stateMutability":"view"},{"type":"function","name":"initialize","inputs":[{"name":"_owner","type":"address","internalType":"address"},{"name":"_rootURI","type":"string","internalType":"string"},{"name":"_mintSigner","type":"address","internalType":"address"},{"name":"_blacklistAddress","type":"address","internalType":"contract IMinimalBlacklist"}],"outputs":[],"stateMutability":"nonpayable"},{"type":"function","name":"initialize","inputs":[{"name":"_owner","type":"address","internalType":"address"},{"name":"_mintSigner","type":"address","internalType":"address"},{"name":"_blacklist","type":"address","internalType":"contract IMinimalBlacklist"}],"outputs":[],"stateMutability":"nonpayable"},{"type":"function","name":"isApprovedForAll","inputs":[{"name":"owner","type":"address","internalType":"address"},{"name":"operator","type":"address","internalType":"address"}],"outputs":[{"name":"","type":"bool","internalType":"bool"}],"stateMutability":"view"},{"type":"function","name":"mint","inputs":[{"name":"_signature","type":"bytes","internalType":"bytes"},{"name":"_badgeId","type":"uint256","internalType":"uint256"}],"outputs":[],"stateMutability":"nonpayable"},{"type":"function","name":"mint","inputs":[{"name":"_signature","type":"bytes","internalType":"bytes"},{"name":"_minter","type":"address","internalType":"address"},{"name":"_badgeId","type":"uint256","internalType":"uint256"}],"outputs":[],"stateMutability":"nonpayable"},{"type":"function","name":"mintSigner","inputs":[],"outputs":[{"name":"","type":"address","internalType":"address"}],"stateMutability":"view"},{"type":"function","name":"minted","inputs":[{"name":"signatureHash","type":"bytes32","internalType":"bytes32"}],"outputs":[{"name":"hasMinted","type":"bool","internalType":"bool"}],"stateMutability":"view"},{"type":"function","name":"movementBadges","inputs":[{"name":"movementBadgeHash","type":"bytes32","internalType":"bytes32"},{"name":"","type":"uint256","internalType":"uint256"}],"outputs":[{"name":"movementBadge","type":"uint256","internalType":"uint256"}],"stateMutability":"view"},{"type":"function","name":"movements","inputs":[{"name":"_user","type":"address","internalType":"address"}],"outputs":[{"name":"_movement","type":"uint256","internalType":"uint256"}],"stateMutability":"view"},{"type":"function","name":"name","inputs":[],"outputs":[{"name":"","type":"string","internalType":"string"}],"stateMutability":"view"},{"type":"function","name":"owner","inputs":[],"outputs":[{"name":"","type":"address","internalType":"address"}],"stateMutability":"view"},{"type":"function","name":"ownerOf","inputs":[{"name":"tokenId","type":"uint256","internalType":"uint256"}],"outputs":[{"name":"","type":"address","internalType":"address"}],"stateMutability":"view"},{"type":"function","name":"pendingOwner","inputs":[],"outputs":[{"name":"","type":"address","internalType":"address"}],"stateMutability":"view"},{"type":"function","name":"proxiableUUID","inputs":[],"outputs":[{"name":"","type":"bytes32","internalType":"bytes32"}],"stateMutability":"view"},{"type":"function","name":"renounceOwnership","inputs":[],"outputs":[],"stateMutability":"nonpayable"},{"type":"function","name":"safeTransferFrom","inputs":[{"name":"from","type":"address","internalType":"address"},{"name":"to","type":"address","internalType":"address"},{"name":"tokenId","type":"uint256","internalType":"uint256"}],"outputs":[],"stateMutability":"nonpayable"},{"type":"function","name":"safeTransferFrom","inputs":[{"name":"from","type":"address","internalType":"address"},{"name":"to","type":"address","internalType":"address"},{"name":"tokenId","type":"uint256","internalType":"uint256"},{"name":"data","type":"bytes","internalType":"bytes"}],"outputs":[],"stateMutability":"nonpayable"},{"type":"function","name":"setApprovalForAll","inputs":[{"name":"operator","type":"address","internalType":"address"},{"name":"approved","type":"bool","internalType":"bool"}],"outputs":[],"stateMutability":"nonpayable"},{"type":"function","name":"setMovement","inputs":[{"name":"_movementId","type":"uint256","internalType":"uint256"}],"outputs":[],"stateMutability":"nonpayable"},{"type":"function","name":"setMovement","inputs":[{"name":"_user","type":"address","internalType":"address"},{"name":"_movementId","type":"uint256","internalType":"uint256"}],"outputs":[],"stateMutability":"nonpayable"},{"type":"function","name":"setUri","inputs":[{"name":"_uri","type":"string","internalType":"string"}],"outputs":[],"stateMutability":"nonpayable"},{"type":"function","name":"supportsInterface","inputs":[{"name":"interfaceId","type":"bytes4","internalType":"bytes4"}],"outputs":[{"name":"","type":"bool","internalType":"bool"}],"stateMutability":"view"},{"type":"function","name":"symbol","inputs":[],"outputs":[{"name":"","type":"string","internalType":"string"}],"stateMutability":"view"},{"type":"function","name":"tokenByIndex","inputs":[{"name":"index","type":"uint256","internalType":"uint256"}],"outputs":[{"name":"","type":"uint256","internalType":"uint256"}],"stateMutability":"view"},{"type":"function","name":"tokenOfOwnerByIndex","inputs":[{"name":"owner","type":"address","internalType":"address"},{"name":"index","type":"uint256","internalType":"uint256"}],"outputs":[{"name":"","type":"uint256","internalType":"uint256"}],"stateMutability":"view"},{"type":"function","name":"tokenURI","inputs":[{"name":"_tokenId","type":"uint256","internalType":"uint256"}],"outputs":[{"name":"","type":"string","internalType":"string"}],"stateMutability":"view"},{"type":"function","name":"totalBadgeSupply","inputs":[],"outputs":[{"name":"balances","type":"uint256[]","internalType":"uint256[]"}],"stateMutability":"view"},{"type":"function","name":"totalSupply","inputs":[],"outputs":[{"name":"","type":"uint256","internalType":"uint256"}],"stateMutability":"view"},{"type":"function","name":"transferFrom","inputs":[{"name":"from","type":"address","internalType":"address"},{"name":"to","type":"address","internalType":"address"},{"name":"tokenId","type":"uint256","internalType":"uint256"}],"outputs":[],"stateMutability":"nonpayable"},{"type":"function","name":"transferOwnership","inputs":[{"name":"newOwner","type":"address","internalType":"address"}],"outputs":[],"stateMutability":"nonpayable"},{"type":"function","name":"updateBlacklist","inputs":[{"name":"_blacklist","type":"address","internalType":"contract IMinimalBlacklist"}],"outputs":[],"stateMutability":"nonpayable"},{"type":"function","name":"updateMintSigner","inputs":[{"name":"_mintSigner","type":"address","internalType":"address"}],"outputs":[],"stateMutability":"nonpayable"},{"type":"function","name":"upgradeToAndCall","inputs":[{"name":"newImplementation","type":"address","internalType":"address"},{"name":"data","type":"bytes","internalType":"bytes"}],"outputs":[],"stateMutability":"payable"},{"type":"function","name":"userBadges","inputs":[{"name":"_user","type":"address","internalType":"address"},{"name":"_badgeId","type":"uint256","internalType":"uint256"}],"outputs":[{"name":"_tokenId","type":"uint256","internalType":"uint256"}],"stateMutability":"view"},{"type":"function","name":"version","inputs":[],"outputs":[{"name":"","type":"string","internalType":"string"}],"stateMutability":"pure"},{"type":"event","name":"Approval","inputs":[{"name":"owner","type":"address","indexed":true,"internalType":"address"},{"name":"approved","type":"address","indexed":true,"internalType":"address"},{"name":"tokenId","type":"uint256","indexed":true,"internalType":"uint256"}],"anonymous":false},{"type":"event","name":"ApprovalForAll","inputs":[{"name":"owner","type":"address","indexed":true,"internalType":"address"},{"name":"operator","type":"address","indexed":true,"internalType":"address"},{"name":"approved","type":"bool","indexed":false,"internalType":"bool"}],"anonymous":false},{"type":"event","name":"BadgeCreated","inputs":[{"name":"_tokenId","type":"uint256","indexed":false,"internalType":"uint256"},{"name":"_minter","type":"address","indexed":false,"internalType":"address"},{"name":"_badgeId","type":"uint256","indexed":false,"internalType":"uint256"}],"anonymous":false},{"type":"event","name":"BlacklistUpdated","inputs":[{"name":"_blacklist","type":"address","indexed":false,"internalType":"address"}],"anonymous":false},{"type":"event","name":"Initialized","inputs":[{"name":"version","type":"uint64","indexed":false,"internalType":"uint64"}],"anonymous":false},{"type":"event","name":"MintConsumed","inputs":[{"name":"_minter","type":"address","indexed":false,"internalType":"address"},{"name":"_tokenId","type":"uint256","indexed":false,"internalType":"uint256"}],"anonymous":false},{"type":"event","name":"MintSignerUpdated","inputs":[{"name":"_mintSigner","type":"address","indexed":false,"internalType":"address"}],"anonymous":false},{"type":"event","name":"MovementSet","inputs":[{"name":"_user","type":"address","indexed":false,"internalType":"address"},{"name":"_movementId","type":"uint256","indexed":false,"internalType":"uint256"}],"anonymous":false},{"type":"event","name":"OwnershipTransferStarted","inputs":[{"name":"previousOwner","type":"address","indexed":true,"internalType":"address"},{"name":"newOwner","type":"address","indexed":true,"internalType":"address"}],"anonymous":false},{"type":"event","name":"OwnershipTransferred","inputs":[{"name":"previousOwner","type":"address","indexed":true,"internalType":"address"},{"name":"newOwner","type":"address","indexed":true,"internalType":"address"}],"anonymous":false},{"type":"event","name":"Transfer","inputs":[{"name":"from","type":"address","indexed":true,"internalType":"address"},{"name":"to","type":"address","indexed":true,"internalType":"address"},{"name":"tokenId","type":"uint256","indexed":true,"internalType":"uint256"}],"anonymous":false},{"type":"event","name":"Upgraded","inputs":[{"name":"implementation","type":"address","indexed":true,"internalType":"address"}],"anonymous":false},{"type":"event","name":"UriSet","inputs":[{"name":"_uri","type":"string","indexed":false,"internalType":"string"}],"anonymous":false},{"type":"error","name":"ADDRESS_BLACKLISTED","inputs":[]},{"type":"error","name":"AddressEmptyCode","inputs":[{"name":"target","type":"address","internalType":"address"}]},{"type":"error","name":"ERC1967InvalidImplementation","inputs":[{"name":"implementation","type":"address","internalType":"address"}]},{"type":"error","name":"ERC1967NonPayable","inputs":[]},{"type":"error","name":"ERC721EnumerableForbiddenBatchMint","inputs":[]},{"type":"error","name":"ERC721IncorrectOwner","inputs":[{"name":"sender","type":"address","internalType":"address"},{"name":"tokenId","type":"uint256","internalType":"uint256"},{"name":"owner","type":"address","internalType":"address"}]},{"type":"error","name":"ERC721InsufficientApproval","inputs":[{"name":"operator","type":"address","internalType":"address"},{"name":"tokenId","type":"uint256","internalType":"uint256"}]},{"type":"error","name":"ERC721InvalidApprover","inputs":[{"name":"approver","type":"address","internalType":"address"}]},{"type":"error","name":"ERC721InvalidOperator","inputs":[{"name":"operator","type":"address","internalType":"address"}]},{"type":"error","name":"ERC721InvalidOwner","inputs":[{"name":"owner","type":"address","internalType":"address"}]},{"type":"error","name":"ERC721InvalidReceiver","inputs":[{"name":"receiver","type":"address","internalType":"address"}]},{"type":"error","name":"ERC721InvalidSender","inputs":[{"name":"sender","type":"address","internalType":"address"}]},{"type":"error","name":"ERC721NonexistentToken","inputs":[{"name":"tokenId","type":"uint256","internalType":"uint256"}]},{"type":"error","name":"ERC721OutOfBoundsIndex","inputs":[{"name":"owner","type":"address","internalType":"address"},{"name":"index","type":"uint256","internalType":"uint256"}]},{"type":"error","name":"FailedInnerCall","inputs":[]},{"type":"error","name":"INVALID_BADGE_ID","inputs":[]},{"type":"error","name":"INVALID_INPUT","inputs":[]},{"type":"error","name":"INVALID_MOVEMENT_ID","inputs":[]},{"type":"error","name":"InvalidInitialization","inputs":[]},{"type":"error","name":"MINTER_NOT_WHITELISTED","inputs":[]},{"type":"error","name":"MINTS_EXCEEDED","inputs":[]},{"type":"error","name":"NotInitializing","inputs":[]},{"type":"error","name":"ONLY_MINT_SIGNER","inputs":[]},{"type":"error","name":"OwnableInvalidOwner","inputs":[{"name":"owner","type":"address","internalType":"address"}]},{"type":"error","name":"OwnableUnauthorizedAccount","inputs":[{"name":"account","type":"address","internalType":"address"}]},{"type":"error","name":"UUPSUnauthorizedCallContext","inputs":[]},{"type":"error","name":"UUPSUnsupportedProxiableUUID","inputs":[{"name":"slot","type":"bytes32","internalType":"bytes32"}]}],"bytecode":{"object":"0x60a06040523060805234801562000014575f80fd5b506200001f62000025565b620000d9565b7ff0c57e16840df040f15088dc2f81fe391c3923bec73e23a9662efc9c229c6a00805468010000000000000000900460ff1615620000765760405163f92ee8a960e01b815260040160405180910390fd5b80546001600160401b0390811614620000d65780546001600160401b0319166001600160401b0390811782556040519081527fc7f505b2f371ae2175ee4913f4499e1f2633a7b5936321eed1cdaeb6115181d29060200160405180910390a15b50565b608051613538620001005f395f8181611ba301528181611bcc0152611d0b01526135385ff3fe60806040526004361061037b575f3560e01c80638ccc5f80116101d3578063b8f88d64116100fd578063e30c39781161009d578063f2fde38b1161006d578063f2fde38b146109c1578063f571049b146109e0578063f7da8ce3146109ff578063ff2c26ec14610a1e575f80fd5b8063e30c397814610951578063e985e9c514610965578063ed05582b14610984578063f17af48d146109a3575f80fd5b8063ca0259c0116100d8578063ca0259c0146108e7578063d5def7c214610908578063d944061e14610908578063df91cc231461091b575f80fd5b8063b8f88d641461088a578063c0c53b8b146108a9578063c87b56dd146108c8575f80fd5b8063a22cb46511610173578063b378b44811610143578063b378b44814610838578063b4e7409f14610783578063b58c439e1461084c578063b88d4fde1461086b575f80fd5b8063a22cb465146107b6578063a4b5fa56146107d5578063a7fb03ab146107f4578063ad3cb1cc14610808575f80fd5b806398e36d8b116101ae57806398e36d8b1461075857806398ef238a146107835780639b642de1146107975780639cc281641461046d575f80fd5b80638ccc5f80146107025780638da5cb5b1461073057806395d89b4114610744575f80fd5b8063378b5704116102b45780635c6f8ca31161025457806370a082311161022457806370a08231146106a7578063715018a6146106c657806375b9c015146106da57806379ba5097146106ee575f80fd5b80635c6f8ca31461061d5780636352211e146106495780636c0360eb14610668578063700b1acd1461067c575f80fd5b80634f1ef2861161028f5780634f1ef286146105ad5780634f6ccce7146105c057806352d1902d146105df57806354fd4d50146105f3575f80fd5b8063378b57041461055b57806342842e0e1461057a5780634808b10914610599575f80fd5b806318160ddd1161031f57806329f99b9f116102fa57806329f99b9f146104df5780632f19062f146104fe5780632f745c591461051d5780633136964c1461053c575f80fd5b806318160ddd146104815780631fcfe19c146104a157806323b872dd146104c0575f80fd5b8063081812fc1161035a578063081812fc146103f5578063095ea7b31461042c5780630e0c8b0a1461044b5780630f5f04bf1461046d575f80fd5b80622576121461037f57806301ffc9a7146103a057806306fdde03146103d4575b5f80fd5b34801561038a575f80fd5b5061039e610399366004612cee565b610a3d565b005b3480156103ab575f80fd5b506103bf6103ba366004612d44565b610a4c565b60405190151581526020015b60405180910390f35b3480156103df575f80fd5b506103e8610a76565b6040516103cb9190612dac565b348015610400575f80fd5b5061041461040f366004612dbe565b610b17565b6040516001600160a01b0390911681526020016103cb565b348015610437575f80fd5b5061039e610446366004612de9565b610b2b565b348015610456575f80fd5b5061045f600681565b6040519081526020016103cb565b348015610478575f80fd5b5061045f600181565b34801561048c575f80fd5b505f805160206134e38339815191525461045f565b3480156104ac575f80fd5b5061039e6104bb366004612e13565b610b36565b3480156104cb575f80fd5b5061039e6104da366004612e68565b610b4e565b3480156104ea575f80fd5b5061045f6104f9366004612de9565b610bdc565b348015610509575f80fd5b5061039e610518366004612dbe565b610c03565b348015610528575f80fd5b5061045f610537366004612de9565b610c10565b348015610547575f80fd5b5061045f610556366004612e95565b610c81565b348015610566575f80fd5b5061039e610575366004612eb5565b610ca3565b348015610585575f80fd5b5061039e610594366004612e68565b610d00565b3480156105a4575f80fd5b5061045f600781565b61039e6105bb366004612ed0565b610d1a565b3480156105cb575f80fd5b5061045f6105da366004612dbe565b610d35565b3480156105ea575f80fd5b5061045f610da7565b3480156105fe575f80fd5b50604080518082019091526002815261563360f01b60208201526103e8565b348015610628575f80fd5b5061063c610637366004612eb5565b610dc2565b6040516103cb9190612f1c565b348015610654575f80fd5b50610414610663366004612dbe565b610f76565b348015610673575f80fd5b506103e8610f80565b348015610687575f80fd5b5061045f610696366004612eb5565b60346020525f908152604090205481565b3480156106b2575f80fd5b5061045f6106c1366004612eb5565b611010565b3480156106d1575f80fd5b5061039e611068565b3480156106e5575f80fd5b5061045f600581565b3480156106f9575f80fd5b5061039e61107b565b34801561070d575f80fd5b506103bf61071c366004612dbe565b60016020525f908152604090205460ff1681565b34801561073b575f80fd5b506104146110c0565b34801561074f575f80fd5b506103e86110f4565b348015610763575f80fd5b5061045f610772366004612dbe565b60336020525f908152604090205481565b34801561078e575f80fd5b5061045f600281565b3480156107a2575f80fd5b5061039e6107b1366004612f61565b611132565b3480156107c1575f80fd5b5061039e6107d0366004612fa7565b611176565b3480156107e0575f80fd5b50600254610414906001600160a01b031681565b3480156107ff575f80fd5b5061045f600481565b348015610813575f80fd5b506103e8604051806040016040528060058152602001640352e302e360dc1b81525081565b348015610843575f80fd5b5061045f600381565b348015610857575f80fd5b506103bf610866366004612e13565b611181565b348015610876575f80fd5b5061039e610885366004612fde565b611248565b348015610895575f80fd5b5061039e6108a4366004613045565b61125f565b3480156108b4575f80fd5b5061039e6108c33660046130b5565b6113cd565b3480156108d3575f80fd5b506103e86108e2366004612dbe565b6114dd565b3480156108f2575f80fd5b506108fb611555565b6040516103cb91906130fd565b348015610913575f80fd5b5061045f5f81565b348015610926575f80fd5b5061045f610935366004612de9565b603560209081525f928352604080842090915290825290205481565b34801561095c575f80fd5b506104146115ef565b348015610970575f80fd5b506103bf61097f366004613134565b611617565b34801561098f575f80fd5b5061045f61099e366004612de9565b611663565b3480156109ae575f80fd5b505f54610414906001600160a01b031681565b3480156109cc575f80fd5b5061039e6109db366004612eb5565b6116bc565b3480156109eb575f80fd5b5061039e6109fa366004612eb5565b611741565b348015610a0a575f80fd5b5061063c610a19366004612eb5565b611796565b348015610a29575f80fd5b5061039e610a38366004612de9565b6118b3565b610a488233836118c5565b5050565b5f6001600160e01b0319821663780e9d6360e01b1480610a705750610a708261197e565b92915050565b5f805160206134a38339815191528054606091908190610a9590613160565b80601f0160208091040260200160405190810160405280929190818152602001828054610ac190613160565b8015610b0c5780601f10610ae357610100808354040283529160200191610b0c565b820191905f5260205f20905b815481529060010190602001808311610aef57829003601f168201915b505050505091505090565b5f610b21826119cd565b50610a7082611a04565b610a48828233611a3d565b610b3e611a4a565b610b498383836118c5565b505050565b6001600160a01b038216610b7c57604051633250574960e11b81525f60048201526024015b60405180910390fd5b5f610b88838333611a7c565b9050836001600160a01b0316816001600160a01b031614610bd6576040516364283d7b60e01b81526001600160a01b0380861660048301526024820184905282166044820152606401610b73565b50505050565b6001600160a01b03919091165f908152603560209081526040808320938352929052205490565b610c0d3382611b1f565b50565b5f5f80516020613483833981519152610c2884611010565b8310610c595760405163295f44f760e21b81526001600160a01b038516600482015260248101849052604401610b73565b6001600160a01b0384165f908152602091825260408082208583529092522054905092915050565b6036602052815f5260405f208160028110610c9a575f80fd5b01549150829050565b610cab611a4a565b600280546001600160a01b0319166001600160a01b0383169081179091556040519081527f75cdf6842d867a09260947ac775619527788d913a79fc3b41da1815fa377af65906020015b60405180910390a150565b610b4983838360405180602001604052805f815250611248565b610d22611b98565b610d2b82611c3c565b610a488282611c44565b5f5f80516020613483833981519152610d595f805160206134e38339815191525490565b8310610d815760405163295f44f760e21b81525f600482015260248101849052604401610b73565b806002018381548110610d9657610d96613198565b905f5260205f200154915050919050565b5f610db0611d00565b505f805160206134c383398151915290565b60408051600880825261012082019092526060915f91906020820161010080368337019050509050610df4835f610bdc565b5f1415815f81518110610e0957610e09613198565b91151560209283029190910190910152610e24836001610bdc565b5f141581600181518110610e3a57610e3a613198565b91151560209283029190910190910152610e55836002610bdc565b5f141581600281518110610e6b57610e6b613198565b91151560209283029190910190910152610e86836003610bdc565b5f141581600381518110610e9c57610e9c613198565b91151560209283029190910190910152610eb7836004610bdc565b5f141581600481518110610ecd57610ecd613198565b91151560209283029190910190910152610ee8836005610bdc565b5f141581600581518110610efe57610efe613198565b91151560209283029190910190910152610f19836006610bdc565b5f141581600681518110610f2f57610f2f613198565b91151560209283029190910190910152610f4a836007610bdc565b5f141581600781518110610f6057610f60613198565b9115156020928302919091019091015292915050565b5f610a70826119cd565b606060328054610f8f90613160565b80601f0160208091040260200160405190810160405280929190818152602001828054610fbb90613160565b80156110065780601f10610fdd57610100808354040283529160200191611006565b820191905f5260205f20905b815481529060010190602001808311610fe957829003601f168201915b5050505050905090565b5f5f805160206134a38339815191526001600160a01b038316611048576040516322718ad960e21b81525f6004820152602401610b73565b6001600160a01b039092165f908152600390920160205250604090205490565b611070611a4a565b6110795f611d49565b565b33806110856115ef565b6001600160a01b0316146110b75760405163118cdaa760e01b81526001600160a01b0382166004820152602401610b73565b610c0d81611d49565b5f807f9016d09d72d40fdae2fd8ceac6b6234c7706214fd39c1cd1e609a0528c1993005b546001600160a01b031692915050565b7f80bb2b638cc20bc4d0a60d66940f3ab4a00c1d7b313497ca82fb0b4ab007930180546060915f805160206134a383398151915291610a9590613160565b61113a611a4a565b603261114682826131f0565b507fd09d05534067f74dbc9e6af794edbd29e904d7698e428d0bc1378e45889acdd781604051610cf59190612dac565b610a48338383611d81565b60025460405163fe575a8760e01b81526001600160a01b0384811660048301525f92169063fe575a8790602401602060405180830381865afa1580156111c9573d5f803e3d5ffd5b505050506040513d601f19601f820116820180604052508101906111ed91906132af565b1561120b57604051637874e36360e01b815260040160405180910390fd5b83516020808601919091205f9081526001909152604090205460ff161561123357505f611241565b61123e848484611e30565b90505b9392505050565b611253848484610b4e565b610bd684848484611e65565b7ff0c57e16840df040f15088dc2f81fe391c3923bec73e23a9662efc9c229c6a008054600160401b810460ff1615906001600160401b03165f811580156112a35750825b90505f826001600160401b031660011480156112be5750303b155b9050811580156112cc575080155b156112ea5760405163f92ee8a960e01b815260040160405180910390fd5b845467ffffffffffffffff19166001178555831561131457845460ff60401b1916600160401b1785555b61136460405180604001604052806013815260200172547261696c626c617a6572732042616467657360681b815250604051806040016040528060038152602001622a212160e91b815250611f8b565b603261137089826131f0565b5061137c898888611f9d565b83156113c257845460ff60401b19168555604051600181527fc7f505b2f371ae2175ee4913f4499e1f2633a7b5936321eed1cdaeb6115181d29060200160405180910390a15b505050505050505050565b7ff0c57e16840df040f15088dc2f81fe391c3923bec73e23a9662efc9c229c6a008054600160401b810460ff1615906001600160401b03165f811580156114115750825b90505f826001600160401b0316600114801561142c5750303b155b90508115801561143a575080155b156114585760405163f92ee8a960e01b815260040160405180910390fd5b845467ffffffffffffffff19166001178555831561148257845460ff60401b1916600160401b1785555b61148d888888611f9d565b83156114d357845460ff60401b19168555604051600181527fc7f505b2f371ae2175ee4913f4499e1f2633a7b5936321eed1cdaeb6115181d29060200160405180910390a15b5050505050505050565b60605f60345f6114ec85610f76565b6001600160a01b0316815260208082019290925260409081015f9081205486825260339093522054909150603261152283611ff1565b61152b83611ff1565b60405160200161153d939291906132e5565b60405160208183030381529060405292505050919050565b60605f61156d5f805160206134e38339815191525490565b6040805160088082526101208201909252919250602082016101008036833701905050915060015b8181116115ea575f8181526033602052604090205483518490829081106115be576115be613198565b6020026020010180518091906115d3906133a7565b9052508190506115e2816133a7565b915050611595565b505090565b5f807f237e158222e3e6968b72b9db0d8043aacf074ad9f650f0d1606b4d82ee432c006110e4565b6001600160a01b039182165f9081527f80bb2b638cc20bc4d0a60d66940f3ab4a00c1d7b313497ca82fb0b4ab00793056020908152604080832093909416825291909152205460ff1690565b604080516001600160a01b03841660208201529081018290525f9060600160408051601f198184030181528282528051602091820120908301520160405160208183030381529060405280519060200120905092915050565b6116c4611a4a565b7f237e158222e3e6968b72b9db0d8043aacf074ad9f650f0d1606b4d82ee432c0080546001600160a01b0319166001600160a01b03831690811782556117086110c0565b6001600160a01b03167f38d16b8cac22d99fc7c124b9cd0de2d3fa1faef420bfe791d8c362d765e2270060405160405180910390a35050565b611749611a4a565b5f80546001600160a01b0319166001600160a01b0383169081179091556040519081527f81c142d9a4b33dfaba82444370b6b077fc2cb507c30c41a7c967f695ed72651f90602001610cf5565b60605f6117a283611010565b90505f816001600160401b038111156117bd576117bd612c52565b6040519080825280602002602001820160405280156117e6578160200160208202803683370190505b5090505f5b82811015611822576117fd8582610c10565b82828151811061180f5761180f613198565b60209081029190910101526001016117eb565b5060408051600880825261012082019092529060208201610100803683370190505092505f5b828110156118ab575f60335f84848151811061186657611866613198565b602002602001015181526020019081526020015f20549050600185828151811061189257611892613198565b9115156020928302919091019091015250600101611848565b505050919050565b6118bb611a4a565b610a488282611b1f565b60078111156118e757604051635557cd3560e11b815260040160405180910390fd5b6118f2838383612080565b5f6119085f805160206134e38339815191525490565b6119139060016133bf565b5f818152603360205260409020839055905061192f8382612111565b604080518281526001600160a01b03851660208201529081018390527f73ec18fe90e8b3de52d7e88ff3108708ed0e9714e5327b038c182b64cedaae709060600160405180910390a150505050565b5f6001600160e01b031982166380ac58cd60e01b14806119ae57506001600160e01b03198216635b5e139f60e01b145b80610a7057506301ffc9a760e01b6001600160e01b0319831614610a70565b5f806119d883612172565b90506001600160a01b038116610a7057604051637e27328960e01b815260048101849052602401610b73565b5f9081527f80bb2b638cc20bc4d0a60d66940f3ab4a00c1d7b313497ca82fb0b4ab007930460205260409020546001600160a01b031690565b610b4983838360016121ab565b33611a536110c0565b6001600160a01b0316146110795760405163118cdaa760e01b8152336004820152602401610b73565b6002545f906001600160a01b031663fe575a87336040516001600160e01b031960e084901b1681526001600160a01b039091166004820152602401602060405180830381865afa158015611ad2573d5f803e3d5ffd5b505050506040513d601f19601f82011682018060405250810190611af691906132af565b15611b1457604051637874e36360e01b815260040160405180910390fd5b61123e8484846122be565b6002811115611b4157604051632c4d11b760e11b815260040160405180910390fd5b6001600160a01b0382165f81815260346020908152604091829020849055815192835282018390527fc8f3ae17becdf8c098ef081092d0420324d1318397bd7ac8e90d900c56a50a76910160405180910390a15050565b306001600160a01b037f0000000000000000000000000000000000000000000000000000000000000000161480611c1e57507f00000000000000000000000000000000000000000000000000000000000000006001600160a01b0316611c125f805160206134c3833981519152546001600160a01b031690565b6001600160a01b031614155b156110795760405163703e46dd60e11b815260040160405180910390fd5b610c0d611a4a565b816001600160a01b03166352d1902d6040518163ffffffff1660e01b8152600401602060405180830381865afa925050508015611c9e575060408051601f3d908101601f19168201909252611c9b918101906133d2565b60015b611cc657604051634c9c8ce360e01b81526001600160a01b0383166004820152602401610b73565b5f805160206134c38339815191528114611cf657604051632a87526960e21b815260048101829052602401610b73565b610b498383612327565b306001600160a01b037f000000000000000000000000000000000000000000000000000000000000000016146110795760405163703e46dd60e11b815260040160405180910390fd5b7f237e158222e3e6968b72b9db0d8043aacf074ad9f650f0d1606b4d82ee432c0080546001600160a01b0319168155610a488261237c565b5f805160206134a38339815191526001600160a01b038316611dc157604051630b61174360e31b81526001600160a01b0384166004820152602401610b73565b6001600160a01b038481165f818152600584016020908152604080832094881680845294825291829020805460ff191687151590811790915591519182527f17307eab39ab6107e8899845ad3d59bd9653f200f220920489ca2b5937696c31910160405180910390a350505050565b5f80611e3c8484611663565b90505f611e4982876123ec565b50505f546001600160a01b039081169116149695505050505050565b6001600160a01b0383163b15610bd657604051630a85bd0160e11b81526001600160a01b0384169063150b7a0290611ea79033908890879087906004016133e9565b6020604051808303815f875af1925050508015611ee1575060408051601f3d908101601f19168201909252611ede91810190613425565b60015b611f48573d808015611f0e576040519150601f19603f3d011682016040523d82523d5f602084013e611f13565b606091505b5080515f03611f4057604051633250574960e11b81526001600160a01b0385166004820152602401610b73565b805181602001fd5b6001600160e01b03198116630a85bd0160e11b14611f8457604051633250574960e11b81526001600160a01b0385166004820152602401610b73565b5050505050565b611f93612435565b610a48828261247e565b611fbb6001600160a01b03841615611fb55783611d49565b33611d49565b611fc36124ae565b5f80546001600160a01b039384166001600160a01b0319918216179091556002805492909316911617905550565b60605f611ffd836124b6565b60010190505f816001600160401b0381111561201b5761201b612c52565b6040519080825280601f01601f191660200182016040528015612045576020820181803683370190505b5090508181016020015b5f19016f181899199a1a9b1b9c1cb0b131b232b360811b600a86061a8153600a850494508461204f57509392505050565b61208b838383611181565b6120a857604051639ea134e960e01b815260040160405180910390fd5b82516020808501919091205f9081526001808352604091829020805460ff1916909117905580516001600160a01b03851681529182018390527ff71d0afb6ca23454b34db8bf7baf45f79e8c2f41e5499375ea2289312b2d317b910160405180910390a1505050565b6001600160a01b03821661213a57604051633250574960e11b81525f6004820152602401610b73565b5f61214683835f611a7c565b90506001600160a01b03811615610b49576040516339e3563760e11b81525f6004820152602401610b73565b5f9081527f80bb2b638cc20bc4d0a60d66940f3ab4a00c1d7b313497ca82fb0b4ab007930260205260409020546001600160a01b031690565b5f805160206134a383398151915281806121cd57506001600160a01b03831615155b1561228e575f6121dc856119cd565b90506001600160a01b038416158015906122085750836001600160a01b0316816001600160a01b031614155b801561221b57506122198185611617565b155b156122445760405163a9fbf51f60e01b81526001600160a01b0385166004820152602401610b73565b821561228c5784866001600160a01b0316826001600160a01b03167f8c5be1e5ebec7d5bd14f71427d1e84f3dd0314c0f7b2291e5b200ac8c7c3b92560405160405180910390a45b505b5f93845260040160205250506040902080546001600160a01b0319166001600160a01b0392909216919091179055565b5f8060355f6122cc86612172565b6001600160a01b03908116825260208083019390935260409182015f9081208882526033855283822080548352908552838220959095559088168152603583528181209354815292909152902083905561123e84848461258d565b61233082612683565b6040516001600160a01b038316907fbc7cd75a20ee27fd9adebab32041f755214dbc6bffa90cc0225b39da2e5c2d3b905f90a280511561237457610b4982826126e6565b610a48612758565b7f9016d09d72d40fdae2fd8ceac6b6234c7706214fd39c1cd1e609a0528c19930080546001600160a01b031981166001600160a01b03848116918217845560405192169182907f8be0079c531659141344cd1fd0a4f28419497f9722a3daafe3b4186f6b6457e0905f90a3505050565b5f805f8351604103612423576020840151604085015160608601515f1a61241588828585612777565b95509550955050505061242e565b505081515f91506002905b9250925092565b7ff0c57e16840df040f15088dc2f81fe391c3923bec73e23a9662efc9c229c6a0054600160401b900460ff1661107957604051631afcd79f60e31b815260040160405180910390fd5b612486612435565b5f805160206134a38339815191528061249f84826131f0565b5060018101610bd683826131f0565b611079612435565b5f8072184f03e93ff9f4daa797ed6e38ed64bf6a1f0160401b83106124f45772184f03e93ff9f4daa797ed6e38ed64bf6a1f0160401b830492506040015b6d04ee2d6d415b85acef81000000008310612520576d04ee2d6d415b85acef8100000000830492506020015b662386f26fc10000831061253e57662386f26fc10000830492506010015b6305f5e1008310612556576305f5e100830492506008015b612710831061256a57612710830492506004015b6064831061257c576064830492506002015b600a8310610a705760010192915050565b5f8061259a85858561283f565b90506001600160a01b0381166126215761261c845f805160206134e383398151915280545f8381527f645e039705490088daad89bae25049a34f4a9072d398537b1ab2425f24cbed0360205260408120829055600182018355919091527fa42f15e5d656f8155fd7419d740a6073999f19cd6e061449ce4a257150545bf20155565b612644565b846001600160a01b0316816001600160a01b031614612644576126448185612941565b6001600160a01b0385166126605761265b846129e0565b61123e565b846001600160a01b0316816001600160a01b03161461123e5761123e8585612aad565b806001600160a01b03163b5f036126b857604051634c9c8ce360e01b81526001600160a01b0382166004820152602401610b73565b5f805160206134c383398151915280546001600160a01b0319166001600160a01b0392909216919091179055565b60605f80846001600160a01b0316846040516127029190613440565b5f60405180830381855af49150503d805f811461273a576040519150601f19603f3d011682016040523d82523d5f602084013e61273f565b606091505b509150915061274f858383612b05565b95945050505050565b34156110795760405163b398979f60e01b815260040160405180910390fd5b5f80807f7fffffffffffffffffffffffffffffff5d576e7357a4501ddfe92f46681b20a08411156127b057505f91506003905082612835565b604080515f808252602082018084528a905260ff891692820192909252606081018790526080810186905260019060a0016020604051602081039080840390855afa158015612801573d5f803e3d5ffd5b5050604051601f1901519150506001600160a01b03811661282c57505f925060019150829050612835565b92505f91508190505b9450945094915050565b5f5f805160206134a38339815191528161285885612172565b90506001600160a01b0384161561287457612874818587612b61565b6001600160a01b038116156128b05761288f5f865f806121ab565b6001600160a01b0381165f908152600383016020526040902080545f190190555b6001600160a01b038616156128e0576001600160a01b0386165f9081526003830160205260409020805460010190555b5f85815260028301602052604080822080546001600160a01b0319166001600160a01b038a811691821790925591518893918516917fddf252ad1be2c89b69c2b068fc378daa952ba7f163c4a11628f55a4df523b3ef91a495945050505050565b5f805160206134838339815191525f61295984611010565b5f8481526001840160205260409020549091508082146129ac576001600160a01b0385165f9081526020848152604080832085845282528083205484845281842081905583526001860190915290208190555b505f92835260018201602090815260408085208590556001600160a01b039095168452918252838320908352905290812055565b5f805160206134e3833981519152545f80516020613483833981519152905f90612a0c9060019061345b565b5f848152600384016020526040812054600285018054939450909284908110612a3757612a37613198565b905f5260205f200154905080846002018381548110612a5857612a58613198565b5f91825260208083209091019290925582815260038601909152604080822084905586825281205560028401805480612a9357612a9361346e565b600190038181905f5260205f20015f905590555050505050565b5f805160206134838339815191525f6001612ac785611010565b612ad1919061345b565b6001600160a01b039094165f9081526020838152604080832087845282528083208690559482526001909301909252502055565b606082612b1a57612b1582612bc5565b611241565b8151158015612b3157506001600160a01b0384163b155b15612b5a57604051639996b31560e01b81526001600160a01b0385166004820152602401610b73565b5080611241565b612b6c838383612bee565b610b49576001600160a01b038316612b9a57604051637e27328960e01b815260048101829052602401610b73565b60405163177e802f60e01b81526001600160a01b038316600482015260248101829052604401610b73565b805115612bd55780518082602001fd5b604051630a12f52160e11b815260040160405180910390fd5b5f6001600160a01b0383161580159061123e5750826001600160a01b0316846001600160a01b03161480612c275750612c278484611617565b8061123e5750826001600160a01b0316612c4083611a04565b6001600160a01b031614949350505050565b634e487b7160e01b5f52604160045260245ffd5b5f82601f830112612c75575f80fd5b81356001600160401b0380821115612c8f57612c8f612c52565b604051601f8301601f19908116603f01168101908282118183101715612cb757612cb7612c52565b81604052838152866020858801011115612ccf575f80fd5b836020870160208301375f602085830101528094505050505092915050565b5f8060408385031215612cff575f80fd5b82356001600160401b03811115612d14575f80fd5b612d2085828601612c66565b95602094909401359450505050565b6001600160e01b031981168114610c0d575f80fd5b5f60208284031215612d54575f80fd5b813561124181612d2f565b5f5b83811015612d79578181015183820152602001612d61565b50505f910152565b5f8151808452612d98816020860160208601612d5f565b601f01601f19169290920160200192915050565b602081525f6112416020830184612d81565b5f60208284031215612dce575f80fd5b5035919050565b6001600160a01b0381168114610c0d575f80fd5b5f8060408385031215612dfa575f80fd5b8235612e0581612dd5565b946020939093013593505050565b5f805f60608486031215612e25575f80fd5b83356001600160401b03811115612e3a575f80fd5b612e4686828701612c66565b9350506020840135612e5781612dd5565b929592945050506040919091013590565b5f805f60608486031215612e7a575f80fd5b8335612e8581612dd5565b92506020840135612e5781612dd5565b5f8060408385031215612ea6575f80fd5b50508035926020909101359150565b5f60208284031215612ec5575f80fd5b813561124181612dd5565b5f8060408385031215612ee1575f80fd5b8235612eec81612dd5565b915060208301356001600160401b03811115612f06575f80fd5b612f1285828601612c66565b9150509250929050565b602080825282518282018190525f9190848201906040850190845b81811015612f55578351151583529284019291840191600101612f37565b50909695505050505050565b5f60208284031215612f71575f80fd5b81356001600160401b03811115612f86575f80fd5b612f9284828501612c66565b949350505050565b8015158114610c0d575f80fd5b5f8060408385031215612fb8575f80fd5b8235612fc381612dd5565b91506020830135612fd381612f9a565b809150509250929050565b5f805f8060808587031215612ff1575f80fd5b8435612ffc81612dd5565b9350602085013561300c81612dd5565b92506040850135915060608501356001600160401b0381111561302d575f80fd5b61303987828801612c66565b91505092959194509250565b5f805f8060808587031215613058575f80fd5b843561306381612dd5565b935060208501356001600160401b0381111561307d575f80fd5b61308987828801612c66565b935050604085013561309a81612dd5565b915060608501356130aa81612dd5565b939692955090935050565b5f805f606084860312156130c7575f80fd5b83356130d281612dd5565b925060208401356130e281612dd5565b915060408401356130f281612dd5565b809150509250925092565b602080825282518282018190525f9190848201906040850190845b81811015612f5557835183529284019291840191600101613118565b5f8060408385031215613145575f80fd5b823561315081612dd5565b91506020830135612fd381612dd5565b600181811c9082168061317457607f821691505b60208210810361319257634e487b7160e01b5f52602260045260245ffd5b50919050565b634e487b7160e01b5f52603260045260245ffd5b601f821115610b4957805f5260205f20601f840160051c810160208510156131d15750805b601f840160051c820191505b81811015611f84575f81556001016131dd565b81516001600160401b0381111561320957613209612c52565b61321d816132178454613160565b846131ac565b602080601f831160018114613250575f84156132395750858301515b5f19600386901b1c1916600185901b1785556132a7565b5f85815260208120601f198616915b8281101561327e5788860151825594840194600190910190840161325f565b508582101561329b57878501515f19600388901b60f8161c191681555b505060018460011b0185555b505050505050565b5f602082840312156132bf575f80fd5b815161124181612f9a565b5f81516132db818560208601612d5f565b9290920192915050565b5f8085546132f281613160565b6001828116801561330a576001811461331f5761334b565b60ff198416875282151583028701945061334b565b895f526020805f205f5b858110156133425781548a820152908401908201613329565b50505082870194505b50505050602f60f81b81528451613369816001840160208901612d5f565b613388613382600183850101602f60f81b815260010190565b866132ca565b979650505050505050565b634e487b7160e01b5f52601160045260245ffd5b5f600182016133b8576133b8613393565b5060010190565b80820180821115610a7057610a70613393565b5f602082840312156133e2575f80fd5b5051919050565b6001600160a01b03858116825284166020820152604081018390526080606082018190525f9061341b90830184612d81565b9695505050505050565b5f60208284031215613435575f80fd5b815161124181612d2f565b5f8251613451818460208701612d5f565b9190910192915050565b81810381811115610a7057610a70613393565b634e487b7160e01b5f52603160045260245ffdfe645e039705490088daad89bae25049a34f4a9072d398537b1ab2425f24cbed0080bb2b638cc20bc4d0a60d66940f3ab4a00c1d7b313497ca82fb0b4ab0079300360894a13ba1a3210667c828492db98dca3e2076cc3735a920a3ca505d382bbc645e039705490088daad89bae25049a34f4a9072d398537b1ab2425f24cbed02a264697066735822122025e2584f8af6ab14687c666f33b3f66559cea84e305531b51b0f55d5bd52c34e64736f6c63430008180033","linkReferences":{}},"methodIdentifiers":{"BADGE_ANDROIDS()":"0e0c8b0a","BADGE_BOUNCERS()":"98ef238a","BADGE_DRUMMERS()":"75b9c015","BADGE_MASTERS()":"b378b448","BADGE_MONKS()":"a7fb03ab","BADGE_RAVERS()":"d944061e","BADGE_ROBOTS()":"0f5f04bf","BADGE_SHINTO()":"4808b109","MOVEMENT_BASED()":"9cc28164","MOVEMENT_BOOSTED()":"b4e7409f","MOVEMENT_NEUTRAL()":"d5def7c2","UPGRADE_INTERFACE_VERSION()":"ad3cb1cc","acceptOwnership()":"79ba5097","approve(address,uint256)":"095ea7b3","badgeBalances(address)":"5c6f8ca3","badgeBalancesV2(address)":"f7da8ce3","badges(uint256)":"98e36d8b","balanceOf(address)":"70a08231","baseURI()":"6c0360eb","blacklist()":"a4b5fa56","canMint(bytes,address,uint256)":"b58c439e","getApproved(uint256)":"081812fc","getHash(address,uint256)":"ed05582b","getTokenId(address,uint256)":"29f99b9f","initialize(address,address,address)":"c0c53b8b","initialize(address,string,address,address)":"b8f88d64","isApprovedForAll(address,address)":"e985e9c5","mint(bytes,address,uint256)":"1fcfe19c","mint(bytes,uint256)":"00257612","mintSigner()":"f17af48d","minted(bytes32)":"8ccc5f80","movementBadges(bytes32,uint256)":"3136964c","movements(address)":"700b1acd","name()":"06fdde03","owner()":"8da5cb5b","ownerOf(uint256)":"6352211e","pendingOwner()":"e30c3978","proxiableUUID()":"52d1902d","renounceOwnership()":"715018a6","safeTransferFrom(address,address,uint256)":"42842e0e","safeTransferFrom(address,address,uint256,bytes)":"b88d4fde","setApprovalForAll(address,bool)":"a22cb465","setMovement(address,uint256)":"ff2c26ec","setMovement(uint256)":"2f19062f","setUri(string)":"9b642de1","supportsInterface(bytes4)":"01ffc9a7","symbol()":"95d89b41","tokenByIndex(uint256)":"4f6ccce7","tokenOfOwnerByIndex(address,uint256)":"2f745c59","tokenURI(uint256)":"c87b56dd","totalBadgeSupply()":"ca0259c0","totalSupply()":"18160ddd","transferFrom(address,address,uint256)":"23b872dd","transferOwnership(address)":"f2fde38b","updateBlacklist(address)":"378b5704","updateMintSigner(address)":"f571049b","upgradeToAndCall(address,bytes)":"4f1ef286","userBadges(address,uint256)":"df91cc23","version()":"54fd4d50"},"storageLayout":{"storage":[{"astId":3275,"contract":"contracts/trailblazers-badges/TrailblazersBadgesV3.sol:TrailblazersBadgesV3","label":"mintSigner","offset":0,"slot":"0","type":"t_address"},{"astId":3280,"contract":"contracts/trailblazers-badges/TrailblazersBadgesV3.sol:TrailblazersBadgesV3","label":"minted","offset":0,"slot":"1","type":"t_mapping(t_bytes32,t_bool)"},{"astId":3284,"contract":"contracts/trailblazers-badges/TrailblazersBadgesV3.sol:TrailblazersBadgesV3","label":"blacklist","offset":0,"slot":"2","type":"t_contract(IMinimalBlacklist)19316"},{"astId":3289,"contract":"contracts/trailblazers-badges/TrailblazersBadgesV3.sol:TrailblazersBadgesV3","label":"__gap","offset":0,"slot":"3","type":"t_array(t_uint256)47_storage"},{"astId":3593,"contract":"contracts/trailblazers-badges/TrailblazersBadgesV3.sol:TrailblazersBadgesV3","label":"_baseURIExtended","offset":0,"slot":"50","type":"t_string_storage"},{"astId":3598,"contract":"contracts/trailblazers-badges/TrailblazersBadgesV3.sol:TrailblazersBadgesV3","label":"badges","offset":0,"slot":"51","type":"t_mapping(t_uint256,t_uint256)"},{"astId":3603,"contract":"contracts/trailblazers-badges/TrailblazersBadgesV3.sol:TrailblazersBadgesV3","label":"movements","offset":0,"slot":"52","type":"t_mapping(t_address,t_uint256)"},{"astId":3610,"contract":"contracts/trailblazers-badges/TrailblazersBadgesV3.sol:TrailblazersBadgesV3","label":"userBadges","offset":0,"slot":"53","type":"t_mapping(t_address,t_mapping(t_uint256,t_uint256))"},{"astId":3617,"contract":"contracts/trailblazers-badges/TrailblazersBadgesV3.sol:TrailblazersBadgesV3","label":"movementBadges","offset":0,"slot":"54","type":"t_mapping(t_bytes32,t_array(t_uint256)2_storage)"},{"astId":3622,"contract":"contracts/trailblazers-badges/TrailblazersBadgesV3.sol:TrailblazersBadgesV3","label":"__gap","offset":0,"slot":"55","type":"t_array(t_uint256)43_storage"}],"types":{"t_address":{"encoding":"inplace","label":"address","numberOfBytes":"20"},"t_array(t_uint256)2_storage":{"encoding":"inplace","label":"uint256[2]","numberOfBytes":"64","base":"t_uint256"},"t_array(t_uint256)43_storage":{"encoding":"inplace","label":"uint256[43]","numberOfBytes":"1376","base":"t_uint256"},"t_array(t_uint256)47_storage":{"encoding":"inplace","label":"uint256[47]","numberOfBytes":"1504","base":"t_uint256"},"t_bool":{"encoding":"inplace","label":"bool","numberOfBytes":"1"},"t_bytes32":{"encoding":"inplace","label":"bytes32","numberOfBytes":"32"},"t_contract(IMinimalBlacklist)19316":{"encoding":"inplace","label":"contract IMinimalBlacklist","numberOfBytes":"20"},"t_mapping(t_address,t_mapping(t_uint256,t_uint256))":{"encoding":"mapping","key":"t_address","label":"mapping(address => mapping(uint256 => uint256))","numberOfBytes":"32","value":"t_mapping(t_uint256,t_uint256)"},"t_mapping(t_address,t_uint256)":{"encoding":"mapping","key":"t_address","label":"mapping(address => uint256)","numberOfBytes":"32","value":"t_uint256"},"t_mapping(t_bytes32,t_array(t_uint256)2_storage)":{"encoding":"mapping","key":"t_bytes32","label":"mapping(bytes32 => uint256[2])","numberOfBytes":"32","value":"t_array(t_uint256)2_storage"},"t_mapping(t_bytes32,t_bool)":{"encoding":"mapping","key":"t_bytes32","label":"mapping(bytes32 => bool)","numberOfBytes":"32","value":"t_bool"},"t_mapping(t_uint256,t_uint256)":{"encoding":"mapping","key":"t_uint256","label":"mapping(uint256 => uint256)","numberOfBytes":"32","value":"t_uint256"},"t_string_storage":{"encoding":"bytes","label":"string","numberOfBytes":"32"},"t_uint256":{"encoding":"inplace","label":"uint256","numberOfBytes":"32"}}},"id":13}