{"abi":[{"type":"function","name":"UPGRADE_INTERFACE_VERSION","inputs":[],"outputs":[{"name":"","type":"string","internalType":"string"}],"stateMutability":"view"},{"type":"function","name":"acceptOwnership","inputs":[],"outputs":[],"stateMutability":"nonpayable"},{"type":"function","name":"approve","inputs":[{"name":"to","type":"address","internalType":"address"},{"name":"tokenId","type":"uint256","internalType":"uint256"}],"outputs":[],"stateMutability":"nonpayable"},{"type":"function","name":"balanceOf","inputs":[{"name":"owner","type":"address","internalType":"address"}],"outputs":[{"name":"","type":"uint256","internalType":"uint256"}],"stateMutability":"view"},{"type":"function","name":"baseURI","inputs":[],"outputs":[{"name":"","type":"string","internalType":"string"}],"stateMutability":"view"},{"type":"function","name":"blacklist","inputs":[],"outputs":[{"name":"","type":"address","internalType":"contract IMinimalBlacklist"}],"stateMutability":"view"},{"type":"function","name":"canMint","inputs":[{"name":"_minter","type":"address","internalType":"address"},{"name":"_maxMints","type":"uint256","internalType":"uint256"}],"outputs":[{"name":"","type":"bool","internalType":"bool"}],"stateMutability":"view"},{"type":"function","name":"getApproved","inputs":[{"name":"tokenId","type":"uint256","internalType":"uint256"}],"outputs":[{"name":"","type":"address","internalType":"address"}],"stateMutability":"view"},{"type":"function","name":"initialize","inputs":[{"name":"_owner","type":"address","internalType":"address"},{"name":"_root","type":"bytes32","internalType":"bytes32"},{"name":"_blacklist","type":"address","internalType":"contract IMinimalBlacklist"}],"outputs":[],"stateMutability":"nonpayable"},{"type":"function","name":"initialize","inputs":[{"name":"_owner","type":"address","internalType":"address"},{"name":"_rootURI","type":"string","internalType":"string"},{"name":"_merkleRoot","type":"bytes32","internalType":"bytes32"},{"name":"_blacklistAddress","type":"address","internalType":"contract IMinimalBlacklist"}],"outputs":[],"stateMutability":"nonpayable"},{"type":"function","name":"isApprovedForAll","inputs":[{"name":"owner","type":"address","internalType":"address"},{"name":"operator","type":"address","internalType":"address"}],"outputs":[{"name":"","type":"bool","internalType":"bool"}],"stateMutability":"view"},{"type":"function","name":"leaf","inputs":[{"name":"_minter","type":"address","internalType":"address"},{"name":"_maxMints","type":"uint256","internalType":"uint256"}],"outputs":[{"name":"","type":"bytes32","internalType":"bytes32"}],"stateMutability":"pure"},{"type":"function","name":"maxSupply","inputs":[],"outputs":[{"name":"","type":"uint256","internalType":"uint256"}],"stateMutability":"pure"},{"type":"function","name":"mint","inputs":[{"name":"_to","type":"address","internalType":"address"},{"name":"_amount","type":"uint256","internalType":"uint256"}],"outputs":[{"name":"","type":"uint256[]","internalType":"uint256[]"}],"stateMutability":"nonpayable"},{"type":"function","name":"mint","inputs":[{"name":"_proof","type":"bytes32[]","internalType":"bytes32[]"},{"name":"_maxMints","type":"uint256","internalType":"uint256"}],"outputs":[{"name":"","type":"uint256[]","internalType":"uint256[]"}],"stateMutability":"nonpayable"},{"type":"function","name":"minted","inputs":[{"name":"leaf","type":"bytes32","internalType":"bytes32"}],"outputs":[{"name":"hasMinted","type":"bool","internalType":"bool"}],"stateMutability":"view"},{"type":"function","name":"name","inputs":[],"outputs":[{"name":"","type":"string","internalType":"string"}],"stateMutability":"view"},{"type":"function","name":"owner","inputs":[],"outputs":[{"name":"","type":"address","internalType":"address"}],"stateMutability":"view"},{"type":"function","name":"ownerOf","inputs":[{"name":"tokenId","type":"uint256","internalType":"uint256"}],"outputs":[{"name":"","type":"address","internalType":"address"}],"stateMutability":"view"},{"type":"function","name":"pendingOwner","inputs":[],"outputs":[{"name":"","type":"address","internalType":"address"}],"stateMutability":"view"},{"type":"function","name":"proxiableUUID","inputs":[],"outputs":[{"name":"","type":"bytes32","internalType":"bytes32"}],"stateMutability":"view"},{"type":"function","name":"renounceOwnership","inputs":[],"outputs":[],"stateMutability":"nonpayable"},{"type":"function","name":"root","inputs":[],"outputs":[{"name":"","type":"bytes32","internalType":"bytes32"}],"stateMutability":"view"},{"type":"function","name":"safeTransferFrom","inputs":[{"name":"from","type":"address","internalType":"address"},{"name":"to","type":"address","internalType":"address"},{"name":"tokenId","type":"uint256","internalType":"uint256"}],"outputs":[],"stateMutability":"nonpayable"},{"type":"function","name":"safeTransferFrom","inputs":[{"name":"from","type":"address","internalType":"address"},{"name":"to","type":"address","internalType":"address"},{"name":"tokenId","type":"uint256","internalType":"uint256"},{"name":"data","type":"bytes","internalType":"bytes"}],"outputs":[],"stateMutability":"nonpayable"},{"type":"function","name":"setApprovalForAll","inputs":[{"name":"operator","type":"address","internalType":"address"},{"name":"approved","type":"bool","internalType":"bool"}],"outputs":[],"stateMutability":"nonpayable"},{"type":"function","name":"supportsInterface","inputs":[{"name":"interfaceId","type":"bytes4","internalType":"bytes4"}],"outputs":[{"name":"","type":"bool","internalType":"bool"}],"stateMutability":"view"},{"type":"function","name":"symbol","inputs":[],"outputs":[{"name":"","type":"string","internalType":"string"}],"stateMutability":"view"},{"type":"function","name":"tokenByIndex","inputs":[{"name":"index","type":"uint256","internalType":"uint256"}],"outputs":[{"name":"","type":"uint256","internalType":"uint256"}],"stateMutability":"view"},{"type":"function","name":"tokenOfOwnerByIndex","inputs":[{"name":"owner","type":"address","internalType":"address"},{"name":"index","type":"uint256","internalType":"uint256"}],"outputs":[{"name":"","type":"uint256","internalType":"uint256"}],"stateMutability":"view"},{"type":"function","name":"tokenURI","inputs":[{"name":"_tokenId","type":"uint256","internalType":"uint256"}],"outputs":[{"name":"","type":"string","internalType":"string"}],"stateMutability":"view"},{"type":"function","name":"totalSupply","inputs":[],"outputs":[{"name":"","type":"uint256","internalType":"uint256"}],"stateMutability":"view"},{"type":"function","name":"transferFrom","inputs":[{"name":"from","type":"address","internalType":"address"},{"name":"to","type":"address","internalType":"address"},{"name":"tokenId","type":"uint256","internalType":"uint256"}],"outputs":[],"stateMutability":"nonpayable"},{"type":"function","name":"transferOwnership","inputs":[{"name":"newOwner","type":"address","internalType":"address"}],"outputs":[],"stateMutability":"nonpayable"},{"type":"function","name":"updateBaseURI","inputs":[{"name":"_rootURI","type":"string","internalType":"string"}],"outputs":[],"stateMutability":"nonpayable"},{"type":"function","name":"updateBlacklist","inputs":[{"name":"_blacklist","type":"address","internalType":"contract IMinimalBlacklist"}],"outputs":[],"stateMutability":"nonpayable"},{"type":"function","name":"updateRoot","inputs":[{"name":"_root","type":"bytes32","internalType":"bytes32"}],"outputs":[],"stateMutability":"nonpayable"},{"type":"function","name":"upgradeToAndCall","inputs":[{"name":"newImplementation","type":"address","internalType":"address"},{"name":"data","type":"bytes","internalType":"bytes"}],"outputs":[],"stateMutability":"payable"},{"type":"event","name":"Approval","inputs":[{"name":"owner","type":"address","indexed":true,"internalType":"address"},{"name":"approved","type":"address","indexed":true,"internalType":"address"},{"name":"tokenId","type":"uint256","indexed":true,"internalType":"uint256"}],"anonymous":false},{"type":"event","name":"ApprovalForAll","inputs":[{"name":"owner","type":"address","indexed":true,"internalType":"address"},{"name":"operator","type":"address","indexed":true,"internalType":"address"},{"name":"approved","type":"bool","indexed":false,"internalType":"bool"}],"anonymous":false},{"type":"event","name":"BlacklistUpdated","inputs":[{"name":"_blacklist","type":"address","indexed":false,"internalType":"address"}],"anonymous":false},{"type":"event","name":"Initialized","inputs":[{"name":"version","type":"uint64","indexed":false,"internalType":"uint64"}],"anonymous":false},{"type":"event","name":"MintConsumed","inputs":[{"name":"_minter","type":"address","indexed":false,"internalType":"address"},{"name":"_mintAmount","type":"uint256","indexed":false,"internalType":"uint256"}],"anonymous":false},{"type":"event","name":"OwnershipTransferStarted","inputs":[{"name":"previousOwner","type":"address","indexed":true,"internalType":"address"},{"name":"newOwner","type":"address","indexed":true,"internalType":"address"}],"anonymous":false},{"type":"event","name":"OwnershipTransferred","inputs":[{"name":"previousOwner","type":"address","indexed":true,"internalType":"address"},{"name":"newOwner","type":"address","indexed":true,"internalType":"address"}],"anonymous":false},{"type":"event","name":"RootUpdated","inputs":[{"name":"_root","type":"bytes32","indexed":false,"internalType":"bytes32"}],"anonymous":false},{"type":"event","name":"Transfer","inputs":[{"name":"from","type":"address","indexed":true,"internalType":"address"},{"name":"to","type":"address","indexed":true,"internalType":"address"},{"name":"tokenId","type":"uint256","indexed":true,"internalType":"uint256"}],"anonymous":false},{"type":"event","name":"Upgraded","inputs":[{"name":"implementation","type":"address","indexed":true,"internalType":"address"}],"anonymous":false},{"type":"error","name":"ADDRESS_BLACKLISTED","inputs":[]},{"type":"error","name":"AddressEmptyCode","inputs":[{"name":"target","type":"address","internalType":"address"}]},{"type":"error","name":"ERC1967InvalidImplementation","inputs":[{"name":"implementation","type":"address","internalType":"address"}]},{"type":"error","name":"ERC1967NonPayable","inputs":[]},{"type":"error","name":"ERC721EnumerableForbiddenBatchMint","inputs":[]},{"type":"error","name":"ERC721IncorrectOwner","inputs":[{"name":"sender","type":"address","internalType":"address"},{"name":"tokenId","type":"uint256","internalType":"uint256"},{"name":"owner","type":"address","internalType":"address"}]},{"type":"error","name":"ERC721InsufficientApproval","inputs":[{"name":"operator","type":"address","internalType":"address"},{"name":"tokenId","type":"uint256","internalType":"uint256"}]},{"type":"error","name":"ERC721InvalidApprover","inputs":[{"name":"approver","type":"address","internalType":"address"}]},{"type":"error","name":"ERC721InvalidOperator","inputs":[{"name":"operator","type":"address","internalType":"address"}]},{"type":"error","name":"ERC721InvalidOwner","inputs":[{"name":"owner","type":"address","internalType":"address"}]},{"type":"error","name":"ERC721InvalidReceiver","inputs":[{"name":"receiver","type":"address","internalType":"address"}]},{"type":"error","name":"ERC721InvalidSender","inputs":[{"name":"sender","type":"address","internalType":"address"}]},{"type":"error","name":"ERC721NonexistentToken","inputs":[{"name":"tokenId","type":"uint256","internalType":"uint256"}]},{"type":"error","name":"ERC721OutOfBoundsIndex","inputs":[{"name":"owner","type":"address","internalType":"address"},{"name":"index","type":"uint256","internalType":"uint256"}]},{"type":"error","name":"FailedInnerCall","inputs":[]},{"type":"error","name":"INVALID_PROOF","inputs":[]},{"type":"error","name":"INVALID_TOKEN_AMOUNT","inputs":[]},{"type":"error","name":"InvalidInitialization","inputs":[]},{"type":"error","name":"MAX_MINTS_EXCEEDED","inputs":[]},{"type":"error","name":"MAX_SUPPLY_REACHED","inputs":[]},{"type":"error","name":"MINTER_NOT_WHITELISTED","inputs":[]},{"type":"error","name":"MINTS_EXCEEDED","inputs":[]},{"type":"error","name":"NotInitializing","inputs":[]},{"type":"error","name":"OwnableInvalidOwner","inputs":[{"name":"owner","type":"address","internalType":"address"}]},{"type":"error","name":"OwnableUnauthorizedAccount","inputs":[{"name":"account","type":"address","internalType":"address"}]},{"type":"error","name":"TOKEN_NOT_MINTED","inputs":[]},{"type":"error","name":"UUPSUnauthorizedCallContext","inputs":[]},{"type":"error","name":"UUPSUnsupportedProxiableUUID","inputs":[{"name":"slot","type":"bytes32","internalType":"bytes32"}]}],"bytecode":{"object":"0x60a06040523060805234801562000014575f80fd5b506200001f62000025565b620000d9565b7ff0c57e16840df040f15088dc2f81fe391c3923bec73e23a9662efc9c229c6a00805468010000000000000000900460ff1615620000765760405163f92ee8a960e01b815260040160405180910390fd5b80546001600160401b0390811614620000d65780546001600160401b0319166001600160401b0390811782556040519081527fc7f505b2f371ae2175ee4913f4499e1f2633a7b5936321eed1cdaeb6115181d29060200160405180910390a15b50565b608051612b8d620001005f395f81816114db0152818161150401526116430152612b8d5ff3fe60806040526004361061021d575f3560e01c8063715018a61161011e578063b88d4fde116100a8578063e30c39781161006d578063e30c397814610624578063e985e9c514610638578063ebf0c71714610657578063eec8eca11461066b578063f2fde38b1461068a575f80fd5b8063b88d4fde14610594578063c87b56dd146105b3578063d26b3e6e146105d2578063d5abeb01146105f1578063d83b2bf814610605575f80fd5b8063931688cb116100ee578063931688cb146104f357806395d89b4114610512578063a22cb46514610526578063a4b5fa5614610545578063ad3cb1cc14610564575f80fd5b8063715018a61461048957806379ba50971461049d5780638ccc5f80146104b15780638da5cb5b146104df575f80fd5b8063378b5704116101aa5780634f6ccce71161016f5780634f6ccce71461040457806352d1902d146104235780636352211e146104375780636c0360eb1461045657806370a082311461046a575f80fd5b8063378b57041461036857806340c10f191461038757806342842e0e146103b357806345de0d9b146103d25780634f1ef286146103f1575f80fd5b80630d5e34a4116101f05780630d5e34a4146102ce57806318160ddd146102ed57806321ff99701461030b57806323b872dd1461032a5780632f745c5914610349575f80fd5b806301ffc9a71461022157806306fdde0314610255578063081812fc14610276578063095ea7b3146102ad575b5f80fd5b34801561022c575f80fd5b5061024061023b3660046123bd565b6106a9565b60405190151581526020015b60405180910390f35b348015610260575f80fd5b506102696106d3565b60405161024c9190612425565b348015610281575f80fd5b50610295610290366004612437565b610774565b6040516001600160a01b03909116815260200161024c565b3480156102b8575f80fd5b506102cc6102c7366004612462565b610788565b005b3480156102d9575f80fd5b506102406102e8366004612462565b610797565b3480156102f8575f80fd5b506032545b60405190815260200161024c565b348015610316575f80fd5b506102cc610325366004612437565b610846565b348015610335575f80fd5b506102cc61034436600461248c565b61085a565b348015610354575f80fd5b506102fd610363366004612462565b6108e8565b348015610373575f80fd5b506102cc6103823660046124ca565b610959565b348015610392575f80fd5b506103a66103a1366004612462565b6109b6565b60405161024c91906124e5565b3480156103be575f80fd5b506102cc6103cd36600461248c565b6109d1565b3480156103dd575f80fd5b506103a66103ec366004612528565b6109f0565b6102cc6103ff366004612637565b610a36565b34801561040f575f80fd5b506102fd61041e366004612437565b610a51565b34801561042e575f80fd5b506102fd610ab3565b348015610442575f80fd5b50610295610451366004612437565b610ace565b348015610461575f80fd5b50610269610ad8565b348015610475575f80fd5b506102fd6104843660046124ca565b610b68565b348015610494575f80fd5b506102cc610bc0565b3480156104a8575f80fd5b506102cc610bd3565b3480156104bc575f80fd5b506102406104cb366004612437565b60016020525f908152604090205460ff1681565b3480156104ea575f80fd5b50610295610c18565b3480156104fe575f80fd5b506102cc61050d366004612683565b610c4c565b34801561051d575f80fd5b50610269610c60565b348015610531575f80fd5b506102cc6105403660046126c1565b610c9e565b348015610550575f80fd5b50600254610295906001600160a01b031681565b34801561056f575f80fd5b50610269604051806040016040528060058152602001640352e302e360dc1b81525081565b34801561059f575f80fd5b506102cc6105ae3660046126f8565b610ca9565b3480156105be575f80fd5b506102696105cd366004612437565b610cc0565b3480156105dd575f80fd5b506102cc6105ec36600461275f565b610d1d565b3480156105fc575f80fd5b506103786102fd565b348015610610575f80fd5b506102fd61061f366004612462565b610e1b565b34801561062f575f80fd5b50610295610e74565b348015610643575f80fd5b5061024061065236600461279e565b610e9c565b348015610662575f80fd5b506102fd5f5481565b348015610676575f80fd5b506102cc6106853660046127ca565b610ee8565b348015610695575f80fd5b506102cc6106a43660046124ca565b611039565b5f6001600160e01b0319821663780e9d6360e01b14806106cd57506106cd826110be565b92915050565b5f80516020612af883398151915280546060919081906106f290612831565b80601f016020809104026020016040519081016040528092919081815260200182805461071e90612831565b80156107695780601f1061074057610100808354040283529160200191610769565b820191905f5260205f20905b81548152906001019060200180831161074c57829003601f168201915b505050505091505090565b5f61077e8261110d565b506106cd82611144565b61079382823361117d565b5050565b60025460405163fe575a8760e01b81526001600160a01b0384811660048301525f92169063fe575a8790602401602060405180830381865afa1580156107df573d5f803e3d5ffd5b505050506040513d601f19601f820116820180604052508101906108039190612869565b1561082157604051637874e36360e01b815260040160405180910390fd5b5f61082c8484610e1b565b5f9081526001602052604090205460ff1615949350505050565b61084e61118a565b610857816111bc565b50565b6001600160a01b03821661088857604051633250574960e11b81525f60048201526024015b60405180910390fd5b5f6108948383336111f0565b9050836001600160a01b0316816001600160a01b0316146108e2576040516364283d7b60e01b81526001600160a01b038086166004830152602482018490528216604482015260640161087f565b50505050565b5f5f80516020612ad883398151915261090084610b68565b83106109315760405163295f44f760e21b81526001600160a01b03851660048201526024810184905260440161087f565b6001600160a01b0384165f908152602091825260408082208583529092522054905092915050565b61096161118a565b600280546001600160a01b0319166001600160a01b0383169081179091556040519081527f75cdf6842d867a09260947ac775619527788d913a79fc3b41da1815fa377af65906020015b60405180910390a150565b60606109c061118a565b6109ca83836112f9565b9392505050565b6109eb83838360405180602001604052805f815250610ca9565b505050565b60606109fc3383610797565b610a1957604051632121afc960e21b815260040160405180910390fd5b610a248484846113dd565b610a2e33836112f9565b949350505050565b610a3e6114d0565b610a4782611574565b610793828261157c565b6032545f905f80516020612ad8833981519152908310610a8d5760405163295f44f760e21b81525f60048201526024810184905260440161087f565b806002018381548110610aa257610aa2612884565b905f5260205f200154915050919050565b5f610abc611638565b505f80516020612b1883398151915290565b5f6106cd8261110d565b606060338054610ae790612831565b80601f0160208091040260200160405190810160405280929190818152602001828054610b1390612831565b8015610b5e5780601f10610b3557610100808354040283529160200191610b5e565b820191905f5260205f20905b815481529060010190602001808311610b4157829003601f168201915b5050505050905090565b5f5f80516020612af88339815191526001600160a01b038316610ba0576040516322718ad960e21b81525f600482015260240161087f565b6001600160a01b039092165f908152600390920160205250604090205490565b610bc861118a565b610bd15f611681565b565b3380610bdd610e74565b6001600160a01b031614610c0f5760405163118cdaa760e01b81526001600160a01b038216600482015260240161087f565b61085781611681565b5f807f9016d09d72d40fdae2fd8ceac6b6234c7706214fd39c1cd1e609a0528c1993005b546001600160a01b031692915050565b610c5461118a565b603361079382826128dc565b7f80bb2b638cc20bc4d0a60d66940f3ab4a00c1d7b313497ca82fb0b4ab007930180546060915f80516020612af8833981519152916106f290612831565b6107933383836116b9565b610cb484848461085a565b6108e284848484611768565b6060603254821115610ce55760405163141ec79160e21b815260040160405180910390fd5b610ced610ad8565b610cf68361188e565b604051602001610d0792919061299b565b6040516020818303038152906040529050919050565b5f80516020612b388339815191528054600160401b810460ff1615906001600160401b03165f81158015610d4e5750825b90505f826001600160401b03166001148015610d695750303b155b905081158015610d77575080155b15610d955760405163f92ee8a960e01b815260040160405180910390fd5b845467ffffffffffffffff191660011785558315610dbf57845460ff60401b1916600160401b1785555b610dca88888861191d565b8315610e1157845460ff60401b19168555604051600181527fc7f505b2f371ae2175ee4913f4499e1f2633a7b5936321eed1cdaeb6115181d2906020015b60405180910390a15b5050505050505050565b604080516001600160a01b03841660208201529081018290525f9060600160408051601f198184030181528282528051602091820120908301520160405160208183030381529060405280519060200120905092915050565b5f807f237e158222e3e6968b72b9db0d8043aacf074ad9f650f0d1606b4d82ee432c00610c3c565b6001600160a01b039182165f9081527f80bb2b638cc20bc4d0a60d66940f3ab4a00c1d7b313497ca82fb0b4ab00793056020908152604080832093909416825291909152205460ff1690565b5f80516020612b388339815191528054600160401b810460ff1615906001600160401b03165f81158015610f195750825b90505f826001600160401b03166001148015610f345750303b155b905081158015610f42575080155b15610f605760405163f92ee8a960e01b815260040160405180910390fd5b845467ffffffffffffffff191660011785558315610f8a57845460ff60401b1916600160401b1785555b610fd0604051806040016040528060078152602001662a30b4b5b7b7b760c91b815250604051806040016040528060058152602001642a25a7a7a760d91b815250611a46565b610fdb89888861191d565b6033610fe789826128dc565b50831561102e57845460ff60401b19168555604051600181527fc7f505b2f371ae2175ee4913f4499e1f2633a7b5936321eed1cdaeb6115181d29060200160405180910390a15b505050505050505050565b61104161118a565b7f237e158222e3e6968b72b9db0d8043aacf074ad9f650f0d1606b4d82ee432c0080546001600160a01b0319166001600160a01b0383169081178255611085610c18565b6001600160a01b03167f38d16b8cac22d99fc7c124b9cd0de2d3fa1faef420bfe791d8c362d765e2270060405160405180910390a35050565b5f6001600160e01b031982166380ac58cd60e01b14806110ee57506001600160e01b03198216635b5e139f60e01b145b806106cd57506301ffc9a760e01b6001600160e01b03198316146106cd565b5f8061111883611a58565b90506001600160a01b0381166106cd57604051637e27328960e01b81526004810184905260240161087f565b5f9081527f80bb2b638cc20bc4d0a60d66940f3ab4a00c1d7b313497ca82fb0b4ab007930460205260409020546001600160a01b031690565b6109eb8383836001611a91565b33611193610c18565b6001600160a01b031614610bd15760405163118cdaa760e01b815233600482015260240161087f565b5f8190556040518181527f2cbc14f49c068133583f7cb530018af451c87c1cf1327cf2a4ff4698c4730aa4906020016109ab565b5f806111fd858585611ba4565b90506001600160a01b03811661129757611292847f645e039705490088daad89bae25049a34f4a9072d398537b1ab2425f24cbed0280545f8381527f645e039705490088daad89bae25049a34f4a9072d398537b1ab2425f24cbed0360205260408120829055600182018355919091527fa42f15e5d656f8155fd7419d740a6073999f19cd6e061449ce4a257150545bf20155565b6112ba565b846001600160a01b0316816001600160a01b0316146112ba576112ba8185611ca6565b6001600160a01b0385166112d6576112d184611d45565b610a2e565b846001600160a01b0316816001600160a01b031614610a2e57610a2e8585611e25565b60606103788260325461130c91906129fc565b111561132b5760405163fb67a12d60e01b815260040160405180910390fd5b816001600160401b038111156113435761134361259b565b60405190808252806020026020018201604052801561136c578160200160208202803683370190505b5090505f5b828110156113d65760325f815461138790612a0f565b91905081905582828151811061139f5761139f612884565b6020026020010181815250506113ce848383815181106113c1576113c1612884565b6020026020010151611e7d565b600101611371565b5092915050565b6113e73382610797565b61140457604051639ea134e960e01b815260040160405180910390fd5b5f61140f3383610e1b565b905061144f8484808060200260200160405190810160405280939291908181526020018383602002808284375f920182905250549250859150611ede9050565b61146c5760405163712eb08760e01b815260040160405180910390fd5b5f818152600160208190526040909120805460ff191690911790557ff71d0afb6ca23454b34db8bf7baf45f79e8c2f41e5499375ea2289312b2d317b33604080516001600160a01b039092168252602082018590520160405180910390a150505050565b306001600160a01b037f000000000000000000000000000000000000000000000000000000000000000016148061155657507f00000000000000000000000000000000000000000000000000000000000000006001600160a01b031661154a5f80516020612b18833981519152546001600160a01b031690565b6001600160a01b031614155b15610bd15760405163703e46dd60e11b815260040160405180910390fd5b61085761118a565b816001600160a01b03166352d1902d6040518163ffffffff1660e01b8152600401602060405180830381865afa9250505080156115d6575060408051601f3d908101601f191682019092526115d391810190612a27565b60015b6115fe57604051634c9c8ce360e01b81526001600160a01b038316600482015260240161087f565b5f80516020612b18833981519152811461162e57604051632a87526960e21b81526004810182905260240161087f565b6109eb8383611ef3565b306001600160a01b037f00000000000000000000000000000000000000000000000000000000000000001614610bd15760405163703e46dd60e11b815260040160405180910390fd5b7f237e158222e3e6968b72b9db0d8043aacf074ad9f650f0d1606b4d82ee432c0080546001600160a01b031916815561079382611f48565b5f80516020612af88339815191526001600160a01b0383166116f957604051630b61174360e31b81526001600160a01b038416600482015260240161087f565b6001600160a01b038481165f818152600584016020908152604080832094881680845294825291829020805460ff191687151590811790915591519182527f17307eab39ab6107e8899845ad3d59bd9653f200f220920489ca2b5937696c31910160405180910390a350505050565b6001600160a01b0383163b156108e257604051630a85bd0160e11b81526001600160a01b0384169063150b7a02906117aa903390889087908790600401612a3e565b6020604051808303815f875af19250505080156117e4575060408051601f3d908101601f191682019092526117e191810190612a7a565b60015b61184b573d808015611811576040519150601f19603f3d011682016040523d82523d5f602084013e611816565b606091505b5080515f0361184357604051633250574960e11b81526001600160a01b038516600482015260240161087f565b805181602001fd5b6001600160e01b03198116630a85bd0160e11b1461188757604051633250574960e11b81526001600160a01b038516600482015260240161087f565b5050505050565b60605f61189a83611fb8565b60010190505f816001600160401b038111156118b8576118b861259b565b6040519080825280601f01601f1916602001820160405280156118e2576020820181803683370190505b5090508181016020015b5f19016f181899199a1a9b1b9c1cb0b131b232b360811b600a86061a8153600a85049450846118ec57509392505050565b5f80516020612b388339815191528054600160401b810460ff1615906001600160401b03165f8115801561194e5750825b90505f826001600160401b031660011480156119695750303b155b905081158015611977575080155b156119955760405163f92ee8a960e01b815260040160405180910390fd5b845467ffffffffffffffff1916600117855583156119bf57845460ff60401b1916600160401b1785555b6119dd6001600160a01b038916156119d75788611681565b33611681565b6119e561208f565b5f879055600280546001600160a01b0319166001600160a01b0388161790558315610e1157845460ff60401b19168555604051600181527fc7f505b2f371ae2175ee4913f4499e1f2633a7b5936321eed1cdaeb6115181d290602001610e08565b611a4e612093565b61079382826120c9565b5f9081527f80bb2b638cc20bc4d0a60d66940f3ab4a00c1d7b313497ca82fb0b4ab007930260205260409020546001600160a01b031690565b5f80516020612af88339815191528180611ab357506001600160a01b03831615155b15611b74575f611ac28561110d565b90506001600160a01b03841615801590611aee5750836001600160a01b0316816001600160a01b031614155b8015611b015750611aff8185610e9c565b155b15611b2a5760405163a9fbf51f60e01b81526001600160a01b038516600482015260240161087f565b8215611b725784866001600160a01b0316826001600160a01b03167f8c5be1e5ebec7d5bd14f71427d1e84f3dd0314c0f7b2291e5b200ac8c7c3b92560405160405180910390a45b505b5f93845260040160205250506040902080546001600160a01b0319166001600160a01b0392909216919091179055565b5f5f80516020612af883398151915281611bbd85611a58565b90506001600160a01b03841615611bd957611bd98185876120f9565b6001600160a01b03811615611c1557611bf45f865f80611a91565b6001600160a01b0381165f908152600383016020526040902080545f190190555b6001600160a01b03861615611c45576001600160a01b0386165f9081526003830160205260409020805460010190555b5f85815260028301602052604080822080546001600160a01b0319166001600160a01b038a811691821790925591518893918516917fddf252ad1be2c89b69c2b068fc378daa952ba7f163c4a11628f55a4df523b3ef91a495945050505050565b5f80516020612ad88339815191525f611cbe84610b68565b5f848152600184016020526040902054909150808214611d11576001600160a01b0385165f9081526020848152604080832085845282528083205484845281842081905583526001860190915290208190555b505f92835260018201602090815260408085208590556001600160a01b039095168452918252838320908352905290812055565b7f645e039705490088daad89bae25049a34f4a9072d398537b1ab2425f24cbed02545f80516020612ad8833981519152905f90611d8490600190612a95565b5f848152600384016020526040812054600285018054939450909284908110611daf57611daf612884565b905f5260205f200154905080846002018381548110611dd057611dd0612884565b5f91825260208083209091019290925582815260038601909152604080822084905586825281205560028401805480611e0b57611e0b612aa8565b600190038181905f5260205f20015f905590555050505050565b5f80516020612ad88339815191525f6001611e3f85610b68565b611e499190612a95565b6001600160a01b039094165f9081526020838152604080832087845282528083208690559482526001909301909252502055565b6001600160a01b038216611ea657604051633250574960e11b81525f600482015260240161087f565b5f611eb283835f6111f0565b90506001600160a01b038116156109eb576040516339e3563760e11b81525f600482015260240161087f565b5f82611eea858461215d565b14949350505050565b611efc8261219f565b6040516001600160a01b038316907fbc7cd75a20ee27fd9adebab32041f755214dbc6bffa90cc0225b39da2e5c2d3b905f90a2805115611f40576109eb8282612202565b610793612274565b7f9016d09d72d40fdae2fd8ceac6b6234c7706214fd39c1cd1e609a0528c19930080546001600160a01b031981166001600160a01b03848116918217845560405192169182907f8be0079c531659141344cd1fd0a4f28419497f9722a3daafe3b4186f6b6457e0905f90a3505050565b5f8072184f03e93ff9f4daa797ed6e38ed64bf6a1f0160401b8310611ff65772184f03e93ff9f4daa797ed6e38ed64bf6a1f0160401b830492506040015b6d04ee2d6d415b85acef81000000008310612022576d04ee2d6d415b85acef8100000000830492506020015b662386f26fc10000831061204057662386f26fc10000830492506010015b6305f5e1008310612058576305f5e100830492506008015b612710831061206c57612710830492506004015b6064831061207e576064830492506002015b600a83106106cd5760010192915050565b610bd15b5f80516020612b3883398151915254600160401b900460ff16610bd157604051631afcd79f60e31b815260040160405180910390fd5b6120d1612093565b5f80516020612af8833981519152806120ea84826128dc565b50600181016108e283826128dc565b612104838383612293565b6109eb576001600160a01b03831661213257604051637e27328960e01b81526004810182905260240161087f565b60405163177e802f60e01b81526001600160a01b03831660048201526024810182905260440161087f565b5f81815b84518110156121975761218d8286838151811061218057612180612884565b60200260200101516122f7565b9150600101612161565b509392505050565b806001600160a01b03163b5f036121d457604051634c9c8ce360e01b81526001600160a01b038216600482015260240161087f565b5f80516020612b1883398151915280546001600160a01b0319166001600160a01b0392909216919091179055565b60605f80846001600160a01b03168460405161221e9190612abc565b5f60405180830381855af49150503d805f8114612256576040519150601f19603f3d011682016040523d82523d5f602084013e61225b565b606091505b509150915061226b858383612323565b95945050505050565b3415610bd15760405163b398979f60e01b815260040160405180910390fd5b5f6001600160a01b03831615801590610a2e5750826001600160a01b0316846001600160a01b031614806122cc57506122cc8484610e9c565b80610a2e5750826001600160a01b03166122e583611144565b6001600160a01b031614949350505050565b5f818310612311575f8281526020849052604090206109ca565b5f8381526020839052604090206109ca565b606082612338576123338261237f565b6109ca565b815115801561234f57506001600160a01b0384163b155b1561237857604051639996b31560e01b81526001600160a01b038516600482015260240161087f565b50806109ca565b80511561238f5780518082602001fd5b604051630a12f52160e11b815260040160405180910390fd5b6001600160e01b031981168114610857575f80fd5b5f602082840312156123cd575f80fd5b81356109ca816123a8565b5f5b838110156123f25781810151838201526020016123da565b50505f910152565b5f81518084526124118160208601602086016123d8565b601f01601f19169290920160200192915050565b602081525f6109ca60208301846123fa565b5f60208284031215612447575f80fd5b5035919050565b6001600160a01b0381168114610857575f80fd5b5f8060408385031215612473575f80fd5b823561247e8161244e565b946020939093013593505050565b5f805f6060848603121561249e575f80fd5b83356124a98161244e565b925060208401356124b98161244e565b929592945050506040919091013590565b5f602082840312156124da575f80fd5b81356109ca8161244e565b602080825282518282018190525f9190848201906040850190845b8181101561251c57835183529284019291840191600101612500565b50909695505050505050565b5f805f6040848603121561253a575f80fd5b83356001600160401b0380821115612550575f80fd5b818601915086601f830112612563575f80fd5b813581811115612571575f80fd5b8760208260051b8501011115612585575f80fd5b6020928301989097509590910135949350505050565b634e487b7160e01b5f52604160045260245ffd5b5f82601f8301126125be575f80fd5b81356001600160401b03808211156125d8576125d861259b565b604051601f8301601f19908116603f011681019082821181831017156126005761260061259b565b81604052838152866020858801011115612618575f80fd5b836020870160208301375f602085830101528094505050505092915050565b5f8060408385031215612648575f80fd5b82356126538161244e565b915060208301356001600160401b0381111561266d575f80fd5b612679858286016125af565b9150509250929050565b5f60208284031215612693575f80fd5b81356001600160401b038111156126a8575f80fd5b610a2e848285016125af565b8015158114610857575f80fd5b5f80604083850312156126d2575f80fd5b82356126dd8161244e565b915060208301356126ed816126b4565b809150509250929050565b5f805f806080858703121561270b575f80fd5b84356127168161244e565b935060208501356127268161244e565b92506040850135915060608501356001600160401b03811115612747575f80fd5b612753878288016125af565b91505092959194509250565b5f805f60608486031215612771575f80fd5b833561277c8161244e565b92506020840135915060408401356127938161244e565b809150509250925092565b5f80604083850312156127af575f80fd5b82356127ba8161244e565b915060208301356126ed8161244e565b5f805f80608085870312156127dd575f80fd5b84356127e88161244e565b935060208501356001600160401b03811115612802575f80fd5b61280e878288016125af565b9350506040850135915060608501356128268161244e565b939692955090935050565b600181811c9082168061284557607f821691505b60208210810361286357634e487b7160e01b5f52602260045260245ffd5b50919050565b5f60208284031215612879575f80fd5b81516109ca816126b4565b634e487b7160e01b5f52603260045260245ffd5b601f8211156109eb57805f5260205f20601f840160051c810160208510156128bd5750805b601f840160051c820191505b81811015611887575f81556001016128c9565b81516001600160401b038111156128f5576128f561259b565b612909816129038454612831565b84612898565b602080601f83116001811461293c575f84156129255750858301515b5f19600386901b1c1916600185901b178555612993565b5f85815260208120601f198616915b8281101561296a5788860151825594840194600190910190840161294b565b508582101561298757878501515f19600388901b60f8161c191681555b505060018460011b0185555b505050505050565b5f83516129ac8184602088016123d8565b602f60f81b90830190815283516129ca8160018401602088016123d8565b64173539b7b760d91b60019290910191820152600601949350505050565b634e487b7160e01b5f52601160045260245ffd5b808201808211156106cd576106cd6129e8565b5f60018201612a2057612a206129e8565b5060010190565b5f60208284031215612a37575f80fd5b5051919050565b6001600160a01b03858116825284166020820152604081018390526080606082018190525f90612a70908301846123fa565b9695505050505050565b5f60208284031215612a8a575f80fd5b81516109ca816123a8565b818103818111156106cd576106cd6129e8565b634e487b7160e01b5f52603160045260245ffd5b5f8251612acd8184602087016123d8565b919091019291505056fe645e039705490088daad89bae25049a34f4a9072d398537b1ab2425f24cbed0080bb2b638cc20bc4d0a60d66940f3ab4a00c1d7b313497ca82fb0b4ab0079300360894a13ba1a3210667c828492db98dca3e2076cc3735a920a3ca505d382bbcf0c57e16840df040f15088dc2f81fe391c3923bec73e23a9662efc9c229c6a00a26469706673582212205f164b0d8cacc58a6dba4683611c735cdecc4e0ecc362a6b998cdd70580e454064736f6c63430008180033","linkReferences":{}},"methodIdentifiers":{"UPGRADE_INTERFACE_VERSION()":"ad3cb1cc","acceptOwnership()":"79ba5097","approve(address,uint256)":"095ea7b3","balanceOf(address)":"70a08231","baseURI()":"6c0360eb","blacklist()":"a4b5fa56","canMint(address,uint256)":"0d5e34a4","getApproved(uint256)":"081812fc","initialize(address,bytes32,address)":"d26b3e6e","initialize(address,string,bytes32,address)":"eec8eca1","isApprovedForAll(address,address)":"e985e9c5","leaf(address,uint256)":"d83b2bf8","maxSupply()":"d5abeb01","mint(address,uint256)":"40c10f19","mint(bytes32[],uint256)":"45de0d9b","minted(bytes32)":"8ccc5f80","name()":"06fdde03","owner()":"8da5cb5b","ownerOf(uint256)":"6352211e","pendingOwner()":"e30c3978","proxiableUUID()":"52d1902d","renounceOwnership()":"715018a6","root()":"ebf0c717","safeTransferFrom(address,address,uint256)":"42842e0e","safeTransferFrom(address,address,uint256,bytes)":"b88d4fde","setApprovalForAll(address,bool)":"a22cb465","supportsInterface(bytes4)":"01ffc9a7","symbol()":"95d89b41","tokenByIndex(uint256)":"4f6ccce7","tokenOfOwnerByIndex(address,uint256)":"2f745c59","tokenURI(uint256)":"c87b56dd","totalSupply()":"18160ddd","transferFrom(address,address,uint256)":"23b872dd","transferOwnership(address)":"f2fde38b","updateBaseURI(string)":"931688cb","updateBlacklist(address)":"378b5704","updateRoot(bytes32)":"21ff9970","upgradeToAndCall(address,bytes)":"4f1ef286"},"storageLayout":{"storage":[{"astId":2240,"contract":"contracts/taikoon/TaikoonToken.sol:TaikoonToken","label":"root","offset":0,"slot":"0","type":"t_bytes32"},{"astId":2245,"contract":"contracts/taikoon/TaikoonToken.sol:TaikoonToken","label":"minted","offset":0,"slot":"1","type":"t_mapping(t_bytes32,t_bool)"},{"astId":2249,"contract":"contracts/taikoon/TaikoonToken.sol:TaikoonToken","label":"blacklist","offset":0,"slot":"2","type":"t_contract(IMinimalBlacklist)19316"},{"astId":2254,"contract":"contracts/taikoon/TaikoonToken.sol:TaikoonToken","label":"__gap","offset":0,"slot":"3","type":"t_array(t_uint256)47_storage"},{"astId":2492,"contract":"contracts/taikoon/TaikoonToken.sol:TaikoonToken","label":"_totalSupply","offset":0,"slot":"50","type":"t_uint256"},{"astId":2495,"contract":"contracts/taikoon/TaikoonToken.sol:TaikoonToken","label":"_baseURIExtended","offset":0,"slot":"51","type":"t_string_storage"},{"astId":2500,"contract":"contracts/taikoon/TaikoonToken.sol:TaikoonToken","label":"__gap","offset":0,"slot":"52","type":"t_array(t_uint256)47_storage"}],"types":{"t_array(t_uint256)47_storage":{"encoding":"inplace","label":"uint256[47]","numberOfBytes":"1504","base":"t_uint256"},"t_bool":{"encoding":"inplace","label":"bool","numberOfBytes":"1"},"t_bytes32":{"encoding":"inplace","label":"bytes32","numberOfBytes":"32"},"t_contract(IMinimalBlacklist)19316":{"encoding":"inplace","label":"contract IMinimalBlacklist","numberOfBytes":"20"},"t_mapping(t_bytes32,t_bool)":{"encoding":"mapping","key":"t_bytes32","label":"mapping(bytes32 => bool)","numberOfBytes":"32","value":"t_bool"},"t_string_storage":{"encoding":"bytes","label":"string","numberOfBytes":"32"},"t_uint256":{"encoding":"inplace","label":"uint256","numberOfBytes":"32"}}},"id":8}