{"abi":[{"type":"function","name":"BADGE_ANDROIDS","inputs":[],"outputs":[{"name":"","type":"uint256","internalType":"uint256"}],"stateMutability":"view"},{"type":"function","name":"BADGE_BOUNCERS","inputs":[],"outputs":[{"name":"","type":"uint256","internalType":"uint256"}],"stateMutability":"view"},{"type":"function","name":"BADGE_DRUMMERS","inputs":[],"outputs":[{"name":"","type":"uint256","internalType":"uint256"}],"stateMutability":"view"},{"type":"function","name":"BADGE_MASTERS","inputs":[],"outputs":[{"name":"","type":"uint256","internalType":"uint256"}],"stateMutability":"view"},{"type":"function","name":"BADGE_MONKS","inputs":[],"outputs":[{"name":"","type":"uint256","internalType":"uint256"}],"stateMutability":"view"},{"type":"function","name":"BADGE_RAVERS","inputs":[],"outputs":[{"name":"","type":"uint256","internalType":"uint256"}],"stateMutability":"view"},{"type":"function","name":"BADGE_ROBOTS","inputs":[],"outputs":[{"name":"","type":"uint256","internalType":"uint256"}],"stateMutability":"view"},{"type":"function","name":"BADGE_SHINTO","inputs":[],"outputs":[{"name":"","type":"uint256","internalType":"uint256"}],"stateMutability":"view"},{"type":"function","name":"MOVEMENT_BASED","inputs":[],"outputs":[{"name":"","type":"uint256","internalType":"uint256"}],"stateMutability":"view"},{"type":"function","name":"MOVEMENT_BOOSTED","inputs":[],"outputs":[{"name":"","type":"uint256","internalType":"uint256"}],"stateMutability":"view"},{"type":"function","name":"MOVEMENT_NEUTRAL","inputs":[],"outputs":[{"name":"","type":"uint256","internalType":"uint256"}],"stateMutability":"view"},{"type":"function","name":"UPGRADE_INTERFACE_VERSION","inputs":[],"outputs":[{"name":"","type":"string","internalType":"string"}],"stateMutability":"view"},{"type":"function","name":"acceptOwnership","inputs":[],"outputs":[],"stateMutability":"nonpayable"},{"type":"function","name":"approve","inputs":[{"name":"to","type":"address","internalType":"address"},{"name":"tokenId","type":"uint256","internalType":"uint256"}],"outputs":[],"stateMutability":"nonpayable"},{"type":"function","name":"badgeBalances","inputs":[{"name":"_owner","type":"address","internalType":"address"}],"outputs":[{"name":"","type":"bool[]","internalType":"bool[]"}],"stateMutability":"view"},{"type":"function","name":"badgeBalancesV2","inputs":[{"name":"_owner","type":"address","internalType":"address"}],"outputs":[{"name":"balances","type":"bool[]","internalType":"bool[]"}],"stateMutability":"view"},{"type":"function","name":"badges","inputs":[{"name":"_tokenId","type":"uint256","internalType":"uint256"}],"outputs":[{"name":"_badgeId","type":"uint256","internalType":"uint256"}],"stateMutability":"view"},{"type":"function","name":"balanceOf","inputs":[{"name":"owner","type":"address","internalType":"address"}],"outputs":[{"name":"","type":"uint256","internalType":"uint256"}],"stateMutability":"view"},{"type":"function","name":"baseURI","inputs":[],"outputs":[{"name":"","type":"string","internalType":"string"}],"stateMutability":"view"},{"type":"function","name":"blacklist","inputs":[],"outputs":[{"name":"","type":"address","internalType":"contract IMinimalBlacklist"}],"stateMutability":"view"},{"type":"function","name":"canMint","inputs":[{"name":"_signature","type":"bytes","internalType":"bytes"},{"name":"_minter","type":"address","internalType":"address"},{"name":"_tokenId","type":"uint256","internalType":"uint256"}],"outputs":[{"name":"","type":"bool","internalType":"bool"}],"stateMutability":"view"},{"type":"function","name":"getApproved","inputs":[{"name":"tokenId","type":"uint256","internalType":"uint256"}],"outputs":[{"name":"","type":"address","internalType":"address"}],"stateMutability":"view"},{"type":"function","name":"getHash","inputs":[{"name":"_minter","type":"address","internalType":"address"},{"name":"_tokenId","type":"uint256","internalType":"uint256"}],"outputs":[{"name":"","type":"bytes32","internalType":"bytes32"}],"stateMutability":"pure"},{"type":"function","name":"getTokenId","inputs":[{"name":"_user","type":"address","internalType":"address"},{"name":"_badgeId","type":"uint256","internalType":"uint256"}],"outputs":[{"name":"","type":"uint256","internalType":"uint256"}],"stateMutability":"view"},{"type":"function","name":"initialize","inputs":[{"name":"_owner","type":"address","internalType":"address"},{"name":"_rootURI","type":"string","internalType":"string"},{"name":"_mintSigner","type":"address","internalType":"address"},{"name":"_blacklistAddress","type":"address","internalType":"contract IMinimalBlacklist"}],"outputs":[],"stateMutability":"nonpayable"},{"type":"function","name":"initialize","inputs":[{"name":"_owner","type":"address","internalType":"address"},{"name":"_mintSigner","type":"address","internalType":"address"},{"name":"_blacklist","type":"address","internalType":"contract IMinimalBlacklist"}],"outputs":[],"stateMutability":"nonpayable"},{"type":"function","name":"isApprovedForAll","inputs":[{"name":"owner","type":"address","internalType":"address"},{"name":"operator","type":"address","internalType":"address"}],"outputs":[{"name":"","type":"bool","internalType":"bool"}],"stateMutability":"view"},{"type":"function","name":"mint","inputs":[{"name":"_signature","type":"bytes","internalType":"bytes"},{"name":"_badgeId","type":"uint256","internalType":"uint256"}],"outputs":[],"stateMutability":"nonpayable"},{"type":"function","name":"mint","inputs":[{"name":"_signature","type":"bytes","internalType":"bytes"},{"name":"_minter","type":"address","internalType":"address"},{"name":"_badgeId","type":"uint256","internalType":"uint256"}],"outputs":[],"stateMutability":"nonpayable"},{"type":"function","name":"mintSigner","inputs":[],"outputs":[{"name":"","type":"address","internalType":"address"}],"stateMutability":"view"},{"type":"function","name":"minted","inputs":[{"name":"signatureHash","type":"bytes32","internalType":"bytes32"}],"outputs":[{"name":"hasMinted","type":"bool","internalType":"bool"}],"stateMutability":"view"},{"type":"function","name":"movementBadges","inputs":[{"name":"movementBadgeHash","type":"bytes32","internalType":"bytes32"},{"name":"","type":"uint256","internalType":"uint256"}],"outputs":[{"name":"movementBadge","type":"uint256","internalType":"uint256"}],"stateMutability":"view"},{"type":"function","name":"movements","inputs":[{"name":"_user","type":"address","internalType":"address"}],"outputs":[{"name":"_movement","type":"uint256","internalType":"uint256"}],"stateMutability":"view"},{"type":"function","name":"name","inputs":[],"outputs":[{"name":"","type":"string","internalType":"string"}],"stateMutability":"view"},{"type":"function","name":"owner","inputs":[],"outputs":[{"name":"","type":"address","internalType":"address"}],"stateMutability":"view"},{"type":"function","name":"ownerOf","inputs":[{"name":"tokenId","type":"uint256","internalType":"uint256"}],"outputs":[{"name":"","type":"address","internalType":"address"}],"stateMutability":"view"},{"type":"function","name":"pendingOwner","inputs":[],"outputs":[{"name":"","type":"address","internalType":"address"}],"stateMutability":"view"},{"type":"function","name":"proxiableUUID","inputs":[],"outputs":[{"name":"","type":"bytes32","internalType":"bytes32"}],"stateMutability":"view"},{"type":"function","name":"recruitmentContract","inputs":[],"outputs":[{"name":"","type":"address","internalType":"contract BadgeRecruitment"}],"stateMutability":"view"},{"type":"function","name":"recruitmentLockDuration","inputs":[],"outputs":[{"name":"","type":"uint256","internalType":"uint256"}],"stateMutability":"view"},{"type":"function","name":"renounceOwnership","inputs":[],"outputs":[],"stateMutability":"nonpayable"},{"type":"function","name":"safeTransferFrom","inputs":[{"name":"from","type":"address","internalType":"address"},{"name":"to","type":"address","internalType":"address"},{"name":"tokenId","type":"uint256","internalType":"uint256"}],"outputs":[],"stateMutability":"nonpayable"},{"type":"function","name":"safeTransferFrom","inputs":[{"name":"from","type":"address","internalType":"address"},{"name":"to","type":"address","internalType":"address"},{"name":"tokenId","type":"uint256","internalType":"uint256"},{"name":"data","type":"bytes","internalType":"bytes"}],"outputs":[],"stateMutability":"nonpayable"},{"type":"function","name":"setApprovalForAll","inputs":[{"name":"operator","type":"address","internalType":"address"},{"name":"approved","type":"bool","internalType":"bool"}],"outputs":[],"stateMutability":"nonpayable"},{"type":"function","name":"setMovement","inputs":[{"name":"_movementId","type":"uint256","internalType":"uint256"}],"outputs":[],"stateMutability":"nonpayable"},{"type":"function","name":"setMovement","inputs":[{"name":"_user","type":"address","internalType":"address"},{"name":"_movementId","type":"uint256","internalType":"uint256"}],"outputs":[],"stateMutability":"nonpayable"},{"type":"function","name":"setRecruitmentContract","inputs":[{"name":"_recruitmentContract","type":"address","internalType":"address"}],"outputs":[],"stateMutability":"nonpayable"},{"type":"function","name":"setRecruitmentLockDuration","inputs":[{"name":"_duration","type":"uint256","internalType":"uint256"}],"outputs":[],"stateMutability":"nonpayable"},{"type":"function","name":"setUri","inputs":[{"name":"_uri","type":"string","internalType":"string"}],"outputs":[],"stateMutability":"nonpayable"},{"type":"function","name":"startRecruitment","inputs":[{"name":"_badgeId","type":"uint256","internalType":"uint256"}],"outputs":[],"stateMutability":"nonpayable"},{"type":"function","name":"supportsInterface","inputs":[{"name":"interfaceId","type":"bytes4","internalType":"bytes4"}],"outputs":[{"name":"","type":"bool","internalType":"bool"}],"stateMutability":"view"},{"type":"function","name":"symbol","inputs":[],"outputs":[{"name":"","type":"string","internalType":"string"}],"stateMutability":"view"},{"type":"function","name":"tokenByIndex","inputs":[{"name":"index","type":"uint256","internalType":"uint256"}],"outputs":[{"name":"","type":"uint256","internalType":"uint256"}],"stateMutability":"view"},{"type":"function","name":"tokenOfOwnerByIndex","inputs":[{"name":"owner","type":"address","internalType":"address"},{"name":"index","type":"uint256","internalType":"uint256"}],"outputs":[{"name":"","type":"uint256","internalType":"uint256"}],"stateMutability":"view"},{"type":"function","name":"tokenURI","inputs":[{"name":"_tokenId","type":"uint256","internalType":"uint256"}],"outputs":[{"name":"","type":"string","internalType":"string"}],"stateMutability":"view"},{"type":"function","name":"totalBadgeSupply","inputs":[],"outputs":[{"name":"balances","type":"uint256[]","internalType":"uint256[]"}],"stateMutability":"view"},{"type":"function","name":"totalSupply","inputs":[],"outputs":[{"name":"","type":"uint256","internalType":"uint256"}],"stateMutability":"view"},{"type":"function","name":"transferFrom","inputs":[{"name":"from","type":"address","internalType":"address"},{"name":"to","type":"address","internalType":"address"},{"name":"tokenId","type":"uint256","internalType":"uint256"}],"outputs":[],"stateMutability":"nonpayable"},{"type":"function","name":"transferOwnership","inputs":[{"name":"newOwner","type":"address","internalType":"address"}],"outputs":[],"stateMutability":"nonpayable"},{"type":"function","name":"unlockTimestamps","inputs":[{"name":"tokenId","type":"uint256","internalType":"uint256"}],"outputs":[{"name":"unlockTimestamp","type":"uint256","internalType":"uint256"}],"stateMutability":"view"},{"type":"function","name":"updateBlacklist","inputs":[{"name":"_blacklist","type":"address","internalType":"contract IMinimalBlacklist"}],"outputs":[],"stateMutability":"nonpayable"},{"type":"function","name":"updateMintSigner","inputs":[{"name":"_mintSigner","type":"address","internalType":"address"}],"outputs":[],"stateMutability":"nonpayable"},{"type":"function","name":"upgradeToAndCall","inputs":[{"name":"newImplementation","type":"address","internalType":"address"},{"name":"data","type":"bytes","internalType":"bytes"}],"outputs":[],"stateMutability":"payable"},{"type":"function","name":"userBadges","inputs":[{"name":"_user","type":"address","internalType":"address"},{"name":"_badgeId","type":"uint256","internalType":"uint256"}],"outputs":[{"name":"_tokenId","type":"uint256","internalType":"uint256"}],"stateMutability":"view"},{"type":"function","name":"version","inputs":[],"outputs":[{"name":"","type":"string","internalType":"string"}],"stateMutability":"pure"},{"type":"event","name":"Approval","inputs":[{"name":"owner","type":"address","indexed":true,"internalType":"address"},{"name":"approved","type":"address","indexed":true,"internalType":"address"},{"name":"tokenId","type":"uint256","indexed":true,"internalType":"uint256"}],"anonymous":false},{"type":"event","name":"ApprovalForAll","inputs":[{"name":"owner","type":"address","indexed":true,"internalType":"address"},{"name":"operator","type":"address","indexed":true,"internalType":"address"},{"name":"approved","type":"bool","indexed":false,"internalType":"bool"}],"anonymous":false},{"type":"event","name":"BadgeCreated","inputs":[{"name":"_tokenId","type":"uint256","indexed":false,"internalType":"uint256"},{"name":"_minter","type":"address","indexed":false,"internalType":"address"},{"name":"_badgeId","type":"uint256","indexed":false,"internalType":"uint256"}],"anonymous":false},{"type":"event","name":"BlacklistUpdated","inputs":[{"name":"_blacklist","type":"address","indexed":false,"internalType":"address"}],"anonymous":false},{"type":"event","name":"Initialized","inputs":[{"name":"version","type":"uint64","indexed":false,"internalType":"uint64"}],"anonymous":false},{"type":"event","name":"MintConsumed","inputs":[{"name":"_minter","type":"address","indexed":false,"internalType":"address"},{"name":"_tokenId","type":"uint256","indexed":false,"internalType":"uint256"}],"anonymous":false},{"type":"event","name":"MintSignerUpdated","inputs":[{"name":"_mintSigner","type":"address","indexed":false,"internalType":"address"}],"anonymous":false},{"type":"event","name":"MovementSet","inputs":[{"name":"_user","type":"address","indexed":false,"internalType":"address"},{"name":"_movementId","type":"uint256","indexed":false,"internalType":"uint256"}],"anonymous":false},{"type":"event","name":"OwnershipTransferStarted","inputs":[{"name":"previousOwner","type":"address","indexed":true,"internalType":"address"},{"name":"newOwner","type":"address","indexed":true,"internalType":"address"}],"anonymous":false},{"type":"event","name":"OwnershipTransferred","inputs":[{"name":"previousOwner","type":"address","indexed":true,"internalType":"address"},{"name":"newOwner","type":"address","indexed":true,"internalType":"address"}],"anonymous":false},{"type":"event","name":"Transfer","inputs":[{"name":"from","type":"address","indexed":true,"internalType":"address"},{"name":"to","type":"address","indexed":true,"internalType":"address"},{"name":"tokenId","type":"uint256","indexed":true,"internalType":"uint256"}],"anonymous":false},{"type":"event","name":"Upgraded","inputs":[{"name":"implementation","type":"address","indexed":true,"internalType":"address"}],"anonymous":false},{"type":"event","name":"UriSet","inputs":[{"name":"_uri","type":"string","indexed":false,"internalType":"string"}],"anonymous":false},{"type":"error","name":"ADDRESS_BLACKLISTED","inputs":[]},{"type":"error","name":"AddressEmptyCode","inputs":[{"name":"target","type":"address","internalType":"address"}]},{"type":"error","name":"BADGE_LOCKED","inputs":[]},{"type":"error","name":"ERC1967InvalidImplementation","inputs":[{"name":"implementation","type":"address","internalType":"address"}]},{"type":"error","name":"ERC1967NonPayable","inputs":[]},{"type":"error","name":"ERC721EnumerableForbiddenBatchMint","inputs":[]},{"type":"error","name":"ERC721IncorrectOwner","inputs":[{"name":"sender","type":"address","internalType":"address"},{"name":"tokenId","type":"uint256","internalType":"uint256"},{"name":"owner","type":"address","internalType":"address"}]},{"type":"error","name":"ERC721InsufficientApproval","inputs":[{"name":"operator","type":"address","internalType":"address"},{"name":"tokenId","type":"uint256","internalType":"uint256"}]},{"type":"error","name":"ERC721InvalidApprover","inputs":[{"name":"approver","type":"address","internalType":"address"}]},{"type":"error","name":"ERC721InvalidOperator","inputs":[{"name":"operator","type":"address","internalType":"address"}]},{"type":"error","name":"ERC721InvalidOwner","inputs":[{"name":"owner","type":"address","internalType":"address"}]},{"type":"error","name":"ERC721InvalidReceiver","inputs":[{"name":"receiver","type":"address","internalType":"address"}]},{"type":"error","name":"ERC721InvalidSender","inputs":[{"name":"sender","type":"address","internalType":"address"}]},{"type":"error","name":"ERC721NonexistentToken","inputs":[{"name":"tokenId","type":"uint256","internalType":"uint256"}]},{"type":"error","name":"ERC721OutOfBoundsIndex","inputs":[{"name":"owner","type":"address","internalType":"address"},{"name":"index","type":"uint256","internalType":"uint256"}]},{"type":"error","name":"FailedInnerCall","inputs":[]},{"type":"error","name":"INVALID_BADGE_ID","inputs":[]},{"type":"error","name":"INVALID_INPUT","inputs":[]},{"type":"error","name":"INVALID_MOVEMENT_ID","inputs":[]},{"type":"error","name":"InvalidInitialization","inputs":[]},{"type":"error","name":"MINTER_NOT_WHITELISTED","inputs":[]},{"type":"error","name":"MINTS_EXCEEDED","inputs":[]},{"type":"error","name":"NotInitializing","inputs":[]},{"type":"error","name":"ONLY_MINT_SIGNER","inputs":[]},{"type":"error","name":"OwnableInvalidOwner","inputs":[{"name":"owner","type":"address","internalType":"address"}]},{"type":"error","name":"OwnableUnauthorizedAccount","inputs":[{"name":"account","type":"address","internalType":"address"}]},{"type":"error","name":"RECRUITMENT_LOCK_DURATION_NOT_SET","inputs":[]},{"type":"error","name":"UUPSUnauthorizedCallContext","inputs":[]},{"type":"error","name":"UUPSUnsupportedProxiableUUID","inputs":[{"name":"slot","type":"bytes32","internalType":"bytes32"}]}],"bytecode":{"object":"0x60a06040523060805234801562000014575f80fd5b506200001f62000025565b620000d9565b7ff0c57e16840df040f15088dc2f81fe391c3923bec73e23a9662efc9c229c6a00805468010000000000000000900460ff1615620000765760405163f92ee8a960e01b815260040160405180910390fd5b80546001600160401b0390811614620000d65780546001600160401b0319166001600160401b0390811782556040519081527fc7f505b2f371ae2175ee4913f4499e1f2633a7b5936321eed1cdaeb6115181d29060200160405180910390a15b50565b60805161375e620001005f395f8181611d2a01528181611d530152611e92015261375e5ff3fe6080604052600436106103bd575f3560e01c80639224747d116101f4578063bacb6d4e11610113578063e30c3978116100a8578063f17af48d11610078578063f17af48d14610aa1578063f2fde38b14610abf578063f571049b14610ade578063f7da8ce314610afd578063ff2c26ec14610b1c575f80fd5b8063e30c397814610a30578063e84be85214610a44578063e985e9c514610a63578063ed05582b14610a82575f80fd5b8063ca0259c0116100e3578063ca0259c0146109c6578063d5def7c2146109e7578063d944061e146109e7578063df91cc23146109fa575f80fd5b8063bacb6d4e1461094a578063c0c53b8b14610969578063c87b56dd14610988578063c8860d98146109a7575f80fd5b8063a4b5fa5611610189578063b4e7409f11610159578063b4e7409f14610824578063b58c439e146108ed578063b88d4fde1461090c578063b8f88d641461092b575f80fd5b8063a4b5fa5614610876578063a7fb03ab14610895578063ad3cb1cc146108a9578063b378b448146108d9575f80fd5b806398ef238a116101c457806398ef238a146108245780639b642de1146108385780639cc28164146104af578063a22cb46514610857575f80fd5b80639224747d1461079b578063950290c8146107c657806395d89b41146107e557806398e36d8b146107f9575f80fd5b806342842e0e116102e05780636c0360eb1161027557806375b9c0151161024557806375b9c0151461073157806379ba5097146107455780638ccc5f80146107595780638da5cb5b14610787575f80fd5b80636c0360eb146106bf578063700b1acd146106d357806370a08231146106fe578063715018a61461071d575f80fd5b806352d1902d116102b057806352d1902d1461063657806354fd4d501461064a5780635c6f8ca3146106745780636352211e146106a0575f80fd5b806342842e0e146105d15780634808b109146105f05780634f1ef286146106045780634f6ccce714610617575f80fd5b80631fcfe19c116103565780632f745c59116103265780632f745c591461055f5780633136964c1461057e57806332c8f5041461059d578063378b5704146105b2575f80fd5b80631fcfe19c146104e357806323b872dd1461050257806329f99b9f146105215780632f19062f14610540575f80fd5b8063095ea7b311610391578063095ea7b31461046e5780630e0c8b0a1461048d5780630f5f04bf146104af57806318160ddd146104c3575f80fd5b8062257612146103c157806301ffc9a7146103e257806306fdde0314610416578063081812fc14610437575b5f80fd5b3480156103cc575f80fd5b506103e06103db366004612f18565b610b3b565b005b3480156103ed575f80fd5b506104016103fc366004612f6e565b610b4a565b60405190151581526020015b60405180910390f35b348015610421575f80fd5b5061042a610b74565b60405161040d9190612fd6565b348015610442575f80fd5b50610456610451366004612fe8565b610c15565b6040516001600160a01b03909116815260200161040d565b348015610479575f80fd5b506103e0610488366004613013565b610c29565b348015610498575f80fd5b506104a1600681565b60405190815260200161040d565b3480156104ba575f80fd5b506104a1600181565b3480156104ce575f80fd5b505f80516020613709833981519152546104a1565b3480156104ee575f80fd5b506103e06104fd36600461303d565b610c34565b34801561050d575f80fd5b506103e061051c366004613092565b610c4c565b34801561052c575f80fd5b506104a161053b366004613013565b610cda565b34801561054b575f80fd5b506103e061055a366004612fe8565b610d01565b34801561056a575f80fd5b506104a1610579366004613013565b610d0e565b348015610589575f80fd5b506104a16105983660046130bf565b610d7f565b3480156105a8575f80fd5b506104a160625481565b3480156105bd575f80fd5b506103e06105cc3660046130df565b610da1565b3480156105dc575f80fd5b506103e06105eb366004613092565b610dfe565b3480156105fb575f80fd5b506104a1600781565b6103e06106123660046130fa565b610e18565b348015610622575f80fd5b506104a1610631366004612fe8565b610e33565b348015610641575f80fd5b506104a1610ea5565b348015610655575f80fd5b50604080518082019091526002815261158d60f21b602082015261042a565b34801561067f575f80fd5b5061069361068e3660046130df565b610ec0565b60405161040d9190613146565b3480156106ab575f80fd5b506104566106ba366004612fe8565b611074565b3480156106ca575f80fd5b5061042a61107e565b3480156106de575f80fd5b506104a16106ed3660046130df565b60346020525f908152604090205481565b348015610709575f80fd5b506104a16107183660046130df565b61110e565b348015610728575f80fd5b506103e0611166565b34801561073c575f80fd5b506104a1600581565b348015610750575f80fd5b506103e0611179565b348015610764575f80fd5b50610401610773366004612fe8565b60016020525f908152604090205460ff1681565b348015610792575f80fd5b506104566111be565b3480156107a6575f80fd5b506104a16107b5366004612fe8565b60646020525f908152604090205481565b3480156107d1575f80fd5b506103e06107e0366004612fe8565b6111f2565b3480156107f0575f80fd5b5061042a6112ae565b348015610804575f80fd5b506104a1610813366004612fe8565b60336020525f908152604090205481565b34801561082f575f80fd5b506104a1600281565b348015610843575f80fd5b506103e061085236600461318b565b6112ec565b348015610862575f80fd5b506103e06108713660046131d1565b611330565b348015610881575f80fd5b50600254610456906001600160a01b031681565b3480156108a0575f80fd5b506104a1600481565b3480156108b4575f80fd5b5061042a604051806040016040528060058152602001640352e302e360dc1b81525081565b3480156108e4575f80fd5b506104a1600381565b3480156108f8575f80fd5b5061040161090736600461303d565b61133b565b348015610917575f80fd5b506103e0610926366004613208565b611402565b348015610936575f80fd5b506103e061094536600461326f565b611419565b348015610955575f80fd5b506103e0610964366004612fe8565b611587565b348015610974575f80fd5b506103e06109833660046132df565b611594565b348015610993575f80fd5b5061042a6109a2366004612fe8565b6116a4565b3480156109b2575f80fd5b50606354610456906001600160a01b031681565b3480156109d1575f80fd5b506109da61171c565b60405161040d9190613327565b3480156109f2575f80fd5b506104a15f81565b348015610a05575f80fd5b506104a1610a14366004613013565b603560209081525f928352604080842090915290825290205481565b348015610a3b575f80fd5b506104566117b6565b348015610a4f575f80fd5b506103e0610a5e3660046130df565b6117de565b348015610a6e575f80fd5b50610401610a7d36600461335e565b611808565b348015610a8d575f80fd5b506104a1610a9c366004613013565b611854565b348015610aac575f80fd5b505f54610456906001600160a01b031681565b348015610aca575f80fd5b506103e0610ad93660046130df565b6118ad565b348015610ae9575f80fd5b506103e0610af83660046130df565b611932565b348015610b08575f80fd5b50610693610b173660046130df565b611987565b348015610b27575f80fd5b506103e0610b36366004613013565b611aa4565b610b46823383611ab6565b5050565b5f6001600160e01b0319821663780e9d6360e01b1480610b6e5750610b6e82611b6f565b92915050565b5f805160206136c98339815191528054606091908190610b939061338a565b80601f0160208091040260200160405190810160405280929190818152602001828054610bbf9061338a565b8015610c0a5780601f10610be157610100808354040283529160200191610c0a565b820191905f5260205f20905b815481529060010190602001808311610bed57829003601f168201915b505050505091505090565b5f610c1f82611bbe565b50610b6e82611bf5565b610b46828233611c2e565b610c3c611c3b565b610c47838383611ab6565b505050565b6001600160a01b038216610c7a57604051633250574960e11b81525f60048201526024015b60405180910390fd5b5f610c86838333611c6d565b9050836001600160a01b0316816001600160a01b031614610cd4576040516364283d7b60e01b81526001600160a01b0380861660048301526024820184905282166044820152606401610c71565b50505050565b6001600160a01b03919091165f908152603560209081526040808320938352929052205490565b610d0b3382611ca6565b50565b5f5f805160206136a9833981519152610d268461110e565b8310610d575760405163295f44f760e21b81526001600160a01b038516600482015260248101849052604401610c71565b6001600160a01b0384165f908152602091825260408082208583529092522054905092915050565b6036602052815f5260405f208160028110610d98575f80fd5b01549150829050565b610da9611c3b565b600280546001600160a01b0319166001600160a01b0383169081179091556040519081527f75cdf6842d867a09260947ac775619527788d913a79fc3b41da1815fa377af65906020015b60405180910390a150565b610c4783838360405180602001604052805f815250611402565b610e20611d1f565b610e2982611dc3565b610b468282611dcb565b5f5f805160206136a9833981519152610e575f805160206137098339815191525490565b8310610e7f5760405163295f44f760e21b81525f600482015260248101849052604401610c71565b806002018381548110610e9457610e946133c2565b905f5260205f200154915050919050565b5f610eae611e87565b505f805160206136e983398151915290565b60408051600880825261012082019092526060915f91906020820161010080368337019050509050610ef2835f610cda565b5f1415815f81518110610f0757610f076133c2565b91151560209283029190910190910152610f22836001610cda565b5f141581600181518110610f3857610f386133c2565b91151560209283029190910190910152610f53836002610cda565b5f141581600281518110610f6957610f696133c2565b91151560209283029190910190910152610f84836003610cda565b5f141581600381518110610f9a57610f9a6133c2565b91151560209283029190910190910152610fb5836004610cda565b5f141581600481518110610fcb57610fcb6133c2565b91151560209283029190910190910152610fe6836005610cda565b5f141581600581518110610ffc57610ffc6133c2565b91151560209283029190910190910152611017836006610cda565b5f14158160068151811061102d5761102d6133c2565b91151560209283029190910190910152611048836007610cda565b5f14158160078151811061105e5761105e6133c2565b9115156020928302919091019091015292915050565b5f610b6e82611bbe565b60606032805461108d9061338a565b80601f01602080910402602001604051908101604052809291908181526020018280546110b99061338a565b80156111045780601f106110db57610100808354040283529160200191611104565b820191905f5260205f20905b8154815290600101906020018083116110e757829003601f168201915b5050505050905090565b5f5f805160206136c98339815191526001600160a01b038316611146576040516322718ad960e21b81525f6004820152602401610c71565b6001600160a01b039092165f908152600390920160205250604090205490565b61116e611c3b565b6111775f611ed0565b565b33806111836117b6565b6001600160a01b0316146111b55760405163118cdaa760e01b81526001600160a01b0382166004820152602401610c71565b610d0b81611ed0565b5f807f9016d09d72d40fdae2fd8ceac6b6234c7706214fd39c1cd1e609a0528c1993005b546001600160a01b031692915050565b6062545f03611214576040516321d9ef2160e21b815260040160405180910390fd5b5f61121f3383610cda565b90506062544261122f91906133ea565b5f828152606460205260409020556063546001600160a01b03166357663978336040516001600160e01b031960e084901b1681526001600160a01b039091166004820152602481018590526044015f604051808303815f87803b158015611294575f80fd5b505af11580156112a6573d5f803e3d5ffd5b505050505050565b7f80bb2b638cc20bc4d0a60d66940f3ab4a00c1d7b313497ca82fb0b4ab007930180546060915f805160206136c983398151915291610b939061338a565b6112f4611c3b565b60326113008282613441565b507fd09d05534067f74dbc9e6af794edbd29e904d7698e428d0bc1378e45889acdd781604051610df39190612fd6565b610b46338383611f08565b60025460405163fe575a8760e01b81526001600160a01b0384811660048301525f92169063fe575a8790602401602060405180830381865afa158015611383573d5f803e3d5ffd5b505050506040513d601f19601f820116820180604052508101906113a791906134fc565b156113c557604051637874e36360e01b815260040160405180910390fd5b83516020808601919091205f9081526001909152604090205460ff16156113ed57505f6113fb565b6113f8848484611fb7565b90505b9392505050565b61140d848484610c4c565b610cd484848484611fec565b7ff0c57e16840df040f15088dc2f81fe391c3923bec73e23a9662efc9c229c6a008054600160401b810460ff1615906001600160401b03165f8115801561145d5750825b90505f826001600160401b031660011480156114785750303b155b905081158015611486575080155b156114a45760405163f92ee8a960e01b815260040160405180910390fd5b845467ffffffffffffffff1916600117855583156114ce57845460ff60401b1916600160401b1785555b61151e60405180604001604052806013815260200172547261696c626c617a6572732042616467657360681b815250604051806040016040528060038152602001622a212160e91b815250612112565b603261152a8982613441565b50611536898888612124565b831561157c57845460ff60401b19168555604051600181527fc7f505b2f371ae2175ee4913f4499e1f2633a7b5936321eed1cdaeb6115181d29060200160405180910390a15b505050505050505050565b61158f611c3b565b606255565b7ff0c57e16840df040f15088dc2f81fe391c3923bec73e23a9662efc9c229c6a008054600160401b810460ff1615906001600160401b03165f811580156115d85750825b90505f826001600160401b031660011480156115f35750303b155b905081158015611601575080155b1561161f5760405163f92ee8a960e01b815260040160405180910390fd5b845467ffffffffffffffff19166001178555831561164957845460ff60401b1916600160401b1785555b611654888888612124565b831561169a57845460ff60401b19168555604051600181527fc7f505b2f371ae2175ee4913f4499e1f2633a7b5936321eed1cdaeb6115181d29060200160405180910390a15b5050505050505050565b60605f60345f6116b385611074565b6001600160a01b0316815260208082019290925260409081015f908120548682526033909352205490915060326116e983612178565b6116f283612178565b60405160200161170493929190613532565b60405160208183030381529060405292505050919050565b60605f6117345f805160206137098339815191525490565b6040805160088082526101208201909252919250602082016101008036833701905050915060015b8181116117b1575f818152603360205260409020548351849082908110611785576117856133c2565b60200260200101805180919061179a906135e0565b9052508190506117a9816135e0565b91505061175c565b505090565b5f807f237e158222e3e6968b72b9db0d8043aacf074ad9f650f0d1606b4d82ee432c006111e2565b6117e6611c3b565b606380546001600160a01b0319166001600160a01b0392909216919091179055565b6001600160a01b039182165f9081527f80bb2b638cc20bc4d0a60d66940f3ab4a00c1d7b313497ca82fb0b4ab00793056020908152604080832093909416825291909152205460ff1690565b604080516001600160a01b03841660208201529081018290525f9060600160408051601f198184030181528282528051602091820120908301520160405160208183030381529060405280519060200120905092915050565b6118b5611c3b565b7f237e158222e3e6968b72b9db0d8043aacf074ad9f650f0d1606b4d82ee432c0080546001600160a01b0319166001600160a01b03831690811782556118f96111be565b6001600160a01b03167f38d16b8cac22d99fc7c124b9cd0de2d3fa1faef420bfe791d8c362d765e2270060405160405180910390a35050565b61193a611c3b565b5f80546001600160a01b0319166001600160a01b0383169081179091556040519081527f81c142d9a4b33dfaba82444370b6b077fc2cb507c30c41a7c967f695ed72651f90602001610df3565b60605f6119938361110e565b90505f816001600160401b038111156119ae576119ae612e7c565b6040519080825280602002602001820160405280156119d7578160200160208202803683370190505b5090505f5b82811015611a13576119ee8582610d0e565b828281518110611a0057611a006133c2565b60209081029190910101526001016119dc565b5060408051600880825261012082019092529060208201610100803683370190505092505f5b82811015611a9c575f60335f848481518110611a5757611a576133c2565b602002602001015181526020019081526020015f205490506001858281518110611a8357611a836133c2565b9115156020928302919091019091015250600101611a39565b505050919050565b611aac611c3b565b610b468282611ca6565b6007811115611ad857604051635557cd3560e11b815260040160405180910390fd5b611ae3838383612207565b5f611af95f805160206137098339815191525490565b611b049060016133ea565b5f8181526033602052604090208390559050611b208382612298565b604080518281526001600160a01b03851660208201529081018390527f73ec18fe90e8b3de52d7e88ff3108708ed0e9714e5327b038c182b64cedaae709060600160405180910390a150505050565b5f6001600160e01b031982166380ac58cd60e01b1480611b9f57506001600160e01b03198216635b5e139f60e01b145b80610b6e57506301ffc9a760e01b6001600160e01b0319831614610b6e565b5f80611bc9836122f9565b90506001600160a01b038116610b6e57604051637e27328960e01b815260048101849052602401610c71565b5f9081527f80bb2b638cc20bc4d0a60d66940f3ab4a00c1d7b313497ca82fb0b4ab007930460205260409020546001600160a01b031690565b610c478383836001612332565b33611c446111be565b6001600160a01b0316146111775760405163118cdaa760e01b8152336004820152602401610c71565b5f82815260646020526040812054421015611c9b57604051635119f4d360e11b815260040160405180910390fd5b6113f8848484612445565b6002811115611cc857604051632c4d11b760e11b815260040160405180910390fd5b6001600160a01b0382165f81815260346020908152604091829020849055815192835282018390527fc8f3ae17becdf8c098ef081092d0420324d1318397bd7ac8e90d900c56a50a76910160405180910390a15050565b306001600160a01b037f0000000000000000000000000000000000000000000000000000000000000000161480611da557507f00000000000000000000000000000000000000000000000000000000000000006001600160a01b0316611d995f805160206136e9833981519152546001600160a01b031690565b6001600160a01b031614155b156111775760405163703e46dd60e11b815260040160405180910390fd5b610d0b611c3b565b816001600160a01b03166352d1902d6040518163ffffffff1660e01b8152600401602060405180830381865afa925050508015611e25575060408051601f3d908101601f19168201909252611e22918101906135f8565b60015b611e4d57604051634c9c8ce360e01b81526001600160a01b0383166004820152602401610c71565b5f805160206136e98339815191528114611e7d57604051632a87526960e21b815260048101829052602401610c71565b610c4783836124e8565b306001600160a01b037f000000000000000000000000000000000000000000000000000000000000000016146111775760405163703e46dd60e11b815260040160405180910390fd5b7f237e158222e3e6968b72b9db0d8043aacf074ad9f650f0d1606b4d82ee432c0080546001600160a01b0319168155610b468261253d565b5f805160206136c98339815191526001600160a01b038316611f4857604051630b61174360e31b81526001600160a01b0384166004820152602401610c71565b6001600160a01b038481165f818152600584016020908152604080832094881680845294825291829020805460ff191687151590811790915591519182527f17307eab39ab6107e8899845ad3d59bd9653f200f220920489ca2b5937696c31910160405180910390a350505050565b5f80611fc38484611854565b90505f611fd082876125ad565b50505f546001600160a01b039081169116149695505050505050565b6001600160a01b0383163b15610cd457604051630a85bd0160e11b81526001600160a01b0384169063150b7a029061202e90339088908790879060040161360f565b6020604051808303815f875af1925050508015612068575060408051601f3d908101601f191682019092526120659181019061364b565b60015b6120cf573d808015612095576040519150601f19603f3d011682016040523d82523d5f602084013e61209a565b606091505b5080515f036120c757604051633250574960e11b81526001600160a01b0385166004820152602401610c71565b805181602001fd5b6001600160e01b03198116630a85bd0160e11b1461210b57604051633250574960e11b81526001600160a01b0385166004820152602401610c71565b5050505050565b61211a6125f6565b610b46828261263f565b6121426001600160a01b0384161561213c5783611ed0565b33611ed0565b61214a61266f565b5f80546001600160a01b039384166001600160a01b0319918216179091556002805492909316911617905550565b60605f61218483612677565b60010190505f816001600160401b038111156121a2576121a2612e7c565b6040519080825280601f01601f1916602001820160405280156121cc576020820181803683370190505b5090508181016020015b5f19016f181899199a1a9b1b9c1cb0b131b232b360811b600a86061a8153600a85049450846121d657509392505050565b61221283838361133b565b61222f57604051639ea134e960e01b815260040160405180910390fd5b82516020808501919091205f9081526001808352604091829020805460ff1916909117905580516001600160a01b03851681529182018390527ff71d0afb6ca23454b34db8bf7baf45f79e8c2f41e5499375ea2289312b2d317b910160405180910390a1505050565b6001600160a01b0382166122c157604051633250574960e11b81525f6004820152602401610c71565b5f6122cd83835f611c6d565b90506001600160a01b03811615610c47576040516339e3563760e11b81525f6004820152602401610c71565b5f9081527f80bb2b638cc20bc4d0a60d66940f3ab4a00c1d7b313497ca82fb0b4ab007930260205260409020546001600160a01b031690565b5f805160206136c9833981519152818061235457506001600160a01b03831615155b15612415575f61236385611bbe565b90506001600160a01b0384161580159061238f5750836001600160a01b0316816001600160a01b031614155b80156123a257506123a08185611808565b155b156123cb5760405163a9fbf51f60e01b81526001600160a01b0385166004820152602401610c71565b82156124135784866001600160a01b0316826001600160a01b03167f8c5be1e5ebec7d5bd14f71427d1e84f3dd0314c0f7b2291e5b200ac8c7c3b92560405160405180910390a45b505b5f93845260040160205250506040902080546001600160a01b0319166001600160a01b0392909216919091179055565b6002545f906001600160a01b031663fe575a87336040516001600160e01b031960e084901b1681526001600160a01b039091166004820152602401602060405180830381865afa15801561249b573d5f803e3d5ffd5b505050506040513d601f19601f820116820180604052508101906124bf91906134fc565b156124dd57604051637874e36360e01b815260040160405180910390fd5b6113f884848461274e565b6124f1826127b7565b6040516001600160a01b038316907fbc7cd75a20ee27fd9adebab32041f755214dbc6bffa90cc0225b39da2e5c2d3b905f90a280511561253557610c47828261281a565b610b4661288c565b7f9016d09d72d40fdae2fd8ceac6b6234c7706214fd39c1cd1e609a0528c19930080546001600160a01b031981166001600160a01b03848116918217845560405192169182907f8be0079c531659141344cd1fd0a4f28419497f9722a3daafe3b4186f6b6457e0905f90a3505050565b5f805f83516041036125e4576020840151604085015160608601515f1a6125d6888285856128ab565b9550955095505050506125ef565b505081515f91506002905b9250925092565b7ff0c57e16840df040f15088dc2f81fe391c3923bec73e23a9662efc9c229c6a0054600160401b900460ff1661117757604051631afcd79f60e31b815260040160405180910390fd5b6126476125f6565b5f805160206136c9833981519152806126608482613441565b5060018101610cd48382613441565b6111776125f6565b5f8072184f03e93ff9f4daa797ed6e38ed64bf6a1f0160401b83106126b55772184f03e93ff9f4daa797ed6e38ed64bf6a1f0160401b830492506040015b6d04ee2d6d415b85acef810000000083106126e1576d04ee2d6d415b85acef8100000000830492506020015b662386f26fc1000083106126ff57662386f26fc10000830492506010015b6305f5e1008310612717576305f5e100830492506008015b612710831061272b57612710830492506004015b6064831061273d576064830492506002015b600a8310610b6e5760010192915050565b5f8060355f61275c866122f9565b6001600160a01b03908116825260208083019390935260409182015f908120888252603385528382208054835290855283822095909555908816815260358352818120935481529290915290208390556113f8848484612973565b806001600160a01b03163b5f036127ec57604051634c9c8ce360e01b81526001600160a01b0382166004820152602401610c71565b5f805160206136e983398151915280546001600160a01b0319166001600160a01b0392909216919091179055565b60605f80846001600160a01b0316846040516128369190613666565b5f60405180830381855af49150503d805f811461286e576040519150601f19603f3d011682016040523d82523d5f602084013e612873565b606091505b5091509150612883858383612a69565b95945050505050565b34156111775760405163b398979f60e01b815260040160405180910390fd5b5f80807f7fffffffffffffffffffffffffffffff5d576e7357a4501ddfe92f46681b20a08411156128e457505f91506003905082612969565b604080515f808252602082018084528a905260ff891692820192909252606081018790526080810186905260019060a0016020604051602081039080840390855afa158015612935573d5f803e3d5ffd5b5050604051601f1901519150506001600160a01b03811661296057505f925060019150829050612969565b92505f91508190505b9450945094915050565b5f80612980858585612ac5565b90506001600160a01b038116612a0757612a02845f8051602061370983398151915280545f8381527f645e039705490088daad89bae25049a34f4a9072d398537b1ab2425f24cbed0360205260408120829055600182018355919091527fa42f15e5d656f8155fd7419d740a6073999f19cd6e061449ce4a257150545bf20155565b612a2a565b846001600160a01b0316816001600160a01b031614612a2a57612a2a8185612bc7565b6001600160a01b038516612a4657612a4184612c66565b6113f8565b846001600160a01b0316816001600160a01b0316146113f8576113f88585612d33565b606082612a7e57612a7982612d8b565b6113fb565b8151158015612a9557506001600160a01b0384163b155b15612abe57604051639996b31560e01b81526001600160a01b0385166004820152602401610c71565b50806113fb565b5f5f805160206136c983398151915281612ade856122f9565b90506001600160a01b03841615612afa57612afa818587612db4565b6001600160a01b03811615612b3657612b155f865f80612332565b6001600160a01b0381165f908152600383016020526040902080545f190190555b6001600160a01b03861615612b66576001600160a01b0386165f9081526003830160205260409020805460010190555b5f85815260028301602052604080822080546001600160a01b0319166001600160a01b038a811691821790925591518893918516917fddf252ad1be2c89b69c2b068fc378daa952ba7f163c4a11628f55a4df523b3ef91a495945050505050565b5f805160206136a98339815191525f612bdf8461110e565b5f848152600184016020526040902054909150808214612c32576001600160a01b0385165f9081526020848152604080832085845282528083205484845281842081905583526001860190915290208190555b505f92835260018201602090815260408085208590556001600160a01b039095168452918252838320908352905290812055565b5f80516020613709833981519152545f805160206136a9833981519152905f90612c9290600190613681565b5f848152600384016020526040812054600285018054939450909284908110612cbd57612cbd6133c2565b905f5260205f200154905080846002018381548110612cde57612cde6133c2565b5f91825260208083209091019290925582815260038601909152604080822084905586825281205560028401805480612d1957612d19613694565b600190038181905f5260205f20015f905590555050505050565b5f805160206136a98339815191525f6001612d4d8561110e565b612d579190613681565b6001600160a01b039094165f9081526020838152604080832087845282528083208690559482526001909301909252502055565b805115612d9b5780518082602001fd5b604051630a12f52160e11b815260040160405180910390fd5b612dbf838383612e18565b610c47576001600160a01b038316612ded57604051637e27328960e01b815260048101829052602401610c71565b60405163177e802f60e01b81526001600160a01b038316600482015260248101829052604401610c71565b5f6001600160a01b038316158015906113f85750826001600160a01b0316846001600160a01b03161480612e515750612e518484611808565b806113f85750826001600160a01b0316612e6a83611bf5565b6001600160a01b031614949350505050565b634e487b7160e01b5f52604160045260245ffd5b5f82601f830112612e9f575f80fd5b81356001600160401b0380821115612eb957612eb9612e7c565b604051601f8301601f19908116603f01168101908282118183101715612ee157612ee1612e7c565b81604052838152866020858801011115612ef9575f80fd5b836020870160208301375f602085830101528094505050505092915050565b5f8060408385031215612f29575f80fd5b82356001600160401b03811115612f3e575f80fd5b612f4a85828601612e90565b95602094909401359450505050565b6001600160e01b031981168114610d0b575f80fd5b5f60208284031215612f7e575f80fd5b81356113fb81612f59565b5f5b83811015612fa3578181015183820152602001612f8b565b50505f910152565b5f8151808452612fc2816020860160208601612f89565b601f01601f19169290920160200192915050565b602081525f6113fb6020830184612fab565b5f60208284031215612ff8575f80fd5b5035919050565b6001600160a01b0381168114610d0b575f80fd5b5f8060408385031215613024575f80fd5b823561302f81612fff565b946020939093013593505050565b5f805f6060848603121561304f575f80fd5b83356001600160401b03811115613064575f80fd5b61307086828701612e90565b935050602084013561308181612fff565b929592945050506040919091013590565b5f805f606084860312156130a4575f80fd5b83356130af81612fff565b9250602084013561308181612fff565b5f80604083850312156130d0575f80fd5b50508035926020909101359150565b5f602082840312156130ef575f80fd5b81356113fb81612fff565b5f806040838503121561310b575f80fd5b823561311681612fff565b915060208301356001600160401b03811115613130575f80fd5b61313c85828601612e90565b9150509250929050565b602080825282518282018190525f9190848201906040850190845b8181101561317f578351151583529284019291840191600101613161565b50909695505050505050565b5f6020828403121561319b575f80fd5b81356001600160401b038111156131b0575f80fd5b6131bc84828501612e90565b949350505050565b8015158114610d0b575f80fd5b5f80604083850312156131e2575f80fd5b82356131ed81612fff565b915060208301356131fd816131c4565b809150509250929050565b5f805f806080858703121561321b575f80fd5b843561322681612fff565b9350602085013561323681612fff565b92506040850135915060608501356001600160401b03811115613257575f80fd5b61326387828801612e90565b91505092959194509250565b5f805f8060808587031215613282575f80fd5b843561328d81612fff565b935060208501356001600160401b038111156132a7575f80fd5b6132b387828801612e90565b93505060408501356132c481612fff565b915060608501356132d481612fff565b939692955090935050565b5f805f606084860312156132f1575f80fd5b83356132fc81612fff565b9250602084013561330c81612fff565b9150604084013561331c81612fff565b809150509250925092565b602080825282518282018190525f9190848201906040850190845b8181101561317f57835183529284019291840191600101613342565b5f806040838503121561336f575f80fd5b823561337a81612fff565b915060208301356131fd81612fff565b600181811c9082168061339e57607f821691505b6020821081036133bc57634e487b7160e01b5f52602260045260245ffd5b50919050565b634e487b7160e01b5f52603260045260245ffd5b634e487b7160e01b5f52601160045260245ffd5b80820180821115610b6e57610b6e6133d6565b601f821115610c4757805f5260205f20601f840160051c810160208510156134225750805b601f840160051c820191505b8181101561210b575f815560010161342e565b81516001600160401b0381111561345a5761345a612e7c565b61346e81613468845461338a565b846133fd565b602080601f8311600181146134a1575f841561348a5750858301515b5f19600386901b1c1916600185901b1785556112a6565b5f85815260208120601f198616915b828110156134cf578886015182559484019460019091019084016134b0565b50858210156134ec57878501515f19600388901b60f8161c191681555b5050505050600190811b01905550565b5f6020828403121561350c575f80fd5b81516113fb816131c4565b5f8151613528818560208601612f89565b9290920192915050565b5f80855461353f8161338a565b60018281168015613557576001811461356c57613598565b60ff1984168752821515830287019450613598565b895f526020805f205f5b8581101561358f5781548a820152908401908201613576565b50505082870194505b50505050602f60f81b815284516135b6816001840160208901612f89565b6135d56135cf600183850101602f60f81b815260010190565b86613517565b979650505050505050565b5f600182016135f1576135f16133d6565b5060010190565b5f60208284031215613608575f80fd5b5051919050565b6001600160a01b03858116825284166020820152604081018390526080606082018190525f9061364190830184612fab565b9695505050505050565b5f6020828403121561365b575f80fd5b81516113fb81612f59565b5f8251613677818460208701612f89565b9190910192915050565b81810381811115610b6e57610b6e6133d6565b634e487b7160e01b5f52603160045260245ffdfe645e039705490088daad89bae25049a34f4a9072d398537b1ab2425f24cbed0080bb2b638cc20bc4d0a60d66940f3ab4a00c1d7b313497ca82fb0b4ab0079300360894a13ba1a3210667c828492db98dca3e2076cc3735a920a3ca505d382bbc645e039705490088daad89bae25049a34f4a9072d398537b1ab2425f24cbed02a2646970667358221220f38f18d4a6c08150afb5a8344f0f07484dc6e1c99fcb071d30cbdac6fff67fe664736f6c63430008180033","linkReferences":{}},"methodIdentifiers":{"BADGE_ANDROIDS()":"0e0c8b0a","BADGE_BOUNCERS()":"98ef238a","BADGE_DRUMMERS()":"75b9c015","BADGE_MASTERS()":"b378b448","BADGE_MONKS()":"a7fb03ab","BADGE_RAVERS()":"d944061e","BADGE_ROBOTS()":"0f5f04bf","BADGE_SHINTO()":"4808b109","MOVEMENT_BASED()":"9cc28164","MOVEMENT_BOOSTED()":"b4e7409f","MOVEMENT_NEUTRAL()":"d5def7c2","UPGRADE_INTERFACE_VERSION()":"ad3cb1cc","acceptOwnership()":"79ba5097","approve(address,uint256)":"095ea7b3","badgeBalances(address)":"5c6f8ca3","badgeBalancesV2(address)":"f7da8ce3","badges(uint256)":"98e36d8b","balanceOf(address)":"70a08231","baseURI()":"6c0360eb","blacklist()":"a4b5fa56","canMint(bytes,address,uint256)":"b58c439e","getApproved(uint256)":"081812fc","getHash(address,uint256)":"ed05582b","getTokenId(address,uint256)":"29f99b9f","initialize(address,address,address)":"c0c53b8b","initialize(address,string,address,address)":"b8f88d64","isApprovedForAll(address,address)":"e985e9c5","mint(bytes,address,uint256)":"1fcfe19c","mint(bytes,uint256)":"00257612","mintSigner()":"f17af48d","minted(bytes32)":"8ccc5f80","movementBadges(bytes32,uint256)":"3136964c","movements(address)":"700b1acd","name()":"06fdde03","owner()":"8da5cb5b","ownerOf(uint256)":"6352211e","pendingOwner()":"e30c3978","proxiableUUID()":"52d1902d","recruitmentContract()":"c8860d98","recruitmentLockDuration()":"32c8f504","renounceOwnership()":"715018a6","safeTransferFrom(address,address,uint256)":"42842e0e","safeTransferFrom(address,address,uint256,bytes)":"b88d4fde","setApprovalForAll(address,bool)":"a22cb465","setMovement(address,uint256)":"ff2c26ec","setMovement(uint256)":"2f19062f","setRecruitmentContract(address)":"e84be852","setRecruitmentLockDuration(uint256)":"bacb6d4e","setUri(string)":"9b642de1","startRecruitment(uint256)":"950290c8","supportsInterface(bytes4)":"01ffc9a7","symbol()":"95d89b41","tokenByIndex(uint256)":"4f6ccce7","tokenOfOwnerByIndex(address,uint256)":"2f745c59","tokenURI(uint256)":"c87b56dd","totalBadgeSupply()":"ca0259c0","totalSupply()":"18160ddd","transferFrom(address,address,uint256)":"23b872dd","transferOwnership(address)":"f2fde38b","unlockTimestamps(uint256)":"9224747d","updateBlacklist(address)":"378b5704","updateMintSigner(address)":"f571049b","upgradeToAndCall(address,bytes)":"4f1ef286","userBadges(address,uint256)":"df91cc23","version()":"54fd4d50"},"storageLayout":{"storage":[{"astId":3275,"contract":"contracts/trailblazers-season-2/TrailblazersS1BadgesV4.sol:TrailblazersBadgesV4","label":"mintSigner","offset":0,"slot":"0","type":"t_address"},{"astId":3280,"contract":"contracts/trailblazers-season-2/TrailblazersS1BadgesV4.sol:TrailblazersBadgesV4","label":"minted","offset":0,"slot":"1","type":"t_mapping(t_bytes32,t_bool)"},{"astId":3284,"contract":"contracts/trailblazers-season-2/TrailblazersS1BadgesV4.sol:TrailblazersBadgesV4","label":"blacklist","offset":0,"slot":"2","type":"t_contract(IMinimalBlacklist)19316"},{"astId":3289,"contract":"contracts/trailblazers-season-2/TrailblazersS1BadgesV4.sol:TrailblazersBadgesV4","label":"__gap","offset":0,"slot":"3","type":"t_array(t_uint256)47_storage"},{"astId":3593,"contract":"contracts/trailblazers-season-2/TrailblazersS1BadgesV4.sol:TrailblazersBadgesV4","label":"_baseURIExtended","offset":0,"slot":"50","type":"t_string_storage"},{"astId":3598,"contract":"contracts/trailblazers-season-2/TrailblazersS1BadgesV4.sol:TrailblazersBadgesV4","label":"badges","offset":0,"slot":"51","type":"t_mapping(t_uint256,t_uint256)"},{"astId":3603,"contract":"contracts/trailblazers-season-2/TrailblazersS1BadgesV4.sol:TrailblazersBadgesV4","label":"movements","offset":0,"slot":"52","type":"t_mapping(t_address,t_uint256)"},{"astId":3610,"contract":"contracts/trailblazers-season-2/TrailblazersS1BadgesV4.sol:TrailblazersBadgesV4","label":"userBadges","offset":0,"slot":"53","type":"t_mapping(t_address,t_mapping(t_uint256,t_uint256))"},{"astId":3617,"contract":"contracts/trailblazers-season-2/TrailblazersS1BadgesV4.sol:TrailblazersBadgesV4","label":"movementBadges","offset":0,"slot":"54","type":"t_mapping(t_bytes32,t_array(t_uint256)2_storage)"},{"astId":3622,"contract":"contracts/trailblazers-season-2/TrailblazersS1BadgesV4.sol:TrailblazersBadgesV4","label":"__gap","offset":0,"slot":"55","type":"t_array(t_uint256)43_storage"},{"astId":6523,"contract":"contracts/trailblazers-season-2/TrailblazersS1BadgesV4.sol:TrailblazersBadgesV4","label":"recruitmentLockDuration","offset":0,"slot":"98","type":"t_uint256"},{"astId":6527,"contract":"contracts/trailblazers-season-2/TrailblazersS1BadgesV4.sol:TrailblazersBadgesV4","label":"recruitmentContract","offset":0,"slot":"99","type":"t_contract(BadgeRecruitment)5789"},{"astId":6532,"contract":"contracts/trailblazers-season-2/TrailblazersS1BadgesV4.sol:TrailblazersBadgesV4","label":"unlockTimestamps","offset":0,"slot":"100","type":"t_mapping(t_uint256,t_uint256)"}],"types":{"t_address":{"encoding":"inplace","label":"address","numberOfBytes":"20"},"t_array(t_uint256)2_storage":{"encoding":"inplace","label":"uint256[2]","numberOfBytes":"64","base":"t_uint256"},"t_array(t_uint256)43_storage":{"encoding":"inplace","label":"uint256[43]","numberOfBytes":"1376","base":"t_uint256"},"t_array(t_uint256)47_storage":{"encoding":"inplace","label":"uint256[47]","numberOfBytes":"1504","base":"t_uint256"},"t_bool":{"encoding":"inplace","label":"bool","numberOfBytes":"1"},"t_bytes32":{"encoding":"inplace","label":"bytes32","numberOfBytes":"32"},"t_contract(BadgeRecruitment)5789":{"encoding":"inplace","label":"contract BadgeRecruitment","numberOfBytes":"20"},"t_contract(IMinimalBlacklist)19316":{"encoding":"inplace","label":"contract IMinimalBlacklist","numberOfBytes":"20"},"t_mapping(t_address,t_mapping(t_uint256,t_uint256))":{"encoding":"mapping","key":"t_address","label":"mapping(address => mapping(uint256 => uint256))","numberOfBytes":"32","value":"t_mapping(t_uint256,t_uint256)"},"t_mapping(t_address,t_uint256)":{"encoding":"mapping","key":"t_address","label":"mapping(address => uint256)","numberOfBytes":"32","value":"t_uint256"},"t_mapping(t_bytes32,t_array(t_uint256)2_storage)":{"encoding":"mapping","key":"t_bytes32","label":"mapping(bytes32 => uint256[2])","numberOfBytes":"32","value":"t_array(t_uint256)2_storage"},"t_mapping(t_bytes32,t_bool)":{"encoding":"mapping","key":"t_bytes32","label":"mapping(bytes32 => bool)","numberOfBytes":"32","value":"t_bool"},"t_mapping(t_uint256,t_uint256)":{"encoding":"mapping","key":"t_uint256","label":"mapping(uint256 => uint256)","numberOfBytes":"32","value":"t_uint256"},"t_string_storage":{"encoding":"bytes","label":"string","numberOfBytes":"32"},"t_uint256":{"encoding":"inplace","label":"uint256","numberOfBytes":"32"}}},"id":17}