{"abi":[{"type":"function","name":"UPGRADE_INTERFACE_VERSION","inputs":[],"outputs":[{"name":"","type":"string","internalType":"string"}],"stateMutability":"view"},{"type":"function","name":"acceptOwnership","inputs":[],"outputs":[],"stateMutability":"nonpayable"},{"type":"function","name":"approve","inputs":[{"name":"to","type":"address","internalType":"address"},{"name":"tokenId","type":"uint256","internalType":"uint256"}],"outputs":[],"stateMutability":"nonpayable"},{"type":"function","name":"balanceOf","inputs":[{"name":"owner","type":"address","internalType":"address"}],"outputs":[{"name":"","type":"uint256","internalType":"uint256"}],"stateMutability":"view"},{"type":"function","name":"canMint","inputs":[{"name":"_minter","type":"address","internalType":"address"},{"name":"_maxMints","type":"uint256","internalType":"uint256"}],"outputs":[{"name":"","type":"bool","internalType":"bool"}],"stateMutability":"view"},{"type":"function","name":"getApproved","inputs":[{"name":"tokenId","type":"uint256","internalType":"uint256"}],"outputs":[{"name":"","type":"address","internalType":"address"}],"stateMutability":"view"},{"type":"function","name":"initialize","inputs":[{"name":"_owner","type":"address","internalType":"address"},{"name":"_root","type":"bytes32","internalType":"bytes32"}],"outputs":[],"stateMutability":"nonpayable"},{"type":"function","name":"initialize","inputs":[{"name":"_owner","type":"address","internalType":"address"},{"name":"_rootURI","type":"string","internalType":"string"},{"name":"_merkleRoot","type":"bytes32","internalType":"bytes32"}],"outputs":[],"stateMutability":"nonpayable"},{"type":"function","name":"isApprovedForAll","inputs":[{"name":"owner","type":"address","internalType":"address"},{"name":"operator","type":"address","internalType":"address"}],"outputs":[{"name":"","type":"bool","internalType":"bool"}],"stateMutability":"view"},{"type":"function","name":"leaf","inputs":[{"name":"_minter","type":"address","internalType":"address"},{"name":"_maxMints","type":"uint256","internalType":"uint256"}],"outputs":[{"name":"","type":"bytes32","internalType":"bytes32"}],"stateMutability":"pure"},{"type":"function","name":"maxSupply","inputs":[],"outputs":[{"name":"","type":"uint256","internalType":"uint256"}],"stateMutability":"pure"},{"type":"function","name":"mint","inputs":[{"name":"_to","type":"address","internalType":"address"},{"name":"_amount","type":"uint256","internalType":"uint256"}],"outputs":[{"name":"","type":"uint256[]","internalType":"uint256[]"}],"stateMutability":"nonpayable"},{"type":"function","name":"mint","inputs":[{"name":"_proof","type":"bytes32[]","internalType":"bytes32[]"},{"name":"_maxMints","type":"uint256","internalType":"uint256"}],"outputs":[{"name":"","type":"uint256[]","internalType":"uint256[]"}],"stateMutability":"nonpayable"},{"type":"function","name":"minted","inputs":[{"name":"leaf","type":"bytes32","internalType":"bytes32"}],"outputs":[{"name":"hasMinted","type":"bool","internalType":"bool"}],"stateMutability":"view"},{"type":"function","name":"name","inputs":[],"outputs":[{"name":"","type":"string","internalType":"string"}],"stateMutability":"view"},{"type":"function","name":"owner","inputs":[],"outputs":[{"name":"","type":"address","internalType":"address"}],"stateMutability":"view"},{"type":"function","name":"ownerOf","inputs":[{"name":"tokenId","type":"uint256","internalType":"uint256"}],"outputs":[{"name":"","type":"address","internalType":"address"}],"stateMutability":"view"},{"type":"function","name":"pendingOwner","inputs":[],"outputs":[{"name":"","type":"address","internalType":"address"}],"stateMutability":"view"},{"type":"function","name":"proxiableUUID","inputs":[],"outputs":[{"name":"","type":"bytes32","internalType":"bytes32"}],"stateMutability":"view"},{"type":"function","name":"renounceOwnership","inputs":[],"outputs":[],"stateMutability":"nonpayable"},{"type":"function","name":"root","inputs":[],"outputs":[{"name":"","type":"bytes32","internalType":"bytes32"}],"stateMutability":"view"},{"type":"function","name":"safeTransferFrom","inputs":[{"name":"from","type":"address","internalType":"address"},{"name":"to","type":"address","internalType":"address"},{"name":"tokenId","type":"uint256","internalType":"uint256"}],"outputs":[],"stateMutability":"nonpayable"},{"type":"function","name":"safeTransferFrom","inputs":[{"name":"from","type":"address","internalType":"address"},{"name":"to","type":"address","internalType":"address"},{"name":"tokenId","type":"uint256","internalType":"uint256"},{"name":"data","type":"bytes","internalType":"bytes"}],"outputs":[],"stateMutability":"nonpayable"},{"type":"function","name":"setApprovalForAll","inputs":[{"name":"operator","type":"address","internalType":"address"},{"name":"approved","type":"bool","internalType":"bool"}],"outputs":[],"stateMutability":"nonpayable"},{"type":"function","name":"supportsInterface","inputs":[{"name":"interfaceId","type":"bytes4","internalType":"bytes4"}],"outputs":[{"name":"","type":"bool","internalType":"bool"}],"stateMutability":"view"},{"type":"function","name":"symbol","inputs":[],"outputs":[{"name":"","type":"string","internalType":"string"}],"stateMutability":"view"},{"type":"function","name":"tokenByIndex","inputs":[{"name":"index","type":"uint256","internalType":"uint256"}],"outputs":[{"name":"","type":"uint256","internalType":"uint256"}],"stateMutability":"view"},{"type":"function","name":"tokenOfOwnerByIndex","inputs":[{"name":"owner","type":"address","internalType":"address"},{"name":"index","type":"uint256","internalType":"uint256"}],"outputs":[{"name":"","type":"uint256","internalType":"uint256"}],"stateMutability":"view"},{"type":"function","name":"tokenURI","inputs":[{"name":"_tokenId","type":"uint256","internalType":"uint256"}],"outputs":[{"name":"","type":"string","internalType":"string"}],"stateMutability":"view"},{"type":"function","name":"totalSupply","inputs":[],"outputs":[{"name":"","type":"uint256","internalType":"uint256"}],"stateMutability":"view"},{"type":"function","name":"transferFrom","inputs":[{"name":"from","type":"address","internalType":"address"},{"name":"to","type":"address","internalType":"address"},{"name":"tokenId","type":"uint256","internalType":"uint256"}],"outputs":[],"stateMutability":"nonpayable"},{"type":"function","name":"transferOwnership","inputs":[{"name":"newOwner","type":"address","internalType":"address"}],"outputs":[],"stateMutability":"nonpayable"},{"type":"function","name":"updateRoot","inputs":[{"name":"_root","type":"bytes32","internalType":"bytes32"}],"outputs":[],"stateMutability":"nonpayable"},{"type":"function","name":"upgradeToAndCall","inputs":[{"name":"newImplementation","type":"address","internalType":"address"},{"name":"data","type":"bytes","internalType":"bytes"}],"outputs":[],"stateMutability":"payable"},{"type":"event","name":"Approval","inputs":[{"name":"owner","type":"address","indexed":true,"internalType":"address"},{"name":"approved","type":"address","indexed":true,"internalType":"address"},{"name":"tokenId","type":"uint256","indexed":true,"internalType":"uint256"}],"anonymous":false},{"type":"event","name":"ApprovalForAll","inputs":[{"name":"owner","type":"address","indexed":true,"internalType":"address"},{"name":"operator","type":"address","indexed":true,"internalType":"address"},{"name":"approved","type":"bool","indexed":false,"internalType":"bool"}],"anonymous":false},{"type":"event","name":"Initialized","inputs":[{"name":"version","type":"uint64","indexed":false,"internalType":"uint64"}],"anonymous":false},{"type":"event","name":"MintConsumed","inputs":[{"name":"_minter","type":"address","indexed":false,"internalType":"address"},{"name":"_mintAmount","type":"uint256","indexed":false,"internalType":"uint256"}],"anonymous":false},{"type":"event","name":"OwnershipTransferStarted","inputs":[{"name":"previousOwner","type":"address","indexed":true,"internalType":"address"},{"name":"newOwner","type":"address","indexed":true,"internalType":"address"}],"anonymous":false},{"type":"event","name":"OwnershipTransferred","inputs":[{"name":"previousOwner","type":"address","indexed":true,"internalType":"address"},{"name":"newOwner","type":"address","indexed":true,"internalType":"address"}],"anonymous":false},{"type":"event","name":"RootUpdated","inputs":[{"name":"_root","type":"bytes32","indexed":false,"internalType":"bytes32"}],"anonymous":false},{"type":"event","name":"Transfer","inputs":[{"name":"from","type":"address","indexed":true,"internalType":"address"},{"name":"to","type":"address","indexed":true,"internalType":"address"},{"name":"tokenId","type":"uint256","indexed":true,"internalType":"uint256"}],"anonymous":false},{"type":"event","name":"Upgraded","inputs":[{"name":"implementation","type":"address","indexed":true,"internalType":"address"}],"anonymous":false},{"type":"error","name":"AddressEmptyCode","inputs":[{"name":"target","type":"address","internalType":"address"}]},{"type":"error","name":"ERC1967InvalidImplementation","inputs":[{"name":"implementation","type":"address","internalType":"address"}]},{"type":"error","name":"ERC1967NonPayable","inputs":[]},{"type":"error","name":"ERC721EnumerableForbiddenBatchMint","inputs":[]},{"type":"error","name":"ERC721IncorrectOwner","inputs":[{"name":"sender","type":"address","internalType":"address"},{"name":"tokenId","type":"uint256","internalType":"uint256"},{"name":"owner","type":"address","internalType":"address"}]},{"type":"error","name":"ERC721InsufficientApproval","inputs":[{"name":"operator","type":"address","internalType":"address"},{"name":"tokenId","type":"uint256","internalType":"uint256"}]},{"type":"error","name":"ERC721InvalidApprover","inputs":[{"name":"approver","type":"address","internalType":"address"}]},{"type":"error","name":"ERC721InvalidOperator","inputs":[{"name":"operator","type":"address","internalType":"address"}]},{"type":"error","name":"ERC721InvalidOwner","inputs":[{"name":"owner","type":"address","internalType":"address"}]},{"type":"error","name":"ERC721InvalidReceiver","inputs":[{"name":"receiver","type":"address","internalType":"address"}]},{"type":"error","name":"ERC721InvalidSender","inputs":[{"name":"sender","type":"address","internalType":"address"}]},{"type":"error","name":"ERC721NonexistentToken","inputs":[{"name":"tokenId","type":"uint256","internalType":"uint256"}]},{"type":"error","name":"ERC721OutOfBoundsIndex","inputs":[{"name":"owner","type":"address","internalType":"address"},{"name":"index","type":"uint256","internalType":"uint256"}]},{"type":"error","name":"FailedInnerCall","inputs":[]},{"type":"error","name":"INVALID_PROOF","inputs":[]},{"type":"error","name":"INVALID_TOKEN_AMOUNT","inputs":[]},{"type":"error","name":"InvalidInitialization","inputs":[]},{"type":"error","name":"MAX_MINTS_EXCEEDED","inputs":[]},{"type":"error","name":"MAX_SUPPLY_REACHED","inputs":[]},{"type":"error","name":"MINTER_NOT_WHITELISTED","inputs":[]},{"type":"error","name":"MINTS_EXCEEDED","inputs":[]},{"type":"error","name":"NotInitializing","inputs":[]},{"type":"error","name":"OwnableInvalidOwner","inputs":[{"name":"owner","type":"address","internalType":"address"}]},{"type":"error","name":"OwnableUnauthorizedAccount","inputs":[{"name":"account","type":"address","internalType":"address"}]},{"type":"error","name":"TOKEN_NOT_MINTED","inputs":[]},{"type":"error","name":"UUPSUnauthorizedCallContext","inputs":[]},{"type":"error","name":"UUPSUnsupportedProxiableUUID","inputs":[{"name":"slot","type":"bytes32","internalType":"bytes32"}]}],"bytecode":{"object":"0x60a06040523060805234801562000014575f80fd5b506200001f62000025565b620000d9565b7ff0c57e16840df040f15088dc2f81fe391c3923bec73e23a9662efc9c229c6a00805468010000000000000000900460ff1615620000765760405163f92ee8a960e01b815260040160405180910390fd5b80546001600160401b0390811614620000d65780546001600160401b0319166001600160401b0390811782556040519081527fc7f505b2f371ae2175ee4913f4499e1f2633a7b5936321eed1cdaeb6115181d29060200160405180910390a15b50565b60805161294e620001005f395f81816112b6015281816112df015261141e015261294e5ff3fe6080604052600436106101f1575f3560e01c8063715018a611610108578063be13f47c1161009d578063d83b2bf81161006d578063d83b2bf814610587578063e30c3978146105a6578063e985e9c5146105ba578063ebf0c717146105d9578063f2fde38b146105ed575f80fd5b8063be13f47c14610516578063c87b56dd14610535578063ca303fc714610554578063d5abeb0114610573575f80fd5b806395d89b41116100d857806395d89b4114610494578063a22cb465146104a8578063ad3cb1cc146104c7578063b88d4fde146104f7575f80fd5b8063715018a61461042a57806379ba50971461043e5780638ccc5f80146104525780638da5cb5b14610480575f80fd5b80632f745c59116101895780634f1ef286116101595780634f1ef286146103a65780634f6ccce7146103b957806352d1902d146103d85780636352211e146103ec57806370a082311461040b575f80fd5b80632f745c591461031d57806340c10f191461033c57806342842e0e1461036857806345de0d9b14610387575f80fd5b80630d5e34a4116101c45780630d5e34a4146102a257806318160ddd146102c157806321ff9970146102df57806323b872dd146102fe575f80fd5b806301ffc9a7146101f557806306fdde0314610229578063081812fc1461024a578063095ea7b314610281575b5f80fd5b348015610200575f80fd5b5061021461020f366004612211565b61060c565b60405190151581526020015b60405180910390f35b348015610234575f80fd5b5061023d610636565b6040516102209190612279565b348015610255575f80fd5b5061026961026436600461228b565b6106d7565b6040516001600160a01b039091168152602001610220565b34801561028c575f80fd5b506102a061029b3660046122bd565b6106eb565b005b3480156102ad575f80fd5b506102146102bc3660046122bd565b6106fa565b3480156102cc575f80fd5b506032545b604051908152602001610220565b3480156102ea575f80fd5b506102a06102f936600461228b565b610720565b348015610309575f80fd5b506102a06103183660046122e5565b610734565b348015610328575f80fd5b506102d16103373660046122bd565b6107c2565b348015610347575f80fd5b5061035b6103563660046122bd565b610833565b604051610220919061231e565b348015610373575f80fd5b506102a06103823660046122e5565b61084e565b348015610392575f80fd5b5061035b6103a1366004612361565b61086d565b6102a06103b4366004612478565b6108b3565b3480156103c4575f80fd5b506102d16103d336600461228b565b6108ce565b3480156103e3575f80fd5b506102d1610930565b3480156103f7575f80fd5b5061026961040636600461228b565b61094b565b348015610416575f80fd5b506102d16104253660046124c2565b610955565b348015610435575f80fd5b506102a06109ad565b348015610449575f80fd5b506102a06109c0565b34801561045d575f80fd5b5061021461046c36600461228b565b60016020525f908152604090205460ff1681565b34801561048b575f80fd5b50610269610a05565b34801561049f575f80fd5b5061023d610a39565b3480156104b3575f80fd5b506102a06104c23660046124db565b610a77565b3480156104d2575f80fd5b5061023d604051806040016040528060058152602001640352e302e360dc1b81525081565b348015610502575f80fd5b506102a0610511366004612514565b610a82565b348015610521575f80fd5b506102a06105303660046122bd565b610a99565b348015610540575f80fd5b5061023d61054f36600461228b565b610b95565b34801561055f575f80fd5b506102a061056e366004612577565b610bf2565b34801561057e575f80fd5b506103786102d1565b348015610592575f80fd5b506102d16105a13660046122bd565b610d41565b3480156105b1575f80fd5b50610269610d9a565b3480156105c5575f80fd5b506102146105d43660046125dc565b610dc2565b3480156105e4575f80fd5b506102d15f5481565b3480156105f8575f80fd5b506102a06106073660046124c2565b610e0e565b5f6001600160e01b0319821663780e9d6360e01b1480610630575061063082610e93565b92915050565b5f805160206128b983398151915280546060919081906106559061260d565b80601f01602080910402602001604051908101604052809291908181526020018280546106819061260d565b80156106cc5780601f106106a3576101008083540402835291602001916106cc565b820191905f5260205f20905b8154815290600101906020018083116106af57829003601f168201915b505050505091505090565b5f6106e182610ee2565b5061063082610f19565b6106f6828233610f52565b5050565b5f806107068484610d41565b5f9081526001602052604090205460ff1615949350505050565b610728610f5f565b61073181610f91565b50565b6001600160a01b03821661076257604051633250574960e11b81525f60048201526024015b60405180910390fd5b5f61076e838333610fcb565b9050836001600160a01b0316816001600160a01b0316146107bc576040516364283d7b60e01b81526001600160a01b0380861660048301526024820184905282166044820152606401610759565b50505050565b5f5f805160206128998339815191526107da84610955565b831061080b5760405163295f44f760e21b81526001600160a01b038516600482015260248101849052604401610759565b6001600160a01b0384165f908152602091825260408082208583529092522054905092915050565b606061083d610f5f565b61084783836110d4565b9392505050565b61086883838360405180602001604052805f815250610a82565b505050565b606061087933836106fa565b61089657604051632121afc960e21b815260040160405180910390fd5b6108a18484846111b8565b6108ab33836110d4565b949350505050565b6108bb6112ab565b6108c48261134f565b6106f68282611357565b6032545f905f8051602061289983398151915290831061090a5760405163295f44f760e21b81525f600482015260248101849052604401610759565b80600201838154811061091f5761091f612645565b905f5260205f200154915050919050565b5f610939611413565b505f805160206128d983398151915290565b5f61063082610ee2565b5f5f805160206128b98339815191526001600160a01b03831661098d576040516322718ad960e21b81525f6004820152602401610759565b6001600160a01b039092165f908152600390920160205250604090205490565b6109b5610f5f565b6109be5f61145c565b565b33806109ca610d9a565b6001600160a01b0316146109fc5760405163118cdaa760e01b81526001600160a01b0382166004820152602401610759565b6107318161145c565b5f807f9016d09d72d40fdae2fd8ceac6b6234c7706214fd39c1cd1e609a0528c1993005b546001600160a01b031692915050565b7f80bb2b638cc20bc4d0a60d66940f3ab4a00c1d7b313497ca82fb0b4ab007930180546060915f805160206128b9833981519152916106559061260d565b6106f6338383611494565b610a8d848484610734565b6107bc84848484611543565b5f805160206128f98339815191528054600160401b810460ff1615906001600160401b03165f81158015610aca5750825b90505f826001600160401b03166001148015610ae55750303b155b905081158015610af3575080155b15610b115760405163f92ee8a960e01b815260040160405180910390fd5b845467ffffffffffffffff191660011785558315610b3b57845460ff60401b1916600160401b1785555b610b458787611669565b8315610b8c57845460ff60401b19168555604051600181527fc7f505b2f371ae2175ee4913f4499e1f2633a7b5936321eed1cdaeb6115181d2906020015b60405180910390a15b50505050505050565b6060603254821115610bba5760405163141ec79160e21b815260040160405180910390fd5b610bc2611777565b610bcb83611807565b604051602001610bdc929190612659565b6040516020818303038152906040529050919050565b5f805160206128f98339815191528054600160401b810460ff1615906001600160401b03165f81158015610c235750825b90505f826001600160401b03166001148015610c3e5750303b155b905081158015610c4c575080155b15610c6a5760405163f92ee8a960e01b815260040160405180910390fd5b845467ffffffffffffffff191660011785558315610c9457845460ff60401b1916600160401b1785555b610cda604051806040016040528060078152602001662a30b4b5b7b7b760c91b815250604051806040016040528060058152602001642a25a7a7a760d91b815250611896565b610ce48887611669565b6033610cf088826126ea565b508315610d3757845460ff60401b19168555604051600181527fc7f505b2f371ae2175ee4913f4499e1f2633a7b5936321eed1cdaeb6115181d29060200160405180910390a15b5050505050505050565b604080516001600160a01b03841660208201529081018290525f9060600160408051601f198184030181528282528051602091820120908301520160405160208183030381529060405280519060200120905092915050565b5f807f237e158222e3e6968b72b9db0d8043aacf074ad9f650f0d1606b4d82ee432c00610a29565b6001600160a01b039182165f9081527f80bb2b638cc20bc4d0a60d66940f3ab4a00c1d7b313497ca82fb0b4ab00793056020908152604080832093909416825291909152205460ff1690565b610e16610f5f565b7f237e158222e3e6968b72b9db0d8043aacf074ad9f650f0d1606b4d82ee432c0080546001600160a01b0319166001600160a01b0383169081178255610e5a610a05565b6001600160a01b03167f38d16b8cac22d99fc7c124b9cd0de2d3fa1faef420bfe791d8c362d765e2270060405160405180910390a35050565b5f6001600160e01b031982166380ac58cd60e01b1480610ec357506001600160e01b03198216635b5e139f60e01b145b8061063057506301ffc9a760e01b6001600160e01b0319831614610630565b5f80610eed836118a8565b90506001600160a01b03811661063057604051637e27328960e01b815260048101849052602401610759565b5f9081527f80bb2b638cc20bc4d0a60d66940f3ab4a00c1d7b313497ca82fb0b4ab007930460205260409020546001600160a01b031690565b61086883838360016118e1565b33610f68610a05565b6001600160a01b0316146109be5760405163118cdaa760e01b8152336004820152602401610759565b5f8190556040518181527f2cbc14f49c068133583f7cb530018af451c87c1cf1327cf2a4ff4698c4730aa49060200160405180910390a150565b5f80610fd88585856119f4565b90506001600160a01b0381166110725761106d847f645e039705490088daad89bae25049a34f4a9072d398537b1ab2425f24cbed0280545f8381527f645e039705490088daad89bae25049a34f4a9072d398537b1ab2425f24cbed0360205260408120829055600182018355919091527fa42f15e5d656f8155fd7419d740a6073999f19cd6e061449ce4a257150545bf20155565b611095565b846001600160a01b0316816001600160a01b031614611095576110958185611af6565b6001600160a01b0385166110b1576110ac84611b95565b6108ab565b846001600160a01b0316816001600160a01b0316146108ab576108ab8585611c75565b6060610378826032546110e791906127bd565b11156111065760405163fb67a12d60e01b815260040160405180910390fd5b816001600160401b0381111561111e5761111e6123d4565b604051908082528060200260200182016040528015611147578160200160208202803683370190505b5090505f5b828110156111b15760325f8154611162906127d0565b91905081905582828151811061117a5761117a612645565b6020026020010181815250506111a98483838151811061119c5761119c612645565b6020026020010151611ccd565b60010161114c565b5092915050565b6111c233826106fa565b6111df57604051639ea134e960e01b815260040160405180910390fd5b5f6111ea3383610d41565b905061122a8484808060200260200160405190810160405280939291908181526020018383602002808284375f920182905250549250859150611d2e9050565b6112475760405163712eb08760e01b815260040160405180910390fd5b5f818152600160208190526040909120805460ff191690911790557ff71d0afb6ca23454b34db8bf7baf45f79e8c2f41e5499375ea2289312b2d317b33604080516001600160a01b039092168252602082018590520160405180910390a150505050565b306001600160a01b037f000000000000000000000000000000000000000000000000000000000000000016148061133157507f00000000000000000000000000000000000000000000000000000000000000006001600160a01b03166113255f805160206128d9833981519152546001600160a01b031690565b6001600160a01b031614155b156109be5760405163703e46dd60e11b815260040160405180910390fd5b610731610f5f565b816001600160a01b03166352d1902d6040518163ffffffff1660e01b8152600401602060405180830381865afa9250505080156113b1575060408051601f3d908101601f191682019092526113ae918101906127e8565b60015b6113d957604051634c9c8ce360e01b81526001600160a01b0383166004820152602401610759565b5f805160206128d9833981519152811461140957604051632a87526960e21b815260048101829052602401610759565b6108688383611d43565b306001600160a01b037f000000000000000000000000000000000000000000000000000000000000000016146109be5760405163703e46dd60e11b815260040160405180910390fd5b7f237e158222e3e6968b72b9db0d8043aacf074ad9f650f0d1606b4d82ee432c0080546001600160a01b03191681556106f682611d98565b5f805160206128b98339815191526001600160a01b0383166114d457604051630b61174360e31b81526001600160a01b0384166004820152602401610759565b6001600160a01b038481165f818152600584016020908152604080832094881680845294825291829020805460ff191687151590811790915591519182527f17307eab39ab6107e8899845ad3d59bd9653f200f220920489ca2b5937696c31910160405180910390a350505050565b6001600160a01b0383163b156107bc57604051630a85bd0160e11b81526001600160a01b0384169063150b7a02906115859033908890879087906004016127ff565b6020604051808303815f875af19250505080156115bf575060408051601f3d908101601f191682019092526115bc9181019061283b565b60015b611626573d8080156115ec576040519150601f19603f3d011682016040523d82523d5f602084013e6115f1565b606091505b5080515f0361161e57604051633250574960e11b81526001600160a01b0385166004820152602401610759565b805181602001fd5b6001600160e01b03198116630a85bd0160e11b1461166257604051633250574960e11b81526001600160a01b0385166004820152602401610759565b5050505050565b5f805160206128f98339815191528054600160401b810460ff1615906001600160401b03165f8115801561169a5750825b90505f826001600160401b031660011480156116b55750303b155b9050811580156116c3575080155b156116e15760405163f92ee8a960e01b815260040160405180910390fd5b845467ffffffffffffffff19166001178555831561170b57845460ff60401b1916600160401b1785555b6117296001600160a01b03881615611723578761145c565b3361145c565b611731611e08565b5f8690558315610b8c57845460ff60401b19168555604051600181527fc7f505b2f371ae2175ee4913f4499e1f2633a7b5936321eed1cdaeb6115181d290602001610b83565b6060603380546117869061260d565b80601f01602080910402602001604051908101604052809291908181526020018280546117b29061260d565b80156117fd5780601f106117d4576101008083540402835291602001916117fd565b820191905f5260205f20905b8154815290600101906020018083116117e057829003601f168201915b5050505050905090565b60605f61181383611e10565b60010190505f816001600160401b03811115611831576118316123d4565b6040519080825280601f01601f19166020018201604052801561185b576020820181803683370190505b5090508181016020015b5f19016f181899199a1a9b1b9c1cb0b131b232b360811b600a86061a8153600a850494508461186557509392505050565b61189e611ee7565b6106f68282611f1d565b5f9081527f80bb2b638cc20bc4d0a60d66940f3ab4a00c1d7b313497ca82fb0b4ab007930260205260409020546001600160a01b031690565b5f805160206128b9833981519152818061190357506001600160a01b03831615155b156119c4575f61191285610ee2565b90506001600160a01b0384161580159061193e5750836001600160a01b0316816001600160a01b031614155b8015611951575061194f8185610dc2565b155b1561197a5760405163a9fbf51f60e01b81526001600160a01b0385166004820152602401610759565b82156119c25784866001600160a01b0316826001600160a01b03167f8c5be1e5ebec7d5bd14f71427d1e84f3dd0314c0f7b2291e5b200ac8c7c3b92560405160405180910390a45b505b5f93845260040160205250506040902080546001600160a01b0319166001600160a01b0392909216919091179055565b5f5f805160206128b983398151915281611a0d856118a8565b90506001600160a01b03841615611a2957611a29818587611f4d565b6001600160a01b03811615611a6557611a445f865f806118e1565b6001600160a01b0381165f908152600383016020526040902080545f190190555b6001600160a01b03861615611a95576001600160a01b0386165f9081526003830160205260409020805460010190555b5f85815260028301602052604080822080546001600160a01b0319166001600160a01b038a811691821790925591518893918516917fddf252ad1be2c89b69c2b068fc378daa952ba7f163c4a11628f55a4df523b3ef91a495945050505050565b5f805160206128998339815191525f611b0e84610955565b5f848152600184016020526040902054909150808214611b61576001600160a01b0385165f9081526020848152604080832085845282528083205484845281842081905583526001860190915290208190555b505f92835260018201602090815260408085208590556001600160a01b039095168452918252838320908352905290812055565b7f645e039705490088daad89bae25049a34f4a9072d398537b1ab2425f24cbed02545f80516020612899833981519152905f90611bd490600190612856565b5f848152600384016020526040812054600285018054939450909284908110611bff57611bff612645565b905f5260205f200154905080846002018381548110611c2057611c20612645565b5f91825260208083209091019290925582815260038601909152604080822084905586825281205560028401805480611c5b57611c5b612869565b600190038181905f5260205f20015f905590555050505050565b5f805160206128998339815191525f6001611c8f85610955565b611c999190612856565b6001600160a01b039094165f9081526020838152604080832087845282528083208690559482526001909301909252502055565b6001600160a01b038216611cf657604051633250574960e11b81525f6004820152602401610759565b5f611d0283835f610fcb565b90506001600160a01b03811615610868576040516339e3563760e11b81525f6004820152602401610759565b5f82611d3a8584611fb1565b14949350505050565b611d4c82611ff3565b6040516001600160a01b038316907fbc7cd75a20ee27fd9adebab32041f755214dbc6bffa90cc0225b39da2e5c2d3b905f90a2805115611d90576108688282612056565b6106f66120c8565b7f9016d09d72d40fdae2fd8ceac6b6234c7706214fd39c1cd1e609a0528c19930080546001600160a01b031981166001600160a01b03848116918217845560405192169182907f8be0079c531659141344cd1fd0a4f28419497f9722a3daafe3b4186f6b6457e0905f90a3505050565b6109be611ee7565b5f8072184f03e93ff9f4daa797ed6e38ed64bf6a1f0160401b8310611e4e5772184f03e93ff9f4daa797ed6e38ed64bf6a1f0160401b830492506040015b6d04ee2d6d415b85acef81000000008310611e7a576d04ee2d6d415b85acef8100000000830492506020015b662386f26fc100008310611e9857662386f26fc10000830492506010015b6305f5e1008310611eb0576305f5e100830492506008015b6127108310611ec457612710830492506004015b60648310611ed6576064830492506002015b600a83106106305760010192915050565b5f805160206128f983398151915254600160401b900460ff166109be57604051631afcd79f60e31b815260040160405180910390fd5b611f25611ee7565b5f805160206128b983398151915280611f3e84826126ea565b50600181016107bc83826126ea565b611f588383836120e7565b610868576001600160a01b038316611f8657604051637e27328960e01b815260048101829052602401610759565b60405163177e802f60e01b81526001600160a01b038316600482015260248101829052604401610759565b5f81815b8451811015611feb57611fe182868381518110611fd457611fd4612645565b602002602001015161214b565b9150600101611fb5565b509392505050565b806001600160a01b03163b5f0361202857604051634c9c8ce360e01b81526001600160a01b0382166004820152602401610759565b5f805160206128d983398151915280546001600160a01b0319166001600160a01b0392909216919091179055565b60605f80846001600160a01b031684604051612072919061287d565b5f60405180830381855af49150503d805f81146120aa576040519150601f19603f3d011682016040523d82523d5f602084013e6120af565b606091505b50915091506120bf858383612177565b95945050505050565b34156109be5760405163b398979f60e01b815260040160405180910390fd5b5f6001600160a01b038316158015906108ab5750826001600160a01b0316846001600160a01b0316148061212057506121208484610dc2565b806108ab5750826001600160a01b031661213983610f19565b6001600160a01b031614949350505050565b5f818310612165575f828152602084905260409020610847565b5f838152602083905260409020610847565b60608261218c57612187826121d3565b610847565b81511580156121a357506001600160a01b0384163b155b156121cc57604051639996b31560e01b81526001600160a01b0385166004820152602401610759565b5080610847565b8051156121e35780518082602001fd5b604051630a12f52160e11b815260040160405180910390fd5b6001600160e01b031981168114610731575f80fd5b5f60208284031215612221575f80fd5b8135610847816121fc565b5f5b8381101561224657818101518382015260200161222e565b50505f910152565b5f815180845261226581602086016020860161222c565b601f01601f19169290920160200192915050565b602081525f610847602083018461224e565b5f6020828403121561229b575f80fd5b5035919050565b80356001600160a01b03811681146122b8575f80fd5b919050565b5f80604083850312156122ce575f80fd5b6122d7836122a2565b946020939093013593505050565b5f805f606084860312156122f7575f80fd5b612300846122a2565b925061230e602085016122a2565b9150604084013590509250925092565b602080825282518282018190525f9190848201906040850190845b8181101561235557835183529284019291840191600101612339565b50909695505050505050565b5f805f60408486031215612373575f80fd5b83356001600160401b0380821115612389575f80fd5b818601915086601f83011261239c575f80fd5b8135818111156123aa575f80fd5b8760208260051b85010111156123be575f80fd5b6020928301989097509590910135949350505050565b634e487b7160e01b5f52604160045260245ffd5b5f6001600160401b0380841115612401576124016123d4565b604051601f8501601f19908116603f01168101908282118183101715612429576124296123d4565b81604052809350858152868686011115612441575f80fd5b858560208301375f602087830101525050509392505050565b5f82601f830112612469575f80fd5b610847838335602085016123e8565b5f8060408385031215612489575f80fd5b612492836122a2565b915060208301356001600160401b038111156124ac575f80fd5b6124b88582860161245a565b9150509250929050565b5f602082840312156124d2575f80fd5b610847826122a2565b5f80604083850312156124ec575f80fd5b6124f5836122a2565b915060208301358015158114612509575f80fd5b809150509250929050565b5f805f8060808587031215612527575f80fd5b612530856122a2565b935061253e602086016122a2565b92506040850135915060608501356001600160401b0381111561255f575f80fd5b61256b8782880161245a565b91505092959194509250565b5f805f60608486031215612589575f80fd5b612592846122a2565b925060208401356001600160401b038111156125ac575f80fd5b8401601f810186136125bc575f80fd5b6125cb868235602084016123e8565b925050604084013590509250925092565b5f80604083850312156125ed575f80fd5b6125f6836122a2565b9150612604602084016122a2565b90509250929050565b600181811c9082168061262157607f821691505b60208210810361263f57634e487b7160e01b5f52602260045260245ffd5b50919050565b634e487b7160e01b5f52603260045260245ffd5b5f835161266a81846020880161222c565b602f60f81b908301908152835161268881600184016020880161222c565b64173539b7b760d91b60019290910191820152600601949350505050565b601f82111561086857805f5260205f20601f840160051c810160208510156126cb5750805b601f840160051c820191505b81811015611662575f81556001016126d7565b81516001600160401b03811115612703576127036123d4565b61271781612711845461260d565b846126a6565b602080601f83116001811461274a575f84156127335750858301515b5f19600386901b1c1916600185901b1785556127a1565b5f85815260208120601f198616915b8281101561277857888601518255948401946001909101908401612759565b508582101561279557878501515f19600388901b60f8161c191681555b505060018460011b0185555b505050505050565b634e487b7160e01b5f52601160045260245ffd5b80820180821115610630576106306127a9565b5f600182016127e1576127e16127a9565b5060010190565b5f602082840312156127f8575f80fd5b5051919050565b6001600160a01b03858116825284166020820152604081018390526080606082018190525f906128319083018461224e565b9695505050505050565b5f6020828403121561284b575f80fd5b8151610847816121fc565b81810381811115610630576106306127a9565b634e487b7160e01b5f52603160045260245ffd5b5f825161288e81846020870161222c565b919091019291505056fe645e039705490088daad89bae25049a34f4a9072d398537b1ab2425f24cbed0080bb2b638cc20bc4d0a60d66940f3ab4a00c1d7b313497ca82fb0b4ab0079300360894a13ba1a3210667c828492db98dca3e2076cc3735a920a3ca505d382bbcf0c57e16840df040f15088dc2f81fe391c3923bec73e23a9662efc9c229c6a00a2646970667358221220a5341349f39d7e8221a914f030c93c4cffc78d583f6eb0eb75c0f54fd9c0d3ca64736f6c63430008180033","linkReferences":{}},"methodIdentifiers":{"UPGRADE_INTERFACE_VERSION()":"ad3cb1cc","acceptOwnership()":"79ba5097","approve(address,uint256)":"095ea7b3","balanceOf(address)":"70a08231","canMint(address,uint256)":"0d5e34a4","getApproved(uint256)":"081812fc","initialize(address,bytes32)":"be13f47c","initialize(address,string,bytes32)":"ca303fc7","isApprovedForAll(address,address)":"e985e9c5","leaf(address,uint256)":"d83b2bf8","maxSupply()":"d5abeb01","mint(address,uint256)":"40c10f19","mint(bytes32[],uint256)":"45de0d9b","minted(bytes32)":"8ccc5f80","name()":"06fdde03","owner()":"8da5cb5b","ownerOf(uint256)":"6352211e","pendingOwner()":"e30c3978","proxiableUUID()":"52d1902d","renounceOwnership()":"715018a6","root()":"ebf0c717","safeTransferFrom(address,address,uint256)":"42842e0e","safeTransferFrom(address,address,uint256,bytes)":"b88d4fde","setApprovalForAll(address,bool)":"a22cb465","supportsInterface(bytes4)":"01ffc9a7","symbol()":"95d89b41","tokenByIndex(uint256)":"4f6ccce7","tokenOfOwnerByIndex(address,uint256)":"2f745c59","tokenURI(uint256)":"c87b56dd","totalSupply()":"18160ddd","transferFrom(address,address,uint256)":"23b872dd","transferOwnership(address)":"f2fde38b","updateRoot(bytes32)":"21ff9970","upgradeToAndCall(address,bytes)":"4f1ef286"},"id":1}