{"abi":[{"type":"function","name":"DEFAULT_ADMIN_ROLE","inputs":[],"outputs":[{"name":"","type":"bytes32","internalType":"bytes32"}],"stateMutability":"view"},{"type":"function","name":"MINTER_ROLE","inputs":[],"outputs":[{"name":"","type":"bytes32","internalType":"bytes32"}],"stateMutability":"view"},{"type":"function","name":"UPGRADE_INTERFACE_VERSION","inputs":[],"outputs":[{"name":"","type":"string","internalType":"string"}],"stateMutability":"view"},{"type":"function","name":"acceptOwnership","inputs":[],"outputs":[],"stateMutability":"nonpayable"},{"type":"function","name":"balanceOf","inputs":[{"name":"account","type":"address","internalType":"address"},{"name":"id","type":"uint256","internalType":"uint256"}],"outputs":[{"name":"","type":"uint256","internalType":"uint256"}],"stateMutability":"view"},{"type":"function","name":"balanceOfBatch","inputs":[{"name":"accounts","type":"address[]","internalType":"address[]"},{"name":"ids","type":"uint256[]","internalType":"uint256[]"}],"outputs":[{"name":"","type":"uint256[]","internalType":"uint256[]"}],"stateMutability":"view"},{"type":"function","name":"exists","inputs":[{"name":"id","type":"uint256","internalType":"uint256"}],"outputs":[{"name":"","type":"bool","internalType":"bool"}],"stateMutability":"view"},{"type":"function","name":"getBadge","inputs":[{"name":"_tokenId","type":"uint256","internalType":"uint256"}],"outputs":[{"name":"","type":"tuple","internalType":"struct TrailblazersBadgesS2.Badge","components":[{"name":"tokenId","type":"uint256","internalType":"uint256"},{"name":"badgeType","type":"uint8","internalType":"enum TrailblazersBadgesS2.BadgeType"},{"name":"movementType","type":"uint8","internalType":"enum TrailblazersBadgesS2.MovementType"}]}],"stateMutability":"view"},{"type":"function","name":"getRoleAdmin","inputs":[{"name":"role","type":"bytes32","internalType":"bytes32"}],"outputs":[{"name":"","type":"bytes32","internalType":"bytes32"}],"stateMutability":"view"},{"type":"function","name":"grantRole","inputs":[{"name":"role","type":"bytes32","internalType":"bytes32"},{"name":"account","type":"address","internalType":"address"}],"outputs":[],"stateMutability":"nonpayable"},{"type":"function","name":"hasRole","inputs":[{"name":"role","type":"bytes32","internalType":"bytes32"},{"name":"account","type":"address","internalType":"address"}],"outputs":[{"name":"","type":"bool","internalType":"bool"}],"stateMutability":"view"},{"type":"function","name":"initialize","inputs":[{"name":"_minter","type":"address","internalType":"address"},{"name":"_uriTemplate","type":"string","internalType":"string"}],"outputs":[],"stateMutability":"nonpayable"},{"type":"function","name":"isApprovedForAll","inputs":[{"name":"account","type":"address","internalType":"address"},{"name":"operator","type":"address","internalType":"address"}],"outputs":[{"name":"","type":"bool","internalType":"bool"}],"stateMutability":"view"},{"type":"function","name":"mint","inputs":[{"name":"_to","type":"address","internalType":"address"},{"name":"_badgeType","type":"uint8","internalType":"enum TrailblazersBadgesS2.BadgeType"},{"name":"_movementType","type":"uint8","internalType":"enum TrailblazersBadgesS2.MovementType"}],"outputs":[],"stateMutability":"nonpayable"},{"type":"function","name":"minter","inputs":[],"outputs":[{"name":"","type":"address","internalType":"address"}],"stateMutability":"view"},{"type":"function","name":"owner","inputs":[],"outputs":[{"name":"","type":"address","internalType":"address"}],"stateMutability":"view"},{"type":"function","name":"pendingOwner","inputs":[],"outputs":[{"name":"","type":"address","internalType":"address"}],"stateMutability":"view"},{"type":"function","name":"proxiableUUID","inputs":[],"outputs":[{"name":"","type":"bytes32","internalType":"bytes32"}],"stateMutability":"view"},{"type":"function","name":"renounceOwnership","inputs":[],"outputs":[],"stateMutability":"nonpayable"},{"type":"function","name":"renounceRole","inputs":[{"name":"role","type":"bytes32","internalType":"bytes32"},{"name":"callerConfirmation","type":"address","internalType":"address"}],"outputs":[],"stateMutability":"nonpayable"},{"type":"function","name":"revokeRole","inputs":[{"name":"role","type":"bytes32","internalType":"bytes32"},{"name":"account","type":"address","internalType":"address"}],"outputs":[],"stateMutability":"nonpayable"},{"type":"function","name":"safeBatchTransferFrom","inputs":[{"name":"from","type":"address","internalType":"address"},{"name":"to","type":"address","internalType":"address"},{"name":"ids","type":"uint256[]","internalType":"uint256[]"},{"name":"values","type":"uint256[]","internalType":"uint256[]"},{"name":"data","type":"bytes","internalType":"bytes"}],"outputs":[],"stateMutability":"nonpayable"},{"type":"function","name":"safeTransferFrom","inputs":[{"name":"from","type":"address","internalType":"address"},{"name":"to","type":"address","internalType":"address"},{"name":"id","type":"uint256","internalType":"uint256"},{"name":"value","type":"uint256","internalType":"uint256"},{"name":"data","type":"bytes","internalType":"bytes"}],"outputs":[],"stateMutability":"nonpayable"},{"type":"function","name":"setApprovalForAll","inputs":[{"name":"operator","type":"address","internalType":"address"},{"name":"approved","type":"bool","internalType":"bool"}],"outputs":[],"stateMutability":"nonpayable"},{"type":"function","name":"setMinter","inputs":[{"name":"_minter","type":"address","internalType":"address"}],"outputs":[],"stateMutability":"nonpayable"},{"type":"function","name":"setUri","inputs":[{"name":"__uri","type":"string","internalType":"string"}],"outputs":[],"stateMutability":"nonpayable"},{"type":"function","name":"supportsInterface","inputs":[{"name":"_interfaceId","type":"bytes4","internalType":"bytes4"}],"outputs":[{"name":"","type":"bool","internalType":"bool"}],"stateMutability":"view"},{"type":"function","name":"totalSupply","inputs":[],"outputs":[{"name":"","type":"uint256","internalType":"uint256"}],"stateMutability":"view"},{"type":"function","name":"totalSupply","inputs":[{"name":"id","type":"uint256","internalType":"uint256"}],"outputs":[{"name":"","type":"uint256","internalType":"uint256"}],"stateMutability":"view"},{"type":"function","name":"transferOwnership","inputs":[{"name":"newOwner","type":"address","internalType":"address"}],"outputs":[],"stateMutability":"nonpayable"},{"type":"function","name":"upgradeToAndCall","inputs":[{"name":"newImplementation","type":"address","internalType":"address"},{"name":"data","type":"bytes","internalType":"bytes"}],"outputs":[],"stateMutability":"payable"},{"type":"function","name":"uri","inputs":[{"name":"_tokenId","type":"uint256","internalType":"uint256"}],"outputs":[{"name":"","type":"string","internalType":"string"}],"stateMutability":"view"},{"type":"function","name":"uri","inputs":[{"name":"_badgeType","type":"uint8","internalType":"enum TrailblazersBadgesS2.BadgeType"},{"name":"_movementType","type":"uint8","internalType":"enum TrailblazersBadgesS2.MovementType"}],"outputs":[{"name":"","type":"string","internalType":"string"}],"stateMutability":"view"},{"type":"function","name":"uriTemplate","inputs":[],"outputs":[{"name":"","type":"string","internalType":"string"}],"stateMutability":"view"},{"type":"function","name":"version","inputs":[],"outputs":[{"name":"","type":"string","internalType":"string"}],"stateMutability":"pure"},{"type":"event","name":"ApprovalForAll","inputs":[{"name":"account","type":"address","indexed":true,"internalType":"address"},{"name":"operator","type":"address","indexed":true,"internalType":"address"},{"name":"approved","type":"bool","indexed":false,"internalType":"bool"}],"anonymous":false},{"type":"event","name":"Initialized","inputs":[{"name":"version","type":"uint64","indexed":false,"internalType":"uint64"}],"anonymous":false},{"type":"event","name":"OwnershipTransferStarted","inputs":[{"name":"previousOwner","type":"address","indexed":true,"internalType":"address"},{"name":"newOwner","type":"address","indexed":true,"internalType":"address"}],"anonymous":false},{"type":"event","name":"OwnershipTransferred","inputs":[{"name":"previousOwner","type":"address","indexed":true,"internalType":"address"},{"name":"newOwner","type":"address","indexed":true,"internalType":"address"}],"anonymous":false},{"type":"event","name":"RoleAdminChanged","inputs":[{"name":"role","type":"bytes32","indexed":true,"internalType":"bytes32"},{"name":"previousAdminRole","type":"bytes32","indexed":true,"internalType":"bytes32"},{"name":"newAdminRole","type":"bytes32","indexed":true,"internalType":"bytes32"}],"anonymous":false},{"type":"event","name":"RoleGranted","inputs":[{"name":"role","type":"bytes32","indexed":true,"internalType":"bytes32"},{"name":"account","type":"address","indexed":true,"internalType":"address"},{"name":"sender","type":"address","indexed":true,"internalType":"address"}],"anonymous":false},{"type":"event","name":"RoleRevoked","inputs":[{"name":"role","type":"bytes32","indexed":true,"internalType":"bytes32"},{"name":"account","type":"address","indexed":true,"internalType":"address"},{"name":"sender","type":"address","indexed":true,"internalType":"address"}],"anonymous":false},{"type":"event","name":"TransferBatch","inputs":[{"name":"operator","type":"address","indexed":true,"internalType":"address"},{"name":"from","type":"address","indexed":true,"internalType":"address"},{"name":"to","type":"address","indexed":true,"internalType":"address"},{"name":"ids","type":"uint256[]","indexed":false,"internalType":"uint256[]"},{"name":"values","type":"uint256[]","indexed":false,"internalType":"uint256[]"}],"anonymous":false},{"type":"event","name":"TransferSingle","inputs":[{"name":"operator","type":"address","indexed":true,"internalType":"address"},{"name":"from","type":"address","indexed":true,"internalType":"address"},{"name":"to","type":"address","indexed":true,"internalType":"address"},{"name":"id","type":"uint256","indexed":false,"internalType":"uint256"},{"name":"value","type":"uint256","indexed":false,"internalType":"uint256"}],"anonymous":false},{"type":"event","name":"URI","inputs":[{"name":"value","type":"string","indexed":false,"internalType":"string"},{"name":"id","type":"uint256","indexed":true,"internalType":"uint256"}],"anonymous":false},{"type":"event","name":"Upgraded","inputs":[{"name":"implementation","type":"address","indexed":true,"internalType":"address"}],"anonymous":false},{"type":"error","name":"AccessControlBadConfirmation","inputs":[]},{"type":"error","name":"AccessControlUnauthorizedAccount","inputs":[{"name":"account","type":"address","internalType":"address"},{"name":"neededRole","type":"bytes32","internalType":"bytes32"}]},{"type":"error","name":"AddressEmptyCode","inputs":[{"name":"target","type":"address","internalType":"address"}]},{"type":"error","name":"ERC1155InsufficientBalance","inputs":[{"name":"sender","type":"address","internalType":"address"},{"name":"balance","type":"uint256","internalType":"uint256"},{"name":"needed","type":"uint256","internalType":"uint256"},{"name":"tokenId","type":"uint256","internalType":"uint256"}]},{"type":"error","name":"ERC1155InvalidApprover","inputs":[{"name":"approver","type":"address","internalType":"address"}]},{"type":"error","name":"ERC1155InvalidArrayLength","inputs":[{"name":"idsLength","type":"uint256","internalType":"uint256"},{"name":"valuesLength","type":"uint256","internalType":"uint256"}]},{"type":"error","name":"ERC1155InvalidOperator","inputs":[{"name":"operator","type":"address","internalType":"address"}]},{"type":"error","name":"ERC1155InvalidReceiver","inputs":[{"name":"receiver","type":"address","internalType":"address"}]},{"type":"error","name":"ERC1155InvalidSender","inputs":[{"name":"sender","type":"address","internalType":"address"}]},{"type":"error","name":"ERC1155MissingApprovalForAll","inputs":[{"name":"operator","type":"address","internalType":"address"},{"name":"owner","type":"address","internalType":"address"}]},{"type":"error","name":"ERC1967InvalidImplementation","inputs":[{"name":"implementation","type":"address","internalType":"address"}]},{"type":"error","name":"ERC1967NonPayable","inputs":[]},{"type":"error","name":"FailedInnerCall","inputs":[]},{"type":"error","name":"InvalidInitialization","inputs":[]},{"type":"error","name":"NOT_MINTER","inputs":[]},{"type":"error","name":"NotInitializing","inputs":[]},{"type":"error","name":"OwnableInvalidOwner","inputs":[{"name":"owner","type":"address","internalType":"address"}]},{"type":"error","name":"OwnableUnauthorizedAccount","inputs":[{"name":"account","type":"address","internalType":"address"}]},{"type":"error","name":"TOKEN_NOT_MINTED","inputs":[]},{"type":"error","name":"UUPSUnauthorizedCallContext","inputs":[]},{"type":"error","name":"UUPSUnsupportedProxiableUUID","inputs":[{"name":"slot","type":"bytes32","internalType":"bytes32"}]}],"bytecode":{"object":"0x60a060405230608052348015610013575f80fd5b50608051612c4a61003a5f395f81816112ea0152818161131301526114520152612c4a5ff3fe6080604052600436106101fb575f3560e01c806377e302e611610113578063bd85b0391161009d578063e985e9c51161006d578063e985e9c514610621578063f242432a14610640578063f2fde38b1461065f578063f399e22e1461067e578063fca3b5aa1461069d575f80fd5b8063bd85b03914610584578063d5391393146105ce578063d547741f146105ee578063e30c39781461060d575f80fd5b806391d14854116100e357806391d14854146104e45780639b642de114610503578063a217fddf14610522578063a22cb46514610535578063ad3cb1cc14610554575f80fd5b806377e302e61461047c57806379ba5097146104905780638d838622146104a45780638da5cb5b146104d0575f80fd5b80632f2ff15d116101945780634f1ef286116101645780634f1ef286146103cb5780634f558e79146103de57806352d1902d1461042a57806354fd4d501461043e578063715018a614610468575f80fd5b80632f2ff15d14610342578063352926a81461036157806336568abe146103805780634e1273f41461039f575f80fd5b8063147ac8e1116101cf578063147ac8e1146102c357806318160ddd146102e2578063248a9ca3146103025780632eb2c2d614610321575f80fd5b8062fdd58e146101ff57806301ffc9a71461023157806307546172146102605780630e89341c14610297575b5f80fd5b34801561020a575f80fd5b5061021e6102193660046120e1565b6106bc565b6040519081526020015b60405180910390f35b34801561023c575f80fd5b5061025061024b36600461211e565b6106f1565b6040519015158152602001610228565b34801561026b575f80fd5b5060035461027f906001600160a01b031681565b6040516001600160a01b039091168152602001610228565b3480156102a2575f80fd5b506102b66102b1366004612139565b6106fb565b604051610228919061219d565b3480156102ce575f80fd5b506102b66102dd3660046121cb565b6107d7565b3480156102ed575f80fd5b505f80516020612bf58339815191525461021e565b34801561030d575f80fd5b5061021e61031c366004612139565b6107e3565b34801561032c575f80fd5b5061034061033b366004612340565b610803565b005b34801561034d575f80fd5b5061034061035c3660046123e2565b61086f565b34801561036c575f80fd5b5061034061037b366004612403565b610891565b34801561038b575f80fd5b5061034061039a3660046123e2565b610999565b3480156103aa575f80fd5b506103be6103b9366004612443565b6109d1565b6040516102289190612536565b6103406103d9366004612548565b610a9b565b3480156103e9575f80fd5b506102506103f8366004612139565b5f9081527f4a593662ee04d27b6a00ebb31be7fe0c102c2ade82a7c5d764f2df05dc4e28006020526040902054151590565b348015610435575f80fd5b5061021e610aba565b348015610449575f80fd5b506040805180820190915260028152613b1960f11b60208201526102b6565b348015610473575f80fd5b50610340610ad5565b348015610487575f80fd5b506102b6610ae8565b34801561049b575f80fd5b50610340610b74565b3480156104af575f80fd5b506104c36104be366004612139565b610bbc565b604051610228919061259c565b3480156104db575f80fd5b5061027f610c9a565b3480156104ef575f80fd5b506102506104fe3660046123e2565b610cce565b34801561050e575f80fd5b5061034061051d3660046125e1565b610d04565b34801561052d575f80fd5b5061021e5f81565b348015610540575f80fd5b5061034061054f36600461262d565b610d1a565b34801561055f575f80fd5b506102b6604051806040016040528060058152602001640352e302e360dc1b81525081565b34801561058f575f80fd5b5061021e61059e366004612139565b5f9081527f4a593662ee04d27b6a00ebb31be7fe0c102c2ade82a7c5d764f2df05dc4e2800602052604090205490565b3480156105d9575f80fd5b5061021e5f80516020612b7583398151915281565b3480156105f9575f80fd5b506103406106083660046123e2565b610d25565b348015610618575f80fd5b5061027f610d41565b34801561062c575f80fd5b5061025061063b366004612666565b610d69565b34801561064b575f80fd5b5061034061065a36600461268e565b610db5565b34801561066a575f80fd5b506103406106793660046126ed565b610e14565b348015610689575f80fd5b50610340610698366004612706565b610e99565b3480156106a8575f80fd5b506103406106b73660046126ed565b61101a565b5f8181525f80516020612bb5833981519152602090815260408083206001600160a01b03861684529091529020545b92915050565b5f6106eb82611056565b60606107125f80516020612bf58339815191525490565b8211156107325760405163141ec79160e21b815260040160405180910390fd5b5f82815260208181526040808320815160608101909252805482526001810154919290919083019060ff16600781111561076e5761076e612588565b600781111561077f5761077f612588565b81526020016001820160019054906101000a900460ff1660028111156107a7576107a7612588565b60028111156107b8576107b8612588565b8152505090506107d081602001518260400151611095565b9392505050565b60606107d08383611095565b5f9081525f80516020612bd5833981519152602052604090206001015490565b336001600160a01b038616811480159061082457506108228682610d69565b155b1561085a5760405163711bec9160e11b81526001600160a01b038083166004830152871660248201526044015b60405180910390fd5b61086786868686866110fb565b505050505050565b610878826107e3565b61088181611160565b61088b838361116a565b50505050565b5f80516020612b758339815191526108a881611160565b5f6108be5f80516020612bf58339815191525490565b6108c9906001612781565b90505f60405180606001604052808381526020018660078111156108ef576108ef612588565b815260200185600281111561090657610906612588565b81525090506109268683600160405180602001604052805f81525061120b565b5f828152602081815260409091208251815590820151600180830180548594939260ff199091169083600781111561096057610960612588565b0217905550604082015160018201805461ff00191661010083600281111561098a5761098a612588565b02179055505050505050505050565b6001600160a01b03811633146109c25760405163334bd91960e11b815260040160405180910390fd5b6109cc8282611266565b505050565b60608151835114610a025781518351604051635b05999160e01b815260048101929092526024820152604401610851565b5f83516001600160401b03811115610a1c57610a1c6121fc565b604051908082528060200260200182016040528015610a45578160200160208202803683370190505b5090505f5b8451811015610a9357602080820286010151610a6e906020808402870101516106bc565b828281518110610a8057610a806127a0565b6020908102919091010152600101610a4a565b509392505050565b610aa36112df565b610aac82611383565b610ab6828261138b565b5050565b5f610ac3611447565b505f80516020612b9583398151915290565b610add611490565b610ae65f6114c2565b565b60028054610af5906127b4565b80601f0160208091040260200160405190810160405280929190818152602001828054610b21906127b4565b8015610b6c5780601f10610b4357610100808354040283529160200191610b6c565b820191905f5260205f20905b815481529060010190602001808311610b4f57829003601f168201915b505050505081565b3380610b7e610d41565b6001600160a01b031614610bb05760405163118cdaa760e01b81526001600160a01b0382166004820152602401610851565b610bb9816114c2565b50565b610bde60408051606081019091525f808252602082019081526020015f905290565b5f80516020612bf583398151915254821015610c0d5760405163141ec79160e21b815260040160405180910390fd5b5f8281526020818152604091829020825160608101909352805483526001810154909183019060ff166007811115610c4757610c47612588565b6007811115610c5857610c58612588565b81526020016001820160019054906101000a900460ff166002811115610c8057610c80612588565b6002811115610c9157610c91612588565b90525092915050565b5f807f9016d09d72d40fdae2fd8ceac6b6234c7706214fd39c1cd1e609a0528c1993005b546001600160a01b031692915050565b5f9182525f80516020612bd5833981519152602090815260408084206001600160a01b0393909316845291905290205460ff1690565b5f610d0e81611160565b60026109cc8382612830565b610ab63383836114fa565b610d2e826107e3565b610d3781611160565b61088b8383611266565b5f807f237e158222e3e6968b72b9db0d8043aacf074ad9f650f0d1606b4d82ee432c00610cbe565b6001600160a01b039182165f9081527f88be536d5240c274a3b1d3a1be54482fd9caa294f08c62a7cde569f49a3c45016020908152604080832093909416825291909152205460ff1690565b336001600160a01b0386168114801590610dd65750610dd48682610d69565b155b15610e075760405163711bec9160e11b81526001600160a01b03808316600483015287166024820152604401610851565b610867868686868661159f565b610e1c611490565b7f237e158222e3e6968b72b9db0d8043aacf074ad9f650f0d1606b4d82ee432c0080546001600160a01b0319166001600160a01b0383169081178255610e60610c9a565b6001600160a01b03167f38d16b8cac22d99fc7c124b9cd0de2d3fa1faef420bfe791d8c362d765e2270060405160405180910390a35050565b7ff0c57e16840df040f15088dc2f81fe391c3923bec73e23a9662efc9c229c6a008054600160401b810460ff1615906001600160401b03165f81158015610edd5750825b90505f826001600160401b03166001148015610ef85750303b155b905081158015610f06575080155b15610f245760405163f92ee8a960e01b815260040160405180910390fd5b845467ffffffffffffffff191660011785558315610f4e57845460ff60401b1916600160401b1785555b610f6560405180602001604052805f81525061162b565b610f6d61163c565b610f76336114c2565b610f7e61163c565b610f885f3361116a565b50610fa05f80516020612b758339815191528961116a565b50600380546001600160a01b0319166001600160a01b038a161790556002610fc98789836128eb565b50831561101057845460ff60401b19168555604051600181527fc7f505b2f371ae2175ee4913f4499e1f2633a7b5936321eed1cdaeb6115181d29060200160405180910390a15b5050505050505050565b5f61102481611160565b600380546001600160a01b0319166001600160a01b0384161790556109cc5f80516020612b758339815191528361116a565b5f6001600160e01b03198216636cdb3d1360e11b148061108657506001600160e01b031982166303a24d0760e21b145b806106eb57506106eb82611644565b60605f6110b28460078111156110ad576110ad612588565b611678565b90505f6110ca8460028111156110ad576110ad612588565b9050600281836040516020016110e2939291906129bf565b6040516020818303038152906040529250505092915050565b6001600160a01b03841661112457604051632bfa23e760e11b81525f6004820152602401610851565b6001600160a01b03851661114c57604051626a0d4560e21b81525f6004820152602401610851565b6111598585858585611707565b5050505050565b610bb9813361175a565b5f5f80516020612bd58339815191526111838484610cce565b611202575f848152602082815260408083206001600160a01b03871684529091529020805460ff191660011790556111b83390565b6001600160a01b0316836001600160a01b0316857f2f8788117e7eff1d82e926ec794901d17c78024a50270940304540a733656f0d60405160405180910390a460019150506106eb565b5f9150506106eb565b6001600160a01b03841661123457604051632bfa23e760e11b81525f6004820152602401610851565b604080516001808252602082018690528183019081526060820185905260808201909252906108675f87848487611707565b5f5f80516020612bd583398151915261127f8484610cce565b15611202575f848152602082815260408083206001600160a01b0387168085529252808320805460ff1916905551339287917ff6391f5c32d9c69d2a47ea670b442974b53935d1edc7fd64eb21e047a839171b9190a460019150506106eb565b306001600160a01b037f000000000000000000000000000000000000000000000000000000000000000016148061136557507f00000000000000000000000000000000000000000000000000000000000000006001600160a01b03166113595f80516020612b95833981519152546001600160a01b031690565b6001600160a01b031614155b15610ae65760405163703e46dd60e11b815260040160405180910390fd5b610bb9611490565b816001600160a01b03166352d1902d6040518163ffffffff1660e01b8152600401602060405180830381865afa9250505080156113e5575060408051601f3d908101601f191682019092526113e291810190612a6d565b60015b61140d57604051634c9c8ce360e01b81526001600160a01b0383166004820152602401610851565b5f80516020612b95833981519152811461143d57604051632a87526960e21b815260048101829052602401610851565b6109cc8383611793565b306001600160a01b037f00000000000000000000000000000000000000000000000000000000000000001614610ae65760405163703e46dd60e11b815260040160405180910390fd5b33611499610c9a565b6001600160a01b031614610ae65760405163118cdaa760e01b8152336004820152602401610851565b7f237e158222e3e6968b72b9db0d8043aacf074ad9f650f0d1606b4d82ee432c0080546001600160a01b0319168155610ab6826117e8565b5f80516020612bb58339815191526001600160a01b0383166115305760405162ced3e160e81b81525f6004820152602401610851565b6001600160a01b038481165f818152600184016020908152604080832094881680845294825291829020805460ff191687151590811790915591519182527f17307eab39ab6107e8899845ad3d59bd9653f200f220920489ca2b5937696c31910160405180910390a350505050565b6001600160a01b0384166115c857604051632bfa23e760e11b81525f6004820152602401610851565b6001600160a01b0385166115f057604051626a0d4560e21b81525f6004820152602401610851565b604080516001808252602082018690528183019081526060820185905260808201909252906116228787848487611707565b50505050505050565b611633611858565b610bb9816118a1565b610ae6611858565b5f6001600160e01b03198216637965db0b60e01b14806106eb57506301ffc9a760e01b6001600160e01b03198316146106eb565b60605f611684836118b2565b60010190505f816001600160401b038111156116a2576116a26121fc565b6040519080825280601f01601f1916602001820160405280156116cc576020820181803683370190505b5090508181016020015b5f19016f181899199a1a9b1b9c1cb0b131b232b360811b600a86061a8153600a85049450846116d657509392505050565b61171385858585611989565b6001600160a01b03841615611159578251339060010361174c5760208481015190840151611745838989858589611aed565b5050610867565b610867818787878787611c0e565b6117648282610cce565b610ab65760405163e2517d3f60e01b81526001600160a01b038216600482015260248101839052604401610851565b61179c82611cf5565b6040516001600160a01b038316907fbc7cd75a20ee27fd9adebab32041f755214dbc6bffa90cc0225b39da2e5c2d3b905f90a28051156117e0576109cc8282611d58565b610ab6611dca565b7f9016d09d72d40fdae2fd8ceac6b6234c7706214fd39c1cd1e609a0528c19930080546001600160a01b031981166001600160a01b03848116918217845560405192169182907f8be0079c531659141344cd1fd0a4f28419497f9722a3daafe3b4186f6b6457e0905f90a3505050565b7ff0c57e16840df040f15088dc2f81fe391c3923bec73e23a9662efc9c229c6a0054600160401b900460ff16610ae657604051631afcd79f60e31b815260040160405180910390fd5b6118a9611858565b610bb981611de9565b5f8072184f03e93ff9f4daa797ed6e38ed64bf6a1f0160401b83106118f05772184f03e93ff9f4daa797ed6e38ed64bf6a1f0160401b830492506040015b6d04ee2d6d415b85acef8100000000831061191c576d04ee2d6d415b85acef8100000000830492506020015b662386f26fc10000831061193a57662386f26fc10000830492506010015b6305f5e1008310611952576305f5e100830492506008015b612710831061196657612710830492506004015b60648310611978576064830492506002015b600a83106106eb5760010192915050565b7f4a593662ee04d27b6a00ebb31be7fe0c102c2ade82a7c5d764f2df05dc4e28006119b685858585611e22565b6001600160a01b038516611a5d575f805b8451811015611a42575f8482815181106119e3576119e36127a0565b6020026020010151905080845f015f888581518110611a0457611a046127a0565b602002602001015181526020019081526020015f205f828254611a279190612781565b90915550611a3790508184612781565b9250506001016119c7565b5080826001015f828254611a569190612781565b9091555050505b6001600160a01b038416611159575f805b8451811015611ad9575f848281518110611a8a57611a8a6127a0565b6020026020010151905080845f015f888581518110611aab57611aab6127a0565b60209081029190910181015182528101919091526040015f2080549190910390559190910190600101611a6e565b506001820180549190910390555050505050565b6001600160a01b0384163b156108675760405163f23a6e6160e01b81526001600160a01b0385169063f23a6e6190611b319089908990889088908890600401612a84565b6020604051808303815f875af1925050508015611b6b575060408051601f3d908101601f19168201909252611b6891810190612abd565b60015b611bd2573d808015611b98576040519150601f19603f3d011682016040523d82523d5f602084013e611b9d565b606091505b5080515f03611bca57604051632bfa23e760e11b81526001600160a01b0386166004820152602401610851565b805181602001fd5b6001600160e01b0319811663f23a6e6160e01b1461162257604051632bfa23e760e11b81526001600160a01b0386166004820152602401610851565b6001600160a01b0384163b156108675760405163bc197c8160e01b81526001600160a01b0385169063bc197c8190611c529089908990889088908890600401612ad8565b6020604051808303815f875af1925050508015611c8c575060408051601f3d908101601f19168201909252611c8991810190612abd565b60015b611cb9573d808015611b98576040519150601f19603f3d011682016040523d82523d5f602084013e611b9d565b6001600160e01b0319811663bc197c8160e01b1461162257604051632bfa23e760e11b81526001600160a01b0386166004820152602401610851565b806001600160a01b03163b5f03611d2a57604051634c9c8ce360e01b81526001600160a01b0382166004820152602401610851565b5f80516020612b9583398151915280546001600160a01b0319166001600160a01b0392909216919091179055565b60605f80846001600160a01b031684604051611d749190612b35565b5f60405180830381855af49150503d805f8114611dac576040519150601f19603f3d011682016040523d82523d5f602084013e611db1565b606091505b5091509150611dc1858383612041565b95945050505050565b3415610ae65760405163b398979f60e01b815260040160405180910390fd5b5f80516020612bb58339815191527f88be536d5240c274a3b1d3a1be54482fd9caa294f08c62a7cde569f49a3c45026109cc8382612830565b805182515f80516020612bb58339815191529114611e605782518251604051635b05999160e01b815260048101929092526024820152604401610851565b335f5b8451811015611f62576020818102868101820151908601909101516001600160a01b03891615611f14575f828152602086815260408083206001600160a01b038d16845290915290205481811015611eee576040516303dee4c560e01b81526001600160a01b038b166004820152602481018290526044810183905260648101849052608401610851565b5f838152602087815260408083206001600160a01b038e16845290915290209082900390555b6001600160a01b03881615611f58575f828152602086815260408083206001600160a01b038c16845290915281208054839290611f52908490612781565b90915550505b5050600101611e63565b508351600103611fe25760208401515f906020850151909150866001600160a01b0316886001600160a01b0316846001600160a01b03167fc3d58168c5ae7397731d063d5bbf3d657854427343f4c083240f7aacaa2d0f628585604051611fd3929190918252602082015260400190565b60405180910390a45050610867565b846001600160a01b0316866001600160a01b0316826001600160a01b03167f4a39dc06d4c0dbc64b70af90fd698a233a518aa5d07e595d983b8c0526c8f7fb8787604051612031929190612b50565b60405180910390a4505050505050565b606082612056576120518261209d565b6107d0565b815115801561206d57506001600160a01b0384163b155b1561209657604051639996b31560e01b81526001600160a01b0385166004820152602401610851565b5092915050565b8051156120ad5780518082602001fd5b604051630a12f52160e11b815260040160405180910390fd5b80356001600160a01b03811681146120dc575f80fd5b919050565b5f80604083850312156120f2575f80fd5b6120fb836120c6565b946020939093013593505050565b6001600160e01b031981168114610bb9575f80fd5b5f6020828403121561212e575f80fd5b81356107d081612109565b5f60208284031215612149575f80fd5b5035919050565b5f5b8381101561216a578181015183820152602001612152565b50505f910152565b5f8151808452612189816020860160208601612150565b601f01601f19169290920160200192915050565b602081525f6107d06020830184612172565b8035600881106120dc575f80fd5b8035600381106120dc575f80fd5b5f80604083850312156121dc575f80fd5b6121e5836121af565b91506121f3602084016121bd565b90509250929050565b634e487b7160e01b5f52604160045260245ffd5b604051601f8201601f191681016001600160401b0381118282101715612238576122386121fc565b604052919050565b5f6001600160401b03821115612258576122586121fc565b5060051b60200190565b5f82601f830112612271575f80fd5b8135602061228661228183612240565b612210565b8083825260208201915060208460051b8701019350868411156122a7575f80fd5b602086015b848110156122c357803583529183019183016122ac565b509695505050505050565b5f6001600160401b038311156122e6576122e66121fc565b6122f9601f8401601f1916602001612210565b905082815283838301111561230c575f80fd5b828260208301375f602084830101529392505050565b5f82601f830112612331575f80fd5b6107d0838335602085016122ce565b5f805f805f60a08688031215612354575f80fd5b61235d866120c6565b945061236b602087016120c6565b935060408601356001600160401b0380821115612386575f80fd5b61239289838a01612262565b945060608801359150808211156123a7575f80fd5b6123b389838a01612262565b935060808801359150808211156123c8575f80fd5b506123d588828901612322565b9150509295509295909350565b5f80604083850312156123f3575f80fd5b823591506121f3602084016120c6565b5f805f60608486031215612415575f80fd5b61241e846120c6565b925061242c602085016121af565b915061243a604085016121bd565b90509250925092565b5f8060408385031215612454575f80fd5b82356001600160401b038082111561246a575f80fd5b818501915085601f83011261247d575f80fd5b8135602061248d61228183612240565b82815260059290921b840181019181810190898411156124ab575f80fd5b948201945b838610156124d0576124c1866120c6565b825294820194908201906124b0565b965050860135925050808211156124e5575f80fd5b506124f285828601612262565b9150509250929050565b5f815180845260208085019450602084015f5b8381101561252b5781518752958201959082019060010161250f565b509495945050505050565b602081525f6107d060208301846124fc565b5f8060408385031215612559575f80fd5b612562836120c6565b915060208301356001600160401b0381111561257c575f80fd5b6124f285828601612322565b634e487b7160e01b5f52602160045260245ffd5b8151815260208201516060820190600881106125ba576125ba612588565b60208301526040830151600381106125d4576125d4612588565b8060408401525092915050565b5f602082840312156125f1575f80fd5b81356001600160401b03811115612606575f80fd5b8201601f81018413612616575f80fd5b612625848235602084016122ce565b949350505050565b5f806040838503121561263e575f80fd5b612647836120c6565b91506020830135801515811461265b575f80fd5b809150509250929050565b5f8060408385031215612677575f80fd5b612680836120c6565b91506121f3602084016120c6565b5f805f805f60a086880312156126a2575f80fd5b6126ab866120c6565b94506126b9602087016120c6565b9350604086013592506060860135915060808601356001600160401b038111156126e1575f80fd5b6123d588828901612322565b5f602082840312156126fd575f80fd5b6107d0826120c6565b5f805f60408486031215612718575f80fd5b612721846120c6565b925060208401356001600160401b038082111561273c575f80fd5b818601915086601f83011261274f575f80fd5b81358181111561275d575f80fd5b87602082850101111561276e575f80fd5b6020830194508093505050509250925092565b808201808211156106eb57634e487b7160e01b5f52601160045260245ffd5b634e487b7160e01b5f52603260045260245ffd5b600181811c908216806127c857607f821691505b6020821081036127e657634e487b7160e01b5f52602260045260245ffd5b50919050565b601f8211156109cc57805f5260205f20601f840160051c810160208510156128115750805b601f840160051c820191505b81811015611159575f815560010161281d565b81516001600160401b03811115612849576128496121fc565b61285d8161285784546127b4565b846127ec565b602080601f831160018114612890575f84156128795750858301515b5f19600386901b1c1916600185901b178555610867565b5f85815260208120601f198616915b828110156128be5788860151825594840194600190910190840161289f565b50858210156128db57878501515f19600388901b60f8161c191681555b5050505050600190811b01905550565b6001600160401b03831115612902576129026121fc565b6129168361291083546127b4565b836127ec565b5f601f841160018114612947575f85156129305750838201355b5f19600387901b1c1916600186901b178355611159565b5f83815260208120601f198716915b828110156129765786850135825560209485019460019092019101612956565b5086821015612992575f1960f88860031b161c19848701351681555b505060018560011b0183555050505050565b5f81516129b5818560208601612150565b9290920192915050565b5f8085546129cc816127b4565b600182811680156129e457600181146129f957612a25565b60ff1984168752821515830287019450612a25565b895f526020805f205f5b85811015612a1c5781548a820152908401908201612a03565b50505082870194505b50505050602f60f81b81528451612a43816001840160208901612150565b612a62612a5c600183850101602f60f81b815260010190565b866129a4565b979650505050505050565b5f60208284031215612a7d575f80fd5b5051919050565b6001600160a01b03868116825285166020820152604081018490526060810183905260a0608082018190525f90612a6290830184612172565b5f60208284031215612acd575f80fd5b81516107d081612109565b6001600160a01b0386811682528516602082015260a0604082018190525f90612b03908301866124fc565b8281036060840152612b1581866124fc565b90508281036080840152612b298185612172565b98975050505050505050565b5f8251612b46818460208701612150565b9190910192915050565b604081525f612b6260408301856124fc565b8281036020840152611dc181856124fc56fef0887ba65ee2024ea881d91b74c2450ef19e1557f03bed3ea9f16b037cbe2dc9360894a13ba1a3210667c828492db98dca3e2076cc3735a920a3ca505d382bbc88be536d5240c274a3b1d3a1be54482fd9caa294f08c62a7cde569f49a3c450002dd7bc7dec4dceedda775e58dd541e08a116c6c53815c0bd028192f7b6268004a593662ee04d27b6a00ebb31be7fe0c102c2ade82a7c5d764f2df05dc4e2801a26469706673582212200735270b549743ff5c25345228edfdf33fe7e908aa8ea027aaf38c115395ad8864736f6c63430008180033","linkReferences":{}},"methodIdentifiers":{"DEFAULT_ADMIN_ROLE()":"a217fddf","MINTER_ROLE()":"d5391393","UPGRADE_INTERFACE_VERSION()":"ad3cb1cc","acceptOwnership()":"79ba5097","balanceOf(address,uint256)":"00fdd58e","balanceOfBatch(address[],uint256[])":"4e1273f4","exists(uint256)":"4f558e79","getBadge(uint256)":"8d838622","getRoleAdmin(bytes32)":"248a9ca3","grantRole(bytes32,address)":"2f2ff15d","hasRole(bytes32,address)":"91d14854","initialize(address,string)":"f399e22e","isApprovedForAll(address,address)":"e985e9c5","mint(address,uint8,uint8)":"352926a8","minter()":"07546172","owner()":"8da5cb5b","pendingOwner()":"e30c3978","proxiableUUID()":"52d1902d","renounceOwnership()":"715018a6","renounceRole(bytes32,address)":"36568abe","revokeRole(bytes32,address)":"d547741f","safeBatchTransferFrom(address,address,uint256[],uint256[],bytes)":"2eb2c2d6","safeTransferFrom(address,address,uint256,uint256,bytes)":"f242432a","setApprovalForAll(address,bool)":"a22cb465","setMinter(address)":"fca3b5aa","setUri(string)":"9b642de1","supportsInterface(bytes4)":"01ffc9a7","totalSupply()":"18160ddd","totalSupply(uint256)":"bd85b039","transferOwnership(address)":"f2fde38b","upgradeToAndCall(address,bytes)":"4f1ef286","uri(uint256)":"0e89341c","uri(uint8,uint8)":"147ac8e1","uriTemplate()":"77e302e6","version()":"54fd4d50"},"storageLayout":{"storage":[{"astId":6204,"contract":"contracts/trailblazers-season-2/TrailblazersBadgesS2.sol:TrailblazersBadgesS2","label":"badges","offset":0,"slot":"0","type":"t_mapping(t_uint256,t_struct(Badge)6198_storage)"},{"astId":6215,"contract":"contracts/trailblazers-season-2/TrailblazersBadgesS2.sol:TrailblazersBadgesS2","label":"userBadges","offset":0,"slot":"1","type":"t_mapping(t_address,t_mapping(t_enum(BadgeType)6183,t_mapping(t_enum(MovementType)6188,t_uint256)))"},{"astId":6218,"contract":"contracts/trailblazers-season-2/TrailblazersBadgesS2.sol:TrailblazersBadgesS2","label":"uriTemplate","offset":0,"slot":"2","type":"t_string_storage"},{"astId":6221,"contract":"contracts/trailblazers-season-2/TrailblazersBadgesS2.sol:TrailblazersBadgesS2","label":"minter","offset":0,"slot":"3","type":"t_address"},{"astId":6232,"contract":"contracts/trailblazers-season-2/TrailblazersBadgesS2.sol:TrailblazersBadgesS2","label":"__gap","offset":0,"slot":"4","type":"t_array(t_uint256)43_storage"}],"types":{"t_address":{"encoding":"inplace","label":"address","numberOfBytes":"20"},"t_array(t_uint256)43_storage":{"encoding":"inplace","label":"uint256[43]","numberOfBytes":"1376","base":"t_uint256"},"t_enum(BadgeType)6183":{"encoding":"inplace","label":"enum TrailblazersBadgesS2.BadgeType","numberOfBytes":"1"},"t_enum(MovementType)6188":{"encoding":"inplace","label":"enum TrailblazersBadgesS2.MovementType","numberOfBytes":"1"},"t_mapping(t_address,t_mapping(t_enum(BadgeType)6183,t_mapping(t_enum(MovementType)6188,t_uint256)))":{"encoding":"mapping","key":"t_address","label":"mapping(address => mapping(enum TrailblazersBadgesS2.BadgeType => mapping(enum TrailblazersBadgesS2.MovementType => uint256)))","numberOfBytes":"32","value":"t_mapping(t_enum(BadgeType)6183,t_mapping(t_enum(MovementType)6188,t_uint256))"},"t_mapping(t_enum(BadgeType)6183,t_mapping(t_enum(MovementType)6188,t_uint256))":{"encoding":"mapping","key":"t_enum(BadgeType)6183","label":"mapping(enum TrailblazersBadgesS2.BadgeType => mapping(enum TrailblazersBadgesS2.MovementType => uint256))","numberOfBytes":"32","value":"t_mapping(t_enum(MovementType)6188,t_uint256)"},"t_mapping(t_enum(MovementType)6188,t_uint256)":{"encoding":"mapping","key":"t_enum(MovementType)6188","label":"mapping(enum TrailblazersBadgesS2.MovementType => uint256)","numberOfBytes":"32","value":"t_uint256"},"t_mapping(t_uint256,t_struct(Badge)6198_storage)":{"encoding":"mapping","key":"t_uint256","label":"mapping(uint256 => struct TrailblazersBadgesS2.Badge)","numberOfBytes":"32","value":"t_struct(Badge)6198_storage"},"t_string_storage":{"encoding":"bytes","label":"string","numberOfBytes":"32"},"t_struct(Badge)6198_storage":{"encoding":"inplace","label":"struct TrailblazersBadgesS2.Badge","numberOfBytes":"64","members":[{"astId":6191,"contract":"contracts/trailblazers-season-2/TrailblazersBadgesS2.sol:TrailblazersBadgesS2","label":"tokenId","offset":0,"slot":"0","type":"t_uint256"},{"astId":6194,"contract":"contracts/trailblazers-season-2/TrailblazersBadgesS2.sol:TrailblazersBadgesS2","label":"badgeType","offset":0,"slot":"1","type":"t_enum(BadgeType)6183"},{"astId":6197,"contract":"contracts/trailblazers-season-2/TrailblazersBadgesS2.sol:TrailblazersBadgesS2","label":"movementType","offset":1,"slot":"1","type":"t_enum(MovementType)6188"}]},"t_uint256":{"encoding":"inplace","label":"uint256","numberOfBytes":"32"}}},"id":16}