{"abi":[{"type":"function","name":"BADGE_ANDROIDS","inputs":[],"outputs":[{"name":"","type":"uint256","internalType":"uint256"}],"stateMutability":"view"},{"type":"function","name":"BADGE_BOUNCERS","inputs":[],"outputs":[{"name":"","type":"uint256","internalType":"uint256"}],"stateMutability":"view"},{"type":"function","name":"BADGE_DRUMMERS","inputs":[],"outputs":[{"name":"","type":"uint256","internalType":"uint256"}],"stateMutability":"view"},{"type":"function","name":"BADGE_MASTERS","inputs":[],"outputs":[{"name":"","type":"uint256","internalType":"uint256"}],"stateMutability":"view"},{"type":"function","name":"BADGE_MONKS","inputs":[],"outputs":[{"name":"","type":"uint256","internalType":"uint256"}],"stateMutability":"view"},{"type":"function","name":"BADGE_RAVERS","inputs":[],"outputs":[{"name":"","type":"uint256","internalType":"uint256"}],"stateMutability":"view"},{"type":"function","name":"BADGE_ROBOTS","inputs":[],"outputs":[{"name":"","type":"uint256","internalType":"uint256"}],"stateMutability":"view"},{"type":"function","name":"BADGE_SHINTO","inputs":[],"outputs":[{"name":"","type":"uint256","internalType":"uint256"}],"stateMutability":"view"},{"type":"function","name":"MOVEMENT_BASED","inputs":[],"outputs":[{"name":"","type":"uint256","internalType":"uint256"}],"stateMutability":"view"},{"type":"function","name":"MOVEMENT_BOOSTED","inputs":[],"outputs":[{"name":"","type":"uint256","internalType":"uint256"}],"stateMutability":"view"},{"type":"function","name":"MOVEMENT_NEUTRAL","inputs":[],"outputs":[{"name":"","type":"uint256","internalType":"uint256"}],"stateMutability":"view"},{"type":"function","name":"UPGRADE_INTERFACE_VERSION","inputs":[],"outputs":[{"name":"","type":"string","internalType":"string"}],"stateMutability":"view"},{"type":"function","name":"acceptOwnership","inputs":[],"outputs":[],"stateMutability":"nonpayable"},{"type":"function","name":"approve","inputs":[{"name":"to","type":"address","internalType":"address"},{"name":"tokenId","type":"uint256","internalType":"uint256"}],"outputs":[],"stateMutability":"nonpayable"},{"type":"function","name":"badgeBalances","inputs":[{"name":"_owner","type":"address","internalType":"address"}],"outputs":[{"name":"","type":"bool[]","internalType":"bool[]"}],"stateMutability":"view"},{"type":"function","name":"badgeBalancesV2","inputs":[{"name":"_owner","type":"address","internalType":"address"}],"outputs":[{"name":"balances","type":"bool[]","internalType":"bool[]"}],"stateMutability":"view"},{"type":"function","name":"badges","inputs":[{"name":"_tokenId","type":"uint256","internalType":"uint256"}],"outputs":[{"name":"_badgeId","type":"uint256","internalType":"uint256"}],"stateMutability":"view"},{"type":"function","name":"balanceOf","inputs":[{"name":"owner","type":"address","internalType":"address"}],"outputs":[{"name":"","type":"uint256","internalType":"uint256"}],"stateMutability":"view"},{"type":"function","name":"baseURI","inputs":[],"outputs":[{"name":"","type":"string","internalType":"string"}],"stateMutability":"view"},{"type":"function","name":"blacklist","inputs":[],"outputs":[{"name":"","type":"address","internalType":"contract IMinimalBlacklist"}],"stateMutability":"view"},{"type":"function","name":"canMint","inputs":[{"name":"_signature","type":"bytes","internalType":"bytes"},{"name":"_minter","type":"address","internalType":"address"},{"name":"_tokenId","type":"uint256","internalType":"uint256"}],"outputs":[{"name":"","type":"bool","internalType":"bool"}],"stateMutability":"view"},{"type":"function","name":"getApproved","inputs":[{"name":"tokenId","type":"uint256","internalType":"uint256"}],"outputs":[{"name":"","type":"address","internalType":"address"}],"stateMutability":"view"},{"type":"function","name":"getHash","inputs":[{"name":"_minter","type":"address","internalType":"address"},{"name":"_tokenId","type":"uint256","internalType":"uint256"}],"outputs":[{"name":"","type":"bytes32","internalType":"bytes32"}],"stateMutability":"pure"},{"type":"function","name":"getTokenId","inputs":[{"name":"_user","type":"address","internalType":"address"},{"name":"_badgeId","type":"uint256","internalType":"uint256"}],"outputs":[{"name":"","type":"uint256","internalType":"uint256"}],"stateMutability":"view"},{"type":"function","name":"initialize","inputs":[{"name":"_owner","type":"address","internalType":"address"},{"name":"_rootURI","type":"string","internalType":"string"},{"name":"_mintSigner","type":"address","internalType":"address"},{"name":"_blacklistAddress","type":"address","internalType":"contract IMinimalBlacklist"}],"outputs":[],"stateMutability":"nonpayable"},{"type":"function","name":"initialize","inputs":[{"name":"_owner","type":"address","internalType":"address"},{"name":"_mintSigner","type":"address","internalType":"address"},{"name":"_blacklist","type":"address","internalType":"contract IMinimalBlacklist"}],"outputs":[],"stateMutability":"nonpayable"},{"type":"function","name":"isApprovedForAll","inputs":[{"name":"owner","type":"address","internalType":"address"},{"name":"operator","type":"address","internalType":"address"}],"outputs":[{"name":"","type":"bool","internalType":"bool"}],"stateMutability":"view"},{"type":"function","name":"mint","inputs":[{"name":"_signature","type":"bytes","internalType":"bytes"},{"name":"_badgeId","type":"uint256","internalType":"uint256"}],"outputs":[],"stateMutability":"nonpayable"},{"type":"function","name":"mint","inputs":[{"name":"_signature","type":"bytes","internalType":"bytes"},{"name":"_minter","type":"address","internalType":"address"},{"name":"_badgeId","type":"uint256","internalType":"uint256"}],"outputs":[],"stateMutability":"nonpayable"},{"type":"function","name":"mintSigner","inputs":[],"outputs":[{"name":"","type":"address","internalType":"address"}],"stateMutability":"view"},{"type":"function","name":"minted","inputs":[{"name":"signatureHash","type":"bytes32","internalType":"bytes32"}],"outputs":[{"name":"hasMinted","type":"bool","internalType":"bool"}],"stateMutability":"view"},{"type":"function","name":"movementBadges","inputs":[{"name":"movementBadgeHash","type":"bytes32","internalType":"bytes32"},{"name":"","type":"uint256","internalType":"uint256"}],"outputs":[{"name":"movementBadge","type":"uint256","internalType":"uint256"}],"stateMutability":"view"},{"type":"function","name":"movements","inputs":[{"name":"_user","type":"address","internalType":"address"}],"outputs":[{"name":"_movement","type":"uint256","internalType":"uint256"}],"stateMutability":"view"},{"type":"function","name":"name","inputs":[],"outputs":[{"name":"","type":"string","internalType":"string"}],"stateMutability":"view"},{"type":"function","name":"owner","inputs":[],"outputs":[{"name":"","type":"address","internalType":"address"}],"stateMutability":"view"},{"type":"function","name":"ownerOf","inputs":[{"name":"tokenId","type":"uint256","internalType":"uint256"}],"outputs":[{"name":"","type":"address","internalType":"address"}],"stateMutability":"view"},{"type":"function","name":"pendingOwner","inputs":[],"outputs":[{"name":"","type":"address","internalType":"address"}],"stateMutability":"view"},{"type":"function","name":"proxiableUUID","inputs":[],"outputs":[{"name":"","type":"bytes32","internalType":"bytes32"}],"stateMutability":"view"},{"type":"function","name":"recruitmentContract","inputs":[],"outputs":[{"name":"","type":"address","internalType":"contract BadgeRecruitment"}],"stateMutability":"view"},{"type":"function","name":"recruitmentContractV2","inputs":[],"outputs":[{"name":"","type":"address","internalType":"contract BadgeRecruitmentV2"}],"stateMutability":"view"},{"type":"function","name":"recruitmentLockDuration","inputs":[],"outputs":[{"name":"","type":"uint256","internalType":"uint256"}],"stateMutability":"view"},{"type":"function","name":"renounceOwnership","inputs":[],"outputs":[],"stateMutability":"nonpayable"},{"type":"function","name":"resetMigration","inputs":[{"name":"_tokenId","type":"uint256","internalType":"uint256"},{"name":"_badgeId","type":"uint256","internalType":"uint256"},{"name":"_cycleId","type":"uint256","internalType":"uint256"}],"outputs":[],"stateMutability":"nonpayable"},{"type":"function","name":"safeTransferFrom","inputs":[{"name":"from","type":"address","internalType":"address"},{"name":"to","type":"address","internalType":"address"},{"name":"tokenId","type":"uint256","internalType":"uint256"}],"outputs":[],"stateMutability":"nonpayable"},{"type":"function","name":"safeTransferFrom","inputs":[{"name":"from","type":"address","internalType":"address"},{"name":"to","type":"address","internalType":"address"},{"name":"tokenId","type":"uint256","internalType":"uint256"},{"name":"data","type":"bytes","internalType":"bytes"}],"outputs":[],"stateMutability":"nonpayable"},{"type":"function","name":"setApprovalForAll","inputs":[{"name":"operator","type":"address","internalType":"address"},{"name":"approved","type":"bool","internalType":"bool"}],"outputs":[],"stateMutability":"nonpayable"},{"type":"function","name":"setMovement","inputs":[{"name":"_movementId","type":"uint256","internalType":"uint256"}],"outputs":[],"stateMutability":"nonpayable"},{"type":"function","name":"setMovement","inputs":[{"name":"_user","type":"address","internalType":"address"},{"name":"_movementId","type":"uint256","internalType":"uint256"}],"outputs":[],"stateMutability":"nonpayable"},{"type":"function","name":"setRecruitmentContract","inputs":[{"name":"_recruitmentContract","type":"address","internalType":"address"}],"outputs":[],"stateMutability":"nonpayable"},{"type":"function","name":"setRecruitmentContractV2","inputs":[{"name":"_recruitmentContractV2","type":"address","internalType":"address"}],"outputs":[],"stateMutability":"nonpayable"},{"type":"function","name":"setRecruitmentLockDuration","inputs":[{"name":"_duration","type":"uint256","internalType":"uint256"}],"outputs":[],"stateMutability":"nonpayable"},{"type":"function","name":"setUri","inputs":[{"name":"_uri","type":"string","internalType":"string"}],"outputs":[],"stateMutability":"nonpayable"},{"type":"function","name":"startRecruitment","inputs":[{"name":"","type":"uint256","internalType":"uint256"}],"outputs":[],"stateMutability":"nonpayable"},{"type":"function","name":"startRecruitment","inputs":[{"name":"_badgeId","type":"uint256","internalType":"uint256"},{"name":"_tokenId","type":"uint256","internalType":"uint256"}],"outputs":[],"stateMutability":"nonpayable"},{"type":"function","name":"supportsInterface","inputs":[{"name":"interfaceId","type":"bytes4","internalType":"bytes4"}],"outputs":[{"name":"","type":"bool","internalType":"bool"}],"stateMutability":"view"},{"type":"function","name":"symbol","inputs":[],"outputs":[{"name":"","type":"string","internalType":"string"}],"stateMutability":"view"},{"type":"function","name":"tokenByIndex","inputs":[{"name":"index","type":"uint256","internalType":"uint256"}],"outputs":[{"name":"","type":"uint256","internalType":"uint256"}],"stateMutability":"view"},{"type":"function","name":"tokenOfOwnerByIndex","inputs":[{"name":"owner","type":"address","internalType":"address"},{"name":"index","type":"uint256","internalType":"uint256"}],"outputs":[{"name":"","type":"uint256","internalType":"uint256"}],"stateMutability":"view"},{"type":"function","name":"tokenURI","inputs":[{"name":"_tokenId","type":"uint256","internalType":"uint256"}],"outputs":[{"name":"","type":"string","internalType":"string"}],"stateMutability":"view"},{"type":"function","name":"totalBadgeSupply","inputs":[],"outputs":[{"name":"balances","type":"uint256[]","internalType":"uint256[]"}],"stateMutability":"view"},{"type":"function","name":"totalSupply","inputs":[],"outputs":[{"name":"","type":"uint256","internalType":"uint256"}],"stateMutability":"view"},{"type":"function","name":"transferFrom","inputs":[{"name":"from","type":"address","internalType":"address"},{"name":"to","type":"address","internalType":"address"},{"name":"tokenId","type":"uint256","internalType":"uint256"}],"outputs":[],"stateMutability":"nonpayable"},{"type":"function","name":"transferOwnership","inputs":[{"name":"newOwner","type":"address","internalType":"address"}],"outputs":[],"stateMutability":"nonpayable"},{"type":"function","name":"unlockTimestamps","inputs":[{"name":"tokenId","type":"uint256","internalType":"uint256"}],"outputs":[{"name":"unlockTimestamp","type":"uint256","internalType":"uint256"}],"stateMutability":"view"},{"type":"function","name":"updateBlacklist","inputs":[{"name":"_blacklist","type":"address","internalType":"contract IMinimalBlacklist"}],"outputs":[],"stateMutability":"nonpayable"},{"type":"function","name":"updateMintSigner","inputs":[{"name":"_mintSigner","type":"address","internalType":"address"}],"outputs":[],"stateMutability":"nonpayable"},{"type":"function","name":"upgradeToAndCall","inputs":[{"name":"newImplementation","type":"address","internalType":"address"},{"name":"data","type":"bytes","internalType":"bytes"}],"outputs":[],"stateMutability":"payable"},{"type":"function","name":"userBadges","inputs":[{"name":"_user","type":"address","internalType":"address"},{"name":"_badgeId","type":"uint256","internalType":"uint256"}],"outputs":[{"name":"_tokenId","type":"uint256","internalType":"uint256"}],"stateMutability":"view"},{"type":"function","name":"version","inputs":[],"outputs":[{"name":"","type":"string","internalType":"string"}],"stateMutability":"pure"},{"type":"event","name":"Approval","inputs":[{"name":"owner","type":"address","indexed":true,"internalType":"address"},{"name":"approved","type":"address","indexed":true,"internalType":"address"},{"name":"tokenId","type":"uint256","indexed":true,"internalType":"uint256"}],"anonymous":false},{"type":"event","name":"ApprovalForAll","inputs":[{"name":"owner","type":"address","indexed":true,"internalType":"address"},{"name":"operator","type":"address","indexed":true,"internalType":"address"},{"name":"approved","type":"bool","indexed":false,"internalType":"bool"}],"anonymous":false},{"type":"event","name":"BadgeCreated","inputs":[{"name":"_tokenId","type":"uint256","indexed":false,"internalType":"uint256"},{"name":"_minter","type":"address","indexed":false,"internalType":"address"},{"name":"_badgeId","type":"uint256","indexed":false,"internalType":"uint256"}],"anonymous":false},{"type":"event","name":"BlacklistUpdated","inputs":[{"name":"_blacklist","type":"address","indexed":false,"internalType":"address"}],"anonymous":false},{"type":"event","name":"Initialized","inputs":[{"name":"version","type":"uint64","indexed":false,"internalType":"uint64"}],"anonymous":false},{"type":"event","name":"MintConsumed","inputs":[{"name":"_minter","type":"address","indexed":false,"internalType":"address"},{"name":"_tokenId","type":"uint256","indexed":false,"internalType":"uint256"}],"anonymous":false},{"type":"event","name":"MintSignerUpdated","inputs":[{"name":"_mintSigner","type":"address","indexed":false,"internalType":"address"}],"anonymous":false},{"type":"event","name":"MovementSet","inputs":[{"name":"_user","type":"address","indexed":false,"internalType":"address"},{"name":"_movementId","type":"uint256","indexed":false,"internalType":"uint256"}],"anonymous":false},{"type":"event","name":"OwnershipTransferStarted","inputs":[{"name":"previousOwner","type":"address","indexed":true,"internalType":"address"},{"name":"newOwner","type":"address","indexed":true,"internalType":"address"}],"anonymous":false},{"type":"event","name":"OwnershipTransferred","inputs":[{"name":"previousOwner","type":"address","indexed":true,"internalType":"address"},{"name":"newOwner","type":"address","indexed":true,"internalType":"address"}],"anonymous":false},{"type":"event","name":"Transfer","inputs":[{"name":"from","type":"address","indexed":true,"internalType":"address"},{"name":"to","type":"address","indexed":true,"internalType":"address"},{"name":"tokenId","type":"uint256","indexed":true,"internalType":"uint256"}],"anonymous":false},{"type":"event","name":"Upgraded","inputs":[{"name":"implementation","type":"address","indexed":true,"internalType":"address"}],"anonymous":false},{"type":"event","name":"UriSet","inputs":[{"name":"_uri","type":"string","indexed":false,"internalType":"string"}],"anonymous":false},{"type":"error","name":"ADDRESS_BLACKLISTED","inputs":[]},{"type":"error","name":"AddressEmptyCode","inputs":[{"name":"target","type":"address","internalType":"address"}]},{"type":"error","name":"BADGE_LOCKED","inputs":[]},{"type":"error","name":"ERC1967InvalidImplementation","inputs":[{"name":"implementation","type":"address","internalType":"address"}]},{"type":"error","name":"ERC1967NonPayable","inputs":[]},{"type":"error","name":"ERC721EnumerableForbiddenBatchMint","inputs":[]},{"type":"error","name":"ERC721IncorrectOwner","inputs":[{"name":"sender","type":"address","internalType":"address"},{"name":"tokenId","type":"uint256","internalType":"uint256"},{"name":"owner","type":"address","internalType":"address"}]},{"type":"error","name":"ERC721InsufficientApproval","inputs":[{"name":"operator","type":"address","internalType":"address"},{"name":"tokenId","type":"uint256","internalType":"uint256"}]},{"type":"error","name":"ERC721InvalidApprover","inputs":[{"name":"approver","type":"address","internalType":"address"}]},{"type":"error","name":"ERC721InvalidOperator","inputs":[{"name":"operator","type":"address","internalType":"address"}]},{"type":"error","name":"ERC721InvalidOwner","inputs":[{"name":"owner","type":"address","internalType":"address"}]},{"type":"error","name":"ERC721InvalidReceiver","inputs":[{"name":"receiver","type":"address","internalType":"address"}]},{"type":"error","name":"ERC721InvalidSender","inputs":[{"name":"sender","type":"address","internalType":"address"}]},{"type":"error","name":"ERC721NonexistentToken","inputs":[{"name":"tokenId","type":"uint256","internalType":"uint256"}]},{"type":"error","name":"ERC721OutOfBoundsIndex","inputs":[{"name":"owner","type":"address","internalType":"address"},{"name":"index","type":"uint256","internalType":"uint256"}]},{"type":"error","name":"FailedInnerCall","inputs":[]},{"type":"error","name":"INVALID_BADGE_ID","inputs":[]},{"type":"error","name":"INVALID_INPUT","inputs":[]},{"type":"error","name":"INVALID_MOVEMENT_ID","inputs":[]},{"type":"error","name":"InvalidInitialization","inputs":[]},{"type":"error","name":"MINTER_NOT_WHITELISTED","inputs":[]},{"type":"error","name":"MINTS_EXCEEDED","inputs":[]},{"type":"error","name":"NOT_IMPLEMENTED","inputs":[]},{"type":"error","name":"NOT_OWNER","inputs":[]},{"type":"error","name":"NotInitializing","inputs":[]},{"type":"error","name":"ONLY_MINT_SIGNER","inputs":[]},{"type":"error","name":"OwnableInvalidOwner","inputs":[{"name":"owner","type":"address","internalType":"address"}]},{"type":"error","name":"OwnableUnauthorizedAccount","inputs":[{"name":"account","type":"address","internalType":"address"}]},{"type":"error","name":"RECRUITMENT_ALREADY_COMPLETED","inputs":[]},{"type":"error","name":"RECRUITMENT_LOCK_DURATION_NOT_SET","inputs":[]},{"type":"error","name":"RECRUITMENT_NOT_FOUND","inputs":[]},{"type":"error","name":"UUPSUnauthorizedCallContext","inputs":[]},{"type":"error","name":"UUPSUnsupportedProxiableUUID","inputs":[{"name":"slot","type":"bytes32","internalType":"bytes32"}]}],"bytecode":{"object":"0x60a06040523060805234801562000014575f80fd5b506200001f62000025565b620000d9565b7ff0c57e16840df040f15088dc2f81fe391c3923bec73e23a9662efc9c229c6a00805468010000000000000000900460ff1615620000765760405163f92ee8a960e01b815260040160405180910390fd5b80546001600160401b0390811614620000d65780546001600160401b0319166001600160401b0390811782556040519081527fc7f505b2f371ae2175ee4913f4499e1f2633a7b5936321eed1cdaeb6115181d29060200160405180910390a15b50565b608051613988620001005f395f8181611f2b01528181611f54015261209301526139885ff3fe6080604052600436106103e9575f3560e01c80639224747d1161020a578063c0c53b8b1161011e578063e985e9c5116100a8578063f2fde38b11610078578063f2fde38b14610b48578063f571049b14610b67578063f7da8ce314610b86578063f896d3a014610ba5578063ff2c26ec14610bc4575f80fd5b8063e985e9c514610acd578063ed05582b14610aec578063f17af48d14610b0b578063f23ff9d914610b29575f80fd5b8063d5def7c2116100ee578063d5def7c214610a51578063d944061e14610a51578063df91cc2314610a64578063e30c397814610a9a578063e84be85214610aae575f80fd5b8063c0c53b8b146109d3578063c87b56dd146109f2578063c8860d9814610a11578063ca0259c014610a30575f80fd5b8063a4b5fa561161019f578063b4e7409f1161016f578063b4e7409f1461088e578063b58c439e14610957578063b88d4fde14610976578063b8f88d6414610995578063bacb6d4e146109b4575f80fd5b8063a4b5fa56146108e0578063a7fb03ab146108ff578063ad3cb1cc14610913578063b378b44814610943575f80fd5b806398ef238a116101da57806398ef238a1461088e5780639b642de1146108a25780639cc28164146104db578063a22cb465146108c1575f80fd5b80639224747d14610805578063950290c81461083057806395d89b411461084f57806398e36d8b14610863575f80fd5b80634808b109116103015780636c0360eb1161029657806373e9c1f91161026657806373e9c1f91461077c57806375b9c0151461079b57806379ba5097146107af5780638ccc5f80146107c35780638da5cb5b146107f1575f80fd5b80636c0360eb1461070a578063700b1acd1461071e57806370a0823114610749578063715018a614610768575f80fd5b806354fd4d50116102d157806354fd4d5014610676578063599fdaa2146106a05780635c6f8ca3146106bf5780636352211e146106eb575f80fd5b80634808b1091461061c5780634f1ef286146106305780634f6ccce71461064357806352d1902d14610662575f80fd5b80631fcfe19c116103825780632f745c59116103525780632f745c591461058b5780633136964c146105aa57806332c8f504146105c9578063378b5704146105de57806342842e0e146105fd575f80fd5b80631fcfe19c1461050f57806323b872dd1461052e57806329f99b9f1461054d5780632f19062f1461056c575f80fd5b8063095ea7b3116103bd578063095ea7b31461049a5780630e0c8b0a146104b95780630f5f04bf146104db57806318160ddd146104ef575f80fd5b8062257612146103ed57806301ffc9a71461040e57806306fdde0314610442578063081812fc14610463575b5f80fd5b3480156103f8575f80fd5b5061040c610407366004613119565b610be3565b005b348015610419575f80fd5b5061042d61042836600461316f565b610bf2565b60405190151581526020015b60405180910390f35b34801561044d575f80fd5b50610456610c1c565b60405161043991906131d7565b34801561046e575f80fd5b5061048261047d3660046131e9565b610cbd565b6040516001600160a01b039091168152602001610439565b3480156104a5575f80fd5b5061040c6104b4366004613214565b610cd1565b3480156104c4575f80fd5b506104cd600681565b604051908152602001610439565b3480156104e6575f80fd5b506104cd600181565b3480156104fa575f80fd5b505f80516020613933833981519152546104cd565b34801561051a575f80fd5b5061040c61052936600461323e565b610cdc565b348015610539575f80fd5b5061040c610548366004613293565b610cf4565b348015610558575f80fd5b506104cd610567366004613214565b610d82565b348015610577575f80fd5b5061040c6105863660046131e9565b610da9565b348015610596575f80fd5b506104cd6105a5366004613214565b610db6565b3480156105b5575f80fd5b506104cd6105c43660046132c0565b610e27565b3480156105d4575f80fd5b506104cd60625481565b3480156105e9575f80fd5b5061040c6105f83660046132e0565b610e49565b348015610608575f80fd5b5061040c610617366004613293565b610ea6565b348015610627575f80fd5b506104cd600781565b61040c61063e3660046132fb565b610ec0565b34801561064e575f80fd5b506104cd61065d3660046131e9565b610edb565b34801561066d575f80fd5b506104cd610f4d565b348015610681575f80fd5b50604080518082019091526002815261563560f01b6020820152610456565b3480156106ab575f80fd5b50606554610482906001600160a01b031681565b3480156106ca575f80fd5b506106de6106d93660046132e0565b610f68565b6040516104399190613347565b3480156106f6575f80fd5b506104826107053660046131e9565b61111c565b348015610715575f80fd5b50610456611126565b348015610729575f80fd5b506104cd6107383660046132e0565b60346020525f908152604090205481565b348015610754575f80fd5b506104cd6107633660046132e0565b6111b6565b348015610773575f80fd5b5061040c61120e565b348015610787575f80fd5b5061040c61079636600461338c565b611221565b3480156107a6575f80fd5b506104cd600581565b3480156107ba575f80fd5b5061040c6112df565b3480156107ce575f80fd5b5061042d6107dd3660046131e9565b60016020525f908152604090205460ff1681565b3480156107fc575f80fd5b50610482611324565b348015610810575f80fd5b506104cd61081f3660046131e9565b60646020525f908152604090205481565b34801561083b575f80fd5b5061040c61084a3660046131e9565b611358565b34801561085a575f80fd5b50610456611371565b34801561086e575f80fd5b506104cd61087d3660046131e9565b60336020525f908152604090205481565b348015610899575f80fd5b506104cd600281565b3480156108ad575f80fd5b5061040c6108bc3660046133b5565b6113af565b3480156108cc575f80fd5b5061040c6108db3660046133fb565b6113f3565b3480156108eb575f80fd5b50600254610482906001600160a01b031681565b34801561090a575f80fd5b506104cd600481565b34801561091e575f80fd5b50610456604051806040016040528060058152602001640352e302e360dc1b81525081565b34801561094e575f80fd5b506104cd600381565b348015610962575f80fd5b5061042d61097136600461323e565b6113fe565b348015610981575f80fd5b5061040c610990366004613432565b6114c5565b3480156109a0575f80fd5b5061040c6109af366004613499565b6114dc565b3480156109bf575f80fd5b5061040c6109ce3660046131e9565b61164a565b3480156109de575f80fd5b5061040c6109ed366004613509565b611657565b3480156109fd575f80fd5b50610456610a0c3660046131e9565b611767565b348015610a1c575f80fd5b50606354610482906001600160a01b031681565b348015610a3b575f80fd5b50610a446117df565b6040516104399190613551565b348015610a5c575f80fd5b506104cd5f81565b348015610a6f575f80fd5b506104cd610a7e366004613214565b603560209081525f928352604080842090915290825290205481565b348015610aa5575f80fd5b50610482611879565b348015610ab9575f80fd5b5061040c610ac83660046132e0565b6118a1565b348015610ad8575f80fd5b5061042d610ae7366004613588565b6118cb565b348015610af7575f80fd5b506104cd610b06366004613214565b611917565b348015610b16575f80fd5b505f54610482906001600160a01b031681565b348015610b34575f80fd5b5061040c610b433660046132c0565b611970565b348015610b53575f80fd5b5061040c610b623660046132e0565b611a84565b348015610b72575f80fd5b5061040c610b813660046132e0565b611b09565b348015610b91575f80fd5b506106de610ba03660046132e0565b611b5e565b348015610bb0575f80fd5b5061040c610bbf3660046132e0565b611c7b565b348015610bcf575f80fd5b5061040c610bde366004613214565b611ca5565b610bee823383611cb7565b5050565b5f6001600160e01b0319821663780e9d6360e01b1480610c165750610c1682611d70565b92915050565b5f805160206138f38339815191528054606091908190610c3b906135b4565b80601f0160208091040260200160405190810160405280929190818152602001828054610c67906135b4565b8015610cb25780601f10610c8957610100808354040283529160200191610cb2565b820191905f5260205f20905b815481529060010190602001808311610c9557829003601f168201915b505050505091505090565b5f610cc782611dbf565b50610c1682611df6565b610bee828233611e2f565b610ce4611e3c565b610cef838383611cb7565b505050565b6001600160a01b038216610d2257604051633250574960e11b81525f60048201526024015b60405180910390fd5b5f610d2e838333611e6e565b9050836001600160a01b0316816001600160a01b031614610d7c576040516364283d7b60e01b81526001600160a01b0380861660048301526024820184905282166044820152606401610d19565b50505050565b6001600160a01b03919091165f908152603560209081526040808320938352929052205490565b610db33382611ea7565b50565b5f5f805160206138d3833981519152610dce846111b6565b8310610dff5760405163295f44f760e21b81526001600160a01b038516600482015260248101849052604401610d19565b6001600160a01b0384165f908152602091825260408082208583529092522054905092915050565b6036602052815f5260405f208160028110610e40575f80fd5b01549150829050565b610e51611e3c565b600280546001600160a01b0319166001600160a01b0383169081179091556040519081527f75cdf6842d867a09260947ac775619527788d913a79fc3b41da1815fa377af65906020015b60405180910390a150565b610cef83838360405180602001604052805f8152506114c5565b610ec8611f20565b610ed182611fc4565b610bee8282611fcc565b5f5f805160206138d3833981519152610eff5f805160206139338339815191525490565b8310610f275760405163295f44f760e21b81525f600482015260248101849052604401610d19565b806002018381548110610f3c57610f3c6135ec565b905f5260205f200154915050919050565b5f610f56612088565b505f8051602061391383398151915290565b60408051600880825261012082019092526060915f91906020820161010080368337019050509050610f9a835f610d82565b5f1415815f81518110610faf57610faf6135ec565b91151560209283029190910190910152610fca836001610d82565b5f141581600181518110610fe057610fe06135ec565b91151560209283029190910190910152610ffb836002610d82565b5f141581600281518110611011576110116135ec565b9115156020928302919091019091015261102c836003610d82565b5f141581600381518110611042576110426135ec565b9115156020928302919091019091015261105d836004610d82565b5f141581600481518110611073576110736135ec565b9115156020928302919091019091015261108e836005610d82565b5f1415816005815181106110a4576110a46135ec565b911515602092830291909101909101526110bf836006610d82565b5f1415816006815181106110d5576110d56135ec565b911515602092830291909101909101526110f0836007610d82565b5f141581600781518110611106576111066135ec565b9115156020928302919091019091015292915050565b5f610c1682611dbf565b606060328054611135906135b4565b80601f0160208091040260200160405190810160405280929190818152602001828054611161906135b4565b80156111ac5780601f10611183576101008083540402835291602001916111ac565b820191905f5260205f20905b81548152906001019060200180831161118f57829003601f168201915b5050505050905090565b5f5f805160206138f38339815191526001600160a01b0383166111ee576040516322718ad960e21b81525f6004820152602401610d19565b6001600160a01b039092165f908152600390920160205250604090205490565b611216611e3c565b61121f5f6120d1565b565b3361122b8461111c565b6001600160a01b031614611252576040516338ebc58960e11b815260040160405180910390fd5b6065546001600160a01b0316637671afc0336040516001600160e01b031960e084901b1681526001600160a01b0390911660048201526024810186905260448101859052606481018490526084015f604051808303815f87803b1580156112b7575f80fd5b505af11580156112c9573d5f803e3d5ffd5b5050505f93845250506064602052506040812055565b33806112e9611879565b6001600160a01b03161461131b5760405163118cdaa760e01b81526001600160a01b0382166004820152602401610d19565b610db3816120d1565b5f807f9016d09d72d40fdae2fd8ceac6b6234c7706214fd39c1cd1e609a0528c1993005b546001600160a01b031692915050565b6040516343f6e4ab60e01b815260040160405180910390fd5b7f80bb2b638cc20bc4d0a60d66940f3ab4a00c1d7b313497ca82fb0b4ab007930180546060915f805160206138f383398151915291610c3b906135b4565b6113b7611e3c565b60326113c38282613644565b507fd09d05534067f74dbc9e6af794edbd29e904d7698e428d0bc1378e45889acdd781604051610e9b91906131d7565b610bee338383612109565b60025460405163fe575a8760e01b81526001600160a01b0384811660048301525f92169063fe575a8790602401602060405180830381865afa158015611446573d5f803e3d5ffd5b505050506040513d601f19601f8201168201806040525081019061146a91906136ff565b1561148857604051637874e36360e01b815260040160405180910390fd5b83516020808601919091205f9081526001909152604090205460ff16156114b057505f6114be565b6114bb8484846121b8565b90505b9392505050565b6114d0848484610cf4565b610d7c848484846121ed565b7ff0c57e16840df040f15088dc2f81fe391c3923bec73e23a9662efc9c229c6a008054600160401b810460ff1615906001600160401b03165f811580156115205750825b90505f826001600160401b0316600114801561153b5750303b155b905081158015611549575080155b156115675760405163f92ee8a960e01b815260040160405180910390fd5b845467ffffffffffffffff19166001178555831561159157845460ff60401b1916600160401b1785555b6115e160405180604001604052806013815260200172547261696c626c617a6572732042616467657360681b815250604051806040016040528060038152602001622a212160e91b815250612313565b60326115ed8982613644565b506115f9898888612325565b831561163f57845460ff60401b19168555604051600181527fc7f505b2f371ae2175ee4913f4499e1f2633a7b5936321eed1cdaeb6115181d29060200160405180910390a15b505050505050505050565b611652611e3c565b606255565b7ff0c57e16840df040f15088dc2f81fe391c3923bec73e23a9662efc9c229c6a008054600160401b810460ff1615906001600160401b03165f8115801561169b5750825b90505f826001600160401b031660011480156116b65750303b155b9050811580156116c4575080155b156116e25760405163f92ee8a960e01b815260040160405180910390fd5b845467ffffffffffffffff19166001178555831561170c57845460ff60401b1916600160401b1785555b611717888888612325565b831561175d57845460ff60401b19168555604051600181527fc7f505b2f371ae2175ee4913f4499e1f2633a7b5936321eed1cdaeb6115181d29060200160405180910390a15b5050505050505050565b60605f60345f6117768561111c565b6001600160a01b0316815260208082019290925260409081015f908120548682526033909352205490915060326117ac83612379565b6117b583612379565b6040516020016117c793929190613735565b60405160208183030381529060405292505050919050565b60605f6117f75f805160206139338339815191525490565b6040805160088082526101208201909252919250602082016101008036833701905050915060015b818111611874575f818152603360205260409020548351849082908110611848576118486135ec565b60200260200101805180919061185d906137f7565b90525081905061186c816137f7565b91505061181f565b505090565b5f807f237e158222e3e6968b72b9db0d8043aacf074ad9f650f0d1606b4d82ee432c00611348565b6118a9611e3c565b606380546001600160a01b0319166001600160a01b0392909216919091179055565b6001600160a01b039182165f9081527f80bb2b638cc20bc4d0a60d66940f3ab4a00c1d7b313497ca82fb0b4ab00793056020908152604080832093909416825291909152205460ff1690565b604080516001600160a01b03841660208201529081018290525f9060600160408051601f198184030181528282528051602091820120908301520160405160208183030381529060405280519060200120905092915050565b6062545f03611992576040516321d9ef2160e21b815260040160405180910390fd5b3361199c8261111c565b6001600160a01b0316146119c3576040516338ebc58960e11b815260040160405180910390fd5b5f818152606460205260409020544210156119f157604051635119f4d360e11b815260040160405180910390fd5b6062546119fe904261380f565b5f828152606460205260409020556065546001600160a01b031663a6471ecf336040516001600160e01b031960e084901b1681526001600160a01b03909116600482015260248101859052604481018490526064015f604051808303815f87803b158015611a6a575f80fd5b505af1158015611a7c573d5f803e3d5ffd5b505050505050565b611a8c611e3c565b7f237e158222e3e6968b72b9db0d8043aacf074ad9f650f0d1606b4d82ee432c0080546001600160a01b0319166001600160a01b0383169081178255611ad0611324565b6001600160a01b03167f38d16b8cac22d99fc7c124b9cd0de2d3fa1faef420bfe791d8c362d765e2270060405160405180910390a35050565b611b11611e3c565b5f80546001600160a01b0319166001600160a01b0383169081179091556040519081527f81c142d9a4b33dfaba82444370b6b077fc2cb507c30c41a7c967f695ed72651f90602001610e9b565b60605f611b6a836111b6565b90505f816001600160401b03811115611b8557611b8561307d565b604051908082528060200260200182016040528015611bae578160200160208202803683370190505b5090505f5b82811015611bea57611bc58582610db6565b828281518110611bd757611bd76135ec565b6020908102919091010152600101611bb3565b5060408051600880825261012082019092529060208201610100803683370190505092505f5b82811015611c73575f60335f848481518110611c2e57611c2e6135ec565b602002602001015181526020019081526020015f205490506001858281518110611c5a57611c5a6135ec565b9115156020928302919091019091015250600101611c10565b505050919050565b611c83611e3c565b606580546001600160a01b0319166001600160a01b0392909216919091179055565b611cad611e3c565b610bee8282611ea7565b6007811115611cd957604051635557cd3560e11b815260040160405180910390fd5b611ce4838383612408565b5f611cfa5f805160206139338339815191525490565b611d0590600161380f565b5f8181526033602052604090208390559050611d218382612499565b604080518281526001600160a01b03851660208201529081018390527f73ec18fe90e8b3de52d7e88ff3108708ed0e9714e5327b038c182b64cedaae709060600160405180910390a150505050565b5f6001600160e01b031982166380ac58cd60e01b1480611da057506001600160e01b03198216635b5e139f60e01b145b80610c1657506301ffc9a760e01b6001600160e01b0319831614610c16565b5f80611dca836124fa565b90506001600160a01b038116610c1657604051637e27328960e01b815260048101849052602401610d19565b5f9081527f80bb2b638cc20bc4d0a60d66940f3ab4a00c1d7b313497ca82fb0b4ab007930460205260409020546001600160a01b031690565b610cef8383836001612533565b33611e45611324565b6001600160a01b03161461121f5760405163118cdaa760e01b8152336004820152602401610d19565b5f82815260646020526040812054421015611e9c57604051635119f4d360e11b815260040160405180910390fd5b6114bb848484612646565b6002811115611ec957604051632c4d11b760e11b815260040160405180910390fd5b6001600160a01b0382165f81815260346020908152604091829020849055815192835282018390527fc8f3ae17becdf8c098ef081092d0420324d1318397bd7ac8e90d900c56a50a76910160405180910390a15050565b306001600160a01b037f0000000000000000000000000000000000000000000000000000000000000000161480611fa657507f00000000000000000000000000000000000000000000000000000000000000006001600160a01b0316611f9a5f80516020613913833981519152546001600160a01b031690565b6001600160a01b031614155b1561121f5760405163703e46dd60e11b815260040160405180910390fd5b610db3611e3c565b816001600160a01b03166352d1902d6040518163ffffffff1660e01b8152600401602060405180830381865afa925050508015612026575060408051601f3d908101601f1916820190925261202391810190613822565b60015b61204e57604051634c9c8ce360e01b81526001600160a01b0383166004820152602401610d19565b5f80516020613913833981519152811461207e57604051632a87526960e21b815260048101829052602401610d19565b610cef83836126e9565b306001600160a01b037f0000000000000000000000000000000000000000000000000000000000000000161461121f5760405163703e46dd60e11b815260040160405180910390fd5b7f237e158222e3e6968b72b9db0d8043aacf074ad9f650f0d1606b4d82ee432c0080546001600160a01b0319168155610bee8261273e565b5f805160206138f38339815191526001600160a01b03831661214957604051630b61174360e31b81526001600160a01b0384166004820152602401610d19565b6001600160a01b038481165f818152600584016020908152604080832094881680845294825291829020805460ff191687151590811790915591519182527f17307eab39ab6107e8899845ad3d59bd9653f200f220920489ca2b5937696c31910160405180910390a350505050565b5f806121c48484611917565b90505f6121d182876127ae565b50505f546001600160a01b039081169116149695505050505050565b6001600160a01b0383163b15610d7c57604051630a85bd0160e11b81526001600160a01b0384169063150b7a029061222f903390889087908790600401613839565b6020604051808303815f875af1925050508015612269575060408051601f3d908101601f1916820190925261226691810190613875565b60015b6122d0573d808015612296576040519150601f19603f3d011682016040523d82523d5f602084013e61229b565b606091505b5080515f036122c857604051633250574960e11b81526001600160a01b0385166004820152602401610d19565b805181602001fd5b6001600160e01b03198116630a85bd0160e11b1461230c57604051633250574960e11b81526001600160a01b0385166004820152602401610d19565b5050505050565b61231b6127f7565b610bee8282612840565b6123436001600160a01b0384161561233d57836120d1565b336120d1565b61234b612870565b5f80546001600160a01b039384166001600160a01b0319918216179091556002805492909316911617905550565b60605f61238583612878565b60010190505f816001600160401b038111156123a3576123a361307d565b6040519080825280601f01601f1916602001820160405280156123cd576020820181803683370190505b5090508181016020015b5f19016f181899199a1a9b1b9c1cb0b131b232b360811b600a86061a8153600a85049450846123d757509392505050565b6124138383836113fe565b61243057604051639ea134e960e01b815260040160405180910390fd5b82516020808501919091205f9081526001808352604091829020805460ff1916909117905580516001600160a01b03851681529182018390527ff71d0afb6ca23454b34db8bf7baf45f79e8c2f41e5499375ea2289312b2d317b910160405180910390a1505050565b6001600160a01b0382166124c257604051633250574960e11b81525f6004820152602401610d19565b5f6124ce83835f611e6e565b90506001600160a01b03811615610cef576040516339e3563760e11b81525f6004820152602401610d19565b5f9081527f80bb2b638cc20bc4d0a60d66940f3ab4a00c1d7b313497ca82fb0b4ab007930260205260409020546001600160a01b031690565b5f805160206138f3833981519152818061255557506001600160a01b03831615155b15612616575f61256485611dbf565b90506001600160a01b038416158015906125905750836001600160a01b0316816001600160a01b031614155b80156125a357506125a181856118cb565b155b156125cc5760405163a9fbf51f60e01b81526001600160a01b0385166004820152602401610d19565b82156126145784866001600160a01b0316826001600160a01b03167f8c5be1e5ebec7d5bd14f71427d1e84f3dd0314c0f7b2291e5b200ac8c7c3b92560405160405180910390a45b505b5f93845260040160205250506040902080546001600160a01b0319166001600160a01b0392909216919091179055565b6002545f906001600160a01b031663fe575a87336040516001600160e01b031960e084901b1681526001600160a01b039091166004820152602401602060405180830381865afa15801561269c573d5f803e3d5ffd5b505050506040513d601f19601f820116820180604052508101906126c091906136ff565b156126de57604051637874e36360e01b815260040160405180910390fd5b6114bb84848461294f565b6126f2826129b8565b6040516001600160a01b038316907fbc7cd75a20ee27fd9adebab32041f755214dbc6bffa90cc0225b39da2e5c2d3b905f90a280511561273657610cef8282612a1b565b610bee612a8d565b7f9016d09d72d40fdae2fd8ceac6b6234c7706214fd39c1cd1e609a0528c19930080546001600160a01b031981166001600160a01b03848116918217845560405192169182907f8be0079c531659141344cd1fd0a4f28419497f9722a3daafe3b4186f6b6457e0905f90a3505050565b5f805f83516041036127e5576020840151604085015160608601515f1a6127d788828585612aac565b9550955095505050506127f0565b505081515f91506002905b9250925092565b7ff0c57e16840df040f15088dc2f81fe391c3923bec73e23a9662efc9c229c6a0054600160401b900460ff1661121f57604051631afcd79f60e31b815260040160405180910390fd5b6128486127f7565b5f805160206138f3833981519152806128618482613644565b5060018101610d7c8382613644565b61121f6127f7565b5f8072184f03e93ff9f4daa797ed6e38ed64bf6a1f0160401b83106128b65772184f03e93ff9f4daa797ed6e38ed64bf6a1f0160401b830492506040015b6d04ee2d6d415b85acef810000000083106128e2576d04ee2d6d415b85acef8100000000830492506020015b662386f26fc10000831061290057662386f26fc10000830492506010015b6305f5e1008310612918576305f5e100830492506008015b612710831061292c57612710830492506004015b6064831061293e576064830492506002015b600a8310610c165760010192915050565b5f8060355f61295d866124fa565b6001600160a01b03908116825260208083019390935260409182015f908120888252603385528382208054835290855283822095909555908816815260358352818120935481529290915290208390556114bb848484612b74565b806001600160a01b03163b5f036129ed57604051634c9c8ce360e01b81526001600160a01b0382166004820152602401610d19565b5f8051602061391383398151915280546001600160a01b0319166001600160a01b0392909216919091179055565b60605f80846001600160a01b031684604051612a379190613890565b5f60405180830381855af49150503d805f8114612a6f576040519150601f19603f3d011682016040523d82523d5f602084013e612a74565b606091505b5091509150612a84858383612c6a565b95945050505050565b341561121f5760405163b398979f60e01b815260040160405180910390fd5b5f80807f7fffffffffffffffffffffffffffffff5d576e7357a4501ddfe92f46681b20a0841115612ae557505f91506003905082612b6a565b604080515f808252602082018084528a905260ff891692820192909252606081018790526080810186905260019060a0016020604051602081039080840390855afa158015612b36573d5f803e3d5ffd5b5050604051601f1901519150506001600160a01b038116612b6157505f925060019150829050612b6a565b92505f91508190505b9450945094915050565b5f80612b81858585612cc6565b90506001600160a01b038116612c0857612c03845f8051602061393383398151915280545f8381527f645e039705490088daad89bae25049a34f4a9072d398537b1ab2425f24cbed0360205260408120829055600182018355919091527fa42f15e5d656f8155fd7419d740a6073999f19cd6e061449ce4a257150545bf20155565b612c2b565b846001600160a01b0316816001600160a01b031614612c2b57612c2b8185612dc8565b6001600160a01b038516612c4757612c4284612e67565b6114bb565b846001600160a01b0316816001600160a01b0316146114bb576114bb8585612f34565b606082612c7f57612c7a82612f8c565b6114be565b8151158015612c9657506001600160a01b0384163b155b15612cbf57604051639996b31560e01b81526001600160a01b0385166004820152602401610d19565b50806114be565b5f5f805160206138f383398151915281612cdf856124fa565b90506001600160a01b03841615612cfb57612cfb818587612fb5565b6001600160a01b03811615612d3757612d165f865f80612533565b6001600160a01b0381165f908152600383016020526040902080545f190190555b6001600160a01b03861615612d67576001600160a01b0386165f9081526003830160205260409020805460010190555b5f85815260028301602052604080822080546001600160a01b0319166001600160a01b038a811691821790925591518893918516917fddf252ad1be2c89b69c2b068fc378daa952ba7f163c4a11628f55a4df523b3ef91a495945050505050565b5f805160206138d38339815191525f612de0846111b6565b5f848152600184016020526040902054909150808214612e33576001600160a01b0385165f9081526020848152604080832085845282528083205484845281842081905583526001860190915290208190555b505f92835260018201602090815260408085208590556001600160a01b039095168452918252838320908352905290812055565b5f80516020613933833981519152545f805160206138d3833981519152905f90612e93906001906138ab565b5f848152600384016020526040812054600285018054939450909284908110612ebe57612ebe6135ec565b905f5260205f200154905080846002018381548110612edf57612edf6135ec565b5f91825260208083209091019290925582815260038601909152604080822084905586825281205560028401805480612f1a57612f1a6138be565b600190038181905f5260205f20015f905590555050505050565b5f805160206138d38339815191525f6001612f4e856111b6565b612f5891906138ab565b6001600160a01b039094165f9081526020838152604080832087845282528083208690559482526001909301909252502055565b805115612f9c5780518082602001fd5b604051630a12f52160e11b815260040160405180910390fd5b612fc0838383613019565b610cef576001600160a01b038316612fee57604051637e27328960e01b815260048101829052602401610d19565b60405163177e802f60e01b81526001600160a01b038316600482015260248101829052604401610d19565b5f6001600160a01b038316158015906114bb5750826001600160a01b0316846001600160a01b03161480613052575061305284846118cb565b806114bb5750826001600160a01b031661306b83611df6565b6001600160a01b031614949350505050565b634e487b7160e01b5f52604160045260245ffd5b5f82601f8301126130a0575f80fd5b81356001600160401b03808211156130ba576130ba61307d565b604051601f8301601f19908116603f011681019082821181831017156130e2576130e261307d565b816040528381528660208588010111156130fa575f80fd5b836020870160208301375f602085830101528094505050505092915050565b5f806040838503121561312a575f80fd5b82356001600160401b0381111561313f575f80fd5b61314b85828601613091565b95602094909401359450505050565b6001600160e01b031981168114610db3575f80fd5b5f6020828403121561317f575f80fd5b81356114be8161315a565b5f5b838110156131a457818101518382015260200161318c565b50505f910152565b5f81518084526131c381602086016020860161318a565b601f01601f19169290920160200192915050565b602081525f6114be60208301846131ac565b5f602082840312156131f9575f80fd5b5035919050565b6001600160a01b0381168114610db3575f80fd5b5f8060408385031215613225575f80fd5b823561323081613200565b946020939093013593505050565b5f805f60608486031215613250575f80fd5b83356001600160401b03811115613265575f80fd5b61327186828701613091565b935050602084013561328281613200565b929592945050506040919091013590565b5f805f606084860312156132a5575f80fd5b83356132b081613200565b9250602084013561328281613200565b5f80604083850312156132d1575f80fd5b50508035926020909101359150565b5f602082840312156132f0575f80fd5b81356114be81613200565b5f806040838503121561330c575f80fd5b823561331781613200565b915060208301356001600160401b03811115613331575f80fd5b61333d85828601613091565b9150509250929050565b602080825282518282018190525f9190848201906040850190845b81811015613380578351151583529284019291840191600101613362565b50909695505050505050565b5f805f6060848603121561339e575f80fd5b505081359360208301359350604090920135919050565b5f602082840312156133c5575f80fd5b81356001600160401b038111156133da575f80fd5b6133e684828501613091565b949350505050565b8015158114610db3575f80fd5b5f806040838503121561340c575f80fd5b823561341781613200565b91506020830135613427816133ee565b809150509250929050565b5f805f8060808587031215613445575f80fd5b843561345081613200565b9350602085013561346081613200565b92506040850135915060608501356001600160401b03811115613481575f80fd5b61348d87828801613091565b91505092959194509250565b5f805f80608085870312156134ac575f80fd5b84356134b781613200565b935060208501356001600160401b038111156134d1575f80fd5b6134dd87828801613091565b93505060408501356134ee81613200565b915060608501356134fe81613200565b939692955090935050565b5f805f6060848603121561351b575f80fd5b833561352681613200565b9250602084013561353681613200565b9150604084013561354681613200565b809150509250925092565b602080825282518282018190525f9190848201906040850190845b818110156133805783518352928401929184019160010161356c565b5f8060408385031215613599575f80fd5b82356135a481613200565b9150602083013561342781613200565b600181811c908216806135c857607f821691505b6020821081036135e657634e487b7160e01b5f52602260045260245ffd5b50919050565b634e487b7160e01b5f52603260045260245ffd5b601f821115610cef57805f5260205f20601f840160051c810160208510156136255750805b601f840160051c820191505b8181101561230c575f8155600101613631565b81516001600160401b0381111561365d5761365d61307d565b6136718161366b84546135b4565b84613600565b602080601f8311600181146136a4575f841561368d5750858301515b5f19600386901b1c1916600185901b178555611a7c565b5f85815260208120601f198616915b828110156136d2578886015182559484019460019091019084016136b3565b50858210156136ef57878501515f19600388901b60f8161c191681555b5050505050600190811b01905550565b5f6020828403121561370f575f80fd5b81516114be816133ee565b5f815161372b81856020860161318a565b9290920192915050565b5f808554613742816135b4565b6001828116801561375a576001811461376f5761379b565b60ff198416875282151583028701945061379b565b895f526020805f205f5b858110156137925781548a820152908401908201613779565b50505082870194505b50505050602f60f81b815284516137b981600184016020890161318a565b6137d86137d2600183850101602f60f81b815260010190565b8661371a565b979650505050505050565b634e487b7160e01b5f52601160045260245ffd5b5f60018201613808576138086137e3565b5060010190565b80820180821115610c1657610c166137e3565b5f60208284031215613832575f80fd5b5051919050565b6001600160a01b03858116825284166020820152604081018390526080606082018190525f9061386b908301846131ac565b9695505050505050565b5f60208284031215613885575f80fd5b81516114be8161315a565b5f82516138a181846020870161318a565b9190910192915050565b81810381811115610c1657610c166137e3565b634e487b7160e01b5f52603160045260245ffdfe645e039705490088daad89bae25049a34f4a9072d398537b1ab2425f24cbed0080bb2b638cc20bc4d0a60d66940f3ab4a00c1d7b313497ca82fb0b4ab0079300360894a13ba1a3210667c828492db98dca3e2076cc3735a920a3ca505d382bbc645e039705490088daad89bae25049a34f4a9072d398537b1ab2425f24cbed02a264697066735822122043172f453a6b950a7da660d6c4db8a41d016bf6bac6b9d3ac2aa7bf4e960339564736f6c63430008180033","linkReferences":{}},"methodIdentifiers":{"BADGE_ANDROIDS()":"0e0c8b0a","BADGE_BOUNCERS()":"98ef238a","BADGE_DRUMMERS()":"75b9c015","BADGE_MASTERS()":"b378b448","BADGE_MONKS()":"a7fb03ab","BADGE_RAVERS()":"d944061e","BADGE_ROBOTS()":"0f5f04bf","BADGE_SHINTO()":"4808b109","MOVEMENT_BASED()":"9cc28164","MOVEMENT_BOOSTED()":"b4e7409f","MOVEMENT_NEUTRAL()":"d5def7c2","UPGRADE_INTERFACE_VERSION()":"ad3cb1cc","acceptOwnership()":"79ba5097","approve(address,uint256)":"095ea7b3","badgeBalances(address)":"5c6f8ca3","badgeBalancesV2(address)":"f7da8ce3","badges(uint256)":"98e36d8b","balanceOf(address)":"70a08231","baseURI()":"6c0360eb","blacklist()":"a4b5fa56","canMint(bytes,address,uint256)":"b58c439e","getApproved(uint256)":"081812fc","getHash(address,uint256)":"ed05582b","getTokenId(address,uint256)":"29f99b9f","initialize(address,address,address)":"c0c53b8b","initialize(address,string,address,address)":"b8f88d64","isApprovedForAll(address,address)":"e985e9c5","mint(bytes,address,uint256)":"1fcfe19c","mint(bytes,uint256)":"00257612","mintSigner()":"f17af48d","minted(bytes32)":"8ccc5f80","movementBadges(bytes32,uint256)":"3136964c","movements(address)":"700b1acd","name()":"06fdde03","owner()":"8da5cb5b","ownerOf(uint256)":"6352211e","pendingOwner()":"e30c3978","proxiableUUID()":"52d1902d","recruitmentContract()":"c8860d98","recruitmentContractV2()":"599fdaa2","recruitmentLockDuration()":"32c8f504","renounceOwnership()":"715018a6","resetMigration(uint256,uint256,uint256)":"73e9c1f9","safeTransferFrom(address,address,uint256)":"42842e0e","safeTransferFrom(address,address,uint256,bytes)":"b88d4fde","setApprovalForAll(address,bool)":"a22cb465","setMovement(address,uint256)":"ff2c26ec","setMovement(uint256)":"2f19062f","setRecruitmentContract(address)":"e84be852","setRecruitmentContractV2(address)":"f896d3a0","setRecruitmentLockDuration(uint256)":"bacb6d4e","setUri(string)":"9b642de1","startRecruitment(uint256)":"950290c8","startRecruitment(uint256,uint256)":"f23ff9d9","supportsInterface(bytes4)":"01ffc9a7","symbol()":"95d89b41","tokenByIndex(uint256)":"4f6ccce7","tokenOfOwnerByIndex(address,uint256)":"2f745c59","tokenURI(uint256)":"c87b56dd","totalBadgeSupply()":"ca0259c0","totalSupply()":"18160ddd","transferFrom(address,address,uint256)":"23b872dd","transferOwnership(address)":"f2fde38b","unlockTimestamps(uint256)":"9224747d","updateBlacklist(address)":"378b5704","updateMintSigner(address)":"f571049b","upgradeToAndCall(address,bytes)":"4f1ef286","userBadges(address,uint256)":"df91cc23","version()":"54fd4d50"},"storageLayout":{"storage":[{"astId":3275,"contract":"contracts/trailblazers-season-2/TrailblazersS1BadgesV5.sol:TrailblazersBadgesV5","label":"mintSigner","offset":0,"slot":"0","type":"t_address"},{"astId":3280,"contract":"contracts/trailblazers-season-2/TrailblazersS1BadgesV5.sol:TrailblazersBadgesV5","label":"minted","offset":0,"slot":"1","type":"t_mapping(t_bytes32,t_bool)"},{"astId":3284,"contract":"contracts/trailblazers-season-2/TrailblazersS1BadgesV5.sol:TrailblazersBadgesV5","label":"blacklist","offset":0,"slot":"2","type":"t_contract(IMinimalBlacklist)19316"},{"astId":3289,"contract":"contracts/trailblazers-season-2/TrailblazersS1BadgesV5.sol:TrailblazersBadgesV5","label":"__gap","offset":0,"slot":"3","type":"t_array(t_uint256)47_storage"},{"astId":3593,"contract":"contracts/trailblazers-season-2/TrailblazersS1BadgesV5.sol:TrailblazersBadgesV5","label":"_baseURIExtended","offset":0,"slot":"50","type":"t_string_storage"},{"astId":3598,"contract":"contracts/trailblazers-season-2/TrailblazersS1BadgesV5.sol:TrailblazersBadgesV5","label":"badges","offset":0,"slot":"51","type":"t_mapping(t_uint256,t_uint256)"},{"astId":3603,"contract":"contracts/trailblazers-season-2/TrailblazersS1BadgesV5.sol:TrailblazersBadgesV5","label":"movements","offset":0,"slot":"52","type":"t_mapping(t_address,t_uint256)"},{"astId":3610,"contract":"contracts/trailblazers-season-2/TrailblazersS1BadgesV5.sol:TrailblazersBadgesV5","label":"userBadges","offset":0,"slot":"53","type":"t_mapping(t_address,t_mapping(t_uint256,t_uint256))"},{"astId":3617,"contract":"contracts/trailblazers-season-2/TrailblazersS1BadgesV5.sol:TrailblazersBadgesV5","label":"movementBadges","offset":0,"slot":"54","type":"t_mapping(t_bytes32,t_array(t_uint256)2_storage)"},{"astId":3622,"contract":"contracts/trailblazers-season-2/TrailblazersS1BadgesV5.sol:TrailblazersBadgesV5","label":"__gap","offset":0,"slot":"55","type":"t_array(t_uint256)43_storage"},{"astId":6523,"contract":"contracts/trailblazers-season-2/TrailblazersS1BadgesV5.sol:TrailblazersBadgesV5","label":"recruitmentLockDuration","offset":0,"slot":"98","type":"t_uint256"},{"astId":6527,"contract":"contracts/trailblazers-season-2/TrailblazersS1BadgesV5.sol:TrailblazersBadgesV5","label":"recruitmentContract","offset":0,"slot":"99","type":"t_contract(BadgeRecruitment)5789"},{"astId":6532,"contract":"contracts/trailblazers-season-2/TrailblazersS1BadgesV5.sol:TrailblazersBadgesV5","label":"unlockTimestamps","offset":0,"slot":"100","type":"t_mapping(t_uint256,t_uint256)"},{"astId":6678,"contract":"contracts/trailblazers-season-2/TrailblazersS1BadgesV5.sol:TrailblazersBadgesV5","label":"recruitmentContractV2","offset":0,"slot":"101","type":"t_contract(BadgeRecruitmentV2)6139"}],"types":{"t_address":{"encoding":"inplace","label":"address","numberOfBytes":"20"},"t_array(t_uint256)2_storage":{"encoding":"inplace","label":"uint256[2]","numberOfBytes":"64","base":"t_uint256"},"t_array(t_uint256)43_storage":{"encoding":"inplace","label":"uint256[43]","numberOfBytes":"1376","base":"t_uint256"},"t_array(t_uint256)47_storage":{"encoding":"inplace","label":"uint256[47]","numberOfBytes":"1504","base":"t_uint256"},"t_bool":{"encoding":"inplace","label":"bool","numberOfBytes":"1"},"t_bytes32":{"encoding":"inplace","label":"bytes32","numberOfBytes":"32"},"t_contract(BadgeRecruitment)5789":{"encoding":"inplace","label":"contract BadgeRecruitment","numberOfBytes":"20"},"t_contract(BadgeRecruitmentV2)6139":{"encoding":"inplace","label":"contract BadgeRecruitmentV2","numberOfBytes":"20"},"t_contract(IMinimalBlacklist)19316":{"encoding":"inplace","label":"contract IMinimalBlacklist","numberOfBytes":"20"},"t_mapping(t_address,t_mapping(t_uint256,t_uint256))":{"encoding":"mapping","key":"t_address","label":"mapping(address => mapping(uint256 => uint256))","numberOfBytes":"32","value":"t_mapping(t_uint256,t_uint256)"},"t_mapping(t_address,t_uint256)":{"encoding":"mapping","key":"t_address","label":"mapping(address => uint256)","numberOfBytes":"32","value":"t_uint256"},"t_mapping(t_bytes32,t_array(t_uint256)2_storage)":{"encoding":"mapping","key":"t_bytes32","label":"mapping(bytes32 => uint256[2])","numberOfBytes":"32","value":"t_array(t_uint256)2_storage"},"t_mapping(t_bytes32,t_bool)":{"encoding":"mapping","key":"t_bytes32","label":"mapping(bytes32 => bool)","numberOfBytes":"32","value":"t_bool"},"t_mapping(t_uint256,t_uint256)":{"encoding":"mapping","key":"t_uint256","label":"mapping(uint256 => uint256)","numberOfBytes":"32","value":"t_uint256"},"t_string_storage":{"encoding":"bytes","label":"string","numberOfBytes":"32"},"t_uint256":{"encoding":"inplace","label":"uint256","numberOfBytes":"32"}}},"id":18}