{"abi":[{"type":"function","name":"DEFAULT_ADMIN_ROLE","inputs":[],"outputs":[{"name":"","type":"bytes32","internalType":"bytes32"}],"stateMutability":"view"},{"type":"function","name":"UPGRADE_INTERFACE_VERSION","inputs":[],"outputs":[{"name":"","type":"string","internalType":"string"}],"stateMutability":"view"},{"type":"function","name":"acceptOwnership","inputs":[],"outputs":[],"stateMutability":"nonpayable"},{"type":"function","name":"approve","inputs":[{"name":"to","type":"address","internalType":"address"},{"name":"tokenId","type":"uint256","internalType":"uint256"}],"outputs":[],"stateMutability":"nonpayable"},{"type":"function","name":"areWinnersSet","inputs":[],"outputs":[{"name":"","type":"bool","internalType":"bool"}],"stateMutability":"view"},{"type":"function","name":"balanceOf","inputs":[{"name":"owner","type":"address","internalType":"address"}],"outputs":[{"name":"","type":"uint256","internalType":"uint256"}],"stateMutability":"view"},{"type":"function","name":"baseURI","inputs":[],"outputs":[{"name":"","type":"string","internalType":"string"}],"stateMutability":"view"},{"type":"function","name":"blacklist","inputs":[],"outputs":[{"name":"","type":"address","internalType":"contract IMinimalBlacklist"}],"stateMutability":"view"},{"type":"function","name":"getApproved","inputs":[{"name":"tokenId","type":"uint256","internalType":"uint256"}],"outputs":[{"name":"","type":"address","internalType":"address"}],"stateMutability":"view"},{"type":"function","name":"getRoleAdmin","inputs":[{"name":"role","type":"bytes32","internalType":"bytes32"}],"outputs":[{"name":"","type":"bytes32","internalType":"bytes32"}],"stateMutability":"view"},{"type":"function","name":"getWinnerTokenIds","inputs":[],"outputs":[{"name":"","type":"uint256[]","internalType":"uint256[]"}],"stateMutability":"view"},{"type":"function","name":"getWinners","inputs":[],"outputs":[{"name":"_winners","type":"address[]","internalType":"address[]"}],"stateMutability":"view"},{"type":"function","name":"grantRole","inputs":[{"name":"role","type":"bytes32","internalType":"bytes32"},{"name":"account","type":"address","internalType":"address"}],"outputs":[],"stateMutability":"nonpayable"},{"type":"function","name":"hasRole","inputs":[{"name":"role","type":"bytes32","internalType":"bytes32"},{"name":"account","type":"address","internalType":"address"}],"outputs":[{"name":"","type":"bool","internalType":"bool"}],"stateMutability":"view"},{"type":"function","name":"initialize","inputs":[{"name":"_payoutAddress","type":"address","internalType":"address"},{"name":"_mintFee","type":"uint256","internalType":"uint256"},{"name":"_baseURI","type":"string","internalType":"string"},{"name":"_blacklistAddress","type":"address","internalType":"contract IMinimalBlacklist"}],"outputs":[],"stateMutability":"nonpayable"},{"type":"function","name":"isApprovedForAll","inputs":[{"name":"owner","type":"address","internalType":"address"},{"name":"operator","type":"address","internalType":"address"}],"outputs":[{"name":"","type":"bool","internalType":"bool"}],"stateMutability":"view"},{"type":"function","name":"isWinner","inputs":[{"name":"tokenId","type":"uint256","internalType":"uint256"}],"outputs":[{"name":"","type":"bool","internalType":"bool"}],"stateMutability":"view"},{"type":"function","name":"isWinner","inputs":[{"name":"minter","type":"address","internalType":"address"}],"outputs":[{"name":"","type":"bool","internalType":"bool"}],"stateMutability":"view"},{"type":"function","name":"mint","inputs":[],"outputs":[],"stateMutability":"payable"},{"type":"function","name":"mint","inputs":[{"name":"to","type":"address","internalType":"address"}],"outputs":[],"stateMutability":"nonpayable"},{"type":"function","name":"mint","inputs":[{"name":"amount","type":"uint256","internalType":"uint256"}],"outputs":[],"stateMutability":"payable"},{"type":"function","name":"mintActive","inputs":[],"outputs":[{"name":"","type":"bool","internalType":"bool"}],"stateMutability":"view"},{"type":"function","name":"mintFee","inputs":[],"outputs":[{"name":"","type":"uint256","internalType":"uint256"}],"stateMutability":"view"},{"type":"function","name":"mintWinner","inputs":[{"name":"to","type":"address","internalType":"address"}],"outputs":[],"stateMutability":"nonpayable"},{"type":"function","name":"name","inputs":[],"outputs":[{"name":"","type":"string","internalType":"string"}],"stateMutability":"view"},{"type":"function","name":"owner","inputs":[],"outputs":[{"name":"","type":"address","internalType":"address"}],"stateMutability":"view"},{"type":"function","name":"ownerOf","inputs":[{"name":"tokenId","type":"uint256","internalType":"uint256"}],"outputs":[{"name":"","type":"address","internalType":"address"}],"stateMutability":"view"},{"type":"function","name":"pause","inputs":[],"outputs":[],"stateMutability":"nonpayable"},{"type":"function","name":"paused","inputs":[],"outputs":[{"name":"","type":"bool","internalType":"bool"}],"stateMutability":"view"},{"type":"function","name":"payout","inputs":[],"outputs":[],"stateMutability":"nonpayable"},{"type":"function","name":"payoutAddress","inputs":[],"outputs":[{"name":"","type":"address","internalType":"address"}],"stateMutability":"view"},{"type":"function","name":"pendingOwner","inputs":[],"outputs":[{"name":"","type":"address","internalType":"address"}],"stateMutability":"view"},{"type":"function","name":"proxiableUUID","inputs":[],"outputs":[{"name":"","type":"bytes32","internalType":"bytes32"}],"stateMutability":"view"},{"type":"function","name":"renounceOwnership","inputs":[],"outputs":[],"stateMutability":"nonpayable"},{"type":"function","name":"renounceRole","inputs":[{"name":"role","type":"bytes32","internalType":"bytes32"},{"name":"callerConfirmation","type":"address","internalType":"address"}],"outputs":[],"stateMutability":"nonpayable"},{"type":"function","name":"revokeAndReplaceWinner","inputs":[{"name":"revokeId","type":"uint256","internalType":"uint256"},{"name":"newWinnerId","type":"uint256","internalType":"uint256"}],"outputs":[],"stateMutability":"nonpayable"},{"type":"function","name":"revokeRole","inputs":[{"name":"role","type":"bytes32","internalType":"bytes32"},{"name":"account","type":"address","internalType":"address"}],"outputs":[],"stateMutability":"nonpayable"},{"type":"function","name":"revokeWinner","inputs":[{"name":"tokenId","type":"uint256","internalType":"uint256"}],"outputs":[],"stateMutability":"nonpayable"},{"type":"function","name":"revokeWinners","inputs":[{"name":"tokenIds","type":"uint256[]","internalType":"uint256[]"}],"outputs":[],"stateMutability":"nonpayable"},{"type":"function","name":"safeTransferFrom","inputs":[{"name":"from","type":"address","internalType":"address"},{"name":"to","type":"address","internalType":"address"},{"name":"tokenId","type":"uint256","internalType":"uint256"}],"outputs":[],"stateMutability":"nonpayable"},{"type":"function","name":"safeTransferFrom","inputs":[{"name":"from","type":"address","internalType":"address"},{"name":"to","type":"address","internalType":"address"},{"name":"tokenId","type":"uint256","internalType":"uint256"},{"name":"data","type":"bytes","internalType":"bytes"}],"outputs":[],"stateMutability":"nonpayable"},{"type":"function","name":"setApprovalForAll","inputs":[{"name":"operator","type":"address","internalType":"address"},{"name":"approved","type":"bool","internalType":"bool"}],"outputs":[],"stateMutability":"nonpayable"},{"type":"function","name":"setBaseURI","inputs":[{"name":"_baseURI","type":"string","internalType":"string"}],"outputs":[],"stateMutability":"nonpayable"},{"type":"function","name":"setWinnerURI","inputs":[{"name":"_winnerBaseURI","type":"string","internalType":"string"}],"outputs":[],"stateMutability":"nonpayable"},{"type":"function","name":"setWinners","inputs":[{"name":"_winners","type":"uint256[]","internalType":"uint256[]"}],"outputs":[],"stateMutability":"nonpayable"},{"type":"function","name":"supportsInterface","inputs":[{"name":"interfaceId","type":"bytes4","internalType":"bytes4"}],"outputs":[{"name":"","type":"bool","internalType":"bool"}],"stateMutability":"view"},{"type":"function","name":"symbol","inputs":[],"outputs":[{"name":"","type":"string","internalType":"string"}],"stateMutability":"view"},{"type":"function","name":"tokenByIndex","inputs":[{"name":"index","type":"uint256","internalType":"uint256"}],"outputs":[{"name":"","type":"uint256","internalType":"uint256"}],"stateMutability":"view"},{"type":"function","name":"tokenOfOwnerByIndex","inputs":[{"name":"owner","type":"address","internalType":"address"},{"name":"index","type":"uint256","internalType":"uint256"}],"outputs":[{"name":"","type":"uint256","internalType":"uint256"}],"stateMutability":"view"},{"type":"function","name":"tokenURI","inputs":[{"name":"tokenId","type":"uint256","internalType":"uint256"}],"outputs":[{"name":"","type":"string","internalType":"string"}],"stateMutability":"view"},{"type":"function","name":"totalSupply","inputs":[],"outputs":[{"name":"","type":"uint256","internalType":"uint256"}],"stateMutability":"view"},{"type":"function","name":"transferFrom","inputs":[{"name":"from","type":"address","internalType":"address"},{"name":"to","type":"address","internalType":"address"},{"name":"tokenId","type":"uint256","internalType":"uint256"}],"outputs":[],"stateMutability":"nonpayable"},{"type":"function","name":"transferOwnership","inputs":[{"name":"newOwner","type":"address","internalType":"address"}],"outputs":[],"stateMutability":"nonpayable"},{"type":"function","name":"unpause","inputs":[],"outputs":[],"stateMutability":"nonpayable"},{"type":"function","name":"updateBlacklist","inputs":[{"name":"_blacklist","type":"address","internalType":"contract IMinimalBlacklist"}],"outputs":[],"stateMutability":"nonpayable"},{"type":"function","name":"updatePayoutAddress","inputs":[{"name":"_payoutAddress","type":"address","internalType":"address"}],"outputs":[],"stateMutability":"nonpayable"},{"type":"function","name":"upgradeToAndCall","inputs":[{"name":"newImplementation","type":"address","internalType":"address"},{"name":"data","type":"bytes","internalType":"bytes"}],"outputs":[],"stateMutability":"payable"},{"type":"function","name":"winnerBaseURI","inputs":[],"outputs":[{"name":"","type":"string","internalType":"string"}],"stateMutability":"view"},{"type":"function","name":"winnerIds","inputs":[{"name":"","type":"uint256","internalType":"uint256"}],"outputs":[{"name":"","type":"uint256","internalType":"uint256"}],"stateMutability":"view"},{"type":"function","name":"winners","inputs":[{"name":"tokenId","type":"uint256","internalType":"uint256"}],"outputs":[{"name":"isWinner","type":"bool","internalType":"bool"}],"stateMutability":"view"},{"type":"event","name":"Approval","inputs":[{"name":"owner","type":"address","indexed":true,"internalType":"address"},{"name":"approved","type":"address","indexed":true,"internalType":"address"},{"name":"tokenId","type":"uint256","indexed":true,"internalType":"uint256"}],"anonymous":false},{"type":"event","name":"ApprovalForAll","inputs":[{"name":"owner","type":"address","indexed":true,"internalType":"address"},{"name":"operator","type":"address","indexed":true,"internalType":"address"},{"name":"approved","type":"bool","indexed":false,"internalType":"bool"}],"anonymous":false},{"type":"event","name":"BlacklistUpdated","inputs":[{"name":"_blacklist","type":"address","indexed":false,"internalType":"address"}],"anonymous":false},{"type":"event","name":"Initialized","inputs":[{"name":"version","type":"uint64","indexed":false,"internalType":"uint64"}],"anonymous":false},{"type":"event","name":"OwnershipTransferStarted","inputs":[{"name":"previousOwner","type":"address","indexed":true,"internalType":"address"},{"name":"newOwner","type":"address","indexed":true,"internalType":"address"}],"anonymous":false},{"type":"event","name":"OwnershipTransferred","inputs":[{"name":"previousOwner","type":"address","indexed":true,"internalType":"address"},{"name":"newOwner","type":"address","indexed":true,"internalType":"address"}],"anonymous":false},{"type":"event","name":"Paused","inputs":[{"name":"account","type":"address","indexed":false,"internalType":"address"}],"anonymous":false},{"type":"event","name":"RoleAdminChanged","inputs":[{"name":"role","type":"bytes32","indexed":true,"internalType":"bytes32"},{"name":"previousAdminRole","type":"bytes32","indexed":true,"internalType":"bytes32"},{"name":"newAdminRole","type":"bytes32","indexed":true,"internalType":"bytes32"}],"anonymous":false},{"type":"event","name":"RoleGranted","inputs":[{"name":"role","type":"bytes32","indexed":true,"internalType":"bytes32"},{"name":"account","type":"address","indexed":true,"internalType":"address"},{"name":"sender","type":"address","indexed":true,"internalType":"address"}],"anonymous":false},{"type":"event","name":"RoleRevoked","inputs":[{"name":"role","type":"bytes32","indexed":true,"internalType":"bytes32"},{"name":"account","type":"address","indexed":true,"internalType":"address"},{"name":"sender","type":"address","indexed":true,"internalType":"address"}],"anonymous":false},{"type":"event","name":"Transfer","inputs":[{"name":"from","type":"address","indexed":true,"internalType":"address"},{"name":"to","type":"address","indexed":true,"internalType":"address"},{"name":"tokenId","type":"uint256","indexed":true,"internalType":"uint256"}],"anonymous":false},{"type":"event","name":"Unpaused","inputs":[{"name":"account","type":"address","indexed":false,"internalType":"address"}],"anonymous":false},{"type":"event","name":"Upgraded","inputs":[{"name":"implementation","type":"address","indexed":true,"internalType":"address"}],"anonymous":false},{"type":"error","name":"ADDRESS_BLACKLISTED","inputs":[]},{"type":"error","name":"AccessControlBadConfirmation","inputs":[]},{"type":"error","name":"AccessControlUnauthorizedAccount","inputs":[{"name":"account","type":"address","internalType":"address"},{"name":"neededRole","type":"bytes32","internalType":"bytes32"}]},{"type":"error","name":"AddressEmptyCode","inputs":[{"name":"target","type":"address","internalType":"address"}]},{"type":"error","name":"CANNOT_REVOKE_NON_WINNER","inputs":[]},{"type":"error","name":"ERC1967InvalidImplementation","inputs":[{"name":"implementation","type":"address","internalType":"address"}]},{"type":"error","name":"ERC1967NonPayable","inputs":[]},{"type":"error","name":"ERC721EnumerableForbiddenBatchMint","inputs":[]},{"type":"error","name":"ERC721IncorrectOwner","inputs":[{"name":"sender","type":"address","internalType":"address"},{"name":"tokenId","type":"uint256","internalType":"uint256"},{"name":"owner","type":"address","internalType":"address"}]},{"type":"error","name":"ERC721InsufficientApproval","inputs":[{"name":"operator","type":"address","internalType":"address"},{"name":"tokenId","type":"uint256","internalType":"uint256"}]},{"type":"error","name":"ERC721InvalidApprover","inputs":[{"name":"approver","type":"address","internalType":"address"}]},{"type":"error","name":"ERC721InvalidOperator","inputs":[{"name":"operator","type":"address","internalType":"address"}]},{"type":"error","name":"ERC721InvalidOwner","inputs":[{"name":"owner","type":"address","internalType":"address"}]},{"type":"error","name":"ERC721InvalidReceiver","inputs":[{"name":"receiver","type":"address","internalType":"address"}]},{"type":"error","name":"ERC721InvalidSender","inputs":[{"name":"sender","type":"address","internalType":"address"}]},{"type":"error","name":"ERC721NonexistentToken","inputs":[{"name":"tokenId","type":"uint256","internalType":"uint256"}]},{"type":"error","name":"ERC721OutOfBoundsIndex","inputs":[{"name":"owner","type":"address","internalType":"address"},{"name":"index","type":"uint256","internalType":"uint256"}]},{"type":"error","name":"EnforcedPause","inputs":[]},{"type":"error","name":"ExpectedPause","inputs":[]},{"type":"error","name":"FailedInnerCall","inputs":[]},{"type":"error","name":"INSUFFICIENT_MINT_FEE","inputs":[]},{"type":"error","name":"InvalidInitialization","inputs":[]},{"type":"error","name":"NotInitializing","inputs":[]},{"type":"error","name":"OwnableInvalidOwner","inputs":[{"name":"owner","type":"address","internalType":"address"}]},{"type":"error","name":"OwnableUnauthorizedAccount","inputs":[{"name":"account","type":"address","internalType":"address"}]},{"type":"error","name":"UUPSUnauthorizedCallContext","inputs":[]},{"type":"error","name":"UUPSUnsupportedProxiableUUID","inputs":[{"name":"slot","type":"bytes32","internalType":"bytes32"}]}],"bytecode":{"object":"0x60a060405230608052348015610013575f80fd5b506080516134ae61003a5f395f8181611e7701528181611ea00152611fdf01526134ae5ff3fe608060405260043610610387575f3560e01c80636c0360eb116101d3578063a22cb465116100fd578063cb44cdff1161009d578063e30c39781161006d578063e30c397814610a12578063e985e9c514610a26578063ea61e5b114610a45578063f2fde38b14610a59575f80fd5b8063cb44cdff14610994578063d547741f146109b3578063dba2fafe146109d2578063df15c37e146109f1575f80fd5b8063a50c621c116100d8578063a50c621c14610907578063ad3cb1cc14610926578063b88d4fde14610956578063c87b56dd14610975575f80fd5b8063a22cb4651461089b578063a2fb1175146108ba578063a4b5fa56146108e8575f80fd5b80638da5cb5b116101735780639d9ca28d116101435780639d9ca28d146108375780639eadb39114610856578063a0712d6814610875578063a217fddf14610888575f80fd5b80638da5cb5b146107cf5780638ed8498a146107e357806391d148541461080457806395d89b4114610823575f80fd5b806376c52b09116101ae57806376c52b0914610769578063781fab761461078857806379ba5097146107a75780638456cb59146107bb575f80fd5b80636c0360eb1461072257806370a0823114610736578063715018a614610755575f80fd5b80633f4ba83a116102b457806355f804b3116102545780635c975abb116102245780635c975abb146106ad5780636352211e146106d057806363bd1d4a146106ef5780636a62784214610703575f80fd5b806355f804b31461063a578063562008191461065957806356e549b8146106785780635b8d02d71461068e575f80fd5b80634894d3931161028f5780634894d393146105d55780634f1ef286146105f45780634f6ccce71461060757806352d1902d14610626575f80fd5b80633f4ba83a14610583578063403d13121461059757806342842e0e146105b6575f80fd5b806318160ddd1161032a5780632f2ff15d116102fa5780632f2ff15d146105075780632f745c591461052657806336568abe14610545578063378b570414610564575f80fd5b806318160ddd1461049057806323b872dd146104b0578063248a9ca3146104cf57806325fd90f3146104ee575f80fd5b8063095ea7b311610365578063095ea7b3146104175780630e392288146104385780631249c58b1461046657806313966db51461046e575f80fd5b806301ffc9a71461038b57806306fdde03146103bf578063081812fc146103e0575b5f80fd5b348015610396575f80fd5b506103aa6103a5366004612bb6565b610a78565b60405190151581526020015b60405180910390f35b3480156103ca575f80fd5b506103d3610a88565b6040516103b69190612c1e565b3480156103eb575f80fd5b506103ff6103fa366004612c30565b610b29565b6040516001600160a01b0390911681526020016103b6565b348015610422575f80fd5b50610436610431366004612c5b565b610b3d565b005b348015610443575f80fd5b506103aa610452366004612c30565b5f9081526002602052604090205460ff1690565b610436610b4c565b348015610479575f80fd5b506104825f5481565b6040519081526020016103b6565b34801561049b575f80fd5b505f8051602061341983398151915254610482565b3480156104bb575f80fd5b506104366104ca366004612c85565b610c21565b3480156104da575f80fd5b506104826104e9366004612c30565b610caf565b3480156104f9575f80fd5b506001546103aa9060ff1681565b348015610512575f80fd5b50610436610521366004612cc3565b610ccf565b348015610531575f80fd5b50610482610540366004612c5b565b610ceb565b348015610550575f80fd5b5061043661055f366004612cc3565b610d5c565b34801561056f575f80fd5b5061043661057e366004612cf1565b610d94565b34801561058e575f80fd5b50610436610df3565b3480156105a2575f80fd5b506104826105b1366004612c30565b610e08565b3480156105c1575f80fd5b506104366105d0366004612c85565b610e27565b3480156105e0575f80fd5b506104366105ef366004612cf1565b610e41565b610436610602366004612da9565b610f0d565b348015610612575f80fd5b50610482610621366004612c30565b610f28565b348015610631575f80fd5b50610482610f9a565b348015610645575f80fd5b50610436610654366004612df6565b610fb5565b348015610664575f80fd5b50610436610673366004612cf1565b610fcb565b348015610683575f80fd5b5060085415156103aa565b348015610699575f80fd5b506005546103ff906001600160a01b031681565b3480156106b8575f80fd5b505f805160206134598339815191525460ff166103aa565b3480156106db575f80fd5b506103ff6106ea366004612c30565b610ff8565b3480156106fa575f80fd5b50610436611002565b34801561070e575f80fd5b5061043661071d366004612cf1565b61104a565b34801561072d575f80fd5b506103d3611106565b348015610741575f80fd5b50610482610750366004612cf1565b611192565b348015610760575f80fd5b506104366111ea565b348015610774575f80fd5b50610436610783366004612df6565b6111fd565b348015610793575f80fd5b506104366107a2366004612c30565b611213565b3480156107b2575f80fd5b506104366112d7565b3480156107c6575f80fd5b5061043661131c565b3480156107da575f80fd5b506103ff61132e565b3480156107ee575f80fd5b506107f7611362565b6040516103b69190612e30565b34801561080f575f80fd5b506103aa61081e366004612cc3565b6113c0565b34801561082e575f80fd5b506103d36113f6565b348015610842575f80fd5b506103aa610851366004612cf1565b611434565b348015610861575f80fd5b50610436610870366004612e73565b611485565b610436610883366004612c30565b611514565b348015610893575f80fd5b506104825f81565b3480156108a6575f80fd5b506104366108b5366004612ea0565b611607565b3480156108c5575f80fd5b506103aa6108d4366004612c30565b60026020525f908152604090205460ff1681565b3480156108f3575f80fd5b506007546103ff906001600160a01b031681565b348015610912575f80fd5b50610436610921366004612ecc565b611612565b348015610931575f80fd5b506103d3604051806040016040528060058152602001640352e302e360dc1b81525081565b348015610961575f80fd5b50610436610970366004612f3b565b61164f565b348015610980575f80fd5b506103d361098f366004612c30565b611666565b34801561099f575f80fd5b506104366109ae366004612ecc565b6116d4565b3480156109be575f80fd5b506104366109cd366004612cc3565b61176e565b3480156109dd575f80fd5b506104366109ec366004612fa3565b61178a565b3480156109fc575f80fd5b50610a05611942565b6040516103b6919061300b565b348015610a1d575f80fd5b506103ff6119f9565b348015610a31575f80fd5b506103aa610a4036600461304b565b611a21565b348015610a50575f80fd5b506103d3611a6d565b348015610a64575f80fd5b50610436610a73366004612cf1565b611a7a565b5f610a8282611aff565b92915050565b5f805160206133d98339815191528054606091908190610aa790613077565b80601f0160208091040260200160405190810160405280929190818152602001828054610ad390613077565b8015610b1e5780601f10610af557610100808354040283529160200191610b1e565b820191905f5260205f20905b815481529060010190602001808311610b0157829003601f168201915b505050505091505090565b5f610b3382611b23565b50610a8282611b5a565b610b48828233611b93565b5050565b610b54611ba0565b3360075460405163fe575a8760e01b81526001600160a01b0383811660048301529091169063fe575a8790602401602060405180830381865afa158015610b9d573d5f803e3d5ffd5b505050506040513d601f19601f82011682018060405250810190610bc191906130af565b15610bdf57604051637874e36360e01b815260040160405180910390fd5b5f54341015610c0157604051633422732160e01b815260040160405180910390fd5b600680545f9182610c11836130de565b919050559050610b483382611bd0565b6001600160a01b038216610c4f57604051633250574960e11b81525f60048201526024015b60405180910390fd5b5f610c5b838333611be9565b9050836001600160a01b0316816001600160a01b031614610ca9576040516364283d7b60e01b81526001600160a01b0380861660048301526024820184905282166044820152606401610c46565b50505050565b5f9081525f80516020613439833981519152602052604090206001015490565b610cd882610caf565b610ce181611ce9565b610ca98383611cf3565b5f5f805160206133b9833981519152610d0384611192565b8310610d345760405163295f44f760e21b81526001600160a01b038516600482015260248101849052604401610c46565b6001600160a01b0384165f908152602091825260408082208583529092522054905092915050565b6001600160a01b0381163314610d855760405163334bd91960e11b815260040160405180910390fd5b610d8f8282611d94565b505050565b5f610d9e81611ce9565b600780546001600160a01b0319166001600160a01b0384169081179091556040519081527f75cdf6842d867a09260947ac775619527788d913a79fc3b41da1815fa377af659060200160405180910390a15050565b5f610dfd81611ce9565b610e05611e0d565b50565b60088181548110610e17575f80fd5b5f91825260209091200154905081565b610d8f83838360405180602001604052805f81525061164f565b5f610e4b81611ce9565b60075460405163fe575a8760e01b81526001600160a01b0380851660048301528492169063fe575a8790602401602060405180830381865afa158015610e93573d5f803e3d5ffd5b505050506040513d601f19601f82011682018060405250810190610eb791906130af565b15610ed557604051637874e36360e01b815260040160405180910390fd5b600680545f9182610ee5836130de565b909155505f818152600260205260409020805460ff191660011790559050610ca98482611bd0565b610f15611e6c565b610f1e82611f10565b610b488282611f18565b5f5f805160206133b9833981519152610f4c5f805160206134198339815191525490565b8310610f745760405163295f44f760e21b81525f600482015260248101849052604401610c46565b806002018381548110610f8957610f896130f6565b905f5260205f200154915050919050565b5f610fa3611fd4565b505f805160206133f983398151915290565b5f610fbf81611ce9565b6003610d8f838261314e565b5f610fd581611ce9565b50600580546001600160a01b0319166001600160a01b0392909216919091179055565b5f610a8282611b23565b61100a61201d565b5f61101481611ce9565b6005546040516001600160a01b03909116904780156108fc02915f818181858888f19350505050158015610b48573d5f803e3d5ffd5b611052611ba0565b5f61105c81611ce9565b60075460405163fe575a8760e01b81526001600160a01b0380851660048301528492169063fe575a8790602401602060405180830381865afa1580156110a4573d5f803e3d5ffd5b505050506040513d601f19601f820116820180604052508101906110c891906130af565b156110e657604051637874e36360e01b815260040160405180910390fd5b600680545f91826110f6836130de565b919050559050610ca98482611bd0565b6003805461111390613077565b80601f016020809104026020016040519081016040528092919081815260200182805461113f90613077565b801561118a5780601f106111615761010080835404028352916020019161118a565b820191905f5260205f20905b81548152906001019060200180831161116d57829003601f168201915b505050505081565b5f5f805160206133d98339815191526001600160a01b0383166111ca576040516322718ad960e21b81525f6004820152602401610c46565b6001600160a01b039092165f908152600390920160205250604090205490565b6111f261204c565b6111fb5f61207e565b565b5f61120781611ce9565b6004610d8f838261314e565b5f61121d81611ce9565b5f828152600260205260408120805460ff191690555b600854811015610d8f578260088281548110611251576112516130f6565b905f5260205f200154036112cf576008805461126f9060019061320e565b8154811061127f5761127f6130f6565b905f5260205f2001546008828154811061129b5761129b6130f6565b5f9182526020909120015560088054806112b7576112b7613221565b600190038181905f5260205f20015f90559055505050565b600101611233565b33806112e16119f9565b6001600160a01b0316146113135760405163118cdaa760e01b81526001600160a01b0382166004820152602401610c46565b610e058161207e565b5f61132681611ce9565b610e056120b6565b5f807f9016d09d72d40fdae2fd8ceac6b6234c7706214fd39c1cd1e609a0528c1993005b546001600160a01b031692915050565b606061136c61201d565b60088054806020026020016040519081016040528092919081815260200182805480156113b657602002820191905f5260205f20905b8154815260200190600101908083116113a2575b5050505050905090565b5f9182525f80516020613439833981519152602090815260408084206001600160a01b0393909316845291905290205460ff1690565b7f80bb2b638cc20bc4d0a60d66940f3ab4a00c1d7b313497ca82fb0b4ab007930180546060915f805160206133d983398151915291610aa790613077565b5f805b61144083611192565b81101561147d5760025f6114548584610ceb565b815260208101919091526040015f205460ff16156114755750600192915050565b600101611437565b505f92915050565b5f61148f81611ce9565b5f8381526002602052604090205460ff166114bd576040516332b2122560e21b815260040160405180910390fd5b6114c683611213565b505f818152600260205260408120805460ff191660019081179091556008805491820181559091527ff3f7a9fe364faab93b216da50a3214154f22a0a2b415b23a84c8169e8b636ee3015550565b61151c611ba0565b3360075460405163fe575a8760e01b81526001600160a01b0383811660048301529091169063fe575a8790602401602060405180830381865afa158015611565573d5f803e3d5ffd5b505050506040513d601f19601f8201168201806040525081019061158991906130af565b156115a757604051637874e36360e01b815260040160405180910390fd5b815f546115b49190613235565b3410156115d457604051633422732160e01b815260040160405180910390fd5b5f5b82811015610d8f57600680545f91826115ee836130de565b9190505590506115fe3382611bd0565b506001016115d6565b610b483383836120fe565b5f61161c81611ce9565b5f5b82811015610ca95761164784848381811061163b5761163b6130f6565b90506020020135611213565b60010161161e565b61165a848484610c21565b610ca9848484846121ad565b6008546060905f0361169a57600360405160200161168491906132bb565b6040516020818303038152906040529050919050565b5f8281526002602052604090205460ff16156116c257600360405160200161168491906132e2565b60036040516020016116849190613309565b6116dc61201d565b5f6116e681611ce9565b5f5b82811015610ca957600160025f868685818110611707576117076130f6565b9050602002013581526020019081526020015f205f6101000a81548160ff0219169083151502179055506008848483818110611745576117456130f6565b8354600180820186555f95865260209586902092909502939093013592019190915550016116e8565b61177782610caf565b61178081611ce9565b610ca98383611d94565b7ff0c57e16840df040f15088dc2f81fe391c3923bec73e23a9662efc9c229c6a008054600160401b810460ff16159067ffffffffffffffff165f811580156117cf5750825b90505f8267ffffffffffffffff1660011480156117eb5750303b155b9050811580156117f9575080155b156118175760405163f92ee8a960e01b815260040160405180910390fd5b845467ffffffffffffffff19166001178555831561184157845460ff60401b1916600160401b1785555b61188e6040518060400160405280601081526020016f15185a5adbd4185c9d1e551a58dad95d60821b8152506040518060400160405280600381526020016215141560ea1b8152506122d3565b6118966122e5565b5f88905560036118a6888261314e565b50600580546001600160a01b03808c166001600160a01b03199283161790925560078054928916929091169190911790556118e75f6118e23390565b611cf3565b506118f13361207e565b831561193757845460ff60401b19168555604051600181527fc7f505b2f371ae2175ee4913f4499e1f2633a7b5936321eed1cdaeb6115181d29060200160405180910390a15b505050505050505050565b606061194c61201d565b60085467ffffffffffffffff81111561196757611967612d0c565b604051908082528060200260200182016040528015611990578160200160208202803683370190505b5090505f5b6008548110156119f5576119c3600882815481106119b5576119b56130f6565b905f5260205f200154610ff8565b8282815181106119d5576119d56130f6565b6001600160a01b0390921660209283029190910190910152600101611995565b5090565b5f807f237e158222e3e6968b72b9db0d8043aacf074ad9f650f0d1606b4d82ee432c00611352565b6001600160a01b039182165f9081527f80bb2b638cc20bc4d0a60d66940f3ab4a00c1d7b313497ca82fb0b4ab00793056020908152604080832093909416825291909152205460ff1690565b6004805461111390613077565b611a8261204c565b7f237e158222e3e6968b72b9db0d8043aacf074ad9f650f0d1606b4d82ee432c0080546001600160a01b0319166001600160a01b0383169081178255611ac661132e565b6001600160a01b03167f38d16b8cac22d99fc7c124b9cd0de2d3fa1faef420bfe791d8c362d765e2270060405160405180910390a35050565b5f6001600160e01b03198216637965db0b60e01b1480610a825750610a82826122ed565b5f80611b2e83612311565b90506001600160a01b038116610a8257604051637e27328960e01b815260048101849052602401610c46565b5f9081527f80bb2b638cc20bc4d0a60d66940f3ab4a00c1d7b313497ca82fb0b4ab007930460205260409020546001600160a01b031690565b610d8f838383600161234a565b5f805160206134598339815191525460ff16156111fb5760405163d93c066560e01b815260040160405180910390fd5b610b48828260405180602001604052805f81525061245d565b5f80611bf6858585612473565b90506001600160a01b038116611c7d57611c78845f8051602061341983398151915280545f8381527f645e039705490088daad89bae25049a34f4a9072d398537b1ab2425f24cbed0360205260408120829055600182018355919091527fa42f15e5d656f8155fd7419d740a6073999f19cd6e061449ce4a257150545bf20155565b611ca0565b846001600160a01b0316816001600160a01b031614611ca057611ca08185612575565b6001600160a01b038516611cbc57611cb784612614565b611cdf565b846001600160a01b0316816001600160a01b031614611cdf57611cdf85856126e1565b90505b9392505050565b610e058133612739565b5f5f80516020613439833981519152611d0c84846113c0565b611d8b575f848152602082815260408083206001600160a01b03871684529091529020805460ff19166001179055611d413390565b6001600160a01b0316836001600160a01b0316857f2f8788117e7eff1d82e926ec794901d17c78024a50270940304540a733656f0d60405160405180910390a46001915050610a82565b5f915050610a82565b5f5f80516020613439833981519152611dad84846113c0565b15611d8b575f848152602082815260408083206001600160a01b0387168085529252808320805460ff1916905551339287917ff6391f5c32d9c69d2a47ea670b442974b53935d1edc7fd64eb21e047a839171b9190a46001915050610a82565b611e1561201d565b5f80516020613459833981519152805460ff191681557f5db9ee0a495bf2e6ff9c91a7834c1ba4fdd244a5e8aa4e537bd38aeae4b073aa335b6040516001600160a01b03909116815260200160405180910390a150565b306001600160a01b037f0000000000000000000000000000000000000000000000000000000000000000161480611ef257507f00000000000000000000000000000000000000000000000000000000000000006001600160a01b0316611ee65f805160206133f9833981519152546001600160a01b031690565b6001600160a01b031614155b156111fb5760405163703e46dd60e11b815260040160405180910390fd5b610e0561204c565b816001600160a01b03166352d1902d6040518163ffffffff1660e01b8152600401602060405180830381865afa925050508015611f72575060408051601f3d908101601f19168201909252611f6f9181019061332f565b60015b611f9a57604051634c9c8ce360e01b81526001600160a01b0383166004820152602401610c46565b5f805160206133f98339815191528114611fca57604051632a87526960e21b815260048101829052602401610c46565b610d8f8383612772565b306001600160a01b037f000000000000000000000000000000000000000000000000000000000000000016146111fb5760405163703e46dd60e11b815260040160405180910390fd5b5f805160206134598339815191525460ff166111fb57604051638dfc202b60e01b815260040160405180910390fd5b3361205561132e565b6001600160a01b0316146111fb5760405163118cdaa760e01b8152336004820152602401610c46565b7f237e158222e3e6968b72b9db0d8043aacf074ad9f650f0d1606b4d82ee432c0080546001600160a01b0319168155610b48826127c7565b6120be611ba0565b5f80516020613459833981519152805460ff191660011781557f62e78cea01bee320cd4e420270b5ea74000d11b0c9f74754ebdbfc544b05a25833611e4e565b5f805160206133d98339815191526001600160a01b03831661213e57604051630b61174360e31b81526001600160a01b0384166004820152602401610c46565b6001600160a01b038481165f818152600584016020908152604080832094881680845294825291829020805460ff191687151590811790915591519182527f17307eab39ab6107e8899845ad3d59bd9653f200f220920489ca2b5937696c31910160405180910390a350505050565b6001600160a01b0383163b15610ca957604051630a85bd0160e11b81526001600160a01b0384169063150b7a02906121ef903390889087908790600401613346565b6020604051808303815f875af1925050508015612229575060408051601f3d908101601f1916820190925261222691810190613382565b60015b612290573d808015612256576040519150601f19603f3d011682016040523d82523d5f602084013e61225b565b606091505b5080515f0361228857604051633250574960e11b81526001600160a01b0385166004820152602401610c46565b805181602001fd5b6001600160e01b03198116630a85bd0160e11b146122cc57604051633250574960e11b81526001600160a01b0385166004820152602401610c46565b5050505050565b6122db612837565b610b488282612880565b6111fb612837565b5f6001600160e01b0319821663780e9d6360e01b1480610a825750610a82826128b0565b5f9081527f80bb2b638cc20bc4d0a60d66940f3ab4a00c1d7b313497ca82fb0b4ab007930260205260409020546001600160a01b031690565b5f805160206133d9833981519152818061236c57506001600160a01b03831615155b1561242d575f61237b85611b23565b90506001600160a01b038416158015906123a75750836001600160a01b0316816001600160a01b031614155b80156123ba57506123b88185611a21565b155b156123e35760405163a9fbf51f60e01b81526001600160a01b0385166004820152602401610c46565b821561242b5784866001600160a01b0316826001600160a01b03167f8c5be1e5ebec7d5bd14f71427d1e84f3dd0314c0f7b2291e5b200ac8c7c3b92560405160405180910390a45b505b5f93845260040160205250506040902080546001600160a01b0319166001600160a01b0392909216919091179055565b61246783836128ff565b610d8f5f8484846121ad565b5f5f805160206133d98339815191528161248c85612311565b90506001600160a01b038416156124a8576124a8818587612960565b6001600160a01b038116156124e4576124c35f865f8061234a565b6001600160a01b0381165f908152600383016020526040902080545f190190555b6001600160a01b03861615612514576001600160a01b0386165f9081526003830160205260409020805460010190555b5f85815260028301602052604080822080546001600160a01b0319166001600160a01b038a811691821790925591518893918516917fddf252ad1be2c89b69c2b068fc378daa952ba7f163c4a11628f55a4df523b3ef91a495945050505050565b5f805160206133b98339815191525f61258d84611192565b5f8481526001840160205260409020549091508082146125e0576001600160a01b0385165f9081526020848152604080832085845282528083205484845281842081905583526001860190915290208190555b505f92835260018201602090815260408085208590556001600160a01b039095168452918252838320908352905290812055565b5f80516020613419833981519152545f805160206133b9833981519152905f906126409060019061320e565b5f84815260038401602052604081205460028501805493945090928490811061266b5761266b6130f6565b905f5260205f20015490508084600201838154811061268c5761268c6130f6565b5f918252602080832090910192909255828152600386019091526040808220849055868252812055600284018054806126c7576126c7613221565b600190038181905f5260205f20015f905590555050505050565b5f805160206133b98339815191525f60016126fb85611192565b612705919061320e565b6001600160a01b039094165f9081526020838152604080832087845282528083208690559482526001909301909252502055565b61274382826113c0565b610b485760405163e2517d3f60e01b81526001600160a01b038216600482015260248101839052604401610c46565b61277b826129c4565b6040516001600160a01b038316907fbc7cd75a20ee27fd9adebab32041f755214dbc6bffa90cc0225b39da2e5c2d3b905f90a28051156127bf57610d8f8282612a27565b610b48612a99565b7f9016d09d72d40fdae2fd8ceac6b6234c7706214fd39c1cd1e609a0528c19930080546001600160a01b031981166001600160a01b03848116918217845560405192169182907f8be0079c531659141344cd1fd0a4f28419497f9722a3daafe3b4186f6b6457e0905f90a3505050565b7ff0c57e16840df040f15088dc2f81fe391c3923bec73e23a9662efc9c229c6a0054600160401b900460ff166111fb57604051631afcd79f60e31b815260040160405180910390fd5b612888612837565b5f805160206133d9833981519152806128a1848261314e565b5060018101610ca9838261314e565b5f6001600160e01b031982166380ac58cd60e01b14806128e057506001600160e01b03198216635b5e139f60e01b145b80610a8257506301ffc9a760e01b6001600160e01b0319831614610a82565b6001600160a01b03821661292857604051633250574960e11b81525f6004820152602401610c46565b5f61293483835f611be9565b90506001600160a01b03811615610d8f576040516339e3563760e11b81525f6004820152602401610c46565b61296b838383612ab8565b610d8f576001600160a01b03831661299957604051637e27328960e01b815260048101829052602401610c46565b60405163177e802f60e01b81526001600160a01b038316600482015260248101829052604401610c46565b806001600160a01b03163b5f036129f957604051634c9c8ce360e01b81526001600160a01b0382166004820152602401610c46565b5f805160206133f983398151915280546001600160a01b0319166001600160a01b0392909216919091179055565b60605f80846001600160a01b031684604051612a43919061339d565b5f60405180830381855af49150503d805f8114612a7b576040519150601f19603f3d011682016040523d82523d5f602084013e612a80565b606091505b5091509150612a90858383612b1c565b95945050505050565b34156111fb5760405163b398979f60e01b815260040160405180910390fd5b5f6001600160a01b03831615801590611cdf5750826001600160a01b0316846001600160a01b03161480612af15750612af18484611a21565b80611cdf5750826001600160a01b0316612b0a83611b5a565b6001600160a01b031614949350505050565b606082612b3157612b2c82612b78565b611ce2565b8151158015612b4857506001600160a01b0384163b155b15612b7157604051639996b31560e01b81526001600160a01b0385166004820152602401610c46565b5080611ce2565b805115612b885780518082602001fd5b604051630a12f52160e11b815260040160405180910390fd5b6001600160e01b031981168114610e05575f80fd5b5f60208284031215612bc6575f80fd5b8135611ce281612ba1565b5f5b83811015612beb578181015183820152602001612bd3565b50505f910152565b5f8151808452612c0a816020860160208601612bd1565b601f01601f19169290920160200192915050565b602081525f611ce26020830184612bf3565b5f60208284031215612c40575f80fd5b5035919050565b6001600160a01b0381168114610e05575f80fd5b5f8060408385031215612c6c575f80fd5b8235612c7781612c47565b946020939093013593505050565b5f805f60608486031215612c97575f80fd5b8335612ca281612c47565b92506020840135612cb281612c47565b929592945050506040919091013590565b5f8060408385031215612cd4575f80fd5b823591506020830135612ce681612c47565b809150509250929050565b5f60208284031215612d01575f80fd5b8135611ce281612c47565b634e487b7160e01b5f52604160045260245ffd5b5f82601f830112612d2f575f80fd5b813567ffffffffffffffff80821115612d4a57612d4a612d0c565b604051601f8301601f19908116603f01168101908282118183101715612d7257612d72612d0c565b81604052838152866020858801011115612d8a575f80fd5b836020870160208301375f602085830101528094505050505092915050565b5f8060408385031215612dba575f80fd5b8235612dc581612c47565b9150602083013567ffffffffffffffff811115612de0575f80fd5b612dec85828601612d20565b9150509250929050565b5f60208284031215612e06575f80fd5b813567ffffffffffffffff811115612e1c575f80fd5b612e2884828501612d20565b949350505050565b602080825282518282018190525f9190848201906040850190845b81811015612e6757835183529284019291840191600101612e4b565b50909695505050505050565b5f8060408385031215612e84575f80fd5b50508035926020909101359150565b8015158114610e05575f80fd5b5f8060408385031215612eb1575f80fd5b8235612ebc81612c47565b91506020830135612ce681612e93565b5f8060208385031215612edd575f80fd5b823567ffffffffffffffff80821115612ef4575f80fd5b818501915085601f830112612f07575f80fd5b813581811115612f15575f80fd5b8660208260051b8501011115612f29575f80fd5b60209290920196919550909350505050565b5f805f8060808587031215612f4e575f80fd5b8435612f5981612c47565b93506020850135612f6981612c47565b925060408501359150606085013567ffffffffffffffff811115612f8b575f80fd5b612f9787828801612d20565b91505092959194509250565b5f805f8060808587031215612fb6575f80fd5b8435612fc181612c47565b935060208501359250604085013567ffffffffffffffff811115612fe3575f80fd5b612fef87828801612d20565b925050606085013561300081612c47565b939692955090935050565b602080825282518282018190525f9190848201906040850190845b81811015612e675783516001600160a01b031683529284019291840191600101613026565b5f806040838503121561305c575f80fd5b823561306781612c47565b91506020830135612ce681612c47565b600181811c9082168061308b57607f821691505b6020821081036130a957634e487b7160e01b5f52602260045260245ffd5b50919050565b5f602082840312156130bf575f80fd5b8151611ce281612e93565b634e487b7160e01b5f52601160045260245ffd5b5f600182016130ef576130ef6130ca565b5060010190565b634e487b7160e01b5f52603260045260245ffd5b601f821115610d8f57805f5260205f20601f840160051c8101602085101561312f5750805b601f840160051c820191505b818110156122cc575f815560010161313b565b815167ffffffffffffffff81111561316857613168612d0c565b61317c816131768454613077565b8461310a565b602080601f8311600181146131af575f84156131985750858301515b5f19600386901b1c1916600185901b178555613206565b5f85815260208120601f198616915b828110156131dd578886015182559484019460019091019084016131be565b50858210156131fa57878501515f19600388901b60f8161c191681555b505060018460011b0185555b505050505050565b81810381811115610a8257610a826130ca565b634e487b7160e01b5f52603160045260245ffd5b8082028115828204841417610a8257610a826130ca565b5f815461325881613077565b600182811680156132705760018114613285576132b1565b60ff19841687528215158302870194506132b1565b855f526020805f205f5b858110156132a85781548a82015290840190820161328f565b50505082870194505b5050505092915050565b5f6132c6828461324c565b6b17b930b3333632973539b7b760a11b8152600c019392505050565b5f6132ed828461324c565b6b17bbb4b73732b9173539b7b760a11b8152600c019392505050565b5f613314828461324c565b6a17b637b9b2b9173539b7b760a91b8152600b019392505050565b5f6020828403121561333f575f80fd5b5051919050565b6001600160a01b03858116825284166020820152604081018390526080606082018190525f9061337890830184612bf3565b9695505050505050565b5f60208284031215613392575f80fd5b8151611ce281612ba1565b5f82516133ae818460208701612bd1565b919091019291505056fe645e039705490088daad89bae25049a34f4a9072d398537b1ab2425f24cbed0080bb2b638cc20bc4d0a60d66940f3ab4a00c1d7b313497ca82fb0b4ab0079300360894a13ba1a3210667c828492db98dca3e2076cc3735a920a3ca505d382bbc645e039705490088daad89bae25049a34f4a9072d398537b1ab2425f24cbed0202dd7bc7dec4dceedda775e58dd541e08a116c6c53815c0bd028192f7b626800cd5ed15c6e187e77e9aee88184c21f4f2182ab5827cb3b7e07fbedcd63f03300a2646970667358221220d35a783404a36b100330d2e989120d9b44a67747cf25431701803e3eb8373f5164736f6c63430008180033","linkReferences":{}},"methodIdentifiers":{"DEFAULT_ADMIN_ROLE()":"a217fddf","UPGRADE_INTERFACE_VERSION()":"ad3cb1cc","acceptOwnership()":"79ba5097","approve(address,uint256)":"095ea7b3","areWinnersSet()":"56e549b8","balanceOf(address)":"70a08231","baseURI()":"6c0360eb","blacklist()":"a4b5fa56","getApproved(uint256)":"081812fc","getRoleAdmin(bytes32)":"248a9ca3","getWinnerTokenIds()":"8ed8498a","getWinners()":"df15c37e","grantRole(bytes32,address)":"2f2ff15d","hasRole(bytes32,address)":"91d14854","initialize(address,uint256,string,address)":"dba2fafe","isApprovedForAll(address,address)":"e985e9c5","isWinner(address)":"9d9ca28d","isWinner(uint256)":"0e392288","mint()":"1249c58b","mint(address)":"6a627842","mint(uint256)":"a0712d68","mintActive()":"25fd90f3","mintFee()":"13966db5","mintWinner(address)":"4894d393","name()":"06fdde03","owner()":"8da5cb5b","ownerOf(uint256)":"6352211e","pause()":"8456cb59","paused()":"5c975abb","payout()":"63bd1d4a","payoutAddress()":"5b8d02d7","pendingOwner()":"e30c3978","proxiableUUID()":"52d1902d","renounceOwnership()":"715018a6","renounceRole(bytes32,address)":"36568abe","revokeAndReplaceWinner(uint256,uint256)":"9eadb391","revokeRole(bytes32,address)":"d547741f","revokeWinner(uint256)":"781fab76","revokeWinners(uint256[])":"a50c621c","safeTransferFrom(address,address,uint256)":"42842e0e","safeTransferFrom(address,address,uint256,bytes)":"b88d4fde","setApprovalForAll(address,bool)":"a22cb465","setBaseURI(string)":"55f804b3","setWinnerURI(string)":"76c52b09","setWinners(uint256[])":"cb44cdff","supportsInterface(bytes4)":"01ffc9a7","symbol()":"95d89b41","tokenByIndex(uint256)":"4f6ccce7","tokenOfOwnerByIndex(address,uint256)":"2f745c59","tokenURI(uint256)":"c87b56dd","totalSupply()":"18160ddd","transferFrom(address,address,uint256)":"23b872dd","transferOwnership(address)":"f2fde38b","unpause()":"3f4ba83a","updateBlacklist(address)":"378b5704","updatePayoutAddress(address)":"56200819","upgradeToAndCall(address,bytes)":"4f1ef286","winnerBaseURI()":"ea61e5b1","winnerIds(uint256)":"403d1312","winners(uint256)":"a2fb1175"},"storageLayout":{"storage":[{"astId":551,"contract":"contracts/party-ticket/TaikoPartyTicket.sol:TaikoPartyTicket","label":"mintFee","offset":0,"slot":"0","type":"t_uint256"},{"astId":554,"contract":"contracts/party-ticket/TaikoPartyTicket.sol:TaikoPartyTicket","label":"mintActive","offset":0,"slot":"1","type":"t_bool"},{"astId":559,"contract":"contracts/party-ticket/TaikoPartyTicket.sol:TaikoPartyTicket","label":"winners","offset":0,"slot":"2","type":"t_mapping(t_uint256,t_bool)"},{"astId":562,"contract":"contracts/party-ticket/TaikoPartyTicket.sol:TaikoPartyTicket","label":"baseURI","offset":0,"slot":"3","type":"t_string_storage"},{"astId":565,"contract":"contracts/party-ticket/TaikoPartyTicket.sol:TaikoPartyTicket","label":"winnerBaseURI","offset":0,"slot":"4","type":"t_string_storage"},{"astId":568,"contract":"contracts/party-ticket/TaikoPartyTicket.sol:TaikoPartyTicket","label":"payoutAddress","offset":0,"slot":"5","type":"t_address"},{"astId":571,"contract":"contracts/party-ticket/TaikoPartyTicket.sol:TaikoPartyTicket","label":"_nextTokenId","offset":0,"slot":"6","type":"t_uint256"},{"astId":575,"contract":"contracts/party-ticket/TaikoPartyTicket.sol:TaikoPartyTicket","label":"blacklist","offset":0,"slot":"7","type":"t_contract(IMinimalBlacklist)19316"},{"astId":579,"contract":"contracts/party-ticket/TaikoPartyTicket.sol:TaikoPartyTicket","label":"winnerIds","offset":0,"slot":"8","type":"t_array(t_uint256)dyn_storage"},{"astId":584,"contract":"contracts/party-ticket/TaikoPartyTicket.sol:TaikoPartyTicket","label":"__gap","offset":0,"slot":"9","type":"t_array(t_uint256)42_storage"}],"types":{"t_address":{"encoding":"inplace","label":"address","numberOfBytes":"20"},"t_array(t_uint256)42_storage":{"encoding":"inplace","label":"uint256[42]","numberOfBytes":"1344","base":"t_uint256"},"t_array(t_uint256)dyn_storage":{"encoding":"dynamic_array","label":"uint256[]","numberOfBytes":"32","base":"t_uint256"},"t_bool":{"encoding":"inplace","label":"bool","numberOfBytes":"1"},"t_contract(IMinimalBlacklist)19316":{"encoding":"inplace","label":"contract IMinimalBlacklist","numberOfBytes":"20"},"t_mapping(t_uint256,t_bool)":{"encoding":"mapping","key":"t_uint256","label":"mapping(uint256 => bool)","numberOfBytes":"32","value":"t_bool"},"t_string_storage":{"encoding":"bytes","label":"string","numberOfBytes":"32"},"t_uint256":{"encoding":"inplace","label":"uint256","numberOfBytes":"32"}}},"id":2}