{"abi":[{"type":"function","name":"BADGE_ANDROIDS","inputs":[],"outputs":[{"name":"","type":"uint256","internalType":"uint256"}],"stateMutability":"view"},{"type":"function","name":"BADGE_BOUNCERS","inputs":[],"outputs":[{"name":"","type":"uint256","internalType":"uint256"}],"stateMutability":"view"},{"type":"function","name":"BADGE_DRUMMERS","inputs":[],"outputs":[{"name":"","type":"uint256","internalType":"uint256"}],"stateMutability":"view"},{"type":"function","name":"BADGE_MASTERS","inputs":[],"outputs":[{"name":"","type":"uint256","internalType":"uint256"}],"stateMutability":"view"},{"type":"function","name":"BADGE_MONKS","inputs":[],"outputs":[{"name":"","type":"uint256","internalType":"uint256"}],"stateMutability":"view"},{"type":"function","name":"BADGE_RAVERS","inputs":[],"outputs":[{"name":"","type":"uint256","internalType":"uint256"}],"stateMutability":"view"},{"type":"function","name":"BADGE_ROBOTS","inputs":[],"outputs":[{"name":"","type":"uint256","internalType":"uint256"}],"stateMutability":"view"},{"type":"function","name":"BADGE_SHINTO","inputs":[],"outputs":[{"name":"","type":"uint256","internalType":"uint256"}],"stateMutability":"view"},{"type":"function","name":"MOVEMENT_BASED","inputs":[],"outputs":[{"name":"","type":"uint256","internalType":"uint256"}],"stateMutability":"view"},{"type":"function","name":"MOVEMENT_BOOSTED","inputs":[],"outputs":[{"name":"","type":"uint256","internalType":"uint256"}],"stateMutability":"view"},{"type":"function","name":"MOVEMENT_NEUTRAL","inputs":[],"outputs":[{"name":"","type":"uint256","internalType":"uint256"}],"stateMutability":"view"},{"type":"function","name":"UPGRADE_INTERFACE_VERSION","inputs":[],"outputs":[{"name":"","type":"string","internalType":"string"}],"stateMutability":"view"},{"type":"function","name":"acceptOwnership","inputs":[],"outputs":[],"stateMutability":"nonpayable"},{"type":"function","name":"approve","inputs":[{"name":"to","type":"address","internalType":"address"},{"name":"tokenId","type":"uint256","internalType":"uint256"}],"outputs":[],"stateMutability":"nonpayable"},{"type":"function","name":"badgeBalances","inputs":[{"name":"_owner","type":"address","internalType":"address"}],"outputs":[{"name":"","type":"bool[]","internalType":"bool[]"}],"stateMutability":"view"},{"type":"function","name":"badgeBalancesV2","inputs":[{"name":"_owner","type":"address","internalType":"address"}],"outputs":[{"name":"balances","type":"bool[]","internalType":"bool[]"}],"stateMutability":"view"},{"type":"function","name":"badges","inputs":[{"name":"_tokenId","type":"uint256","internalType":"uint256"}],"outputs":[{"name":"_badgeId","type":"uint256","internalType":"uint256"}],"stateMutability":"view"},{"type":"function","name":"balanceOf","inputs":[{"name":"owner","type":"address","internalType":"address"}],"outputs":[{"name":"","type":"uint256","internalType":"uint256"}],"stateMutability":"view"},{"type":"function","name":"baseURI","inputs":[],"outputs":[{"name":"","type":"string","internalType":"string"}],"stateMutability":"view"},{"type":"function","name":"blacklist","inputs":[],"outputs":[{"name":"","type":"address","internalType":"contract IMinimalBlacklist"}],"stateMutability":"view"},{"type":"function","name":"canMint","inputs":[{"name":"_signature","type":"bytes","internalType":"bytes"},{"name":"_minter","type":"address","internalType":"address"},{"name":"_tokenId","type":"uint256","internalType":"uint256"}],"outputs":[{"name":"","type":"bool","internalType":"bool"}],"stateMutability":"view"},{"type":"function","name":"getApproved","inputs":[{"name":"tokenId","type":"uint256","internalType":"uint256"}],"outputs":[{"name":"","type":"address","internalType":"address"}],"stateMutability":"view"},{"type":"function","name":"getHash","inputs":[{"name":"_minter","type":"address","internalType":"address"},{"name":"_tokenId","type":"uint256","internalType":"uint256"}],"outputs":[{"name":"","type":"bytes32","internalType":"bytes32"}],"stateMutability":"pure"},{"type":"function","name":"getTokenId","inputs":[{"name":"_user","type":"address","internalType":"address"},{"name":"_badgeId","type":"uint256","internalType":"uint256"}],"outputs":[{"name":"","type":"uint256","internalType":"uint256"}],"stateMutability":"view"},{"type":"function","name":"initialize","inputs":[{"name":"_owner","type":"address","internalType":"address"},{"name":"_rootURI","type":"string","internalType":"string"},{"name":"_mintSigner","type":"address","internalType":"address"},{"name":"_blacklistAddress","type":"address","internalType":"contract IMinimalBlacklist"}],"outputs":[],"stateMutability":"nonpayable"},{"type":"function","name":"initialize","inputs":[{"name":"_owner","type":"address","internalType":"address"},{"name":"_mintSigner","type":"address","internalType":"address"},{"name":"_blacklist","type":"address","internalType":"contract IMinimalBlacklist"}],"outputs":[],"stateMutability":"nonpayable"},{"type":"function","name":"isApprovedForAll","inputs":[{"name":"owner","type":"address","internalType":"address"},{"name":"operator","type":"address","internalType":"address"}],"outputs":[{"name":"","type":"bool","internalType":"bool"}],"stateMutability":"view"},{"type":"function","name":"mint","inputs":[{"name":"_signature","type":"bytes","internalType":"bytes"},{"name":"_badgeId","type":"uint256","internalType":"uint256"}],"outputs":[],"stateMutability":"nonpayable"},{"type":"function","name":"mint","inputs":[{"name":"_signature","type":"bytes","internalType":"bytes"},{"name":"_minter","type":"address","internalType":"address"},{"name":"_badgeId","type":"uint256","internalType":"uint256"}],"outputs":[],"stateMutability":"nonpayable"},{"type":"function","name":"mintSigner","inputs":[],"outputs":[{"name":"","type":"address","internalType":"address"}],"stateMutability":"view"},{"type":"function","name":"minted","inputs":[{"name":"signatureHash","type":"bytes32","internalType":"bytes32"}],"outputs":[{"name":"hasMinted","type":"bool","internalType":"bool"}],"stateMutability":"view"},{"type":"function","name":"movementBadges","inputs":[{"name":"movementBadgeHash","type":"bytes32","internalType":"bytes32"},{"name":"","type":"uint256","internalType":"uint256"}],"outputs":[{"name":"movementBadge","type":"uint256","internalType":"uint256"}],"stateMutability":"view"},{"type":"function","name":"movements","inputs":[{"name":"_user","type":"address","internalType":"address"}],"outputs":[{"name":"_movement","type":"uint256","internalType":"uint256"}],"stateMutability":"view"},{"type":"function","name":"name","inputs":[],"outputs":[{"name":"","type":"string","internalType":"string"}],"stateMutability":"view"},{"type":"function","name":"owner","inputs":[],"outputs":[{"name":"","type":"address","internalType":"address"}],"stateMutability":"view"},{"type":"function","name":"ownerOf","inputs":[{"name":"tokenId","type":"uint256","internalType":"uint256"}],"outputs":[{"name":"","type":"address","internalType":"address"}],"stateMutability":"view"},{"type":"function","name":"pendingOwner","inputs":[],"outputs":[{"name":"","type":"address","internalType":"address"}],"stateMutability":"view"},{"type":"function","name":"proxiableUUID","inputs":[],"outputs":[{"name":"","type":"bytes32","internalType":"bytes32"}],"stateMutability":"view"},{"type":"function","name":"renounceOwnership","inputs":[],"outputs":[],"stateMutability":"nonpayable"},{"type":"function","name":"safeTransferFrom","inputs":[{"name":"from","type":"address","internalType":"address"},{"name":"to","type":"address","internalType":"address"},{"name":"tokenId","type":"uint256","internalType":"uint256"}],"outputs":[],"stateMutability":"nonpayable"},{"type":"function","name":"safeTransferFrom","inputs":[{"name":"from","type":"address","internalType":"address"},{"name":"to","type":"address","internalType":"address"},{"name":"tokenId","type":"uint256","internalType":"uint256"},{"name":"data","type":"bytes","internalType":"bytes"}],"outputs":[],"stateMutability":"nonpayable"},{"type":"function","name":"setApprovalForAll","inputs":[{"name":"operator","type":"address","internalType":"address"},{"name":"approved","type":"bool","internalType":"bool"}],"outputs":[],"stateMutability":"nonpayable"},{"type":"function","name":"setMovement","inputs":[{"name":"_movementId","type":"uint256","internalType":"uint256"}],"outputs":[],"stateMutability":"nonpayable"},{"type":"function","name":"setMovement","inputs":[{"name":"_user","type":"address","internalType":"address"},{"name":"_movementId","type":"uint256","internalType":"uint256"}],"outputs":[],"stateMutability":"nonpayable"},{"type":"function","name":"setUri","inputs":[{"name":"_uri","type":"string","internalType":"string"}],"outputs":[],"stateMutability":"nonpayable"},{"type":"function","name":"supportsInterface","inputs":[{"name":"interfaceId","type":"bytes4","internalType":"bytes4"}],"outputs":[{"name":"","type":"bool","internalType":"bool"}],"stateMutability":"view"},{"type":"function","name":"symbol","inputs":[],"outputs":[{"name":"","type":"string","internalType":"string"}],"stateMutability":"view"},{"type":"function","name":"tokenByIndex","inputs":[{"name":"index","type":"uint256","internalType":"uint256"}],"outputs":[{"name":"","type":"uint256","internalType":"uint256"}],"stateMutability":"view"},{"type":"function","name":"tokenOfOwnerByIndex","inputs":[{"name":"owner","type":"address","internalType":"address"},{"name":"index","type":"uint256","internalType":"uint256"}],"outputs":[{"name":"","type":"uint256","internalType":"uint256"}],"stateMutability":"view"},{"type":"function","name":"tokenURI","inputs":[{"name":"_tokenId","type":"uint256","internalType":"uint256"}],"outputs":[{"name":"","type":"string","internalType":"string"}],"stateMutability":"view"},{"type":"function","name":"totalBadgeSupply","inputs":[],"outputs":[{"name":"balances","type":"uint256[]","internalType":"uint256[]"}],"stateMutability":"view"},{"type":"function","name":"totalSupply","inputs":[],"outputs":[{"name":"","type":"uint256","internalType":"uint256"}],"stateMutability":"view"},{"type":"function","name":"transferFrom","inputs":[{"name":"from","type":"address","internalType":"address"},{"name":"to","type":"address","internalType":"address"},{"name":"tokenId","type":"uint256","internalType":"uint256"}],"outputs":[],"stateMutability":"nonpayable"},{"type":"function","name":"transferOwnership","inputs":[{"name":"newOwner","type":"address","internalType":"address"}],"outputs":[],"stateMutability":"nonpayable"},{"type":"function","name":"updateBlacklist","inputs":[{"name":"_blacklist","type":"address","internalType":"contract IMinimalBlacklist"}],"outputs":[],"stateMutability":"nonpayable"},{"type":"function","name":"updateMintSigner","inputs":[{"name":"_mintSigner","type":"address","internalType":"address"}],"outputs":[],"stateMutability":"nonpayable"},{"type":"function","name":"upgradeToAndCall","inputs":[{"name":"newImplementation","type":"address","internalType":"address"},{"name":"data","type":"bytes","internalType":"bytes"}],"outputs":[],"stateMutability":"payable"},{"type":"function","name":"userBadges","inputs":[{"name":"_user","type":"address","internalType":"address"},{"name":"_badgeId","type":"uint256","internalType":"uint256"}],"outputs":[{"name":"_tokenId","type":"uint256","internalType":"uint256"}],"stateMutability":"view"},{"type":"event","name":"Approval","inputs":[{"name":"owner","type":"address","indexed":true,"internalType":"address"},{"name":"approved","type":"address","indexed":true,"internalType":"address"},{"name":"tokenId","type":"uint256","indexed":true,"internalType":"uint256"}],"anonymous":false},{"type":"event","name":"ApprovalForAll","inputs":[{"name":"owner","type":"address","indexed":true,"internalType":"address"},{"name":"operator","type":"address","indexed":true,"internalType":"address"},{"name":"approved","type":"bool","indexed":false,"internalType":"bool"}],"anonymous":false},{"type":"event","name":"BadgeCreated","inputs":[{"name":"_tokenId","type":"uint256","indexed":false,"internalType":"uint256"},{"name":"_minter","type":"address","indexed":false,"internalType":"address"},{"name":"_badgeId","type":"uint256","indexed":false,"internalType":"uint256"}],"anonymous":false},{"type":"event","name":"BlacklistUpdated","inputs":[{"name":"_blacklist","type":"address","indexed":false,"internalType":"address"}],"anonymous":false},{"type":"event","name":"Initialized","inputs":[{"name":"version","type":"uint64","indexed":false,"internalType":"uint64"}],"anonymous":false},{"type":"event","name":"MintConsumed","inputs":[{"name":"_minter","type":"address","indexed":false,"internalType":"address"},{"name":"_tokenId","type":"uint256","indexed":false,"internalType":"uint256"}],"anonymous":false},{"type":"event","name":"MintSignerUpdated","inputs":[{"name":"_mintSigner","type":"address","indexed":false,"internalType":"address"}],"anonymous":false},{"type":"event","name":"MovementSet","inputs":[{"name":"_user","type":"address","indexed":false,"internalType":"address"},{"name":"_movementId","type":"uint256","indexed":false,"internalType":"uint256"}],"anonymous":false},{"type":"event","name":"OwnershipTransferStarted","inputs":[{"name":"previousOwner","type":"address","indexed":true,"internalType":"address"},{"name":"newOwner","type":"address","indexed":true,"internalType":"address"}],"anonymous":false},{"type":"event","name":"OwnershipTransferred","inputs":[{"name":"previousOwner","type":"address","indexed":true,"internalType":"address"},{"name":"newOwner","type":"address","indexed":true,"internalType":"address"}],"anonymous":false},{"type":"event","name":"Transfer","inputs":[{"name":"from","type":"address","indexed":true,"internalType":"address"},{"name":"to","type":"address","indexed":true,"internalType":"address"},{"name":"tokenId","type":"uint256","indexed":true,"internalType":"uint256"}],"anonymous":false},{"type":"event","name":"Upgraded","inputs":[{"name":"implementation","type":"address","indexed":true,"internalType":"address"}],"anonymous":false},{"type":"event","name":"UriSet","inputs":[{"name":"_uri","type":"string","indexed":false,"internalType":"string"}],"anonymous":false},{"type":"error","name":"ADDRESS_BLACKLISTED","inputs":[]},{"type":"error","name":"AddressEmptyCode","inputs":[{"name":"target","type":"address","internalType":"address"}]},{"type":"error","name":"ERC1967InvalidImplementation","inputs":[{"name":"implementation","type":"address","internalType":"address"}]},{"type":"error","name":"ERC1967NonPayable","inputs":[]},{"type":"error","name":"ERC721EnumerableForbiddenBatchMint","inputs":[]},{"type":"error","name":"ERC721IncorrectOwner","inputs":[{"name":"sender","type":"address","internalType":"address"},{"name":"tokenId","type":"uint256","internalType":"uint256"},{"name":"owner","type":"address","internalType":"address"}]},{"type":"error","name":"ERC721InsufficientApproval","inputs":[{"name":"operator","type":"address","internalType":"address"},{"name":"tokenId","type":"uint256","internalType":"uint256"}]},{"type":"error","name":"ERC721InvalidApprover","inputs":[{"name":"approver","type":"address","internalType":"address"}]},{"type":"error","name":"ERC721InvalidOperator","inputs":[{"name":"operator","type":"address","internalType":"address"}]},{"type":"error","name":"ERC721InvalidOwner","inputs":[{"name":"owner","type":"address","internalType":"address"}]},{"type":"error","name":"ERC721InvalidReceiver","inputs":[{"name":"receiver","type":"address","internalType":"address"}]},{"type":"error","name":"ERC721InvalidSender","inputs":[{"name":"sender","type":"address","internalType":"address"}]},{"type":"error","name":"ERC721NonexistentToken","inputs":[{"name":"tokenId","type":"uint256","internalType":"uint256"}]},{"type":"error","name":"ERC721OutOfBoundsIndex","inputs":[{"name":"owner","type":"address","internalType":"address"},{"name":"index","type":"uint256","internalType":"uint256"}]},{"type":"error","name":"FailedInnerCall","inputs":[]},{"type":"error","name":"INVALID_BADGE_ID","inputs":[]},{"type":"error","name":"INVALID_INPUT","inputs":[]},{"type":"error","name":"INVALID_MOVEMENT_ID","inputs":[]},{"type":"error","name":"InvalidInitialization","inputs":[]},{"type":"error","name":"MINTER_NOT_WHITELISTED","inputs":[]},{"type":"error","name":"MINTS_EXCEEDED","inputs":[]},{"type":"error","name":"NotInitializing","inputs":[]},{"type":"error","name":"ONLY_MINT_SIGNER","inputs":[]},{"type":"error","name":"OwnableInvalidOwner","inputs":[{"name":"owner","type":"address","internalType":"address"}]},{"type":"error","name":"OwnableUnauthorizedAccount","inputs":[{"name":"account","type":"address","internalType":"address"}]},{"type":"error","name":"UUPSUnauthorizedCallContext","inputs":[]},{"type":"error","name":"UUPSUnsupportedProxiableUUID","inputs":[{"name":"slot","type":"bytes32","internalType":"bytes32"}]}],"bytecode":{"object":"0x60a06040523060805234801562000014575f80fd5b506200001f62000025565b620000d9565b7ff0c57e16840df040f15088dc2f81fe391c3923bec73e23a9662efc9c229c6a00805468010000000000000000900460ff1615620000765760405163f92ee8a960e01b815260040160405180910390fd5b80546001600160401b0390811614620000d65780546001600160401b0319166001600160401b0390811782556040519081527fc7f505b2f371ae2175ee4913f4499e1f2633a7b5936321eed1cdaeb6115181d29060200160405180910390a15b50565b608051613460620001005f395f8181611b3401528181611b5d0152611c9c01526134605ff3fe608060405260043610610370575f3560e01c80638da5cb5b116101c8578063b8f88d64116100fd578063e30c39781161009d578063f2fde38b1161006d578063f2fde38b1461098c578063f571049b146109ab578063f7da8ce3146109ca578063ff2c26ec146109e9575f80fd5b8063e30c39781461091c578063e985e9c514610930578063ed05582b1461094f578063f17af48d1461096e575f80fd5b8063ca0259c0116100d8578063ca0259c0146108b2578063d5def7c2146108d3578063d944061e146108d3578063df91cc23146108e6575f80fd5b8063b8f88d6414610855578063c0c53b8b14610874578063c87b56dd14610893575f80fd5b8063a4b5fa5611610168578063b378b44811610143578063b378b44814610803578063b4e7409f1461074e578063b58c439e14610817578063b88d4fde14610836575f80fd5b8063a4b5fa56146107a0578063a7fb03ab146107bf578063ad3cb1cc146107d3575f80fd5b806398ef238a116101a357806398ef238a1461074e5780639b642de1146107625780639cc2816414610462578063a22cb46514610781575f80fd5b80638da5cb5b146106fb57806395d89b411461070f57806398e36d8b14610723575f80fd5b8063378b5704116102a95780636352211e11610249578063715018a611610219578063715018a61461069157806375b9c015146106a557806379ba5097146106b95780638ccc5f80146106cd575f80fd5b80636352211e146106145780636c0360eb14610633578063700b1acd1461064757806370a0823114610672575f80fd5b80634f1ef286116102845780634f1ef286146105a25780634f6ccce7146105b557806352d1902d146105d45780635c6f8ca3146105e8575f80fd5b8063378b57041461055057806342842e0e1461056f5780634808b1091461058e575f80fd5b806318160ddd1161031457806329f99b9f116102ef57806329f99b9f146104d45780632f19062f146104f35780632f745c59146105125780633136964c14610531575f80fd5b806318160ddd146104765780631fcfe19c1461049657806323b872dd146104b5575f80fd5b8063081812fc1161034f578063081812fc146103ea578063095ea7b3146104215780630e0c8b0a146104405780630f5f04bf14610462575f80fd5b80622576121461037457806301ffc9a71461039557806306fdde03146103c9575b5f80fd5b34801561037f575f80fd5b5061039361038e366004612c16565b610a08565b005b3480156103a0575f80fd5b506103b46103af366004612c6c565b610a17565b60405190151581526020015b60405180910390f35b3480156103d4575f80fd5b506103dd610a41565b6040516103c09190612cd4565b3480156103f5575f80fd5b50610409610404366004612ce6565b610ae2565b6040516001600160a01b0390911681526020016103c0565b34801561042c575f80fd5b5061039361043b366004612d11565b610af6565b34801561044b575f80fd5b50610454600681565b6040519081526020016103c0565b34801561046d575f80fd5b50610454600181565b348015610481575f80fd5b505f8051602061340b83398151915254610454565b3480156104a1575f80fd5b506103936104b0366004612d3b565b610b01565b3480156104c0575f80fd5b506103936104cf366004612d90565b610b19565b3480156104df575f80fd5b506104546104ee366004612d11565b610ba7565b3480156104fe575f80fd5b5061039361050d366004612ce6565b610bce565b34801561051d575f80fd5b5061045461052c366004612d11565b610bdb565b34801561053c575f80fd5b5061045461054b366004612dbd565b610c4c565b34801561055b575f80fd5b5061039361056a366004612ddd565b610c6e565b34801561057a575f80fd5b50610393610589366004612d90565b610ccb565b348015610599575f80fd5b50610454600781565b6103936105b0366004612df8565b610ce5565b3480156105c0575f80fd5b506104546105cf366004612ce6565b610d00565b3480156105df575f80fd5b50610454610d72565b3480156105f3575f80fd5b50610607610602366004612ddd565b610d8d565b6040516103c09190612e44565b34801561061f575f80fd5b5061040961062e366004612ce6565b610f41565b34801561063e575f80fd5b506103dd610f4b565b348015610652575f80fd5b50610454610661366004612ddd565b60346020525f908152604090205481565b34801561067d575f80fd5b5061045461068c366004612ddd565b610fdb565b34801561069c575f80fd5b50610393611033565b3480156106b0575f80fd5b50610454600581565b3480156106c4575f80fd5b50610393611046565b3480156106d8575f80fd5b506103b46106e7366004612ce6565b60016020525f908152604090205460ff1681565b348015610706575f80fd5b5061040961108b565b34801561071a575f80fd5b506103dd6110bf565b34801561072e575f80fd5b5061045461073d366004612ce6565b60336020525f908152604090205481565b348015610759575f80fd5b50610454600281565b34801561076d575f80fd5b5061039361077c366004612e89565b6110fd565b34801561078c575f80fd5b5061039361079b366004612ecf565b611141565b3480156107ab575f80fd5b50600254610409906001600160a01b031681565b3480156107ca575f80fd5b50610454600481565b3480156107de575f80fd5b506103dd604051806040016040528060058152602001640352e302e360dc1b81525081565b34801561080e575f80fd5b50610454600381565b348015610822575f80fd5b506103b4610831366004612d3b565b61114c565b348015610841575f80fd5b50610393610850366004612f06565b611213565b348015610860575f80fd5b5061039361086f366004612f6d565b61122a565b34801561087f575f80fd5b5061039361088e366004612fdd565b611398565b34801561089e575f80fd5b506103dd6108ad366004612ce6565b6114a8565b3480156108bd575f80fd5b506108c6611520565b6040516103c09190613025565b3480156108de575f80fd5b506104545f81565b3480156108f1575f80fd5b50610454610900366004612d11565b603560209081525f928352604080842090915290825290205481565b348015610927575f80fd5b506104096115ba565b34801561093b575f80fd5b506103b461094a36600461305c565b6115e2565b34801561095a575f80fd5b50610454610969366004612d11565b61162e565b348015610979575f80fd5b505f54610409906001600160a01b031681565b348015610997575f80fd5b506103936109a6366004612ddd565b611687565b3480156109b6575f80fd5b506103936109c5366004612ddd565b61170c565b3480156109d5575f80fd5b506106076109e4366004612ddd565b611761565b3480156109f4575f80fd5b50610393610a03366004612d11565b61187e565b610a13823383611890565b5050565b5f6001600160e01b0319821663780e9d6360e01b1480610a3b5750610a3b82611949565b92915050565b5f805160206133cb8339815191528054606091908190610a6090613088565b80601f0160208091040260200160405190810160405280929190818152602001828054610a8c90613088565b8015610ad75780601f10610aae57610100808354040283529160200191610ad7565b820191905f5260205f20905b815481529060010190602001808311610aba57829003601f168201915b505050505091505090565b5f610aec82611998565b50610a3b826119cf565b610a13828233611a08565b610b09611a15565b610b14838383611890565b505050565b6001600160a01b038216610b4757604051633250574960e11b81525f60048201526024015b60405180910390fd5b5f610b53838333611a47565b9050836001600160a01b0316816001600160a01b031614610ba1576040516364283d7b60e01b81526001600160a01b0380861660048301526024820184905282166044820152606401610b3e565b50505050565b6001600160a01b03919091165f908152603560209081526040808320938352929052205490565b610bd83382611ab0565b50565b5f5f805160206133ab833981519152610bf384610fdb565b8310610c245760405163295f44f760e21b81526001600160a01b038516600482015260248101849052604401610b3e565b6001600160a01b0384165f908152602091825260408082208583529092522054905092915050565b6036602052815f5260405f208160028110610c65575f80fd5b01549150829050565b610c76611a15565b600280546001600160a01b0319166001600160a01b0383169081179091556040519081527f75cdf6842d867a09260947ac775619527788d913a79fc3b41da1815fa377af65906020015b60405180910390a150565b610b1483838360405180602001604052805f815250611213565b610ced611b29565b610cf682611bcd565b610a138282611bd5565b5f5f805160206133ab833981519152610d245f8051602061340b8339815191525490565b8310610d4c5760405163295f44f760e21b81525f600482015260248101849052604401610b3e565b806002018381548110610d6157610d616130c0565b905f5260205f200154915050919050565b5f610d7b611c91565b505f805160206133eb83398151915290565b60408051600880825261012082019092526060915f91906020820161010080368337019050509050610dbf835f610ba7565b5f1415815f81518110610dd457610dd46130c0565b91151560209283029190910190910152610def836001610ba7565b5f141581600181518110610e0557610e056130c0565b91151560209283029190910190910152610e20836002610ba7565b5f141581600281518110610e3657610e366130c0565b91151560209283029190910190910152610e51836003610ba7565b5f141581600381518110610e6757610e676130c0565b91151560209283029190910190910152610e82836004610ba7565b5f141581600481518110610e9857610e986130c0565b91151560209283029190910190910152610eb3836005610ba7565b5f141581600581518110610ec957610ec96130c0565b91151560209283029190910190910152610ee4836006610ba7565b5f141581600681518110610efa57610efa6130c0565b91151560209283029190910190910152610f15836007610ba7565b5f141581600781518110610f2b57610f2b6130c0565b9115156020928302919091019091015292915050565b5f610a3b82611998565b606060328054610f5a90613088565b80601f0160208091040260200160405190810160405280929190818152602001828054610f8690613088565b8015610fd15780601f10610fa857610100808354040283529160200191610fd1565b820191905f5260205f20905b815481529060010190602001808311610fb457829003601f168201915b5050505050905090565b5f5f805160206133cb8339815191526001600160a01b038316611013576040516322718ad960e21b81525f6004820152602401610b3e565b6001600160a01b039092165f908152600390920160205250604090205490565b61103b611a15565b6110445f611cda565b565b33806110506115ba565b6001600160a01b0316146110825760405163118cdaa760e01b81526001600160a01b0382166004820152602401610b3e565b610bd881611cda565b5f807f9016d09d72d40fdae2fd8ceac6b6234c7706214fd39c1cd1e609a0528c1993005b546001600160a01b031692915050565b7f80bb2b638cc20bc4d0a60d66940f3ab4a00c1d7b313497ca82fb0b4ab007930180546060915f805160206133cb83398151915291610a6090613088565b611105611a15565b60326111118282613118565b507fd09d05534067f74dbc9e6af794edbd29e904d7698e428d0bc1378e45889acdd781604051610cc09190612cd4565b610a13338383611d12565b60025460405163fe575a8760e01b81526001600160a01b0384811660048301525f92169063fe575a8790602401602060405180830381865afa158015611194573d5f803e3d5ffd5b505050506040513d601f19601f820116820180604052508101906111b891906131d7565b156111d657604051637874e36360e01b815260040160405180910390fd5b83516020808601919091205f9081526001909152604090205460ff16156111fe57505f61120c565b611209848484611dc1565b90505b9392505050565b61121e848484610b19565b610ba184848484611df6565b7ff0c57e16840df040f15088dc2f81fe391c3923bec73e23a9662efc9c229c6a008054600160401b810460ff1615906001600160401b03165f8115801561126e5750825b90505f826001600160401b031660011480156112895750303b155b905081158015611297575080155b156112b55760405163f92ee8a960e01b815260040160405180910390fd5b845467ffffffffffffffff1916600117855583156112df57845460ff60401b1916600160401b1785555b61132f60405180604001604052806013815260200172547261696c626c617a6572732042616467657360681b815250604051806040016040528060038152602001622a212160e91b815250611f1c565b603261133b8982613118565b50611347898888611f2e565b831561138d57845460ff60401b19168555604051600181527fc7f505b2f371ae2175ee4913f4499e1f2633a7b5936321eed1cdaeb6115181d29060200160405180910390a15b505050505050505050565b7ff0c57e16840df040f15088dc2f81fe391c3923bec73e23a9662efc9c229c6a008054600160401b810460ff1615906001600160401b03165f811580156113dc5750825b90505f826001600160401b031660011480156113f75750303b155b905081158015611405575080155b156114235760405163f92ee8a960e01b815260040160405180910390fd5b845467ffffffffffffffff19166001178555831561144d57845460ff60401b1916600160401b1785555b611458888888611f2e565b831561149e57845460ff60401b19168555604051600181527fc7f505b2f371ae2175ee4913f4499e1f2633a7b5936321eed1cdaeb6115181d29060200160405180910390a15b5050505050505050565b60605f60345f6114b785610f41565b6001600160a01b0316815260208082019290925260409081015f908120548682526033909352205490915060326114ed83611f82565b6114f683611f82565b6040516020016115089392919061320d565b60405160208183030381529060405292505050919050565b60605f6115385f8051602061340b8339815191525490565b6040805160088082526101208201909252919250602082016101008036833701905050915060015b8181116115b5575f818152603360205260409020548351849082908110611589576115896130c0565b60200260200101805180919061159e906132cf565b9052508190506115ad816132cf565b915050611560565b505090565b5f807f237e158222e3e6968b72b9db0d8043aacf074ad9f650f0d1606b4d82ee432c006110af565b6001600160a01b039182165f9081527f80bb2b638cc20bc4d0a60d66940f3ab4a00c1d7b313497ca82fb0b4ab00793056020908152604080832093909416825291909152205460ff1690565b604080516001600160a01b03841660208201529081018290525f9060600160408051601f198184030181528282528051602091820120908301520160405160208183030381529060405280519060200120905092915050565b61168f611a15565b7f237e158222e3e6968b72b9db0d8043aacf074ad9f650f0d1606b4d82ee432c0080546001600160a01b0319166001600160a01b03831690811782556116d361108b565b6001600160a01b03167f38d16b8cac22d99fc7c124b9cd0de2d3fa1faef420bfe791d8c362d765e2270060405160405180910390a35050565b611714611a15565b5f80546001600160a01b0319166001600160a01b0383169081179091556040519081527f81c142d9a4b33dfaba82444370b6b077fc2cb507c30c41a7c967f695ed72651f90602001610cc0565b60605f61176d83610fdb565b90505f816001600160401b0381111561178857611788612b7a565b6040519080825280602002602001820160405280156117b1578160200160208202803683370190505b5090505f5b828110156117ed576117c88582610bdb565b8282815181106117da576117da6130c0565b60209081029190910101526001016117b6565b5060408051600880825261012082019092529060208201610100803683370190505092505f5b82811015611876575f60335f848481518110611831576118316130c0565b602002602001015181526020019081526020015f20549050600185828151811061185d5761185d6130c0565b9115156020928302919091019091015250600101611813565b505050919050565b611886611a15565b610a138282611ab0565b60078111156118b257604051635557cd3560e11b815260040160405180910390fd5b6118bd838383612011565b5f6118d35f8051602061340b8339815191525490565b6118de9060016132e7565b5f81815260336020526040902083905590506118fa83826120a2565b604080518281526001600160a01b03851660208201529081018390527f73ec18fe90e8b3de52d7e88ff3108708ed0e9714e5327b038c182b64cedaae709060600160405180910390a150505050565b5f6001600160e01b031982166380ac58cd60e01b148061197957506001600160e01b03198216635b5e139f60e01b145b80610a3b57506301ffc9a760e01b6001600160e01b0319831614610a3b565b5f806119a383612103565b90506001600160a01b038116610a3b57604051637e27328960e01b815260048101849052602401610b3e565b5f9081527f80bb2b638cc20bc4d0a60d66940f3ab4a00c1d7b313497ca82fb0b4ab007930460205260409020546001600160a01b031690565b610b14838383600161213c565b33611a1e61108b565b6001600160a01b0316146110445760405163118cdaa760e01b8152336004820152602401610b3e565b5f8060355f611a5586612103565b6001600160a01b03908116825260208083019390935260409182015f9081208882526033855283822080548352908552838220959095559088168152603583528181209354815292909152902083905561120984848461224f565b6002811115611ad257604051632c4d11b760e11b815260040160405180910390fd5b6001600160a01b0382165f81815260346020908152604091829020849055815192835282018390527fc8f3ae17becdf8c098ef081092d0420324d1318397bd7ac8e90d900c56a50a76910160405180910390a15050565b306001600160a01b037f0000000000000000000000000000000000000000000000000000000000000000161480611baf57507f00000000000000000000000000000000000000000000000000000000000000006001600160a01b0316611ba35f805160206133eb833981519152546001600160a01b031690565b6001600160a01b031614155b156110445760405163703e46dd60e11b815260040160405180910390fd5b610bd8611a15565b816001600160a01b03166352d1902d6040518163ffffffff1660e01b8152600401602060405180830381865afa925050508015611c2f575060408051601f3d908101601f19168201909252611c2c918101906132fa565b60015b611c5757604051634c9c8ce360e01b81526001600160a01b0383166004820152602401610b3e565b5f805160206133eb8339815191528114611c8757604051632a87526960e21b815260048101829052602401610b3e565b610b148383612345565b306001600160a01b037f000000000000000000000000000000000000000000000000000000000000000016146110445760405163703e46dd60e11b815260040160405180910390fd5b7f237e158222e3e6968b72b9db0d8043aacf074ad9f650f0d1606b4d82ee432c0080546001600160a01b0319168155610a138261239a565b5f805160206133cb8339815191526001600160a01b038316611d5257604051630b61174360e31b81526001600160a01b0384166004820152602401610b3e565b6001600160a01b038481165f818152600584016020908152604080832094881680845294825291829020805460ff191687151590811790915591519182527f17307eab39ab6107e8899845ad3d59bd9653f200f220920489ca2b5937696c31910160405180910390a350505050565b5f80611dcd848461162e565b90505f611dda828761240a565b50505f546001600160a01b039081169116149695505050505050565b6001600160a01b0383163b15610ba157604051630a85bd0160e11b81526001600160a01b0384169063150b7a0290611e38903390889087908790600401613311565b6020604051808303815f875af1925050508015611e72575060408051601f3d908101601f19168201909252611e6f9181019061334d565b60015b611ed9573d808015611e9f576040519150601f19603f3d011682016040523d82523d5f602084013e611ea4565b606091505b5080515f03611ed157604051633250574960e11b81526001600160a01b0385166004820152602401610b3e565b805181602001fd5b6001600160e01b03198116630a85bd0160e11b14611f1557604051633250574960e11b81526001600160a01b0385166004820152602401610b3e565b5050505050565b611f24612453565b610a13828261249c565b611f4c6001600160a01b03841615611f465783611cda565b33611cda565b611f546124cc565b5f80546001600160a01b039384166001600160a01b0319918216179091556002805492909316911617905550565b60605f611f8e836124d4565b60010190505f816001600160401b03811115611fac57611fac612b7a565b6040519080825280601f01601f191660200182016040528015611fd6576020820181803683370190505b5090508181016020015b5f19016f181899199a1a9b1b9c1cb0b131b232b360811b600a86061a8153600a8504945084611fe057509392505050565b61201c83838361114c565b61203957604051639ea134e960e01b815260040160405180910390fd5b82516020808501919091205f9081526001808352604091829020805460ff1916909117905580516001600160a01b03851681529182018390527ff71d0afb6ca23454b34db8bf7baf45f79e8c2f41e5499375ea2289312b2d317b910160405180910390a1505050565b6001600160a01b0382166120cb57604051633250574960e11b81525f6004820152602401610b3e565b5f6120d783835f611a47565b90506001600160a01b03811615610b14576040516339e3563760e11b81525f6004820152602401610b3e565b5f9081527f80bb2b638cc20bc4d0a60d66940f3ab4a00c1d7b313497ca82fb0b4ab007930260205260409020546001600160a01b031690565b5f805160206133cb833981519152818061215e57506001600160a01b03831615155b1561221f575f61216d85611998565b90506001600160a01b038416158015906121995750836001600160a01b0316816001600160a01b031614155b80156121ac57506121aa81856115e2565b155b156121d55760405163a9fbf51f60e01b81526001600160a01b0385166004820152602401610b3e565b821561221d5784866001600160a01b0316826001600160a01b03167f8c5be1e5ebec7d5bd14f71427d1e84f3dd0314c0f7b2291e5b200ac8c7c3b92560405160405180910390a45b505b5f93845260040160205250506040902080546001600160a01b0319166001600160a01b0392909216919091179055565b5f8061225c8585856125ab565b90506001600160a01b0381166122e3576122de845f8051602061340b83398151915280545f8381527f645e039705490088daad89bae25049a34f4a9072d398537b1ab2425f24cbed0360205260408120829055600182018355919091527fa42f15e5d656f8155fd7419d740a6073999f19cd6e061449ce4a257150545bf20155565b612306565b846001600160a01b0316816001600160a01b0316146123065761230681856126ad565b6001600160a01b0385166123225761231d8461274c565b611209565b846001600160a01b0316816001600160a01b031614611209576112098585612819565b61234e82612871565b6040516001600160a01b038316907fbc7cd75a20ee27fd9adebab32041f755214dbc6bffa90cc0225b39da2e5c2d3b905f90a280511561239257610b1482826128d4565b610a13612946565b7f9016d09d72d40fdae2fd8ceac6b6234c7706214fd39c1cd1e609a0528c19930080546001600160a01b031981166001600160a01b03848116918217845560405192169182907f8be0079c531659141344cd1fd0a4f28419497f9722a3daafe3b4186f6b6457e0905f90a3505050565b5f805f8351604103612441576020840151604085015160608601515f1a61243388828585612965565b95509550955050505061244c565b505081515f91506002905b9250925092565b7ff0c57e16840df040f15088dc2f81fe391c3923bec73e23a9662efc9c229c6a0054600160401b900460ff1661104457604051631afcd79f60e31b815260040160405180910390fd5b6124a4612453565b5f805160206133cb833981519152806124bd8482613118565b5060018101610ba18382613118565b611044612453565b5f8072184f03e93ff9f4daa797ed6e38ed64bf6a1f0160401b83106125125772184f03e93ff9f4daa797ed6e38ed64bf6a1f0160401b830492506040015b6d04ee2d6d415b85acef8100000000831061253e576d04ee2d6d415b85acef8100000000830492506020015b662386f26fc10000831061255c57662386f26fc10000830492506010015b6305f5e1008310612574576305f5e100830492506008015b612710831061258857612710830492506004015b6064831061259a576064830492506002015b600a8310610a3b5760010192915050565b5f5f805160206133cb833981519152816125c485612103565b90506001600160a01b038416156125e0576125e0818587612a2d565b6001600160a01b0381161561261c576125fb5f865f8061213c565b6001600160a01b0381165f908152600383016020526040902080545f190190555b6001600160a01b0386161561264c576001600160a01b0386165f9081526003830160205260409020805460010190555b5f85815260028301602052604080822080546001600160a01b0319166001600160a01b038a811691821790925591518893918516917fddf252ad1be2c89b69c2b068fc378daa952ba7f163c4a11628f55a4df523b3ef91a495945050505050565b5f805160206133ab8339815191525f6126c584610fdb565b5f848152600184016020526040902054909150808214612718576001600160a01b0385165f9081526020848152604080832085845282528083205484845281842081905583526001860190915290208190555b505f92835260018201602090815260408085208590556001600160a01b039095168452918252838320908352905290812055565b5f8051602061340b833981519152545f805160206133ab833981519152905f9061277890600190613368565b5f8481526003840160205260408120546002850180549394509092849081106127a3576127a36130c0565b905f5260205f2001549050808460020183815481106127c4576127c46130c0565b5f918252602080832090910192909255828152600386019091526040808220849055868252812055600284018054806127ff576127ff61337b565b600190038181905f5260205f20015f905590555050505050565b5f805160206133ab8339815191525f600161283385610fdb565b61283d9190613368565b6001600160a01b039094165f9081526020838152604080832087845282528083208690559482526001909301909252502055565b806001600160a01b03163b5f036128a657604051634c9c8ce360e01b81526001600160a01b0382166004820152602401610b3e565b5f805160206133eb83398151915280546001600160a01b0319166001600160a01b0392909216919091179055565b60605f80846001600160a01b0316846040516128f0919061338f565b5f60405180830381855af49150503d805f8114612928576040519150601f19603f3d011682016040523d82523d5f602084013e61292d565b606091505b509150915061293d858383612a91565b95945050505050565b34156110445760405163b398979f60e01b815260040160405180910390fd5b5f80807f7fffffffffffffffffffffffffffffff5d576e7357a4501ddfe92f46681b20a084111561299e57505f91506003905082612a23565b604080515f808252602082018084528a905260ff891692820192909252606081018790526080810186905260019060a0016020604051602081039080840390855afa1580156129ef573d5f803e3d5ffd5b5050604051601f1901519150506001600160a01b038116612a1a57505f925060019150829050612a23565b92505f91508190505b9450945094915050565b612a38838383612aed565b610b14576001600160a01b038316612a6657604051637e27328960e01b815260048101829052602401610b3e565b60405163177e802f60e01b81526001600160a01b038316600482015260248101829052604401610b3e565b606082612aa657612aa182612b51565b61120c565b8151158015612abd57506001600160a01b0384163b155b15612ae657604051639996b31560e01b81526001600160a01b0385166004820152602401610b3e565b508061120c565b5f6001600160a01b038316158015906112095750826001600160a01b0316846001600160a01b03161480612b265750612b2684846115e2565b806112095750826001600160a01b0316612b3f836119cf565b6001600160a01b031614949350505050565b805115612b615780518082602001fd5b604051630a12f52160e11b815260040160405180910390fd5b634e487b7160e01b5f52604160045260245ffd5b5f82601f830112612b9d575f80fd5b81356001600160401b0380821115612bb757612bb7612b7a565b604051601f8301601f19908116603f01168101908282118183101715612bdf57612bdf612b7a565b81604052838152866020858801011115612bf7575f80fd5b836020870160208301375f602085830101528094505050505092915050565b5f8060408385031215612c27575f80fd5b82356001600160401b03811115612c3c575f80fd5b612c4885828601612b8e565b95602094909401359450505050565b6001600160e01b031981168114610bd8575f80fd5b5f60208284031215612c7c575f80fd5b813561120c81612c57565b5f5b83811015612ca1578181015183820152602001612c89565b50505f910152565b5f8151808452612cc0816020860160208601612c87565b601f01601f19169290920160200192915050565b602081525f61120c6020830184612ca9565b5f60208284031215612cf6575f80fd5b5035919050565b6001600160a01b0381168114610bd8575f80fd5b5f8060408385031215612d22575f80fd5b8235612d2d81612cfd565b946020939093013593505050565b5f805f60608486031215612d4d575f80fd5b83356001600160401b03811115612d62575f80fd5b612d6e86828701612b8e565b9350506020840135612d7f81612cfd565b929592945050506040919091013590565b5f805f60608486031215612da2575f80fd5b8335612dad81612cfd565b92506020840135612d7f81612cfd565b5f8060408385031215612dce575f80fd5b50508035926020909101359150565b5f60208284031215612ded575f80fd5b813561120c81612cfd565b5f8060408385031215612e09575f80fd5b8235612e1481612cfd565b915060208301356001600160401b03811115612e2e575f80fd5b612e3a85828601612b8e565b9150509250929050565b602080825282518282018190525f9190848201906040850190845b81811015612e7d578351151583529284019291840191600101612e5f565b50909695505050505050565b5f60208284031215612e99575f80fd5b81356001600160401b03811115612eae575f80fd5b612eba84828501612b8e565b949350505050565b8015158114610bd8575f80fd5b5f8060408385031215612ee0575f80fd5b8235612eeb81612cfd565b91506020830135612efb81612ec2565b809150509250929050565b5f805f8060808587031215612f19575f80fd5b8435612f2481612cfd565b93506020850135612f3481612cfd565b92506040850135915060608501356001600160401b03811115612f55575f80fd5b612f6187828801612b8e565b91505092959194509250565b5f805f8060808587031215612f80575f80fd5b8435612f8b81612cfd565b935060208501356001600160401b03811115612fa5575f80fd5b612fb187828801612b8e565b9350506040850135612fc281612cfd565b91506060850135612fd281612cfd565b939692955090935050565b5f805f60608486031215612fef575f80fd5b8335612ffa81612cfd565b9250602084013561300a81612cfd565b9150604084013561301a81612cfd565b809150509250925092565b602080825282518282018190525f9190848201906040850190845b81811015612e7d57835183529284019291840191600101613040565b5f806040838503121561306d575f80fd5b823561307881612cfd565b91506020830135612efb81612cfd565b600181811c9082168061309c57607f821691505b6020821081036130ba57634e487b7160e01b5f52602260045260245ffd5b50919050565b634e487b7160e01b5f52603260045260245ffd5b601f821115610b1457805f5260205f20601f840160051c810160208510156130f95750805b601f840160051c820191505b81811015611f15575f8155600101613105565b81516001600160401b0381111561313157613131612b7a565b6131458161313f8454613088565b846130d4565b602080601f831160018114613178575f84156131615750858301515b5f19600386901b1c1916600185901b1785556131cf565b5f85815260208120601f198616915b828110156131a657888601518255948401946001909101908401613187565b50858210156131c357878501515f19600388901b60f8161c191681555b505060018460011b0185555b505050505050565b5f602082840312156131e7575f80fd5b815161120c81612ec2565b5f8151613203818560208601612c87565b9290920192915050565b5f80855461321a81613088565b60018281168015613232576001811461324757613273565b60ff1984168752821515830287019450613273565b895f526020805f205f5b8581101561326a5781548a820152908401908201613251565b50505082870194505b50505050602f60f81b81528451613291816001840160208901612c87565b6132b06132aa600183850101602f60f81b815260010190565b866131f2565b979650505050505050565b634e487b7160e01b5f52601160045260245ffd5b5f600182016132e0576132e06132bb565b5060010190565b80820180821115610a3b57610a3b6132bb565b5f6020828403121561330a575f80fd5b5051919050565b6001600160a01b03858116825284166020820152604081018390526080606082018190525f9061334390830184612ca9565b9695505050505050565b5f6020828403121561335d575f80fd5b815161120c81612c57565b81810381811115610a3b57610a3b6132bb565b634e487b7160e01b5f52603160045260245ffd5b5f82516133a0818460208701612c87565b919091019291505056fe645e039705490088daad89bae25049a34f4a9072d398537b1ab2425f24cbed0080bb2b638cc20bc4d0a60d66940f3ab4a00c1d7b313497ca82fb0b4ab0079300360894a13ba1a3210667c828492db98dca3e2076cc3735a920a3ca505d382bbc645e039705490088daad89bae25049a34f4a9072d398537b1ab2425f24cbed02a2646970667358221220572dd857c2da8288277901fce858e3be73d3379617d777c8f51805be1445ad8964736f6c63430008180033","linkReferences":{}},"methodIdentifiers":{"BADGE_ANDROIDS()":"0e0c8b0a","BADGE_BOUNCERS()":"98ef238a","BADGE_DRUMMERS()":"75b9c015","BADGE_MASTERS()":"b378b448","BADGE_MONKS()":"a7fb03ab","BADGE_RAVERS()":"d944061e","BADGE_ROBOTS()":"0f5f04bf","BADGE_SHINTO()":"4808b109","MOVEMENT_BASED()":"9cc28164","MOVEMENT_BOOSTED()":"b4e7409f","MOVEMENT_NEUTRAL()":"d5def7c2","UPGRADE_INTERFACE_VERSION()":"ad3cb1cc","acceptOwnership()":"79ba5097","approve(address,uint256)":"095ea7b3","badgeBalances(address)":"5c6f8ca3","badgeBalancesV2(address)":"f7da8ce3","badges(uint256)":"98e36d8b","balanceOf(address)":"70a08231","baseURI()":"6c0360eb","blacklist()":"a4b5fa56","canMint(bytes,address,uint256)":"b58c439e","getApproved(uint256)":"081812fc","getHash(address,uint256)":"ed05582b","getTokenId(address,uint256)":"29f99b9f","initialize(address,address,address)":"c0c53b8b","initialize(address,string,address,address)":"b8f88d64","isApprovedForAll(address,address)":"e985e9c5","mint(bytes,address,uint256)":"1fcfe19c","mint(bytes,uint256)":"00257612","mintSigner()":"f17af48d","minted(bytes32)":"8ccc5f80","movementBadges(bytes32,uint256)":"3136964c","movements(address)":"700b1acd","name()":"06fdde03","owner()":"8da5cb5b","ownerOf(uint256)":"6352211e","pendingOwner()":"e30c3978","proxiableUUID()":"52d1902d","renounceOwnership()":"715018a6","safeTransferFrom(address,address,uint256)":"42842e0e","safeTransferFrom(address,address,uint256,bytes)":"b88d4fde","setApprovalForAll(address,bool)":"a22cb465","setMovement(address,uint256)":"ff2c26ec","setMovement(uint256)":"2f19062f","setUri(string)":"9b642de1","supportsInterface(bytes4)":"01ffc9a7","symbol()":"95d89b41","tokenByIndex(uint256)":"4f6ccce7","tokenOfOwnerByIndex(address,uint256)":"2f745c59","tokenURI(uint256)":"c87b56dd","totalBadgeSupply()":"ca0259c0","totalSupply()":"18160ddd","transferFrom(address,address,uint256)":"23b872dd","transferOwnership(address)":"f2fde38b","updateBlacklist(address)":"378b5704","updateMintSigner(address)":"f571049b","upgradeToAndCall(address,bytes)":"4f1ef286","userBadges(address,uint256)":"df91cc23"},"storageLayout":{"storage":[{"astId":3275,"contract":"contracts/trailblazers-badges/TrailblazersBadges.sol:TrailblazersBadges","label":"mintSigner","offset":0,"slot":"0","type":"t_address"},{"astId":3280,"contract":"contracts/trailblazers-badges/TrailblazersBadges.sol:TrailblazersBadges","label":"minted","offset":0,"slot":"1","type":"t_mapping(t_bytes32,t_bool)"},{"astId":3284,"contract":"contracts/trailblazers-badges/TrailblazersBadges.sol:TrailblazersBadges","label":"blacklist","offset":0,"slot":"2","type":"t_contract(IMinimalBlacklist)19316"},{"astId":3289,"contract":"contracts/trailblazers-badges/TrailblazersBadges.sol:TrailblazersBadges","label":"__gap","offset":0,"slot":"3","type":"t_array(t_uint256)47_storage"},{"astId":3593,"contract":"contracts/trailblazers-badges/TrailblazersBadges.sol:TrailblazersBadges","label":"_baseURIExtended","offset":0,"slot":"50","type":"t_string_storage"},{"astId":3598,"contract":"contracts/trailblazers-badges/TrailblazersBadges.sol:TrailblazersBadges","label":"badges","offset":0,"slot":"51","type":"t_mapping(t_uint256,t_uint256)"},{"astId":3603,"contract":"contracts/trailblazers-badges/TrailblazersBadges.sol:TrailblazersBadges","label":"movements","offset":0,"slot":"52","type":"t_mapping(t_address,t_uint256)"},{"astId":3610,"contract":"contracts/trailblazers-badges/TrailblazersBadges.sol:TrailblazersBadges","label":"userBadges","offset":0,"slot":"53","type":"t_mapping(t_address,t_mapping(t_uint256,t_uint256))"},{"astId":3617,"contract":"contracts/trailblazers-badges/TrailblazersBadges.sol:TrailblazersBadges","label":"movementBadges","offset":0,"slot":"54","type":"t_mapping(t_bytes32,t_array(t_uint256)2_storage)"},{"astId":3622,"contract":"contracts/trailblazers-badges/TrailblazersBadges.sol:TrailblazersBadges","label":"__gap","offset":0,"slot":"55","type":"t_array(t_uint256)43_storage"}],"types":{"t_address":{"encoding":"inplace","label":"address","numberOfBytes":"20"},"t_array(t_uint256)2_storage":{"encoding":"inplace","label":"uint256[2]","numberOfBytes":"64","base":"t_uint256"},"t_array(t_uint256)43_storage":{"encoding":"inplace","label":"uint256[43]","numberOfBytes":"1376","base":"t_uint256"},"t_array(t_uint256)47_storage":{"encoding":"inplace","label":"uint256[47]","numberOfBytes":"1504","base":"t_uint256"},"t_bool":{"encoding":"inplace","label":"bool","numberOfBytes":"1"},"t_bytes32":{"encoding":"inplace","label":"bytes32","numberOfBytes":"32"},"t_contract(IMinimalBlacklist)19316":{"encoding":"inplace","label":"contract IMinimalBlacklist","numberOfBytes":"20"},"t_mapping(t_address,t_mapping(t_uint256,t_uint256))":{"encoding":"mapping","key":"t_address","label":"mapping(address => mapping(uint256 => uint256))","numberOfBytes":"32","value":"t_mapping(t_uint256,t_uint256)"},"t_mapping(t_address,t_uint256)":{"encoding":"mapping","key":"t_address","label":"mapping(address => uint256)","numberOfBytes":"32","value":"t_uint256"},"t_mapping(t_bytes32,t_array(t_uint256)2_storage)":{"encoding":"mapping","key":"t_bytes32","label":"mapping(bytes32 => uint256[2])","numberOfBytes":"32","value":"t_array(t_uint256)2_storage"},"t_mapping(t_bytes32,t_bool)":{"encoding":"mapping","key":"t_bytes32","label":"mapping(bytes32 => bool)","numberOfBytes":"32","value":"t_bool"},"t_mapping(t_uint256,t_uint256)":{"encoding":"mapping","key":"t_uint256","label":"mapping(uint256 => uint256)","numberOfBytes":"32","value":"t_uint256"},"t_string_storage":{"encoding":"bytes","label":"string","numberOfBytes":"32"},"t_uint256":{"encoding":"inplace","label":"uint256","numberOfBytes":"32"}}},"id":12}