{"abi":[{"type":"function","name":"DEFAULT_ADMIN_ROLE","inputs":[],"outputs":[{"name":"","type":"bytes32","internalType":"bytes32"}],"stateMutability":"view"},{"type":"function","name":"S1_BADGES_ROLE","inputs":[],"outputs":[{"name":"","type":"bytes32","internalType":"bytes32"}],"stateMutability":"view"},{"type":"function","name":"UPGRADE_INTERFACE_VERSION","inputs":[],"outputs":[{"name":"","type":"string","internalType":"string"}],"stateMutability":"view"},{"type":"function","name":"acceptOwnership","inputs":[],"outputs":[],"stateMutability":"nonpayable"},{"type":"function","name":"enableRecruitments","inputs":[{"name":"_s1BadgeIds","type":"uint256[]","internalType":"uint256[]"}],"outputs":[],"stateMutability":"nonpayable"},{"type":"function","name":"enableRecruitments","inputs":[{"name":"_startTime","type":"uint256","internalType":"uint256"},{"name":"_endTime","type":"uint256","internalType":"uint256"},{"name":"_s1BadgeIds","type":"uint256[]","internalType":"uint256[]"}],"outputs":[],"stateMutability":"nonpayable"},{"type":"function","name":"endRecruitment","inputs":[{"name":"_hash","type":"bytes32","internalType":"bytes32"},{"name":"_v","type":"uint8","internalType":"uint8"},{"name":"_r","type":"bytes32","internalType":"bytes32"},{"name":"_s","type":"bytes32","internalType":"bytes32"},{"name":"_exp","type":"uint256","internalType":"uint256"}],"outputs":[],"stateMutability":"nonpayable"},{"type":"function","name":"forceDisableAllRecruitments","inputs":[],"outputs":[],"stateMutability":"nonpayable"},{"type":"function","name":"generateClaimHash","inputs":[{"name":"_hashType","type":"uint8","internalType":"enum BadgeRecruitment.HashType"},{"name":"_user","type":"address","internalType":"address"},{"name":"_exp","type":"uint256","internalType":"uint256"}],"outputs":[{"name":"","type":"bytes32","internalType":"bytes32"}],"stateMutability":"pure"},{"type":"function","name":"getActiveRecruitmentFor","inputs":[{"name":"_user","type":"address","internalType":"address"}],"outputs":[{"name":"","type":"tuple","internalType":"struct BadgeRecruitment.Recruitment","components":[{"name":"recruitmentCycle","type":"uint256","internalType":"uint256"},{"name":"user","type":"address","internalType":"address"},{"name":"s1BadgeId","type":"uint256","internalType":"uint256"},{"name":"s1TokenId","type":"uint256","internalType":"uint256"},{"name":"s2TokenId","type":"uint256","internalType":"uint256"},{"name":"cooldownExpiration","type":"uint256","internalType":"uint256"},{"name":"influenceExpiration","type":"uint256","internalType":"uint256"},{"name":"whaleInfluences","type":"uint256","internalType":"uint256"},{"name":"minnowInfluences","type":"uint256","internalType":"uint256"}]}],"stateMutability":"view"},{"type":"function","name":"getActiveRecruitmentsFor","inputs":[{"name":"_user","type":"address","internalType":"address"}],"outputs":[{"name":"","type":"tuple[]","internalType":"struct BadgeRecruitment.Recruitment[]","components":[{"name":"recruitmentCycle","type":"uint256","internalType":"uint256"},{"name":"user","type":"address","internalType":"address"},{"name":"s1BadgeId","type":"uint256","internalType":"uint256"},{"name":"s1TokenId","type":"uint256","internalType":"uint256"},{"name":"s2TokenId","type":"uint256","internalType":"uint256"},{"name":"cooldownExpiration","type":"uint256","internalType":"uint256"},{"name":"influenceExpiration","type":"uint256","internalType":"uint256"},{"name":"whaleInfluences","type":"uint256","internalType":"uint256"},{"name":"minnowInfluences","type":"uint256","internalType":"uint256"}]}],"stateMutability":"view"},{"type":"function","name":"getConfig","inputs":[],"outputs":[{"name":"","type":"tuple","internalType":"struct BadgeRecruitment.Config","components":[{"name":"cooldownRecruitment","type":"uint256","internalType":"uint256"},{"name":"cooldownInfluence","type":"uint256","internalType":"uint256"},{"name":"influenceWeightPercent","type":"uint256","internalType":"uint256"},{"name":"baseMaxInfluences","type":"uint256","internalType":"uint256"},{"name":"maxInfluencesDivider","type":"uint256","internalType":"uint256"},{"name":"defaultCycleDuration","type":"uint256","internalType":"uint256"}]}],"stateMutability":"view"},{"type":"function","name":"getRecruitmentCycle","inputs":[{"name":"_cycleId","type":"uint256","internalType":"uint256"}],"outputs":[{"name":"","type":"tuple","internalType":"struct BadgeRecruitment.RecruitmentCycle","components":[{"name":"cycleId","type":"uint256","internalType":"uint256"},{"name":"startTime","type":"uint256","internalType":"uint256"},{"name":"endTime","type":"uint256","internalType":"uint256"},{"name":"s1BadgeIds","type":"uint256[]","internalType":"uint256[]"}]}],"stateMutability":"view"},{"type":"function","name":"getRecruitmentInfluences","inputs":[{"name":"_user","type":"address","internalType":"address"}],"outputs":[{"name":"_whaleInfluences","type":"uint256","internalType":"uint256"},{"name":"_minnowInfluences","type":"uint256","internalType":"uint256"}],"stateMutability":"view"},{"type":"function","name":"getRoleAdmin","inputs":[{"name":"role","type":"bytes32","internalType":"bytes32"}],"outputs":[{"name":"","type":"bytes32","internalType":"bytes32"}],"stateMutability":"view"},{"type":"function","name":"grantRole","inputs":[{"name":"role","type":"bytes32","internalType":"bytes32"},{"name":"account","type":"address","internalType":"address"}],"outputs":[],"stateMutability":"nonpayable"},{"type":"function","name":"hasRole","inputs":[{"name":"role","type":"bytes32","internalType":"bytes32"},{"name":"account","type":"address","internalType":"address"}],"outputs":[{"name":"","type":"bool","internalType":"bool"}],"stateMutability":"view"},{"type":"function","name":"influenceRecruitment","inputs":[{"name":"_hash","type":"bytes32","internalType":"bytes32"},{"name":"_v","type":"uint8","internalType":"uint8"},{"name":"_r","type":"bytes32","internalType":"bytes32"},{"name":"_s","type":"bytes32","internalType":"bytes32"},{"name":"_exp","type":"uint256","internalType":"uint256"},{"name":"_influenceColor","type":"uint8","internalType":"enum BadgeRecruitment.InfluenceColor"}],"outputs":[],"stateMutability":"nonpayable"},{"type":"function","name":"initialize","inputs":[{"name":"_s1Badges","type":"address","internalType":"address"},{"name":"_s2Badges","type":"address","internalType":"address"},{"name":"_randomSigner","type":"address","internalType":"address"},{"name":"_config","type":"tuple","internalType":"struct BadgeRecruitment.Config","components":[{"name":"cooldownRecruitment","type":"uint256","internalType":"uint256"},{"name":"cooldownInfluence","type":"uint256","internalType":"uint256"},{"name":"influenceWeightPercent","type":"uint256","internalType":"uint256"},{"name":"baseMaxInfluences","type":"uint256","internalType":"uint256"},{"name":"maxInfluencesDivider","type":"uint256","internalType":"uint256"},{"name":"defaultCycleDuration","type":"uint256","internalType":"uint256"}]}],"outputs":[],"stateMutability":"nonpayable"},{"type":"function","name":"isInfluenceActive","inputs":[{"name":"_user","type":"address","internalType":"address"}],"outputs":[{"name":"","type":"bool","internalType":"bool"}],"stateMutability":"view"},{"type":"function","name":"isRecruitmentActive","inputs":[{"name":"_user","type":"address","internalType":"address"}],"outputs":[{"name":"","type":"bool","internalType":"bool"}],"stateMutability":"view"},{"type":"function","name":"maxInfluences","inputs":[{"name":"_exp","type":"uint256","internalType":"uint256"}],"outputs":[{"name":"value","type":"uint256","internalType":"uint256"}],"stateMutability":"view"},{"type":"function","name":"onERC721Received","inputs":[{"name":"","type":"address","internalType":"address"},{"name":"","type":"address","internalType":"address"},{"name":"","type":"uint256","internalType":"uint256"},{"name":"","type":"bytes","internalType":"bytes"}],"outputs":[{"name":"","type":"bytes4","internalType":"bytes4"}],"stateMutability":"nonpayable"},{"type":"function","name":"owner","inputs":[],"outputs":[{"name":"","type":"address","internalType":"address"}],"stateMutability":"view"},{"type":"function","name":"pendingOwner","inputs":[],"outputs":[{"name":"","type":"address","internalType":"address"}],"stateMutability":"view"},{"type":"function","name":"proxiableUUID","inputs":[],"outputs":[{"name":"","type":"bytes32","internalType":"bytes32"}],"stateMutability":"view"},{"type":"function","name":"randomFromSignature","inputs":[{"name":"_hash","type":"bytes32","internalType":"bytes32"},{"name":"_v","type":"uint8","internalType":"uint8"},{"name":"_r","type":"bytes32","internalType":"bytes32"},{"name":"_s","type":"bytes32","internalType":"bytes32"}],"outputs":[{"name":"_random","type":"uint256","internalType":"uint256"}],"stateMutability":"view"},{"type":"function","name":"randomSigner","inputs":[],"outputs":[{"name":"","type":"address","internalType":"address"}],"stateMutability":"view"},{"type":"function","name":"recruitmentCycleId","inputs":[],"outputs":[{"name":"","type":"uint256","internalType":"uint256"}],"stateMutability":"view"},{"type":"function","name":"recruitmentCycleUniqueMints","inputs":[{"name":"recruitmentCycle","type":"uint256","internalType":"uint256"},{"name":"minter","type":"address","internalType":"address"},{"name":"s1BadgeId","type":"uint256","internalType":"uint256"},{"name":"recruitmentType","type":"uint8","internalType":"enum BadgeRecruitment.RecruitmentType"}],"outputs":[{"name":"mintEnded","type":"bool","internalType":"bool"}],"stateMutability":"view"},{"type":"function","name":"recruitmentCycles","inputs":[{"name":"cycleId","type":"uint256","internalType":"uint256"}],"outputs":[{"name":"cycleId","type":"uint256","internalType":"uint256"},{"name":"startTime","type":"uint256","internalType":"uint256"},{"name":"endTime","type":"uint256","internalType":"uint256"}],"stateMutability":"view"},{"type":"function","name":"recruitments","inputs":[{"name":"_user","type":"address","internalType":"address"},{"name":"","type":"uint256","internalType":"uint256"}],"outputs":[{"name":"recruitmentCycle","type":"uint256","internalType":"uint256"},{"name":"user","type":"address","internalType":"address"},{"name":"s1BadgeId","type":"uint256","internalType":"uint256"},{"name":"s1TokenId","type":"uint256","internalType":"uint256"},{"name":"s2TokenId","type":"uint256","internalType":"uint256"},{"name":"cooldownExpiration","type":"uint256","internalType":"uint256"},{"name":"influenceExpiration","type":"uint256","internalType":"uint256"},{"name":"whaleInfluences","type":"uint256","internalType":"uint256"},{"name":"minnowInfluences","type":"uint256","internalType":"uint256"}],"stateMutability":"view"},{"type":"function","name":"renounceOwnership","inputs":[],"outputs":[],"stateMutability":"nonpayable"},{"type":"function","name":"renounceRole","inputs":[{"name":"role","type":"bytes32","internalType":"bytes32"},{"name":"callerConfirmation","type":"address","internalType":"address"}],"outputs":[],"stateMutability":"nonpayable"},{"type":"function","name":"resetRecruitment","inputs":[{"name":"_user","type":"address","internalType":"address"},{"name":"_s1TokenId","type":"uint256","internalType":"uint256"},{"name":"_s1BadgeId","type":"uint256","internalType":"uint256"},{"name":"_recruitmentCycle","type":"uint256","internalType":"uint256"}],"outputs":[],"stateMutability":"nonpayable"},{"type":"function","name":"revokeRole","inputs":[{"name":"role","type":"bytes32","internalType":"bytes32"},{"name":"account","type":"address","internalType":"address"}],"outputs":[],"stateMutability":"nonpayable"},{"type":"function","name":"s1Badges","inputs":[],"outputs":[{"name":"","type":"address","internalType":"contract TrailblazersBadgesV4"}],"stateMutability":"view"},{"type":"function","name":"s2Badges","inputs":[],"outputs":[{"name":"","type":"address","internalType":"contract TrailblazersBadgesS2"}],"stateMutability":"view"},{"type":"function","name":"setConfig","inputs":[{"name":"_config","type":"tuple","internalType":"struct BadgeRecruitment.Config","components":[{"name":"cooldownRecruitment","type":"uint256","internalType":"uint256"},{"name":"cooldownInfluence","type":"uint256","internalType":"uint256"},{"name":"influenceWeightPercent","type":"uint256","internalType":"uint256"},{"name":"baseMaxInfluences","type":"uint256","internalType":"uint256"},{"name":"maxInfluencesDivider","type":"uint256","internalType":"uint256"},{"name":"defaultCycleDuration","type":"uint256","internalType":"uint256"}]}],"outputs":[],"stateMutability":"nonpayable"},{"type":"function","name":"setS2BadgesContract","inputs":[{"name":"_s2Badges","type":"address","internalType":"address"}],"outputs":[],"stateMutability":"nonpayable"},{"type":"function","name":"startRecruitment","inputs":[{"name":"_hash","type":"bytes32","internalType":"bytes32"},{"name":"_v","type":"uint8","internalType":"uint8"},{"name":"_r","type":"bytes32","internalType":"bytes32"},{"name":"_s","type":"bytes32","internalType":"bytes32"},{"name":"_exp","type":"uint256","internalType":"uint256"}],"outputs":[],"stateMutability":"nonpayable"},{"type":"function","name":"startRecruitment","inputs":[{"name":"_hash","type":"bytes32","internalType":"bytes32"},{"name":"_v","type":"uint8","internalType":"uint8"},{"name":"_r","type":"bytes32","internalType":"bytes32"},{"name":"_s","type":"bytes32","internalType":"bytes32"},{"name":"_exp","type":"uint256","internalType":"uint256"},{"name":"_s1BadgeId","type":"uint256","internalType":"uint256"}],"outputs":[],"stateMutability":"nonpayable"},{"type":"function","name":"startRecruitment","inputs":[{"name":"_user","type":"address","internalType":"address"},{"name":"_s1BadgeId","type":"uint256","internalType":"uint256"}],"outputs":[],"stateMutability":"nonpayable"},{"type":"function","name":"startRecruitment","inputs":[{"name":"_user","type":"address","internalType":"address"},{"name":"_s1BadgeId","type":"uint256","internalType":"uint256"},{"name":"_s1TokenId","type":"uint256","internalType":"uint256"}],"outputs":[],"stateMutability":"nonpayable"},{"type":"function","name":"supportsInterface","inputs":[{"name":"_interfaceId","type":"bytes4","internalType":"bytes4"}],"outputs":[{"name":"","type":"bool","internalType":"bool"}],"stateMutability":"view"},{"type":"function","name":"transferOwnership","inputs":[{"name":"newOwner","type":"address","internalType":"address"}],"outputs":[],"stateMutability":"nonpayable"},{"type":"function","name":"upgradeToAndCall","inputs":[{"name":"newImplementation","type":"address","internalType":"address"},{"name":"data","type":"bytes","internalType":"bytes"}],"outputs":[],"stateMutability":"payable"},{"type":"function","name":"userExperience","inputs":[{"name":"user","type":"address","internalType":"address"}],"outputs":[{"name":"experience","type":"uint256","internalType":"uint256"}],"stateMutability":"view"},{"type":"function","name":"version","inputs":[],"outputs":[{"name":"","type":"string","internalType":"string"}],"stateMutability":"pure"},{"type":"event","name":"Initialized","inputs":[{"name":"version","type":"uint64","indexed":false,"internalType":"uint64"}],"anonymous":false},{"type":"event","name":"OwnershipTransferStarted","inputs":[{"name":"previousOwner","type":"address","indexed":true,"internalType":"address"},{"name":"newOwner","type":"address","indexed":true,"internalType":"address"}],"anonymous":false},{"type":"event","name":"OwnershipTransferred","inputs":[{"name":"previousOwner","type":"address","indexed":true,"internalType":"address"},{"name":"newOwner","type":"address","indexed":true,"internalType":"address"}],"anonymous":false},{"type":"event","name":"RecruitmentComplete","inputs":[{"name":"recruitmentCycle","type":"uint256","indexed":true,"internalType":"uint256"},{"name":"user","type":"address","indexed":true,"internalType":"address"},{"name":"s1TokenId","type":"uint256","indexed":false,"internalType":"uint256"},{"name":"s2TokenId","type":"uint256","indexed":false,"internalType":"uint256"},{"name":"finalColor","type":"uint256","indexed":false,"internalType":"uint256"}],"anonymous":false},{"type":"event","name":"RecruitmentCycleToggled","inputs":[{"name":"recruitmentCycleId","type":"uint256","indexed":true,"internalType":"uint256"},{"name":"startTime","type":"uint256","indexed":true,"internalType":"uint256"},{"name":"endTime","type":"uint256","indexed":true,"internalType":"uint256"},{"name":"s1BadgeIds","type":"uint256[]","indexed":false,"internalType":"uint256[]"},{"name":"enabled","type":"bool","indexed":false,"internalType":"bool"}],"anonymous":false},{"type":"event","name":"RecruitmentReset","inputs":[{"name":"cycleId","type":"uint256","indexed":true,"internalType":"uint256"},{"name":"user","type":"address","indexed":true,"internalType":"address"},{"name":"s1TokenId","type":"uint256","indexed":true,"internalType":"uint256"},{"name":"s1BadgeId","type":"uint256","indexed":false,"internalType":"uint256"}],"anonymous":false},{"type":"event","name":"RecruitmentUpdated","inputs":[{"name":"recruitmentCycle","type":"uint256","indexed":true,"internalType":"uint256"},{"name":"user","type":"address","indexed":true,"internalType":"address"},{"name":"s1BadgeId","type":"uint256","indexed":false,"internalType":"uint256"},{"name":"s1TokenId","type":"uint256","indexed":false,"internalType":"uint256"},{"name":"s2TokenId","type":"uint256","indexed":false,"internalType":"uint256"},{"name":"cooldownExpiration","type":"uint256","indexed":false,"internalType":"uint256"},{"name":"influenceExpiration","type":"uint256","indexed":false,"internalType":"uint256"},{"name":"whaleInfluences","type":"uint256","indexed":false,"internalType":"uint256"},{"name":"minnowInfluences","type":"uint256","indexed":false,"internalType":"uint256"}],"anonymous":false},{"type":"event","name":"RoleAdminChanged","inputs":[{"name":"role","type":"bytes32","indexed":true,"internalType":"bytes32"},{"name":"previousAdminRole","type":"bytes32","indexed":true,"internalType":"bytes32"},{"name":"newAdminRole","type":"bytes32","indexed":true,"internalType":"bytes32"}],"anonymous":false},{"type":"event","name":"RoleGranted","inputs":[{"name":"role","type":"bytes32","indexed":true,"internalType":"bytes32"},{"name":"account","type":"address","indexed":true,"internalType":"address"},{"name":"sender","type":"address","indexed":true,"internalType":"address"}],"anonymous":false},{"type":"event","name":"RoleRevoked","inputs":[{"name":"role","type":"bytes32","indexed":true,"internalType":"bytes32"},{"name":"account","type":"address","indexed":true,"internalType":"address"},{"name":"sender","type":"address","indexed":true,"internalType":"address"}],"anonymous":false},{"type":"event","name":"Upgraded","inputs":[{"name":"implementation","type":"address","indexed":true,"internalType":"address"}],"anonymous":false},{"type":"error","name":"ALREADY_MIGRATED_IN_CYCLE","inputs":[]},{"type":"error","name":"AccessControlBadConfirmation","inputs":[]},{"type":"error","name":"AccessControlUnauthorizedAccount","inputs":[{"name":"account","type":"address","internalType":"address"},{"name":"neededRole","type":"bytes32","internalType":"bytes32"}]},{"type":"error","name":"AddressEmptyCode","inputs":[{"name":"target","type":"address","internalType":"address"}]},{"type":"error","name":"CURRENT_CYCLE_NOT_OVER","inputs":[]},{"type":"error","name":"ERC1967InvalidImplementation","inputs":[{"name":"implementation","type":"address","internalType":"address"}]},{"type":"error","name":"ERC1967NonPayable","inputs":[]},{"type":"error","name":"EXP_TOO_LOW","inputs":[]},{"type":"error","name":"FailedInnerCall","inputs":[]},{"type":"error","name":"HASH_MISMATCH","inputs":[]},{"type":"error","name":"INFLUENCE_IN_PROGRESS","inputs":[]},{"type":"error","name":"INVALID_INFLUENCE_COLOR","inputs":[]},{"type":"error","name":"InvalidInitialization","inputs":[]},{"type":"error","name":"MAX_INFLUENCES_REACHED","inputs":[]},{"type":"error","name":"NOT_ENOUGH_TIME_LEFT","inputs":[]},{"type":"error","name":"NOT_RANDOM_SIGNER","inputs":[]},{"type":"error","name":"NOT_S1_CONTRACT","inputs":[]},{"type":"error","name":"NotInitializing","inputs":[]},{"type":"error","name":"OwnableInvalidOwner","inputs":[{"name":"owner","type":"address","internalType":"address"}]},{"type":"error","name":"OwnableUnauthorizedAccount","inputs":[{"name":"account","type":"address","internalType":"address"}]},{"type":"error","name":"RECRUITMENT_ALREADY_COMPLETED","inputs":[]},{"type":"error","name":"RECRUITMENT_ALREADY_STARTED","inputs":[]},{"type":"error","name":"RECRUITMENT_NOT_ENABLED","inputs":[]},{"type":"error","name":"RECRUITMENT_NOT_FOUND","inputs":[]},{"type":"error","name":"RECRUITMENT_NOT_READY","inputs":[]},{"type":"error","name":"RECRUITMENT_NOT_STARTED","inputs":[]},{"type":"error","name":"TOKEN_NOT_OWNED","inputs":[]},{"type":"error","name":"UUPSUnauthorizedCallContext","inputs":[]},{"type":"error","name":"UUPSUnsupportedProxiableUUID","inputs":[{"name":"slot","type":"bytes32","internalType":"bytes32"}]}],"bytecode":{"object":"0x60a060405230608052348015610013575f80fd5b50608051613f5261003a5f395f8181612e2001528181612e490152612f880152613f525ff3fe6080604052600436106102a5575f3560e01c80637671afc01161016f578063ad3cb1cc116100d8578063d547741f11610092578063e30c39781161006d578063e30c397814610954578063e67dfb6514610968578063f2fde38b14610986578063f376be80146109a5575f80fd5b8063d547741f146108ab578063d9144d48146108ca578063db3fb1e914610935575f80fd5b8063ad3cb1cc14610796578063bf345588146107c6578063c3f909d4146107da578063cf1f24ae14610839578063cf5e546114610858578063d2fc9d4014610877575f80fd5b80638bbee489116101295780638bbee489146106f25780638da5cb5b1461071257806391d148541461072657806399d162c314610745578063a217fddf14610764578063a6471ecf14610777575f80fd5b80637671afc0146106435780637792e7311461066257806379ba509714610681578063809b78cb1461069557806382674006146106b457806386185c17146106d3575f80fd5b8063394869581161021157806352d1902d116101cb57806352d1902d1461058857806354fd4d501461059c57806357663978146105cf57806357b28659146105ee578063670ae94814610603578063715018a61461062f575f80fd5b806339486958146104ce57806339890988146104ed5780633b52d4da1461050c5780633c9e00501461052b57806347e84ad0146105565780634f1ef28614610575575f80fd5b8063248a9ca311610262578063248a9ca3146103d05780632f2ff15d146103fd578063303a6fbe1461041c578063344850751461043b5780633610a4151461049057806336568abe146104af575f80fd5b806301ffc9a7146102a95780630999d257146102dd578063150b7a021461030957806316fc74ed1461034c5780631825d03a1461036d5780631cc2736614610399575b5f80fd5b3480156102b4575f80fd5b506102c86102c33660046134c7565b6109ed565b60405190151581526020015b60405180910390f35b3480156102e8575f80fd5b506102fc6102f7366004613502565b6109fd565b6040516102d4919061357c565b348015610314575f80fd5b50610333610323366004613690565b630a85bd0160e11b949350505050565b6040516001600160e01b031990911681526020016102d4565b348015610357575f80fd5b5061036b61036636600461374e565b610b03565b005b348015610378575f80fd5b5061038c6103873660046137a7565b610cb6565b6040516102d491906137be565b3480156103a4575f80fd5b506002546103b8906001600160a01b031681565b6040516001600160a01b0390911681526020016102d4565b3480156103db575f80fd5b506103ef6103ea3660046137a7565b610d6a565b6040519081526020016102d4565b348015610408575f80fd5b5061036b61041736600461382c565b610d8a565b348015610427575f80fd5b506103ef61043636600461386f565b610dac565b348015610446575f80fd5b506104756104553660046137a7565b600c6020525f908152604090208054600182015460029092015490919083565b604080519384526020840192909252908201526060016102d4565b34801561049b575f80fd5b5061036b6104aa3660046138a7565b610e37565b3480156104ba575f80fd5b5061036b6104c936600461382c565b6110df565b3480156104d9575f80fd5b506103ef6104e83660046137a7565b611117565b3480156104f8575f80fd5b5061036b6105073660046138e9565b611126565b348015610517575f80fd5b5061036b6105263660046138a7565b61115f565b348015610536575f80fd5b506103ef610545366004613502565b60056020525f908152604090205481565b348015610561575f80fd5b5061036b610570366004613903565b611422565b61036b61058336600461394d565b6116ef565b348015610593575f80fd5b506103ef61170e565b3480156105a7575f80fd5b506040805180820190915260028152612b1960f11b60208201525b6040516102d491906139bc565b3480156105da575f80fd5b5061036b6105e93660046139ee565b611729565b3480156105f9575f80fd5b506103ef60035481565b34801561060e575f80fd5b5061062261061d366004613502565b611a69565b6040516102d49190613a18565b34801561063a575f80fd5b5061036b611ba7565b34801561064e575f80fd5b5061036b61065d366004613a27565b611bba565b34801561066d575f80fd5b5061036b61067c366004613aa7565b611ed3565b34801561068c575f80fd5b5061036b611ef7565b3480156106a0575f80fd5b506001546103b8906001600160a01b031681565b3480156106bf575f80fd5b506102c86106ce366004613502565b611f44565b3480156106de575f80fd5b5061036b6106ed366004613502565b611f80565b3480156106fd575f80fd5b506103ef5f80516020613efd83398151915281565b34801561071d575f80fd5b506103b8611fad565b348015610731575f80fd5b506102c861074036600461382c565b611fe1565b348015610750575f80fd5b5061036b61075f366004613af2565b612017565b34801561076f575f80fd5b506103ef5f81565b348015610782575f80fd5b5061036b610791366004613b4a565b6121d2565b3480156107a1575f80fd5b506105c2604051806040016040528060058152602001640352e302e360dc1b81525081565b3480156107d1575f80fd5b5061036b612572565b3480156107e5575f80fd5b506107ee6125df565b6040516102d491905f60c082019050825182526020830151602083015260408301516040830152606083015160608301526080830151608083015260a083015160a083015292915050565b348015610844575f80fd5b506102c8610853366004613502565b61264f565b348015610863575f80fd5b5061036b610872366004613b7c565b612667565b348015610882575f80fd5b50610896610891366004613502565b612684565b604080519283526020830191909152016102d4565b3480156108b6575f80fd5b5061036b6108c536600461382c565b6126cd565b3480156108d5575f80fd5b506108e96108e43660046139ee565b6126e9565b60408051998a526001600160a01b0390981660208a0152968801959095526060870193909352608086019190915260a085015260c084015260e0830152610100820152610120016102d4565b348015610940575f80fd5b506103ef61094f366004613bcb565b612757565b34801561095f575f80fd5b506103b861278d565b348015610973575f80fd5b505f546103b8906001600160a01b031681565b348015610991575f80fd5b5061036b6109a0366004613502565b6127b5565b3480156109b0575f80fd5b506102c86109bf366004613c0c565b600460209081525f948552604080862082529385528385208152918452828420909152825290205460ff1681565b5f6109f78261283a565b92915050565b6001600160a01b0381165f908152600d602052604081205460609103610a36576040516318e0eb3f60e21b815260040160405180910390fd5b6001600160a01b0382165f908152600d6020908152604080832080548251818502810185019093528083529193909284015b82821015610af8575f848152602090819020604080516101208101825260098602909201805483526001808201546001600160a01b0316848601526002820154928401929092526003810154606084015260048101546080840152600581015460a0840152600681015460c0840152600781015460e0840152600801546101008301529083529092019101610a68565b505050509050919050565b7ff0c57e16840df040f15088dc2f81fe391c3923bec73e23a9662efc9c229c6a008054600160401b810460ff16159067ffffffffffffffff165f81158015610b485750825b90505f8267ffffffffffffffff166001148015610b645750303b155b905081158015610b72575080155b15610b905760405163f92ee8a960e01b815260040160405180910390fd5b845467ffffffffffffffff191660011785558315610bba57845460ff60401b1916600160401b1785555b610bc33361286e565b610bcb6128a6565b610bd55f336128ae565b505f80546001600160a01b0319166001600160a01b038b16179055610c075f80516020613efd8339815191528a6128ae565b50600180546001600160a01b03808b166001600160a01b03199283161790925560028054928a169290911691909117905585516006556020860151600755604086015160085560608601516009556080860151600a5560a0860151600b558315610cab57845460ff60401b19168555604051600181527fc7f505b2f371ae2175ee4913f4499e1f2633a7b5936321eed1cdaeb6115181d29060200160405180910390a15b505050505050505050565b610cde60405180608001604052805f81526020015f81526020015f8152602001606081525090565b5f828152600c60209081526040918290208251608081018452815481526001820154818401526002820154818501526003820180548551818602810186019096528086529194929360608601939290830182828015610d5a57602002820191905f5260205f20905b815481526020019060010190808311610d46575b5050505050815250509050919050565b5f9081525f80516020613edd833981519152602052604090206001015490565b610d9382610d6a565b610d9c8161294f565b610da683836128ae565b50505050565b5f80610dba86868686612959565b50506002549091506001600160a01b03808316911614610ded5760405163221ad94760e21b815260040160405180910390fd5b60408051602081018690529081018490526001600160f81b031960f887901b16606082015260610160408051601f1981840301815291905280516020909101209695505050505050565b335f818152600d602052604090205415801590610e9957506001600160a01b0381165f908152600d602052604090208054429190610e7790600190613c67565b81548110610e8757610e87613c7a565b905f5260205f20906009020160050154115b15610eb657604051621f91b360e81b815260040160405180910390fd5b5f610ec360013385612757565b9050868114610ee557604051631ee54adb60e21b815260040160405180910390fd5b5f610ef288888888612959565b50506002549091506001600160a01b03808316911614610f255760405163221ad94760e21b815260040160405180910390fd5b335f90815260056020526040902054841015610f54576040516318d2950d60e01b815260040160405180910390fd5b335f908152600560209081526040808320879055600380548452600c835281842082516080810184528154815260018201548186015260028201548185015291810180548451818702810187019095528085529294919360608601939092830182828015610fdf57602002820191905f5260205f20905b815481526020019060010190808311610fcb575b50505050508152505090504281602001511180610fff5750428160400151105b1561101d5760405163636c60f360e11b815260040160405180910390fd5b5f61102a8a8a8a8a610dac565b606083015180519192505f916110409084613c8e565b8151811061105057611050613c7a565b6020026020010151905060045f60035481526020019081526020015f205f6110753390565b6001600160a01b0316815260208082019290925260409081015f90812084825283528181206001825290925290205460ff16156110c557604051633112d86360e11b815260040160405180910390fd5b6110d233825f6001612a21565b5050505050505050505050565b6001600160a01b03811633146111085760405163334bd91960e11b815260040160405180910390fd5b6111128282612c28565b505050565b6009545f906109f79082613cc1565b5f6111308161294f565b5080516006556020810151600755604081015160085560608101516009556080810151600a5560a00151600b55565b5f61116933611a69565b90508060a001515f0361118f576040516318e0eb3f60e21b815260040160405180910390fd5b5f61119933611a69565b9050428160c0015111156111c0576040516381b0c4d760e01b815260040160405180910390fd5b428160a0015111156111e55760405163dea48fb360e01b815260040160405180910390fd5b5f6111f36002335b86612757565b905087811461121557604051631ee54adb60e21b815260040160405180910390fd5b5f61122289898989610dac565b90505f6006600201548460e0015161123a9190613cd4565b611245906032613cc1565b90505f60066002015485610100015161125e9190613cd4565b611269906032613cc1565b90505f6112768284613cc1565b90505f6112838286613c8e565b90505f838210156112965750600261129a565b5060015b60408801516001546001600160a01b031663352926a8338360078111156112c3576112c3613cad565b856040518463ffffffff1660e01b81526004016112e293929190613ceb565b5f604051808303815f87803b1580156112f9575f80fd5b505af115801561130b573d5f803e3d5ffd5b505050505f60015f9054906101000a90046001600160a01b03166001600160a01b03166318160ddd6040518163ffffffff1660e01b8152600401602060405180830381865afa158015611360573d5f803e3d5ffd5b505050506040513d601f19601f820116820180604052508101906113849190613d2f565b60808b018190525f60a08c0181905260c08c015290506113a38a612ca1565b89602001516001600160a01b03168a5f01517fffec938eb2c7cb5ff8d678b6cbb318f371bae12503ece793a7b90ce6675e8a3b8c606001518d608001518760028111156113f2576113f2613cad565b6040805193845260208401929092529082015260600160405180910390a350505050505050505050505050505050565b335f818152600d60205260409020541580159061148457506001600160a01b0381165f908152600d60205260409020805442919061146290600190613c67565b8154811061147257611472613c7a565b905f5260205f20906009020160050154115b156114a157604051621f91b360e81b815260040160405180910390fd5b815f600c5f60035481526020019081526020015f206040518060800160405290815f820154815260200160018201548152602001600282015481526020016003820180548060200260200160405190810160405280929190818152602001828054801561152b57602002820191905f5260205f20905b815481526020019060010190808311611517575b5050505050815250509050428160200151118061154b5750428160400151105b156115695760405163636c60f360e11b815260040160405180910390fd5b5f805b8260600151518110156115ae57838360600151828151811061159057611590613c7a565b6020026020010151036115a657600191506115ae565b60010161156c565b50806115cd5760405163636c60f360e11b815260040160405180910390fd5b6003545f908152600460209081526040808320338085529083528184208985528352818420600180865293529220548792919060ff161561162157604051633112d86360e11b815260040160405180910390fd5b5f61162e6001338b612757565b90508d811461165057604051631ee54adb60e21b815260040160405180910390fd5b5f61165d8f8f8f8f612959565b50506002549091506001600160a01b038083169116146116905760405163221ad94760e21b815260040160405180910390fd5b335f908152600560205260409020548b10156116bf576040516318d2950d60e01b815260040160405180910390fd5b335f8181526005602052604081208d90556116de91908c906001612a21565b505050505050505050505050505050565b6116f7612e15565b61170082612eb9565b61170a8282612ec1565b5050565b5f611717612f7d565b505f80516020613ebd83398151915290565b5f80516020613efd8339815191526117408161294f565b815f600c5f60035481526020019081526020015f206040518060800160405290815f82015481526020016001820154815260200160028201548152602001600382018054806020026020016040519081016040528092919081815260200182805480156117ca57602002820191905f5260205f20905b8154815260200190600101908083116117b6575b505050505081525050905042816020015111806117ea5750428160400151105b156118085760405163636c60f360e11b815260040160405180910390fd5b5f805b82606001515181101561184d57838360600151828151811061182f5761182f613c7a565b602002602001015103611845576001915061184d565b60010161180b565b508061186c5760405163636c60f360e11b815260040160405180910390fd5b6001600160a01b0386165f908152600d60205260409020548690158015906118d957506001600160a01b0381165f908152600d6020526040902080544291906118b790600190613c67565b815481106118c7576118c7613c7a565b905f5260205f20906009020160050154115b156118f657604051621f91b360e81b815260040160405180910390fd5b6003545f9081526004602090815260408083206001600160a01b038b1684528252808320898452825280832060028085529252909120548791899160ff161561195257604051633112d86360e11b815260040160405180910390fd5b5f80546040516329f99b9f60e01b81526001600160a01b038d81166004830152602482018d9052909116906329f99b9f90604401602060405180830381865afa1580156119a1573d5f803e3d5ffd5b505050506040513d601f19601f820116820180604052508101906119c59190613d2f565b5f546040516331a9108f60e11b8152600481018390529192506001600160a01b038d811692911690636352211e90602401602060405180830381865afa158015611a11573d5f803e3d5ffd5b505050506040513d601f19601f82011682018060405250810190611a359190613d46565b6001600160a01b031614611a5c57604051634e9806e960e01b815260040160405180910390fd5b6110d28b8b836002612a21565b611ab86040518061012001604052805f81526020015f6001600160a01b031681526020015f81526020015f81526020015f81526020015f81526020015f81526020015f81526020015f81525090565b6001600160a01b0382165f908152600d60205260408120549003611aef576040516318e0eb3f60e21b815260040160405180910390fd5b6001600160a01b0382165f908152600d602052604090208054611b1490600190613c67565b81548110611b2457611b24613c7a565b5f918252602091829020604080516101208101825260099093029091018054835260018101546001600160a01b0316938301939093526002830154908201526003820154606082015260048201546080820152600582015460a0820152600682015460c0820152600782015460e082015260089091015461010082015292915050565b611baf612fc6565b611bb85f61286e565b565b5f80516020613efd833981519152611bd18161294f565b5f8281526004602090815260408083206001600160a01b0389168452825280832086845282528083206002845290915290205460ff16158015611c4757505f8281526004602090815260408083206001600160a01b0389168452825280832086845282528083206001845290915290205460ff16155b8015611c8557505f8281526004602090815260408083206001600160a01b03891684528252808320868452825280832083805290915290205460ff16155b15611ca3576040516312d0231b60e31b815260040160405180910390fd5b5f805b6001600160a01b0387165f908152600d6020526040902054811015611e1d576001600160a01b0387165f908152600d60205260409020805485919083908110611cf157611cf1613c7a565b905f5260205f2090600902015f0154148015611d4657506001600160a01b0387165f908152600d60205260409020805487919083908110611d3457611d34613c7a565b905f5260205f20906009020160030154145b8015611d8957506001600160a01b0387165f908152600d60205260409020805482908110611d7657611d76613c7a565b905f5260205f209060090201600401545f145b15611e15576001600160a01b0387165f908152600d60205260409020805482908110611db757611db7613c7a565b5f91825260208220600990910201818155600180820180546001600160a01b03191690556002820183905560038201839055600482018390556005820183905560068201839055600782018390556008909101919091559150611e1d565b600101611ca6565b5080611e3c576040516312d0231b60e31b815260040160405180910390fd5b5f8381526004602090815260408083206001600160a01b038a1680855290835281842088855283528184208480528352818420805460ff1990811690915560018552828520805482169055600285529382902080549094169093555186815287929186917f0d2bda76cdaadb42aed25af665a149b4f20e585179e04aad9dea1a2fba4dce8a910160405180910390a4505050505050565b5f611edd8161294f565b600b54611112904290611ef09082613cc1565b8585612ff8565b3380611f0161278d565b6001600160a01b031614611f385760405163118cdaa760e01b81526001600160a01b03821660048201526024015b60405180910390fd5b611f418161286e565b50565b6001600160a01b0381165f908152600d60205260408120548103611f6957505f919050565b5f611f7383611a69565b60a0015115159392505050565b5f611f8a8161294f565b50600180546001600160a01b0319166001600160a01b0392909216919091179055565b5f807f9016d09d72d40fdae2fd8ceac6b6234c7706214fd39c1cd1e609a0528c1993005b546001600160a01b031692915050565b5f9182525f80516020613edd833981519152602090815260408084206001600160a01b0393909316845291905290205460ff1690565b5f61202133611a69565b90508060a001515f03612047576040516318e0eb3f60e21b815260040160405180910390fd5b5f6120536003336111ed565b905087811461207557604051631ee54adb60e21b815260040160405180910390fd5b5f61208289898989612959565b50506002549091506001600160a01b038083169116146120b55760405163221ad94760e21b815260040160405180910390fd5b5f6120bf33611a69565b90506120ca86611117565b8161010001518260e001516120df9190613cc1565b106120fd57604051635f45a5db60e11b815260040160405180910390fd5b428160c001511115612122576040516381b0c4d760e01b815260040160405180910390fd5b600185600281111561213657612136613cad565b0361215a5760e0810180519061214b82613d61565b9052505f6101008201526121ab565b600285600281111561216e5761216e613cad565b0361219257610100810180519061218482613d61565b9052505f60e08201526121ab565b6040516320909ef960e21b815260040160405180910390fd5b6007546121b89042613cc1565b60c08201526121c681612ca1565b50505050505050505050565b5f80516020613efd8339815191526121e98161294f565b825f600c5f60035481526020019081526020015f206040518060800160405290815f820154815260200160018201548152602001600282015481526020016003820180548060200260200160405190810160405280929190818152602001828054801561227357602002820191905f5260205f20905b81548152602001906001019080831161225f575b505050505081525050905042816020015111806122935750428160400151105b156122b15760405163636c60f360e11b815260040160405180910390fd5b5f805b8260600151518110156122f65783836060015182815181106122d8576122d8613c7a565b6020026020010151036122ee57600191506122f6565b6001016122b4565b50806123155760405163636c60f360e11b815260040160405180910390fd5b6001600160a01b0387165f908152600d602052604090205487901580159061238257506001600160a01b0381165f908152600d60205260409020805442919061236090600190613c67565b8154811061237057612370613c7a565b905f5260205f20906009020160050154115b1561239f57604051621f91b360e81b815260040160405180910390fd5b6003545f9081526004602090815260408083206001600160a01b038c16845282528083208a84528252808320600280855292529091205488918a9160ff16156123fb57604051633112d86360e11b815260040160405180910390fd5b8a5f600c5f60035481526020019081526020015f206002015490505f306001600160a01b031663c3f909d46040518163ffffffff1660e01b815260040160c060405180830381865afa158015612453573d5f803e3d5ffd5b505050506040513d601f19601f820116820180604052508101906124779190613d79565b516124829042613cc1565b9050818111156124a557604051637aa0d1dd60e01b815260040160405180910390fd5b8d6001600160a01b03165f8054906101000a90046001600160a01b03166001600160a01b0316636352211e8e6040518263ffffffff1660e01b81526004016124ef91815260200190565b602060405180830381865afa15801561250a573d5f803e3d5ffd5b505050506040513d601f19601f8201168201806040525081019061252e9190613d46565b6001600160a01b03161461255557604051634e9806e960e01b815260040160405180910390fd5b6125628e8e8e6002612a21565b5050505050505050505050505050565b5f61257c8161294f565b612584613186565b600380545f818152600c602052604080822060028101546001820154925190959294937f05190ba6864329d874061fa0dbc07ef11aa0048f9628c61cbb2672aad0baf1cf936125d4930191613dd1565b60405180910390a450565b6126126040518060c001604052805f81526020015f81526020015f81526020015f81526020015f81526020015f81525090565b506040805160c08101825260065481526007546020820152600854918101919091526009546060820152600a546080820152600b5460a082015290565b5f8061265a83611a69565b60c0015142109392505050565b5f6126718161294f565b61267d85858585612ff8565b5050505050565b5f8061268f83611f44565b6126ac576040516318e0eb3f60e21b815260040160405180910390fd5b5f6126b684611a69565b90508060e001518161010001519250925050915091565b6126d682610d6a565b6126df8161294f565b610da68383612c28565b600d602052815f5260405f208181548110612702575f80fd5b5f9182526020909120600990910201805460018201546002830154600384015460048501546005860154600687015460078801546008909801549699506001600160a01b039095169750929591949093919089565b5f83838360405160200161276d93929190613e26565b6040516020818303038152906040528051906020012090505b9392505050565b5f807f237e158222e3e6968b72b9db0d8043aacf074ad9f650f0d1606b4d82ee432c00611fd1565b6127bd612fc6565b7f237e158222e3e6968b72b9db0d8043aacf074ad9f650f0d1606b4d82ee432c0080546001600160a01b0319166001600160a01b0383169081178255612801611fad565b6001600160a01b03167f38d16b8cac22d99fc7c124b9cd0de2d3fa1faef420bfe791d8c362d765e2270060405160405180910390a35050565b5f6001600160e01b03198216637965db0b60e01b14806109f757506301ffc9a760e01b6001600160e01b03198316146109f7565b7f237e158222e3e6968b72b9db0d8043aacf074ad9f650f0d1606b4d82ee432c0080546001600160a01b031916815561170a826131aa565b611bb861321a565b5f5f80516020613edd8339815191526128c78484611fe1565b612946575f848152602082815260408083206001600160a01b03871684529091529020805460ff191660011790556128fc3390565b6001600160a01b0316836001600160a01b0316857f2f8788117e7eff1d82e926ec794901d17c78024a50270940304540a733656f0d60405160405180910390a460019150506109f7565b5f9150506109f7565b611f418133613263565b5f80807f7fffffffffffffffffffffffffffffff5d576e7357a4501ddfe92f46681b20a084111561299257505f91506003905082612a17565b604080515f808252602082018084528a905260ff891692820192909252606081018790526080810186905260019060a0016020604051602081039080840390855afa1580156129e3573d5f803e3d5ffd5b5050604051601f1901519150506001600160a01b038116612a0e57505f925060019150829050612a17565b92505f91508190505b9450945094915050565b5f6040518061012001604052806003548152602001866001600160a01b031681526020018581526020018481526020015f815260200160065f015442612a679190613cc1565b81525f6020808301829052604080840183905260609384018390526001600160a01b038a8116808552600d845282852080546001808201835591875285872089516009909202019081558886015181830180546001600160a01b03191691909516179093558784015160028085019190915596880151600380850191909155608089015160048086019190915560a08a0151600586015560c08a0151600686015560e08a015160078601556101008a015160089095019490945554865291845282852090855283528184208a8552909252822093945092918590811115612b5057612b50613cad565b6002811115612b6157612b61613cad565b81526020019081526020015f205f6101000a81548160ff02191690831515021790555080602001516001600160a01b0316815f01517f55a6a5f6256623ecc47fb8aa0ba547ef554efdb493d344f9c05acfc0a6b1cb528360400151846060015185608001518660a001518760c001518860e00151896101000151604051612c199796959493929190968752602087019590955260408601939093526060850191909152608084015260a083015260c082015260e00190565b60405180910390a35050505050565b5f5f80516020613edd833981519152612c418484611fe1565b15612946575f848152602082815260408083206001600160a01b0387168085529252808320805460ff1916905551339287917ff6391f5c32d9c69d2a47ea670b442974b53935d1edc7fd64eb21e047a839171b9190a460019150506109f7565b602080820180516001600160a01b039081165f908152600d90935260408084209251909116835290912054829190612cdb90600190613c67565b81548110612ceb57612ceb613c7a565b905f5260205f2090600902015f820151815f01556020820151816001015f6101000a8154816001600160a01b0302191690836001600160a01b0316021790555060408201518160020155606082015181600301556080820151816004015560a0820151816005015560c0820151816006015560e08201518160070155610100820151816008015590505080602001516001600160a01b0316815f01517f55a6a5f6256623ecc47fb8aa0ba547ef554efdb493d344f9c05acfc0a6b1cb528360400151846060015185608001518660a001518760c001518860e00151896101000151604051612e0a9796959493929190968752602087019590955260408601939093526060850191909152608084015260a083015260c082015260e00190565b60405180910390a350565b306001600160a01b037f0000000000000000000000000000000000000000000000000000000000000000161480612e9b57507f00000000000000000000000000000000000000000000000000000000000000006001600160a01b0316612e8f5f80516020613ebd833981519152546001600160a01b031690565b6001600160a01b031614155b15611bb85760405163703e46dd60e11b815260040160405180910390fd5b611f41612fc6565b816001600160a01b03166352d1902d6040518163ffffffff1660e01b8152600401602060405180830381865afa925050508015612f1b575060408051601f3d908101601f19168201909252612f1891810190613d2f565b60015b612f4357604051634c9c8ce360e01b81526001600160a01b0383166004820152602401611f2f565b5f80516020613ebd8339815191528114612f7357604051632a87526960e21b815260048101829052602401611f2f565b611112838361329c565b306001600160a01b037f00000000000000000000000000000000000000000000000000000000000000001614611bb85760405163703e46dd60e11b815260040160405180910390fd5b33612fcf611fad565b6001600160a01b031614611bb85760405163118cdaa760e01b8152336004820152602401611f2f565b5f60035411801561301b57506003545f908152600c602052604090206002015442105b15613039576040516377037a0760e11b815260040160405180910390fd5b600380545f818152600c602052604080822060028101546001820154925190959294937f05190ba6864329d874061fa0dbc07ef11aa0048f9628c61cbb2672aad0baf1cf93613089930191613dd1565b60405180910390a460038054905f6130a083613d61565b9190505550604051806080016040528060035481526020018581526020018481526020018383808060200260200160405190810160405280939291908181526020018383602002808284375f920182905250939094525050600380548252600c6020908152604092839020855181558582015160018201559285015160028401556060850151805193945061313b939285019291019061346a565b5090505082846003547f05190ba6864329d874061fa0dbc07ef11aa0048f9628c61cbb2672aad0baf1cf8585600160405161317893929190613e65565b60405180910390a450505050565b5f6131908161294f565b506003545f908152600c6020526040902042600290910155565b7f9016d09d72d40fdae2fd8ceac6b6234c7706214fd39c1cd1e609a0528c19930080546001600160a01b031981166001600160a01b03848116918217845560405192169182907f8be0079c531659141344cd1fd0a4f28419497f9722a3daafe3b4186f6b6457e0905f90a3505050565b7ff0c57e16840df040f15088dc2f81fe391c3923bec73e23a9662efc9c229c6a0054600160401b900460ff16611bb857604051631afcd79f60e31b815260040160405180910390fd5b61326d8282611fe1565b61170a5760405163e2517d3f60e01b81526001600160a01b038216600482015260248101839052604401611f2f565b6132a5826132f1565b6040516001600160a01b038316907fbc7cd75a20ee27fd9adebab32041f755214dbc6bffa90cc0225b39da2e5c2d3b905f90a28051156132e9576111128282613354565b61170a6133c6565b806001600160a01b03163b5f0361332657604051634c9c8ce360e01b81526001600160a01b0382166004820152602401611f2f565b5f80516020613ebd83398151915280546001600160a01b0319166001600160a01b0392909216919091179055565b60605f80846001600160a01b0316846040516133709190613ea1565b5f60405180830381855af49150503d805f81146133a8576040519150601f19603f3d011682016040523d82523d5f602084013e6133ad565b606091505b50915091506133bd8583836133e5565b95945050505050565b3415611bb85760405163b398979f60e01b815260040160405180910390fd5b6060826133fa576133f582613441565b612786565b815115801561341157506001600160a01b0384163b155b1561343a57604051639996b31560e01b81526001600160a01b0385166004820152602401611f2f565b5080612786565b8051156134515780518082602001fd5b604051630a12f52160e11b815260040160405180910390fd5b828054828255905f5260205f209081019282156134a3579160200282015b828111156134a3578251825591602001919060010190613488565b506134af9291506134b3565b5090565b5b808211156134af575f81556001016134b4565b5f602082840312156134d7575f80fd5b81356001600160e01b031981168114612786575f80fd5b6001600160a01b0381168114611f41575f80fd5b5f60208284031215613512575f80fd5b8135612786816134ee565b805182526020808201516001600160a01b03169083015260408082015190830152606080820151908301526080808201519083015260a0808201519083015260c0808201519083015260e0808201519083015261010090810151910152565b602080825282518282018190525f9190848201906040850190845b818110156135be576135aa83855161351d565b928401926101209290920191600101613597565b50909695505050505050565b634e487b7160e01b5f52604160045260245ffd5b60405160c0810167ffffffffffffffff81118282101715613601576136016135ca565b60405290565b5f82601f830112613616575f80fd5b813567ffffffffffffffff80821115613631576136316135ca565b604051601f8301601f19908116603f01168101908282118183101715613659576136596135ca565b81604052838152866020858801011115613671575f80fd5b836020870160208301375f602085830101528094505050505092915050565b5f805f80608085870312156136a3575f80fd5b84356136ae816134ee565b935060208501356136be816134ee565b925060408501359150606085013567ffffffffffffffff8111156136e0575f80fd5b6136ec87828801613607565b91505092959194509250565b5f60c08284031215613708575f80fd5b6137106135de565b9050813581526020820135602082015260408201356040820152606082013560608201526080820135608082015260a082013560a082015292915050565b5f805f806101208587031215613762575f80fd5b843561376d816134ee565b9350602085013561377d816134ee565b9250604085013561378d816134ee565b915061379c86606087016136f8565b905092959194509250565b5f602082840312156137b7575f80fd5b5035919050565b5f602080835260a0830184518285015281850151604085015260408501516060850152606085015160808086015281815180845260c08701915084830193505f92505b808310156138215783518252928401926001929092019190840190613801565b509695505050505050565b5f806040838503121561383d575f80fd5b82359150602083013561384f816134ee565b809150509250929050565b803560ff8116811461386a575f80fd5b919050565b5f805f8060808587031215613882575f80fd5b843593506138926020860161385a565b93969395505050506040820135916060013590565b5f805f805f60a086880312156138bb575f80fd5b853594506138cb6020870161385a565b94979496505050506040830135926060810135926080909101359150565b5f60c082840312156138f9575f80fd5b61278683836136f8565b5f805f805f8060c08789031215613918575f80fd5b863595506139286020880161385a565b95989597505050506040840135936060810135936080820135935060a0909101359150565b5f806040838503121561395e575f80fd5b8235613969816134ee565b9150602083013567ffffffffffffffff811115613984575f80fd5b61399085828601613607565b9150509250929050565b5f5b838110156139b457818101518382015260200161399c565b50505f910152565b602081525f82518060208401526139da81604085016020870161399a565b601f01601f19169190910160400192915050565b5f80604083850312156139ff575f80fd5b8235613a0a816134ee565b946020939093013593505050565b61012081016109f7828461351d565b5f805f8060808587031215613a3a575f80fd5b8435613a45816134ee565b966020860135965060408601359560600135945092505050565b5f8083601f840112613a6f575f80fd5b50813567ffffffffffffffff811115613a86575f80fd5b6020830191508360208260051b8501011115613aa0575f80fd5b9250929050565b5f8060208385031215613ab8575f80fd5b823567ffffffffffffffff811115613ace575f80fd5b613ada85828601613a5f565b90969095509350505050565b60038110611f41575f80fd5b5f805f805f8060c08789031215613b07575f80fd5b86359550613b176020880161385a565b945060408701359350606087013592506080870135915060a0870135613b3c81613ae6565b809150509295509295509295565b5f805f60608486031215613b5c575f80fd5b8335613b67816134ee565b95602085013595506040909401359392505050565b5f805f8060608587031215613b8f575f80fd5b8435935060208501359250604085013567ffffffffffffffff811115613bb3575f80fd5b613bbf87828801613a5f565b95989497509550505050565b5f805f60608486031215613bdd575f80fd5b833560048110613beb575f80fd5b92506020840135613bfb816134ee565b929592945050506040919091013590565b5f805f8060808587031215613c1f575f80fd5b843593506020850135613c31816134ee565b9250604085013591506060850135613c4881613ae6565b939692955090935050565b634e487b7160e01b5f52601160045260245ffd5b818103818111156109f7576109f7613c53565b634e487b7160e01b5f52603260045260245ffd5b5f82613ca857634e487b7160e01b5f52601260045260245ffd5b500690565b634e487b7160e01b5f52602160045260245ffd5b808201808211156109f7576109f7613c53565b80820281158282048414176109f7576109f7613c53565b6001600160a01b03841681526060810160088410613d0b57613d0b613cad565b83602083015260038310613d2157613d21613cad565b826040830152949350505050565b5f60208284031215613d3f575f80fd5b5051919050565b5f60208284031215613d56575f80fd5b8151612786816134ee565b5f60018201613d7257613d72613c53565b5060010190565b5f60c08284031215613d89575f80fd5b613d916135de565b825181526020830151602082015260408301516040820152606083015160608201526080830151608082015260a083015160a08201528091505092915050565b5f6040820160408352808554808352606085019150865f526020925060205f205f5b82811015613e0f57815484529284019260019182019101613df3565b505050809250505082151560208301529392505050565b5f60048510613e3757613e37613cad565b5060f89390931b835260609190911b6bffffffffffffffffffffffff19166001830152601582015260350190565b604080825281018390525f6001600160fb1b03841115613e83575f80fd5b8360051b808660608501379215156020830152500160600192915050565b5f8251613eb281846020870161399a565b919091019291505056fe360894a13ba1a3210667c828492db98dca3e2076cc3735a920a3ca505d382bbc02dd7bc7dec4dceedda775e58dd541e08a116c6c53815c0bd028192f7b626800a9295b7d9ec6c9c985c388ae05777dd7762a53925e64874088b96ee6c4df733fa2646970667358221220d46a36c405ca320c8e88457de632b35c2084365ec84df49972d9e398073efcd764736f6c63430008180033","linkReferences":{}},"methodIdentifiers":{"DEFAULT_ADMIN_ROLE()":"a217fddf","S1_BADGES_ROLE()":"8bbee489","UPGRADE_INTERFACE_VERSION()":"ad3cb1cc","acceptOwnership()":"79ba5097","enableRecruitments(uint256,uint256,uint256[])":"cf5e5461","enableRecruitments(uint256[])":"7792e731","endRecruitment(bytes32,uint8,bytes32,bytes32,uint256)":"3b52d4da","forceDisableAllRecruitments()":"bf345588","generateClaimHash(uint8,address,uint256)":"db3fb1e9","getActiveRecruitmentFor(address)":"670ae948","getActiveRecruitmentsFor(address)":"0999d257","getConfig()":"c3f909d4","getRecruitmentCycle(uint256)":"1825d03a","getRecruitmentInfluences(address)":"d2fc9d40","getRoleAdmin(bytes32)":"248a9ca3","grantRole(bytes32,address)":"2f2ff15d","hasRole(bytes32,address)":"91d14854","influenceRecruitment(bytes32,uint8,bytes32,bytes32,uint256,uint8)":"99d162c3","initialize(address,address,address,(uint256,uint256,uint256,uint256,uint256,uint256))":"16fc74ed","isInfluenceActive(address)":"cf1f24ae","isRecruitmentActive(address)":"82674006","maxInfluences(uint256)":"39486958","onERC721Received(address,address,uint256,bytes)":"150b7a02","owner()":"8da5cb5b","pendingOwner()":"e30c3978","proxiableUUID()":"52d1902d","randomFromSignature(bytes32,uint8,bytes32,bytes32)":"303a6fbe","randomSigner()":"1cc27366","recruitmentCycleId()":"57b28659","recruitmentCycleUniqueMints(uint256,address,uint256,uint8)":"f376be80","recruitmentCycles(uint256)":"34485075","recruitments(address,uint256)":"d9144d48","renounceOwnership()":"715018a6","renounceRole(bytes32,address)":"36568abe","resetRecruitment(address,uint256,uint256,uint256)":"7671afc0","revokeRole(bytes32,address)":"d547741f","s1Badges()":"e67dfb65","s2Badges()":"809b78cb","setConfig((uint256,uint256,uint256,uint256,uint256,uint256))":"39890988","setS2BadgesContract(address)":"86185c17","startRecruitment(address,uint256)":"57663978","startRecruitment(address,uint256,uint256)":"a6471ecf","startRecruitment(bytes32,uint8,bytes32,bytes32,uint256)":"3610a415","startRecruitment(bytes32,uint8,bytes32,bytes32,uint256,uint256)":"47e84ad0","supportsInterface(bytes4)":"01ffc9a7","transferOwnership(address)":"f2fde38b","upgradeToAndCall(address,bytes)":"4f1ef286","userExperience(address)":"3c9e0050","version()":"54fd4d50"},"storageLayout":{"storage":[{"astId":4267,"contract":"contracts/trailblazers-season-2/BadgeRecruitmentV2.sol:BadgeRecruitmentV2","label":"s1Badges","offset":0,"slot":"0","type":"t_contract(TrailblazersBadgesV4)6648"},{"astId":4277,"contract":"contracts/trailblazers-season-2/BadgeRecruitmentV2.sol:BadgeRecruitmentV2","label":"s2Badges","offset":0,"slot":"1","type":"t_contract(TrailblazersBadgesS2)6514"},{"astId":4280,"contract":"contracts/trailblazers-season-2/BadgeRecruitmentV2.sol:BadgeRecruitmentV2","label":"randomSigner","offset":0,"slot":"2","type":"t_address"},{"astId":4283,"contract":"contracts/trailblazers-season-2/BadgeRecruitmentV2.sol:BadgeRecruitmentV2","label":"recruitmentCycleId","offset":0,"slot":"3","type":"t_uint256"},{"astId":4295,"contract":"contracts/trailblazers-season-2/BadgeRecruitmentV2.sol:BadgeRecruitmentV2","label":"recruitmentCycleUniqueMints","offset":0,"slot":"4","type":"t_mapping(t_uint256,t_mapping(t_address,t_mapping(t_uint256,t_mapping(t_enum(RecruitmentType)4310,t_bool))))"},{"astId":4300,"contract":"contracts/trailblazers-season-2/BadgeRecruitmentV2.sol:BadgeRecruitmentV2","label":"userExperience","offset":0,"slot":"5","type":"t_mapping(t_address,t_uint256)"},{"astId":4334,"contract":"contracts/trailblazers-season-2/BadgeRecruitmentV2.sol:BadgeRecruitmentV2","label":"config","offset":0,"slot":"6","type":"t_struct(Config)4330_storage"},{"astId":4371,"contract":"contracts/trailblazers-season-2/BadgeRecruitmentV2.sol:BadgeRecruitmentV2","label":"recruitmentCycles","offset":0,"slot":"12","type":"t_mapping(t_uint256,t_struct(RecruitmentCycle)4365_storage)"},{"astId":4378,"contract":"contracts/trailblazers-season-2/BadgeRecruitmentV2.sol:BadgeRecruitmentV2","label":"recruitments","offset":0,"slot":"13","type":"t_mapping(t_address,t_array(t_struct(Recruitment)4354_storage)dyn_storage)"},{"astId":4383,"contract":"contracts/trailblazers-season-2/BadgeRecruitmentV2.sol:BadgeRecruitmentV2","label":"__gap","offset":0,"slot":"14","type":"t_array(t_uint256)43_storage"}],"types":{"t_address":{"encoding":"inplace","label":"address","numberOfBytes":"20"},"t_array(t_struct(Recruitment)4354_storage)dyn_storage":{"encoding":"dynamic_array","label":"struct BadgeRecruitment.Recruitment[]","numberOfBytes":"32","base":"t_struct(Recruitment)4354_storage"},"t_array(t_uint256)43_storage":{"encoding":"inplace","label":"uint256[43]","numberOfBytes":"1376","base":"t_uint256"},"t_array(t_uint256)dyn_storage":{"encoding":"dynamic_array","label":"uint256[]","numberOfBytes":"32","base":"t_uint256"},"t_bool":{"encoding":"inplace","label":"bool","numberOfBytes":"1"},"t_contract(TrailblazersBadgesS2)6514":{"encoding":"inplace","label":"contract TrailblazersBadgesS2","numberOfBytes":"20"},"t_contract(TrailblazersBadgesV4)6648":{"encoding":"inplace","label":"contract TrailblazersBadgesV4","numberOfBytes":"20"},"t_enum(RecruitmentType)4310":{"encoding":"inplace","label":"enum BadgeRecruitment.RecruitmentType","numberOfBytes":"1"},"t_mapping(t_address,t_array(t_struct(Recruitment)4354_storage)dyn_storage)":{"encoding":"mapping","key":"t_address","label":"mapping(address => struct BadgeRecruitment.Recruitment[])","numberOfBytes":"32","value":"t_array(t_struct(Recruitment)4354_storage)dyn_storage"},"t_mapping(t_address,t_mapping(t_uint256,t_mapping(t_enum(RecruitmentType)4310,t_bool)))":{"encoding":"mapping","key":"t_address","label":"mapping(address => mapping(uint256 => mapping(enum BadgeRecruitment.RecruitmentType => bool)))","numberOfBytes":"32","value":"t_mapping(t_uint256,t_mapping(t_enum(RecruitmentType)4310,t_bool))"},"t_mapping(t_address,t_uint256)":{"encoding":"mapping","key":"t_address","label":"mapping(address => uint256)","numberOfBytes":"32","value":"t_uint256"},"t_mapping(t_enum(RecruitmentType)4310,t_bool)":{"encoding":"mapping","key":"t_enum(RecruitmentType)4310","label":"mapping(enum BadgeRecruitment.RecruitmentType => bool)","numberOfBytes":"32","value":"t_bool"},"t_mapping(t_uint256,t_mapping(t_address,t_mapping(t_uint256,t_mapping(t_enum(RecruitmentType)4310,t_bool))))":{"encoding":"mapping","key":"t_uint256","label":"mapping(uint256 => mapping(address => mapping(uint256 => mapping(enum BadgeRecruitment.RecruitmentType => bool))))","numberOfBytes":"32","value":"t_mapping(t_address,t_mapping(t_uint256,t_mapping(t_enum(RecruitmentType)4310,t_bool)))"},"t_mapping(t_uint256,t_mapping(t_enum(RecruitmentType)4310,t_bool))":{"encoding":"mapping","key":"t_uint256","label":"mapping(uint256 => mapping(enum BadgeRecruitment.RecruitmentType => bool))","numberOfBytes":"32","value":"t_mapping(t_enum(RecruitmentType)4310,t_bool)"},"t_mapping(t_uint256,t_struct(RecruitmentCycle)4365_storage)":{"encoding":"mapping","key":"t_uint256","label":"mapping(uint256 => struct BadgeRecruitment.RecruitmentCycle)","numberOfBytes":"32","value":"t_struct(RecruitmentCycle)4365_storage"},"t_struct(Config)4330_storage":{"encoding":"inplace","label":"struct BadgeRecruitment.Config","numberOfBytes":"192","members":[{"astId":4319,"contract":"contracts/trailblazers-season-2/BadgeRecruitmentV2.sol:BadgeRecruitmentV2","label":"cooldownRecruitment","offset":0,"slot":"0","type":"t_uint256"},{"astId":4321,"contract":"contracts/trailblazers-season-2/BadgeRecruitmentV2.sol:BadgeRecruitmentV2","label":"cooldownInfluence","offset":0,"slot":"1","type":"t_uint256"},{"astId":4323,"contract":"contracts/trailblazers-season-2/BadgeRecruitmentV2.sol:BadgeRecruitmentV2","label":"influenceWeightPercent","offset":0,"slot":"2","type":"t_uint256"},{"astId":4325,"contract":"contracts/trailblazers-season-2/BadgeRecruitmentV2.sol:BadgeRecruitmentV2","label":"baseMaxInfluences","offset":0,"slot":"3","type":"t_uint256"},{"astId":4327,"contract":"contracts/trailblazers-season-2/BadgeRecruitmentV2.sol:BadgeRecruitmentV2","label":"maxInfluencesDivider","offset":0,"slot":"4","type":"t_uint256"},{"astId":4329,"contract":"contracts/trailblazers-season-2/BadgeRecruitmentV2.sol:BadgeRecruitmentV2","label":"defaultCycleDuration","offset":0,"slot":"5","type":"t_uint256"}]},"t_struct(Recruitment)4354_storage":{"encoding":"inplace","label":"struct BadgeRecruitment.Recruitment","numberOfBytes":"288","members":[{"astId":4337,"contract":"contracts/trailblazers-season-2/BadgeRecruitmentV2.sol:BadgeRecruitmentV2","label":"recruitmentCycle","offset":0,"slot":"0","type":"t_uint256"},{"astId":4339,"contract":"contracts/trailblazers-season-2/BadgeRecruitmentV2.sol:BadgeRecruitmentV2","label":"user","offset":0,"slot":"1","type":"t_address"},{"astId":4341,"contract":"contracts/trailblazers-season-2/BadgeRecruitmentV2.sol:BadgeRecruitmentV2","label":"s1BadgeId","offset":0,"slot":"2","type":"t_uint256"},{"astId":4343,"contract":"contracts/trailblazers-season-2/BadgeRecruitmentV2.sol:BadgeRecruitmentV2","label":"s1TokenId","offset":0,"slot":"3","type":"t_uint256"},{"astId":4345,"contract":"contracts/trailblazers-season-2/BadgeRecruitmentV2.sol:BadgeRecruitmentV2","label":"s2TokenId","offset":0,"slot":"4","type":"t_uint256"},{"astId":4347,"contract":"contracts/trailblazers-season-2/BadgeRecruitmentV2.sol:BadgeRecruitmentV2","label":"cooldownExpiration","offset":0,"slot":"5","type":"t_uint256"},{"astId":4349,"contract":"contracts/trailblazers-season-2/BadgeRecruitmentV2.sol:BadgeRecruitmentV2","label":"influenceExpiration","offset":0,"slot":"6","type":"t_uint256"},{"astId":4351,"contract":"contracts/trailblazers-season-2/BadgeRecruitmentV2.sol:BadgeRecruitmentV2","label":"whaleInfluences","offset":0,"slot":"7","type":"t_uint256"},{"astId":4353,"contract":"contracts/trailblazers-season-2/BadgeRecruitmentV2.sol:BadgeRecruitmentV2","label":"minnowInfluences","offset":0,"slot":"8","type":"t_uint256"}]},"t_struct(RecruitmentCycle)4365_storage":{"encoding":"inplace","label":"struct BadgeRecruitment.RecruitmentCycle","numberOfBytes":"128","members":[{"astId":4357,"contract":"contracts/trailblazers-season-2/BadgeRecruitmentV2.sol:BadgeRecruitmentV2","label":"cycleId","offset":0,"slot":"0","type":"t_uint256"},{"astId":4359,"contract":"contracts/trailblazers-season-2/BadgeRecruitmentV2.sol:BadgeRecruitmentV2","label":"startTime","offset":0,"slot":"1","type":"t_uint256"},{"astId":4361,"contract":"contracts/trailblazers-season-2/BadgeRecruitmentV2.sol:BadgeRecruitmentV2","label":"endTime","offset":0,"slot":"2","type":"t_uint256"},{"astId":4364,"contract":"contracts/trailblazers-season-2/BadgeRecruitmentV2.sol:BadgeRecruitmentV2","label":"s1BadgeIds","offset":0,"slot":"3","type":"t_array(t_uint256)dyn_storage"}]},"t_uint256":{"encoding":"inplace","label":"uint256","numberOfBytes":"32"}}},"id":15}