{"abi":[{"type":"function","name":"UPGRADE_INTERFACE_VERSION","inputs":[],"outputs":[{"name":"","type":"string","internalType":"string"}],"stateMutability":"view"},{"type":"function","name":"acceptOwnership","inputs":[],"outputs":[],"stateMutability":"nonpayable"},{"type":"function","name":"approve","inputs":[{"name":"to","type":"address","internalType":"address"},{"name":"tokenId","type":"uint256","internalType":"uint256"}],"outputs":[],"stateMutability":"nonpayable"},{"type":"function","name":"balanceOf","inputs":[{"name":"owner","type":"address","internalType":"address"}],"outputs":[{"name":"","type":"uint256","internalType":"uint256"}],"stateMutability":"view"},{"type":"function","name":"baseURI","inputs":[],"outputs":[{"name":"","type":"string","internalType":"string"}],"stateMutability":"view"},{"type":"function","name":"blacklist","inputs":[],"outputs":[{"name":"","type":"address","internalType":"contract IMinimalBlacklist"}],"stateMutability":"view"},{"type":"function","name":"canMint","inputs":[{"name":"_minter","type":"address","internalType":"address"},{"name":"_maxMints","type":"uint256","internalType":"uint256"}],"outputs":[{"name":"","type":"bool","internalType":"bool"}],"stateMutability":"view"},{"type":"function","name":"getApproved","inputs":[{"name":"tokenId","type":"uint256","internalType":"uint256"}],"outputs":[{"name":"","type":"address","internalType":"address"}],"stateMutability":"view"},{"type":"function","name":"initialize","inputs":[{"name":"_owner","type":"address","internalType":"address"},{"name":"_root","type":"bytes32","internalType":"bytes32"},{"name":"_blacklist","type":"address","internalType":"contract IMinimalBlacklist"}],"outputs":[],"stateMutability":"nonpayable"},{"type":"function","name":"initialize","inputs":[{"name":"_owner","type":"address","internalType":"address"},{"name":"_rootURI","type":"string","internalType":"string"},{"name":"_merkleRoot","type":"bytes32","internalType":"bytes32"},{"name":"_blacklistAddress","type":"address","internalType":"contract IMinimalBlacklist"}],"outputs":[],"stateMutability":"nonpayable"},{"type":"function","name":"isApprovedForAll","inputs":[{"name":"owner","type":"address","internalType":"address"},{"name":"operator","type":"address","internalType":"address"}],"outputs":[{"name":"","type":"bool","internalType":"bool"}],"stateMutability":"view"},{"type":"function","name":"leaf","inputs":[{"name":"_minter","type":"address","internalType":"address"},{"name":"_maxMints","type":"uint256","internalType":"uint256"}],"outputs":[{"name":"","type":"bytes32","internalType":"bytes32"}],"stateMutability":"pure"},{"type":"function","name":"mint","inputs":[{"name":"_to","type":"address","internalType":"address"},{"name":"_amount","type":"uint256","internalType":"uint256"}],"outputs":[{"name":"","type":"uint256[]","internalType":"uint256[]"}],"stateMutability":"nonpayable"},{"type":"function","name":"mint","inputs":[{"name":"_proof","type":"bytes32[]","internalType":"bytes32[]"},{"name":"_maxMints","type":"uint256","internalType":"uint256"}],"outputs":[{"name":"","type":"uint256[]","internalType":"uint256[]"}],"stateMutability":"nonpayable"},{"type":"function","name":"minted","inputs":[{"name":"leaf","type":"bytes32","internalType":"bytes32"}],"outputs":[{"name":"hasMinted","type":"bool","internalType":"bool"}],"stateMutability":"view"},{"type":"function","name":"name","inputs":[],"outputs":[{"name":"","type":"string","internalType":"string"}],"stateMutability":"view"},{"type":"function","name":"owner","inputs":[],"outputs":[{"name":"","type":"address","internalType":"address"}],"stateMutability":"view"},{"type":"function","name":"ownerOf","inputs":[{"name":"tokenId","type":"uint256","internalType":"uint256"}],"outputs":[{"name":"","type":"address","internalType":"address"}],"stateMutability":"view"},{"type":"function","name":"pendingOwner","inputs":[],"outputs":[{"name":"","type":"address","internalType":"address"}],"stateMutability":"view"},{"type":"function","name":"proxiableUUID","inputs":[],"outputs":[{"name":"","type":"bytes32","internalType":"bytes32"}],"stateMutability":"view"},{"type":"function","name":"renounceOwnership","inputs":[],"outputs":[],"stateMutability":"nonpayable"},{"type":"function","name":"root","inputs":[],"outputs":[{"name":"","type":"bytes32","internalType":"bytes32"}],"stateMutability":"view"},{"type":"function","name":"safeTransferFrom","inputs":[{"name":"from","type":"address","internalType":"address"},{"name":"to","type":"address","internalType":"address"},{"name":"tokenId","type":"uint256","internalType":"uint256"}],"outputs":[],"stateMutability":"nonpayable"},{"type":"function","name":"safeTransferFrom","inputs":[{"name":"from","type":"address","internalType":"address"},{"name":"to","type":"address","internalType":"address"},{"name":"tokenId","type":"uint256","internalType":"uint256"},{"name":"data","type":"bytes","internalType":"bytes"}],"outputs":[],"stateMutability":"nonpayable"},{"type":"function","name":"setApprovalForAll","inputs":[{"name":"operator","type":"address","internalType":"address"},{"name":"approved","type":"bool","internalType":"bool"}],"outputs":[],"stateMutability":"nonpayable"},{"type":"function","name":"supportsInterface","inputs":[{"name":"interfaceId","type":"bytes4","internalType":"bytes4"}],"outputs":[{"name":"","type":"bool","internalType":"bool"}],"stateMutability":"view"},{"type":"function","name":"symbol","inputs":[],"outputs":[{"name":"","type":"string","internalType":"string"}],"stateMutability":"view"},{"type":"function","name":"tokenByIndex","inputs":[{"name":"index","type":"uint256","internalType":"uint256"}],"outputs":[{"name":"","type":"uint256","internalType":"uint256"}],"stateMutability":"view"},{"type":"function","name":"tokenOfOwnerByIndex","inputs":[{"name":"owner","type":"address","internalType":"address"},{"name":"index","type":"uint256","internalType":"uint256"}],"outputs":[{"name":"","type":"uint256","internalType":"uint256"}],"stateMutability":"view"},{"type":"function","name":"tokenURI","inputs":[{"name":"","type":"uint256","internalType":"uint256"}],"outputs":[{"name":"","type":"string","internalType":"string"}],"stateMutability":"view"},{"type":"function","name":"totalSupply","inputs":[],"outputs":[{"name":"","type":"uint256","internalType":"uint256"}],"stateMutability":"view"},{"type":"function","name":"transferFrom","inputs":[{"name":"from","type":"address","internalType":"address"},{"name":"to","type":"address","internalType":"address"},{"name":"tokenId","type":"uint256","internalType":"uint256"}],"outputs":[],"stateMutability":"nonpayable"},{"type":"function","name":"transferOwnership","inputs":[{"name":"newOwner","type":"address","internalType":"address"}],"outputs":[],"stateMutability":"nonpayable"},{"type":"function","name":"updateBaseURI","inputs":[{"name":"_rootURI","type":"string","internalType":"string"}],"outputs":[],"stateMutability":"nonpayable"},{"type":"function","name":"updateBlacklist","inputs":[{"name":"_blacklist","type":"address","internalType":"contract IMinimalBlacklist"}],"outputs":[],"stateMutability":"nonpayable"},{"type":"function","name":"updateRoot","inputs":[{"name":"_root","type":"bytes32","internalType":"bytes32"}],"outputs":[],"stateMutability":"nonpayable"},{"type":"function","name":"upgradeToAndCall","inputs":[{"name":"newImplementation","type":"address","internalType":"address"},{"name":"data","type":"bytes","internalType":"bytes"}],"outputs":[],"stateMutability":"payable"},{"type":"event","name":"Approval","inputs":[{"name":"owner","type":"address","indexed":true,"internalType":"address"},{"name":"approved","type":"address","indexed":true,"internalType":"address"},{"name":"tokenId","type":"uint256","indexed":true,"internalType":"uint256"}],"anonymous":false},{"type":"event","name":"ApprovalForAll","inputs":[{"name":"owner","type":"address","indexed":true,"internalType":"address"},{"name":"operator","type":"address","indexed":true,"internalType":"address"},{"name":"approved","type":"bool","indexed":false,"internalType":"bool"}],"anonymous":false},{"type":"event","name":"BlacklistUpdated","inputs":[{"name":"_blacklist","type":"address","indexed":false,"internalType":"address"}],"anonymous":false},{"type":"event","name":"Initialized","inputs":[{"name":"version","type":"uint64","indexed":false,"internalType":"uint64"}],"anonymous":false},{"type":"event","name":"MintConsumed","inputs":[{"name":"_minter","type":"address","indexed":false,"internalType":"address"},{"name":"_mintAmount","type":"uint256","indexed":false,"internalType":"uint256"}],"anonymous":false},{"type":"event","name":"OwnershipTransferStarted","inputs":[{"name":"previousOwner","type":"address","indexed":true,"internalType":"address"},{"name":"newOwner","type":"address","indexed":true,"internalType":"address"}],"anonymous":false},{"type":"event","name":"OwnershipTransferred","inputs":[{"name":"previousOwner","type":"address","indexed":true,"internalType":"address"},{"name":"newOwner","type":"address","indexed":true,"internalType":"address"}],"anonymous":false},{"type":"event","name":"RootUpdated","inputs":[{"name":"_root","type":"bytes32","indexed":false,"internalType":"bytes32"}],"anonymous":false},{"type":"event","name":"Transfer","inputs":[{"name":"from","type":"address","indexed":true,"internalType":"address"},{"name":"to","type":"address","indexed":true,"internalType":"address"},{"name":"tokenId","type":"uint256","indexed":true,"internalType":"uint256"}],"anonymous":false},{"type":"event","name":"Upgraded","inputs":[{"name":"implementation","type":"address","indexed":true,"internalType":"address"}],"anonymous":false},{"type":"error","name":"ADDRESS_BLACKLISTED","inputs":[]},{"type":"error","name":"AddressEmptyCode","inputs":[{"name":"target","type":"address","internalType":"address"}]},{"type":"error","name":"ERC1967InvalidImplementation","inputs":[{"name":"implementation","type":"address","internalType":"address"}]},{"type":"error","name":"ERC1967NonPayable","inputs":[]},{"type":"error","name":"ERC721EnumerableForbiddenBatchMint","inputs":[]},{"type":"error","name":"ERC721IncorrectOwner","inputs":[{"name":"sender","type":"address","internalType":"address"},{"name":"tokenId","type":"uint256","internalType":"uint256"},{"name":"owner","type":"address","internalType":"address"}]},{"type":"error","name":"ERC721InsufficientApproval","inputs":[{"name":"operator","type":"address","internalType":"address"},{"name":"tokenId","type":"uint256","internalType":"uint256"}]},{"type":"error","name":"ERC721InvalidApprover","inputs":[{"name":"approver","type":"address","internalType":"address"}]},{"type":"error","name":"ERC721InvalidOperator","inputs":[{"name":"operator","type":"address","internalType":"address"}]},{"type":"error","name":"ERC721InvalidOwner","inputs":[{"name":"owner","type":"address","internalType":"address"}]},{"type":"error","name":"ERC721InvalidReceiver","inputs":[{"name":"receiver","type":"address","internalType":"address"}]},{"type":"error","name":"ERC721InvalidSender","inputs":[{"name":"sender","type":"address","internalType":"address"}]},{"type":"error","name":"ERC721NonexistentToken","inputs":[{"name":"tokenId","type":"uint256","internalType":"uint256"}]},{"type":"error","name":"ERC721OutOfBoundsIndex","inputs":[{"name":"owner","type":"address","internalType":"address"},{"name":"index","type":"uint256","internalType":"uint256"}]},{"type":"error","name":"FailedInnerCall","inputs":[]},{"type":"error","name":"INVALID_PROOF","inputs":[]},{"type":"error","name":"INVALID_TOKEN_AMOUNT","inputs":[]},{"type":"error","name":"InvalidInitialization","inputs":[]},{"type":"error","name":"MAX_MINTS_EXCEEDED","inputs":[]},{"type":"error","name":"MAX_SUPPLY_REACHED","inputs":[]},{"type":"error","name":"MINTER_NOT_WHITELISTED","inputs":[]},{"type":"error","name":"MINTS_EXCEEDED","inputs":[]},{"type":"error","name":"NotInitializing","inputs":[]},{"type":"error","name":"OwnableInvalidOwner","inputs":[{"name":"owner","type":"address","internalType":"address"}]},{"type":"error","name":"OwnableUnauthorizedAccount","inputs":[{"name":"account","type":"address","internalType":"address"}]},{"type":"error","name":"TOKEN_CANNOT_BE_TRANSFERRED","inputs":[]},{"type":"error","name":"TOKEN_NOT_MINTED","inputs":[]},{"type":"error","name":"UUPSUnauthorizedCallContext","inputs":[]},{"type":"error","name":"UUPSUnsupportedProxiableUUID","inputs":[{"name":"slot","type":"bytes32","internalType":"bytes32"}]}],"bytecode":{"object":"0x60a06040523060805234801562000014575f80fd5b506200001f62000025565b620000d9565b7ff0c57e16840df040f15088dc2f81fe391c3923bec73e23a9662efc9c229c6a00805468010000000000000000900460ff1615620000765760405163f92ee8a960e01b815260040160405180910390fd5b80546001600160401b0390811614620000d65780546001600160401b0319166001600160401b0390811782556040519081527fc7f505b2f371ae2175ee4913f4499e1f2633a7b5936321eed1cdaeb6115181d29060200160405180910390a15b50565b608051612966620001005f395f81816113710152818161139a01526114d901526129665ff3fe608060405260043610610212575f3560e01c806370a082311161011e578063ad3cb1cc116100a8578063e30c39781161006d578063e30c397814610605578063e985e9c514610619578063ebf0c71714610638578063eec8eca11461064c578063f2fde38b1461066b575f80fd5b8063ad3cb1cc14610559578063b88d4fde14610589578063c87b56dd146105a8578063d26b3e6e146105c7578063d83b2bf8146105e6575f80fd5b80638da5cb5b116100ee5780638da5cb5b146104d4578063931688cb146104e857806395d89b4114610507578063a22cb4651461051b578063a4b5fa561461053a575f80fd5b806370a082311461045f578063715018a61461047e57806379ba5097146104925780638ccc5f80146104a6575f80fd5b8063378b57041161019f5780634f1ef2861161016f5780634f1ef286146103e65780634f6ccce7146103f957806352d1902d146104185780636352211e1461042c5780636c0360eb1461044b575f80fd5b8063378b57041461035d57806340c10f191461037c57806342842e0e146103a857806345de0d9b146103c7575f80fd5b80630d5e34a4116101e55780630d5e34a4146102c357806318160ddd146102e257806321ff99701461030057806323b872dd1461031f5780632f745c591461033e575f80fd5b806301ffc9a71461021657806306fdde031461024a578063081812fc1461026b578063095ea7b3146102a2575b5f80fd5b348015610221575f80fd5b506102356102303660046121f6565b61068a565b60405190151581526020015b60405180910390f35b348015610255575f80fd5b5061025e6106b4565b604051610241919061225e565b348015610276575f80fd5b5061028a610285366004612270565b610755565b6040516001600160a01b039091168152602001610241565b3480156102ad575f80fd5b506102c16102bc36600461229b565b610769565b005b3480156102ce575f80fd5b506102356102dd36600461229b565b610778565b3480156102ed575f80fd5b506033545b604051908152602001610241565b34801561030b575f80fd5b506102c161031a366004612270565b610827565b34801561032a575f80fd5b506102c16103393660046122c5565b61083b565b348015610349575f80fd5b506102f261035836600461229b565b6108c9565b348015610368575f80fd5b506102c1610377366004612303565b61093a565b348015610387575f80fd5b5061039b61039636600461229b565b610997565b604051610241919061231e565b3480156103b3575f80fd5b506102c16103c23660046122c5565b6109b2565b3480156103d2575f80fd5b5061039b6103e1366004612361565b6109d1565b6102c16103f4366004612470565b610a17565b348015610404575f80fd5b506102f2610413366004612270565b610a32565b348015610423575f80fd5b506102f2610a94565b348015610437575f80fd5b5061028a610446366004612270565b610aaf565b348015610456575f80fd5b5061025e610ab9565b34801561046a575f80fd5b506102f2610479366004612303565b610b49565b348015610489575f80fd5b506102c1610ba1565b34801561049d575f80fd5b506102c1610bb4565b3480156104b1575f80fd5b506102356104c0366004612270565b60016020525f908152604090205460ff1681565b3480156104df575f80fd5b5061028a610bf9565b3480156104f3575f80fd5b506102c16105023660046124bc565b610c2d565b348015610512575f80fd5b5061025e610c41565b348015610526575f80fd5b506102c16105353660046124fa565b610c7f565b348015610545575f80fd5b5060025461028a906001600160a01b031681565b348015610564575f80fd5b5061025e604051806040016040528060058152602001640352e302e360dc1b81525081565b348015610594575f80fd5b506102c16105a3366004612531565b610c8a565b3480156105b3575f80fd5b5061025e6105c2366004612270565b610ca1565b3480156105d2575f80fd5b506102c16105e1366004612598565b610cab565b3480156105f1575f80fd5b506102f261060036600461229b565b610da9565b348015610610575f80fd5b5061028a610e02565b348015610624575f80fd5b506102356106333660046125d7565b610e2a565b348015610643575f80fd5b506102f25f5481565b348015610657575f80fd5b506102c1610666366004612603565b610e76565b348015610676575f80fd5b506102c1610685366004612303565b610fcb565b5f6001600160e01b0319821663780e9d6360e01b14806106ae57506106ae82611050565b92915050565b5f805160206128d183398151915280546060919081906106d39061266a565b80601f01602080910402602001604051908101604052809291908181526020018280546106ff9061266a565b801561074a5780601f106107215761010080835404028352916020019161074a565b820191905f5260205f20905b81548152906001019060200180831161072d57829003601f168201915b505050505091505090565b5f61075f8261109f565b506106ae826110d6565b61077482823361110f565b5050565b60025460405163fe575a8760e01b81526001600160a01b0384811660048301525f92169063fe575a8790602401602060405180830381865afa1580156107c0573d5f803e3d5ffd5b505050506040513d601f19601f820116820180604052508101906107e491906126a2565b1561080257604051637874e36360e01b815260040160405180910390fd5b5f61080d8484610da9565b5f9081526001602052604090205460ff1615949350505050565b61082f61111c565b6108388161114e565b50565b6001600160a01b03821661086957604051633250574960e11b81525f60048201526024015b60405180910390fd5b5f610875838333611182565b9050836001600160a01b0316816001600160a01b0316146108c3576040516364283d7b60e01b81526001600160a01b0380861660048301526024820184905282166044820152606401610860565b50505050565b5f5f805160206128b18339815191526108e184610b49565b83106109125760405163295f44f760e21b81526001600160a01b038516600482015260248101849052604401610860565b6001600160a01b0384165f908152602091825260408082208583529092522054905092915050565b61094261111c565b600280546001600160a01b0319166001600160a01b0383169081179091556040519081527f75cdf6842d867a09260947ac775619527788d913a79fc3b41da1815fa377af65906020015b60405180910390a150565b60606109a161111c565b6109ab83836111bf565b9392505050565b6109cc83838360405180602001604052805f815250610c8a565b505050565b60606109dd3383610778565b6109fa57604051632121afc960e21b815260040160405180910390fd5b610a05848484611273565b610a0f33836111bf565b949350505050565b610a1f611366565b610a288261140a565b6107748282611412565b6033545f905f805160206128b1833981519152908310610a6e5760405163295f44f760e21b81525f600482015260248101849052604401610860565b806002018381548110610a8357610a836126bd565b905f5260205f200154915050919050565b5f610a9d6114ce565b505f805160206128f183398151915290565b5f6106ae8261109f565b606060348054610ac89061266a565b80601f0160208091040260200160405190810160405280929190818152602001828054610af49061266a565b8015610b3f5780601f10610b1657610100808354040283529160200191610b3f565b820191905f5260205f20905b815481529060010190602001808311610b2257829003601f168201915b5050505050905090565b5f5f805160206128d18339815191526001600160a01b038316610b81576040516322718ad960e21b81525f6004820152602401610860565b6001600160a01b039092165f908152600390920160205250604090205490565b610ba961111c565b610bb25f611517565b565b3380610bbe610e02565b6001600160a01b031614610bf05760405163118cdaa760e01b81526001600160a01b0382166004820152602401610860565b61083881611517565b5f807f9016d09d72d40fdae2fd8ceac6b6234c7706214fd39c1cd1e609a0528c1993005b546001600160a01b031692915050565b610c3561111c565b60346107748282612715565b7f80bb2b638cc20bc4d0a60d66940f3ab4a00c1d7b313497ca82fb0b4ab007930180546060915f805160206128d1833981519152916106d39061266a565b61077433838361154f565b610c9584848461083b565b6108c3848484846115fe565b60606106ae610ab9565b5f805160206129118339815191528054600160401b810460ff1615906001600160401b03165f81158015610cdc5750825b90505f826001600160401b03166001148015610cf75750303b155b905081158015610d05575080155b15610d235760405163f92ee8a960e01b815260040160405180910390fd5b845467ffffffffffffffff191660011785558315610d4d57845460ff60401b1916600160401b1785555b610d58888888611724565b8315610d9f57845460ff60401b19168555604051600181527fc7f505b2f371ae2175ee4913f4499e1f2633a7b5936321eed1cdaeb6115181d2906020015b60405180910390a15b5050505050505050565b604080516001600160a01b03841660208201529081018290525f9060600160408051601f198184030181528282528051602091820120908301520160405160208183030381529060405280519060200120905092915050565b5f807f237e158222e3e6968b72b9db0d8043aacf074ad9f650f0d1606b4d82ee432c00610c1d565b6001600160a01b039182165f9081527f80bb2b638cc20bc4d0a60d66940f3ab4a00c1d7b313497ca82fb0b4ab00793056020908152604080832093909416825291909152205460ff1690565b5f805160206129118339815191528054600160401b810460ff1615906001600160401b03165f81158015610ea75750825b90505f826001600160401b03166001148015610ec25750303b155b905081158015610ed0575080155b15610eee5760405163f92ee8a960e01b815260040160405180910390fd5b845467ffffffffffffffff191660011785558315610f1857845460ff60401b1916600160401b1785555b610f626040518060400160405280600d81526020016c29b730b2b332b6362a37b5b2b760991b8152506040518060400160405280600381526020016229a72360e91b81525061184d565b610f6d898888611724565b6034610f798982612715565b508315610fc057845460ff60401b19168555604051600181527fc7f505b2f371ae2175ee4913f4499e1f2633a7b5936321eed1cdaeb6115181d29060200160405180910390a15b505050505050505050565b610fd361111c565b7f237e158222e3e6968b72b9db0d8043aacf074ad9f650f0d1606b4d82ee432c0080546001600160a01b0319166001600160a01b0383169081178255611017610bf9565b6001600160a01b03167f38d16b8cac22d99fc7c124b9cd0de2d3fa1faef420bfe791d8c362d765e2270060405160405180910390a35050565b5f6001600160e01b031982166380ac58cd60e01b148061108057506001600160e01b03198216635b5e139f60e01b145b806106ae57506301ffc9a760e01b6001600160e01b03198316146106ae565b5f806110aa8361185f565b90506001600160a01b0381166106ae57604051637e27328960e01b815260048101849052602401610860565b5f9081527f80bb2b638cc20bc4d0a60d66940f3ab4a00c1d7b313497ca82fb0b4ab007930460205260409020546001600160a01b031690565b6109cc8383836001611898565b33611125610bf9565b6001600160a01b031614610bb25760405163118cdaa760e01b8152336004820152602401610860565b5f8190556040518181527f2cbc14f49c068133583f7cb530018af451c87c1cf1327cf2a4ff4698c4730aa49060200161098c565b5f8061118d8461185f565b6001600160a01b0316146111b457604051633871b24760e01b815260040160405180910390fd5b610a0f8484846119ab565b6060816001600160401b038111156111d9576111d96123d4565b604051908082528060200260200182016040528015611202578160200160208202803683370190505b5090505f5b8281101561126c5760335f815461121d906127e8565b919050819055828281518110611235576112356126bd565b60200260200101818152505061126484838381518110611257576112576126bd565b6020026020010151611ab4565b600101611207565b5092915050565b61127d3382610778565b61129a57604051639ea134e960e01b815260040160405180910390fd5b5f6112a53383610da9565b90506112e58484808060200260200160405190810160405280939291908181526020018383602002808284375f920182905250549250859150611b159050565b6113025760405163712eb08760e01b815260040160405180910390fd5b5f818152600160208190526040909120805460ff191690911790557ff71d0afb6ca23454b34db8bf7baf45f79e8c2f41e5499375ea2289312b2d317b33604080516001600160a01b039092168252602082018590520160405180910390a150505050565b306001600160a01b037f00000000000000000000000000000000000000000000000000000000000000001614806113ec57507f00000000000000000000000000000000000000000000000000000000000000006001600160a01b03166113e05f805160206128f1833981519152546001600160a01b031690565b6001600160a01b031614155b15610bb25760405163703e46dd60e11b815260040160405180910390fd5b61083861111c565b816001600160a01b03166352d1902d6040518163ffffffff1660e01b8152600401602060405180830381865afa92505050801561146c575060408051601f3d908101601f1916820190925261146991810190612800565b60015b61149457604051634c9c8ce360e01b81526001600160a01b0383166004820152602401610860565b5f805160206128f183398151915281146114c457604051632a87526960e21b815260048101829052602401610860565b6109cc8383611b2a565b306001600160a01b037f00000000000000000000000000000000000000000000000000000000000000001614610bb25760405163703e46dd60e11b815260040160405180910390fd5b7f237e158222e3e6968b72b9db0d8043aacf074ad9f650f0d1606b4d82ee432c0080546001600160a01b031916815561077482611b7f565b5f805160206128d18339815191526001600160a01b03831661158f57604051630b61174360e31b81526001600160a01b0384166004820152602401610860565b6001600160a01b038481165f818152600584016020908152604080832094881680845294825291829020805460ff191687151590811790915591519182527f17307eab39ab6107e8899845ad3d59bd9653f200f220920489ca2b5937696c31910160405180910390a350505050565b6001600160a01b0383163b156108c357604051630a85bd0160e11b81526001600160a01b0384169063150b7a0290611640903390889087908790600401612817565b6020604051808303815f875af192505050801561167a575060408051601f3d908101601f1916820190925261167791810190612853565b60015b6116e1573d8080156116a7576040519150601f19603f3d011682016040523d82523d5f602084013e6116ac565b606091505b5080515f036116d957604051633250574960e11b81526001600160a01b0385166004820152602401610860565b805181602001fd5b6001600160e01b03198116630a85bd0160e11b1461171d57604051633250574960e11b81526001600160a01b0385166004820152602401610860565b5050505050565b5f805160206129118339815191528054600160401b810460ff1615906001600160401b03165f811580156117555750825b90505f826001600160401b031660011480156117705750303b155b90508115801561177e575080155b1561179c5760405163f92ee8a960e01b815260040160405180910390fd5b845467ffffffffffffffff1916600117855583156117c657845460ff60401b1916600160401b1785555b6117e46001600160a01b038916156117de5788611517565b33611517565b6117ec611bef565b5f879055600280546001600160a01b0319166001600160a01b0388161790558315610d9f57845460ff60401b19168555604051600181527fc7f505b2f371ae2175ee4913f4499e1f2633a7b5936321eed1cdaeb6115181d290602001610d96565b611855611bf3565b6107748282611c29565b5f9081527f80bb2b638cc20bc4d0a60d66940f3ab4a00c1d7b313497ca82fb0b4ab007930260205260409020546001600160a01b031690565b5f805160206128d183398151915281806118ba57506001600160a01b03831615155b1561197b575f6118c98561109f565b90506001600160a01b038416158015906118f55750836001600160a01b0316816001600160a01b031614155b801561190857506119068185610e2a565b155b156119315760405163a9fbf51f60e01b81526001600160a01b0385166004820152602401610860565b82156119795784866001600160a01b0316826001600160a01b03167f8c5be1e5ebec7d5bd14f71427d1e84f3dd0314c0f7b2291e5b200ac8c7c3b92560405160405180910390a45b505b5f93845260040160205250506040902080546001600160a01b0319166001600160a01b0392909216919091179055565b5f806119b8858585611c59565b90506001600160a01b038116611a5257611a4d847f645e039705490088daad89bae25049a34f4a9072d398537b1ab2425f24cbed0280545f8381527f645e039705490088daad89bae25049a34f4a9072d398537b1ab2425f24cbed0360205260408120829055600182018355919091527fa42f15e5d656f8155fd7419d740a6073999f19cd6e061449ce4a257150545bf20155565b611a75565b846001600160a01b0316816001600160a01b031614611a7557611a758185611d5b565b6001600160a01b038516611a9157611a8c84611dfa565b610a0f565b846001600160a01b0316816001600160a01b031614610a0f57610a0f8585611eda565b6001600160a01b038216611add57604051633250574960e11b81525f6004820152602401610860565b5f611ae983835f611182565b90506001600160a01b038116156109cc576040516339e3563760e11b81525f6004820152602401610860565b5f82611b218584611f32565b14949350505050565b611b3382611f74565b6040516001600160a01b038316907fbc7cd75a20ee27fd9adebab32041f755214dbc6bffa90cc0225b39da2e5c2d3b905f90a2805115611b77576109cc8282611fd7565b610774612049565b7f9016d09d72d40fdae2fd8ceac6b6234c7706214fd39c1cd1e609a0528c19930080546001600160a01b031981166001600160a01b03848116918217845560405192169182907f8be0079c531659141344cd1fd0a4f28419497f9722a3daafe3b4186f6b6457e0905f90a3505050565b610bb25b5f8051602061291183398151915254600160401b900460ff16610bb257604051631afcd79f60e31b815260040160405180910390fd5b611c31611bf3565b5f805160206128d183398151915280611c4a8482612715565b50600181016108c38382612715565b5f5f805160206128d183398151915281611c728561185f565b90506001600160a01b03841615611c8e57611c8e818587612068565b6001600160a01b03811615611cca57611ca95f865f80611898565b6001600160a01b0381165f908152600383016020526040902080545f190190555b6001600160a01b03861615611cfa576001600160a01b0386165f9081526003830160205260409020805460010190555b5f85815260028301602052604080822080546001600160a01b0319166001600160a01b038a811691821790925591518893918516917fddf252ad1be2c89b69c2b068fc378daa952ba7f163c4a11628f55a4df523b3ef91a495945050505050565b5f805160206128b18339815191525f611d7384610b49565b5f848152600184016020526040902054909150808214611dc6576001600160a01b0385165f9081526020848152604080832085845282528083205484845281842081905583526001860190915290208190555b505f92835260018201602090815260408085208590556001600160a01b039095168452918252838320908352905290812055565b7f645e039705490088daad89bae25049a34f4a9072d398537b1ab2425f24cbed02545f805160206128b1833981519152905f90611e399060019061286e565b5f848152600384016020526040812054600285018054939450909284908110611e6457611e646126bd565b905f5260205f200154905080846002018381548110611e8557611e856126bd565b5f91825260208083209091019290925582815260038601909152604080822084905586825281205560028401805480611ec057611ec0612881565b600190038181905f5260205f20015f905590555050505050565b5f805160206128b18339815191525f6001611ef485610b49565b611efe919061286e565b6001600160a01b039094165f9081526020838152604080832087845282528083208690559482526001909301909252502055565b5f81815b8451811015611f6c57611f6282868381518110611f5557611f556126bd565b60200260200101516120cc565b9150600101611f36565b509392505050565b806001600160a01b03163b5f03611fa957604051634c9c8ce360e01b81526001600160a01b0382166004820152602401610860565b5f805160206128f183398151915280546001600160a01b0319166001600160a01b0392909216919091179055565b60605f80846001600160a01b031684604051611ff39190612895565b5f60405180830381855af49150503d805f811461202b576040519150601f19603f3d011682016040523d82523d5f602084013e612030565b606091505b50915091506120408583836120f8565b95945050505050565b3415610bb25760405163b398979f60e01b815260040160405180910390fd5b612073838383612154565b6109cc576001600160a01b0383166120a157604051637e27328960e01b815260048101829052602401610860565b60405163177e802f60e01b81526001600160a01b038316600482015260248101829052604401610860565b5f8183106120e6575f8281526020849052604090206109ab565b5f8381526020839052604090206109ab565b60608261210d57612108826121b8565b6109ab565b815115801561212457506001600160a01b0384163b155b1561214d57604051639996b31560e01b81526001600160a01b0385166004820152602401610860565b50806109ab565b5f6001600160a01b03831615801590610a0f5750826001600160a01b0316846001600160a01b0316148061218d575061218d8484610e2a565b80610a0f5750826001600160a01b03166121a6836110d6565b6001600160a01b031614949350505050565b8051156121c85780518082602001fd5b604051630a12f52160e11b815260040160405180910390fd5b6001600160e01b031981168114610838575f80fd5b5f60208284031215612206575f80fd5b81356109ab816121e1565b5f5b8381101561222b578181015183820152602001612213565b50505f910152565b5f815180845261224a816020860160208601612211565b601f01601f19169290920160200192915050565b602081525f6109ab6020830184612233565b5f60208284031215612280575f80fd5b5035919050565b6001600160a01b0381168114610838575f80fd5b5f80604083850312156122ac575f80fd5b82356122b781612287565b946020939093013593505050565b5f805f606084860312156122d7575f80fd5b83356122e281612287565b925060208401356122f281612287565b929592945050506040919091013590565b5f60208284031215612313575f80fd5b81356109ab81612287565b602080825282518282018190525f9190848201906040850190845b8181101561235557835183529284019291840191600101612339565b50909695505050505050565b5f805f60408486031215612373575f80fd5b83356001600160401b0380821115612389575f80fd5b818601915086601f83011261239c575f80fd5b8135818111156123aa575f80fd5b8760208260051b85010111156123be575f80fd5b6020928301989097509590910135949350505050565b634e487b7160e01b5f52604160045260245ffd5b5f82601f8301126123f7575f80fd5b81356001600160401b0380821115612411576124116123d4565b604051601f8301601f19908116603f01168101908282118183101715612439576124396123d4565b81604052838152866020858801011115612451575f80fd5b836020870160208301375f602085830101528094505050505092915050565b5f8060408385031215612481575f80fd5b823561248c81612287565b915060208301356001600160401b038111156124a6575f80fd5b6124b2858286016123e8565b9150509250929050565b5f602082840312156124cc575f80fd5b81356001600160401b038111156124e1575f80fd5b610a0f848285016123e8565b8015158114610838575f80fd5b5f806040838503121561250b575f80fd5b823561251681612287565b91506020830135612526816124ed565b809150509250929050565b5f805f8060808587031215612544575f80fd5b843561254f81612287565b9350602085013561255f81612287565b92506040850135915060608501356001600160401b03811115612580575f80fd5b61258c878288016123e8565b91505092959194509250565b5f805f606084860312156125aa575f80fd5b83356125b581612287565b92506020840135915060408401356125cc81612287565b809150509250925092565b5f80604083850312156125e8575f80fd5b82356125f381612287565b9150602083013561252681612287565b5f805f8060808587031215612616575f80fd5b843561262181612287565b935060208501356001600160401b0381111561263b575f80fd5b612647878288016123e8565b93505060408501359150606085013561265f81612287565b939692955090935050565b600181811c9082168061267e57607f821691505b60208210810361269c57634e487b7160e01b5f52602260045260245ffd5b50919050565b5f602082840312156126b2575f80fd5b81516109ab816124ed565b634e487b7160e01b5f52603260045260245ffd5b601f8211156109cc57805f5260205f20601f840160051c810160208510156126f65750805b601f840160051c820191505b8181101561171d575f8155600101612702565b81516001600160401b0381111561272e5761272e6123d4565b6127428161273c845461266a565b846126d1565b602080601f831160018114612775575f841561275e5750858301515b5f19600386901b1c1916600185901b1785556127cc565b5f85815260208120601f198616915b828110156127a357888601518255948401946001909101908401612784565b50858210156127c057878501515f19600388901b60f8161c191681555b505060018460011b0185555b505050505050565b634e487b7160e01b5f52601160045260245ffd5b5f600182016127f9576127f96127d4565b5060010190565b5f60208284031215612810575f80fd5b5051919050565b6001600160a01b03858116825284166020820152604081018390526080606082018190525f9061284990830184612233565b9695505050505050565b5f60208284031215612863575f80fd5b81516109ab816121e1565b818103818111156106ae576106ae6127d4565b634e487b7160e01b5f52603160045260245ffd5b5f82516128a6818460208701612211565b919091019291505056fe645e039705490088daad89bae25049a34f4a9072d398537b1ab2425f24cbed0080bb2b638cc20bc4d0a60d66940f3ab4a00c1d7b313497ca82fb0b4ab0079300360894a13ba1a3210667c828492db98dca3e2076cc3735a920a3ca505d382bbcf0c57e16840df040f15088dc2f81fe391c3923bec73e23a9662efc9c229c6a00a2646970667358221220187ec3916ebf35390983f3525ecdbaca399c1bf07c2a249b78f8210d02f1e8ff64736f6c63430008180033","linkReferences":{}},"methodIdentifiers":{"UPGRADE_INTERFACE_VERSION()":"ad3cb1cc","acceptOwnership()":"79ba5097","approve(address,uint256)":"095ea7b3","balanceOf(address)":"70a08231","baseURI()":"6c0360eb","blacklist()":"a4b5fa56","canMint(address,uint256)":"0d5e34a4","getApproved(uint256)":"081812fc","initialize(address,bytes32,address)":"d26b3e6e","initialize(address,string,bytes32,address)":"eec8eca1","isApprovedForAll(address,address)":"e985e9c5","leaf(address,uint256)":"d83b2bf8","mint(address,uint256)":"40c10f19","mint(bytes32[],uint256)":"45de0d9b","minted(bytes32)":"8ccc5f80","name()":"06fdde03","owner()":"8da5cb5b","ownerOf(uint256)":"6352211e","pendingOwner()":"e30c3978","proxiableUUID()":"52d1902d","renounceOwnership()":"715018a6","root()":"ebf0c717","safeTransferFrom(address,address,uint256)":"42842e0e","safeTransferFrom(address,address,uint256,bytes)":"b88d4fde","setApprovalForAll(address,bool)":"a22cb465","supportsInterface(bytes4)":"01ffc9a7","symbol()":"95d89b41","tokenByIndex(uint256)":"4f6ccce7","tokenOfOwnerByIndex(address,uint256)":"2f745c59","tokenURI(uint256)":"c87b56dd","totalSupply()":"18160ddd","transferFrom(address,address,uint256)":"23b872dd","transferOwnership(address)":"f2fde38b","updateBaseURI(string)":"931688cb","updateBlacklist(address)":"378b5704","updateRoot(bytes32)":"21ff9970","upgradeToAndCall(address,bytes)":"4f1ef286"},"storageLayout":{"storage":[{"astId":1698,"contract":"contracts/snaefell/SnaefellToken.sol:SnaefellToken","label":"root","offset":0,"slot":"0","type":"t_bytes32"},{"astId":1703,"contract":"contracts/snaefell/SnaefellToken.sol:SnaefellToken","label":"minted","offset":0,"slot":"1","type":"t_mapping(t_bytes32,t_bool)"},{"astId":1707,"contract":"contracts/snaefell/SnaefellToken.sol:SnaefellToken","label":"blacklist","offset":0,"slot":"2","type":"t_contract(IMinimalBlacklist)19316"},{"astId":1712,"contract":"contracts/snaefell/SnaefellToken.sol:SnaefellToken","label":"__gap","offset":0,"slot":"3","type":"t_array(t_uint256)48_storage"},{"astId":1948,"contract":"contracts/snaefell/SnaefellToken.sol:SnaefellToken","label":"_totalSupply","offset":0,"slot":"51","type":"t_uint256"},{"astId":1950,"contract":"contracts/snaefell/SnaefellToken.sol:SnaefellToken","label":"_baseURIExtended","offset":0,"slot":"52","type":"t_string_storage"},{"astId":1954,"contract":"contracts/snaefell/SnaefellToken.sol:SnaefellToken","label":"__gap","offset":0,"slot":"53","type":"t_array(t_uint256)48_storage"}],"types":{"t_array(t_uint256)48_storage":{"encoding":"inplace","label":"uint256[48]","numberOfBytes":"1536","base":"t_uint256"},"t_bool":{"encoding":"inplace","label":"bool","numberOfBytes":"1"},"t_bytes32":{"encoding":"inplace","label":"bytes32","numberOfBytes":"32"},"t_contract(IMinimalBlacklist)19316":{"encoding":"inplace","label":"contract IMinimalBlacklist","numberOfBytes":"20"},"t_mapping(t_bytes32,t_bool)":{"encoding":"mapping","key":"t_bytes32","label":"mapping(bytes32 => bool)","numberOfBytes":"32","value":"t_bool"},"t_string_storage":{"encoding":"bytes","label":"string","numberOfBytes":"32"},"t_uint256":{"encoding":"inplace","label":"uint256","numberOfBytes":"32"}}},"id":6}