{"abi":[{"type":"function","name":"BADGE_ANDROIDS","inputs":[],"outputs":[{"name":"","type":"uint256","internalType":"uint256"}],"stateMutability":"view"},{"type":"function","name":"BADGE_BOUNCERS","inputs":[],"outputs":[{"name":"","type":"uint256","internalType":"uint256"}],"stateMutability":"view"},{"type":"function","name":"BADGE_DRUMMERS","inputs":[],"outputs":[{"name":"","type":"uint256","internalType":"uint256"}],"stateMutability":"view"},{"type":"function","name":"BADGE_MASTERS","inputs":[],"outputs":[{"name":"","type":"uint256","internalType":"uint256"}],"stateMutability":"view"},{"type":"function","name":"BADGE_MONKS","inputs":[],"outputs":[{"name":"","type":"uint256","internalType":"uint256"}],"stateMutability":"view"},{"type":"function","name":"BADGE_RAVERS","inputs":[],"outputs":[{"name":"","type":"uint256","internalType":"uint256"}],"stateMutability":"view"},{"type":"function","name":"BADGE_ROBOTS","inputs":[],"outputs":[{"name":"","type":"uint256","internalType":"uint256"}],"stateMutability":"view"},{"type":"function","name":"BADGE_SHINTO","inputs":[],"outputs":[{"name":"","type":"uint256","internalType":"uint256"}],"stateMutability":"view"},{"type":"function","name":"MOVEMENT_BASED","inputs":[],"outputs":[{"name":"","type":"uint256","internalType":"uint256"}],"stateMutability":"view"},{"type":"function","name":"MOVEMENT_BOOSTED","inputs":[],"outputs":[{"name":"","type":"uint256","internalType":"uint256"}],"stateMutability":"view"},{"type":"function","name":"MOVEMENT_NEUTRAL","inputs":[],"outputs":[{"name":"","type":"uint256","internalType":"uint256"}],"stateMutability":"view"},{"type":"function","name":"UPGRADE_INTERFACE_VERSION","inputs":[],"outputs":[{"name":"","type":"string","internalType":"string"}],"stateMutability":"view"},{"type":"function","name":"acceptOwnership","inputs":[],"outputs":[],"stateMutability":"nonpayable"},{"type":"function","name":"approve","inputs":[{"name":"to","type":"address","internalType":"address"},{"name":"tokenId","type":"uint256","internalType":"uint256"}],"outputs":[],"stateMutability":"nonpayable"},{"type":"function","name":"badgeBalances","inputs":[{"name":"_owner","type":"address","internalType":"address"}],"outputs":[{"name":"","type":"bool[]","internalType":"bool[]"}],"stateMutability":"view"},{"type":"function","name":"badgeBalancesV2","inputs":[{"name":"_owner","type":"address","internalType":"address"}],"outputs":[{"name":"balances","type":"bool[]","internalType":"bool[]"}],"stateMutability":"view"},{"type":"function","name":"badges","inputs":[{"name":"_tokenId","type":"uint256","internalType":"uint256"}],"outputs":[{"name":"_badgeId","type":"uint256","internalType":"uint256"}],"stateMutability":"view"},{"type":"function","name":"balanceOf","inputs":[{"name":"owner","type":"address","internalType":"address"}],"outputs":[{"name":"","type":"uint256","internalType":"uint256"}],"stateMutability":"view"},{"type":"function","name":"baseURI","inputs":[],"outputs":[{"name":"","type":"string","internalType":"string"}],"stateMutability":"view"},{"type":"function","name":"blacklist","inputs":[],"outputs":[{"name":"","type":"address","internalType":"contract IMinimalBlacklist"}],"stateMutability":"view"},{"type":"function","name":"call","inputs":[],"outputs":[{"name":"","type":"bool","internalType":"bool"}],"stateMutability":"view"},{"type":"function","name":"canMint","inputs":[{"name":"_signature","type":"bytes","internalType":"bytes"},{"name":"_minter","type":"address","internalType":"address"},{"name":"_tokenId","type":"uint256","internalType":"uint256"}],"outputs":[{"name":"","type":"bool","internalType":"bool"}],"stateMutability":"view"},{"type":"function","name":"getApproved","inputs":[{"name":"tokenId","type":"uint256","internalType":"uint256"}],"outputs":[{"name":"","type":"address","internalType":"address"}],"stateMutability":"view"},{"type":"function","name":"getHash","inputs":[{"name":"_minter","type":"address","internalType":"address"},{"name":"_tokenId","type":"uint256","internalType":"uint256"}],"outputs":[{"name":"","type":"bytes32","internalType":"bytes32"}],"stateMutability":"pure"},{"type":"function","name":"getTokenId","inputs":[{"name":"_user","type":"address","internalType":"address"},{"name":"_badgeId","type":"uint256","internalType":"uint256"}],"outputs":[{"name":"","type":"uint256","internalType":"uint256"}],"stateMutability":"view"},{"type":"function","name":"initialize","inputs":[{"name":"_owner","type":"address","internalType":"address"},{"name":"_rootURI","type":"string","internalType":"string"},{"name":"_mintSigner","type":"address","internalType":"address"},{"name":"_blacklistAddress","type":"address","internalType":"contract IMinimalBlacklist"}],"outputs":[],"stateMutability":"nonpayable"},{"type":"function","name":"initialize","inputs":[{"name":"_owner","type":"address","internalType":"address"},{"name":"_mintSigner","type":"address","internalType":"address"},{"name":"_blacklist","type":"address","internalType":"contract IMinimalBlacklist"}],"outputs":[],"stateMutability":"nonpayable"},{"type":"function","name":"isApprovedForAll","inputs":[{"name":"owner","type":"address","internalType":"address"},{"name":"operator","type":"address","internalType":"address"}],"outputs":[{"name":"","type":"bool","internalType":"bool"}],"stateMutability":"view"},{"type":"function","name":"mint","inputs":[{"name":"_signature","type":"bytes","internalType":"bytes"},{"name":"_badgeId","type":"uint256","internalType":"uint256"}],"outputs":[],"stateMutability":"nonpayable"},{"type":"function","name":"mint","inputs":[{"name":"_signature","type":"bytes","internalType":"bytes"},{"name":"_minter","type":"address","internalType":"address"},{"name":"_badgeId","type":"uint256","internalType":"uint256"}],"outputs":[],"stateMutability":"nonpayable"},{"type":"function","name":"mintSigner","inputs":[],"outputs":[{"name":"","type":"address","internalType":"address"}],"stateMutability":"view"},{"type":"function","name":"mintTo","inputs":[{"name":"_minter","type":"address","internalType":"address"},{"name":"_badgeId","type":"uint256","internalType":"uint256"}],"outputs":[],"stateMutability":"nonpayable"},{"type":"function","name":"minted","inputs":[{"name":"signatureHash","type":"bytes32","internalType":"bytes32"}],"outputs":[{"name":"hasMinted","type":"bool","internalType":"bool"}],"stateMutability":"view"},{"type":"function","name":"movementBadges","inputs":[{"name":"movementBadgeHash","type":"bytes32","internalType":"bytes32"},{"name":"","type":"uint256","internalType":"uint256"}],"outputs":[{"name":"movementBadge","type":"uint256","internalType":"uint256"}],"stateMutability":"view"},{"type":"function","name":"movements","inputs":[{"name":"_user","type":"address","internalType":"address"}],"outputs":[{"name":"_movement","type":"uint256","internalType":"uint256"}],"stateMutability":"view"},{"type":"function","name":"name","inputs":[],"outputs":[{"name":"","type":"string","internalType":"string"}],"stateMutability":"view"},{"type":"function","name":"owner","inputs":[],"outputs":[{"name":"","type":"address","internalType":"address"}],"stateMutability":"view"},{"type":"function","name":"ownerOf","inputs":[{"name":"tokenId","type":"uint256","internalType":"uint256"}],"outputs":[{"name":"","type":"address","internalType":"address"}],"stateMutability":"view"},{"type":"function","name":"pendingOwner","inputs":[],"outputs":[{"name":"","type":"address","internalType":"address"}],"stateMutability":"view"},{"type":"function","name":"proxiableUUID","inputs":[],"outputs":[{"name":"","type":"bytes32","internalType":"bytes32"}],"stateMutability":"view"},{"type":"function","name":"recruitmentContract","inputs":[],"outputs":[{"name":"","type":"address","internalType":"contract BadgeRecruitment"}],"stateMutability":"view"},{"type":"function","name":"recruitmentLockDuration","inputs":[],"outputs":[{"name":"","type":"uint256","internalType":"uint256"}],"stateMutability":"view"},{"type":"function","name":"renounceOwnership","inputs":[],"outputs":[],"stateMutability":"nonpayable"},{"type":"function","name":"safeTransferFrom","inputs":[{"name":"from","type":"address","internalType":"address"},{"name":"to","type":"address","internalType":"address"},{"name":"tokenId","type":"uint256","internalType":"uint256"}],"outputs":[],"stateMutability":"nonpayable"},{"type":"function","name":"safeTransferFrom","inputs":[{"name":"from","type":"address","internalType":"address"},{"name":"to","type":"address","internalType":"address"},{"name":"tokenId","type":"uint256","internalType":"uint256"},{"name":"data","type":"bytes","internalType":"bytes"}],"outputs":[],"stateMutability":"nonpayable"},{"type":"function","name":"setApprovalForAll","inputs":[{"name":"operator","type":"address","internalType":"address"},{"name":"approved","type":"bool","internalType":"bool"}],"outputs":[],"stateMutability":"nonpayable"},{"type":"function","name":"setMovement","inputs":[{"name":"_movementId","type":"uint256","internalType":"uint256"}],"outputs":[],"stateMutability":"nonpayable"},{"type":"function","name":"setMovement","inputs":[{"name":"_user","type":"address","internalType":"address"},{"name":"_movementId","type":"uint256","internalType":"uint256"}],"outputs":[],"stateMutability":"nonpayable"},{"type":"function","name":"setRecruitmentContract","inputs":[{"name":"_recruitmentContract","type":"address","internalType":"address"}],"outputs":[],"stateMutability":"nonpayable"},{"type":"function","name":"setRecruitmentLockDuration","inputs":[{"name":"_duration","type":"uint256","internalType":"uint256"}],"outputs":[],"stateMutability":"nonpayable"},{"type":"function","name":"setUri","inputs":[{"name":"_uri","type":"string","internalType":"string"}],"outputs":[],"stateMutability":"nonpayable"},{"type":"function","name":"startRecruitment","inputs":[{"name":"_badgeId","type":"uint256","internalType":"uint256"}],"outputs":[],"stateMutability":"nonpayable"},{"type":"function","name":"supportsInterface","inputs":[{"name":"interfaceId","type":"bytes4","internalType":"bytes4"}],"outputs":[{"name":"","type":"bool","internalType":"bool"}],"stateMutability":"view"},{"type":"function","name":"symbol","inputs":[],"outputs":[{"name":"","type":"string","internalType":"string"}],"stateMutability":"view"},{"type":"function","name":"tokenByIndex","inputs":[{"name":"index","type":"uint256","internalType":"uint256"}],"outputs":[{"name":"","type":"uint256","internalType":"uint256"}],"stateMutability":"view"},{"type":"function","name":"tokenOfOwnerByIndex","inputs":[{"name":"owner","type":"address","internalType":"address"},{"name":"index","type":"uint256","internalType":"uint256"}],"outputs":[{"name":"","type":"uint256","internalType":"uint256"}],"stateMutability":"view"},{"type":"function","name":"tokenURI","inputs":[{"name":"_tokenId","type":"uint256","internalType":"uint256"}],"outputs":[{"name":"","type":"string","internalType":"string"}],"stateMutability":"view"},{"type":"function","name":"totalBadgeSupply","inputs":[],"outputs":[{"name":"balances","type":"uint256[]","internalType":"uint256[]"}],"stateMutability":"view"},{"type":"function","name":"totalSupply","inputs":[],"outputs":[{"name":"","type":"uint256","internalType":"uint256"}],"stateMutability":"view"},{"type":"function","name":"transferFrom","inputs":[{"name":"from","type":"address","internalType":"address"},{"name":"to","type":"address","internalType":"address"},{"name":"tokenId","type":"uint256","internalType":"uint256"}],"outputs":[],"stateMutability":"nonpayable"},{"type":"function","name":"transferOwnership","inputs":[{"name":"newOwner","type":"address","internalType":"address"}],"outputs":[],"stateMutability":"nonpayable"},{"type":"function","name":"unlockTimestamps","inputs":[{"name":"tokenId","type":"uint256","internalType":"uint256"}],"outputs":[{"name":"unlockTimestamp","type":"uint256","internalType":"uint256"}],"stateMutability":"view"},{"type":"function","name":"updateBlacklist","inputs":[{"name":"_blacklist","type":"address","internalType":"contract IMinimalBlacklist"}],"outputs":[],"stateMutability":"nonpayable"},{"type":"function","name":"updateMintSigner","inputs":[{"name":"_mintSigner","type":"address","internalType":"address"}],"outputs":[],"stateMutability":"nonpayable"},{"type":"function","name":"upgradeToAndCall","inputs":[{"name":"newImplementation","type":"address","internalType":"address"},{"name":"data","type":"bytes","internalType":"bytes"}],"outputs":[],"stateMutability":"payable"},{"type":"function","name":"userBadges","inputs":[{"name":"_user","type":"address","internalType":"address"},{"name":"_badgeId","type":"uint256","internalType":"uint256"}],"outputs":[{"name":"_tokenId","type":"uint256","internalType":"uint256"}],"stateMutability":"view"},{"type":"function","name":"version","inputs":[],"outputs":[{"name":"","type":"string","internalType":"string"}],"stateMutability":"pure"},{"type":"event","name":"Approval","inputs":[{"name":"owner","type":"address","indexed":true,"internalType":"address"},{"name":"approved","type":"address","indexed":true,"internalType":"address"},{"name":"tokenId","type":"uint256","indexed":true,"internalType":"uint256"}],"anonymous":false},{"type":"event","name":"ApprovalForAll","inputs":[{"name":"owner","type":"address","indexed":true,"internalType":"address"},{"name":"operator","type":"address","indexed":true,"internalType":"address"},{"name":"approved","type":"bool","indexed":false,"internalType":"bool"}],"anonymous":false},{"type":"event","name":"BadgeCreated","inputs":[{"name":"_tokenId","type":"uint256","indexed":false,"internalType":"uint256"},{"name":"_minter","type":"address","indexed":false,"internalType":"address"},{"name":"_badgeId","type":"uint256","indexed":false,"internalType":"uint256"}],"anonymous":false},{"type":"event","name":"BlacklistUpdated","inputs":[{"name":"_blacklist","type":"address","indexed":false,"internalType":"address"}],"anonymous":false},{"type":"event","name":"Initialized","inputs":[{"name":"version","type":"uint64","indexed":false,"internalType":"uint64"}],"anonymous":false},{"type":"event","name":"MintConsumed","inputs":[{"name":"_minter","type":"address","indexed":false,"internalType":"address"},{"name":"_tokenId","type":"uint256","indexed":false,"internalType":"uint256"}],"anonymous":false},{"type":"event","name":"MintSignerUpdated","inputs":[{"name":"_mintSigner","type":"address","indexed":false,"internalType":"address"}],"anonymous":false},{"type":"event","name":"MovementSet","inputs":[{"name":"_user","type":"address","indexed":false,"internalType":"address"},{"name":"_movementId","type":"uint256","indexed":false,"internalType":"uint256"}],"anonymous":false},{"type":"event","name":"OwnershipTransferStarted","inputs":[{"name":"previousOwner","type":"address","indexed":true,"internalType":"address"},{"name":"newOwner","type":"address","indexed":true,"internalType":"address"}],"anonymous":false},{"type":"event","name":"OwnershipTransferred","inputs":[{"name":"previousOwner","type":"address","indexed":true,"internalType":"address"},{"name":"newOwner","type":"address","indexed":true,"internalType":"address"}],"anonymous":false},{"type":"event","name":"Transfer","inputs":[{"name":"from","type":"address","indexed":true,"internalType":"address"},{"name":"to","type":"address","indexed":true,"internalType":"address"},{"name":"tokenId","type":"uint256","indexed":true,"internalType":"uint256"}],"anonymous":false},{"type":"event","name":"Upgraded","inputs":[{"name":"implementation","type":"address","indexed":true,"internalType":"address"}],"anonymous":false},{"type":"event","name":"UriSet","inputs":[{"name":"_uri","type":"string","indexed":false,"internalType":"string"}],"anonymous":false},{"type":"error","name":"ADDRESS_BLACKLISTED","inputs":[]},{"type":"error","name":"AddressEmptyCode","inputs":[{"name":"target","type":"address","internalType":"address"}]},{"type":"error","name":"BADGE_LOCKED","inputs":[]},{"type":"error","name":"ERC1967InvalidImplementation","inputs":[{"name":"implementation","type":"address","internalType":"address"}]},{"type":"error","name":"ERC1967NonPayable","inputs":[]},{"type":"error","name":"ERC721EnumerableForbiddenBatchMint","inputs":[]},{"type":"error","name":"ERC721IncorrectOwner","inputs":[{"name":"sender","type":"address","internalType":"address"},{"name":"tokenId","type":"uint256","internalType":"uint256"},{"name":"owner","type":"address","internalType":"address"}]},{"type":"error","name":"ERC721InsufficientApproval","inputs":[{"name":"operator","type":"address","internalType":"address"},{"name":"tokenId","type":"uint256","internalType":"uint256"}]},{"type":"error","name":"ERC721InvalidApprover","inputs":[{"name":"approver","type":"address","internalType":"address"}]},{"type":"error","name":"ERC721InvalidOperator","inputs":[{"name":"operator","type":"address","internalType":"address"}]},{"type":"error","name":"ERC721InvalidOwner","inputs":[{"name":"owner","type":"address","internalType":"address"}]},{"type":"error","name":"ERC721InvalidReceiver","inputs":[{"name":"receiver","type":"address","internalType":"address"}]},{"type":"error","name":"ERC721InvalidSender","inputs":[{"name":"sender","type":"address","internalType":"address"}]},{"type":"error","name":"ERC721NonexistentToken","inputs":[{"name":"tokenId","type":"uint256","internalType":"uint256"}]},{"type":"error","name":"ERC721OutOfBoundsIndex","inputs":[{"name":"owner","type":"address","internalType":"address"},{"name":"index","type":"uint256","internalType":"uint256"}]},{"type":"error","name":"FailedInnerCall","inputs":[]},{"type":"error","name":"INVALID_BADGE_ID","inputs":[]},{"type":"error","name":"INVALID_INPUT","inputs":[]},{"type":"error","name":"INVALID_MOVEMENT_ID","inputs":[]},{"type":"error","name":"InvalidInitialization","inputs":[]},{"type":"error","name":"MINTER_NOT_WHITELISTED","inputs":[]},{"type":"error","name":"MINTS_EXCEEDED","inputs":[]},{"type":"error","name":"NotInitializing","inputs":[]},{"type":"error","name":"ONLY_MINT_SIGNER","inputs":[]},{"type":"error","name":"OwnableInvalidOwner","inputs":[{"name":"owner","type":"address","internalType":"address"}]},{"type":"error","name":"OwnableUnauthorizedAccount","inputs":[{"name":"account","type":"address","internalType":"address"}]},{"type":"error","name":"RECRUITMENT_LOCK_DURATION_NOT_SET","inputs":[]},{"type":"error","name":"UUPSUnauthorizedCallContext","inputs":[]},{"type":"error","name":"UUPSUnsupportedProxiableUUID","inputs":[{"name":"slot","type":"bytes32","internalType":"bytes32"}]}],"bytecode":{"object":"0x60a06040523060805234801562000014575f80fd5b506200001f62000025565b620000d9565b7ff0c57e16840df040f15088dc2f81fe391c3923bec73e23a9662efc9c229c6a00805468010000000000000000900460ff1615620000765760405163f92ee8a960e01b815260040160405180910390fd5b80546001600160401b0390811614620000d65780546001600160401b0319166001600160401b0390811782556040519081527fc7f505b2f371ae2175ee4913f4499e1f2633a7b5936321eed1cdaeb6115181d29060200160405180910390a15b50565b608051613854620001005f395f8181611e8901528181611eb20152611ff101526138545ff3fe6080604052600436106103d3575f3560e01c80638da5cb5b116101ff578063bacb6d4e11610113578063e30c3978116100a8578063f17af48d11610078578063f17af48d14610ae9578063f2fde38b14610b07578063f571049b14610b26578063f7da8ce314610b45578063ff2c26ec14610b64575f80fd5b8063e30c397814610a78578063e84be85214610a8c578063e985e9c514610aab578063ed05582b14610aca575f80fd5b8063ca0259c0116100e3578063ca0259c014610a0e578063d5def7c214610a2f578063d944061e14610a2f578063df91cc2314610a42575f80fd5b8063bacb6d4e14610992578063c0c53b8b146109b1578063c87b56dd146109d0578063c8860d98146109ef575f80fd5b8063a22cb46511610194578063b378b44811610164578063b378b44814610921578063b4e7409f1461086c578063b58c439e14610935578063b88d4fde14610954578063b8f88d6414610973575f80fd5b8063a22cb4651461089f578063a4b5fa56146108be578063a7fb03ab146108dd578063ad3cb1cc146108f1575f80fd5b806398e36d8b116101cf57806398e36d8b1461084157806398ef238a1461086c5780639b642de1146108805780639cc28164146104c5575f80fd5b80638da5cb5b146107cf5780639224747d146107e3578063950290c81461080e57806395d89b411461082d575f80fd5b8063378b5704116102f65780635c6f8ca31161028b57806370a082311161025b57806370a0823114610746578063715018a61461076557806375b9c0151461077957806379ba50971461078d5780638ccc5f80146107a1575f80fd5b80635c6f8ca3146106bc5780636352211e146106e85780636c0360eb14610707578063700b1acd1461071b575f80fd5b80634f1ef286116102c65780634f1ef2861461064c5780634f6ccce71461065f57806352d1902d1461067e57806354fd4d5014610692575f80fd5b8063378b5704146105db57806342842e0e146105fa578063449a52f8146106195780634808b10914610638575f80fd5b80631fcfe19c1161036c5780632f19062f1161033c5780632f19062f146105695780632f745c59146105885780633136964c146105a757806332c8f504146105c6575f80fd5b80631fcfe19c146104f957806323b872dd1461051857806328b5e32b1461053757806329f99b9f1461054a575f80fd5b8063095ea7b3116103a7578063095ea7b3146104845780630e0c8b0a146104a35780630f5f04bf146104c557806318160ddd146104d9575f80fd5b8062257612146103d757806301ffc9a7146103f857806306fdde031461042c578063081812fc1461044d575b5f80fd5b3480156103e2575f80fd5b506103f66103f136600461300e565b610b83565b005b348015610403575f80fd5b50610417610412366004613064565b610b92565b60405190151581526020015b60405180910390f35b348015610437575f80fd5b50610440610bbc565b60405161042391906130cc565b348015610458575f80fd5b5061046c6104673660046130de565b610c5d565b6040516001600160a01b039091168152602001610423565b34801561048f575f80fd5b506103f661049e366004613109565b610c71565b3480156104ae575f80fd5b506104b7600681565b604051908152602001610423565b3480156104d0575f80fd5b506104b7600181565b3480156104e4575f80fd5b505f805160206137ff833981519152546104b7565b348015610504575f80fd5b506103f6610513366004613133565b610c7c565b348015610523575f80fd5b506103f6610532366004613188565b610c94565b348015610542575f80fd5b506001610417565b348015610555575f80fd5b506104b7610564366004613109565b610d22565b348015610574575f80fd5b506103f66105833660046130de565b610d49565b348015610593575f80fd5b506104b76105a2366004613109565b610d56565b3480156105b2575f80fd5b506104b76105c13660046131b5565b610dc7565b3480156105d1575f80fd5b506104b760625481565b3480156105e6575f80fd5b506103f66105f53660046131d5565b610de9565b348015610605575f80fd5b506103f6610614366004613188565b610e46565b348015610624575f80fd5b506103f6610633366004613109565b610e60565b348015610643575f80fd5b506104b7600781565b6103f661065a3660046131f0565b610f16565b34801561066a575f80fd5b506104b76106793660046130de565b610f31565b348015610689575f80fd5b506104b7610fa3565b34801561069d575f80fd5b50604080518082019091526002815261158d60f21b6020820152610440565b3480156106c7575f80fd5b506106db6106d63660046131d5565b610fbe565b604051610423919061323c565b3480156106f3575f80fd5b5061046c6107023660046130de565b611172565b348015610712575f80fd5b5061044061117c565b348015610726575f80fd5b506104b76107353660046131d5565b60346020525f908152604090205481565b348015610751575f80fd5b506104b76107603660046131d5565b61120c565b348015610770575f80fd5b506103f6611264565b348015610784575f80fd5b506104b7600581565b348015610798575f80fd5b506103f6611277565b3480156107ac575f80fd5b506104176107bb3660046130de565b60016020525f908152604090205460ff1681565b3480156107da575f80fd5b5061046c6112bc565b3480156107ee575f80fd5b506104b76107fd3660046130de565b60646020525f908152604090205481565b348015610819575f80fd5b506103f66108283660046130de565b6112f0565b348015610838575f80fd5b506104406113ac565b34801561084c575f80fd5b506104b761085b3660046130de565b60336020525f908152604090205481565b348015610877575f80fd5b506104b7600281565b34801561088b575f80fd5b506103f661089a366004613281565b6113ea565b3480156108aa575f80fd5b506103f66108b93660046132c7565b61142e565b3480156108c9575f80fd5b5060025461046c906001600160a01b031681565b3480156108e8575f80fd5b506104b7600481565b3480156108fc575f80fd5b50610440604051806040016040528060058152602001640352e302e360dc1b81525081565b34801561092c575f80fd5b506104b7600381565b348015610940575f80fd5b5061041761094f366004613133565b611439565b34801561095f575f80fd5b506103f661096e3660046132fe565b611500565b34801561097e575f80fd5b506103f661098d366004613365565b611517565b34801561099d575f80fd5b506103f66109ac3660046130de565b611685565b3480156109bc575f80fd5b506103f66109cb3660046133d5565b611692565b3480156109db575f80fd5b506104406109ea3660046130de565b6117a2565b3480156109fa575f80fd5b5060635461046c906001600160a01b031681565b348015610a19575f80fd5b50610a2261181a565b604051610423919061341d565b348015610a3a575f80fd5b506104b75f81565b348015610a4d575f80fd5b506104b7610a5c366004613109565b603560209081525f928352604080842090915290825290205481565b348015610a83575f80fd5b5061046c6118b4565b348015610a97575f80fd5b506103f6610aa63660046131d5565b6118dc565b348015610ab6575f80fd5b50610417610ac5366004613454565b611906565b348015610ad5575f80fd5b506104b7610ae4366004613109565b611952565b348015610af4575f80fd5b505f5461046c906001600160a01b031681565b348015610b12575f80fd5b506103f6610b213660046131d5565b6119ab565b348015610b31575f80fd5b506103f6610b403660046131d5565b611a30565b348015610b50575f80fd5b506106db610b5f3660046131d5565b611a85565b348015610b6f575f80fd5b506103f6610b7e366004613109565b611ba2565b610b8e823383611bb4565b5050565b5f6001600160e01b0319821663780e9d6360e01b1480610bb65750610bb682611c6d565b92915050565b5f805160206137bf8339815191528054606091908190610bdb90613480565b80601f0160208091040260200160405190810160405280929190818152602001828054610c0790613480565b8015610c525780601f10610c2957610100808354040283529160200191610c52565b820191905f5260205f20905b815481529060010190602001808311610c3557829003601f168201915b505050505091505090565b5f610c6782611cbc565b50610bb682611cf3565b610b8e828233611d2c565b610c84611d39565b610c8f838383611bb4565b505050565b6001600160a01b038216610cc257604051633250574960e11b81525f60048201526024015b60405180910390fd5b5f610cce838333611d6b565b9050836001600160a01b0316816001600160a01b031614610d1c576040516364283d7b60e01b81526001600160a01b0380861660048301526024820184905282166044820152606401610cb9565b50505050565b6001600160a01b03919091165f908152603560209081526040808320938352929052205490565b610d533382611da4565b50565b5f5f8051602061379f833981519152610d6e8461120c565b8310610d9f5760405163295f44f760e21b81526001600160a01b038516600482015260248101849052604401610cb9565b6001600160a01b0384165f908152602091825260408082208583529092522054905092915050565b6036602052815f5260405f208160028110610de0575f80fd5b01549150829050565b610df1611d39565b600280546001600160a01b0319166001600160a01b0383169081179091556040519081527f75cdf6842d867a09260947ac775619527788d913a79fc3b41da1815fa377af65906020015b60405180910390a150565b610c8f83838360405180602001604052805f815250611500565b610e68611d39565b6007811115610e8a57604051635557cd3560e11b815260040160405180910390fd5b5f610ea05f805160206137ff8339815191525490565b610eab9060016134cc565b5f8181526033602052604090208390559050610ec78382611e1d565b604080518281526001600160a01b03851660208201529081018390527f73ec18fe90e8b3de52d7e88ff3108708ed0e9714e5327b038c182b64cedaae70906060015b60405180910390a1505050565b610f1e611e7e565b610f2782611f22565b610b8e8282611f2a565b5f5f8051602061379f833981519152610f555f805160206137ff8339815191525490565b8310610f7d5760405163295f44f760e21b81525f600482015260248101849052604401610cb9565b806002018381548110610f9257610f926134df565b905f5260205f200154915050919050565b5f610fac611fe6565b505f805160206137df83398151915290565b60408051600880825261012082019092526060915f91906020820161010080368337019050509050610ff0835f610d22565b5f1415815f81518110611005576110056134df565b91151560209283029190910190910152611020836001610d22565b5f141581600181518110611036576110366134df565b91151560209283029190910190910152611051836002610d22565b5f141581600281518110611067576110676134df565b91151560209283029190910190910152611082836003610d22565b5f141581600381518110611098576110986134df565b911515602092830291909101909101526110b3836004610d22565b5f1415816004815181106110c9576110c96134df565b911515602092830291909101909101526110e4836005610d22565b5f1415816005815181106110fa576110fa6134df565b91151560209283029190910190910152611115836006610d22565b5f14158160068151811061112b5761112b6134df565b91151560209283029190910190910152611146836007610d22565b5f14158160078151811061115c5761115c6134df565b9115156020928302919091019091015292915050565b5f610bb682611cbc565b60606032805461118b90613480565b80601f01602080910402602001604051908101604052809291908181526020018280546111b790613480565b80156112025780601f106111d957610100808354040283529160200191611202565b820191905f5260205f20905b8154815290600101906020018083116111e557829003601f168201915b5050505050905090565b5f5f805160206137bf8339815191526001600160a01b038316611244576040516322718ad960e21b81525f6004820152602401610cb9565b6001600160a01b039092165f908152600390920160205250604090205490565b61126c611d39565b6112755f61202f565b565b33806112816118b4565b6001600160a01b0316146112b35760405163118cdaa760e01b81526001600160a01b0382166004820152602401610cb9565b610d538161202f565b5f807f9016d09d72d40fdae2fd8ceac6b6234c7706214fd39c1cd1e609a0528c1993005b546001600160a01b031692915050565b6062545f03611312576040516321d9ef2160e21b815260040160405180910390fd5b5f61131d3383610d22565b90506062544261132d91906134cc565b5f828152606460205260409020556063546001600160a01b03166357663978336040516001600160e01b031960e084901b1681526001600160a01b039091166004820152602481018590526044015f604051808303815f87803b158015611392575f80fd5b505af11580156113a4573d5f803e3d5ffd5b505050505050565b7f80bb2b638cc20bc4d0a60d66940f3ab4a00c1d7b313497ca82fb0b4ab007930180546060915f805160206137bf83398151915291610bdb90613480565b6113f2611d39565b60326113fe8282613537565b507fd09d05534067f74dbc9e6af794edbd29e904d7698e428d0bc1378e45889acdd781604051610e3b91906130cc565b610b8e338383612067565b60025460405163fe575a8760e01b81526001600160a01b0384811660048301525f92169063fe575a8790602401602060405180830381865afa158015611481573d5f803e3d5ffd5b505050506040513d601f19601f820116820180604052508101906114a591906135f2565b156114c357604051637874e36360e01b815260040160405180910390fd5b83516020808601919091205f9081526001909152604090205460ff16156114eb57505f6114f9565b6114f6848484612116565b90505b9392505050565b61150b848484610c94565b610d1c8484848461214b565b7ff0c57e16840df040f15088dc2f81fe391c3923bec73e23a9662efc9c229c6a008054600160401b810460ff1615906001600160401b03165f8115801561155b5750825b90505f826001600160401b031660011480156115765750303b155b905081158015611584575080155b156115a25760405163f92ee8a960e01b815260040160405180910390fd5b845467ffffffffffffffff1916600117855583156115cc57845460ff60401b1916600160401b1785555b61161c60405180604001604052806013815260200172547261696c626c617a6572732042616467657360681b815250604051806040016040528060038152602001622a212160e91b815250612271565b60326116288982613537565b50611634898888612283565b831561167a57845460ff60401b19168555604051600181527fc7f505b2f371ae2175ee4913f4499e1f2633a7b5936321eed1cdaeb6115181d29060200160405180910390a15b505050505050505050565b61168d611d39565b606255565b7ff0c57e16840df040f15088dc2f81fe391c3923bec73e23a9662efc9c229c6a008054600160401b810460ff1615906001600160401b03165f811580156116d65750825b90505f826001600160401b031660011480156116f15750303b155b9050811580156116ff575080155b1561171d5760405163f92ee8a960e01b815260040160405180910390fd5b845467ffffffffffffffff19166001178555831561174757845460ff60401b1916600160401b1785555b611752888888612283565b831561179857845460ff60401b19168555604051600181527fc7f505b2f371ae2175ee4913f4499e1f2633a7b5936321eed1cdaeb6115181d29060200160405180910390a15b5050505050505050565b60605f60345f6117b185611172565b6001600160a01b0316815260208082019290925260409081015f908120548682526033909352205490915060326117e7836122d7565b6117f0836122d7565b60405160200161180293929190613628565b60405160208183030381529060405292505050919050565b60605f6118325f805160206137ff8339815191525490565b6040805160088082526101208201909252919250602082016101008036833701905050915060015b8181116118af575f818152603360205260409020548351849082908110611883576118836134df565b602002602001018051809190611898906136d6565b9052508190506118a7816136d6565b91505061185a565b505090565b5f807f237e158222e3e6968b72b9db0d8043aacf074ad9f650f0d1606b4d82ee432c006112e0565b6118e4611d39565b606380546001600160a01b0319166001600160a01b0392909216919091179055565b6001600160a01b039182165f9081527f80bb2b638cc20bc4d0a60d66940f3ab4a00c1d7b313497ca82fb0b4ab00793056020908152604080832093909416825291909152205460ff1690565b604080516001600160a01b03841660208201529081018290525f9060600160408051601f198184030181528282528051602091820120908301520160405160208183030381529060405280519060200120905092915050565b6119b3611d39565b7f237e158222e3e6968b72b9db0d8043aacf074ad9f650f0d1606b4d82ee432c0080546001600160a01b0319166001600160a01b03831690811782556119f76112bc565b6001600160a01b03167f38d16b8cac22d99fc7c124b9cd0de2d3fa1faef420bfe791d8c362d765e2270060405160405180910390a35050565b611a38611d39565b5f80546001600160a01b0319166001600160a01b0383169081179091556040519081527f81c142d9a4b33dfaba82444370b6b077fc2cb507c30c41a7c967f695ed72651f90602001610e3b565b60605f611a918361120c565b90505f816001600160401b03811115611aac57611aac612f72565b604051908082528060200260200182016040528015611ad5578160200160208202803683370190505b5090505f5b82811015611b1157611aec8582610d56565b828281518110611afe57611afe6134df565b6020908102919091010152600101611ada565b5060408051600880825261012082019092529060208201610100803683370190505092505f5b82811015611b9a575f60335f848481518110611b5557611b556134df565b602002602001015181526020019081526020015f205490506001858281518110611b8157611b816134df565b9115156020928302919091019091015250600101611b37565b505050919050565b611baa611d39565b610b8e8282611da4565b6007811115611bd657604051635557cd3560e11b815260040160405180910390fd5b611be1838383612366565b5f611bf75f805160206137ff8339815191525490565b611c029060016134cc565b5f8181526033602052604090208390559050611c1e8382611e1d565b604080518281526001600160a01b03851660208201529081018390527f73ec18fe90e8b3de52d7e88ff3108708ed0e9714e5327b038c182b64cedaae709060600160405180910390a150505050565b5f6001600160e01b031982166380ac58cd60e01b1480611c9d57506001600160e01b03198216635b5e139f60e01b145b80610bb657506301ffc9a760e01b6001600160e01b0319831614610bb6565b5f80611cc7836123ef565b90506001600160a01b038116610bb657604051637e27328960e01b815260048101849052602401610cb9565b5f9081527f80bb2b638cc20bc4d0a60d66940f3ab4a00c1d7b313497ca82fb0b4ab007930460205260409020546001600160a01b031690565b610c8f8383836001612428565b33611d426112bc565b6001600160a01b0316146112755760405163118cdaa760e01b8152336004820152602401610cb9565b5f82815260646020526040812054421015611d9957604051635119f4d360e11b815260040160405180910390fd5b6114f684848461253b565b6002811115611dc657604051632c4d11b760e11b815260040160405180910390fd5b6001600160a01b0382165f81815260346020908152604091829020849055815192835282018390527fc8f3ae17becdf8c098ef081092d0420324d1318397bd7ac8e90d900c56a50a76910160405180910390a15050565b6001600160a01b038216611e4657604051633250574960e11b81525f6004820152602401610cb9565b5f611e5283835f611d6b565b90506001600160a01b03811615610c8f576040516339e3563760e11b81525f6004820152602401610cb9565b306001600160a01b037f0000000000000000000000000000000000000000000000000000000000000000161480611f0457507f00000000000000000000000000000000000000000000000000000000000000006001600160a01b0316611ef85f805160206137df833981519152546001600160a01b031690565b6001600160a01b031614155b156112755760405163703e46dd60e11b815260040160405180910390fd5b610d53611d39565b816001600160a01b03166352d1902d6040518163ffffffff1660e01b8152600401602060405180830381865afa925050508015611f84575060408051601f3d908101601f19168201909252611f81918101906136ee565b60015b611fac57604051634c9c8ce360e01b81526001600160a01b0383166004820152602401610cb9565b5f805160206137df8339815191528114611fdc57604051632a87526960e21b815260048101829052602401610cb9565b610c8f83836125de565b306001600160a01b037f000000000000000000000000000000000000000000000000000000000000000016146112755760405163703e46dd60e11b815260040160405180910390fd5b7f237e158222e3e6968b72b9db0d8043aacf074ad9f650f0d1606b4d82ee432c0080546001600160a01b0319168155610b8e82612633565b5f805160206137bf8339815191526001600160a01b0383166120a757604051630b61174360e31b81526001600160a01b0384166004820152602401610cb9565b6001600160a01b038481165f818152600584016020908152604080832094881680845294825291829020805460ff191687151590811790915591519182527f17307eab39ab6107e8899845ad3d59bd9653f200f220920489ca2b5937696c31910160405180910390a350505050565b5f806121228484611952565b90505f61212f82876126a3565b50505f546001600160a01b039081169116149695505050505050565b6001600160a01b0383163b15610d1c57604051630a85bd0160e11b81526001600160a01b0384169063150b7a029061218d903390889087908790600401613705565b6020604051808303815f875af19250505080156121c7575060408051601f3d908101601f191682019092526121c491810190613741565b60015b61222e573d8080156121f4576040519150601f19603f3d011682016040523d82523d5f602084013e6121f9565b606091505b5080515f0361222657604051633250574960e11b81526001600160a01b0385166004820152602401610cb9565b805181602001fd5b6001600160e01b03198116630a85bd0160e11b1461226a57604051633250574960e11b81526001600160a01b0385166004820152602401610cb9565b5050505050565b6122796126ec565b610b8e8282612735565b6122a16001600160a01b0384161561229b578361202f565b3361202f565b6122a9612765565b5f80546001600160a01b039384166001600160a01b0319918216179091556002805492909316911617905550565b60605f6122e38361276d565b60010190505f816001600160401b0381111561230157612301612f72565b6040519080825280601f01601f19166020018201604052801561232b576020820181803683370190505b5090508181016020015b5f19016f181899199a1a9b1b9c1cb0b131b232b360811b600a86061a8153600a850494508461233557509392505050565b612371838383611439565b61238e57604051639ea134e960e01b815260040160405180910390fd5b82516020808501919091205f9081526001808352604091829020805460ff1916909117905580516001600160a01b03851681529182018390527ff71d0afb6ca23454b34db8bf7baf45f79e8c2f41e5499375ea2289312b2d317b9101610f09565b5f9081527f80bb2b638cc20bc4d0a60d66940f3ab4a00c1d7b313497ca82fb0b4ab007930260205260409020546001600160a01b031690565b5f805160206137bf833981519152818061244a57506001600160a01b03831615155b1561250b575f61245985611cbc565b90506001600160a01b038416158015906124855750836001600160a01b0316816001600160a01b031614155b801561249857506124968185611906565b155b156124c15760405163a9fbf51f60e01b81526001600160a01b0385166004820152602401610cb9565b82156125095784866001600160a01b0316826001600160a01b03167f8c5be1e5ebec7d5bd14f71427d1e84f3dd0314c0f7b2291e5b200ac8c7c3b92560405160405180910390a45b505b5f93845260040160205250506040902080546001600160a01b0319166001600160a01b0392909216919091179055565b6002545f906001600160a01b031663fe575a87336040516001600160e01b031960e084901b1681526001600160a01b039091166004820152602401602060405180830381865afa158015612591573d5f803e3d5ffd5b505050506040513d601f19601f820116820180604052508101906125b591906135f2565b156125d357604051637874e36360e01b815260040160405180910390fd5b6114f6848484612844565b6125e7826128ad565b6040516001600160a01b038316907fbc7cd75a20ee27fd9adebab32041f755214dbc6bffa90cc0225b39da2e5c2d3b905f90a280511561262b57610c8f8282612910565b610b8e612982565b7f9016d09d72d40fdae2fd8ceac6b6234c7706214fd39c1cd1e609a0528c19930080546001600160a01b031981166001600160a01b03848116918217845560405192169182907f8be0079c531659141344cd1fd0a4f28419497f9722a3daafe3b4186f6b6457e0905f90a3505050565b5f805f83516041036126da576020840151604085015160608601515f1a6126cc888285856129a1565b9550955095505050506126e5565b505081515f91506002905b9250925092565b7ff0c57e16840df040f15088dc2f81fe391c3923bec73e23a9662efc9c229c6a0054600160401b900460ff1661127557604051631afcd79f60e31b815260040160405180910390fd5b61273d6126ec565b5f805160206137bf833981519152806127568482613537565b5060018101610d1c8382613537565b6112756126ec565b5f8072184f03e93ff9f4daa797ed6e38ed64bf6a1f0160401b83106127ab5772184f03e93ff9f4daa797ed6e38ed64bf6a1f0160401b830492506040015b6d04ee2d6d415b85acef810000000083106127d7576d04ee2d6d415b85acef8100000000830492506020015b662386f26fc1000083106127f557662386f26fc10000830492506010015b6305f5e100831061280d576305f5e100830492506008015b612710831061282157612710830492506004015b60648310612833576064830492506002015b600a8310610bb65760010192915050565b5f8060355f612852866123ef565b6001600160a01b03908116825260208083019390935260409182015f908120888252603385528382208054835290855283822095909555908816815260358352818120935481529290915290208390556114f6848484612a69565b806001600160a01b03163b5f036128e257604051634c9c8ce360e01b81526001600160a01b0382166004820152602401610cb9565b5f805160206137df83398151915280546001600160a01b0319166001600160a01b0392909216919091179055565b60605f80846001600160a01b03168460405161292c919061375c565b5f60405180830381855af49150503d805f8114612964576040519150601f19603f3d011682016040523d82523d5f602084013e612969565b606091505b5091509150612979858383612b5f565b95945050505050565b34156112755760405163b398979f60e01b815260040160405180910390fd5b5f80807f7fffffffffffffffffffffffffffffff5d576e7357a4501ddfe92f46681b20a08411156129da57505f91506003905082612a5f565b604080515f808252602082018084528a905260ff891692820192909252606081018790526080810186905260019060a0016020604051602081039080840390855afa158015612a2b573d5f803e3d5ffd5b5050604051601f1901519150506001600160a01b038116612a5657505f925060019150829050612a5f565b92505f91508190505b9450945094915050565b5f80612a76858585612bbb565b90506001600160a01b038116612afd57612af8845f805160206137ff83398151915280545f8381527f645e039705490088daad89bae25049a34f4a9072d398537b1ab2425f24cbed0360205260408120829055600182018355919091527fa42f15e5d656f8155fd7419d740a6073999f19cd6e061449ce4a257150545bf20155565b612b20565b846001600160a01b0316816001600160a01b031614612b2057612b208185612cbd565b6001600160a01b038516612b3c57612b3784612d5c565b6114f6565b846001600160a01b0316816001600160a01b0316146114f6576114f68585612e29565b606082612b7457612b6f82612e81565b6114f9565b8151158015612b8b57506001600160a01b0384163b155b15612bb457604051639996b31560e01b81526001600160a01b0385166004820152602401610cb9565b50806114f9565b5f5f805160206137bf83398151915281612bd4856123ef565b90506001600160a01b03841615612bf057612bf0818587612eaa565b6001600160a01b03811615612c2c57612c0b5f865f80612428565b6001600160a01b0381165f908152600383016020526040902080545f190190555b6001600160a01b03861615612c5c576001600160a01b0386165f9081526003830160205260409020805460010190555b5f85815260028301602052604080822080546001600160a01b0319166001600160a01b038a811691821790925591518893918516917fddf252ad1be2c89b69c2b068fc378daa952ba7f163c4a11628f55a4df523b3ef91a495945050505050565b5f8051602061379f8339815191525f612cd58461120c565b5f848152600184016020526040902054909150808214612d28576001600160a01b0385165f9081526020848152604080832085845282528083205484845281842081905583526001860190915290208190555b505f92835260018201602090815260408085208590556001600160a01b039095168452918252838320908352905290812055565b5f805160206137ff833981519152545f8051602061379f833981519152905f90612d8890600190613777565b5f848152600384016020526040812054600285018054939450909284908110612db357612db36134df565b905f5260205f200154905080846002018381548110612dd457612dd46134df565b5f91825260208083209091019290925582815260038601909152604080822084905586825281205560028401805480612e0f57612e0f61378a565b600190038181905f5260205f20015f905590555050505050565b5f8051602061379f8339815191525f6001612e438561120c565b612e4d9190613777565b6001600160a01b039094165f9081526020838152604080832087845282528083208690559482526001909301909252502055565b805115612e915780518082602001fd5b604051630a12f52160e11b815260040160405180910390fd5b612eb5838383612f0e565b610c8f576001600160a01b038316612ee357604051637e27328960e01b815260048101829052602401610cb9565b60405163177e802f60e01b81526001600160a01b038316600482015260248101829052604401610cb9565b5f6001600160a01b038316158015906114f65750826001600160a01b0316846001600160a01b03161480612f475750612f478484611906565b806114f65750826001600160a01b0316612f6083611cf3565b6001600160a01b031614949350505050565b634e487b7160e01b5f52604160045260245ffd5b5f82601f830112612f95575f80fd5b81356001600160401b0380821115612faf57612faf612f72565b604051601f8301601f19908116603f01168101908282118183101715612fd757612fd7612f72565b81604052838152866020858801011115612fef575f80fd5b836020870160208301375f602085830101528094505050505092915050565b5f806040838503121561301f575f80fd5b82356001600160401b03811115613034575f80fd5b61304085828601612f86565b95602094909401359450505050565b6001600160e01b031981168114610d53575f80fd5b5f60208284031215613074575f80fd5b81356114f98161304f565b5f5b83811015613099578181015183820152602001613081565b50505f910152565b5f81518084526130b881602086016020860161307f565b601f01601f19169290920160200192915050565b602081525f6114f960208301846130a1565b5f602082840312156130ee575f80fd5b5035919050565b6001600160a01b0381168114610d53575f80fd5b5f806040838503121561311a575f80fd5b8235613125816130f5565b946020939093013593505050565b5f805f60608486031215613145575f80fd5b83356001600160401b0381111561315a575f80fd5b61316686828701612f86565b9350506020840135613177816130f5565b929592945050506040919091013590565b5f805f6060848603121561319a575f80fd5b83356131a5816130f5565b92506020840135613177816130f5565b5f80604083850312156131c6575f80fd5b50508035926020909101359150565b5f602082840312156131e5575f80fd5b81356114f9816130f5565b5f8060408385031215613201575f80fd5b823561320c816130f5565b915060208301356001600160401b03811115613226575f80fd5b61323285828601612f86565b9150509250929050565b602080825282518282018190525f9190848201906040850190845b81811015613275578351151583529284019291840191600101613257565b50909695505050505050565b5f60208284031215613291575f80fd5b81356001600160401b038111156132a6575f80fd5b6132b284828501612f86565b949350505050565b8015158114610d53575f80fd5b5f80604083850312156132d8575f80fd5b82356132e3816130f5565b915060208301356132f3816132ba565b809150509250929050565b5f805f8060808587031215613311575f80fd5b843561331c816130f5565b9350602085013561332c816130f5565b92506040850135915060608501356001600160401b0381111561334d575f80fd5b61335987828801612f86565b91505092959194509250565b5f805f8060808587031215613378575f80fd5b8435613383816130f5565b935060208501356001600160401b0381111561339d575f80fd5b6133a987828801612f86565b93505060408501356133ba816130f5565b915060608501356133ca816130f5565b939692955090935050565b5f805f606084860312156133e7575f80fd5b83356133f2816130f5565b92506020840135613402816130f5565b91506040840135613412816130f5565b809150509250925092565b602080825282518282018190525f9190848201906040850190845b8181101561327557835183529284019291840191600101613438565b5f8060408385031215613465575f80fd5b8235613470816130f5565b915060208301356132f3816130f5565b600181811c9082168061349457607f821691505b6020821081036134b257634e487b7160e01b5f52602260045260245ffd5b50919050565b634e487b7160e01b5f52601160045260245ffd5b80820180821115610bb657610bb66134b8565b634e487b7160e01b5f52603260045260245ffd5b601f821115610c8f57805f5260205f20601f840160051c810160208510156135185750805b601f840160051c820191505b8181101561226a575f8155600101613524565b81516001600160401b0381111561355057613550612f72565b6135648161355e8454613480565b846134f3565b602080601f831160018114613597575f84156135805750858301515b5f19600386901b1c1916600185901b1785556113a4565b5f85815260208120601f198616915b828110156135c5578886015182559484019460019091019084016135a6565b50858210156135e257878501515f19600388901b60f8161c191681555b5050505050600190811b01905550565b5f60208284031215613602575f80fd5b81516114f9816132ba565b5f815161361e81856020860161307f565b9290920192915050565b5f80855461363581613480565b6001828116801561364d57600181146136625761368e565b60ff198416875282151583028701945061368e565b895f526020805f205f5b858110156136855781548a82015290840190820161366c565b50505082870194505b50505050602f60f81b815284516136ac81600184016020890161307f565b6136cb6136c5600183850101602f60f81b815260010190565b8661360d565b979650505050505050565b5f600182016136e7576136e76134b8565b5060010190565b5f602082840312156136fe575f80fd5b5051919050565b6001600160a01b03858116825284166020820152604081018390526080606082018190525f90613737908301846130a1565b9695505050505050565b5f60208284031215613751575f80fd5b81516114f98161304f565b5f825161376d81846020870161307f565b9190910192915050565b81810381811115610bb657610bb66134b8565b634e487b7160e01b5f52603160045260245ffdfe645e039705490088daad89bae25049a34f4a9072d398537b1ab2425f24cbed0080bb2b638cc20bc4d0a60d66940f3ab4a00c1d7b313497ca82fb0b4ab0079300360894a13ba1a3210667c828492db98dca3e2076cc3735a920a3ca505d382bbc645e039705490088daad89bae25049a34f4a9072d398537b1ab2425f24cbed02a264697066735822122062e02cc2f878e21f72b55a4d1c976c9573f2ea6c1dfc328253349d46d315e20a64736f6c63430008180033","linkReferences":{}},"methodIdentifiers":{"BADGE_ANDROIDS()":"0e0c8b0a","BADGE_BOUNCERS()":"98ef238a","BADGE_DRUMMERS()":"75b9c015","BADGE_MASTERS()":"b378b448","BADGE_MONKS()":"a7fb03ab","BADGE_RAVERS()":"d944061e","BADGE_ROBOTS()":"0f5f04bf","BADGE_SHINTO()":"4808b109","MOVEMENT_BASED()":"9cc28164","MOVEMENT_BOOSTED()":"b4e7409f","MOVEMENT_NEUTRAL()":"d5def7c2","UPGRADE_INTERFACE_VERSION()":"ad3cb1cc","acceptOwnership()":"79ba5097","approve(address,uint256)":"095ea7b3","badgeBalances(address)":"5c6f8ca3","badgeBalancesV2(address)":"f7da8ce3","badges(uint256)":"98e36d8b","balanceOf(address)":"70a08231","baseURI()":"6c0360eb","blacklist()":"a4b5fa56","call()":"28b5e32b","canMint(bytes,address,uint256)":"b58c439e","getApproved(uint256)":"081812fc","getHash(address,uint256)":"ed05582b","getTokenId(address,uint256)":"29f99b9f","initialize(address,address,address)":"c0c53b8b","initialize(address,string,address,address)":"b8f88d64","isApprovedForAll(address,address)":"e985e9c5","mint(bytes,address,uint256)":"1fcfe19c","mint(bytes,uint256)":"00257612","mintSigner()":"f17af48d","mintTo(address,uint256)":"449a52f8","minted(bytes32)":"8ccc5f80","movementBadges(bytes32,uint256)":"3136964c","movements(address)":"700b1acd","name()":"06fdde03","owner()":"8da5cb5b","ownerOf(uint256)":"6352211e","pendingOwner()":"e30c3978","proxiableUUID()":"52d1902d","recruitmentContract()":"c8860d98","recruitmentLockDuration()":"32c8f504","renounceOwnership()":"715018a6","safeTransferFrom(address,address,uint256)":"42842e0e","safeTransferFrom(address,address,uint256,bytes)":"b88d4fde","setApprovalForAll(address,bool)":"a22cb465","setMovement(address,uint256)":"ff2c26ec","setMovement(uint256)":"2f19062f","setRecruitmentContract(address)":"e84be852","setRecruitmentLockDuration(uint256)":"bacb6d4e","setUri(string)":"9b642de1","startRecruitment(uint256)":"950290c8","supportsInterface(bytes4)":"01ffc9a7","symbol()":"95d89b41","tokenByIndex(uint256)":"4f6ccce7","tokenOfOwnerByIndex(address,uint256)":"2f745c59","tokenURI(uint256)":"c87b56dd","totalBadgeSupply()":"ca0259c0","totalSupply()":"18160ddd","transferFrom(address,address,uint256)":"23b872dd","transferOwnership(address)":"f2fde38b","unlockTimestamps(uint256)":"9224747d","updateBlacklist(address)":"378b5704","updateMintSigner(address)":"f571049b","upgradeToAndCall(address,bytes)":"4f1ef286","userBadges(address,uint256)":"df91cc23","version()":"54fd4d50"},"storageLayout":{"storage":[{"astId":3275,"contract":"test/util/TrailblazerBadgesS1MintTo.sol:TrailblazerBadgesS1MintTo","label":"mintSigner","offset":0,"slot":"0","type":"t_address"},{"astId":3280,"contract":"test/util/TrailblazerBadgesS1MintTo.sol:TrailblazerBadgesS1MintTo","label":"minted","offset":0,"slot":"1","type":"t_mapping(t_bytes32,t_bool)"},{"astId":3284,"contract":"test/util/TrailblazerBadgesS1MintTo.sol:TrailblazerBadgesS1MintTo","label":"blacklist","offset":0,"slot":"2","type":"t_contract(IMinimalBlacklist)19316"},{"astId":3289,"contract":"test/util/TrailblazerBadgesS1MintTo.sol:TrailblazerBadgesS1MintTo","label":"__gap","offset":0,"slot":"3","type":"t_array(t_uint256)47_storage"},{"astId":3593,"contract":"test/util/TrailblazerBadgesS1MintTo.sol:TrailblazerBadgesS1MintTo","label":"_baseURIExtended","offset":0,"slot":"50","type":"t_string_storage"},{"astId":3598,"contract":"test/util/TrailblazerBadgesS1MintTo.sol:TrailblazerBadgesS1MintTo","label":"badges","offset":0,"slot":"51","type":"t_mapping(t_uint256,t_uint256)"},{"astId":3603,"contract":"test/util/TrailblazerBadgesS1MintTo.sol:TrailblazerBadgesS1MintTo","label":"movements","offset":0,"slot":"52","type":"t_mapping(t_address,t_uint256)"},{"astId":3610,"contract":"test/util/TrailblazerBadgesS1MintTo.sol:TrailblazerBadgesS1MintTo","label":"userBadges","offset":0,"slot":"53","type":"t_mapping(t_address,t_mapping(t_uint256,t_uint256))"},{"astId":3617,"contract":"test/util/TrailblazerBadgesS1MintTo.sol:TrailblazerBadgesS1MintTo","label":"movementBadges","offset":0,"slot":"54","type":"t_mapping(t_bytes32,t_array(t_uint256)2_storage)"},{"astId":3622,"contract":"test/util/TrailblazerBadgesS1MintTo.sol:TrailblazerBadgesS1MintTo","label":"__gap","offset":0,"slot":"55","type":"t_array(t_uint256)43_storage"},{"astId":6523,"contract":"test/util/TrailblazerBadgesS1MintTo.sol:TrailblazerBadgesS1MintTo","label":"recruitmentLockDuration","offset":0,"slot":"98","type":"t_uint256"},{"astId":6527,"contract":"test/util/TrailblazerBadgesS1MintTo.sol:TrailblazerBadgesS1MintTo","label":"recruitmentContract","offset":0,"slot":"99","type":"t_contract(BadgeRecruitment)5789"},{"astId":6532,"contract":"test/util/TrailblazerBadgesS1MintTo.sol:TrailblazerBadgesS1MintTo","label":"unlockTimestamps","offset":0,"slot":"100","type":"t_mapping(t_uint256,t_uint256)"}],"types":{"t_address":{"encoding":"inplace","label":"address","numberOfBytes":"20"},"t_array(t_uint256)2_storage":{"encoding":"inplace","label":"uint256[2]","numberOfBytes":"64","base":"t_uint256"},"t_array(t_uint256)43_storage":{"encoding":"inplace","label":"uint256[43]","numberOfBytes":"1376","base":"t_uint256"},"t_array(t_uint256)47_storage":{"encoding":"inplace","label":"uint256[47]","numberOfBytes":"1504","base":"t_uint256"},"t_bool":{"encoding":"inplace","label":"bool","numberOfBytes":"1"},"t_bytes32":{"encoding":"inplace","label":"bytes32","numberOfBytes":"32"},"t_contract(BadgeRecruitment)5789":{"encoding":"inplace","label":"contract BadgeRecruitment","numberOfBytes":"20"},"t_contract(IMinimalBlacklist)19316":{"encoding":"inplace","label":"contract IMinimalBlacklist","numberOfBytes":"20"},"t_mapping(t_address,t_mapping(t_uint256,t_uint256))":{"encoding":"mapping","key":"t_address","label":"mapping(address => mapping(uint256 => uint256))","numberOfBytes":"32","value":"t_mapping(t_uint256,t_uint256)"},"t_mapping(t_address,t_uint256)":{"encoding":"mapping","key":"t_address","label":"mapping(address => uint256)","numberOfBytes":"32","value":"t_uint256"},"t_mapping(t_bytes32,t_array(t_uint256)2_storage)":{"encoding":"mapping","key":"t_bytes32","label":"mapping(bytes32 => uint256[2])","numberOfBytes":"32","value":"t_array(t_uint256)2_storage"},"t_mapping(t_bytes32,t_bool)":{"encoding":"mapping","key":"t_bytes32","label":"mapping(bytes32 => bool)","numberOfBytes":"32","value":"t_bool"},"t_mapping(t_uint256,t_uint256)":{"encoding":"mapping","key":"t_uint256","label":"mapping(uint256 => uint256)","numberOfBytes":"32","value":"t_uint256"},"t_string_storage":{"encoding":"bytes","label":"string","numberOfBytes":"32"},"t_uint256":{"encoding":"inplace","label":"uint256","numberOfBytes":"32"}}},"id":149}