{"abi":[{"type":"constructor","inputs":[],"stateMutability":"nonpayable"},{"type":"function","name":"DEFAULT_ADMIN_ROLE","inputs":[],"outputs":[{"name":"","type":"bytes32","internalType":"bytes32"}],"stateMutability":"view"},{"type":"function","name":"EVENT_MANAGER_ROLE","inputs":[],"outputs":[{"name":"","type":"bytes32","internalType":"bytes32"}],"stateMutability":"view"},{"type":"function","name":"acceptOwnership","inputs":[],"outputs":[],"stateMutability":"nonpayable"},{"type":"function","name":"closeRegistration","inputs":[{"name":"_eventId","type":"uint256","internalType":"uint256"}],"outputs":[],"stateMutability":"nonpayable"},{"type":"function","name":"createEvent","inputs":[{"name":"_name","type":"string","internalType":"string"}],"outputs":[],"stateMutability":"nonpayable"},{"type":"function","name":"events","inputs":[{"name":"eventId","type":"uint256","internalType":"uint256"}],"outputs":[{"name":"id","type":"uint256","internalType":"uint256"},{"name":"name","type":"string","internalType":"string"},{"name":"exists","type":"bool","internalType":"bool"},{"name":"registrationOpen","type":"bool","internalType":"bool"}],"stateMutability":"view"},{"type":"function","name":"getEvent","inputs":[{"name":"_eventId","type":"uint256","internalType":"uint256"}],"outputs":[{"name":"id","type":"uint256","internalType":"uint256"},{"name":"name","type":"string","internalType":"string"},{"name":"registrationOpen_","type":"bool","internalType":"bool"}],"stateMutability":"view"},{"type":"function","name":"getRegisteredEvents","inputs":[{"name":"_user","type":"address","internalType":"address"}],"outputs":[{"name":"","type":"uint256[]","internalType":"uint256[]"}],"stateMutability":"view"},{"type":"function","name":"getRoleAdmin","inputs":[{"name":"role","type":"bytes32","internalType":"bytes32"}],"outputs":[{"name":"","type":"bytes32","internalType":"bytes32"}],"stateMutability":"view"},{"type":"function","name":"grantEventManagerRole","inputs":[{"name":"account","type":"address","internalType":"address"}],"outputs":[],"stateMutability":"nonpayable"},{"type":"function","name":"grantRole","inputs":[{"name":"role","type":"bytes32","internalType":"bytes32"},{"name":"account","type":"address","internalType":"address"}],"outputs":[],"stateMutability":"nonpayable"},{"type":"function","name":"hasRole","inputs":[{"name":"role","type":"bytes32","internalType":"bytes32"},{"name":"account","type":"address","internalType":"address"}],"outputs":[{"name":"","type":"bool","internalType":"bool"}],"stateMutability":"view"},{"type":"function","name":"initialize","inputs":[],"outputs":[],"stateMutability":"nonpayable"},{"type":"function","name":"isRegistered","inputs":[{"name":"eventId","type":"uint256","internalType":"uint256"},{"name":"registrant","type":"address","internalType":"address"}],"outputs":[{"name":"isRegistered","type":"bool","internalType":"bool"}],"stateMutability":"view"},{"type":"function","name":"openRegistration","inputs":[{"name":"_eventId","type":"uint256","internalType":"uint256"}],"outputs":[],"stateMutability":"nonpayable"},{"type":"function","name":"owner","inputs":[],"outputs":[{"name":"","type":"address","internalType":"address"}],"stateMutability":"view"},{"type":"function","name":"pendingOwner","inputs":[],"outputs":[{"name":"","type":"address","internalType":"address"}],"stateMutability":"view"},{"type":"function","name":"register","inputs":[{"name":"_eventId","type":"uint256","internalType":"uint256"}],"outputs":[],"stateMutability":"nonpayable"},{"type":"function","name":"renounceOwnership","inputs":[],"outputs":[],"stateMutability":"nonpayable"},{"type":"function","name":"renounceRole","inputs":[{"name":"role","type":"bytes32","internalType":"bytes32"},{"name":"callerConfirmation","type":"address","internalType":"address"}],"outputs":[],"stateMutability":"nonpayable"},{"type":"function","name":"revokeEventManagerRole","inputs":[{"name":"account","type":"address","internalType":"address"}],"outputs":[],"stateMutability":"nonpayable"},{"type":"function","name":"revokeRole","inputs":[{"name":"role","type":"bytes32","internalType":"bytes32"},{"name":"account","type":"address","internalType":"address"}],"outputs":[],"stateMutability":"nonpayable"},{"type":"function","name":"supportsInterface","inputs":[{"name":"interfaceId","type":"bytes4","internalType":"bytes4"}],"outputs":[{"name":"","type":"bool","internalType":"bool"}],"stateMutability":"view"},{"type":"function","name":"transferOwnership","inputs":[{"name":"newOwner","type":"address","internalType":"address"}],"outputs":[],"stateMutability":"nonpayable"},{"type":"function","name":"unregister","inputs":[{"name":"_eventId","type":"uint256","internalType":"uint256"},{"name":"_user","type":"address","internalType":"address"}],"outputs":[],"stateMutability":"nonpayable"},{"type":"event","name":"EventCreated","inputs":[{"name":"id","type":"uint256","indexed":false,"internalType":"uint256"},{"name":"name","type":"string","indexed":false,"internalType":"string"}],"anonymous":false},{"type":"event","name":"Initialized","inputs":[{"name":"version","type":"uint64","indexed":false,"internalType":"uint64"}],"anonymous":false},{"type":"event","name":"OwnershipTransferStarted","inputs":[{"name":"previousOwner","type":"address","indexed":true,"internalType":"address"},{"name":"newOwner","type":"address","indexed":true,"internalType":"address"}],"anonymous":false},{"type":"event","name":"OwnershipTransferred","inputs":[{"name":"previousOwner","type":"address","indexed":true,"internalType":"address"},{"name":"newOwner","type":"address","indexed":true,"internalType":"address"}],"anonymous":false},{"type":"event","name":"Registered","inputs":[{"name":"registrant","type":"address","indexed":true,"internalType":"address"},{"name":"eventId","type":"uint256","indexed":false,"internalType":"uint256"}],"anonymous":false},{"type":"event","name":"RegistrationClosed","inputs":[{"name":"eventId","type":"uint256","indexed":false,"internalType":"uint256"}],"anonymous":false},{"type":"event","name":"RegistrationOpened","inputs":[{"name":"eventId","type":"uint256","indexed":false,"internalType":"uint256"}],"anonymous":false},{"type":"event","name":"RoleAdminChanged","inputs":[{"name":"role","type":"bytes32","indexed":true,"internalType":"bytes32"},{"name":"previousAdminRole","type":"bytes32","indexed":true,"internalType":"bytes32"},{"name":"newAdminRole","type":"bytes32","indexed":true,"internalType":"bytes32"}],"anonymous":false},{"type":"event","name":"RoleGranted","inputs":[{"name":"role","type":"bytes32","indexed":true,"internalType":"bytes32"},{"name":"account","type":"address","indexed":true,"internalType":"address"},{"name":"sender","type":"address","indexed":true,"internalType":"address"}],"anonymous":false},{"type":"event","name":"RoleRevoked","inputs":[{"name":"role","type":"bytes32","indexed":true,"internalType":"bytes32"},{"name":"account","type":"address","indexed":true,"internalType":"address"},{"name":"sender","type":"address","indexed":true,"internalType":"address"}],"anonymous":false},{"type":"event","name":"Unregistered","inputs":[{"name":"registrant","type":"address","indexed":true,"internalType":"address"},{"name":"eventId","type":"uint256","indexed":false,"internalType":"uint256"}],"anonymous":false},{"type":"error","name":"AccessControlBadConfirmation","inputs":[]},{"type":"error","name":"AccessControlUnauthorizedAccount","inputs":[{"name":"account","type":"address","internalType":"address"},{"name":"neededRole","type":"bytes32","internalType":"bytes32"}]},{"type":"error","name":"InvalidInitialization","inputs":[]},{"type":"error","name":"NotInitializing","inputs":[]},{"type":"error","name":"OwnableInvalidOwner","inputs":[{"name":"owner","type":"address","internalType":"address"}]},{"type":"error","name":"OwnableUnauthorizedAccount","inputs":[{"name":"account","type":"address","internalType":"address"}]}],"bytecode":{"object":"0x608060405234801561000f575f80fd5b5061001a5f33610020565b506100ee565b5f8281527f02dd7bc7dec4dceedda775e58dd541e08a116c6c53815c0bd028192f7b626800602081815260408084206001600160a01b038616855290915282205460ff166100e3575f848152602082815260408083206001600160a01b03871684529091529020805460ff191660011790556100993390565b6001600160a01b0316836001600160a01b0316857f2f8788117e7eff1d82e926ec794901d17c78024a50270940304540a733656f0d60405160405180910390a460019150506100e8565b5f9150505b92915050565b611879806100fb5f395ff3fe608060405234801561000f575f80fd5b506004361061016d575f3560e01c806391d14854116100d9578063cca84a0c11610093578063e30c39781161006e578063e30c39781461034c578063ee69654a14610354578063f207564e14610367578063f2fde38b1461037a575f80fd5b8063cca84a0c14610313578063d547741f14610326578063da24490814610339575f80fd5b806391d14854146102865780639bc2bc7114610299578063a217fddf146102ac578063a903b497146102b3578063ab31803f146102c6578063b81f6e18146102e6575f80fd5b80635e54a1401161012a5780635e54a140146102195780636d1884e01461022c578063715018a61461024e57806379ba5097146102565780638129fc1c1461025e5780638da5cb5b14610266575f80fd5b806301ffc9a7146101715780630b79143014610199578063248a9ca3146101bc5780632f2ff15d146101dd57806336568abe146101f25780635948687314610205575b5f80fd5b61018461017f366004611404565b61038d565b60405190151581526020015b60405180910390f35b6101ac6101a7366004611432565b6103c3565b604051610190949392919061148c565b6101cf6101ca366004611432565b610477565b604051908152602001610190565b6101f06101eb3660046114d7565b610497565b005b6101f06102003660046114d7565b6104b9565b6101cf5f8051602061180483398151915281565b6101f0610227366004611432565b6104f1565b61023f61023a366004611432565b6105e7565b60405161019093929190611501565b6101f0610712565b6101f0610725565b6101f061076d565b61026e61089a565b6040516001600160a01b039091168152602001610190565b6101846102943660046114d7565b6108ce565b6101f06102a736600461153f565b610904565b6101cf5f81565b6101f06102c13660046115ea565b610a21565b6102d96102d43660046115ea565b610a46565b6040516101909190611603565b6101846102f43660046114d7565b600160209081525f928352604080842090915290825290205460ff1681565b6101f0610321366004611432565b610b94565b6101f06103343660046114d7565b610c7f565b6101f06103473660046115ea565b610c9b565b61026e610cbc565b6101f06103623660046114d7565b610ce4565b6101f0610375366004611432565b610efe565b6101f06103883660046115ea565b6110f7565b5f6001600160e01b03198216637965db0b60e01b14806103bd57506301ffc9a760e01b6001600160e01b03198316145b92915050565b5f60208190529081526040902080546001820180549192916103e490611646565b80601f016020809104026020016040519081016040528092919081815260200182805461041090611646565b801561045b5780601f106104325761010080835404028352916020019161045b565b820191905f5260205f20905b81548152906001019060200180831161043e57829003601f168201915b5050506002909301549192505060ff8082169161010090041684565b5f9081525f80516020611824833981519152602052604090206001015490565b6104a082610477565b6104a98161117c565b6104b38383611186565b50505050565b6001600160a01b03811633146104e25760405163334bd91960e11b815260040160405180910390fd5b6104ec8282611227565b505050565b5f805160206118048339815191526105088161117c565b5f8281526020819052604090206002015460ff166105415760405162461bcd60e51b81526004016105389061167e565b60405180910390fd5b5f82815260208190526040902060020154610100900460ff166105975760405162461bcd60e51b815260206004820152600e60248201526d105b1c9958591e4818db1bdcd95960921b6044820152606401610538565b5f8281526020818152604091829020600201805461ff001916905590518381527f383b6ce38b867405b4f42fa404692e07842868068badd063c9bfeb0e7f263f6291015b60405180910390a15050565b5f81815260208190526040812060020154606090829060ff1661061c5760405162461bcd60e51b81526004016105389061167e565b5f805f8681526020019081526020015f206040518060800160405290815f820154815260200160018201805461065190611646565b80601f016020809104026020016040519081016040528092919081815260200182805461067d90611646565b80156106c85780601f1061069f576101008083540402835291602001916106c8565b820191905f5260205f20905b8154815290600101906020018083116106ab57829003601f168201915b50505091835250506002919091015460ff80821615156020808501919091526101009092041615156040909201919091528151908201516060909201519097919650945092505050565b61071a6112a0565b6107235f6112d2565b565b338061072f610cbc565b6001600160a01b0316146107615760405163118cdaa760e01b81526001600160a01b0382166004820152602401610538565b61076a816112d2565b50565b7ff0c57e16840df040f15088dc2f81fe391c3923bec73e23a9662efc9c229c6a008054600160401b810460ff16159067ffffffffffffffff165f811580156107b25750825b90505f8267ffffffffffffffff1660011480156107ce5750303b155b9050811580156107dc575080155b156107fa5760405163f92ee8a960e01b815260040160405180910390fd5b845467ffffffffffffffff19166001178555831561082457845460ff60401b1916600160401b1785555b61082c61130a565b6108435f8051602061180483398151915233611186565b5061084d336112d2565b831561089357845460ff60401b19168555604051600181527fc7f505b2f371ae2175ee4913f4499e1f2633a7b5936321eed1cdaeb6115181d29060200160405180910390a15b5050505050565b5f807f9016d09d72d40fdae2fd8ceac6b6234c7706214fd39c1cd1e609a0528c1993005b546001600160a01b031692915050565b5f9182525f80516020611824833981519152602090815260408084206001600160a01b0393909316845291905290205460ff1690565b5f8051602061180483398151915261091b8161117c565b6002546040805160808101825282815260208082018681526001838501819052606084018190525f8681529283905293909120825181559051919290919082019061096690826116eb565b506040828101516002909201805460609094015115156101000261ff00199315159390931661ffff199094169390931791909117909155517f9ce3d6db707bca4ba0eabed8fba1e2c013a1c0bc1132a764170a7854d198c73d906109cd90839086906117ab565b60405180910390a16040518181527fe0a3eabfba8d6b242de244fdd6f0372ee66d472686b2cfd89420ef24c04622019060200160405180910390a160028054905f610a17836117cb565b9190505550505050565b5f610a2b8161117c565b610a425f8051602061180483398151915283610497565b5050565b60605f60025467ffffffffffffffff811115610a6457610a6461152b565b604051908082528060200260200182016040528015610a8d578160200160208202803683370190505b5090505f805b600254811015610afb575f8181526001602090815260408083206001600160a01b038916845290915290205460ff1615610af35780838381518110610ada57610ada6117ef565b602090810291909101015281610aef816117cb565b9250505b600101610a93565b505f8167ffffffffffffffff811115610b1657610b1661152b565b604051908082528060200260200182016040528015610b3f578160200160208202803683370190505b5090505f5b82811015610b8b57838181518110610b5e57610b5e6117ef565b6020026020010151828281518110610b7857610b786117ef565b6020908102919091010152600101610b44565b50949350505050565b5f80516020611804833981519152610bab8161117c565b5f8281526020819052604090206002015460ff16610bdb5760405162461bcd60e51b81526004016105389061167e565b5f82815260208190526040902060020154610100900460ff1615610c305760405162461bcd60e51b815260206004820152600c60248201526b20b63932b0b23c9037b832b760a11b6044820152606401610538565b5f8281526020819052604090819020600201805461ff001916610100179055517fe0a3eabfba8d6b242de244fdd6f0372ee66d472686b2cfd89420ef24c0462201906105db9084815260200190565b610c8882610477565b610c918161117c565b6104b38383611227565b5f610ca58161117c565b610a425f8051602061180483398151915283610c7f565b5f807f237e158222e3e6968b72b9db0d8043aacf074ad9f650f0d1606b4d82ee432c006108be565b5f80516020611804833981519152610cfb8161117c565b5f805f8581526020019081526020015f206040518060800160405290815f8201548152602001600182018054610d3090611646565b80601f0160208091040260200160405190810160405280929190818152602001828054610d5c90611646565b8015610da75780601f10610d7e57610100808354040283529160200191610da7565b820191905f5260205f20905b815481529060010190602001808311610d8a57829003601f168201915b50505091835250506002919091015460ff80821615156020840152610100909104161515604091820152810151909150610df35760405162461bcd60e51b81526004016105389061167e565b8060600151610e3b5760405162461bcd60e51b8152602060048201526014602482015273149959da5cdd1c985d1a5bdb9cc818db1bdcd95960621b6044820152606401610538565b5f8481526001602090815260408083206001600160a01b038716845290915290205460ff16610e9d5760405162461bcd60e51b815260206004820152600e60248201526d139bdd081c9959da5cdd195c995960921b6044820152606401610538565b5f8481526001602090815260408083206001600160a01b03871680855290835292819020805460ff19169055518681527f15f7469572dc44ee54c08cc4adf4e1031d7b6254626e8894015195a560039d09910160405180910390a250505050565b5f805f8381526020019081526020015f206040518060800160405290815f8201548152602001600182018054610f3390611646565b80601f0160208091040260200160405190810160405280929190818152602001828054610f5f90611646565b8015610faa5780601f10610f8157610100808354040283529160200191610faa565b820191905f5260205f20905b815481529060010190602001808311610f8d57829003601f168201915b50505091835250506002919091015460ff80821615156020840152610100909104161515604091820152810151909150610ff65760405162461bcd60e51b81526004016105389061167e565b806060015161103e5760405162461bcd60e51b8152602060048201526014602482015273149959da5cdd1c985d1a5bdb9cc818db1bdcd95960621b6044820152606401610538565b5f82815260016020908152604080832033845290915290205460ff161561109c5760405162461bcd60e51b8152602060048201526012602482015271105b1c9958591e481c9959da5cdd195c995960721b6044820152606401610538565b5f8281526001602081815260408084203380865290835293819020805460ff191690931790925590518481527f6f3bf3fa84e4763a43b3d23f9d79be242d6d5c834941ff4c1111b67469e1150c910160405180910390a25050565b6110ff6112a0565b7f237e158222e3e6968b72b9db0d8043aacf074ad9f650f0d1606b4d82ee432c0080546001600160a01b0319166001600160a01b038316908117825561114361089a565b6001600160a01b03167f38d16b8cac22d99fc7c124b9cd0de2d3fa1faef420bfe791d8c362d765e2270060405160405180910390a35050565b61076a8133611312565b5f5f8051602061182483398151915261119f84846108ce565b61121e575f848152602082815260408083206001600160a01b03871684529091529020805460ff191660011790556111d43390565b6001600160a01b0316836001600160a01b0316857f2f8788117e7eff1d82e926ec794901d17c78024a50270940304540a733656f0d60405160405180910390a460019150506103bd565b5f9150506103bd565b5f5f8051602061182483398151915261124084846108ce565b1561121e575f848152602082815260408083206001600160a01b0387168085529252808320805460ff1916905551339287917ff6391f5c32d9c69d2a47ea670b442974b53935d1edc7fd64eb21e047a839171b9190a460019150506103bd565b336112a961089a565b6001600160a01b0316146107235760405163118cdaa760e01b8152336004820152602401610538565b7f237e158222e3e6968b72b9db0d8043aacf074ad9f650f0d1606b4d82ee432c0080546001600160a01b0319168155610a428261134b565b6107236113bb565b61131c82826108ce565b610a425760405163e2517d3f60e01b81526001600160a01b038216600482015260248101839052604401610538565b7f9016d09d72d40fdae2fd8ceac6b6234c7706214fd39c1cd1e609a0528c19930080546001600160a01b031981166001600160a01b03848116918217845560405192169182907f8be0079c531659141344cd1fd0a4f28419497f9722a3daafe3b4186f6b6457e0905f90a3505050565b7ff0c57e16840df040f15088dc2f81fe391c3923bec73e23a9662efc9c229c6a0054600160401b900460ff1661072357604051631afcd79f60e31b815260040160405180910390fd5b5f60208284031215611414575f80fd5b81356001600160e01b03198116811461142b575f80fd5b9392505050565b5f60208284031215611442575f80fd5b5035919050565b5f81518084525f5b8181101561146d57602081850181015186830182015201611451565b505f602082860101526020601f19601f83011685010191505092915050565b848152608060208201525f6114a46080830186611449565b93151560408301525090151560609091015292915050565b80356001600160a01b03811681146114d2575f80fd5b919050565b5f80604083850312156114e8575f80fd5b823591506114f8602084016114bc565b90509250929050565b838152606060208201525f6115196060830185611449565b90508215156040830152949350505050565b634e487b7160e01b5f52604160045260245ffd5b5f6020828403121561154f575f80fd5b813567ffffffffffffffff80821115611566575f80fd5b818401915084601f830112611579575f80fd5b81358181111561158b5761158b61152b565b604051601f8201601f19908116603f011681019083821181831017156115b3576115b361152b565b816040528281528760208487010111156115cb575f80fd5b826020860160208301375f928101602001929092525095945050505050565b5f602082840312156115fa575f80fd5b61142b826114bc565b602080825282518282018190525f9190848201906040850190845b8181101561163a5783518352928401929184019160010161161e565b50909695505050505050565b600181811c9082168061165a57607f821691505b60208210810361167857634e487b7160e01b5f52602260045260245ffd5b50919050565b6020808252600f908201526e115d995b9d081b9bdd08199bdd5b99608a1b604082015260600190565b601f8211156104ec57805f5260205f20601f840160051c810160208510156116cc5750805b601f840160051c820191505b81811015610893575f81556001016116d8565b815167ffffffffffffffff8111156117055761170561152b565b611719816117138454611646565b846116a7565b602080601f83116001811461174c575f84156117355750858301515b5f19600386901b1c1916600185901b1785556117a3565b5f85815260208120601f198616915b8281101561177a5788860151825594840194600190910190840161175b565b508582101561179757878501515f19600388901b60f8161c191681555b505060018460011b0185555b505050505050565b828152604060208201525f6117c36040830184611449565b949350505050565b5f600182016117e857634e487b7160e01b5f52601160045260245ffd5b5060010190565b634e487b7160e01b5f52603260045260245ffdfea961ef34a96635180dfffd0ae574060d6c6af619ce89175a103711bf5ce8270802dd7bc7dec4dceedda775e58dd541e08a116c6c53815c0bd028192f7b626800a26469706673582212204b6cf6da73b99d16e9341bbb70a52a090f5d009be2244e5c78bc266c08afe3ff64736f6c63430008180033","linkReferences":{}},"methodIdentifiers":{"DEFAULT_ADMIN_ROLE()":"a217fddf","EVENT_MANAGER_ROLE()":"59486873","acceptOwnership()":"79ba5097","closeRegistration(uint256)":"5e54a140","createEvent(string)":"9bc2bc71","events(uint256)":"0b791430","getEvent(uint256)":"6d1884e0","getRegisteredEvents(address)":"ab31803f","getRoleAdmin(bytes32)":"248a9ca3","grantEventManagerRole(address)":"a903b497","grantRole(bytes32,address)":"2f2ff15d","hasRole(bytes32,address)":"91d14854","initialize()":"8129fc1c","isRegistered(uint256,address)":"b81f6e18","openRegistration(uint256)":"cca84a0c","owner()":"8da5cb5b","pendingOwner()":"e30c3978","register(uint256)":"f207564e","renounceOwnership()":"715018a6","renounceRole(bytes32,address)":"36568abe","revokeEventManagerRole(address)":"da244908","revokeRole(bytes32,address)":"d547741f","supportsInterface(bytes4)":"01ffc9a7","transferOwnership(address)":"f2fde38b","unregister(uint256,address)":"ee69654a"},"storageLayout":{"storage":[{"astId":36,"contract":"contracts/eventRegister/EventRegister.sol:EventRegister","label":"events","offset":0,"slot":"0","type":"t_mapping(t_uint256,t_struct(Event)30_storage)"},{"astId":43,"contract":"contracts/eventRegister/EventRegister.sol:EventRegister","label":"isRegistered","offset":0,"slot":"1","type":"t_mapping(t_uint256,t_mapping(t_address,t_bool))"},{"astId":77,"contract":"contracts/eventRegister/EventRegister.sol:EventRegister","label":"nextEventId","offset":0,"slot":"2","type":"t_uint256"}],"types":{"t_address":{"encoding":"inplace","label":"address","numberOfBytes":"20"},"t_bool":{"encoding":"inplace","label":"bool","numberOfBytes":"1"},"t_mapping(t_address,t_bool)":{"encoding":"mapping","key":"t_address","label":"mapping(address => bool)","numberOfBytes":"32","value":"t_bool"},"t_mapping(t_uint256,t_mapping(t_address,t_bool))":{"encoding":"mapping","key":"t_uint256","label":"mapping(uint256 => mapping(address => bool))","numberOfBytes":"32","value":"t_mapping(t_address,t_bool)"},"t_mapping(t_uint256,t_struct(Event)30_storage)":{"encoding":"mapping","key":"t_uint256","label":"mapping(uint256 => struct EventRegister.Event)","numberOfBytes":"32","value":"t_struct(Event)30_storage"},"t_string_storage":{"encoding":"bytes","label":"string","numberOfBytes":"32"},"t_struct(Event)30_storage":{"encoding":"inplace","label":"struct EventRegister.Event","numberOfBytes":"96","members":[{"astId":20,"contract":"contracts/eventRegister/EventRegister.sol:EventRegister","label":"id","offset":0,"slot":"0","type":"t_uint256"},{"astId":23,"contract":"contracts/eventRegister/EventRegister.sol:EventRegister","label":"name","offset":0,"slot":"1","type":"t_string_storage"},{"astId":26,"contract":"contracts/eventRegister/EventRegister.sol:EventRegister","label":"exists","offset":0,"slot":"2","type":"t_bool"},{"astId":29,"contract":"contracts/eventRegister/EventRegister.sol:EventRegister","label":"registrationOpen","offset":1,"slot":"2","type":"t_bool"}]},"t_uint256":{"encoding":"inplace","label":"uint256","numberOfBytes":"32"}}},"id":0}