{"abi":[{"type":"function","name":"alreadyRegistered","inputs":[{"name":"","type":"address","internalType":"address"}],"outputs":[{"name":"","type":"bool","internalType":"bool"}],"stateMutability":"view"},{"type":"function","name":"register","inputs":[],"outputs":[],"stateMutability":"nonpayable"},{"type":"event","name":"Registered","inputs":[{"name":"registrant","type":"address","indexed":false,"internalType":"address"}],"anonymous":false}],"bytecode":{"object":"0x608060405234801561000f575f80fd5b5061018b8061001d5f395ff3fe608060405234801561000f575f80fd5b5060043610610034575f3560e01c80631aa3a0081461003857806356e49d6114610042575b5f80fd5b610040610078565b005b610064610050366004610128565b5f6020819052908152604090205460ff1681565b604051901515815260200160405180910390f35b335f9081526020819052604090205460ff16156100db5760405162461bcd60e51b815260206004820152601a60248201527f4164647265737320616c72656164792072656769737465726564000000000000604482015260640160405180910390fd5b335f8181526020818152604091829020805460ff1916600117905590519182527f2d3734a8e47ac8316e500ac231c90a6e1848ca2285f40d07eaa52005e4b3a0e9910160405180910390a1565b5f60208284031215610138575f80fd5b81356001600160a01b038116811461014e575f80fd5b939250505056fea2646970667358221220a4dd3eb94e97e48d2f364111b9bca6fdb6ce5b847a7eeafba271aadd8408168864736f6c63430008180033","linkReferences":{}},"methodIdentifiers":{"alreadyRegistered(address)":"56e49d61","register()":"1aa3a008"},"storageLayout":{"storage":[{"astId":485,"contract":"contracts/galxe/RegisterGalxePoints.sol:RegisterGalxePoints","label":"alreadyRegistered","offset":0,"slot":"0","type":"t_mapping(t_address,t_bool)"}],"types":{"t_address":{"encoding":"inplace","label":"address","numberOfBytes":"20"},"t_bool":{"encoding":"inplace","label":"bool","numberOfBytes":"1"},"t_mapping(t_address,t_bool)":{"encoding":"mapping","key":"t_address","label":"mapping(address => bool)","numberOfBytes":"32","value":"t_bool"}}},"id":1}