{"abi":[{"type":"function","name":"UPGRADE_INTERFACE_VERSION","inputs":[],"outputs":[{"name":"","type":"string","internalType":"string"}],"stateMutability":"view"},{"type":"function","name":"acceptOwnership","inputs":[],"outputs":[],"stateMutability":"nonpayable"},{"type":"function","name":"approve","inputs":[{"name":"to","type":"address","internalType":"address"},{"name":"tokenId","type":"uint256","internalType":"uint256"}],"outputs":[],"stateMutability":"nonpayable"},{"type":"function","name":"balanceOf","inputs":[{"name":"owner","type":"address","internalType":"address"}],"outputs":[{"name":"","type":"uint256","internalType":"uint256"}],"stateMutability":"view"},{"type":"function","name":"canMint","inputs":[{"name":"_minter","type":"address","internalType":"address"},{"name":"_maxMints","type":"uint256","internalType":"uint256"}],"outputs":[{"name":"","type":"bool","internalType":"bool"}],"stateMutability":"view"},{"type":"function","name":"getApproved","inputs":[{"name":"tokenId","type":"uint256","internalType":"uint256"}],"outputs":[{"name":"","type":"address","internalType":"address"}],"stateMutability":"view"},{"type":"function","name":"initialize","inputs":[{"name":"_owner","type":"address","internalType":"address"},{"name":"_root","type":"bytes32","internalType":"bytes32"}],"outputs":[],"stateMutability":"nonpayable"},{"type":"function","name":"initialize","inputs":[{"name":"_owner","type":"address","internalType":"address"},{"name":"_rootURI","type":"string","internalType":"string"},{"name":"_merkleRoot","type":"bytes32","internalType":"bytes32"}],"outputs":[],"stateMutability":"nonpayable"},{"type":"function","name":"isApprovedForAll","inputs":[{"name":"owner","type":"address","internalType":"address"},{"name":"operator","type":"address","internalType":"address"}],"outputs":[{"name":"","type":"bool","internalType":"bool"}],"stateMutability":"view"},{"type":"function","name":"leaf","inputs":[{"name":"_minter","type":"address","internalType":"address"},{"name":"_maxMints","type":"uint256","internalType":"uint256"}],"outputs":[{"name":"","type":"bytes32","internalType":"bytes32"}],"stateMutability":"pure"},{"type":"function","name":"mint","inputs":[{"name":"_to","type":"address","internalType":"address"},{"name":"_amount","type":"uint256","internalType":"uint256"}],"outputs":[{"name":"","type":"uint256[]","internalType":"uint256[]"}],"stateMutability":"nonpayable"},{"type":"function","name":"mint","inputs":[{"name":"_proof","type":"bytes32[]","internalType":"bytes32[]"},{"name":"_maxMints","type":"uint256","internalType":"uint256"}],"outputs":[{"name":"","type":"uint256[]","internalType":"uint256[]"}],"stateMutability":"nonpayable"},{"type":"function","name":"minted","inputs":[{"name":"leaf","type":"bytes32","internalType":"bytes32"}],"outputs":[{"name":"hasMinted","type":"bool","internalType":"bool"}],"stateMutability":"view"},{"type":"function","name":"name","inputs":[],"outputs":[{"name":"","type":"string","internalType":"string"}],"stateMutability":"view"},{"type":"function","name":"owner","inputs":[],"outputs":[{"name":"","type":"address","internalType":"address"}],"stateMutability":"view"},{"type":"function","name":"ownerOf","inputs":[{"name":"tokenId","type":"uint256","internalType":"uint256"}],"outputs":[{"name":"","type":"address","internalType":"address"}],"stateMutability":"view"},{"type":"function","name":"pendingOwner","inputs":[],"outputs":[{"name":"","type":"address","internalType":"address"}],"stateMutability":"view"},{"type":"function","name":"proxiableUUID","inputs":[],"outputs":[{"name":"","type":"bytes32","internalType":"bytes32"}],"stateMutability":"view"},{"type":"function","name":"renounceOwnership","inputs":[],"outputs":[],"stateMutability":"nonpayable"},{"type":"function","name":"root","inputs":[],"outputs":[{"name":"","type":"bytes32","internalType":"bytes32"}],"stateMutability":"view"},{"type":"function","name":"safeTransferFrom","inputs":[{"name":"from","type":"address","internalType":"address"},{"name":"to","type":"address","internalType":"address"},{"name":"tokenId","type":"uint256","internalType":"uint256"}],"outputs":[],"stateMutability":"nonpayable"},{"type":"function","name":"safeTransferFrom","inputs":[{"name":"from","type":"address","internalType":"address"},{"name":"to","type":"address","internalType":"address"},{"name":"tokenId","type":"uint256","internalType":"uint256"},{"name":"data","type":"bytes","internalType":"bytes"}],"outputs":[],"stateMutability":"nonpayable"},{"type":"function","name":"setApprovalForAll","inputs":[{"name":"operator","type":"address","internalType":"address"},{"name":"approved","type":"bool","internalType":"bool"}],"outputs":[],"stateMutability":"nonpayable"},{"type":"function","name":"supportsInterface","inputs":[{"name":"interfaceId","type":"bytes4","internalType":"bytes4"}],"outputs":[{"name":"","type":"bool","internalType":"bool"}],"stateMutability":"view"},{"type":"function","name":"symbol","inputs":[],"outputs":[{"name":"","type":"string","internalType":"string"}],"stateMutability":"view"},{"type":"function","name":"tokenByIndex","inputs":[{"name":"index","type":"uint256","internalType":"uint256"}],"outputs":[{"name":"","type":"uint256","internalType":"uint256"}],"stateMutability":"view"},{"type":"function","name":"tokenOfOwnerByIndex","inputs":[{"name":"owner","type":"address","internalType":"address"},{"name":"index","type":"uint256","internalType":"uint256"}],"outputs":[{"name":"","type":"uint256","internalType":"uint256"}],"stateMutability":"view"},{"type":"function","name":"tokenURI","inputs":[{"name":"","type":"uint256","internalType":"uint256"}],"outputs":[{"name":"","type":"string","internalType":"string"}],"stateMutability":"view"},{"type":"function","name":"totalSupply","inputs":[],"outputs":[{"name":"","type":"uint256","internalType":"uint256"}],"stateMutability":"view"},{"type":"function","name":"transferFrom","inputs":[{"name":"from","type":"address","internalType":"address"},{"name":"to","type":"address","internalType":"address"},{"name":"tokenId","type":"uint256","internalType":"uint256"}],"outputs":[],"stateMutability":"nonpayable"},{"type":"function","name":"transferOwnership","inputs":[{"name":"newOwner","type":"address","internalType":"address"}],"outputs":[],"stateMutability":"nonpayable"},{"type":"function","name":"updateRoot","inputs":[{"name":"_root","type":"bytes32","internalType":"bytes32"}],"outputs":[],"stateMutability":"nonpayable"},{"type":"function","name":"upgradeToAndCall","inputs":[{"name":"newImplementation","type":"address","internalType":"address"},{"name":"data","type":"bytes","internalType":"bytes"}],"outputs":[],"stateMutability":"payable"},{"type":"event","name":"Approval","inputs":[{"name":"owner","type":"address","indexed":true,"internalType":"address"},{"name":"approved","type":"address","indexed":true,"internalType":"address"},{"name":"tokenId","type":"uint256","indexed":true,"internalType":"uint256"}],"anonymous":false},{"type":"event","name":"ApprovalForAll","inputs":[{"name":"owner","type":"address","indexed":true,"internalType":"address"},{"name":"operator","type":"address","indexed":true,"internalType":"address"},{"name":"approved","type":"bool","indexed":false,"internalType":"bool"}],"anonymous":false},{"type":"event","name":"Initialized","inputs":[{"name":"version","type":"uint64","indexed":false,"internalType":"uint64"}],"anonymous":false},{"type":"event","name":"MintConsumed","inputs":[{"name":"_minter","type":"address","indexed":false,"internalType":"address"},{"name":"_mintAmount","type":"uint256","indexed":false,"internalType":"uint256"}],"anonymous":false},{"type":"event","name":"OwnershipTransferStarted","inputs":[{"name":"previousOwner","type":"address","indexed":true,"internalType":"address"},{"name":"newOwner","type":"address","indexed":true,"internalType":"address"}],"anonymous":false},{"type":"event","name":"OwnershipTransferred","inputs":[{"name":"previousOwner","type":"address","indexed":true,"internalType":"address"},{"name":"newOwner","type":"address","indexed":true,"internalType":"address"}],"anonymous":false},{"type":"event","name":"RootUpdated","inputs":[{"name":"_root","type":"bytes32","indexed":false,"internalType":"bytes32"}],"anonymous":false},{"type":"event","name":"Transfer","inputs":[{"name":"from","type":"address","indexed":true,"internalType":"address"},{"name":"to","type":"address","indexed":true,"internalType":"address"},{"name":"tokenId","type":"uint256","indexed":true,"internalType":"uint256"}],"anonymous":false},{"type":"event","name":"Upgraded","inputs":[{"name":"implementation","type":"address","indexed":true,"internalType":"address"}],"anonymous":false},{"type":"error","name":"AddressEmptyCode","inputs":[{"name":"target","type":"address","internalType":"address"}]},{"type":"error","name":"ERC1967InvalidImplementation","inputs":[{"name":"implementation","type":"address","internalType":"address"}]},{"type":"error","name":"ERC1967NonPayable","inputs":[]},{"type":"error","name":"ERC721EnumerableForbiddenBatchMint","inputs":[]},{"type":"error","name":"ERC721IncorrectOwner","inputs":[{"name":"sender","type":"address","internalType":"address"},{"name":"tokenId","type":"uint256","internalType":"uint256"},{"name":"owner","type":"address","internalType":"address"}]},{"type":"error","name":"ERC721InsufficientApproval","inputs":[{"name":"operator","type":"address","internalType":"address"},{"name":"tokenId","type":"uint256","internalType":"uint256"}]},{"type":"error","name":"ERC721InvalidApprover","inputs":[{"name":"approver","type":"address","internalType":"address"}]},{"type":"error","name":"ERC721InvalidOperator","inputs":[{"name":"operator","type":"address","internalType":"address"}]},{"type":"error","name":"ERC721InvalidOwner","inputs":[{"name":"owner","type":"address","internalType":"address"}]},{"type":"error","name":"ERC721InvalidReceiver","inputs":[{"name":"receiver","type":"address","internalType":"address"}]},{"type":"error","name":"ERC721InvalidSender","inputs":[{"name":"sender","type":"address","internalType":"address"}]},{"type":"error","name":"ERC721NonexistentToken","inputs":[{"name":"tokenId","type":"uint256","internalType":"uint256"}]},{"type":"error","name":"ERC721OutOfBoundsIndex","inputs":[{"name":"owner","type":"address","internalType":"address"},{"name":"index","type":"uint256","internalType":"uint256"}]},{"type":"error","name":"FailedInnerCall","inputs":[]},{"type":"error","name":"INVALID_PROOF","inputs":[]},{"type":"error","name":"INVALID_TOKEN_AMOUNT","inputs":[]},{"type":"error","name":"InvalidInitialization","inputs":[]},{"type":"error","name":"MAX_MINTS_EXCEEDED","inputs":[]},{"type":"error","name":"MAX_SUPPLY_REACHED","inputs":[]},{"type":"error","name":"MINTER_NOT_WHITELISTED","inputs":[]},{"type":"error","name":"MINTS_EXCEEDED","inputs":[]},{"type":"error","name":"NotInitializing","inputs":[]},{"type":"error","name":"OwnableInvalidOwner","inputs":[{"name":"owner","type":"address","internalType":"address"}]},{"type":"error","name":"OwnableUnauthorizedAccount","inputs":[{"name":"account","type":"address","internalType":"address"}]},{"type":"error","name":"TOKEN_NOT_MINTED","inputs":[]},{"type":"error","name":"UUPSUnauthorizedCallContext","inputs":[]},{"type":"error","name":"UUPSUnsupportedProxiableUUID","inputs":[{"name":"slot","type":"bytes32","internalType":"bytes32"}]}],"bytecode":{"object":"0x60a06040523060805234801562000014575f80fd5b506200001f62000025565b620000d9565b7ff0c57e16840df040f15088dc2f81fe391c3923bec73e23a9662efc9c229c6a00805468010000000000000000900460ff1615620000765760405163f92ee8a960e01b815260040160405180910390fd5b80546001600160401b0390811614620000d65780546001600160401b0319166001600160401b0390811782556040519081527fc7f505b2f371ae2175ee4913f4499e1f2633a7b5936321eed1cdaeb6115181d29060200160405180910390a15b50565b6080516126e3620001005f395f81816112150152818161123e015261137d01526126e35ff3fe6080604052600436106101e6575f3560e01c806370a0823111610108578063b88d4fde1161009d578063d83b2bf81161006d578063d83b2bf814610568578063e30c397814610587578063e985e9c51461059b578063ebf0c717146105ba578063f2fde38b146105ce575f80fd5b8063b88d4fde146104ec578063be13f47c1461050b578063c87b56dd1461052a578063ca303fc714610549575f80fd5b80638da5cb5b116100d85780638da5cb5b1461047557806395d89b4114610489578063a22cb4651461049d578063ad3cb1cc146104bc575f80fd5b806370a0823114610400578063715018a61461041f57806379ba5097146104335780638ccc5f8014610447575f80fd5b80632f745c591161017e5780634f1ef2861161014e5780634f1ef2861461039b5780634f6ccce7146103ae57806352d1902d146103cd5780636352211e146103e1575f80fd5b80632f745c591461031257806340c10f191461033157806342842e0e1461035d57806345de0d9b1461037c575f80fd5b80630d5e34a4116101b95780630d5e34a41461029757806318160ddd146102b657806321ff9970146102d457806323b872dd146102f3575f80fd5b806301ffc9a7146101ea57806306fdde031461021e578063081812fc1461023f578063095ea7b314610276575b5f80fd5b3480156101f5575f80fd5b50610209610204366004612006565b6105ed565b60405190151581526020015b60405180910390f35b348015610229575f80fd5b50610232610617565b604051610215919061206e565b34801561024a575f80fd5b5061025e610259366004612080565b6106b8565b6040516001600160a01b039091168152602001610215565b348015610281575f80fd5b506102956102903660046120b2565b6106cc565b005b3480156102a2575f80fd5b506102096102b13660046120b2565b6106db565b3480156102c1575f80fd5b506032545b604051908152602001610215565b3480156102df575f80fd5b506102956102ee366004612080565b610701565b3480156102fe575f80fd5b5061029561030d3660046120da565b610715565b34801561031d575f80fd5b506102c661032c3660046120b2565b6107a3565b34801561033c575f80fd5b5061035061034b3660046120b2565b610814565b6040516102159190612113565b348015610368575f80fd5b506102956103773660046120da565b61082f565b348015610387575f80fd5b50610350610396366004612156565b61084e565b6102956103a936600461226d565b610894565b3480156103b9575f80fd5b506102c66103c8366004612080565b6108af565b3480156103d8575f80fd5b506102c6610911565b3480156103ec575f80fd5b5061025e6103fb366004612080565b61092c565b34801561040b575f80fd5b506102c661041a3660046122b7565b610936565b34801561042a575f80fd5b5061029561098e565b34801561043e575f80fd5b506102956109a1565b348015610452575f80fd5b50610209610461366004612080565b60016020525f908152604090205460ff1681565b348015610480575f80fd5b5061025e6109e6565b348015610494575f80fd5b50610232610a1a565b3480156104a8575f80fd5b506102956104b73660046122d0565b610a58565b3480156104c7575f80fd5b50610232604051806040016040528060058152602001640352e302e360dc1b81525081565b3480156104f7575f80fd5b50610295610506366004612309565b610a63565b348015610516575f80fd5b506102956105253660046120b2565b610a7a565b348015610535575f80fd5b50610232610544366004612080565b610b76565b348015610554575f80fd5b5061029561056336600461236c565b610b80565b348015610573575f80fd5b506102c66105823660046120b2565b610cd0565b348015610592575f80fd5b5061025e610d29565b3480156105a6575f80fd5b506102096105b53660046123d1565b610d51565b3480156105c5575f80fd5b506102c65f5481565b3480156105d9575f80fd5b506102956105e83660046122b7565b610d9d565b5f6001600160e01b0319821663780e9d6360e01b1480610611575061061182610e22565b92915050565b5f8051602061264e833981519152805460609190819061063690612402565b80601f016020809104026020016040519081016040528092919081815260200182805461066290612402565b80156106ad5780601f10610684576101008083540402835291602001916106ad565b820191905f5260205f20905b81548152906001019060200180831161069057829003601f168201915b505050505091505090565b5f6106c282610e71565b5061061182610ea8565b6106d7828233610ee1565b5050565b5f806106e78484610cd0565b5f9081526001602052604090205460ff1615949350505050565b610709610eee565b61071281610f20565b50565b6001600160a01b03821661074357604051633250574960e11b81525f60048201526024015b60405180910390fd5b5f61074f838333610f5a565b9050836001600160a01b0316816001600160a01b03161461079d576040516364283d7b60e01b81526001600160a01b038086166004830152602482018490528216604482015260640161073a565b50505050565b5f5f8051602061262e8339815191526107bb84610936565b83106107ec5760405163295f44f760e21b81526001600160a01b03851660048201526024810184905260440161073a565b6001600160a01b0384165f908152602091825260408082208583529092522054905092915050565b606061081e610eee565b6108288383611063565b9392505050565b61084983838360405180602001604052805f815250610a63565b505050565b606061085a33836106db565b61087757604051632121afc960e21b815260040160405180910390fd5b610882848484611117565b61088c3383611063565b949350505050565b61089c61120a565b6108a5826112ae565b6106d782826112b6565b6032545f905f8051602061262e8339815191529083106108eb5760405163295f44f760e21b81525f60048201526024810184905260440161073a565b8060020183815481106109005761090061243a565b905f5260205f200154915050919050565b5f61091a611372565b505f8051602061266e83398151915290565b5f61061182610e71565b5f5f8051602061264e8339815191526001600160a01b03831661096e576040516322718ad960e21b81525f600482015260240161073a565b6001600160a01b039092165f908152600390920160205250604090205490565b610996610eee565b61099f5f6113bb565b565b33806109ab610d29565b6001600160a01b0316146109dd5760405163118cdaa760e01b81526001600160a01b038216600482015260240161073a565b610712816113bb565b5f807f9016d09d72d40fdae2fd8ceac6b6234c7706214fd39c1cd1e609a0528c1993005b546001600160a01b031692915050565b7f80bb2b638cc20bc4d0a60d66940f3ab4a00c1d7b313497ca82fb0b4ab007930180546060915f8051602061264e8339815191529161063690612402565b6106d73383836113f3565b610a6e848484610715565b61079d848484846114a2565b5f8051602061268e8339815191528054600160401b810460ff1615906001600160401b03165f81158015610aab5750825b90505f826001600160401b03166001148015610ac65750303b155b905081158015610ad4575080155b15610af25760405163f92ee8a960e01b815260040160405180910390fd5b845467ffffffffffffffff191660011785558315610b1c57845460ff60401b1916600160401b1785555b610b2687876115c8565b8315610b6d57845460ff60401b19168555604051600181527fc7f505b2f371ae2175ee4913f4499e1f2633a7b5936321eed1cdaeb6115181d2906020015b60405180910390a15b50505050505050565b60606106116116d6565b5f8051602061268e8339815191528054600160401b810460ff1615906001600160401b03165f81158015610bb15750825b90505f826001600160401b03166001148015610bcc5750303b155b905081158015610bda575080155b15610bf85760405163f92ee8a960e01b815260040160405180910390fd5b845467ffffffffffffffff191660011785558315610c2257845460ff60401b1916600160401b1785555b610c696040518060400160405280600a81526020016920b6383430aa37b5b2b760b11b8152506040518060400160405280600381526020016241544b60e81b815250611766565b610c7388876115c8565b6033610c7f8882612492565b508315610cc657845460ff60401b19168555604051600181527fc7f505b2f371ae2175ee4913f4499e1f2633a7b5936321eed1cdaeb6115181d29060200160405180910390a15b5050505050505050565b604080516001600160a01b03841660208201529081018290525f9060600160408051601f198184030181528282528051602091820120908301520160405160208183030381529060405280519060200120905092915050565b5f807f237e158222e3e6968b72b9db0d8043aacf074ad9f650f0d1606b4d82ee432c00610a0a565b6001600160a01b039182165f9081527f80bb2b638cc20bc4d0a60d66940f3ab4a00c1d7b313497ca82fb0b4ab00793056020908152604080832093909416825291909152205460ff1690565b610da5610eee565b7f237e158222e3e6968b72b9db0d8043aacf074ad9f650f0d1606b4d82ee432c0080546001600160a01b0319166001600160a01b0383169081178255610de96109e6565b6001600160a01b03167f38d16b8cac22d99fc7c124b9cd0de2d3fa1faef420bfe791d8c362d765e2270060405160405180910390a35050565b5f6001600160e01b031982166380ac58cd60e01b1480610e5257506001600160e01b03198216635b5e139f60e01b145b8061061157506301ffc9a760e01b6001600160e01b0319831614610611565b5f80610e7c83611778565b90506001600160a01b03811661061157604051637e27328960e01b81526004810184905260240161073a565b5f9081527f80bb2b638cc20bc4d0a60d66940f3ab4a00c1d7b313497ca82fb0b4ab007930460205260409020546001600160a01b031690565b61084983838360016117b1565b33610ef76109e6565b6001600160a01b03161461099f5760405163118cdaa760e01b815233600482015260240161073a565b5f8190556040518181527f2cbc14f49c068133583f7cb530018af451c87c1cf1327cf2a4ff4698c4730aa49060200160405180910390a150565b5f80610f678585856118c4565b90506001600160a01b03811661100157610ffc847f645e039705490088daad89bae25049a34f4a9072d398537b1ab2425f24cbed0280545f8381527f645e039705490088daad89bae25049a34f4a9072d398537b1ab2425f24cbed0360205260408120829055600182018355919091527fa42f15e5d656f8155fd7419d740a6073999f19cd6e061449ce4a257150545bf20155565b611024565b846001600160a01b0316816001600160a01b0316146110245761102481856119c6565b6001600160a01b0385166110405761103b84611a65565b61088c565b846001600160a01b0316816001600160a01b03161461088c5761088c8585611b45565b6060816001600160401b0381111561107d5761107d6121c9565b6040519080825280602002602001820160405280156110a6578160200160208202803683370190505b5090505f5b828110156111105760325f81546110c190612565565b9190508190558282815181106110d9576110d961243a565b602002602001018181525050611108848383815181106110fb576110fb61243a565b6020026020010151611b9d565b6001016110ab565b5092915050565b61112133826106db565b61113e57604051639ea134e960e01b815260040160405180910390fd5b5f6111493383610cd0565b90506111898484808060200260200160405190810160405280939291908181526020018383602002808284375f920182905250549250859150611bfe9050565b6111a65760405163712eb08760e01b815260040160405180910390fd5b5f818152600160208190526040909120805460ff191690911790557ff71d0afb6ca23454b34db8bf7baf45f79e8c2f41e5499375ea2289312b2d317b33604080516001600160a01b039092168252602082018590520160405180910390a150505050565b306001600160a01b037f000000000000000000000000000000000000000000000000000000000000000016148061129057507f00000000000000000000000000000000000000000000000000000000000000006001600160a01b03166112845f8051602061266e833981519152546001600160a01b031690565b6001600160a01b031614155b1561099f5760405163703e46dd60e11b815260040160405180910390fd5b610712610eee565b816001600160a01b03166352d1902d6040518163ffffffff1660e01b8152600401602060405180830381865afa925050508015611310575060408051601f3d908101601f1916820190925261130d9181019061257d565b60015b61133857604051634c9c8ce360e01b81526001600160a01b038316600482015260240161073a565b5f8051602061266e833981519152811461136857604051632a87526960e21b81526004810182905260240161073a565b6108498383611c13565b306001600160a01b037f0000000000000000000000000000000000000000000000000000000000000000161461099f5760405163703e46dd60e11b815260040160405180910390fd5b7f237e158222e3e6968b72b9db0d8043aacf074ad9f650f0d1606b4d82ee432c0080546001600160a01b03191681556106d782611c68565b5f8051602061264e8339815191526001600160a01b03831661143357604051630b61174360e31b81526001600160a01b038416600482015260240161073a565b6001600160a01b038481165f818152600584016020908152604080832094881680845294825291829020805460ff191687151590811790915591519182527f17307eab39ab6107e8899845ad3d59bd9653f200f220920489ca2b5937696c31910160405180910390a350505050565b6001600160a01b0383163b1561079d57604051630a85bd0160e11b81526001600160a01b0384169063150b7a02906114e4903390889087908790600401612594565b6020604051808303815f875af192505050801561151e575060408051601f3d908101601f1916820190925261151b918101906125d0565b60015b611585573d80801561154b576040519150601f19603f3d011682016040523d82523d5f602084013e611550565b606091505b5080515f0361157d57604051633250574960e11b81526001600160a01b038516600482015260240161073a565b805181602001fd5b6001600160e01b03198116630a85bd0160e11b146115c157604051633250574960e11b81526001600160a01b038516600482015260240161073a565b5050505050565b5f8051602061268e8339815191528054600160401b810460ff1615906001600160401b03165f811580156115f95750825b90505f826001600160401b031660011480156116145750303b155b905081158015611622575080155b156116405760405163f92ee8a960e01b815260040160405180910390fd5b845467ffffffffffffffff19166001178555831561166a57845460ff60401b1916600160401b1785555b6116886001600160a01b0388161561168257876113bb565b336113bb565b611690611cd8565b5f8690558315610b6d57845460ff60401b19168555604051600181527fc7f505b2f371ae2175ee4913f4499e1f2633a7b5936321eed1cdaeb6115181d290602001610b64565b6060603380546116e590612402565b80601f016020809104026020016040519081016040528092919081815260200182805461171190612402565b801561175c5780601f106117335761010080835404028352916020019161175c565b820191905f5260205f20905b81548152906001019060200180831161173f57829003601f168201915b5050505050905090565b61176e611cdc565b6106d78282611d12565b5f9081527f80bb2b638cc20bc4d0a60d66940f3ab4a00c1d7b313497ca82fb0b4ab007930260205260409020546001600160a01b031690565b5f8051602061264e83398151915281806117d357506001600160a01b03831615155b15611894575f6117e285610e71565b90506001600160a01b0384161580159061180e5750836001600160a01b0316816001600160a01b031614155b8015611821575061181f8185610d51565b155b1561184a5760405163a9fbf51f60e01b81526001600160a01b038516600482015260240161073a565b82156118925784866001600160a01b0316826001600160a01b03167f8c5be1e5ebec7d5bd14f71427d1e84f3dd0314c0f7b2291e5b200ac8c7c3b92560405160405180910390a45b505b5f93845260040160205250506040902080546001600160a01b0319166001600160a01b0392909216919091179055565b5f5f8051602061264e833981519152816118dd85611778565b90506001600160a01b038416156118f9576118f9818587611d42565b6001600160a01b03811615611935576119145f865f806117b1565b6001600160a01b0381165f908152600383016020526040902080545f190190555b6001600160a01b03861615611965576001600160a01b0386165f9081526003830160205260409020805460010190555b5f85815260028301602052604080822080546001600160a01b0319166001600160a01b038a811691821790925591518893918516917fddf252ad1be2c89b69c2b068fc378daa952ba7f163c4a11628f55a4df523b3ef91a495945050505050565b5f8051602061262e8339815191525f6119de84610936565b5f848152600184016020526040902054909150808214611a31576001600160a01b0385165f9081526020848152604080832085845282528083205484845281842081905583526001860190915290208190555b505f92835260018201602090815260408085208590556001600160a01b039095168452918252838320908352905290812055565b7f645e039705490088daad89bae25049a34f4a9072d398537b1ab2425f24cbed02545f8051602061262e833981519152905f90611aa4906001906125eb565b5f848152600384016020526040812054600285018054939450909284908110611acf57611acf61243a565b905f5260205f200154905080846002018381548110611af057611af061243a565b5f91825260208083209091019290925582815260038601909152604080822084905586825281205560028401805480611b2b57611b2b6125fe565b600190038181905f5260205f20015f905590555050505050565b5f8051602061262e8339815191525f6001611b5f85610936565b611b6991906125eb565b6001600160a01b039094165f9081526020838152604080832087845282528083208690559482526001909301909252502055565b6001600160a01b038216611bc657604051633250574960e11b81525f600482015260240161073a565b5f611bd283835f610f5a565b90506001600160a01b03811615610849576040516339e3563760e11b81525f600482015260240161073a565b5f82611c0a8584611da6565b14949350505050565b611c1c82611de8565b6040516001600160a01b038316907fbc7cd75a20ee27fd9adebab32041f755214dbc6bffa90cc0225b39da2e5c2d3b905f90a2805115611c60576108498282611e4b565b6106d7611ebd565b7f9016d09d72d40fdae2fd8ceac6b6234c7706214fd39c1cd1e609a0528c19930080546001600160a01b031981166001600160a01b03848116918217845560405192169182907f8be0079c531659141344cd1fd0a4f28419497f9722a3daafe3b4186f6b6457e0905f90a3505050565b61099f5b5f8051602061268e83398151915254600160401b900460ff1661099f57604051631afcd79f60e31b815260040160405180910390fd5b611d1a611cdc565b5f8051602061264e83398151915280611d338482612492565b506001810161079d8382612492565b611d4d838383611edc565b610849576001600160a01b038316611d7b57604051637e27328960e01b81526004810182905260240161073a565b60405163177e802f60e01b81526001600160a01b03831660048201526024810182905260440161073a565b5f81815b8451811015611de057611dd682868381518110611dc957611dc961243a565b6020026020010151611f40565b9150600101611daa565b509392505050565b806001600160a01b03163b5f03611e1d57604051634c9c8ce360e01b81526001600160a01b038216600482015260240161073a565b5f8051602061266e83398151915280546001600160a01b0319166001600160a01b0392909216919091179055565b60605f80846001600160a01b031684604051611e679190612612565b5f60405180830381855af49150503d805f8114611e9f576040519150601f19603f3d011682016040523d82523d5f602084013e611ea4565b606091505b5091509150611eb4858383611f6c565b95945050505050565b341561099f5760405163b398979f60e01b815260040160405180910390fd5b5f6001600160a01b0383161580159061088c5750826001600160a01b0316846001600160a01b03161480611f155750611f158484610d51565b8061088c5750826001600160a01b0316611f2e83610ea8565b6001600160a01b031614949350505050565b5f818310611f5a575f828152602084905260409020610828565b5f838152602083905260409020610828565b606082611f8157611f7c82611fc8565b610828565b8151158015611f9857506001600160a01b0384163b155b15611fc157604051639996b31560e01b81526001600160a01b038516600482015260240161073a565b5080610828565b805115611fd85780518082602001fd5b604051630a12f52160e11b815260040160405180910390fd5b6001600160e01b031981168114610712575f80fd5b5f60208284031215612016575f80fd5b813561082881611ff1565b5f5b8381101561203b578181015183820152602001612023565b50505f910152565b5f815180845261205a816020860160208601612021565b601f01601f19169290920160200192915050565b602081525f6108286020830184612043565b5f60208284031215612090575f80fd5b5035919050565b80356001600160a01b03811681146120ad575f80fd5b919050565b5f80604083850312156120c3575f80fd5b6120cc83612097565b946020939093013593505050565b5f805f606084860312156120ec575f80fd5b6120f584612097565b925061210360208501612097565b9150604084013590509250925092565b602080825282518282018190525f9190848201906040850190845b8181101561214a5783518352928401929184019160010161212e565b50909695505050505050565b5f805f60408486031215612168575f80fd5b83356001600160401b038082111561217e575f80fd5b818601915086601f830112612191575f80fd5b81358181111561219f575f80fd5b8760208260051b85010111156121b3575f80fd5b6020928301989097509590910135949350505050565b634e487b7160e01b5f52604160045260245ffd5b5f6001600160401b03808411156121f6576121f66121c9565b604051601f8501601f19908116603f0116810190828211818310171561221e5761221e6121c9565b81604052809350858152868686011115612236575f80fd5b858560208301375f602087830101525050509392505050565b5f82601f83011261225e575f80fd5b610828838335602085016121dd565b5f806040838503121561227e575f80fd5b61228783612097565b915060208301356001600160401b038111156122a1575f80fd5b6122ad8582860161224f565b9150509250929050565b5f602082840312156122c7575f80fd5b61082882612097565b5f80604083850312156122e1575f80fd5b6122ea83612097565b9150602083013580151581146122fe575f80fd5b809150509250929050565b5f805f806080858703121561231c575f80fd5b61232585612097565b935061233360208601612097565b92506040850135915060608501356001600160401b03811115612354575f80fd5b6123608782880161224f565b91505092959194509250565b5f805f6060848603121561237e575f80fd5b61238784612097565b925060208401356001600160401b038111156123a1575f80fd5b8401601f810186136123b1575f80fd5b6123c0868235602084016121dd565b925050604084013590509250925092565b5f80604083850312156123e2575f80fd5b6123eb83612097565b91506123f960208401612097565b90509250929050565b600181811c9082168061241657607f821691505b60208210810361243457634e487b7160e01b5f52602260045260245ffd5b50919050565b634e487b7160e01b5f52603260045260245ffd5b601f82111561084957805f5260205f20601f840160051c810160208510156124735750805b601f840160051c820191505b818110156115c1575f815560010161247f565b81516001600160401b038111156124ab576124ab6121c9565b6124bf816124b98454612402565b8461244e565b602080601f8311600181146124f2575f84156124db5750858301515b5f19600386901b1c1916600185901b178555612549565b5f85815260208120601f198616915b8281101561252057888601518255948401946001909101908401612501565b508582101561253d57878501515f19600388901b60f8161c191681555b505060018460011b0185555b505050505050565b634e487b7160e01b5f52601160045260245ffd5b5f6001820161257657612576612551565b5060010190565b5f6020828403121561258d575f80fd5b5051919050565b6001600160a01b03858116825284166020820152604081018390526080606082018190525f906125c690830184612043565b9695505050505050565b5f602082840312156125e0575f80fd5b815161082881611ff1565b8181038181111561061157610611612551565b634e487b7160e01b5f52603160045260245ffd5b5f8251612623818460208701612021565b919091019291505056fe645e039705490088daad89bae25049a34f4a9072d398537b1ab2425f24cbed0080bb2b638cc20bc4d0a60d66940f3ab4a00c1d7b313497ca82fb0b4ab0079300360894a13ba1a3210667c828492db98dca3e2076cc3735a920a3ca505d382bbcf0c57e16840df040f15088dc2f81fe391c3923bec73e23a9662efc9c229c6a00a264697066735822122069a3e0642730169c5ab2a859b43f3103ec088c050049cb1a8f9a0fdc599e376064736f6c63430008180033","linkReferences":{}},"methodIdentifiers":{"UPGRADE_INTERFACE_VERSION()":"ad3cb1cc","acceptOwnership()":"79ba5097","approve(address,uint256)":"095ea7b3","balanceOf(address)":"70a08231","canMint(address,uint256)":"0d5e34a4","getApproved(uint256)":"081812fc","initialize(address,bytes32)":"be13f47c","initialize(address,string,bytes32)":"ca303fc7","isApprovedForAll(address,address)":"e985e9c5","leaf(address,uint256)":"d83b2bf8","mint(address,uint256)":"40c10f19","mint(bytes32[],uint256)":"45de0d9b","minted(bytes32)":"8ccc5f80","name()":"06fdde03","owner()":"8da5cb5b","ownerOf(uint256)":"6352211e","pendingOwner()":"e30c3978","proxiableUUID()":"52d1902d","renounceOwnership()":"715018a6","root()":"ebf0c717","safeTransferFrom(address,address,uint256)":"42842e0e","safeTransferFrom(address,address,uint256,bytes)":"b88d4fde","setApprovalForAll(address,bool)":"a22cb465","supportsInterface(bytes4)":"01ffc9a7","symbol()":"95d89b41","tokenByIndex(uint256)":"4f6ccce7","tokenOfOwnerByIndex(address,uint256)":"2f745c59","tokenURI(uint256)":"c87b56dd","totalSupply()":"18160ddd","transferFrom(address,address,uint256)":"23b872dd","transferOwnership(address)":"f2fde38b","updateRoot(bytes32)":"21ff9970","upgradeToAndCall(address,bytes)":"4f1ef286"},"id":0}