{"abi":[{"type":"function","name":"UPGRADE_INTERFACE_VERSION","inputs":[],"outputs":[{"name":"","type":"string","internalType":"string"}],"stateMutability":"view"},{"type":"function","name":"acceptOwnership","inputs":[],"outputs":[],"stateMutability":"nonpayable"},{"type":"function","name":"blacklist","inputs":[],"outputs":[{"name":"","type":"address","internalType":"contract IMinimalBlacklist"}],"stateMutability":"view"},{"type":"function","name":"canMint","inputs":[{"name":"_minter","type":"address","internalType":"address"},{"name":"_maxMints","type":"uint256","internalType":"uint256"}],"outputs":[{"name":"","type":"bool","internalType":"bool"}],"stateMutability":"view"},{"type":"function","name":"consumeMint","inputs":[{"name":"_proof","type":"bytes32[]","internalType":"bytes32[]"},{"name":"_freeMints","type":"uint256","internalType":"uint256"}],"outputs":[],"stateMutability":"nonpayable"},{"type":"function","name":"initialize","inputs":[{"name":"_owner","type":"address","internalType":"address"},{"name":"_root","type":"bytes32","internalType":"bytes32"},{"name":"_blacklist","type":"address","internalType":"contract IMinimalBlacklist"}],"outputs":[],"stateMutability":"nonpayable"},{"type":"function","name":"leaf","inputs":[{"name":"_minter","type":"address","internalType":"address"},{"name":"_maxMints","type":"uint256","internalType":"uint256"}],"outputs":[{"name":"","type":"bytes32","internalType":"bytes32"}],"stateMutability":"pure"},{"type":"function","name":"minted","inputs":[{"name":"leaf","type":"bytes32","internalType":"bytes32"}],"outputs":[{"name":"hasMinted","type":"bool","internalType":"bool"}],"stateMutability":"view"},{"type":"function","name":"owner","inputs":[],"outputs":[{"name":"","type":"address","internalType":"address"}],"stateMutability":"view"},{"type":"function","name":"pendingOwner","inputs":[],"outputs":[{"name":"","type":"address","internalType":"address"}],"stateMutability":"view"},{"type":"function","name":"proxiableUUID","inputs":[],"outputs":[{"name":"","type":"bytes32","internalType":"bytes32"}],"stateMutability":"view"},{"type":"function","name":"renounceOwnership","inputs":[],"outputs":[],"stateMutability":"nonpayable"},{"type":"function","name":"root","inputs":[],"outputs":[{"name":"","type":"bytes32","internalType":"bytes32"}],"stateMutability":"view"},{"type":"function","name":"transferOwnership","inputs":[{"name":"newOwner","type":"address","internalType":"address"}],"outputs":[],"stateMutability":"nonpayable"},{"type":"function","name":"updateBlacklist","inputs":[{"name":"_blacklist","type":"address","internalType":"contract IMinimalBlacklist"}],"outputs":[],"stateMutability":"nonpayable"},{"type":"function","name":"updateRoot","inputs":[{"name":"_root","type":"bytes32","internalType":"bytes32"}],"outputs":[],"stateMutability":"nonpayable"},{"type":"function","name":"upgradeToAndCall","inputs":[{"name":"newImplementation","type":"address","internalType":"address"},{"name":"data","type":"bytes","internalType":"bytes"}],"outputs":[],"stateMutability":"payable"},{"type":"event","name":"BlacklistUpdated","inputs":[{"name":"_blacklist","type":"address","indexed":false,"internalType":"address"}],"anonymous":false},{"type":"event","name":"Initialized","inputs":[{"name":"version","type":"uint64","indexed":false,"internalType":"uint64"}],"anonymous":false},{"type":"event","name":"MintConsumed","inputs":[{"name":"_minter","type":"address","indexed":false,"internalType":"address"},{"name":"_mintAmount","type":"uint256","indexed":false,"internalType":"uint256"}],"anonymous":false},{"type":"event","name":"OwnershipTransferStarted","inputs":[{"name":"previousOwner","type":"address","indexed":true,"internalType":"address"},{"name":"newOwner","type":"address","indexed":true,"internalType":"address"}],"anonymous":false},{"type":"event","name":"OwnershipTransferred","inputs":[{"name":"previousOwner","type":"address","indexed":true,"internalType":"address"},{"name":"newOwner","type":"address","indexed":true,"internalType":"address"}],"anonymous":false},{"type":"event","name":"RootUpdated","inputs":[{"name":"_root","type":"bytes32","indexed":false,"internalType":"bytes32"}],"anonymous":false},{"type":"event","name":"Upgraded","inputs":[{"name":"implementation","type":"address","indexed":true,"internalType":"address"}],"anonymous":false},{"type":"error","name":"ADDRESS_BLACKLISTED","inputs":[]},{"type":"error","name":"AddressEmptyCode","inputs":[{"name":"target","type":"address","internalType":"address"}]},{"type":"error","name":"ERC1967InvalidImplementation","inputs":[{"name":"implementation","type":"address","internalType":"address"}]},{"type":"error","name":"ERC1967NonPayable","inputs":[]},{"type":"error","name":"FailedInnerCall","inputs":[]},{"type":"error","name":"INVALID_PROOF","inputs":[]},{"type":"error","name":"INVALID_TOKEN_AMOUNT","inputs":[]},{"type":"error","name":"InvalidInitialization","inputs":[]},{"type":"error","name":"MINTS_EXCEEDED","inputs":[]},{"type":"error","name":"NotInitializing","inputs":[]},{"type":"error","name":"OwnableInvalidOwner","inputs":[{"name":"owner","type":"address","internalType":"address"}]},{"type":"error","name":"OwnableUnauthorizedAccount","inputs":[{"name":"account","type":"address","internalType":"address"}]},{"type":"error","name":"UUPSUnauthorizedCallContext","inputs":[]},{"type":"error","name":"UUPSUnsupportedProxiableUUID","inputs":[{"name":"slot","type":"bytes32","internalType":"bytes32"}]}],"bytecode":{"object":"0x60a060405230608052348015610013575f80fd5b5061001c610021565b6100d3565b7ff0c57e16840df040f15088dc2f81fe391c3923bec73e23a9662efc9c229c6a00805468010000000000000000900460ff16156100715760405163f92ee8a960e01b815260040160405180910390fd5b80546001600160401b03908116146100d05780546001600160401b0319166001600160401b0390811782556040519081527fc7f505b2f371ae2175ee4913f4499e1f2633a7b5936321eed1cdaeb6115181d29060200160405180910390a15b50565b6080516111ca6100f95f395f81816107a6015281816107cf015261090e01526111ca5ff3fe6080604052600436106100fa575f3560e01c80638ccc5f8011610092578063d26b3e6e11610062578063d26b3e6e146102a4578063d83b2bf8146102c3578063e30c3978146102e2578063ebf0c717146102f6578063f2fde38b1461030a575f80fd5b80638ccc5f80146101ee5780638da5cb5b1461021c578063a4b5fa5614610248578063ad3cb1cc14610267575f80fd5b806352d1902d116100cd57806352d1902d14610185578063715018a6146101a757806379ba5097146101bb57806388c85907146101cf575f80fd5b80630d5e34a4146100fe57806321ff997014610132578063378b5704146101535780634f1ef28614610172575b5f80fd5b348015610109575f80fd5b5061011d610118366004610eda565b610329565b60405190151581526020015b60405180910390f35b34801561013d575f80fd5b5061015161014c366004610f04565b6103d8565b005b34801561015e575f80fd5b5061015161016d366004610f1b565b6103e4565b610151610180366004610f4a565b610441565b348015610190575f80fd5b50610199610460565b604051908152602001610129565b3480156101b2575f80fd5b5061015161047b565b3480156101c6575f80fd5b5061015161048e565b3480156101da575f80fd5b506101516101e9366004611008565b6104d8565b3480156101f9575f80fd5b5061011d610208366004610f04565b60016020525f908152604090205460ff1681565b348015610227575f80fd5b506102306104e8565b6040516001600160a01b039091168152602001610129565b348015610253575f80fd5b50600254610230906001600160a01b031681565b348015610272575f80fd5b50610297604051806040016040528060058152602001640352e302e360dc1b81525081565b604051610129919061109e565b3480156102af575f80fd5b506101516102be3660046110d0565b61051c565b3480156102ce575f80fd5b506101996102dd366004610eda565b61062f565b3480156102ed575f80fd5b50610230610688565b348015610301575f80fd5b506101995f5481565b348015610315575f80fd5b50610151610324366004610f1b565b6106b0565b60025460405163fe575a8760e01b81526001600160a01b0384811660048301525f92169063fe575a8790602401602060405180830381865afa158015610371573d5f803e3d5ffd5b505050506040513d601f19601f82011682018060405250810190610395919061110f565b156103b357604051637874e36360e01b815260040160405180910390fd5b5f6103be848461062f565b5f9081526001602052604090205460ff1615949350505050565b6103e181610735565b50565b6103ec610769565b600280546001600160a01b0319166001600160a01b0383169081179091556040519081527f75cdf6842d867a09260947ac775619527788d913a79fc3b41da1815fa377af65906020015b60405180910390a150565b61044961079b565b6104528261083f565b61045c8282610847565b5050565b5f610469610903565b505f8051602061117583398151915290565b610483610769565b61048c5f61094c565b565b3380610498610688565b6001600160a01b0316146104cf5760405163118cdaa760e01b81526001600160a01b03821660048201526024015b60405180910390fd5b6103e18161094c565b6104e3838383610984565b505050565b5f807f9016d09d72d40fdae2fd8ceac6b6234c7706214fd39c1cd1e609a0528c1993005b546001600160a01b031692915050565b7ff0c57e16840df040f15088dc2f81fe391c3923bec73e23a9662efc9c229c6a008054600160401b810460ff16159067ffffffffffffffff165f811580156105615750825b90505f8267ffffffffffffffff16600114801561057d5750303b155b90508115801561058b575080155b156105a95760405163f92ee8a960e01b815260040160405180910390fd5b845467ffffffffffffffff1916600117855583156105d357845460ff60401b1916600160401b1785555b6105de888888610a77565b831561062557845460ff60401b19168555604051600181527fc7f505b2f371ae2175ee4913f4499e1f2633a7b5936321eed1cdaeb6115181d2906020015b60405180910390a15b5050505050505050565b604080516001600160a01b03841660208201529081018290525f9060600160408051601f198184030181528282528051602091820120908301520160405160208183030381529060405280519060200120905092915050565b5f807f237e158222e3e6968b72b9db0d8043aacf074ad9f650f0d1606b4d82ee432c0061050c565b6106b8610769565b7f237e158222e3e6968b72b9db0d8043aacf074ad9f650f0d1606b4d82ee432c0080546001600160a01b0319166001600160a01b03831690811782556106fc6104e8565b6001600160a01b03167f38d16b8cac22d99fc7c124b9cd0de2d3fa1faef420bfe791d8c362d765e2270060405160405180910390a35050565b5f8190556040518181527f2cbc14f49c068133583f7cb530018af451c87c1cf1327cf2a4ff4698c4730aa490602001610436565b336107726104e8565b6001600160a01b03161461048c5760405163118cdaa760e01b81523360048201526024016104c6565b306001600160a01b037f000000000000000000000000000000000000000000000000000000000000000016148061082157507f00000000000000000000000000000000000000000000000000000000000000006001600160a01b03166108155f80516020611175833981519152546001600160a01b031690565b6001600160a01b031614155b1561048c5760405163703e46dd60e11b815260040160405180910390fd5b6103e1610769565b816001600160a01b03166352d1902d6040518163ffffffff1660e01b8152600401602060405180830381865afa9250505080156108a1575060408051601f3d908101601f1916820190925261089e9181019061112e565b60015b6108c957604051634c9c8ce360e01b81526001600160a01b03831660048201526024016104c6565b5f8051602061117583398151915281146108f957604051632a87526960e21b8152600481018290526024016104c6565b6104e38383610bb5565b306001600160a01b037f0000000000000000000000000000000000000000000000000000000000000000161461048c5760405163703e46dd60e11b815260040160405180910390fd5b7f237e158222e3e6968b72b9db0d8043aacf074ad9f650f0d1606b4d82ee432c0080546001600160a01b031916815561045c82610c0a565b61098e3382610329565b6109ab57604051639ea134e960e01b815260040160405180910390fd5b5f6109b6338361062f565b90506109f68484808060200260200160405190810160405280939291908181526020018383602002808284375f920182905250549250859150610c7a9050565b610a135760405163712eb08760e01b815260040160405180910390fd5b5f818152600160208190526040909120805460ff191690911790557ff71d0afb6ca23454b34db8bf7baf45f79e8c2f41e5499375ea2289312b2d317b33604080516001600160a01b039092168252602082018590520160405180910390a150505050565b7ff0c57e16840df040f15088dc2f81fe391c3923bec73e23a9662efc9c229c6a008054600160401b810460ff16159067ffffffffffffffff165f81158015610abc5750825b90505f8267ffffffffffffffff166001148015610ad85750303b155b905081158015610ae6575080155b15610b045760405163f92ee8a960e01b815260040160405180910390fd5b845467ffffffffffffffff191660011785558315610b2e57845460ff60401b1916600160401b1785555b610b4c6001600160a01b03891615610b46578861094c565b3361094c565b610b54610c91565b5f879055600280546001600160a01b0319166001600160a01b038816179055831561062557845460ff60401b19168555604051600181527fc7f505b2f371ae2175ee4913f4499e1f2633a7b5936321eed1cdaeb6115181d29060200161061c565b610bbe82610c99565b6040516001600160a01b038316907fbc7cd75a20ee27fd9adebab32041f755214dbc6bffa90cc0225b39da2e5c2d3b905f90a2805115610c02576104e38282610cfc565b61045c610d6e565b7f9016d09d72d40fdae2fd8ceac6b6234c7706214fd39c1cd1e609a0528c19930080546001600160a01b031981166001600160a01b03848116918217845560405192169182907f8be0079c531659141344cd1fd0a4f28419497f9722a3daafe3b4186f6b6457e0905f90a3505050565b5f82610c868584610d8d565b1490505b9392505050565b61048c610dcf565b806001600160a01b03163b5f03610cce57604051634c9c8ce360e01b81526001600160a01b03821660048201526024016104c6565b5f8051602061117583398151915280546001600160a01b0319166001600160a01b0392909216919091179055565b60605f80846001600160a01b031684604051610d189190611145565b5f60405180830381855af49150503d805f8114610d50576040519150601f19603f3d011682016040523d82523d5f602084013e610d55565b606091505b5091509150610d65858383610e18565b95945050505050565b341561048c5760405163b398979f60e01b815260040160405180910390fd5b5f81815b8451811015610dc757610dbd82868381518110610db057610db0611160565b6020026020010151610e74565b9150600101610d91565b509392505050565b7ff0c57e16840df040f15088dc2f81fe391c3923bec73e23a9662efc9c229c6a0054600160401b900460ff1661048c57604051631afcd79f60e31b815260040160405180910390fd5b606082610e2d57610e2882610e9d565b610c8a565b8151158015610e4457506001600160a01b0384163b155b15610e6d57604051639996b31560e01b81526001600160a01b03851660048201526024016104c6565b5080610c8a565b5f818310610e8e575f828152602084905260409020610c8a565b505f9182526020526040902090565b805115610ead5780518082602001fd5b604051630a12f52160e11b815260040160405180910390fd5b6001600160a01b03811681146103e1575f80fd5b5f8060408385031215610eeb575f80fd5b8235610ef681610ec6565b946020939093013593505050565b5f60208284031215610f14575f80fd5b5035919050565b5f60208284031215610f2b575f80fd5b8135610c8a81610ec6565b634e487b7160e01b5f52604160045260245ffd5b5f8060408385031215610f5b575f80fd5b8235610f6681610ec6565b9150602083013567ffffffffffffffff80821115610f82575f80fd5b818501915085601f830112610f95575f80fd5b813581811115610fa757610fa7610f36565b604051601f8201601f19908116603f01168101908382118183101715610fcf57610fcf610f36565b81604052828152886020848701011115610fe7575f80fd5b826020860160208301375f6020848301015280955050505050509250929050565b5f805f6040848603121561101a575f80fd5b833567ffffffffffffffff80821115611031575f80fd5b818601915086601f830112611044575f80fd5b813581811115611052575f80fd5b8760208260051b8501011115611066575f80fd5b6020928301989097509590910135949350505050565b5f5b8381101561109657818101518382015260200161107e565b50505f910152565b602081525f82518060208401526110bc81604085016020870161107c565b601f01601f19169190910160400192915050565b5f805f606084860312156110e2575f80fd5b83356110ed81610ec6565b925060208401359150604084013561110481610ec6565b809150509250925092565b5f6020828403121561111f575f80fd5b81518015158114610c8a575f80fd5b5f6020828403121561113e575f80fd5b5051919050565b5f825161115681846020870161107c565b9190910192915050565b634e487b7160e01b5f52603260045260245ffdfe360894a13ba1a3210667c828492db98dca3e2076cc3735a920a3ca505d382bbca264697066735822122046649a2d80f173a519146c4f42e61f1e119cfbce4a81cd4115f471b6b59059f764736f6c63430008180033","linkReferences":{}},"methodIdentifiers":{"UPGRADE_INTERFACE_VERSION()":"ad3cb1cc","acceptOwnership()":"79ba5097","blacklist()":"a4b5fa56","canMint(address,uint256)":"0d5e34a4","consumeMint(bytes32[],uint256)":"88c85907","initialize(address,bytes32,address)":"d26b3e6e","leaf(address,uint256)":"d83b2bf8","minted(bytes32)":"8ccc5f80","owner()":"8da5cb5b","pendingOwner()":"e30c3978","proxiableUUID()":"52d1902d","renounceOwnership()":"715018a6","root()":"ebf0c717","transferOwnership(address)":"f2fde38b","updateBlacklist(address)":"378b5704","updateRoot(bytes32)":"21ff9970","upgradeToAndCall(address,bytes)":"4f1ef286"},"storageLayout":{"storage":[{"astId":2240,"contract":"test/util/MerkleWhitelistTestWrapper.sol:MerkleWhitelistTestWrapper","label":"root","offset":0,"slot":"0","type":"t_bytes32"},{"astId":2245,"contract":"test/util/MerkleWhitelistTestWrapper.sol:MerkleWhitelistTestWrapper","label":"minted","offset":0,"slot":"1","type":"t_mapping(t_bytes32,t_bool)"},{"astId":2249,"contract":"test/util/MerkleWhitelistTestWrapper.sol:MerkleWhitelistTestWrapper","label":"blacklist","offset":0,"slot":"2","type":"t_contract(IMinimalBlacklist)19316"},{"astId":2254,"contract":"test/util/MerkleWhitelistTestWrapper.sol:MerkleWhitelistTestWrapper","label":"__gap","offset":0,"slot":"3","type":"t_array(t_uint256)47_storage"}],"types":{"t_array(t_uint256)47_storage":{"encoding":"inplace","label":"uint256[47]","numberOfBytes":"1504","base":"t_uint256"},"t_bool":{"encoding":"inplace","label":"bool","numberOfBytes":"1"},"t_bytes32":{"encoding":"inplace","label":"bytes32","numberOfBytes":"32"},"t_contract(IMinimalBlacklist)19316":{"encoding":"inplace","label":"contract IMinimalBlacklist","numberOfBytes":"20"},"t_mapping(t_bytes32,t_bool)":{"encoding":"mapping","key":"t_bytes32","label":"mapping(bytes32 => bool)","numberOfBytes":"32","value":"t_bool"},"t_uint256":{"encoding":"inplace","label":"uint256","numberOfBytes":"32"}}},"id":147}