{"abi":[{"type":"function","name":"UPGRADE_INTERFACE_VERSION","inputs":[],"outputs":[{"name":"","type":"string","internalType":"string"}],"stateMutability":"view"},{"type":"function","name":"acceptOwnership","inputs":[],"outputs":[],"stateMutability":"nonpayable"},{"type":"function","name":"blacklist","inputs":[],"outputs":[{"name":"","type":"address","internalType":"contract IMinimalBlacklist"}],"stateMutability":"view"},{"type":"function","name":"claim","inputs":[{"name":"user","type":"address","internalType":"address"},{"name":"amount","type":"uint256","internalType":"uint256"},{"name":"proof","type":"bytes32[]","internalType":"bytes32[]"}],"outputs":[],"stateMutability":"nonpayable"},{"type":"function","name":"claimEnd","inputs":[],"outputs":[{"name":"","type":"uint64","internalType":"uint64"}],"stateMutability":"view"},{"type":"function","name":"claimStart","inputs":[],"outputs":[{"name":"","type":"uint64","internalType":"uint64"}],"stateMutability":"view"},{"type":"function","name":"hasClaimed","inputs":[{"name":"user","type":"address","internalType":"address"},{"name":"amount","type":"uint256","internalType":"uint256"}],"outputs":[{"name":"","type":"bool","internalType":"bool"}],"stateMutability":"view"},{"type":"function","name":"init","inputs":[{"name":"_owner","type":"address","internalType":"address"},{"name":"_claimStart","type":"uint64","internalType":"uint64"},{"name":"_claimEnd","type":"uint64","internalType":"uint64"},{"name":"_merkleRoot","type":"bytes32","internalType":"bytes32"},{"name":"_token","type":"address","internalType":"contract IERC20"},{"name":"_blacklist","type":"address","internalType":"address"}],"outputs":[],"stateMutability":"nonpayable"},{"type":"function","name":"isClaimed","inputs":[{"name":"hash","type":"bytes32","internalType":"bytes32"}],"outputs":[{"name":"claimed","type":"bool","internalType":"bool"}],"stateMutability":"view"},{"type":"function","name":"merkleRoot","inputs":[],"outputs":[{"name":"","type":"bytes32","internalType":"bytes32"}],"stateMutability":"view"},{"type":"function","name":"owner","inputs":[],"outputs":[{"name":"","type":"address","internalType":"address"}],"stateMutability":"view"},{"type":"function","name":"paused","inputs":[],"outputs":[{"name":"","type":"bool","internalType":"bool"}],"stateMutability":"view"},{"type":"function","name":"pendingOwner","inputs":[],"outputs":[{"name":"","type":"address","internalType":"address"}],"stateMutability":"view"},{"type":"function","name":"proxiableUUID","inputs":[],"outputs":[{"name":"","type":"bytes32","internalType":"bytes32"}],"stateMutability":"view"},{"type":"function","name":"renounceOwnership","inputs":[],"outputs":[],"stateMutability":"nonpayable"},{"type":"function","name":"setConfig","inputs":[{"name":"_claimStart","type":"uint64","internalType":"uint64"},{"name":"_claimEnd","type":"uint64","internalType":"uint64"},{"name":"_merkleRoot","type":"bytes32","internalType":"bytes32"}],"outputs":[],"stateMutability":"nonpayable"},{"type":"function","name":"token","inputs":[],"outputs":[{"name":"","type":"address","internalType":"contract IERC20"}],"stateMutability":"view"},{"type":"function","name":"transferOwnership","inputs":[{"name":"newOwner","type":"address","internalType":"address"}],"outputs":[],"stateMutability":"nonpayable"},{"type":"function","name":"updateBlacklist","inputs":[{"name":"_blacklist","type":"address","internalType":"address"}],"outputs":[],"stateMutability":"nonpayable"},{"type":"function","name":"upgradeToAndCall","inputs":[{"name":"newImplementation","type":"address","internalType":"address"},{"name":"data","type":"bytes","internalType":"bytes"}],"outputs":[],"stateMutability":"payable"},{"type":"function","name":"withdrawERC20","inputs":[{"name":"_token","type":"address","internalType":"contract IERC20"}],"outputs":[],"stateMutability":"nonpayable"},{"type":"event","name":"BlacklistUpdated","inputs":[{"name":"_blacklist","type":"address","indexed":false,"internalType":"address"}],"anonymous":false},{"type":"event","name":"Claimed","inputs":[{"name":"hash","type":"bytes32","indexed":false,"internalType":"bytes32"}],"anonymous":false},{"type":"event","name":"ConfigChanged","inputs":[{"name":"claimStart","type":"uint64","indexed":false,"internalType":"uint64"},{"name":"claimEnd","type":"uint64","indexed":false,"internalType":"uint64"},{"name":"merkleRoot","type":"bytes32","indexed":false,"internalType":"bytes32"}],"anonymous":false},{"type":"event","name":"Initialized","inputs":[{"name":"version","type":"uint64","indexed":false,"internalType":"uint64"}],"anonymous":false},{"type":"event","name":"OwnershipTransferStarted","inputs":[{"name":"previousOwner","type":"address","indexed":true,"internalType":"address"},{"name":"newOwner","type":"address","indexed":true,"internalType":"address"}],"anonymous":false},{"type":"event","name":"OwnershipTransferred","inputs":[{"name":"previousOwner","type":"address","indexed":true,"internalType":"address"},{"name":"newOwner","type":"address","indexed":true,"internalType":"address"}],"anonymous":false},{"type":"event","name":"Paused","inputs":[{"name":"account","type":"address","indexed":false,"internalType":"address"}],"anonymous":false},{"type":"event","name":"Unpaused","inputs":[{"name":"account","type":"address","indexed":false,"internalType":"address"}],"anonymous":false},{"type":"event","name":"Upgraded","inputs":[{"name":"implementation","type":"address","indexed":true,"internalType":"address"}],"anonymous":false},{"type":"error","name":"ADDRESS_BLACKLISTED","inputs":[]},{"type":"error","name":"AddressEmptyCode","inputs":[{"name":"target","type":"address","internalType":"address"}]},{"type":"error","name":"CLAIMED_ALREADY","inputs":[]},{"type":"error","name":"CLAIM_NOT_ONGOING","inputs":[]},{"type":"error","name":"ERC1967InvalidImplementation","inputs":[{"name":"implementation","type":"address","internalType":"address"}]},{"type":"error","name":"ERC1967NonPayable","inputs":[]},{"type":"error","name":"EnforcedPause","inputs":[]},{"type":"error","name":"ExpectedPause","inputs":[]},{"type":"error","name":"FailedInnerCall","inputs":[]},{"type":"error","name":"INVALID_PARAMS","inputs":[]},{"type":"error","name":"INVALID_PROOF","inputs":[]},{"type":"error","name":"InvalidInitialization","inputs":[]},{"type":"error","name":"NotInitializing","inputs":[]},{"type":"error","name":"OwnableInvalidOwner","inputs":[{"name":"owner","type":"address","internalType":"address"}]},{"type":"error","name":"OwnableUnauthorizedAccount","inputs":[{"name":"account","type":"address","internalType":"address"}]},{"type":"error","name":"ReentrancyGuardReentrantCall","inputs":[]},{"type":"error","name":"UUPSUnauthorizedCallContext","inputs":[]},{"type":"error","name":"UUPSUnsupportedProxiableUUID","inputs":[{"name":"slot","type":"bytes32","internalType":"bytes32"}]}],"bytecode":{"object":"0x60a060405230608052348015610013575f80fd5b5060805161168561003a5f395f8181610c5701528181610c800152610dbf01526116855ff3fe608060405260043610610126575f3560e01c8063a4b5fa56116100a8578063d03e9b361161006d578063d03e9b3614610355578063e30c397814610374578063f04d688f14610388578063f2fde38b146103a7578063f4f3b200146103c6578063fc0c546a146103e5575f80fd5b8063a4b5fa561461028d578063ad3cb1cc146102ac578063aed956d6146102e9578063b293109614610308578063b89c395214610327575f80fd5b806352d1902d116100ee57806352d1902d146101e35780635c975abb146101f7578063715018a61461023957806379ba50971461024d5780638da5cb5b14610261575f80fd5b80632eb4a7ab1461012a578063378b5704146101525780633ccfa92f146101735780633d13f874146101b15780634f1ef286146101d0575b5f80fd5b348015610135575f80fd5b5061013f60015481565b6040519081526020015b60405180910390f35b34801561015d575f80fd5b5061017161016c3660046112b9565b610404565b005b34801561017e575f80fd5b5060025461019990600160401b90046001600160401b031681565b6040516001600160401b039091168152602001610149565b3480156101bc575f80fd5b506101716101cb3660046112d4565b610460565b6101716101de36600461136c565b6105cd565b3480156101ee575f80fd5b5061013f6105ec565b348015610202575f80fd5b507fcd5ed15c6e187e77e9aee88184c21f4f2182ab5827cb3b7e07fbedcd63f033005460ff165b6040519015158152602001610149565b348015610244575f80fd5b50610171610607565b348015610258575f80fd5b5061017161061a565b34801561026c575f80fd5b50610275610667565b6040516001600160a01b039091168152602001610149565b348015610298575f80fd5b50603354610275906001600160a01b031681565b3480156102b7575f80fd5b506102dc604051806040016040528060058152602001640352e302e360dc1b81525081565b6040516101499190611476565b3480156102f4575f80fd5b506101716103033660046114a3565b61069b565b348015610313575f80fd5b50610229610322366004611514565b61080c565b348015610332575f80fd5b5061022961034136600461153e565b5f6020819052908152604090205460ff1681565b348015610360575f80fd5b5061017161036f366004611555565b610877565b34801561037f575f80fd5b5061027561088f565b348015610393575f80fd5b50600254610199906001600160401b031681565b3480156103b2575f80fd5b506101716103c13660046112b9565b6108b7565b3480156103d1575f80fd5b506101716103e03660046112b9565b61093c565b3480156103f0575f80fd5b50603254610275906001600160a01b031681565b61040c610a49565b603380546001600160a01b0319166001600160a01b0383169081179091556040519081527f75cdf6842d867a09260947ac775619527788d913a79fc3b41da1815fa377af659060200160405180910390a150565b610468610a7b565b60335460405163fe575a8760e01b81526001600160a01b0380871660048301528692169063fe575a8790602401602060405180830381865afa1580156104b0573d5f803e3d5ffd5b505050506040513d601f19601f820116820180604052508101906104d4919061158e565b156104f257604051637874e36360e01b815260040160405180910390fd5b604080516001600160a01b0387166020820152908101859052610528906060016040516020818303038152906040528484610ac5565b60325460405163a9059cbb60e01b81526001600160a01b038781166004830152602482018790529091169063a9059cbb906044016020604051808303815f875af1158015610578573d5f803e3d5ffd5b505050506040513d601f19601f8201168201806040525081019061059c919061158e565b50506105c760017f9b779b17422d0df92223018b32b4d1fa46e071723d6817e2486d003becc55f0055565b50505050565b6105d5610c4c565b6105de82610cf0565b6105e88282610cf8565b5050565b5f6105f5610db4565b505f8051602061163083398151915290565b61060f610a49565b6106185f610dfd565b565b338061062461088f565b6001600160a01b03161461065b5760405163118cdaa760e01b81526001600160a01b03821660048201526024015b60405180910390fd5b61066481610dfd565b50565b5f807f9016d09d72d40fdae2fd8ceac6b6234c7706214fd39c1cd1e609a0528c1993005b546001600160a01b031692915050565b7ff0c57e16840df040f15088dc2f81fe391c3923bec73e23a9662efc9c229c6a008054600160401b810460ff1615906001600160401b03165f811580156106df5750825b90505f826001600160401b031660011480156106fa5750303b155b905081158015610708575080155b156107265760405163f92ee8a960e01b815260040160405180910390fd5b845467ffffffffffffffff19166001178555831561075057845460ff60401b1916600160401b1785555b610758610e35565b610760610e45565b61076b8a8a8a610e55565b6107896001600160a01b038c1615610783578b610dfd565b33610dfd565b603380546001600160a01b038089166001600160a01b03199283161790925560328054928a169290911691909117905583156107ff57845460ff60401b19168555604051600181527fc7f505b2f371ae2175ee4913f4499e1f2633a7b5936321eed1cdaeb6115181d29060200160405180910390a15b5050505050505050505050565b604080516001600160a01b03841660208201529081018290525f90819060600160408051601f1981840301815290829052610849916020016115ad565b60408051808303601f1901815291815281516020928301205f9081529182905290205460ff16949350505050565b61087f610a49565b61088a838383610e65565b505050565b5f807f237e158222e3e6968b72b9db0d8043aacf074ad9f650f0d1606b4d82ee432c0061068b565b6108bf610a49565b7f237e158222e3e6968b72b9db0d8043aacf074ad9f650f0d1606b4d82ee432c0080546001600160a01b0319166001600160a01b0383169081178255610903610667565b6001600160a01b03167f38d16b8cac22d99fc7c124b9cd0de2d3fa1faef420bfe791d8c362d765e2270060405160405180910390a35050565b610944610a49565b6001600160a01b03811661096057506032546001600160a01b03165b806001600160a01b031663a9059cbb610977610667565b6040516370a0823160e01b81523060048201526001600160a01b038516906370a0823190602401602060405180830381865afa1580156109b9573d5f803e3d5ffd5b505050506040513d601f19601f820116820180604052508101906109dd91906115e9565b6040516001600160e01b031960e085901b1681526001600160a01b03909216600483015260248201526044016020604051808303815f875af1158015610a25573d5f803e3d5ffd5b505050506040513d601f19601f820116820180604052508101906105e8919061158e565b33610a52610667565b6001600160a01b0316146106185760405163118cdaa760e01b8152336004820152602401610652565b7f9b779b17422d0df92223018b32b4d1fa46e071723d6817e2486d003becc55f00805460011901610abf57604051633ee5aeb560e01b815260040160405180910390fd5b60029055565b6001541580610add57506002546001600160401b0316155b80610af85750600254600160401b90046001600160401b0316155b80610b0f5750600254426001600160401b03909116115b80610b2c575060025442600160401b9091046001600160401b0316105b15610b4a57604051632dc863bf60e11b815260040160405180910390fd5b5f83604051602001610b5c91906115ad565b60408051601f1981840301815291815281516020928301205f8181529283905291205490915060ff1615610ba3576040516383b9ec9b60e01b815260040160405180910390fd5b610bb1838360015484610f19565b610bce5760405163712eb08760e01b815260040160405180910390fd5b5f8181526020819052604090819020805460ff19166001179055517feddf608ef698454af2fb41c1df7b7e5154ff0d46969f895e0f39c7dfe7e6380a90610c189083815260200190565b60405180910390a150505050565b60017f9b779b17422d0df92223018b32b4d1fa46e071723d6817e2486d003becc55f0055565b306001600160a01b037f0000000000000000000000000000000000000000000000000000000000000000161480610cd257507f00000000000000000000000000000000000000000000000000000000000000006001600160a01b0316610cc65f80516020611630833981519152546001600160a01b031690565b6001600160a01b031614155b156106185760405163703e46dd60e11b815260040160405180910390fd5b610664610a49565b816001600160a01b03166352d1902d6040518163ffffffff1660e01b8152600401602060405180830381865afa925050508015610d52575060408051601f3d908101601f19168201909252610d4f918101906115e9565b60015b610d7a57604051634c9c8ce360e01b81526001600160a01b0383166004820152602401610652565b5f805160206116308339815191528114610daa57604051632a87526960e21b815260048101829052602401610652565b61088a8383610f62565b306001600160a01b037f000000000000000000000000000000000000000000000000000000000000000016146106185760405163703e46dd60e11b815260040160405180910390fd5b7f237e158222e3e6968b72b9db0d8043aacf074ad9f650f0d1606b4d82ee432c0080546001600160a01b03191681556105e882610fb7565b610e3d611027565b610618611070565b610e4d611027565b610618611078565b610e5d611027565b61087f6110ab565b816001600160401b0316836001600160401b03161115610e9857604051636a9c3ed560e01b815260040160405180910390fd5b600280546001600160401b038581166fffffffffffffffffffffffffffffffff199092168217600160401b9186169182021790925560018390556040805191825260208201929092529081018290527f3a1dc322f5057b97c5043591b6d369713dec43f0515cd53cc33f8d7590ecdcbc9060600160405180910390a1505050565b5f610f598585808060200260200160405190810160405280939291908181526020018383602002808284375f920191909152508792508691506110b39050565b95945050505050565b610f6b826110ca565b6040516001600160a01b038316907fbc7cd75a20ee27fd9adebab32041f755214dbc6bffa90cc0225b39da2e5c2d3b905f90a2805115610faf5761088a828261112d565b6105e8611196565b7f9016d09d72d40fdae2fd8ceac6b6234c7706214fd39c1cd1e609a0528c19930080546001600160a01b031981166001600160a01b03848116918217845560405192169182907f8be0079c531659141344cd1fd0a4f28419497f9722a3daafe3b4186f6b6457e0905f90a3505050565b7ff0c57e16840df040f15088dc2f81fe391c3923bec73e23a9662efc9c229c6a0054600160401b900460ff1661061857604051631afcd79f60e31b815260040160405180910390fd5b610c26611027565b611080611027565b7fcd5ed15c6e187e77e9aee88184c21f4f2182ab5827cb3b7e07fbedcd63f03300805460ff19169055565b610618611027565b5f826110bf85846111b5565b1490505b9392505050565b806001600160a01b03163b5f036110ff57604051634c9c8ce360e01b81526001600160a01b0382166004820152602401610652565b5f8051602061163083398151915280546001600160a01b0319166001600160a01b0392909216919091179055565b60605f80846001600160a01b0316846040516111499190611600565b5f60405180830381855af49150503d805f8114611181576040519150601f19603f3d011682016040523d82523d5f602084013e611186565b606091505b5091509150610f598583836111f7565b34156106185760405163b398979f60e01b815260040160405180910390fd5b5f81815b84518110156111ef576111e5828683815181106111d8576111d861161b565b6020026020010151611253565b91506001016111b9565b509392505050565b60608261120c576112078261127c565b6110c3565b815115801561122357506001600160a01b0384163b155b1561124c57604051639996b31560e01b81526001600160a01b0385166004820152602401610652565b50806110c3565b5f81831061126d575f8281526020849052604090206110c3565b505f9182526020526040902090565b80511561128c5780518082602001fd5b604051630a12f52160e11b815260040160405180910390fd5b6001600160a01b0381168114610664575f80fd5b5f602082840312156112c9575f80fd5b81356110c3816112a5565b5f805f80606085870312156112e7575f80fd5b84356112f2816112a5565b93506020850135925060408501356001600160401b0380821115611314575f80fd5b818701915087601f830112611327575f80fd5b813581811115611335575f80fd5b8860208260051b8501011115611349575f80fd5b95989497505060200194505050565b634e487b7160e01b5f52604160045260245ffd5b5f806040838503121561137d575f80fd5b8235611388816112a5565b915060208301356001600160401b03808211156113a3575f80fd5b818501915085601f8301126113b6575f80fd5b8135818111156113c8576113c8611358565b604051601f8201601f19908116603f011681019083821181831017156113f0576113f0611358565b81604052828152886020848701011115611408575f80fd5b826020860160208301375f6020848301015280955050505050509250929050565b5f5b8381101561144357818101518382015260200161142b565b50505f910152565b5f8151808452611462816020860160208601611429565b601f01601f19169290920160200192915050565b602081525f6110c3602083018461144b565b80356001600160401b038116811461149e575f80fd5b919050565b5f805f805f8060c087890312156114b8575f80fd5b86356114c3816112a5565b95506114d160208801611488565b94506114df60408801611488565b93506060870135925060808701356114f6816112a5565b915060a0870135611506816112a5565b809150509295509295509295565b5f8060408385031215611525575f80fd5b8235611530816112a5565b946020939093013593505050565b5f6020828403121561154e575f80fd5b5035919050565b5f805f60608486031215611567575f80fd5b61157084611488565b925061157e60208501611488565b9150604084013590509250925092565b5f6020828403121561159e575f80fd5b815180151581146110c3575f80fd5b6040815260136040820152720434c41494d5f5441494b4f5f41495244524f5606c1b6060820152608060208201525f6110c3608083018461144b565b5f602082840312156115f9575f80fd5b5051919050565b5f8251611611818460208701611429565b9190910192915050565b634e487b7160e01b5f52603260045260245ffdfe360894a13ba1a3210667c828492db98dca3e2076cc3735a920a3ca505d382bbca26469706673582212203f8729cdbfa67372b1384b1736a4b436e4f7da3cb93e40c6d9b334e9c8e5314064736f6c63430008180033","linkReferences":{}},"methodIdentifiers":{"UPGRADE_INTERFACE_VERSION()":"ad3cb1cc","acceptOwnership()":"79ba5097","blacklist()":"a4b5fa56","claim(address,uint256,bytes32[])":"3d13f874","claimEnd()":"3ccfa92f","claimStart()":"f04d688f","hasClaimed(address,uint256)":"b2931096","init(address,uint64,uint64,bytes32,address,address)":"aed956d6","isClaimed(bytes32)":"b89c3952","merkleRoot()":"2eb4a7ab","owner()":"8da5cb5b","paused()":"5c975abb","pendingOwner()":"e30c3978","proxiableUUID()":"52d1902d","renounceOwnership()":"715018a6","setConfig(uint64,uint64,bytes32)":"d03e9b36","token()":"fc0c546a","transferOwnership(address)":"f2fde38b","updateBlacklist(address)":"378b5704","upgradeToAndCall(address,bytes)":"4f1ef286","withdrawERC20(address)":"f4f3b200"},"storageLayout":{"storage":[{"astId":2979,"contract":"contracts/trailblazers-airdrop/ERC20Airdrop.sol:ERC20Airdrop","label":"isClaimed","offset":0,"slot":"0","type":"t_mapping(t_bytes32,t_bool)"},{"astId":2982,"contract":"contracts/trailblazers-airdrop/ERC20Airdrop.sol:ERC20Airdrop","label":"merkleRoot","offset":0,"slot":"1","type":"t_bytes32"},{"astId":2985,"contract":"contracts/trailblazers-airdrop/ERC20Airdrop.sol:ERC20Airdrop","label":"claimStart","offset":0,"slot":"2","type":"t_uint64"},{"astId":2988,"contract":"contracts/trailblazers-airdrop/ERC20Airdrop.sol:ERC20Airdrop","label":"claimEnd","offset":8,"slot":"2","type":"t_uint64"},{"astId":2992,"contract":"contracts/trailblazers-airdrop/ERC20Airdrop.sol:ERC20Airdrop","label":"__gap","offset":0,"slot":"3","type":"t_array(t_uint256)47_storage"},{"astId":2767,"contract":"contracts/trailblazers-airdrop/ERC20Airdrop.sol:ERC20Airdrop","label":"token","offset":0,"slot":"50","type":"t_contract(IERC20)14617"},{"astId":2771,"contract":"contracts/trailblazers-airdrop/ERC20Airdrop.sol:ERC20Airdrop","label":"blacklist","offset":0,"slot":"51","type":"t_contract(IMinimalBlacklist)19316"},{"astId":2783,"contract":"contracts/trailblazers-airdrop/ERC20Airdrop.sol:ERC20Airdrop","label":"__gap","offset":0,"slot":"52","type":"t_array(t_uint256)48_storage"}],"types":{"t_array(t_uint256)47_storage":{"encoding":"inplace","label":"uint256[47]","numberOfBytes":"1504","base":"t_uint256"},"t_array(t_uint256)48_storage":{"encoding":"inplace","label":"uint256[48]","numberOfBytes":"1536","base":"t_uint256"},"t_bool":{"encoding":"inplace","label":"bool","numberOfBytes":"1"},"t_bytes32":{"encoding":"inplace","label":"bytes32","numberOfBytes":"32"},"t_contract(IERC20)14617":{"encoding":"inplace","label":"contract IERC20","numberOfBytes":"20"},"t_contract(IMinimalBlacklist)19316":{"encoding":"inplace","label":"contract IMinimalBlacklist","numberOfBytes":"20"},"t_mapping(t_bytes32,t_bool)":{"encoding":"mapping","key":"t_bytes32","label":"mapping(bytes32 => bool)","numberOfBytes":"32","value":"t_bool"},"t_uint256":{"encoding":"inplace","label":"uint256","numberOfBytes":"32"},"t_uint64":{"encoding":"inplace","label":"uint64","numberOfBytes":"8"}}},"id":9}