{"abi":[{"type":"function","name":"UPGRADE_INTERFACE_VERSION","inputs":[],"outputs":[{"name":"","type":"string","internalType":"string"}],"stateMutability":"view"},{"type":"function","name":"acceptOwnership","inputs":[],"outputs":[],"stateMutability":"nonpayable"},{"type":"function","name":"canMint","inputs":[{"name":"_minter","type":"address","internalType":"address"},{"name":"_maxMints","type":"uint256","internalType":"uint256"}],"outputs":[{"name":"","type":"bool","internalType":"bool"}],"stateMutability":"view"},{"type":"function","name":"consumeMint","inputs":[{"name":"_proof","type":"bytes32[]","internalType":"bytes32[]"},{"name":"_freeMints","type":"uint256","internalType":"uint256"}],"outputs":[],"stateMutability":"nonpayable"},{"type":"function","name":"initialize","inputs":[{"name":"_owner","type":"address","internalType":"address"},{"name":"_root","type":"bytes32","internalType":"bytes32"}],"outputs":[],"stateMutability":"nonpayable"},{"type":"function","name":"leaf","inputs":[{"name":"_minter","type":"address","internalType":"address"},{"name":"_maxMints","type":"uint256","internalType":"uint256"}],"outputs":[{"name":"","type":"bytes32","internalType":"bytes32"}],"stateMutability":"pure"},{"type":"function","name":"minted","inputs":[{"name":"leaf","type":"bytes32","internalType":"bytes32"}],"outputs":[{"name":"hasMinted","type":"bool","internalType":"bool"}],"stateMutability":"view"},{"type":"function","name":"owner","inputs":[],"outputs":[{"name":"","type":"address","internalType":"address"}],"stateMutability":"view"},{"type":"function","name":"pendingOwner","inputs":[],"outputs":[{"name":"","type":"address","internalType":"address"}],"stateMutability":"view"},{"type":"function","name":"proxiableUUID","inputs":[],"outputs":[{"name":"","type":"bytes32","internalType":"bytes32"}],"stateMutability":"view"},{"type":"function","name":"renounceOwnership","inputs":[],"outputs":[],"stateMutability":"nonpayable"},{"type":"function","name":"root","inputs":[],"outputs":[{"name":"","type":"bytes32","internalType":"bytes32"}],"stateMutability":"view"},{"type":"function","name":"transferOwnership","inputs":[{"name":"newOwner","type":"address","internalType":"address"}],"outputs":[],"stateMutability":"nonpayable"},{"type":"function","name":"updateRoot","inputs":[{"name":"_root","type":"bytes32","internalType":"bytes32"}],"outputs":[],"stateMutability":"nonpayable"},{"type":"function","name":"upgradeToAndCall","inputs":[{"name":"newImplementation","type":"address","internalType":"address"},{"name":"data","type":"bytes","internalType":"bytes"}],"outputs":[],"stateMutability":"payable"},{"type":"event","name":"Initialized","inputs":[{"name":"version","type":"uint64","indexed":false,"internalType":"uint64"}],"anonymous":false},{"type":"event","name":"MintConsumed","inputs":[{"name":"_minter","type":"address","indexed":false,"internalType":"address"},{"name":"_mintAmount","type":"uint256","indexed":false,"internalType":"uint256"}],"anonymous":false},{"type":"event","name":"OwnershipTransferStarted","inputs":[{"name":"previousOwner","type":"address","indexed":true,"internalType":"address"},{"name":"newOwner","type":"address","indexed":true,"internalType":"address"}],"anonymous":false},{"type":"event","name":"OwnershipTransferred","inputs":[{"name":"previousOwner","type":"address","indexed":true,"internalType":"address"},{"name":"newOwner","type":"address","indexed":true,"internalType":"address"}],"anonymous":false},{"type":"event","name":"RootUpdated","inputs":[{"name":"_root","type":"bytes32","indexed":false,"internalType":"bytes32"}],"anonymous":false},{"type":"event","name":"Upgraded","inputs":[{"name":"implementation","type":"address","indexed":true,"internalType":"address"}],"anonymous":false},{"type":"error","name":"AddressEmptyCode","inputs":[{"name":"target","type":"address","internalType":"address"}]},{"type":"error","name":"ERC1967InvalidImplementation","inputs":[{"name":"implementation","type":"address","internalType":"address"}]},{"type":"error","name":"ERC1967NonPayable","inputs":[]},{"type":"error","name":"FailedInnerCall","inputs":[]},{"type":"error","name":"INVALID_PROOF","inputs":[]},{"type":"error","name":"INVALID_TOKEN_AMOUNT","inputs":[]},{"type":"error","name":"InvalidInitialization","inputs":[]},{"type":"error","name":"MINTS_EXCEEDED","inputs":[]},{"type":"error","name":"NotInitializing","inputs":[]},{"type":"error","name":"OwnableInvalidOwner","inputs":[{"name":"owner","type":"address","internalType":"address"}]},{"type":"error","name":"OwnableUnauthorizedAccount","inputs":[{"name":"account","type":"address","internalType":"address"}]},{"type":"error","name":"UUPSUnauthorizedCallContext","inputs":[]},{"type":"error","name":"UUPSUnsupportedProxiableUUID","inputs":[{"name":"slot","type":"bytes32","internalType":"bytes32"}]}],"bytecode":{"object":"0x60a060405230608052348015610013575f80fd5b5061001c610021565b6100d3565b7ff0c57e16840df040f15088dc2f81fe391c3923bec73e23a9662efc9c229c6a00805468010000000000000000900460ff16156100715760405163f92ee8a960e01b815260040160405180910390fd5b80546001600160401b03908116146100d05780546001600160401b0319166001600160401b0390811782556040519081527fc7f505b2f371ae2175ee4913f4499e1f2633a7b5936321eed1cdaeb6115181d29060200160405180910390a15b50565b60805161101c6100f95f395f818161063e0152818161066701526107a6015261101c5ff3fe6080604052600436106100e4575f3560e01c80638ccc5f8011610087578063d83b2bf811610057578063d83b2bf81461026f578063e30c39781461028e578063ebf0c717146102a2578063f2fde38b146102b6575f80fd5b80638ccc5f80146101b95780638da5cb5b146101e7578063ad3cb1cc14610213578063be13f47c14610250575f80fd5b806352d1902d116100c257806352d1902d14610150578063715018a61461017257806379ba50971461018657806388c859071461019a575f80fd5b80630d5e34a4146100e857806321ff99701461011c5780634f1ef2861461013d575b5f80fd5b3480156100f3575f80fd5b50610107610102366004610d90565b6102d5565b60405190151581526020015b60405180910390f35b348015610127575f80fd5b5061013b610136366004610db8565b6102fb565b005b61013b61014b366004610de3565b610307565b34801561015b575f80fd5b50610164610326565b604051908152602001610113565b34801561017d575f80fd5b5061013b610341565b348015610191575f80fd5b5061013b610354565b3480156101a5575f80fd5b5061013b6101b4366004610e9f565b61039e565b3480156101c4575f80fd5b506101076101d3366004610db8565b60016020525f908152604090205460ff1681565b3480156101f2575f80fd5b506101fb6103ae565b6040516001600160a01b039091168152602001610113565b34801561021e575f80fd5b50610243604051806040016040528060058152602001640352e302e360dc1b81525081565b6040516101139190610f35565b34801561025b575f80fd5b5061013b61026a366004610d90565b6103e2565b34801561027a575f80fd5b50610164610289366004610d90565b6104f3565b348015610299575f80fd5b506101fb61054c565b3480156102ad575f80fd5b506101645f5481565b3480156102c1575f80fd5b5061013b6102d0366004610f67565b610574565b5f806102e184846104f3565b5f9081526001602052604090205460ff1615949350505050565b610304816105f9565b50565b61030f610633565b610318826106d7565b61032282826106df565b5050565b5f61032f61079b565b505f80516020610fc783398151915290565b6103496107e4565b6103525f610816565b565b338061035e61054c565b6001600160a01b0316146103955760405163118cdaa760e01b81526001600160a01b03821660048201526024015b60405180910390fd5b61030481610816565b6103a983838361084e565b505050565b5f807f9016d09d72d40fdae2fd8ceac6b6234c7706214fd39c1cd1e609a0528c1993005b546001600160a01b031692915050565b7ff0c57e16840df040f15088dc2f81fe391c3923bec73e23a9662efc9c229c6a008054600160401b810460ff16159067ffffffffffffffff165f811580156104275750825b90505f8267ffffffffffffffff1660011480156104435750303b155b905081158015610451575080155b1561046f5760405163f92ee8a960e01b815260040160405180910390fd5b845467ffffffffffffffff19166001178555831561049957845460ff60401b1916600160401b1785555b6104a38787610941565b83156104ea57845460ff60401b19168555604051600181527fc7f505b2f371ae2175ee4913f4499e1f2633a7b5936321eed1cdaeb6115181d2906020015b60405180910390a15b50505050505050565b604080516001600160a01b03841660208201529081018290525f9060600160408051601f198184030181528282528051602091820120908301520160405160208183030381529060405280519060200120905092915050565b5f807f237e158222e3e6968b72b9db0d8043aacf074ad9f650f0d1606b4d82ee432c006103d2565b61057c6107e4565b7f237e158222e3e6968b72b9db0d8043aacf074ad9f650f0d1606b4d82ee432c0080546001600160a01b0319166001600160a01b03831690811782556105c06103ae565b6001600160a01b03167f38d16b8cac22d99fc7c124b9cd0de2d3fa1faef420bfe791d8c362d765e2270060405160405180910390a35050565b5f8190556040518181527f2cbc14f49c068133583f7cb530018af451c87c1cf1327cf2a4ff4698c4730aa49060200160405180910390a150565b306001600160a01b037f00000000000000000000000000000000000000000000000000000000000000001614806106b957507f00000000000000000000000000000000000000000000000000000000000000006001600160a01b03166106ad5f80516020610fc7833981519152546001600160a01b031690565b6001600160a01b031614155b156103525760405163703e46dd60e11b815260040160405180910390fd5b6103046107e4565b816001600160a01b03166352d1902d6040518163ffffffff1660e01b8152600401602060405180830381865afa925050508015610739575060408051601f3d908101601f1916820190925261073691810190610f80565b60015b61076157604051634c9c8ce360e01b81526001600160a01b038316600482015260240161038c565b5f80516020610fc7833981519152811461079157604051632a87526960e21b81526004810182905260240161038c565b6103a98383610a64565b306001600160a01b037f000000000000000000000000000000000000000000000000000000000000000016146103525760405163703e46dd60e11b815260040160405180910390fd5b336107ed6103ae565b6001600160a01b0316146103525760405163118cdaa760e01b815233600482015260240161038c565b7f237e158222e3e6968b72b9db0d8043aacf074ad9f650f0d1606b4d82ee432c0080546001600160a01b031916815561032282610ab9565b61085833826102d5565b61087557604051639ea134e960e01b815260040160405180910390fd5b5f61088033836104f3565b90506108c08484808060200260200160405190810160405280939291908181526020018383602002808284375f920182905250549250859150610b299050565b6108dd5760405163712eb08760e01b815260040160405180910390fd5b5f818152600160208190526040909120805460ff191690911790557ff71d0afb6ca23454b34db8bf7baf45f79e8c2f41e5499375ea2289312b2d317b33604080516001600160a01b039092168252602082018590520160405180910390a150505050565b7ff0c57e16840df040f15088dc2f81fe391c3923bec73e23a9662efc9c229c6a008054600160401b810460ff16159067ffffffffffffffff165f811580156109865750825b90505f8267ffffffffffffffff1660011480156109a25750303b155b9050811580156109b0575080155b156109ce5760405163f92ee8a960e01b815260040160405180910390fd5b845467ffffffffffffffff1916600117855583156109f857845460ff60401b1916600160401b1785555b610a166001600160a01b03881615610a105787610816565b33610816565b610a1e610b40565b5f86905583156104ea57845460ff60401b19168555604051600181527fc7f505b2f371ae2175ee4913f4499e1f2633a7b5936321eed1cdaeb6115181d2906020016104e1565b610a6d82610b48565b6040516001600160a01b038316907fbc7cd75a20ee27fd9adebab32041f755214dbc6bffa90cc0225b39da2e5c2d3b905f90a2805115610ab1576103a98282610bab565b610322610c1d565b7f9016d09d72d40fdae2fd8ceac6b6234c7706214fd39c1cd1e609a0528c19930080546001600160a01b031981166001600160a01b03848116918217845560405192169182907f8be0079c531659141344cd1fd0a4f28419497f9722a3daafe3b4186f6b6457e0905f90a3505050565b5f82610b358584610c3c565b1490505b9392505050565b610352610c7e565b806001600160a01b03163b5f03610b7d57604051634c9c8ce360e01b81526001600160a01b038216600482015260240161038c565b5f80516020610fc783398151915280546001600160a01b0319166001600160a01b0392909216919091179055565b60605f80846001600160a01b031684604051610bc79190610f97565b5f60405180830381855af49150503d805f8114610bff576040519150601f19603f3d011682016040523d82523d5f602084013e610c04565b606091505b5091509150610c14858383610cc7565b95945050505050565b34156103525760405163b398979f60e01b815260040160405180910390fd5b5f81815b8451811015610c7657610c6c82868381518110610c5f57610c5f610fb2565b6020026020010151610d23565b9150600101610c40565b509392505050565b7ff0c57e16840df040f15088dc2f81fe391c3923bec73e23a9662efc9c229c6a0054600160401b900460ff1661035257604051631afcd79f60e31b815260040160405180910390fd5b606082610cdc57610cd782610d4c565b610b39565b8151158015610cf357506001600160a01b0384163b155b15610d1c57604051639996b31560e01b81526001600160a01b038516600482015260240161038c565b5080610b39565b5f818310610d3d575f828152602084905260409020610b39565b505f9182526020526040902090565b805115610d5c5780518082602001fd5b604051630a12f52160e11b815260040160405180910390fd5b80356001600160a01b0381168114610d8b575f80fd5b919050565b5f8060408385031215610da1575f80fd5b610daa83610d75565b946020939093013593505050565b5f60208284031215610dc8575f80fd5b5035919050565b634e487b7160e01b5f52604160045260245ffd5b5f8060408385031215610df4575f80fd5b610dfd83610d75565b9150602083013567ffffffffffffffff80821115610e19575f80fd5b818501915085601f830112610e2c575f80fd5b813581811115610e3e57610e3e610dcf565b604051601f8201601f19908116603f01168101908382118183101715610e6657610e66610dcf565b81604052828152886020848701011115610e7e575f80fd5b826020860160208301375f6020848301015280955050505050509250929050565b5f805f60408486031215610eb1575f80fd5b833567ffffffffffffffff80821115610ec8575f80fd5b818601915086601f830112610edb575f80fd5b813581811115610ee9575f80fd5b8760208260051b8501011115610efd575f80fd5b6020928301989097509590910135949350505050565b5f5b83811015610f2d578181015183820152602001610f15565b50505f910152565b602081525f8251806020840152610f53816040850160208701610f13565b601f01601f19169190910160400192915050565b5f60208284031215610f77575f80fd5b610b3982610d75565b5f60208284031215610f90575f80fd5b5051919050565b5f8251610fa8818460208701610f13565b9190910192915050565b634e487b7160e01b5f52603260045260245ffdfe360894a13ba1a3210667c828492db98dca3e2076cc3735a920a3ca505d382bbca2646970667358221220b85ec7bbf8af322ee1590af180617e541d2aeaab5b33c376cc0b579bfd6eba3664736f6c63430008180033","linkReferences":{}},"methodIdentifiers":{"UPGRADE_INTERFACE_VERSION()":"ad3cb1cc","acceptOwnership()":"79ba5097","canMint(address,uint256)":"0d5e34a4","consumeMint(bytes32[],uint256)":"88c85907","initialize(address,bytes32)":"be13f47c","leaf(address,uint256)":"d83b2bf8","minted(bytes32)":"8ccc5f80","owner()":"8da5cb5b","pendingOwner()":"e30c3978","proxiableUUID()":"52d1902d","renounceOwnership()":"715018a6","root()":"ebf0c717","transferOwnership(address)":"f2fde38b","updateRoot(bytes32)":"21ff9970","upgradeToAndCall(address,bytes)":"4f1ef286"},"id":58}