{"abi":[{"type":"function","name":"DEFAULT_ADMIN_ROLE","inputs":[],"outputs":[{"name":"","type":"bytes32","internalType":"bytes32"}],"stateMutability":"view"},{"type":"function","name":"S1_BADGES_ROLE","inputs":[],"outputs":[{"name":"","type":"bytes32","internalType":"bytes32"}],"stateMutability":"view"},{"type":"function","name":"UPGRADE_INTERFACE_VERSION","inputs":[],"outputs":[{"name":"","type":"string","internalType":"string"}],"stateMutability":"view"},{"type":"function","name":"acceptOwnership","inputs":[],"outputs":[],"stateMutability":"nonpayable"},{"type":"function","name":"enableRecruitments","inputs":[{"name":"_s1BadgeIds","type":"uint256[]","internalType":"uint256[]"}],"outputs":[],"stateMutability":"nonpayable"},{"type":"function","name":"enableRecruitments","inputs":[{"name":"_startTime","type":"uint256","internalType":"uint256"},{"name":"_endTime","type":"uint256","internalType":"uint256"},{"name":"_s1BadgeIds","type":"uint256[]","internalType":"uint256[]"}],"outputs":[],"stateMutability":"nonpayable"},{"type":"function","name":"endRecruitment","inputs":[{"name":"_hash","type":"bytes32","internalType":"bytes32"},{"name":"_v","type":"uint8","internalType":"uint8"},{"name":"_r","type":"bytes32","internalType":"bytes32"},{"name":"_s","type":"bytes32","internalType":"bytes32"},{"name":"_exp","type":"uint256","internalType":"uint256"}],"outputs":[],"stateMutability":"nonpayable"},{"type":"function","name":"generateClaimHash","inputs":[{"name":"_hashType","type":"uint8","internalType":"enum BadgeRecruitment.HashType"},{"name":"_user","type":"address","internalType":"address"},{"name":"_exp","type":"uint256","internalType":"uint256"}],"outputs":[{"name":"","type":"bytes32","internalType":"bytes32"}],"stateMutability":"pure"},{"type":"function","name":"getActiveRecruitmentFor","inputs":[{"name":"_user","type":"address","internalType":"address"}],"outputs":[{"name":"","type":"tuple","internalType":"struct BadgeRecruitment.Recruitment","components":[{"name":"recruitmentCycle","type":"uint256","internalType":"uint256"},{"name":"user","type":"address","internalType":"address"},{"name":"s1BadgeId","type":"uint256","internalType":"uint256"},{"name":"s1TokenId","type":"uint256","internalType":"uint256"},{"name":"s2TokenId","type":"uint256","internalType":"uint256"},{"name":"cooldownExpiration","type":"uint256","internalType":"uint256"},{"name":"influenceExpiration","type":"uint256","internalType":"uint256"},{"name":"whaleInfluences","type":"uint256","internalType":"uint256"},{"name":"minnowInfluences","type":"uint256","internalType":"uint256"}]}],"stateMutability":"view"},{"type":"function","name":"getConfig","inputs":[],"outputs":[{"name":"","type":"tuple","internalType":"struct BadgeRecruitment.Config","components":[{"name":"cooldownRecruitment","type":"uint256","internalType":"uint256"},{"name":"cooldownInfluence","type":"uint256","internalType":"uint256"},{"name":"influenceWeightPercent","type":"uint256","internalType":"uint256"},{"name":"baseMaxInfluences","type":"uint256","internalType":"uint256"},{"name":"maxInfluencesDivider","type":"uint256","internalType":"uint256"},{"name":"defaultCycleDuration","type":"uint256","internalType":"uint256"}]}],"stateMutability":"view"},{"type":"function","name":"getRecruitmentCycle","inputs":[{"name":"_cycleId","type":"uint256","internalType":"uint256"}],"outputs":[{"name":"","type":"tuple","internalType":"struct BadgeRecruitment.RecruitmentCycle","components":[{"name":"cycleId","type":"uint256","internalType":"uint256"},{"name":"startTime","type":"uint256","internalType":"uint256"},{"name":"endTime","type":"uint256","internalType":"uint256"},{"name":"s1BadgeIds","type":"uint256[]","internalType":"uint256[]"}]}],"stateMutability":"view"},{"type":"function","name":"getRecruitmentInfluences","inputs":[{"name":"_user","type":"address","internalType":"address"}],"outputs":[{"name":"_whaleInfluences","type":"uint256","internalType":"uint256"},{"name":"_minnowInfluences","type":"uint256","internalType":"uint256"}],"stateMutability":"view"},{"type":"function","name":"getRoleAdmin","inputs":[{"name":"role","type":"bytes32","internalType":"bytes32"}],"outputs":[{"name":"","type":"bytes32","internalType":"bytes32"}],"stateMutability":"view"},{"type":"function","name":"grantRole","inputs":[{"name":"role","type":"bytes32","internalType":"bytes32"},{"name":"account","type":"address","internalType":"address"}],"outputs":[],"stateMutability":"nonpayable"},{"type":"function","name":"hasRole","inputs":[{"name":"role","type":"bytes32","internalType":"bytes32"},{"name":"account","type":"address","internalType":"address"}],"outputs":[{"name":"","type":"bool","internalType":"bool"}],"stateMutability":"view"},{"type":"function","name":"influenceRecruitment","inputs":[{"name":"_hash","type":"bytes32","internalType":"bytes32"},{"name":"_v","type":"uint8","internalType":"uint8"},{"name":"_r","type":"bytes32","internalType":"bytes32"},{"name":"_s","type":"bytes32","internalType":"bytes32"},{"name":"_exp","type":"uint256","internalType":"uint256"},{"name":"_influenceColor","type":"uint8","internalType":"enum BadgeRecruitment.InfluenceColor"}],"outputs":[],"stateMutability":"nonpayable"},{"type":"function","name":"initialize","inputs":[{"name":"_s1Badges","type":"address","internalType":"address"},{"name":"_s2Badges","type":"address","internalType":"address"},{"name":"_randomSigner","type":"address","internalType":"address"},{"name":"_config","type":"tuple","internalType":"struct BadgeRecruitment.Config","components":[{"name":"cooldownRecruitment","type":"uint256","internalType":"uint256"},{"name":"cooldownInfluence","type":"uint256","internalType":"uint256"},{"name":"influenceWeightPercent","type":"uint256","internalType":"uint256"},{"name":"baseMaxInfluences","type":"uint256","internalType":"uint256"},{"name":"maxInfluencesDivider","type":"uint256","internalType":"uint256"},{"name":"defaultCycleDuration","type":"uint256","internalType":"uint256"}]}],"outputs":[],"stateMutability":"nonpayable"},{"type":"function","name":"isInfluenceActive","inputs":[{"name":"_user","type":"address","internalType":"address"}],"outputs":[{"name":"","type":"bool","internalType":"bool"}],"stateMutability":"view"},{"type":"function","name":"isRecruitmentActive","inputs":[{"name":"_user","type":"address","internalType":"address"}],"outputs":[{"name":"","type":"bool","internalType":"bool"}],"stateMutability":"view"},{"type":"function","name":"maxInfluences","inputs":[{"name":"_exp","type":"uint256","internalType":"uint256"}],"outputs":[{"name":"value","type":"uint256","internalType":"uint256"}],"stateMutability":"view"},{"type":"function","name":"onERC721Received","inputs":[{"name":"","type":"address","internalType":"address"},{"name":"","type":"address","internalType":"address"},{"name":"","type":"uint256","internalType":"uint256"},{"name":"","type":"bytes","internalType":"bytes"}],"outputs":[{"name":"","type":"bytes4","internalType":"bytes4"}],"stateMutability":"nonpayable"},{"type":"function","name":"owner","inputs":[],"outputs":[{"name":"","type":"address","internalType":"address"}],"stateMutability":"view"},{"type":"function","name":"pendingOwner","inputs":[],"outputs":[{"name":"","type":"address","internalType":"address"}],"stateMutability":"view"},{"type":"function","name":"proxiableUUID","inputs":[],"outputs":[{"name":"","type":"bytes32","internalType":"bytes32"}],"stateMutability":"view"},{"type":"function","name":"randomFromSignature","inputs":[{"name":"_hash","type":"bytes32","internalType":"bytes32"},{"name":"_v","type":"uint8","internalType":"uint8"},{"name":"_r","type":"bytes32","internalType":"bytes32"},{"name":"_s","type":"bytes32","internalType":"bytes32"}],"outputs":[{"name":"_random","type":"uint256","internalType":"uint256"}],"stateMutability":"view"},{"type":"function","name":"randomSigner","inputs":[],"outputs":[{"name":"","type":"address","internalType":"address"}],"stateMutability":"view"},{"type":"function","name":"recruitmentCycleId","inputs":[],"outputs":[{"name":"","type":"uint256","internalType":"uint256"}],"stateMutability":"view"},{"type":"function","name":"recruitmentCycleUniqueMints","inputs":[{"name":"recruitmentCycle","type":"uint256","internalType":"uint256"},{"name":"minter","type":"address","internalType":"address"},{"name":"s1BadgeId","type":"uint256","internalType":"uint256"},{"name":"recruitmentType","type":"uint8","internalType":"enum BadgeRecruitment.RecruitmentType"}],"outputs":[{"name":"mintEnded","type":"bool","internalType":"bool"}],"stateMutability":"view"},{"type":"function","name":"recruitmentCycles","inputs":[{"name":"cycleId","type":"uint256","internalType":"uint256"}],"outputs":[{"name":"cycleId","type":"uint256","internalType":"uint256"},{"name":"startTime","type":"uint256","internalType":"uint256"},{"name":"endTime","type":"uint256","internalType":"uint256"}],"stateMutability":"view"},{"type":"function","name":"recruitments","inputs":[{"name":"_user","type":"address","internalType":"address"},{"name":"","type":"uint256","internalType":"uint256"}],"outputs":[{"name":"recruitmentCycle","type":"uint256","internalType":"uint256"},{"name":"user","type":"address","internalType":"address"},{"name":"s1BadgeId","type":"uint256","internalType":"uint256"},{"name":"s1TokenId","type":"uint256","internalType":"uint256"},{"name":"s2TokenId","type":"uint256","internalType":"uint256"},{"name":"cooldownExpiration","type":"uint256","internalType":"uint256"},{"name":"influenceExpiration","type":"uint256","internalType":"uint256"},{"name":"whaleInfluences","type":"uint256","internalType":"uint256"},{"name":"minnowInfluences","type":"uint256","internalType":"uint256"}],"stateMutability":"view"},{"type":"function","name":"renounceOwnership","inputs":[],"outputs":[],"stateMutability":"nonpayable"},{"type":"function","name":"renounceRole","inputs":[{"name":"role","type":"bytes32","internalType":"bytes32"},{"name":"callerConfirmation","type":"address","internalType":"address"}],"outputs":[],"stateMutability":"nonpayable"},{"type":"function","name":"revokeRole","inputs":[{"name":"role","type":"bytes32","internalType":"bytes32"},{"name":"account","type":"address","internalType":"address"}],"outputs":[],"stateMutability":"nonpayable"},{"type":"function","name":"s1Badges","inputs":[],"outputs":[{"name":"","type":"address","internalType":"contract TrailblazersBadgesV4"}],"stateMutability":"view"},{"type":"function","name":"s2Badges","inputs":[],"outputs":[{"name":"","type":"address","internalType":"contract TrailblazersBadgesS2"}],"stateMutability":"view"},{"type":"function","name":"setConfig","inputs":[{"name":"_config","type":"tuple","internalType":"struct BadgeRecruitment.Config","components":[{"name":"cooldownRecruitment","type":"uint256","internalType":"uint256"},{"name":"cooldownInfluence","type":"uint256","internalType":"uint256"},{"name":"influenceWeightPercent","type":"uint256","internalType":"uint256"},{"name":"baseMaxInfluences","type":"uint256","internalType":"uint256"},{"name":"maxInfluencesDivider","type":"uint256","internalType":"uint256"},{"name":"defaultCycleDuration","type":"uint256","internalType":"uint256"}]}],"outputs":[],"stateMutability":"nonpayable"},{"type":"function","name":"startRecruitment","inputs":[{"name":"_hash","type":"bytes32","internalType":"bytes32"},{"name":"_v","type":"uint8","internalType":"uint8"},{"name":"_r","type":"bytes32","internalType":"bytes32"},{"name":"_s","type":"bytes32","internalType":"bytes32"},{"name":"_exp","type":"uint256","internalType":"uint256"}],"outputs":[],"stateMutability":"nonpayable"},{"type":"function","name":"startRecruitment","inputs":[{"name":"_hash","type":"bytes32","internalType":"bytes32"},{"name":"_v","type":"uint8","internalType":"uint8"},{"name":"_r","type":"bytes32","internalType":"bytes32"},{"name":"_s","type":"bytes32","internalType":"bytes32"},{"name":"_exp","type":"uint256","internalType":"uint256"},{"name":"_s1BadgeId","type":"uint256","internalType":"uint256"}],"outputs":[],"stateMutability":"nonpayable"},{"type":"function","name":"startRecruitment","inputs":[{"name":"_user","type":"address","internalType":"address"},{"name":"_s1BadgeId","type":"uint256","internalType":"uint256"}],"outputs":[],"stateMutability":"nonpayable"},{"type":"function","name":"supportsInterface","inputs":[{"name":"_interfaceId","type":"bytes4","internalType":"bytes4"}],"outputs":[{"name":"","type":"bool","internalType":"bool"}],"stateMutability":"view"},{"type":"function","name":"transferOwnership","inputs":[{"name":"newOwner","type":"address","internalType":"address"}],"outputs":[],"stateMutability":"nonpayable"},{"type":"function","name":"upgradeToAndCall","inputs":[{"name":"newImplementation","type":"address","internalType":"address"},{"name":"data","type":"bytes","internalType":"bytes"}],"outputs":[],"stateMutability":"payable"},{"type":"function","name":"userExperience","inputs":[{"name":"user","type":"address","internalType":"address"}],"outputs":[{"name":"experience","type":"uint256","internalType":"uint256"}],"stateMutability":"view"},{"type":"event","name":"Initialized","inputs":[{"name":"version","type":"uint64","indexed":false,"internalType":"uint64"}],"anonymous":false},{"type":"event","name":"OwnershipTransferStarted","inputs":[{"name":"previousOwner","type":"address","indexed":true,"internalType":"address"},{"name":"newOwner","type":"address","indexed":true,"internalType":"address"}],"anonymous":false},{"type":"event","name":"OwnershipTransferred","inputs":[{"name":"previousOwner","type":"address","indexed":true,"internalType":"address"},{"name":"newOwner","type":"address","indexed":true,"internalType":"address"}],"anonymous":false},{"type":"event","name":"RecruitmentComplete","inputs":[{"name":"recruitmentCycle","type":"uint256","indexed":true,"internalType":"uint256"},{"name":"user","type":"address","indexed":true,"internalType":"address"},{"name":"s1TokenId","type":"uint256","indexed":false,"internalType":"uint256"},{"name":"s2TokenId","type":"uint256","indexed":false,"internalType":"uint256"},{"name":"finalColor","type":"uint256","indexed":false,"internalType":"uint256"}],"anonymous":false},{"type":"event","name":"RecruitmentCycleToggled","inputs":[{"name":"recruitmentCycleId","type":"uint256","indexed":true,"internalType":"uint256"},{"name":"startTime","type":"uint256","indexed":true,"internalType":"uint256"},{"name":"endTime","type":"uint256","indexed":true,"internalType":"uint256"},{"name":"s1BadgeIds","type":"uint256[]","indexed":false,"internalType":"uint256[]"},{"name":"enabled","type":"bool","indexed":false,"internalType":"bool"}],"anonymous":false},{"type":"event","name":"RecruitmentUpdated","inputs":[{"name":"recruitmentCycle","type":"uint256","indexed":true,"internalType":"uint256"},{"name":"user","type":"address","indexed":true,"internalType":"address"},{"name":"s1BadgeId","type":"uint256","indexed":false,"internalType":"uint256"},{"name":"s1TokenId","type":"uint256","indexed":false,"internalType":"uint256"},{"name":"s2TokenId","type":"uint256","indexed":false,"internalType":"uint256"},{"name":"cooldownExpiration","type":"uint256","indexed":false,"internalType":"uint256"},{"name":"influenceExpiration","type":"uint256","indexed":false,"internalType":"uint256"},{"name":"whaleInfluences","type":"uint256","indexed":false,"internalType":"uint256"},{"name":"minnowInfluences","type":"uint256","indexed":false,"internalType":"uint256"}],"anonymous":false},{"type":"event","name":"RoleAdminChanged","inputs":[{"name":"role","type":"bytes32","indexed":true,"internalType":"bytes32"},{"name":"previousAdminRole","type":"bytes32","indexed":true,"internalType":"bytes32"},{"name":"newAdminRole","type":"bytes32","indexed":true,"internalType":"bytes32"}],"anonymous":false},{"type":"event","name":"RoleGranted","inputs":[{"name":"role","type":"bytes32","indexed":true,"internalType":"bytes32"},{"name":"account","type":"address","indexed":true,"internalType":"address"},{"name":"sender","type":"address","indexed":true,"internalType":"address"}],"anonymous":false},{"type":"event","name":"RoleRevoked","inputs":[{"name":"role","type":"bytes32","indexed":true,"internalType":"bytes32"},{"name":"account","type":"address","indexed":true,"internalType":"address"},{"name":"sender","type":"address","indexed":true,"internalType":"address"}],"anonymous":false},{"type":"event","name":"Upgraded","inputs":[{"name":"implementation","type":"address","indexed":true,"internalType":"address"}],"anonymous":false},{"type":"error","name":"ALREADY_MIGRATED_IN_CYCLE","inputs":[]},{"type":"error","name":"AccessControlBadConfirmation","inputs":[]},{"type":"error","name":"AccessControlUnauthorizedAccount","inputs":[{"name":"account","type":"address","internalType":"address"},{"name":"neededRole","type":"bytes32","internalType":"bytes32"}]},{"type":"error","name":"AddressEmptyCode","inputs":[{"name":"target","type":"address","internalType":"address"}]},{"type":"error","name":"CURRENT_CYCLE_NOT_OVER","inputs":[]},{"type":"error","name":"ERC1967InvalidImplementation","inputs":[{"name":"implementation","type":"address","internalType":"address"}]},{"type":"error","name":"ERC1967NonPayable","inputs":[]},{"type":"error","name":"EXP_TOO_LOW","inputs":[]},{"type":"error","name":"FailedInnerCall","inputs":[]},{"type":"error","name":"HASH_MISMATCH","inputs":[]},{"type":"error","name":"INFLUENCE_IN_PROGRESS","inputs":[]},{"type":"error","name":"INVALID_INFLUENCE_COLOR","inputs":[]},{"type":"error","name":"InvalidInitialization","inputs":[]},{"type":"error","name":"MAX_INFLUENCES_REACHED","inputs":[]},{"type":"error","name":"NOT_RANDOM_SIGNER","inputs":[]},{"type":"error","name":"NOT_S1_CONTRACT","inputs":[]},{"type":"error","name":"NotInitializing","inputs":[]},{"type":"error","name":"OwnableInvalidOwner","inputs":[{"name":"owner","type":"address","internalType":"address"}]},{"type":"error","name":"OwnableUnauthorizedAccount","inputs":[{"name":"account","type":"address","internalType":"address"}]},{"type":"error","name":"RECRUITMENT_ALREADY_STARTED","inputs":[]},{"type":"error","name":"RECRUITMENT_NOT_ENABLED","inputs":[]},{"type":"error","name":"RECRUITMENT_NOT_READY","inputs":[]},{"type":"error","name":"RECRUITMENT_NOT_STARTED","inputs":[]},{"type":"error","name":"TOKEN_NOT_OWNED","inputs":[]},{"type":"error","name":"UUPSUnauthorizedCallContext","inputs":[]},{"type":"error","name":"UUPSUnsupportedProxiableUUID","inputs":[{"name":"slot","type":"bytes32","internalType":"bytes32"}]}],"bytecode":{"object":"0x60a060405230608052348015610013575f80fd5b506080516134b861003a5f395f818161254f0152818161257801526126b701526134b85ff3fe608060405260043610610254575f3560e01c8063715018a61161013f578063c3f909d4116100b3578063d9144d4811610078578063d9144d481461082c578063db3fb1e914610897578063e30c3978146108b6578063e67dfb65146108ca578063f2fde38b146108e8578063f376be8014610907575f80fd5b8063c3f909d41461073c578063cf1f24ae1461079b578063cf5e5461146107ba578063d2fc9d40146107d9578063d547741f1461080d575f80fd5b80638bbee489116101045780638bbee489146106675780638da5cb5b1461069a57806391d14854146106ae57806399d162c3146106cd578063a217fddf146106ec578063ad3cb1cc146106ff575f80fd5b8063715018a6146105e25780637792e731146105f657806379ba509714610615578063809b78cb146106295780638267400614610648575f80fd5b806336568abe116101d657806347e84ad01161019b57806347e84ad0146104d95780634f1ef286146104f857806352d1902d1461050b578063576639781461051f57806357b286591461053e578063670ae94814610553575f80fd5b806336568abe14610432578063394869581461045157806339890988146104705780633b52d4da1461048f5780633c9e0050146104ae575f80fd5b8063248a9ca31161021c578063248a9ca3146103535780632f2ff15d14610380578063303a6fbe1461039f57806334485075146103be5780633610a41514610413575f80fd5b806301ffc9a714610258578063150b7a021461028c57806316fc74ed146102cf5780631825d03a146102f05780631cc273661461031c575b5f80fd5b348015610263575f80fd5b50610277610272366004612bd2565b61094f565b60405190151581526020015b60405180910390f35b348015610297575f80fd5b506102b66102a6366004612caa565b630a85bd0160e11b949350505050565b6040516001600160e01b03199091168152602001610283565b3480156102da575f80fd5b506102ee6102e9366004612d8a565b61095f565b005b3480156102fb575f80fd5b5061030f61030a366004612de3565b610b25565b6040516102839190612dfa565b348015610327575f80fd5b5060025461033b906001600160a01b031681565b6040516001600160a01b039091168152602001610283565b34801561035e575f80fd5b5061037261036d366004612de3565b610bd9565b604051908152602001610283565b34801561038b575f80fd5b506102ee61039a366004612e68565b610bf9565b3480156103aa575f80fd5b506103726103b9366004612eab565b610c1b565b3480156103c9575f80fd5b506103f86103d8366004612de3565b600c6020525f908152604090208054600182015460029092015490919083565b60408051938452602084019290925290820152606001610283565b34801561041e575f80fd5b506102ee61042d366004612ee3565b610ca6565b34801561043d575f80fd5b506102ee61044c366004612e68565b610f4e565b34801561045c575f80fd5b5061037261046b366004612de3565b610f86565b34801561047b575f80fd5b506102ee61048a366004612f25565b610f95565b34801561049a575f80fd5b506102ee6104a9366004612ee3565b610fce565b3480156104b9575f80fd5b506103726104c8366004612f3f565b60056020525f908152604090205481565b3480156104e4575f80fd5b506102ee6104f3366004612f5a565b611291565b6102ee610506366004612fa4565b61155e565b348015610516575f80fd5b5061037261157d565b34801561052a575f80fd5b506102ee610539366004612ff1565b611598565b348015610549575f80fd5b5061037260035481565b34801561055e575f80fd5b5061057261056d366004612f3f565b6118eb565b6040516102839190815181526020808301516001600160a01b03169082015260408083015190820152606080830151908201526080808301519082015260a0808301519082015260c0808301519082015260e0808301519082015261010091820151918101919091526101200190565b3480156105ed575f80fd5b506102ee611a29565b348015610601575f80fd5b506102ee610610366004613063565b611a3c565b348015610620575f80fd5b506102ee611a60565b348015610634575f80fd5b5060015461033b906001600160a01b031681565b348015610653575f80fd5b50610277610662366004612f3f565b611aad565b348015610672575f80fd5b506103727fa9295b7d9ec6c9c985c388ae05777dd7762a53925e64874088b96ee6c4df733f81565b3480156106a5575f80fd5b5061033b611ae9565b3480156106b9575f80fd5b506102776106c8366004612e68565b611b1d565b3480156106d8575f80fd5b506102ee6106e73660046130ae565b611b53565b3480156106f7575f80fd5b506103725f81565b34801561070a575f80fd5b5061072f604051806040016040528060058152602001640352e302e360dc1b81525081565b6040516102839190613128565b348015610747575f80fd5b50610750611d0e565b60405161028391905f60c082019050825182526020830151602083015260408301516040830152606083015160608301526080830151608083015260a083015160a083015292915050565b3480156107a6575f80fd5b506102776107b5366004612f3f565b611d7e565b3480156107c5575f80fd5b506102ee6107d436600461315a565b611d96565b3480156107e4575f80fd5b506107f86107f3366004612f3f565b611db3565b60408051928352602083019190915201610283565b348015610818575f80fd5b506102ee610827366004612e68565b611dfc565b348015610837575f80fd5b5061084b610846366004612ff1565b611e18565b60408051998a526001600160a01b0390981660208a0152968801959095526060870193909352608086019190915260a085015260c084015260e083015261010082015261012001610283565b3480156108a2575f80fd5b506103726108b13660046131a9565b611e86565b3480156108c1575f80fd5b5061033b611ebc565b3480156108d5575f80fd5b505f5461033b906001600160a01b031681565b3480156108f3575f80fd5b506102ee610902366004612f3f565b611ee4565b348015610912575f80fd5b506102776109213660046131ea565b600460209081525f948552604080862082529385528385208152918452828420909152825290205460ff1681565b5f61095982611f69565b92915050565b7ff0c57e16840df040f15088dc2f81fe391c3923bec73e23a9662efc9c229c6a008054600160401b810460ff16159067ffffffffffffffff165f811580156109a45750825b90505f8267ffffffffffffffff1660011480156109c05750303b155b9050811580156109ce575080155b156109ec5760405163f92ee8a960e01b815260040160405180910390fd5b845467ffffffffffffffff191660011785558315610a1657845460ff60401b1916600160401b1785555b610a1f33611f9d565b610a27611fd5565b610a315f33611fdd565b505f80546001600160a01b0319166001600160a01b038b16179055610a767fa9295b7d9ec6c9c985c388ae05777dd7762a53925e64874088b96ee6c4df733f8a611fdd565b50600180546001600160a01b03808b166001600160a01b03199283161790925560028054928a169290911691909117905585516006556020860151600755604086015160085560608601516009556080860151600a5560a0860151600b558315610b1a57845460ff60401b19168555604051600181527fc7f505b2f371ae2175ee4913f4499e1f2633a7b5936321eed1cdaeb6115181d29060200160405180910390a15b505050505050505050565b610b4d60405180608001604052805f81526020015f81526020015f8152602001606081525090565b5f828152600c60209081526040918290208251608081018452815481526001820154818401526002820154818501526003820180548551818602810186019096528086529194929360608601939290830182828015610bc957602002820191905f5260205f20905b815481526020019060010190808311610bb5575b5050505050815250509050919050565b5f9081525f80516020613463833981519152602052604090206001015490565b610c0282610bd9565b610c0b8161207e565b610c158383611fdd565b50505050565b5f80610c2986868686612088565b50506002549091506001600160a01b03808316911614610c5c5760405163221ad94760e21b815260040160405180910390fd5b60408051602081018690529081018490526001600160f81b031960f887901b16606082015260610160408051601f1981840301815291905280516020909101209695505050505050565b335f818152600d602052604090205415801590610d0857506001600160a01b0381165f908152600d602052604090208054429190610ce690600190613245565b81548110610cf657610cf6613258565b905f5260205f20906009020160050154115b15610d2557604051621f91b360e81b815260040160405180910390fd5b5f610d3260013385611e86565b9050868114610d5457604051631ee54adb60e21b815260040160405180910390fd5b5f610d6188888888612088565b50506002549091506001600160a01b03808316911614610d945760405163221ad94760e21b815260040160405180910390fd5b335f90815260056020526040902054841015610dc3576040516318d2950d60e01b815260040160405180910390fd5b335f908152600560209081526040808320879055600380548452600c835281842082516080810184528154815260018201548186015260028201548185015291810180548451818702810187019095528085529294919360608601939092830182828015610e4e57602002820191905f5260205f20905b815481526020019060010190808311610e3a575b50505050508152505090504281602001511180610e6e5750428160400151105b15610e8c5760405163636c60f360e11b815260040160405180910390fd5b5f610e998a8a8a8a610c1b565b606083015180519192505f91610eaf908461326c565b81518110610ebf57610ebf613258565b6020026020010151905060045f60035481526020019081526020015f205f610ee43390565b6001600160a01b0316815260208082019290925260409081015f90812084825283528181206001825290925290205460ff1615610f3457604051633112d86360e11b815260040160405180910390fd5b610f4133825f6001612150565b5050505050505050505050565b6001600160a01b0381163314610f775760405163334bd91960e11b815260040160405180910390fd5b610f818282612357565b505050565b6009545f90610959908261329f565b5f610f9f8161207e565b5080516006556020810151600755604081015160085560608101516009556080810151600a5560a00151600b55565b5f610fd8336118eb565b90508060a001515f03610ffe576040516318e0eb3f60e21b815260040160405180910390fd5b5f611008336118eb565b9050428160c00151111561102f576040516381b0c4d760e01b815260040160405180910390fd5b428160a0015111156110545760405163dea48fb360e01b815260040160405180910390fd5b5f6110626002335b86611e86565b905087811461108457604051631ee54adb60e21b815260040160405180910390fd5b5f61109189898989610c1b565b90505f6006600201548460e001516110a991906132b2565b6110b490603261329f565b90505f6006600201548561010001516110cd91906132b2565b6110d890603261329f565b90505f6110e5828461329f565b90505f6110f2828661326c565b90505f8382101561110557506002611109565b5060015b60408801516001546001600160a01b031663352926a8338360078111156111325761113261328b565b856040518463ffffffff1660e01b8152600401611151939291906132c9565b5f604051808303815f87803b158015611168575f80fd5b505af115801561117a573d5f803e3d5ffd5b505050505f60015f9054906101000a90046001600160a01b03166001600160a01b03166318160ddd6040518163ffffffff1660e01b8152600401602060405180830381865afa1580156111cf573d5f803e3d5ffd5b505050506040513d601f19601f820116820180604052508101906111f3919061330d565b60808b018190525f60a08c0181905260c08c015290506112128a6123d0565b89602001516001600160a01b03168a5f01517fffec938eb2c7cb5ff8d678b6cbb318f371bae12503ece793a7b90ce6675e8a3b8c606001518d608001518760028111156112615761126161328b565b6040805193845260208401929092529082015260600160405180910390a350505050505050505050505050505050565b335f818152600d6020526040902054158015906112f357506001600160a01b0381165f908152600d6020526040902080544291906112d190600190613245565b815481106112e1576112e1613258565b905f5260205f20906009020160050154115b1561131057604051621f91b360e81b815260040160405180910390fd5b815f600c5f60035481526020019081526020015f206040518060800160405290815f820154815260200160018201548152602001600282015481526020016003820180548060200260200160405190810160405280929190818152602001828054801561139a57602002820191905f5260205f20905b815481526020019060010190808311611386575b505050505081525050905042816020015111806113ba5750428160400151105b156113d85760405163636c60f360e11b815260040160405180910390fd5b5f805b82606001515181101561141d5783836060015182815181106113ff576113ff613258565b602002602001015103611415576001915061141d565b6001016113db565b508061143c5760405163636c60f360e11b815260040160405180910390fd5b6003545f908152600460209081526040808320338085529083528184208985528352818420600180865293529220548792919060ff161561149057604051633112d86360e11b815260040160405180910390fd5b5f61149d6001338b611e86565b90508d81146114bf57604051631ee54adb60e21b815260040160405180910390fd5b5f6114cc8f8f8f8f612088565b50506002549091506001600160a01b038083169116146114ff5760405163221ad94760e21b815260040160405180910390fd5b335f908152600560205260409020548b101561152e576040516318d2950d60e01b815260040160405180910390fd5b335f8181526005602052604081208d905561154d91908c906001612150565b505050505050505050505050505050565b611566612544565b61156f826125e8565b61157982826125f0565b5050565b5f6115866126ac565b505f8051602061344383398151915290565b7fa9295b7d9ec6c9c985c388ae05777dd7762a53925e64874088b96ee6c4df733f6115c28161207e565b815f600c5f60035481526020019081526020015f206040518060800160405290815f820154815260200160018201548152602001600282015481526020016003820180548060200260200160405190810160405280929190818152602001828054801561164c57602002820191905f5260205f20905b815481526020019060010190808311611638575b5050505050815250509050428160200151118061166c5750428160400151105b1561168a5760405163636c60f360e11b815260040160405180910390fd5b5f805b8260600151518110156116cf5783836060015182815181106116b1576116b1613258565b6020026020010151036116c757600191506116cf565b60010161168d565b50806116ee5760405163636c60f360e11b815260040160405180910390fd5b6001600160a01b0386165f908152600d602052604090205486901580159061175b57506001600160a01b0381165f908152600d60205260409020805442919061173990600190613245565b8154811061174957611749613258565b905f5260205f20906009020160050154115b1561177857604051621f91b360e81b815260040160405180910390fd5b6003545f9081526004602090815260408083206001600160a01b038b1684528252808320898452825280832060028085529252909120548791899160ff16156117d457604051633112d86360e11b815260040160405180910390fd5b5f80546040516329f99b9f60e01b81526001600160a01b038d81166004830152602482018d9052909116906329f99b9f90604401602060405180830381865afa158015611823573d5f803e3d5ffd5b505050506040513d601f19601f82011682018060405250810190611847919061330d565b5f546040516331a9108f60e11b8152600481018390529192506001600160a01b038d811692911690636352211e90602401602060405180830381865afa158015611893573d5f803e3d5ffd5b505050506040513d601f19601f820116820180604052508101906118b79190613324565b6001600160a01b0316146118de57604051634e9806e960e01b815260040160405180910390fd5b610f418b8b836002612150565b61193a6040518061012001604052805f81526020015f6001600160a01b031681526020015f81526020015f81526020015f81526020015f81526020015f81526020015f81526020015f81525090565b6001600160a01b0382165f908152600d60205260408120549003611971576040516318e0eb3f60e21b815260040160405180910390fd5b6001600160a01b0382165f908152600d60205260409020805461199690600190613245565b815481106119a6576119a6613258565b5f918252602091829020604080516101208101825260099093029091018054835260018101546001600160a01b0316938301939093526002830154908201526003820154606082015260048201546080820152600582015460a0820152600682015460c0820152600782015460e082015260089091015461010082015292915050565b611a316126f5565b611a3a5f611f9d565b565b5f611a468161207e565b600b54610f81904290611a59908261329f565b8585612727565b3380611a6a611ebc565b6001600160a01b031614611aa15760405163118cdaa760e01b81526001600160a01b03821660048201526024015b60405180910390fd5b611aaa81611f9d565b50565b6001600160a01b0381165f908152600d60205260408120548103611ad257505f919050565b5f611adc836118eb565b60a0015115159392505050565b5f807f9016d09d72d40fdae2fd8ceac6b6234c7706214fd39c1cd1e609a0528c1993005b546001600160a01b031692915050565b5f9182525f80516020613463833981519152602090815260408084206001600160a01b0393909316845291905290205460ff1690565b5f611b5d336118eb565b90508060a001515f03611b83576040516318e0eb3f60e21b815260040160405180910390fd5b5f611b8f60033361105c565b9050878114611bb157604051631ee54adb60e21b815260040160405180910390fd5b5f611bbe89898989612088565b50506002549091506001600160a01b03808316911614611bf15760405163221ad94760e21b815260040160405180910390fd5b5f611bfb336118eb565b9050611c0686610f86565b8161010001518260e00151611c1b919061329f565b10611c3957604051635f45a5db60e11b815260040160405180910390fd5b428160c001511115611c5e576040516381b0c4d760e01b815260040160405180910390fd5b6001856002811115611c7257611c7261328b565b03611c965760e08101805190611c878261333f565b9052505f610100820152611ce7565b6002856002811115611caa57611caa61328b565b03611cce576101008101805190611cc08261333f565b9052505f60e0820152611ce7565b6040516320909ef960e21b815260040160405180910390fd5b600754611cf4904261329f565b60c0820152611d02816123d0565b50505050505050505050565b611d416040518060c001604052805f81526020015f81526020015f81526020015f81526020015f81526020015f81525090565b506040805160c08101825260065481526007546020820152600854918101919091526009546060820152600a546080820152600b5460a082015290565b5f80611d89836118eb565b60c0015142109392505050565b5f611da08161207e565b611dac85858585612727565b5050505050565b5f80611dbe83611aad565b611ddb576040516318e0eb3f60e21b815260040160405180910390fd5b5f611de5846118eb565b90508060e001518161010001519250925050915091565b611e0582610bd9565b611e0e8161207e565b610c158383612357565b600d602052815f5260405f208181548110611e31575f80fd5b5f9182526020909120600990910201805460018201546002830154600384015460048501546005860154600687015460078801546008909801549699506001600160a01b039095169750929591949093919089565b5f838383604051602001611e9c93929190613357565b6040516020818303038152906040528051906020012090505b9392505050565b5f807f237e158222e3e6968b72b9db0d8043aacf074ad9f650f0d1606b4d82ee432c00611b0d565b611eec6126f5565b7f237e158222e3e6968b72b9db0d8043aacf074ad9f650f0d1606b4d82ee432c0080546001600160a01b0319166001600160a01b0383169081178255611f30611ae9565b6001600160a01b03167f38d16b8cac22d99fc7c124b9cd0de2d3fa1faef420bfe791d8c362d765e2270060405160405180910390a35050565b5f6001600160e01b03198216637965db0b60e01b148061095957506301ffc9a760e01b6001600160e01b0319831614610959565b7f237e158222e3e6968b72b9db0d8043aacf074ad9f650f0d1606b4d82ee432c0080546001600160a01b0319168155611579826128b5565b611a3a612925565b5f5f80516020613463833981519152611ff68484611b1d565b612075575f848152602082815260408083206001600160a01b03871684529091529020805460ff1916600117905561202b3390565b6001600160a01b0316836001600160a01b0316857f2f8788117e7eff1d82e926ec794901d17c78024a50270940304540a733656f0d60405160405180910390a46001915050610959565b5f915050610959565b611aaa813361296e565b5f80807f7fffffffffffffffffffffffffffffff5d576e7357a4501ddfe92f46681b20a08411156120c157505f91506003905082612146565b604080515f808252602082018084528a905260ff891692820192909252606081018790526080810186905260019060a0016020604051602081039080840390855afa158015612112573d5f803e3d5ffd5b5050604051601f1901519150506001600160a01b03811661213d57505f925060019150829050612146565b92505f91508190505b9450945094915050565b5f6040518061012001604052806003548152602001866001600160a01b031681526020018581526020018481526020015f815260200160065f015442612196919061329f565b81525f6020808301829052604080840183905260609384018390526001600160a01b038a8116808552600d845282852080546001808201835591875285872089516009909202019081558886015181830180546001600160a01b03191691909516179093558784015160028085019190915596880151600380850191909155608089015160048086019190915560a08a0151600586015560c08a0151600686015560e08a015160078601556101008a015160089095019490945554865291845282852090855283528184208a855290925282209394509291859081111561227f5761227f61328b565b60028111156122905761229061328b565b81526020019081526020015f205f6101000a81548160ff02191690831515021790555080602001516001600160a01b0316815f01517f55a6a5f6256623ecc47fb8aa0ba547ef554efdb493d344f9c05acfc0a6b1cb528360400151846060015185608001518660a001518760c001518860e001518961010001516040516123489796959493929190968752602087019590955260408601939093526060850191909152608084015260a083015260c082015260e00190565b60405180910390a35050505050565b5f5f805160206134638339815191526123708484611b1d565b15612075575f848152602082815260408083206001600160a01b0387168085529252808320805460ff1916905551339287917ff6391f5c32d9c69d2a47ea670b442974b53935d1edc7fd64eb21e047a839171b9190a46001915050610959565b602080820180516001600160a01b039081165f908152600d9093526040808420925190911683529091205482919061240a90600190613245565b8154811061241a5761241a613258565b905f5260205f2090600902015f820151815f01556020820151816001015f6101000a8154816001600160a01b0302191690836001600160a01b0316021790555060408201518160020155606082015181600301556080820151816004015560a0820151816005015560c0820151816006015560e08201518160070155610100820151816008015590505080602001516001600160a01b0316815f01517f55a6a5f6256623ecc47fb8aa0ba547ef554efdb493d344f9c05acfc0a6b1cb528360400151846060015185608001518660a001518760c001518860e001518961010001516040516125399796959493929190968752602087019590955260408601939093526060850191909152608084015260a083015260c082015260e00190565b60405180910390a350565b306001600160a01b037f00000000000000000000000000000000000000000000000000000000000000001614806125ca57507f00000000000000000000000000000000000000000000000000000000000000006001600160a01b03166125be5f80516020613443833981519152546001600160a01b031690565b6001600160a01b031614155b15611a3a5760405163703e46dd60e11b815260040160405180910390fd5b611aaa6126f5565b816001600160a01b03166352d1902d6040518163ffffffff1660e01b8152600401602060405180830381865afa92505050801561264a575060408051601f3d908101601f191682019092526126479181019061330d565b60015b61267257604051634c9c8ce360e01b81526001600160a01b0383166004820152602401611a98565b5f8051602061344383398151915281146126a257604051632a87526960e21b815260048101829052602401611a98565b610f8183836129a7565b306001600160a01b037f00000000000000000000000000000000000000000000000000000000000000001614611a3a5760405163703e46dd60e11b815260040160405180910390fd5b336126fe611ae9565b6001600160a01b031614611a3a5760405163118cdaa760e01b8152336004820152602401611a98565b5f60035411801561274a57506003545f908152600c602052604090206002015442105b15612768576040516377037a0760e11b815260040160405180910390fd5b600380545f818152600c602052604080822060028101546001820154925190959294937f05190ba6864329d874061fa0dbc07ef11aa0048f9628c61cbb2672aad0baf1cf936127b8930191613396565b60405180910390a460038054905f6127cf8361333f565b9190505550604051806080016040528060035481526020018581526020018481526020018383808060200260200160405190810160405280939291908181526020018383602002808284375f920182905250939094525050600380548252600c6020908152604092839020855181558582015160018201559285015160028401556060850151805193945061286a9392850192910190612b75565b5090505082846003547f05190ba6864329d874061fa0dbc07ef11aa0048f9628c61cbb2672aad0baf1cf858560016040516128a7939291906133eb565b60405180910390a450505050565b7f9016d09d72d40fdae2fd8ceac6b6234c7706214fd39c1cd1e609a0528c19930080546001600160a01b031981166001600160a01b03848116918217845560405192169182907f8be0079c531659141344cd1fd0a4f28419497f9722a3daafe3b4186f6b6457e0905f90a3505050565b7ff0c57e16840df040f15088dc2f81fe391c3923bec73e23a9662efc9c229c6a0054600160401b900460ff16611a3a57604051631afcd79f60e31b815260040160405180910390fd5b6129788282611b1d565b6115795760405163e2517d3f60e01b81526001600160a01b038216600482015260248101839052604401611a98565b6129b0826129fc565b6040516001600160a01b038316907fbc7cd75a20ee27fd9adebab32041f755214dbc6bffa90cc0225b39da2e5c2d3b905f90a28051156129f457610f818282612a5f565b611579612ad1565b806001600160a01b03163b5f03612a3157604051634c9c8ce360e01b81526001600160a01b0382166004820152602401611a98565b5f8051602061344383398151915280546001600160a01b0319166001600160a01b0392909216919091179055565b60605f80846001600160a01b031684604051612a7b9190613427565b5f60405180830381855af49150503d805f8114612ab3576040519150601f19603f3d011682016040523d82523d5f602084013e612ab8565b606091505b5091509150612ac8858383612af0565b95945050505050565b3415611a3a5760405163b398979f60e01b815260040160405180910390fd5b606082612b0557612b0082612b4c565b611eb5565b8151158015612b1c57506001600160a01b0384163b155b15612b4557604051639996b31560e01b81526001600160a01b0385166004820152602401611a98565b5080611eb5565b805115612b5c5780518082602001fd5b604051630a12f52160e11b815260040160405180910390fd5b828054828255905f5260205f20908101928215612bae579160200282015b82811115612bae578251825591602001919060010190612b93565b50612bba929150612bbe565b5090565b5b80821115612bba575f8155600101612bbf565b5f60208284031215612be2575f80fd5b81356001600160e01b031981168114611eb5575f80fd5b6001600160a01b0381168114611aaa575f80fd5b634e487b7160e01b5f52604160045260245ffd5b5f82601f830112612c30575f80fd5b813567ffffffffffffffff80821115612c4b57612c4b612c0d565b604051601f8301601f19908116603f01168101908282118183101715612c7357612c73612c0d565b81604052838152866020858801011115612c8b575f80fd5b836020870160208301375f602085830101528094505050505092915050565b5f805f8060808587031215612cbd575f80fd5b8435612cc881612bf9565b93506020850135612cd881612bf9565b925060408501359150606085013567ffffffffffffffff811115612cfa575f80fd5b612d0687828801612c21565b91505092959194509250565b5f60c08284031215612d22575f80fd5b60405160c0810181811067ffffffffffffffff82111715612d4557612d45612c0d565b8060405250809150823581526020830135602082015260408301356040820152606083013560608201526080830135608082015260a083013560a08201525092915050565b5f805f806101208587031215612d9e575f80fd5b8435612da981612bf9565b93506020850135612db981612bf9565b92506040850135612dc981612bf9565b9150612dd88660608701612d12565b905092959194509250565b5f60208284031215612df3575f80fd5b5035919050565b5f602080835260a0830184518285015281850151604085015260408501516060850152606085015160808086015281815180845260c08701915084830193505f92505b80831015612e5d5783518252928401926001929092019190840190612e3d565b509695505050505050565b5f8060408385031215612e79575f80fd5b823591506020830135612e8b81612bf9565b809150509250929050565b803560ff81168114612ea6575f80fd5b919050565b5f805f8060808587031215612ebe575f80fd5b84359350612ece60208601612e96565b93969395505050506040820135916060013590565b5f805f805f60a08688031215612ef7575f80fd5b85359450612f0760208701612e96565b94979496505050506040830135926060810135926080909101359150565b5f60c08284031215612f35575f80fd5b611eb58383612d12565b5f60208284031215612f4f575f80fd5b8135611eb581612bf9565b5f805f805f8060c08789031215612f6f575f80fd5b86359550612f7f60208801612e96565b95989597505050506040840135936060810135936080820135935060a0909101359150565b5f8060408385031215612fb5575f80fd5b8235612fc081612bf9565b9150602083013567ffffffffffffffff811115612fdb575f80fd5b612fe785828601612c21565b9150509250929050565b5f8060408385031215613002575f80fd5b823561300d81612bf9565b946020939093013593505050565b5f8083601f84011261302b575f80fd5b50813567ffffffffffffffff811115613042575f80fd5b6020830191508360208260051b850101111561305c575f80fd5b9250929050565b5f8060208385031215613074575f80fd5b823567ffffffffffffffff81111561308a575f80fd5b6130968582860161301b565b90969095509350505050565b60038110611aaa575f80fd5b5f805f805f8060c087890312156130c3575f80fd5b863595506130d360208801612e96565b945060408701359350606087013592506080870135915060a08701356130f8816130a2565b809150509295509295509295565b5f5b83811015613120578181015183820152602001613108565b50505f910152565b602081525f8251806020840152613146816040850160208701613106565b601f01601f19169190910160400192915050565b5f805f806060858703121561316d575f80fd5b8435935060208501359250604085013567ffffffffffffffff811115613191575f80fd5b61319d8782880161301b565b95989497509550505050565b5f805f606084860312156131bb575f80fd5b8335600481106131c9575f80fd5b925060208401356131d981612bf9565b929592945050506040919091013590565b5f805f80608085870312156131fd575f80fd5b84359350602085013561320f81612bf9565b9250604085013591506060850135613226816130a2565b939692955090935050565b634e487b7160e01b5f52601160045260245ffd5b8181038181111561095957610959613231565b634e487b7160e01b5f52603260045260245ffd5b5f8261328657634e487b7160e01b5f52601260045260245ffd5b500690565b634e487b7160e01b5f52602160045260245ffd5b8082018082111561095957610959613231565b808202811582820484141761095957610959613231565b6001600160a01b038416815260608101600884106132e9576132e961328b565b836020830152600383106132ff576132ff61328b565b826040830152949350505050565b5f6020828403121561331d575f80fd5b5051919050565b5f60208284031215613334575f80fd5b8151611eb581612bf9565b5f6001820161335057613350613231565b5060010190565b5f600485106133685761336861328b565b5060f89390931b835260609190911b6bffffffffffffffffffffffff19166001830152601582015260350190565b5f6040820160408352808554808352606085019150865f526020925060205f205f5b828110156133d4578154845292840192600191820191016133b8565b505050809250505082151560208301529392505050565b604080825281018390525f6001600160fb1b03841115613409575f80fd5b8360051b808660608501379215156020830152500160600192915050565b5f8251613438818460208701613106565b919091019291505056fe360894a13ba1a3210667c828492db98dca3e2076cc3735a920a3ca505d382bbc02dd7bc7dec4dceedda775e58dd541e08a116c6c53815c0bd028192f7b626800a2646970667358221220bb8abbcb7d272882db38af9450e265855c4dcfc48ea405cfb95d29563fb8274464736f6c63430008180033","linkReferences":{}},"methodIdentifiers":{"DEFAULT_ADMIN_ROLE()":"a217fddf","S1_BADGES_ROLE()":"8bbee489","UPGRADE_INTERFACE_VERSION()":"ad3cb1cc","acceptOwnership()":"79ba5097","enableRecruitments(uint256,uint256,uint256[])":"cf5e5461","enableRecruitments(uint256[])":"7792e731","endRecruitment(bytes32,uint8,bytes32,bytes32,uint256)":"3b52d4da","generateClaimHash(uint8,address,uint256)":"db3fb1e9","getActiveRecruitmentFor(address)":"670ae948","getConfig()":"c3f909d4","getRecruitmentCycle(uint256)":"1825d03a","getRecruitmentInfluences(address)":"d2fc9d40","getRoleAdmin(bytes32)":"248a9ca3","grantRole(bytes32,address)":"2f2ff15d","hasRole(bytes32,address)":"91d14854","influenceRecruitment(bytes32,uint8,bytes32,bytes32,uint256,uint8)":"99d162c3","initialize(address,address,address,(uint256,uint256,uint256,uint256,uint256,uint256))":"16fc74ed","isInfluenceActive(address)":"cf1f24ae","isRecruitmentActive(address)":"82674006","maxInfluences(uint256)":"39486958","onERC721Received(address,address,uint256,bytes)":"150b7a02","owner()":"8da5cb5b","pendingOwner()":"e30c3978","proxiableUUID()":"52d1902d","randomFromSignature(bytes32,uint8,bytes32,bytes32)":"303a6fbe","randomSigner()":"1cc27366","recruitmentCycleId()":"57b28659","recruitmentCycleUniqueMints(uint256,address,uint256,uint8)":"f376be80","recruitmentCycles(uint256)":"34485075","recruitments(address,uint256)":"d9144d48","renounceOwnership()":"715018a6","renounceRole(bytes32,address)":"36568abe","revokeRole(bytes32,address)":"d547741f","s1Badges()":"e67dfb65","s2Badges()":"809b78cb","setConfig((uint256,uint256,uint256,uint256,uint256,uint256))":"39890988","startRecruitment(address,uint256)":"57663978","startRecruitment(bytes32,uint8,bytes32,bytes32,uint256)":"3610a415","startRecruitment(bytes32,uint8,bytes32,bytes32,uint256,uint256)":"47e84ad0","supportsInterface(bytes4)":"01ffc9a7","transferOwnership(address)":"f2fde38b","upgradeToAndCall(address,bytes)":"4f1ef286","userExperience(address)":"3c9e0050"},"storageLayout":{"storage":[{"astId":4267,"contract":"contracts/trailblazers-season-2/BadgeRecruitment.sol:BadgeRecruitment","label":"s1Badges","offset":0,"slot":"0","type":"t_contract(TrailblazersBadgesV4)6648"},{"astId":4277,"contract":"contracts/trailblazers-season-2/BadgeRecruitment.sol:BadgeRecruitment","label":"s2Badges","offset":0,"slot":"1","type":"t_contract(TrailblazersBadgesS2)6514"},{"astId":4280,"contract":"contracts/trailblazers-season-2/BadgeRecruitment.sol:BadgeRecruitment","label":"randomSigner","offset":0,"slot":"2","type":"t_address"},{"astId":4283,"contract":"contracts/trailblazers-season-2/BadgeRecruitment.sol:BadgeRecruitment","label":"recruitmentCycleId","offset":0,"slot":"3","type":"t_uint256"},{"astId":4295,"contract":"contracts/trailblazers-season-2/BadgeRecruitment.sol:BadgeRecruitment","label":"recruitmentCycleUniqueMints","offset":0,"slot":"4","type":"t_mapping(t_uint256,t_mapping(t_address,t_mapping(t_uint256,t_mapping(t_enum(RecruitmentType)4310,t_bool))))"},{"astId":4300,"contract":"contracts/trailblazers-season-2/BadgeRecruitment.sol:BadgeRecruitment","label":"userExperience","offset":0,"slot":"5","type":"t_mapping(t_address,t_uint256)"},{"astId":4334,"contract":"contracts/trailblazers-season-2/BadgeRecruitment.sol:BadgeRecruitment","label":"config","offset":0,"slot":"6","type":"t_struct(Config)4330_storage"},{"astId":4371,"contract":"contracts/trailblazers-season-2/BadgeRecruitment.sol:BadgeRecruitment","label":"recruitmentCycles","offset":0,"slot":"12","type":"t_mapping(t_uint256,t_struct(RecruitmentCycle)4365_storage)"},{"astId":4378,"contract":"contracts/trailblazers-season-2/BadgeRecruitment.sol:BadgeRecruitment","label":"recruitments","offset":0,"slot":"13","type":"t_mapping(t_address,t_array(t_struct(Recruitment)4354_storage)dyn_storage)"},{"astId":4383,"contract":"contracts/trailblazers-season-2/BadgeRecruitment.sol:BadgeRecruitment","label":"__gap","offset":0,"slot":"14","type":"t_array(t_uint256)43_storage"}],"types":{"t_address":{"encoding":"inplace","label":"address","numberOfBytes":"20"},"t_array(t_struct(Recruitment)4354_storage)dyn_storage":{"encoding":"dynamic_array","label":"struct BadgeRecruitment.Recruitment[]","numberOfBytes":"32","base":"t_struct(Recruitment)4354_storage"},"t_array(t_uint256)43_storage":{"encoding":"inplace","label":"uint256[43]","numberOfBytes":"1376","base":"t_uint256"},"t_array(t_uint256)dyn_storage":{"encoding":"dynamic_array","label":"uint256[]","numberOfBytes":"32","base":"t_uint256"},"t_bool":{"encoding":"inplace","label":"bool","numberOfBytes":"1"},"t_contract(TrailblazersBadgesS2)6514":{"encoding":"inplace","label":"contract TrailblazersBadgesS2","numberOfBytes":"20"},"t_contract(TrailblazersBadgesV4)6648":{"encoding":"inplace","label":"contract TrailblazersBadgesV4","numberOfBytes":"20"},"t_enum(RecruitmentType)4310":{"encoding":"inplace","label":"enum BadgeRecruitment.RecruitmentType","numberOfBytes":"1"},"t_mapping(t_address,t_array(t_struct(Recruitment)4354_storage)dyn_storage)":{"encoding":"mapping","key":"t_address","label":"mapping(address => struct BadgeRecruitment.Recruitment[])","numberOfBytes":"32","value":"t_array(t_struct(Recruitment)4354_storage)dyn_storage"},"t_mapping(t_address,t_mapping(t_uint256,t_mapping(t_enum(RecruitmentType)4310,t_bool)))":{"encoding":"mapping","key":"t_address","label":"mapping(address => mapping(uint256 => mapping(enum BadgeRecruitment.RecruitmentType => bool)))","numberOfBytes":"32","value":"t_mapping(t_uint256,t_mapping(t_enum(RecruitmentType)4310,t_bool))"},"t_mapping(t_address,t_uint256)":{"encoding":"mapping","key":"t_address","label":"mapping(address => uint256)","numberOfBytes":"32","value":"t_uint256"},"t_mapping(t_enum(RecruitmentType)4310,t_bool)":{"encoding":"mapping","key":"t_enum(RecruitmentType)4310","label":"mapping(enum BadgeRecruitment.RecruitmentType => bool)","numberOfBytes":"32","value":"t_bool"},"t_mapping(t_uint256,t_mapping(t_address,t_mapping(t_uint256,t_mapping(t_enum(RecruitmentType)4310,t_bool))))":{"encoding":"mapping","key":"t_uint256","label":"mapping(uint256 => mapping(address => mapping(uint256 => mapping(enum BadgeRecruitment.RecruitmentType => bool))))","numberOfBytes":"32","value":"t_mapping(t_address,t_mapping(t_uint256,t_mapping(t_enum(RecruitmentType)4310,t_bool)))"},"t_mapping(t_uint256,t_mapping(t_enum(RecruitmentType)4310,t_bool))":{"encoding":"mapping","key":"t_uint256","label":"mapping(uint256 => mapping(enum BadgeRecruitment.RecruitmentType => bool))","numberOfBytes":"32","value":"t_mapping(t_enum(RecruitmentType)4310,t_bool)"},"t_mapping(t_uint256,t_struct(RecruitmentCycle)4365_storage)":{"encoding":"mapping","key":"t_uint256","label":"mapping(uint256 => struct BadgeRecruitment.RecruitmentCycle)","numberOfBytes":"32","value":"t_struct(RecruitmentCycle)4365_storage"},"t_struct(Config)4330_storage":{"encoding":"inplace","label":"struct BadgeRecruitment.Config","numberOfBytes":"192","members":[{"astId":4319,"contract":"contracts/trailblazers-season-2/BadgeRecruitment.sol:BadgeRecruitment","label":"cooldownRecruitment","offset":0,"slot":"0","type":"t_uint256"},{"astId":4321,"contract":"contracts/trailblazers-season-2/BadgeRecruitment.sol:BadgeRecruitment","label":"cooldownInfluence","offset":0,"slot":"1","type":"t_uint256"},{"astId":4323,"contract":"contracts/trailblazers-season-2/BadgeRecruitment.sol:BadgeRecruitment","label":"influenceWeightPercent","offset":0,"slot":"2","type":"t_uint256"},{"astId":4325,"contract":"contracts/trailblazers-season-2/BadgeRecruitment.sol:BadgeRecruitment","label":"baseMaxInfluences","offset":0,"slot":"3","type":"t_uint256"},{"astId":4327,"contract":"contracts/trailblazers-season-2/BadgeRecruitment.sol:BadgeRecruitment","label":"maxInfluencesDivider","offset":0,"slot":"4","type":"t_uint256"},{"astId":4329,"contract":"contracts/trailblazers-season-2/BadgeRecruitment.sol:BadgeRecruitment","label":"defaultCycleDuration","offset":0,"slot":"5","type":"t_uint256"}]},"t_struct(Recruitment)4354_storage":{"encoding":"inplace","label":"struct BadgeRecruitment.Recruitment","numberOfBytes":"288","members":[{"astId":4337,"contract":"contracts/trailblazers-season-2/BadgeRecruitment.sol:BadgeRecruitment","label":"recruitmentCycle","offset":0,"slot":"0","type":"t_uint256"},{"astId":4339,"contract":"contracts/trailblazers-season-2/BadgeRecruitment.sol:BadgeRecruitment","label":"user","offset":0,"slot":"1","type":"t_address"},{"astId":4341,"contract":"contracts/trailblazers-season-2/BadgeRecruitment.sol:BadgeRecruitment","label":"s1BadgeId","offset":0,"slot":"2","type":"t_uint256"},{"astId":4343,"contract":"contracts/trailblazers-season-2/BadgeRecruitment.sol:BadgeRecruitment","label":"s1TokenId","offset":0,"slot":"3","type":"t_uint256"},{"astId":4345,"contract":"contracts/trailblazers-season-2/BadgeRecruitment.sol:BadgeRecruitment","label":"s2TokenId","offset":0,"slot":"4","type":"t_uint256"},{"astId":4347,"contract":"contracts/trailblazers-season-2/BadgeRecruitment.sol:BadgeRecruitment","label":"cooldownExpiration","offset":0,"slot":"5","type":"t_uint256"},{"astId":4349,"contract":"contracts/trailblazers-season-2/BadgeRecruitment.sol:BadgeRecruitment","label":"influenceExpiration","offset":0,"slot":"6","type":"t_uint256"},{"astId":4351,"contract":"contracts/trailblazers-season-2/BadgeRecruitment.sol:BadgeRecruitment","label":"whaleInfluences","offset":0,"slot":"7","type":"t_uint256"},{"astId":4353,"contract":"contracts/trailblazers-season-2/BadgeRecruitment.sol:BadgeRecruitment","label":"minnowInfluences","offset":0,"slot":"8","type":"t_uint256"}]},"t_struct(RecruitmentCycle)4365_storage":{"encoding":"inplace","label":"struct BadgeRecruitment.RecruitmentCycle","numberOfBytes":"128","members":[{"astId":4357,"contract":"contracts/trailblazers-season-2/BadgeRecruitment.sol:BadgeRecruitment","label":"cycleId","offset":0,"slot":"0","type":"t_uint256"},{"astId":4359,"contract":"contracts/trailblazers-season-2/BadgeRecruitment.sol:BadgeRecruitment","label":"startTime","offset":0,"slot":"1","type":"t_uint256"},{"astId":4361,"contract":"contracts/trailblazers-season-2/BadgeRecruitment.sol:BadgeRecruitment","label":"endTime","offset":0,"slot":"2","type":"t_uint256"},{"astId":4364,"contract":"contracts/trailblazers-season-2/BadgeRecruitment.sol:BadgeRecruitment","label":"s1BadgeIds","offset":0,"slot":"3","type":"t_array(t_uint256)dyn_storage"}]},"t_uint256":{"encoding":"inplace","label":"uint256","numberOfBytes":"32"}}},"id":14}