{"abi":[{"type":"function","name":"UPGRADE_INTERFACE_VERSION","inputs":[],"outputs":[{"name":"","type":"string","internalType":"string"}],"stateMutability":"view"},{"type":"function","name":"acceptOwnership","inputs":[],"outputs":[],"stateMutability":"nonpayable"},{"type":"function","name":"accruedPremia","inputs":[{"name":"","type":"uint256","internalType":"uint256"}],"outputs":[{"name":"","type":"uint256","internalType":"uint256"}],"stateMutability":"view"},{"type":"function","name":"burnOption","inputs":[{"name":"positionId","type":"uint256","internalType":"uint256"}],"outputs":[],"stateMutability":"nonpayable"},{"type":"function","name":"getPosition","inputs":[{"name":"positionId","type":"uint256","internalType":"uint256"}],"outputs":[{"name":"position","type":"tuple","internalType":"struct IOptaiko.OptionPosition","components":[{"name":"owner","type":"address","internalType":"address"},{"name":"poolId","type":"bytes32","internalType":"bytes32"},{"name":"legs","type":"tuple[]","internalType":"struct IOptaiko.Leg[]","components":[{"name":"isLong","type":"bool","internalType":"bool"},{"name":"tickLower","type":"int24","internalType":"int24"},{"name":"tickUpper","type":"int24","internalType":"int24"},{"name":"liquidity","type":"uint128","internalType":"uint128"}]},{"name":"openedAt","type":"uint256","internalType":"uint256"}]}],"stateMutability":"view"},{"type":"function","name":"initialize","inputs":[{"name":"_poolManager","type":"address","internalType":"address"},{"name":"_owner","type":"address","internalType":"address"}],"outputs":[],"stateMutability":"nonpayable"},{"type":"function","name":"lastUpdateTimestamp","inputs":[{"name":"","type":"uint256","internalType":"uint256"}],"outputs":[{"name":"","type":"uint256","internalType":"uint256"}],"stateMutability":"view"},{"type":"function","name":"mintOption","inputs":[{"name":"poolId","type":"bytes32","internalType":"bytes32"},{"name":"legs","type":"tuple[]","internalType":"struct IOptaiko.Leg[]","components":[{"name":"isLong","type":"bool","internalType":"bool"},{"name":"tickLower","type":"int24","internalType":"int24"},{"name":"tickUpper","type":"int24","internalType":"int24"},{"name":"liquidity","type":"uint128","internalType":"uint128"}]}],"outputs":[{"name":"positionId","type":"uint256","internalType":"uint256"}],"stateMutability":"nonpayable"},{"type":"function","name":"owner","inputs":[],"outputs":[{"name":"","type":"address","internalType":"address"}],"stateMutability":"view"},{"type":"function","name":"pendingOwner","inputs":[],"outputs":[{"name":"","type":"address","internalType":"address"}],"stateMutability":"view"},{"type":"function","name":"poolManager","inputs":[],"outputs":[{"name":"","type":"address","internalType":"contract IPoolManager"}],"stateMutability":"view"},{"type":"function","name":"proxiableUUID","inputs":[],"outputs":[{"name":"","type":"bytes32","internalType":"bytes32"}],"stateMutability":"view"},{"type":"function","name":"renounceOwnership","inputs":[],"outputs":[],"stateMutability":"nonpayable"},{"type":"function","name":"transferOwnership","inputs":[{"name":"newOwner","type":"address","internalType":"address"}],"outputs":[],"stateMutability":"nonpayable"},{"type":"function","name":"updatePoolManager","inputs":[{"name":"_newPoolManager","type":"address","internalType":"address"}],"outputs":[],"stateMutability":"nonpayable"},{"type":"function","name":"upgradeToAndCall","inputs":[{"name":"newImplementation","type":"address","internalType":"address"},{"name":"data","type":"bytes","internalType":"bytes"}],"outputs":[],"stateMutability":"payable"},{"type":"event","name":"Initialized","inputs":[{"name":"version","type":"uint64","indexed":false,"internalType":"uint64"}],"anonymous":false},{"type":"event","name":"OptionBurned","inputs":[{"name":"positionId","type":"uint256","indexed":true,"internalType":"uint256"},{"name":"owner","type":"address","indexed":true,"internalType":"address"},{"name":"settledPremium","type":"uint256","indexed":false,"internalType":"uint256"}],"anonymous":false},{"type":"event","name":"OptionMinted","inputs":[{"name":"positionId","type":"uint256","indexed":true,"internalType":"uint256"},{"name":"owner","type":"address","indexed":true,"internalType":"address"},{"name":"poolId","type":"bytes32","indexed":false,"internalType":"bytes32"}],"anonymous":false},{"type":"event","name":"OwnershipTransferStarted","inputs":[{"name":"previousOwner","type":"address","indexed":true,"internalType":"address"},{"name":"newOwner","type":"address","indexed":true,"internalType":"address"}],"anonymous":false},{"type":"event","name":"OwnershipTransferred","inputs":[{"name":"previousOwner","type":"address","indexed":true,"internalType":"address"},{"name":"newOwner","type":"address","indexed":true,"internalType":"address"}],"anonymous":false},{"type":"event","name":"PoolManagerUpdated","inputs":[{"name":"oldManager","type":"address","indexed":true,"internalType":"address"},{"name":"newManager","type":"address","indexed":true,"internalType":"address"}],"anonymous":false},{"type":"event","name":"Upgraded","inputs":[{"name":"implementation","type":"address","indexed":true,"internalType":"address"}],"anonymous":false},{"type":"error","name":"AddressEmptyCode","inputs":[{"name":"target","type":"address","internalType":"address"}]},{"type":"error","name":"ERC1967InvalidImplementation","inputs":[{"name":"implementation","type":"address","internalType":"address"}]},{"type":"error","name":"ERC1967NonPayable","inputs":[]},{"type":"error","name":"FailedInnerCall","inputs":[]},{"type":"error","name":"InsufficientPremium","inputs":[]},{"type":"error","name":"InvalidInitialization","inputs":[]},{"type":"error","name":"InvalidPoolManager","inputs":[]},{"type":"error","name":"InvalidTickRange","inputs":[]},{"type":"error","name":"NotInitializing","inputs":[]},{"type":"error","name":"OptionAlreadyClosed","inputs":[]},{"type":"error","name":"OwnableInvalidOwner","inputs":[{"name":"owner","type":"address","internalType":"address"}]},{"type":"error","name":"OwnableUnauthorizedAccount","inputs":[{"name":"account","type":"address","internalType":"address"}]},{"type":"error","name":"PositionDoesNotExist","inputs":[]},{"type":"error","name":"ReentrancyGuardReentrantCall","inputs":[]},{"type":"error","name":"UUPSUnauthorizedCallContext","inputs":[]},{"type":"error","name":"UUPSUnsupportedProxiableUUID","inputs":[{"name":"slot","type":"bytes32","internalType":"bytes32"}]},{"type":"error","name":"Unauthorized","inputs":[]},{"type":"error","name":"ZeroLiquidity","inputs":[]}],"bytecode":{"object":"0x60a0604052306080523480156012575f80fd5b506080516115da6100395f395f8181610b7501528181610b9e0152610ce201526115da5ff3fe6080604052600436106100ef575f3560e01c806381ae634d11610087578063dc4c90d311610057578063dc4c90d314610292578063e30c3978146102b0578063eb02c301146102c4578063f2fde38b146102f0575f80fd5b806381ae634d146101df578063882ea4e1146101fe5780638da5cb5b14610229578063ad3cb1cc14610255575f80fd5b806352d1902d116100c257806352d1902d146101845780635752475114610198578063715018a6146101b757806379ba5097146101cb575f80fd5b806306d07423146100f35780632ffe186c14610125578063485cc955146101505780634f1ef28614610171575b5f80fd5b3480156100fe575f80fd5b5061011261010d366004611083565b61030f565b6040519081526020015b60405180910390f35b348015610130575f80fd5b5061011261013f3660046110fd565b60036020525f908152604090205481565b34801561015b575f80fd5b5061016f61016a36600461112a565b61049a565b005b61016f61017f3660046111a0565b6105fa565b34801561018f575f80fd5b50610112610619565b3480156101a3575f80fd5b5061016f6101b2366004611245565b610634565b3480156101c2575f80fd5b5061016f6106b2565b3480156101d6575f80fd5b5061016f6106c5565b3480156101ea575f80fd5b5061016f6101f93660046110fd565b610712565b348015610209575f80fd5b506101126102183660046110fd565b60026020525f908152604090205481565b348015610234575f80fd5b5061023d610836565b6040516001600160a01b03909116815260200161011c565b348015610260575f80fd5b50610285604051806040016040528060058152602001640352e302e360dc1b81525081565b60405161011c919061125e565b34801561029d575f80fd5b505f5461023d906001600160a01b031681565b3480156102bb575f80fd5b5061023d61086a565b3480156102cf575f80fd5b506102e36102de3660046110fd565b610892565b60405161011c9190611293565b3480156102fb575f80fd5b5061016f61030a366004611245565b6109b8565b5f610318610a3d565b5f82900361033957604051630200e8a960e31b815260040160405180910390fd5b5f805460149061035990600160a01b900467ffffffffffffffff16611342565b825467ffffffffffffffff9182166101009390930a83810292021916179091555f818152600160208190526040822080546001600160a01b031916331781559081018790554260038201559192505b8381101561042d576103e28585838181106103c5576103c561137a565b9050608002018036038101906103db91906113bd565b603c610a74565b816002018585838181106103f8576103f861137a565b83546001810185555f9485526020909420608090910292909201929190910190506104238282611442565b50506001016103a8565b505f828152600360205260409081902042905551339083907fde12855a0c6484a94119c0040bafb90aa1955c1d51e8c3cb9dab95e3e5b67cc5906104749089815260200190565b60405180910390a35061049360015f8051602061158583398151915255565b9392505050565b7ff0c57e16840df040f15088dc2f81fe391c3923bec73e23a9662efc9c229c6a008054600160401b810460ff16159067ffffffffffffffff165f811580156104df5750825b90505f8267ffffffffffffffff1660011480156104fb5750303b155b905081158015610509575080155b156105275760405163f92ee8a960e01b815260040160405180910390fd5b845467ffffffffffffffff19166001178555831561055157845460ff60401b1916600160401b1785555b6001600160a01b0387166105785760405163bc12814760e01b815260040160405180910390fd5b610580610b41565b61058986610b49565b610591610b5a565b5f80546001600160e01b0319166001600160a01b03891617905583156105f157845460ff60401b19168555604051600181527fc7f505b2f371ae2175ee4913f4499e1f2633a7b5936321eed1cdaeb6115181d29060200160405180910390a15b50505050505050565b610602610b6a565b61060b82610c0e565b6106158282610c16565b5050565b5f610622610cd7565b505f8051602061156583398151915290565b61063c610d20565b6001600160a01b0381166106635760405163bc12814760e01b815260040160405180910390fd5b5f80546001600160a01b038381166001600160a01b0319831681178455604051919092169283917f98ea7e41f981415a7f25f05c01f54351c0524b978d01a0446d0ff3bb92840fb79190a35050565b6106ba610d20565b6106c35f610d52565b565b33806106cf61086a565b6001600160a01b0316146107065760405163118cdaa760e01b81526001600160a01b03821660048201526024015b60405180910390fd5b61070f81610d52565b50565b61071a610a3d565b5f81815260016020526040902080546001600160a01b03163314610750576040516282b42960e81b815260040160405180910390fd5b80546001600160a01b03166107785760405163f7b3b39160e01b815260040160405180910390fd5b5f828152600260208181526040808420546003835281852042905560019283905290842080546001600160a01b03191681559182018490559290916107bf9083018261104a565b505f60039182018190558481526002602090815260408083208390559290528181205551339084907fde89f72b3e4f11843af04010c0e5b3110cf75cda1cacbd7466699eb9c27a4223906108169085815260200190565b60405180910390a3505061070f60015f8051602061158583398151915255565b5f807f9016d09d72d40fdae2fd8ceac6b6234c7706214fd39c1cd1e609a0528c1993005b546001600160a01b031692915050565b5f807f237e158222e3e6968b72b9db0d8043aacf074ad9f650f0d1606b4d82ee432c0061085a565b604080516080810182525f808252602082018190526060928201839052918101919091525f828152600160208181526040808420815160808101835281546001600160a01b031681529381015484840152600281018054835181860281018601855281815295969295938701949192909184015b82821015610974575f848152602090819020604080516080810182529185015460ff8116151583526101008104600290810b848601526401000000008204900b9183019190915267010000000000000090046001600160801b03166060820152825260019092019101610906565b505050908252506003919091015460209091015280519091506001600160a01b03166109b35760405163f7b3b39160e01b815260040160405180910390fd5b919050565b6109c0610d20565b7f237e158222e3e6968b72b9db0d8043aacf074ad9f650f0d1606b4d82ee432c0080546001600160a01b0319166001600160a01b0383169081178255610a04610836565b6001600160a01b03167f38d16b8cac22d99fc7c124b9cd0de2d3fa1faef420bfe791d8c362d765e2270060405160405180910390a35050565b5f80516020611585833981519152805460011901610a6e57604051633ee5aeb560e01b815260040160405180910390fd5b60029055565b816040015160020b826020015160020b12610aa1576040516264847d60e41b815260040160405180910390fd5b808260200151610ab1919061150a565b60020b15610ad1576040516264847d60e41b815260040160405180910390fd5b808260400151610ae1919061150a565b60020b15610b01576040516264847d60e41b815260040160405180910390fd5b81606001516001600160801b03165f0361061557604051630200e8a960e31b815260040160405180910390fd5b60015f8051602061158583398151915255565b6106c3610d8a565b610b51610d8a565b61070f81610dd3565b610b62610d8a565b6106c3610e04565b306001600160a01b037f0000000000000000000000000000000000000000000000000000000000000000161480610bf057507f00000000000000000000000000000000000000000000000000000000000000006001600160a01b0316610be45f80516020611565833981519152546001600160a01b031690565b6001600160a01b031614155b156106c35760405163703e46dd60e11b815260040160405180910390fd5b61070f610d20565b816001600160a01b03166352d1902d6040518163ffffffff1660e01b8152600401602060405180830381865afa925050508015610c70575060408051601f3d908101601f19168201909252610c6d91810190611537565b60015b610c9857604051634c9c8ce360e01b81526001600160a01b03831660048201526024016106fd565b5f805160206115658339815191528114610cc857604051632a87526960e21b8152600481018290526024016106fd565b610cd28383610e0c565b505050565b306001600160a01b037f000000000000000000000000000000000000000000000000000000000000000016146106c35760405163703e46dd60e11b815260040160405180910390fd5b33610d29610836565b6001600160a01b0316146106c35760405163118cdaa760e01b81523360048201526024016106fd565b7f237e158222e3e6968b72b9db0d8043aacf074ad9f650f0d1606b4d82ee432c0080546001600160a01b031916815561061582610e61565b7ff0c57e16840df040f15088dc2f81fe391c3923bec73e23a9662efc9c229c6a0054600160401b900460ff166106c357604051631afcd79f60e31b815260040160405180910390fd5b610ddb610d8a565b6001600160a01b03811661070657604051631e4fbdf760e01b81525f60048201526024016106fd565b610b2e610d8a565b610e1582610ed1565b6040516001600160a01b038316907fbc7cd75a20ee27fd9adebab32041f755214dbc6bffa90cc0225b39da2e5c2d3b905f90a2805115610e5957610cd28282610f34565b610615610fa6565b7f9016d09d72d40fdae2fd8ceac6b6234c7706214fd39c1cd1e609a0528c19930080546001600160a01b031981166001600160a01b03848116918217845560405192169182907f8be0079c531659141344cd1fd0a4f28419497f9722a3daafe3b4186f6b6457e0905f90a3505050565b806001600160a01b03163b5f03610f0657604051634c9c8ce360e01b81526001600160a01b03821660048201526024016106fd565b5f8051602061156583398151915280546001600160a01b0319166001600160a01b0392909216919091179055565b60605f80846001600160a01b031684604051610f50919061154e565b5f60405180830381855af49150503d805f8114610f88576040519150601f19603f3d011682016040523d82523d5f602084013e610f8d565b606091505b5091509150610f9d858383610fc5565b95945050505050565b34156106c35760405163b398979f60e01b815260040160405180910390fd5b606082610fda57610fd582611021565b610493565b8151158015610ff157506001600160a01b0384163b155b1561101a57604051639996b31560e01b81526001600160a01b03851660048201526024016106fd565b5080610493565b8051156110315780518082602001fd5b604051630a12f52160e11b815260040160405180910390fd5b5080545f8255905f5260205f209081019061070f91905b8082111561107f5780546001600160b81b0319168155600101611061565b5090565b5f805f60408486031215611095575f80fd5b83359250602084013567ffffffffffffffff8111156110b2575f80fd5b8401601f810186136110c2575f80fd5b803567ffffffffffffffff8111156110d8575f80fd5b8660208260071b84010111156110ec575f80fd5b939660209190910195509293505050565b5f6020828403121561110d575f80fd5b5035919050565b80356001600160a01b03811681146109b3575f80fd5b5f806040838503121561113b575f80fd5b61114483611114565b915061115260208401611114565b90509250929050565b634e487b7160e01b5f52604160045260245ffd5b604051601f8201601f1916810167ffffffffffffffff811182821017156111985761119861115b565b604052919050565b5f80604083850312156111b1575f80fd5b6111ba83611114565b9150602083013567ffffffffffffffff8111156111d5575f80fd5b8301601f810185136111e5575f80fd5b803567ffffffffffffffff8111156111ff576111ff61115b565b611212601f8201601f191660200161116f565b818152866020838501011115611226575f80fd5b816020840160208301375f602083830101528093505050509250929050565b5f60208284031215611255575f80fd5b61049382611114565b602081525f82518060208401528060208501604085015e5f604082850101526040601f19601f83011684010191505092915050565b602080825282516001600160a01b0316828201528281015160408084019190915283015160806060840152805160a084018190525f929190910190829060c08501905b8083101561132b578351805115158352602081015160020b6020840152604081015160020b60408401526001600160801b036060820151166060840152506080820191506020840193506001830192506112d6565b506060860151608086015280935050505092915050565b5f67ffffffffffffffff821667ffffffffffffffff810361137157634e487b7160e01b5f52601160045260245ffd5b60010192915050565b634e487b7160e01b5f52603260045260245ffd5b801515811461070f575f80fd5b8060020b811461070f575f80fd5b6001600160801b038116811461070f575f80fd5b5f60808284031280156113ce575f80fd5b506040516080810167ffffffffffffffff811182821017156113f2576113f261115b565b60405282356114008161138e565b815260208301356114108161139b565b602082015260408301356114238161139b565b60408201526060830135611436816113a9565b60608201529392505050565b813561144d8161138e565b815460ff19811691151560ff169182178355602084013561146d8161139b565b8060081b63ffffff00169050808363ffffffff1984161717845560408501356114958161139b565b8060201b66ffffff00000000168466ffffffffffffff198516178317178555505050505f60608301356114c7816113a9565b825476ffffffffffffffffffffffffffffffff00000000000000191660389190911b76ffffffffffffffffffffffffffffffff0000000000000016179091555050565b5f8260020b8061152857634e487b7160e01b5f52601260045260245ffd5b808360020b0791505092915050565b5f60208284031215611547575f80fd5b5051919050565b5f82518060208501845e5f92019182525091905056fe360894a13ba1a3210667c828492db98dca3e2076cc3735a920a3ca505d382bbc9b779b17422d0df92223018b32b4d1fa46e071723d6817e2486d003becc55f00a2646970667358221220fbfc1e51abdf2571509199edc7578d4fa42c2319e2159c74b8164cc8a58e5e6a64736f6c634300081a0033","linkReferences":{}},"methodIdentifiers":{"UPGRADE_INTERFACE_VERSION()":"ad3cb1cc","acceptOwnership()":"79ba5097","accruedPremia(uint256)":"882ea4e1","burnOption(uint256)":"81ae634d","getPosition(uint256)":"eb02c301","initialize(address,address)":"485cc955","lastUpdateTimestamp(uint256)":"2ffe186c","mintOption(bytes32,(bool,int24,int24,uint128)[])":"06d07423","owner()":"8da5cb5b","pendingOwner()":"e30c3978","poolManager()":"dc4c90d3","proxiableUUID()":"52d1902d","renounceOwnership()":"715018a6","transferOwnership(address)":"f2fde38b","updatePoolManager(address)":"57524751","upgradeToAndCall(address,bytes)":"4f1ef286"},"id":1}