{"abi":[{"type":"function","name":"getProof","inputs":[{"name":"data","type":"bytes32[]","internalType":"bytes32[]"},{"name":"node","type":"uint256","internalType":"uint256"}],"outputs":[{"name":"","type":"bytes32[]","internalType":"bytes32[]"}],"stateMutability":"pure"},{"type":"function","name":"getRoot","inputs":[{"name":"data","type":"bytes32[]","internalType":"bytes32[]"}],"outputs":[{"name":"","type":"bytes32","internalType":"bytes32"}],"stateMutability":"pure"},{"type":"function","name":"hashLeafPairs","inputs":[{"name":"left","type":"bytes32","internalType":"bytes32"},{"name":"right","type":"bytes32","internalType":"bytes32"}],"outputs":[{"name":"_hash","type":"bytes32","internalType":"bytes32"}],"stateMutability":"pure"},{"type":"function","name":"log2ceil","inputs":[{"name":"x","type":"uint256","internalType":"uint256"}],"outputs":[{"name":"","type":"uint256","internalType":"uint256"}],"stateMutability":"pure"},{"type":"function","name":"log2ceilBitMagic","inputs":[{"name":"x","type":"uint256","internalType":"uint256"}],"outputs":[{"name":"","type":"uint256","internalType":"uint256"}],"stateMutability":"pure"},{"type":"function","name":"verifyProof","inputs":[{"name":"root","type":"bytes32","internalType":"bytes32"},{"name":"proof","type":"bytes32[]","internalType":"bytes32[]"},{"name":"valueToProve","type":"bytes32","internalType":"bytes32"}],"outputs":[{"name":"","type":"bool","internalType":"bool"}],"stateMutability":"pure"}],"bytecode":{"object":"0x608060405234801561000f575f80fd5b506108c28061001d5f395ff3fe608060405234801561000f575f80fd5b5060043610610060575f3560e01c80632e08d6021461006457806358161a421461008a578063b8616195146100ad578063cf06c7b7146100cd578063dd1d2599146100e0578063e27d5153146100f3575b5f80fd5b610077610072366004610717565b610106565b6040519081526020015b60405180910390f35b61009d610098366004610751565b6101a4565b6040519015158152602001610081565b6100c06100bb36600461079d565b6101ed565b60405161008191906107df565b6100776100db366004610822565b610371565b6100776100ee366004610839565b6104a9565b610077610101366004610822565b6104d3565b5f60018251116101695760405162461bcd60e51b815260206004820152602360248201527f776f6e27742067656e657261746520726f6f7420666f722073696e676c65206c60448201526232b0b360e91b60648201526084015b60405180910390fd5b6001825111156101835761017c826104fd565b9150610169565b815f8151811061019557610195610859565b60200260200101519050919050565b81515f908290825b818110156101e1576101d7838783815181106101ca576101ca610859565b60200260200101516104a9565b92506001016101ac565b50509093149392505050565b6060600183511161024c5760405162461bcd60e51b8152602060048201526024808201527f776f6e27742067656e65726174652070726f6f6620666f722073696e676c65206044820152633632b0b360e11b6064820152608401610160565b5f6102578451610371565b67ffffffffffffffff81111561026f5761026f610668565b604051908082528060200260200182016040528015610298578160200160208202803683370190505b5090505f5b60018551111561036757836001166001036102f2578460018503815181106102c7576102c7610859565b60200260200101518282815181106102e1576102e1610859565b60200260200101818152505061034e565b84518460010103610312575f801b8282815181106102e1576102e1610859565b84846001018151811061032757610327610859565b602002602001015182828151811061034157610341610859565b6020026020010181815250505b600101600284049350610360856104fd565b945061029d565b5090505b92915050565b5f6001821161038157505f919050565b5f82600160801b81106103a157608093841c9361039e908361086d565b91505b6801000000000000000084106103c457604093841c936103c1908361086d565b91505b64010000000084106103e357602093841c936103e0908361086d565b91505b62010000841061040057601093841c936103fd908361086d565b91505b610100841061041c57600893841c93610419908361086d565b91505b6010841061043757600493841c93610434908361086d565b91505b6004841061045257600293841c9361044f908361086d565b91505b600284106104685761046560018361086d565b91505b5f816104768119600161086d565b169050818114801561048757505f83115b156104955750909392505050565b6104a083600161086d565b95945050505050565b5f81831080156104bf57835f52826020526104c7565b825f52836020525b505060405f2092915050565b5f808219600101831683145b83156104f557600193841c9391909101906104df565b900392915050565b6060805f83519050806001166001036105aa576002810460010167ffffffffffffffff81111561052f5761052f610668565b604051908082528060200260200182016040528015610558578160200160208202803683370190505b50915061058384600183038151811061057357610573610859565b60200260200101515f801b6104a9565b8260018451038151811061059957610599610859565b6020026020010181815250506105f3565b6002810467ffffffffffffffff8111156105c6576105c6610668565b6040519080825280602002602001820160405280156105ef578160200160208202803683370190505b5091505b5f805b6001830381101561065e5761063386828151811061061657610616610859565b60200260200101518783600101815181106101ca576101ca610859565b84838151811061064557610645610859565b60209081029190910101526001909101906002016105f6565b5091949350505050565b634e487b7160e01b5f52604160045260245ffd5b5f82601f83011261068b575f80fd5b8135602067ffffffffffffffff808311156106a8576106a8610668565b8260051b604051601f19603f830116810181811084821117156106cd576106cd610668565b60405293845260208187018101949081019250878511156106ec575f80fd5b6020870191505b8482101561070c578135835291830191908301906106f3565b979650505050505050565b5f60208284031215610727575f80fd5b813567ffffffffffffffff81111561073d575f80fd5b6107498482850161067c565b949350505050565b5f805f60608486031215610763575f80fd5b83359250602084013567ffffffffffffffff811115610780575f80fd5b61078c8682870161067c565b925050604084013590509250925092565b5f80604083850312156107ae575f80fd5b823567ffffffffffffffff8111156107c4575f80fd5b6107d08582860161067c565b95602094909401359450505050565b602080825282518282018190525f9190848201906040850190845b81811015610816578351835292840192918401916001016107fa565b50909695505050505050565b5f60208284031215610832575f80fd5b5035919050565b5f806040838503121561084a575f80fd5b50508035926020909101359150565b634e487b7160e01b5f52603260045260245ffd5b8082018082111561036b57634e487b7160e01b5f52601160045260245ffdfea2646970667358221220e80ce6b27669658e163a33b1322638a84a25f58b16e1c0cc314998d7a4b066ca64736f6c63430008180033","linkReferences":{}},"methodIdentifiers":{"getProof(bytes32[],uint256)":"b8616195","getRoot(bytes32[])":"2e08d602","hashLeafPairs(bytes32,bytes32)":"dd1d2599","log2ceil(uint256)":"e27d5153","log2ceilBitMagic(uint256)":"cf06c7b7","verifyProof(bytes32,bytes32[],bytes32)":"58161a42"},"storageLayout":{"storage":[],"types":{}},"id":99}